:02000002D0002C
:1040000000400D00C0930D00000006000C000501EB
:084010000401DE0500000000C0
:0440180058880D00B7
:10401C0009480A49884208B505D0094A824202D0AB
:10402C00121A04F0C6FA0748074A0021121A04F0C3
:10403C00E6FA014808BD00BFCCD8032024930D003C
:10404C0040D9032040D90320F0E7032070B503F0DA
:10405C0015FC074C074BE41AA40800251E46A54284
:10406C0004D056F8253098470135F8E770BD00BFED
:10407C0014930D00DC920D0000F006B908B500F0A9
:10408C0053F9BDE8084003F0BBBB00F00FBE00F0D5
:10409C0015BE00F013BE000008B5034A00210C2029
:1040AC0000F068FDFEE700BF11490D000078B0FA82
:1040BC0080F0400970470123037070477047006A15
:1040CC000368DB68184700000A4B10B50446036010
:1040DC0002F0D0FC214602F0BDFE03F0D3FC03F04D
:1040EC00C5FC2046044B40F8043B02F0B9FD2046C9
:1040FC0010BD00BF8C880D0074880D0010B50446EF
:10410C00FFF7E2FF2046242104F0DCF8204610BD26
:10411C000EB400B58CB00DAA202352F8041B0392E8
:10412C008DE8060004930168002304AA1E20059361
:10413C0000F030FD0CB05DF804EB03B070470000EC
:10414C0007B50388ADF80630BDF8062003490448CE
:10415C00FFF7DEFF03B05DF804FB00BF9C880D0089
:10416C000CE4032007B50388ADF80630BDF8062033
:10417C0003490448FFF7CCFF03B05DF804FB00BF14
:10418C00B7880D000CE4032007B50388ADF80630A2
:10419C00BDF8062003490448FFF7BAFF03B05DF8E9
:1041AC0004FB00BFCC880D000CE4032007B503888A
:1041BC00ADF80630BDF8062003490448FFF7A8FF08
:1041CC0003B05DF804FB00BFE4880D000CE4032091
:1041DC0007B50388ADF80630BDF80620034904483E
:1041EC00FFF796FF03B05DF804FB00BFFC880D00E1
:1041FC000CE4032007B50388ADF80630BDF80620A3
:10420C0003490448FFF784FF03B05DF804FB00BFCB
:10421C0017890D000CE4032007B50388ADF80630B0
:10422C00BDF8062003490448FFF772FF03B05DF8A0
:10423C0004FB00BF2C890D000CE4032013B503789C
:10424C008DF80630BDF806400A490B482246FFF7A8
:10425C005FFF0CB9094902E0012C04D1084906485A
:10426C00FFF756FF04E0224606490348FFF750FFCC
:10427C0002B010BD41890D000CE403205F890D00D4
:10428C0078890D0093890D0008B501F051FB01F000
:10429C0095FB00221449154801F07CFA00221449C0
:1042AC00144801F077FA00221349144801F072FA0D
:1042BC0000221349134801F06DFA002212491348E9
:1042CC0001F068FA00221249124801F063FA002248
:1042DC001149124801F05EFA002211491148BDE85B
:1042EC00084001F057BA00BF4D410D00C0D9032062
:1042FC0071410D00B0D9032095410D00A8D90320C0
:10430C00B9410D0044D90320DD410D00C8D903206B
:10431C0001420D00B8D9032025420D00D8D9032045
:10432C0049420D00D0D903202DE9F0419A488EB0B6
:10433C0001F09EFA0546002840F02A8197499848DA
:10434C00984FFFF7E5FE01F0F3FA1E22954901F0B4
:10435C0045FB0646B54280F2BE8054246C4304A84B
:10436C0000F018FF04F10800012204A9384401F000
:10437C0077F98D4980468A48FFF7CAFE3C448B4941
:10438C0009A800F072FD00222146684600F0F1FEFB
:10439C00694609A800F0BEFD01688148FFF7B8FE28
:1043AC00684600F01BFD09A800F018FD804909A81B
:1043BC0000F05BFD002204A9684601F07BF8694619
:1043CC0009A800F0A7FD01687548FFF7A1FE684633
:1043DC0000F004FD09A800F001FD764909A800F0E1
:1043EC0044FD00227449684601F064F8694609A846
:1043FC0000F090FD01686A48FFF78AFE684600F0FD
:10440C00EDFC09A800F0EAFC6C4909A800F02DFDB0
:10441C0000226B49684601F04DF8694609A800F086
:10442C0079FD01685E48FFF773FE684600F0D6FC24
:10443C0009A800F0D3FCB8F1000F4AD05E4904A8DB
:10444C0000F048FF002857D055485E49FFF760FE42
:10445C005D4801F00DFA002847D101F069FA0123FB
:10446C002246014609A801F077FF09A9564801F038
:10447C00EEFB09A801F00EFB534801F0F9F90028F6
:10448C0031D052494648FFF743FE514909A800F084
:10449C0097FF09AA4F494C4801F0B5FB4E4909A8B2
:1044AC0000F08EFF09AA4D49474801F0ACFB4C497E
:1044BC0009A800F085FF09AA4A49434801F0A3FB6B
:1044CC00494909A800F07CFF48493F4809AA01F076
:1044DC009AFB01353EE7002E5ADD324644493048FE
:1044EC00FFF716FE54E0434902E0434900E043491C
:1044FC002B48FFF70DFEECE7314904A800F0EAFE6B
:10450C000028E6D026483E49FFF702FE224801F07B
:10451C00AFF900283AD101F00BFA012322460146EB
:10452C0009A801F019FF09A91B4801F090FB09A883
:10453C0001F0B0FA184801F09BF90028D7D03149A6
:10454C001748FFF7E5FD224909A800F039FF09AA31
:10455C002D49114801F057FB1F4909A800F030FF05
:10456C0009AA2A490C4801F04EFB294909A800F078
:10457C0027FF09AA2749084801F045FB264909A845
:10458C0000F01EFF09AA25490348A0E72449AFE71C
:10459C000EB0BDE8F08100BF8CD90320DB890D0083
:1045AC000CE40320E0D90320EC890D00068A0D00F1
:1045BC00108A0D001D8A0D004CD90320308A0D0085
:1045CC0094D903200E8C0D0084D90320438A0D004E
:1045DC006C8A0D00C0D90320918A0D00B0D903203C
:1045EC00B68A0D00A8D90320DB8A0D0044D903201C
:1045FC00FD8B0D00008B0D00248B0D00B88B0D0076
:10460C00238C0D00458B0D00C8D90320B8D903208D
:10461C006E8B0D00D8D90320938B0D00D0D90320BD
:10462C00DC8B0D0070B5046843681426054606FB48
:10463C000346A64204D0204600F0D0FB1434F8E721
:10464C00286800F03BFB284670BD8842F8B506464A
:10465C000C46154616D9904215D2A2F114056C1AC7
:10466C00A1F114070444AF421CD02CB129462046BA
:10467C0000F0A4FB2B7C2374284600F0AFFB143D08
:10468C00143CF0E70ED0AC420CD02EB12146304693
:10469C0000F094FB237C3374204600F09FFB143411
:1046AC001436F0E7F8BD2DE9F041002303604360B8
:1046BC0083604E689E4204460F4624DD4FF014087A
:1046CC0008FB06F000F0F2FA0546E0B194E80600AB
:1046DC0008FB0212FFF7B9FF206800F0EFFA256023
:1046EC00A6603E687B6808FB0368464509D02DB17F
:1046FC003146284600F0DBFB337C2B741436143522
:10470C00F3E77B6863602046BDE8F08170B58CB040
:10471C00002400F0E7F800940194029403F0B2F93D
:10472C006946064603A8504DFFF7BDFF03A906A82E
:10473C00FFF7B9FF4D4B2B6006A909A8FFF7B3FF94
:10474C0009AA0121281D02F0ECFC09A8FFF76AFF59
:10475C0006A8FFF767FF464B2B602E6203A8FFF7F6
:10476C0061FF444B2B6003F08DF94FF4165103F0AD
:10477C0079F902F07FF9294602F066FC6846FFF7EA
:10478C0051FF3D4A3D49284603F08FFD3C483D4DC5
:10479C0001F0DAF9384A3C49394803F086FD3B48C8
:1047AC0001F0D2F9344A3849384803F07EFD3849D3
:1047BC00384800F005FE3849384800F001FE38480A
:1047CC0001F02EFE2C4A3749354803F06EFD364871
:1047DC0001F026FE284A3349334803F066FD33487E
:1047EC0001F01EFE244A2F49304803F05EFD30488C
:1047FC0001F016FE204A2B492D4803F056FD2D489A
:10480C0001F00EFE1C4A27492A4803F04EFD2A48A7
:10481C0001F006FE184A2349274803F046FD2748B5
:10482C0001F0FEFD144A1F49244803F03EFD2448C4
:10483C0001F0F6FD104A1B49214803F036FD40F605
:10484C00D816281900F026FC04F10800284400F0C2
:10485C00B0FE04F12C002844543400F0AAFEB442FB
:10486C00EFD10CB070BD00BF60D9032074880D006F
:10487C00D48F0D008C880D0040D90320D5400D003D
:10488C0084D90320E0D90320A15A0D008CD9032030
:10489C00388C0D004CD903205D8C0D0094D903206D
:1048AC00C0D90320935A0D00B0D90320A8D90320F6
:1048BC0044D90320C8D90320B8D90320D8D9032060
:1048CC00D0D9032008B5024B1B689B68019308BD27
:1048DC006802030008B5024B1B68DB68019308BD36
:1048EC006802030008B5024B1B681B68019308BDE6
:1048FC002C02030008B5024B1B685B68019308BDD2
:10490C001802030008B5024B1B68DB68019308BD55
:10491C001802030008B5024B1B685B69019308BDC4
:10492C001802030008B5024B1B689B68019308BD75
:10493C007802030008B5024B1B68DB6F019308BDBE
:10494C007802030008B5034B1B68D3F8843001933D
:10495C0008BD00007802030008B5034B1B68D3F8B0
:10496C009830019308BD00007802030008B5034B92
:10497C001B68D3F8BC30019308BD0000780203001B
:10498C0008B5034B1B68D3F8C430019308BD000075
:10499C007802030008B5034B1B68D3F8E030019391
:1049AC0008BD00007802030008B5034B1B68D3F860
:1049BC00E430019308BD00007802030008B5034BF6
:1049CC001B68D3F8F030019308BD00007802030097
:1049DC0008B5034B1B68D3F8F430019308BD0000F5
:1049EC007802030008B5024B1B689B68019308BD55
:1049FC004802030008B5024B1B681B69019308BDF4
:104A0C004802030008B5024B1B685B69019308BDA3
:104A1C004802030008B5024B1B685B6C019308BD90
:104A2C004802030008B5024B1B689B6C019308BD40
:104A3C004802030008B5024B1B68DB6C019308BDF0
:104A4C004802030008B5024B1B685B6D019308BD5F
:104A5C004802030008B5024B1B685B69019308BD53
:104A6C006402030008B5024B1B681B68019308BD68
:104A7C003C02030008B5024B1B689B68019308BD00
:104A8C003C02030008B5024B1B68DB68019308BDB0
:104A9C003C02030008B5024B1B681B69019308BD5F
:104AAC003C02030008B5024B1B685B69019308BD0F
:104ABC003C02030008B5024B1B689B69019308BDBF
:104ACC003C02030008B5024B1B68DB69019308BD6F
:104ADC003C02030008B5024B1B689B6A019308BD9E
:104AEC003C02030008B5024B1B68DB6A019308BD4E
:104AFC003C02030008B5024B1B681B68019308BD00
:104B0C004C02030008B5024B1B685B68019308BD9F
:104B1C004C02030008B5024B1B689B68019308BD4F
:104B2C004C02030008B5024B1B681B69019308BDBE
:104B3C004C02030008B5024B1B685B69019308BD6E
:104B4C004C02030008B5024B1B689B69019308BD1E
:104B5C004C02030008B5024B1B68DB69019308BDCE
:104B6C004C02030008B5024B1B681B6A019308BD7D
:104B7C004C02030008B5024B1B685B6B019308BD2C
:104B8C006002030008B5024B1B681B6D019308BD46
:104B9C006002030008B5024B1B685B6D019308BDF6
:104BAC006002030008B5024B1B68DB6E019308BD65
:104BBC006002030008B5024B1B681B6F019308BD14
:104BCC006002030008B5024B1B685B68019308BDCB
:104BDC002002030008B5034B1B68D3F888300193FF
:104BEC0008BD00002002030008B5034B1B68D3F876
:104BFC009430019308BD00002002030008B5024B5D
:104C0C001B685B68019308BD4002030008B5024BAA
:104C1C001B689B68019308BD4002030008B5024B5A
:104C2C001B68DB68019308BD4002030008B5024B0A
:104C3C001B681B69019308BD4002030008B5024BB9
:104C4C001B685B69019308BD4002030008B5024B69
:104C5C001B689B69019308BD4002030008B5024B19
:104C6C001B68DB69019308BD4002030008B5024BC9
:104C7C001B681B6A019308BD4002030008B5024B78
:104C8C001B681B6B019308BD4002030008B5024B67
:104C9C001B685B6B019308BD4002030008B5024B17
:104CAC001B68DB6B019308BD4402030008B5024B83
:104CBC001B681B68019308BD1C02030008B5024B5E
:104CCC001B685B68019308BD1C02030008B5024B0E
:104CDC001B689B68019308BD1C02030008B5024BBE
:104CEC001B685B6A019308BD1C020300002211467D
:104CFC004068FFF7BBBF002211464068FFF7C6BFF4
:104D0C0000224068FFF7BABF002281F00101406821
:104D1C00FFF7A4BF00231A4619464068FFF796BF59
:104D2C0000231A4619464068FFF788BF0022114637
:104D3C004068FFF77BBF002211464068FFF766BF53
:104D4C00002202214068FFF769BF00231A46406821
:104D5C00FFF754BF024B03225A60024A1A60704795
:104D6C00B8E303208C8C0D0010B50446006818B114
:104D7C00FFF7A4FF0023236010BD10B50446FFF716
:104D8C00F3FF204610BD000010B5094C00204FF673
:104D9C00FF732060A080A07120816381FFF712FF58
:104DAC002046044A0449BDE8104003F07EBA00BF17
:104DBC00C0E3032040D90320874D0D00002303607E
:104DCC0043608360037310B50C6804604C684460E6
:104DDC008C6884600B604B608B6010BD10B5044612
:104DEC000068FFF76BFF204610BD10B50446006845
:104DFC0008B1FFF763FF00232360A360636010BD5D
:104E0C0038B504460D4600680131FFF75FFF10B15D
:104E1C0084E82100012038BD10B50368044613B1A5
:104E2C0043688B4207D22046FFF7EAFF20B1A36804
:104E3C000BB922681370012010BD70B50E461146D7
:104E4C0004461546FFF7E8FF18B92046FFF7CDFFDB
:104E5C0009E02A463146A560206803F0AAFB2268C7
:104E6C00A3680021D154204670BD38B500230446F8
:104E7C0003604360836003730D4639B1084603F049
:104E8C0019FC294602462046FFF7D7FF204638BDBD
:104E9C00884210B50B46044607D0096819B19A68C8
:104EAC00FFF7CBFF01E0FFF7A0FF204610BD10B5C8
:104EBC00002304460360436083600373FFF7E8FF3D
:104ECC00204610BD38B505460C4641B1084603F0E6
:104EDC00F1FB214602462846FFF7AFFF01E0FFF742
:104EEC0084FF284638BD70B504460E4609B900202B
:104EFC0070BD6AB18368D5182946FFF78DFF00286D
:104F0C00F5D02068A3683146184403F0CBFBA560AC
:104F1C00012070BD10B58A6809680446FFF7E3FFED
:104F2C0010B92046FFF761FF204610BD70470020E6
:104F3C00704770470020704770470020704710B5CD
:104F4C001421044603F0BEF9204610BD10B51421FF
:104F5C00044603F0B7F9204610BD10B514210446E1
:104F6C0003F0B0F9204610BDFFF791B8FFF78FB8EA
:104F7C00FFF78DB810B50446006808B1FFF752FD75
:104F8C00204610BD30B58BB020230546002402937B
:104F9C00084B009302AA2346074903940120FFF70C
:104FAC00F1FD28680549008823462A46FFF7DEFCF8
:104FBC000BB030BD178D0D000C8D0D0039660D003A
:104FCC0008B50A20024A0021FFF7D4FD08BD00BF36
:104FDC0011490D0010B5036804469B689847A368F7
:104FEC00013BA3602BB923682046DB68BDE8104069
:104FFC00184710BD70B5931C0144884218D0047832
:10500C00240904F13005392D88BF04F13705064613
:10501C0003F8025C347804F00F0404F13005392DE8
:10502C0088BF04F1370503F8015C01300233E4E773
:10503C00104670BDA0F13003DAB2092A01D8184627
:10504C007047A0F16103052B01D857387047A0F1C8
:10505C004103052B94BF37384FF0FF3070470000E9
:10506C0010B500230370044B04461868FFF7E2FCEC
:10507C0001232370204610BDD4E3032010B5037820
:10508C0004461BB1024B1868FFF7DCFC204610BD30
:10509C00D4E30320002202604260704708B5827995
:1050AC008B799A4206D1062203F074FAB0FA80F09A
:1050BC00400908BD002008BD01390523C25C01F878
:1050CC00012F013BDBB2FF2BF8D1704770B51446B2
:1050DC0088B01D460E46002946D0002A46D001A9AC
:1050EC00FFF7EAFF03AA15B1062101A82DE0012163
:1050FC0001A8FFF77FFF3A250DF10F0201210DF1F9
:10510C0005008DF80E50FFF775FF0DF1120201210D
:10511C000DF106008DF81150FFF76CFF0DF1150223
:10512C0001210DF107008DF81450FFF763FF06AA5B
:10513C00012102A88DF81750FFF75CFF8DF81A506B
:10514C000DF11B0201210DF10900013CFFF752FF8B
:10515C00112C28BF1124224603A9304603F029FA4A
:10516C0000233355601C02E0084600E0104608B0EE
:10517C0070BD10B586B0044613460846122201A92C
:10518C00FFF7A4FF01A92046FFF76FFE204606B0EB
:10519C0010BD000010B501230361054B024603F15D
:1051AC00100153F8044B42F8044B8B42F9D110BD5B
:1051BC00AC8E0D000B7C13F0FD0330B510D10361E8
:1051CC000D4B024603F1100453F8045B42F8045BE8
:1051DC00A342F9D10B8803730B881B12437330BDA8
:1051EC000123036101F11002034651F8044B43F80B
:1051FC00044B9142F9D130BDAC8E0D0010B50B694A
:10520C00036101F11002034651F8044B43F8044BBF
:10521C009142F9D110BD10B50B460446B9B1012A23
:10522C0009D1034601F1100251F8040B43F8040BA9
:10523C009142F9D108E0411E0F22985C01F8010F50
:10524C00013AD2B2FF2AF8D10123236102E01022E5
:10525C0003F0D5F9204610BD38B504460D46FFF7CE
:10526C0099FF002325732D0A23616573204638BDF1
:10527C0010B50B69036101F11002034651F8044BA0
:10528C0043F8044B9142F9D110BD10B586B00446D9
:10529C00012201A8FFF7BFFF01A92046FFF7E8FF95
:1052AC0006B010BD10B586B0044601A8FFF7D4FFB8
:1052BC0001A92046FFF7DCFF06B010BD10B586B083
:1052CC00044601A8FFF776FF01A92046FFF7D0FF9F
:1052DC0006B010BD08B502690B699A4206D11022BE
:1052EC0003F058F9B0FA80F0400908BD002008BD61
:1052FC000123F7B50361314B0E460546024603F117
:10530C00100153F8040B42F8040B8B42F9D1002E18
:10531C0051D02421304603F0EAF9042810D000279C
:10532C0010242421304603F0E2F9B84201D944BBE1
:10533C0041E02C440023A5423DD004F8013DFAE79E
:10534C003078FFF777FE041E18DB7078FFF772FEDB
:10535C00002813DB40EA04108DF80400B078FFF746
:10536C0069FE041E0ADBF078FFF764FE0028A1BF7B
:10537C0040EA04109DF8043028736B7300232B61F2
:10538C0019E0F05DFFF756FE030612D4013C000154
:10539C0028552421304603F0AAF90137874208D258
:1053AC00F05DFFF747FE40B20028A2BF2B5D18430B
:1053BC0028550137B5E703B0F0BD00BFAC8E0D002A
:1053CC0038B504460D46FFF7E5FE20462946FFF7A3
:1053DC008FFF204638BD01390F23C25C01F8012F25
:1053EC00013BDBB2FF2BF8D170472DE9F041984619
:1053FC008EB00D46002957D0002A57D00669541E8E
:10540C00AEB9027B437B059643EA0223022105AA2F
:10541C0001A8ADF80430FFF7EDFD042C28BF0424DF
:10542C00224605A9284603F0C4F82E553AE001A9F6
:10543C00FFF7D1FF05AAB8F1000F02D0102101A887
:10544C0024E004210DEB0100FFF7D4FD2D260DF116
:10545C001D02022102A88DF81C60FFF7CBFD0DF197
:10546C00220202210DF10A008DF82160FFF7C2FD26
:10547C000DF12702022103A88DF82660FFF7BAFD73
:10548C008DF82B600BAA06210DF10E00FFF7B2FD73
:10549C00242C28BF2424224605A9284603F089F889
:1054AC0000232B55601C02E0084600E010460EB0AD
:1054BC00BDE8F08110B58AB00446002325220846C9
:1054CC006946FFF792FF69462046FFF7CEFC20465F
:1054DC000AB010BD38B5054601B112B900202862DA
:1054EC0038BD1F2A28BF1F22144603F062F82C6215
:1054FC00204638BDF0B58BB10024E51C8D420FD889
:10550C00661C055D875D974205D12E44B14207D3D9
:10551C001C60681CF0BD01352C44EEE71846F0BD4C
:10552C000020F0BD2DE9F74304460E461D461746F4
:10553C00002A3AD00A4601AB016AFFF7DBFF9DF85F
:10554C002830226A03BBF8B1961C2E44361A1F2E43
:10555C002BD8DDF8048008F10209C8EB0202121AFC
:10556C0000EB080105EB090092B22144204403F042
:10557C002BF86B1C04F808302A46394604EB09005A
:10558C0003F017F8266210E0901C2B181F2B0CD878
:10559C006B1CA354224420623946567020442A4680
:1055AC0003F007F8226A2A442262206A03B0BDE89D
:1055BC00F0831FB50446034600F11F02002003F8D8
:1055CC00010B93424FF00001F9D104AA062302F813
:1055DC00013D01232162009120461946FFF7A2FFED
:1055EC00204604B010BD2DE9F04F002585B00646CD
:1055FC00894617469A462C464FF01408316A8D425C
:10560C002AD203AB4A46491B7019FFF773FF834636
:10561C0010B3544520D2042803990CD12944721894
:10562C00631CD1789278019342EA012108FB047043
:10563C00FFF738FE0AE012280AD102312944631C14
:10564C00314408FB04700193FFF71FFE019B1C46BD
:10565C00039B5B441D44D1E7204605B0BDE8F08FA9
:10566C002DE9F04113460D4616460A46022107461F
:10567C00FFF7B9FF4FF01408331A08FB0052044629
:10568C0003213846FFF7AFFF0444331B08FB0452D9
:10569C0006213846FFF7A7FF0444331B08FB0452CE
:1056AC0007213846FFF79FFF2044BDE8F08100003A
:1056BC0038B500254FF6FF73044643800E22294669
:1056CC0005700571063002F09AFF04F11400FFF723
:1056DC0061FD04F12800FFF75DFD044904F13C0075
:1056EC00FFF7C3FBE5642565204638BD938F0D009D
:1056FC0010B58369C26903EBC2029342184606D007
:10570C00046824888C4203F10803F6D110BD0020F4
:10571C0010BD000070B504680E46217886B00029D3
:10572C002ED162884FF6FF739A4229D0238A53B345
:10573C0018252A46684602F062FF0123ADF80030B6
:10574C00134BADF80250019302946388ADF80C3002
:10575C00238AADF80E30A389ADF810305EB12379F1
:10576C009A0644BF022305932379DB0642BF059BAF
:10577C0043F00103059300216846FFF729F904E083
:10578C006FF0D10001E06FF0770006B070BD00BF84
:10579C0079590D000368D9641A6570472DE9F041F9
:1057AC008AB020230E46029300252E4B009302AAAA
:1057BC002B462D4903950120FFF7E4F93368DC688B
:1057CC001F694FF01C0804EBC7070834A4F1080349
:1057DC009F42326817D0ADF80A8054F8083C9B8A77
:1057EC00ADF8203054F8083CDB8AADF82230108834
:1057FC00009533461D4A02A9FFF7C2F8002804F1B0
:10580C000804E3DA2AE09469D569002704EBC5059E
:10581C000834A4F108039D421FD054F8083CDB89DE
:10582C00CBB11422002102A802F0E9FE54F8083C86
:10583C00D989336802AA188800971323FFF7AAF8AE
:10584C0048B10AAB184402A900F8207C54F8080CA3
:10585C003C30FFF737FB0834DBE700200AB0BDE82B
:10586C00F08100BF338D0D000C8D0D0081640D0097
:10587C00036818884FF6FF73C01A18BF01207047D1
:10588C0002680B68C2F802304B68C2F806307047E9
:10589C0010B50A6852F8023F03605368436010BDAC
:1058AC001FB502680B6812881B889A420C460CD1F3
:1058BC0001466846FFF7ECFF214602A8FFF7E8FF18
:1058CC0002A96846FFF7EAFB00B9002004B010BD3E
:1058DC0010B504463420FEF7D8FB014668B100230E
:1058EC00036043608360C360036143618361C36190
:1058FC00036243628362C3620363216019B90A4A7B
:10590C000A20FFF737F90020FFF70CF820B1064A00
:10591C0000210A20FFF72EF9002221680348FFF727
:10592C004DF8204610BD00BF11490D00AD5D0D00B6
:10593C0010B50A4C2368DB070ED42046FEF7B6FBE5
:10594C0050B10748FFF7C4FF2046FEF7B4FB054AE9
:10595C000549034802F0A9FC014810BDD0E303201F
:10596C00CCE3032040D90320155B0D0070B5036810
:10597C00093B012B8AB004460E4619D8FFF7D8FF15
:10598C00A1880068FFF7B4FE024658B920230293A1
:10599C00084B0390009302AA034607493220FFF7F5
:1059AC00F1F805E0F56C1DB1336DE1682069A8478D
:1059BC000AB070BD568D0D000C8D0D0013B501A8ED
:1059CC00FFF74EFB0020FEF7ADFF044601A8FFF7E2
:1059DC0055FB04EAE47002B010BD000030B58BB08A
:1059EC000D4601A81446FFF73BFBB5B1ACB1002244
:1059FC0002A90D480694029203920492079208920F
:105A0C0009920595FEF796FF0028B8BF0446029848
:105A1C00A8BF079CFFF752F900E0044C01A8FFF760
:105A2C002DFB20460BB030BD1B5F0D00F2FEFFFFBF
:105A3C000B68036013B15A6801325A60704710B595
:105A4C0051F8043B044640F8043BFFF7F1FF236890
:105A5C000BB9FFF7B5FA204610BD10B551F8043B51
:105A6C00044640F8043BFFF7E3FF204610BD10B599
:105A7C000446006828B14368013B43600BB9FFF74B
:105A8C00A9FA204610BD10B504460430FFF7EFFF0D
:105A9C00204610BD10B504460430FFF7E8FF204641
:105AAC0010BD70B504684368054604EBC306A642F6
:105ABC0004D0201DFFF7DBFF0834F8E72868FFF758
:105ACC00FDF8284670BD70B504684368054604EBC4
:105ADC00C306A64204D0201DFFF7C9FF0834F8E71F
:105AEC002868FFF7EBF8284670BD10B5046904F17F
:105AFC001800FFF7E8FF04F10C00FFF7D2FF204677
:105B0C00BDE81040FEF7C3BAF8B504680746C4B147
:105B1C00A569E36905EBC306AE4204D0281DFFF767
:105B2C00A6FF0835F8E7A069FFF7C8F804F10C00E8
:105B3C00FFF7C9FF2046FFF7B4FF3421204602F0DF
:105B4C00C1FB3846F8BD000073B500250560456003
:105B5C0006462420FEF799FA044678B103464FF620
:105B6C00FF7223F8022BC0F802505D608572C5727B
:105B7C00C560056145618561C5610562002314201E
:105B8C000193FEF782FA034628B10122426082603B
:105B9C00084A0260046102A8726840F8042D736020
:105BAC003460FFF764FF33680BB9FFF709FA30462E
:105BBC0002B070BDF88C0D0038B50C6803689C42BF
:105BCC0005460CD014B1636801336360286828B1B2
:105BDC004368013B43600BB9FFF7FCF92C60284686
:105BEC0038BD10B502680B680446D06C10B1D8648F
:105BFC00126D1A65204651F8043B40F8043BFFF740
:105C0C00DBFF204610BD2DE9F04303689C69DE697B
:105C1C0087B00F46904604EBC606B442A14611D09D
:105C2C0054F8081B01A81431FFF7E8FA414601A803
:105C3C00FFF750FB05460028EFD049463846FFF7E2
:105C4C00D0FF00E00025284607B0BDE8F08310B572
:105C5C0051F8043B044640F8043BFFF7ADFF2046E7
:105C6C0010BD884270B515461AD9904219D2A1F1CF
:105C7C000806511A0439151F44182B1F9E4225D0B3
:105C8C00042C07D055F8043C44F8043C2946204623
:105C9C00FFF7CEFE2846FFF7EAFE083D083CECE78E
:105CAC0014D00C1D061D231F9D420FD0042E07D0AF
:105CBC0054F8043C46F8043C21463046FFF7B8FE45
:105CCC002046FFF7D4FE08340836ECE770BD2DE90A
:105CDC00F041046843680546884604EBC307A742B5
:105CEC0018D041462046FFF7DBFD064608B90834BC
:105CFC00F5E78CB1201DFFF7BAFE2B686A6804F13A
:105D0C00080103EBC2022046FFF7ABFF6B68013BB7
:105D1C006B6002E0002600E026463046BDE8F081CC
:105D2C00F7B5044651F8043B4768009301A8FFF708
:105D3C007FFE6668A3689E4214DB0136002E0BDDE5
:105D4C00F000FEF7B3FF054618B394E8060001EB2C
:105D5C00C202FFF786FF00E000252068FEF7AEFFC9
:105D6C002560A6602668626806EBC70506EBC202D2
:105D7C00294605F10800FFF774FF35B1009B46F882
:105D8C00373001A9281DFFF753FE636801336360A8
:105D9C00012501A8FFF76BFE284603B0F0BD0000FB
:105DAC002DE9F04104468EB003A80D46FFF758F9D3
:105DBC002368032B02D0042B42D087E004A8FFF702
:105DCC00C3FE049B22891A806268049952F8083F2A
:105DDC00C1F802305368C1F8063007A8049B06933B
:105DEC0005A9FFF725FE06A905F11800FFF798FF96
:105DFC00044607A8FFF73BFE2023069374B9364BE5
:105E0C00009306AA2346354907943220FEF7BAFEC2
:105E1C00049B21461888FEF79FFD0DE0304A009246
:105E2C00002306AA2D4907930120FEF7ABFE6B6AEF
:105E3C0013B1E96A04A8984705A8FFF718FE45E0D6
:105E4C0021892846FFF754FC074600283ED00468F9
:105E5C00A369E1694FF6FF72228003EBC1019942FD
:105E6C0003D053F8080B4280F9E7E668236906EB88
:105E7C00C308B04504D0301DFFF7F9FD0836F8E72C
:105E8C0000232361A669E36906EBC308B04504D07F
:105E9C00301DFFF7ECFD0836F8E70023E361A37231
:105EAC00E372AB6A13B1296B3846984720230D4A2D
:105EBC0006930092002309490793012006AAFEF7D6
:105ECC0061FE394605F11800FFF701FF03A8FFF743
:105EDC00D5F80EB0BDE8F0816E8D0D000C8D0D0067
:105EEC00948D0D00B18D0D0038B50D1E044606DDE8
:105EFC00542169430068FEF7E9FE20B938BD0068FB
:105F0C00FEF7DCFE00202060A560012038BD70B5D6
:105F1C005426C0B0054632460C4601A8002102F0BA
:105F2C006EFB03A8FFF745FB0CA8FFF742FB2A46C4
:105F3C0001AB52F8100F5168EA8903C32B78A9689A
:105F4C008DF854300CA8FFF7C5FAAA89696803A824
:105F5C00FFF7C0FAA5691DB1E16901A8A8473CE0AB
:105F6C00E06898B163692269934239D25A1C626124
:105F7C0006FB0300512201A902F01BFB6269236995
:105F8C009A422DD32846FEF7DDFC29E0324601A9C2
:105F9C0016A802F00EFB324616A92BA8656802F073
:105FAC0008FBA3689D4204DB691C2046FFF79CFF9D
:105FBC00B0B163682268542606FB052506FB032254
:105FCC00521B2946A81902F0FFFA32462BA9284683
:105FDC0002F0EFFA63680133636063690133636154
:105FEC0040B070BD8842F8B506460C46154614D92B
:105FFC00904213D2A2F108056C1AA1F108070444CF
:10600C00AF4218D01CB129462046FFF726FD281DAB
:10601C00FFF72DFD083D083CF2E70CD0AC420AD04E
:10602C001EB121463046FFF718FD201DFFF71FFD5E
:10603C0008340836F2E7F8BD70B50E1E05460BDDC8
:10604C00F000FEF733FE044670B195E8060001EB54
:10605C00C202FFF7C7FF00E000242868FEF72EFEFF
:10606C002C60AE60012070BD70BD2DE9F0410023A5
:10607C000360436083600E4649689942044613DD11
:10608C00FFF7DAFF80B135687368276805EBC30842
:10609C00454507D01FB129463846FFF7DEFC0835C9
:1060AC000837F5E7736863602046BDE8F08138B5C2
:1060BC000B689B7A05460C4633B90846FEF762FF1F
:1060CC0010B9236801229A72216828460C31FFF717
:1060DC00CCFF284638BD73B5044645686846FFF7C3
:1060EC00BCFC6168A368994205DB01312046FFF7CF
:1060FC00A3FF064698B12368626803EBC50503EB62
:10610C00C202294605F10800FFF76CFF1DB1694674
:10611C002846FFF7A2FC636801336360012601A8DF
:10612C00FFF7A5FC304602B070BD8842F8B50646B4
:10613C000C46154614D9904213D2A2F108056C1ADC
:10614C00A1F108070444AF4218D01CB129462046DF
:10615C00FFF775FC281DFFF78AFC083D083CF2E7A9
:10616C000CD0AC420AD01EB121463046FFF767FC7A
:10617C00201DFFF77CFC08340836F2E7F8BD70B53B
:10618C000E1E05460BDDF000FEF790FD044670B1C7
:10619C0095E8060001EBC202FFF7C7FF00E0002400
:1061AC002868FEF78BFD2C60AE60012070BD70BDC1
:1061BC002DE9F04100230360436083600E4649687B
:1061CC009942044613DDFFF7DAFF80B13568736836
:1061DC00276805EBC308454507D01FB1294638464B
:1061EC00FFF72DFC08350837F5E773686360204628
:1061FC00BDE8F08130B50B689B7A85B005460C463E
:10620C002BB901A8FFF753FF01A8FFF74AFC23683D
:10621C00DB7A3BB9214601A8FFF7C0FA10B9236815
:10622C000122DA72216828461831FFF7C1FF28468F
:10623C0005B030BD2DE9F0430D4693B04FF0180872
:10624C00174606464246002104A81C4602F0D7F920
:10625C0069682868079702AB03C34FF0010905ABC7
:10626C0083E80300ADF81090ADF81280FFF760FBE7
:10627C00344B0893FFF75CFB0022036831680993E9
:10628C0004A8FEF791FB074620B133684FF6FF7266
:10629C001A8053E029463046FFF7F2FAFFF748FB25
:1062AC003146036812AD03F1180851F8043B45F868
:1062BC00203D0BA8FFF7BCFB29464046FFF730FDFD
:1062CC0080460BA8FFF7D3FB20230A93B8F1000FED
:1062DC0014D11D4B00932A4643461C49CDF82C8003
:1062EC003220FEF74FFC336841461888FEF734FB2A
:1062FC00336817484FF6FF721A801FE0154B009356
:10630C002A463B4611490B974846FEF73BFCA4B185
:10631C0031462846FFF76EFF0A9C0B9B04EBC30625
:10632C00A64205D020460121FFF7F4F90834F7E71F
:10633C002846FFF7C8FB002000E0204613B0BDE85C
:10634C00F08300BFAD5D0D00D08D0D000C8D0D00E8
:10635C00FCFEFFFFEC8D0D0070B5044615461E4685
:10636C00FFF7F2FB3346002229462046FFF762FF77
:10637C00204670BD73B5044645686846FFF75FFB61
:10638C006168A368994205DB01312046FFF7F7FEEF
:10639C00064698B12368626803EBC50503EBC2029D
:1063AC00294605F10800FFF7C0FE1DB169462846D5
:1063BC00FFF745FB636801336360012601A8FFF713
:1063CC0056FB304602B070BD10B50446406808B1AB
:1063DC00FDF75DFE204610BD07B503690C308DE856
:1063EC00090003F13C00FEF7F9FC6846FFF7ECFFEF
:1063FC0003B05DF804FB000038B5002304460360CD
:10640C0014200D46FDF741FE28B101234360836043
:10641C00024B036005612060204638BDC08C0D0026
:10642C0070B5002586B00560456004465420FDF724
:10643C002CFECDF810D00646059008B1FFF738F9C0
:10644C00314601AB02AA03A80595FFF7D5FF039BC4
:10645C0062682660636003A80392FFF708FB04A838
:10646C00FFF7B2FF23680BB9FEF7AAFD204606B072
:10647C0070BD00002DE9F041DFF804818CB00546B9
:10648C000F4600262B689E4275D202A8FFF7C8FF64
:10649C00029B2A895A806B6802982A2474432344ED
:1064AC0014305B7E13F0020F1EBF10F8103C43F04B
:1064BC00020300F8103C6B6823445B7E5B0742BF11
:1064CC0010F8103C43F0040300F8103C6B682344B4
:1064DC005B7E190742BF10F8103C43F0080300F82C
:1064EC00103C6B6823445B7EDA0642BF10F8103C0C
:1064FC0043F0100300F8103C6B6823445B7E9B0652
:10650C0042BF10F8103C43F0200300F8103C6968BF
:10651C0021440431FEF7D2FE6A68029B144402A99E
:10652C00E28B1A81228C5A81628C9A81A28CDA813C
:10653C00E28C1A82228D5A82386800F1180404A861
:10654C00FFF77DFA204604A9FFF714FF044605A8BF
:10655C00FFF78DFA54B920230493CDF8008023461D
:10656C0004AA064905943220FEF70CFB03A8FFF79A
:10657C007EFA013686E70CB0BDE8F0810C8D0D007B
:10658C00098E0D0010B50446406808B1FDF77FFD7B
:10659C00204610BD07B503690C308DE8090068462C
:1065AC00FFF7F0FF03B05DF804FB000038B50023E3
:1065BC000446036014200D46FDF767FD28B1012346
:1065CC0043608360024B036005612060204638BD48
:1065DC00DC8C0D0070B5002586B005604560044666
:1065EC001820FDF752FDCDF810D00646059018B1D5
:1065FC00FEF7D0FDB582F582314601AB02AA03A8A5
:10660C000595FFF7D3FF039B62682660636003A8C0
:10661C000392FFF72CFA04A8FFF7B4FF23680BB919
:10662C00FEF7CEFC204606B070BD00002DE9F0410F
:10663C00DFF880808CB006460F46002533689D42FB
:10664C0033D202A8FFF7C6FF1C24716802986C4372
:10665C0021440431FEF732FE7368029A234402A9E6
:10666C001B8B938273681C44638BD382386800F154
:10667C000C0404A8FFF7F1F9204604A9FFF72BFD41
:10668C00044605A8FFF7F3F954B920230493CDF879
:10669C000080234604AA064905943220FEF772FABC
:1066AC0003A8FFF7E4F90135C8E70CB0BDE8F081A9
:1066BC000C8D0D00358E0D0010B5064C00232046B8
:1066CC002360FEF7A7F92046034A0449BDE81040B1
:1066DC0001F0EBBDD4E3032040D90320814F0D0022
:1066EC00F8B506460D468F180024BD420CD0336811
:1066FC0015F8011B9B6830469847002801DB0444C1
:10670C00F3E7002C08BF04462046F8BD70B50546DB
:10671C000C46084649B101F0CDFF2B6802462146D4
:10672C002846DB68BDE87040184770BD03689B685D
:10673C00184738B50D210546FFF7F8FF0A21044626
:10674C002846FFF7F3FF204438BD30B58BB00B461D
:10675C0000218DF82410012A98BF0A220DF1230480
:10676C00B3FBF2F505FB123303F0FF03092B94BFC7
:10677C0030333733DBB2214604F801392B46002D78
:10678C00EED1FFF7C3FF0BB030BD0CB42DE9F043D5
:10679C0087B000AF07F13804054654F8049B3C6001
:1067AC000E4623464A461421381DFEF797FA132845
:1067BC0005D8391D2846FFF7A9FF044613E000F160
:1067CC00080323F00703E846ADEB030D411C2346F9
:1067DC004A4668463C60FEF781FA69462846FFF750
:1067EC0095FF0446C5461EB12846FFF7A2FF044498
:1067FC0020461C37BD46BDE8F04302B070478068A8
:10680C000368DB681847704719B10B6808465B686A
:10681C001847704719B10B6808465B6818477047F2
:10682C0070477047704738B504460D4600682E21F6
:10683C0001F024FF2368C31A2B6023B1037803B142
:10684C00013023682060184638BD10B50C21044671
:10685C0001F038FD204610BD10B50421044601F0AE
:10686C0031FD204610BD10B50421044601F02AFD6F
:10687C00204610BD38B50C46054601F003F984429C
:10688C000DD001F087F9844205D101F083F9BDE800
:10689C00384001F07CB921462846FFF7BBFF38BDD4
:1068AC0008B501F0F5FEB0FA80F0400908BD38B526
:1068BC00054608460C4601F0FDFE214602462846D8
:1068CC00BDE8384001F08FBC0068FEF7B3B870B576
:1068DC00044608460D4601F0EDFE236802462946A3
:1068EC002046DB68BDE87040184713B502AB026860
:1068FC0003F8011DD46819460122A04702B010BD4F
:10690C002DE9F04F4568076885B091461422554330
:10691C000193AB10194D02925D438B463C4601230B
:10692C00002D039323DD029B6E1003FB06F004EB9A
:10693C0000084A46B8F804A02058D14528BF524652
:10694C00594601F0BFFE039B48B9D14503D1019ACA
:10695C0013703546E4E78CBF0120002000E0C00F27
:10696C000028F6D0AE1B08F11404013EF1E7E41B3D
:10697C000248A410604305B0BDE8F08FCDCCCCCC60
:10698C00F0B585B003690191067E13B309B304AF6A
:10699C00002347F8043D00F10C041D46394601A8BC
:1069AC00FFF741FF0146A0B104AB039A03F8055D64
:1069BC002046FFF7A5FF9DF80B3053B12368142434
:1069CC0004FB0034083434F9023C002BA8BFDEB2BF
:1069DC00E4E7304605B0F0BD10B5094C2368DB0781
:1069EC000BD42046FDF762FB38B12046FDF763FB64
:1069FC00044A0549054801F058FC044810BD00BF85
:106A0C00D8E3032040D903202F680D00D0D80320F1
:106A1C0010B5094C2368DB070BD42046FDF746FB69
:106A2C0038B12046FDF747FB044A0549054801F0FB
:106A3C003CFC044810BD00BF08E4032040D90320EF
:106A4C002D680D00CCD8032038B500250446056010
:106A5C004560856005614561856140F8245FFDF7FF
:106A6C00D9FFFFF7B9FFE061FFF7D2FF2573206272
:106A7C00204638BD10B50A4C2368DB070ED42046DF
:106A8C00FDF714FB50B10748FFF7DEFF2046FDF77A
:106A9C0012FB054A0549034801F007FC014810BDEB
:106AAC00DCE30320E0E3032040D90320EB6E0D0070
:106ABC000023024A02490348FEF77CB8CD6D0D0055
:106ACC005D6D0D00E56C0D0000231A461946184645
:106ADC00FEF770B873B502AC8E6851F8043B44F8FD
:106AEC00083D054601A8FEF7A3FF2246314628467D
:106AFC0001F0B0FB01A8FEF7BAFF284602B070BD4A
:106B0C0073B502AC0E6951F8043B44F8083D0546D8
:106B1C0001A8FEF78DFF22463146284601F0B5FB51
:106B2C0001A8FEF7A4FF284602B070BD73B502ACF5
:106B3C00CE6851F8043B44F8083D054601A8FEF721
:106B4C0077FF22463146284601F05CFB01A8FEF790
:106B5C008EFF284602B070BD30B58BB00D46014695
:106B6C0004A8FFF7B7FF04A801F07FFAE8B104A965
:106B7C006846FFF7DBFF0F490298FFF791FE0446CA
:106B8C0010B12C1C18BF012401A8FEF770FF002CBB
:106B9C00E9D004A96846FFF7B3FF684601F045FA4F
:106BAC00286001A8FEF763FFDDE705A8FEF75FFF8D
:106BBC000BB030BDEC8E0D0037B50C46204613499A
:106BCC00154601F065FD40B900F05CFF4FF416511D
:106BDC0000F048FF00F056FF15E00D49204601F08B
:106BEC0057FD78B902A94FF4165341F8043D2846D5
:106BFC00FFF7B2FF00F0CEFF019900F0C5FF00F0E7
:106C0C00C9FF00E0002003B030BD00BFF18E0D00C5
:106C1C00F88E0D0070B5046843681426054606FB13
:106C2C000346A64205D004F10800FFF7F3FF143425
:106C3C00F7E72868FEF742F8284670BD70B504687F
:106C4C004368054604EB0316A64204D02046FEF723
:106C5C00C5F81034F8E72868FEF730F8284670BD00
:106C6C0010B504460C30FFF7D5FF2046FFF7E6FFC2
:106C7C00204610BD10B5044B044640F8043BFFF70A
:106C8C00EFFF204610BD00BF74880D0010B5044600
:106C9C00FFF7F0FF2046242101F014FB204610BD25
:106CAC0010B5034B03600446FFF7E4FF204610BD0C
:106CBC00DC8E0D0010B50446FFF7F2FF20462421B0
:106CCC0001F000FB204610BD10B50368044618689F
:106CDC00FDF7B8FE204610BD2DE9F04F9B461B4B2F
:106CEC005B68C3F3080385B082460E46904653BBDF
:106CFC00FFF7C0FE044624300390FFF7E5FD237B2D
:106D0C00F3B90123237325686368F6B205EB830995
:106D1C004D4513D055F8047B4146381DFFF730FE26
:106D2C008642F5D33B68CDF800B09B689E4638464A
:106D3C004346324651467746B847E9E7002323736A
:106D4C0003A8FFF7C1FF05B0BDE8F08F00ED00E030
:106D5C002DE9F74F9946194B5B68C3F308030746B7
:106D6C008846164633BBFFF785FE04462430019057
:106D7C00FFF7AAFD237BD3B901232373256863682E
:106D8C005FFA86FB05EB830A55450ED055F8046B6C
:106D9C004946301DFFF7F4FD8345F5D33368424671
:106DAC00DB68394630469847EEE70023237301A889
:106DBC00FFF78AFF03B0BDE8F08F00BF00ED00E0E5
:106DCC002DE9F341154B5B68C3F308030446884671
:106DDC00FBB9FFF74FFE064624300190FFF774FD18
:106DEC0096E8A000462605EB8707AF4207D101A81D
:106DFC00FFF76AFFB442B4BF002001200AE055F847
:106E0C00040B41460430FFF7BBFD8642A8BF064683
:106E1C00EBE7002002B0BDE8F08100BF00ED00E020
:106E2C0070B503684268044603EB82029A42184626
:106E3C000ED006680D68AE4203F10403F6D1011DB5
:106E4C00521A01F0C1FB6368013B6360012070BD05
:106E5C00002070BD1FB50446243001910390FFF74C
:106E6C0033FD01A92046FFF7DBFF20B903A8FFF78C
:106E7C002BFF04B010BD6368002BF7D1FFF724FE85
:106E8C00F4E770B5056943691826044606FB0356FA
:106E9C00AE4215D005F110012046FFF7C1FF636823
:106EAC000BB9FFF711FEE06929690368DB689847A5
:106EBC00696919B1206A0368DB6898471835E7E7F8
:106ECC0025696369182606FB0356B54204D028468B
:106EDC00FDF784FF1835F8E70023636170BD73B5C7
:106EEC00044602ADFFF7F0FD04F1240045F8040D53
:106EFC00FFF7EAFC2046FFF7C4FF2846FFF7E4FE45
:106F0C00606A08B1FDF78EFD25696369182606FBDA
:106F1C000356B54204D02846FDF760FF1835F8E754
:106F2C002069FDF7CBFE2068FDF7C8FE204602B0B5
:106F3C0070BD03680A6802600B6043684A6842606F
:106F4C004B6083688A6882608B60704710B5002341
:106F5C000446036043608360FFF7EBFF204610BDDF
:106F6C008842F8B50446164625D9904224D2551AC3
:106F7C00143D2C44A1F11407A2F10C050026A5F137
:106F8C0008039F4237D084B155F8083C236035F88C
:106F9C00043CA38035F9023CE380A660E6602661E0
:106FAC00294604F10800FFF7C4FF2846FFF732FE1C
:106FBC00143C143DE3E71ED001F108050027A5F1B0
:106FCC0008039E4217D084B155F8083C236035F86D
:106FDC00043CA38035F9023CE380A760E76027619D
:106FEC00294604F10800FFF7A4FF2846FFF712FE1C
:106FFC0014341435E3E7F8BDF8B5456883689D4251
:10700C0004460E4617460EDB0135002D05DDA900A2
:10701C000068FDF75BFE20B9F8BD0068FDF74EFE79
:10702C0000202060A5602568626805EB860105EBF1
:10703C008202521A081D01F0C7FA45F826706368DF
:10704C00013363600120F8BD37B5044624300D468A
:10705C000190FFF739FC2368616803EB81008342E0
:10706C001A4609D01268AA4203F10403F7D101A809
:10707C00FFF72AFE00250EE02A462046FFF7BCFF4C
:10708C0005460028F3D06368012B01D1FFF710FDF2
:10709C0001A8FFF719FE284603B030BD8842F8B5A9
:1070AC0006460C46154614D9904213D2A2F110058F
:1070BC006C1AA1F110070444AF4218D01CB1294638
:1070CC002046FDF77BFE2846FDF788FE103D103C60
:1070DC00F2E70CD0AC420AD01EB121463046FDF787
:1070EC006DFE2046FDF77AFE10341036F2E7F8BD3F
:1070FC0070B50E1E05460BDD3001FDF7D7FD0446BD
:10710C0070B195E8060001EB0212FFF7C7FF00E033
:10711C0000242868FDF7D2FD2C60AE60012070BD04
:10712C0070BD2DE9F04F002395B0924646220360C6
:10713C0043608360C3600361436102760291DAF8B5
:10714C00041008939942054609930A9340F39D80D5
:10715C0008A8FFF7CDFF002840F097808EE021466D
:10716C000BA8FDF72BFE0BA90FA8099EFDF726FE19
:10717C0009990A9B9942C0F2CE80013108A8FFF709
:10718C00B7FF002840F0C7800FA8FDF727FE0BA81B
:10719C00FDF724FE1434A742E1D100260B960C9681
:1071AC000D96B146099B9E4280F2A8803301089A45
:1071BC00D3580693002B00F09F8014237343CDF813
:1071CC001C9001930BAC07A906A8FFF72CFB0746F4
:1071DC00002800F0918014AB014603F8399D079A02
:1071EC002046FFF78DFB9DF817800090B8F1000F3B
:1071FC0053D1BDF81C30ADF840304FF6FF730F97EC
:10720C00ADF84230CDF84480CDF84880CDF84C80B4
:10721C006768A3689F424FDA009BD4F800B061689E
:10722C00142253430BEB030702FB01B207F11400CA
:10723C0039460393FFF794FEA7B1039B0F9A4BF8C3
:10724C000320BDF84030BB80BDF94230FB80C7F84D
:10725C000890C7F80C90C7F8109011A907F1080016
:10726C00FFF767FE63680133636011A8FFF7D2FC78
:10727C00B8F1000F11D00BA8FFF7CCFC08A8FFF752
:10728C00DDFC284615B0BDE8F08FDAF80040DAF8DE
:10729C000430142707FB03477DE72368009A142466
:1072AC0004FB0234069B1B7823BBDAF80030019AEE
:1072BC0013441B7CE3801DE00137002F0FDD1423EA
:1072CC0003FB07F00393FDF7F1FC834678B194E8D8
:1072DC000600039B03FB0212FFF742FE00E0C346CD
:1072EC002068FDF7EBFCC4F800B0A76094E74FF002
:1072FC000108BAE7083466E7013653E708A92846BF
:10730C00FFF717FE0BA905F10C00FFF712FE9DF815
:10731C0008302B76AFE7089B099A03EB061603EBB4
:10732C000212314606F11000FFF7B8FE1EB10FA98C
:10733C003046FDF743FD099B0133099324E7000018
:10734C007FB50446094B44F8043B05460E4601A89C
:10735C001146FDF7A8F901AA31462046FFF7E1FED8
:10736C0001A8FDF75FF9284604B070BD74880D00C4
:10737C00F0B50F468BB02B49109C384616461D466F
:10738C0001F086F928BB002C49D0294601A8FFF74B
:10739C00DDFD2549242000F097FF0546B8B101A971
:1073AC0004A8FFF7D3FD04A907A8FDF77CF907AAE9
:1073BC0031462846FFF7C4FF07A8FDF733F91B4BEE
:1073CC002B602C6204A8FDF72DF9194B2B6001A83A
:1073DC001FE01849384601F05BF9F0B9FCB12946B9
:1073EC0004A8FFF7B3FD1049242000F06DFF0546FB
:1073FC0070B104A907A8FDF756F907AA314628462B
:10740C00FFF79EFF07A8FDF70DF9084B2B602C62C8
:10741C0004A8FDF707F9284602E0002000E020460A
:10742C000BB0F0BD4A8F0D0073910D00D48F0D0081
:10743C00DC8E0D004E8F0D00014B024A1A60704716
:10744C000CE403205F8F0D002DE9F047089DD0F868
:10745C00209004460E461746984600F013FB8145D3
:10746C0005D15A4800F0E7FC002840F0AC802B799D
:10747C001B0705D56B69564A206A0021FFF785F971
:10748C00B8F1000F0DD05B212046FFF72EFA4146D4
:10749C002046FFF71CFA23684E49DB68022220467F
:1074AC0098472B79D90725D5D5F808802F21404648
:1074BC0001F029F908B100F1010841462046FFF717
:1074CC0006FA2B799A0709D53A212046FFF70DFACF
:1074DC00EB68414A206A0021FFF757F92B7913F02A
:1074EC00040F236818BF3D49DB6808BF3C490222E2
:1074FC00204698472B795B0718D529690A4613460D
:10750C0013F8010B38B1202801D1194601E02828C5
:10751C0001D01A46F3E72368521ADB6820469847D5
:10752C0023683049DB6804222046984700213846FE
:10753C00FDF738FB01462046FFF7C9F923682849B7
:10754C00DB680222204698471EB131462046FFF7E1
:10755C00BEF92B7913F0300F2DD023682249DB684C
:10756C002046022298472B79D8060BD523681F4951
:10757C00DB68072220469847AB691D4A206A002128
:10758C00FFF703F92B79990611D5DA0605D523688F
:10759C001249DB6802222046984723681549DB68AC
:1075AC0020460A229847E9692046FFF790F95D21A9
:1075BC002046FFF79AF923680F49DB682046022220
:1075CC00BDE8F0471847BDE8F08700BF40E703204F
:1075DC00638F0D006A8F0D006D8F0D00708F0D0085
:1075EC00758F0D00738F0D00788F0D007B8F0D0044
:1075FC00838F0D00868F0D00918F0D002DE9F043C8
:10760C0085B0D0F820800C9C06460F4691461D464E
:10761C0000F038FA804505D14A4800F00CFC0028EF
:10762C0040F08C80336A484A01924FF0000801A860
:10763C0003938DF8088000F042FD41464846FDF763
:10764C00B1FA42498046012201A800F0BDFD414635
:10765C00FFF72DF93FB13E49012201A800F0B4FD1E
:10766C003946FFF724F93DB13A49012201A800F04F
:10767C00ABFD2946FFF71BF92379DF070ED5A5686B
:10768C002F21284601F03FF800B1451C3249012258
:10769C0001A800F099FD2946FFF709F923799D0708
:1076AC0007D52E49022201A800F08EFDE16800F0FA
:1076BC0013FD2379580716D525692F463B4613F839
:1076CC00012B3AB1202A01D11D4601E0282A01D014
:1076DC001F46F3E70222224901A800F075FD7A1B30
:1076EC00294600F080FD2379190707D51D49012291
:1076FC0001A800F069FD616900F000FD2379DA064C
:10770C0008D5042218490DEB020000F05DFDA169BB
:10771C0000F0E2FC23799B0607D51449062201A848
:10772C0000F052FDE169FFF7C2F801A800F0B1FCCE
:10773C00306A0F4903680222DB68984705B0BDE840
:10774C00F08300BF40E70320C48E0D00F68E0D00C1
:10775C00098F0D00FE8A0D00D98A0D00948F0D0043
:10776C00978F0D001E8F0D009A8F0D009F8F0D00AF
:10777C00918F0D00024B1A68024B1A60704700BFC4
:10778C00D4D8032010E4032010B58368044613B149
:10779C00032201469847204610BD10B50446FFF75A
:1077AC00F3FF204610BD00000348044A044900239F
:1077BC00836000F07ABD00BF14E4032040D903209D
:1077CC00A7770D0008B50C4B33B100F05BF90368DB
:1077DC001B699847002809DC084B63B100F0DAF903
:1077EC0003681B699847002803DC08BDAFF30080D1
:1077FC00F2E7AFF3008008BD0000000000000000BD
:10780C0008B5FFF7DFFFFDF785F8014B186008BDE1
:10781C0048E703200248034A0349121A00F0C9BE84
:10782C0000F4032004F4032020930D0007B500237B
:10783C0000931A466FF07701FDF7D6F903B05DF8A7
:10784C0004FB000007B543880A2B08D0502B09D144
:10785C00094B1B683BB103B05DF804EB1847FFF70D
:10786C00E5FF06E0002300931A466FF07701FDF761
:10787C00BBF903B05DF804FB24E4032038B5104CCD
:10788C00104D2368AB42104B0CBF012200221A7022
:10789C0002D0FFF7BFFF2560FDF72CF8044600F07F
:1078AC00B7FE0A4B13B12046AFF300800021074806
:1078BC00FDF7F4F900210648BDE83840FDF78AB918
:1078CC0000F403201E1C279A28E40320000000006B
:1078DC0051780D00704710B51821044600F0F2FCE9
:1078EC00204610BDF0B5037D062B8DB00E4600F181
:1078FC0004074FF0000402D000F1080518E00CADAD
:10790C00394605F8304D2F232A460A20FDF7A2F8F8
:10791C00284600F0CFFE33680246DB682946304625
:10792C0098470FE024B12E213046FEF7FFFE0444A9
:10793C0015F8011D0A223046FEF707FFBD4204442C
:10794C00F0D120460DB0F0BD10B5054B0446112208
:10795C0040F8043B002100F052FE204610BD00BF51
:10796C0048900D000346074A10B543F8042B01F16B
:10797C00100251F8044B43F8044B9142F9D10A78A8
:10798C001A7010BD48900D0010B59DF8084044EADF
:10799C00032343EA024242EA016104234160037576
:1079AC0010BD37B50D788B784A78C9780091294687
:1079BC00FFF7EAFF03B030BD41747047704708B55C
:1079CC000021007CFDF7BEF830EA200028BF4FF004
:1079DC00FF3008BD08B50121007CFDF7B3F830EA93
:1079EC00200028BF4FF0FF3008BD08B5007CFDF724
:1079FC00A1F820EAE07008BD08B5007CFDF792F80C
:107A0C0020EAE07008BD007CFDF7ACB810B514217D
:107A1C00044600F057FC204610BD38B50446007CE7
:107A2C000D46FDF787F8002801DC607C28B129465B
:107A3C00207CFDF78FF820EAE07038BD10B50446C5
:107A4C00002363604FF47A73A360054B236001231A
:107A5C000846217463741146FDF74CF8204610BD9E
:107A6C005C900D000022007CFDF74CB8007CFDF70B
:107A7C0051B810B514220446002100F0C0FD204678
:107A8C0010BD000030B50E4D87B001A8FFF7F1FF17
:107A9C00296811F0010410D12846FCF707FB60B1EE
:107AAC0001AA21460748FFF7C9FF2846FCF703FB4C
:107ABC00054A0649034800F0F8FB024807B030BD00
:107ACC002CE4032030E4032040D90320C9790D00B5
:107ADC0070474174704708B5007CFCF7FBFF20EA47
:107AEC00E07008BD08B5007CFCF7D4FF20EAE0701C
:107AFC0008BD08B5007CFCF7DDFF30EA200028BF8C
:107B0C004FF0FF3008BD08B5007CFCF7CBFF30EA26
:107B1C00200028BF4FF0FF3008BD007CFCF7D2BF1F
:107B2C0010B51421044600F0CDFB204610BD70B5F5
:107B3C00457C04460E4625B9007CFCF7CBFF00289B
:107B4C0005DD3146207CBDE87040FCF79BBF284624
:107B5C0070BD000010B50446084611460022626054
:107B6C004FF47A72A260054A22600122207462747A
:107B7C001A46FCF777FF204610BD00BF8C900D0015
:107B8C000023007CFCF7AEBF0022FFF7F9BF007C9E
:107B9C00FCF770BF38B50C4D296811F0010411D1F8
:107BAC002846FCF783FA68B1084A094B0948214674
:107BBC00FFF7D0FF2846FCF77EFA074A074905482D
:107BCC0000F073FB034838BDDCE40320E0E4032041
:107BDC0058E4032044E4032040D90320DD7A0D004F
:107BEC00002211464068FDF741B80022114640685A
:107BFC00FDF74CB800224068FDF740B8002281F038
:107C0C0001014068FDF72AB800231A46012140689B
:107C1C00FDF71CB800231A4619464068FDF70EB84C
:107C2C00002211464068FDF701B800221146406859
:107C3C00FCF7ECBF002202214068FCF7EFBF0023E9
:107C4C001A464068FCF7DABF38B5054688B10468B7
:107C5C004CB1A3681BB10322214620469847102142
:107C6C00204600F02FFB28461421BDE8384000F0D8
:107C7C0029BB38BD10B103685B681847704710B555
:107C8C0003680446BBB15868FCF7ACFE78B92368AE
:107C9C005A7C12B95868FCF7ADFE23685868FCF79B
:107CAC00B1FE20680023236028B1FFF7CDFF2068C8
:107CBC0008B1FFF7C9FF204610BD38B50446D0F80F
:107CCC00C40108B1FCF7E5F9D4F8C00108B1FCF720
:107CDC00A9FED4F8BC5135B12846FFF7D0FF0421DA
:107CEC00284600F0EFFA206808B1FFF7C3FF2046E2
:107CFC0038BD000010B5044B044640F8083BFFF7B4
:107D0C00DCFF204610BD00BFBC900D0038B50E4CFA
:107D1C000E4B23600025022304F5E4706360A5601C
:107D2C00C4F8C451C4F8C851FCF774FE084BC4F82D
:107D3C00CC5184F8D05123602046064A0649BDE850
:107D4C00384000F0B2BA00BF64E5032024910D0066
:107D5C00BC900D0040D90320017D0D00002211467E
:107D6C004068FCF763BF002211464068FCF77EBFF9
:107D7C00002211464068FCF789BF00224068FCF7DE
:107D8C007DBF002281F001014068FCF767BF002332
:107D9C001A4619464068FCF759BF00231A46194683
:107DAC004068FCF74BBF002211464068FCF72EBF21
:107DBC00002202214068FCF731BF00231A464068BC
:107DCC00FCF71CBF024B04225A60024A1A6070472F
:107DDC0038E70320F0900D0000231A464068FCF7AA
:107DEC000DBF002202214068FCF718BF002211468B
:107DFC004068FCF70BBF002211464068FCF716BF29
:107E0C0000231A4619464068FCF718BF00231A468F
:107E1C0019464068FCF71ABF002281F00101406846
:107E2C00FCF71CBF00224068FCF728BF002211465B
:107E3C004068FCF72BBF002211464068FCF716BFC8
:107E4C002DE9F043002495B016460D460746FFF782
:107E5C007BFD214620220CA8009400F0D0FB40238F
:107E6C000C9321466B460CAA3046FCF733FD0446B6
:107E7C00002844D1024601216868FCF7D7FE022194
:107E8C00804622466868FCF7D1FE009E814621465A
:107E9C00002E34D0002932D17368022B02D00A2B69
:107EAC0009D02AE0B8F1000F27D0716938460431A7
:107EBC00FFF777FD20E0B9F1000F1ED07469112295
:107ECC0001A800F09CFB06238DF8143001AD04F1E1
:107EDC0008031834186859682A4603C20833A342A9
:107EEC001546F7D101A906A807ADFFF73BFD0FCD4D
:107EFC003C1D0FC42B6823700121F669C8E700985C
:107F0C00FCF7E0FC384615B0BDE8F083024B034AA1
:107F1C001A6000225A60704740E7032024910D003C
:107F2C0000F11002012312F8101C0129104604D193
:107F3C0052F8041C03EB410304E0022904BF52F87D
:107F4C00041C5B18013B02F11002ECD170470EB41B
:107F5C002DE9F04187B000AF07F13404054654F821
:107F6C00046B7C6023463246102107F10800FCF7B5
:107F7C00B5FE0F2816D900F1080323F00703E846D5
:107F8C00ADEB030D3246411C234668467C60FCF782
:107F9C00A5FE021E04DD2B6869469B68284698479F
:107FAC00C54607E030B12B6802469B6807F1080113
:107FBC00284698471C37BD46BDE8F04103B07047D2
:107FCC0013B502AB026803F8011D9468194601222F
:107FDC00A04702B010BD8368FBB11A78032A1AD8E7
:107FEC00DFE802F00417021D0520704702685B6889
:107FFC005268D05C2D2814D0A0F13003092B10D975
:10800C00742810D066280ED0A0F16E035842584147
:10801C0070470620704700207047184670470420B0
:10802C007047032070470220704710B50446FFF7D5
:10803C00D2FF02280DD016D3042814D82268A368C6
:10804C0050685B680A2200211844BDE8104000F01B
:10805C00F3BB2268A36852685B68D05CA0F1740320
:10806C005842584110BD002010BD10B5436904465C
:10807C005BB18068E060013B1030A06020616361FF
:10808C002BB1FFF74DFFA06001E0184610BD012099
:10809C0010BD10B57D210446FFF792FF012323711B
:1080AC00204610BD08B50379012B02D0022B02D05B
:1080BC0008BD2C2100E03A21FFF782FF08BD10B566
:1080CC000446FFF7EFFF20467B21FFF779FF0023E3
:1080DC002371204610BD000038B504460D46FFF74D
:1080EC00E1FF23680449DB6820462A4698470123B0
:1080FC002371204638BD00BF6D8F0D0038B5044686
:10810C000D46FFF7CFFF23680449DB6820462A465B
:10811C00984701232371204638BD00BF3E890D00CE
:10812C00F8B50D461746222104462F44FFF748FFA9
:10813C002A462946BA4238D0164616F8015B222D3B
:10814C0003D05C2D01D01F2D2DD82368521A9B68AB
:10815C00204698475C212046FFF732FF0C2D19D0A2
:10816C0007D8092D0FD00A2D12D0082D14D1622159
:10817C000AE0222D05D05C2D03D00D2D0CD17221DF
:10818C0002E0294600E074212046FFF719FF09E0C0
:10819C006E21F9E76621F7E723680A49DB682A466E
:1081AC002046984731463246C4E7914204D02368B2
:1081BC00521A9D682046A84722212046FFF700FF4F
:1081CC00F8BD00BF6D910D0070B504460D46164606
:1081DC00FFF768FF204632462946FFF7A1FF02232E
:1081EC002371204670BD70B504460D461646FFF748
:1081FC0059FF204632462946FFF792FF012323718F
:10820C00204670BD10B5002304460360436010483F
:10821C00A060E360D1B10B78032B06D0B3B913681F
:10822C0058684B68C35C6E2B08D0136858684B6851
:10823C000344A3608B6849685B1AE36011462046CF
:10824C0051F8043B40F8043BFDF7B6FC204610BD4A
:10825C00938F0D00002310B50446036043608360C8
:10826C00C3600361436171B10B78012B0BD101F138
:10827C0010038360CB684361114651F8043B40F80E
:10828C00043BFDF799FC204610BD002310B50446B5
:10829C0003604360816031B1114651F8043B40F8F2
:1082AC00043BFDF789FC204610BD0B4601461846E1
:1082BC0000F062B9024B1868BFF35F8F704700BFC4
:1082CC004CE70320FBF7E3BE10B5002814BF0446AF
:1082DC0001242046FCF7EAFC20B9FFF7EBFF08B1BC
:1082EC008047F6E710BD0000184B1A68D1075CBF39
:1082FC0001221A60164B1A68D2075CBF01221A6061
:10830C00144B1A68D0075CBF01221A60124B1A6812
:10831C00D1075CBF01221A60104B1A68D2075CBFF0
:10832C0001221A600E4B1A68D0075CBF01221A603A
:10833C000C4B1A68D1075CBF01221A600A4B1A68F1
:10834C00D2075CBF01221A60704700BF6CE70320A4
:10835C0068E7032064E7032060E703205CE7032061
:10836C0058E7032054E7032050E70320244B1A68F6
:10837C00D0075CBF01221A60224B1A68D1075CBF80
:10838C0001221A60204B1A68D2075CBF01221A60C6
:10839C001E4B1A68D0075CBF01221A601C4B1A686E
:1083AC00D1075CBF01221A601A4B1A68D2075CBF56
:1083BC0001221A60184B1A68D0075CBF01221A60A0
:1083CC00164B1A68D1075CBF01221A60144B1A684D
:1083DC00D2075CBF01221A60124B1A68D0075CBF2F
:1083EC0001221A60104B1A68D1075CBF01221A6077
:1083FC000E4B1A68D2075CBF01221A60704700BF8F
:10840C009CE7032098E7032094E7032090E70320E0
:10841C008CE7032088E7032084E7032080E7032010
:10842C007CE7032078E7032074E7032070E7032040
:10843C00244B1A68D0075CBF01221A60224B1A68C1
:10844C00D1075CBF01221A60204B1A68D2075CBFAF
:10845C0001221A601E4B1A68D0075CBF01221A60F9
:10846C001C4B1A68D1075CBF01221A601A4B1A68A0
:10847C00D2075CBF01221A60184B1A68D0075CBF88
:10848C0001221A60164B1A68D1075CBF01221A60D0
:10849C00144B1A68D2075CBF01221A60124B1A687F
:1084AC00D0075CBF01221A60104B1A68D1075CBF61
:1084BC0001221A600E4B1A68D2075CBF01221A60A7
:1084CC00704700BFCCE70320C8E70320C4E70320B4
:1084DC00C0E70320BCE70320B8E70320B4E7032080
:1084EC00B0E70320ACE70320A8E70320A4E70320B0
:1084FC00A0E70320184B1A68D1075CBF01221A6051
:10850C00164B1A68D2075CBF01221A60144B1A680A
:10851C00D0075CBF01221A60124B1A68D1075CBFEE
:10852C0001221A60104B1A68D2075CBF01221A6034
:10853C000E4B1A68D0075CBF01221A600C4B1A68EC
:10854C00D1075CBF01221A600A4B1A68D2075CBFC4
:10855C0001221A60704700BFECE70320E8E7032014
:10856C00E4E70320E0E70320DCE70320D8E703205F
:10857C00D4E70320D0E7032010B5054C13462CB1EB
:10858C000A4601460220AFF3008010BD204610BD04
:10859C000000000010B501390244904207D010F8D9
:1085AC00013B11F8014FA342F7D0181B10BD00205E
:1085BC0010BD10B5431E0A44914204D011F8014B72
:1085CC0003F8014FF8E710BD884210B501EB020328
:1085DC0001D8421E0BE09842FBD28118D21AD3422A
:1085EC0004D013F8014D01F8014DF8E710BD994284
:1085FC0004D011F8014B02F8014FF8E710BD02440A
:10860C000346934202D003F8011BFAE770470000BF
:10861C0038B5124B1C68A36B0546D3B91820FCF770
:10862C0045FB43F20E33A06303804AF6CD334380FF
:10863C0041F2342383804EF26D63C3804DF6EC63BC
:10864C000381052343810B23838101220023C0E98D
:10865C000423A36B00221D615A6138BD3CD9032051
:10866C00C9B2034610F8012B1AB19142F9D1184640
:10867C00704700290CBF18460020704710B50446FF
:10868C00FFF7EEFF18B9204600F014F8204410BD97
:10869C0010F8012B11F8013B012A28BF9A42F7D0A0
:1086AC00D01A7047034611F8012B03F8012B002A4E
:1086BC00F9D17047034613F8012B002AFBD1181A85
:1086CC000138704730B582B1451E013915F8013FAC
:1086DC0011F8014FA34206D1EC431444E04201D0FF
:1086EC00002BF3D11C46181B30BD104630BD10B505
:1086FC00034601448B4204D01A785C1C0AB1234611
:10870C00F8E7181A10BD38B503460D4641B10024E0
:10871C0029461846FFF7A4FF30B1431C0446F7E77F
:10872C00BDE83840FFF79CBF204638BD2DE9F04727
:10873C0080464048D0F800900F463D4615F8014B56
:10874C0009EB0400407800F0080000F0FF0608B1C7
:10875C002F46F2E72D2C03D1BD1C7C78012603E0BB
:10876C002B2C04BF7C78BD1C13B1102B0AD15BE001
:10877C00302C57D1287800F0DF0058284DD16C7878
:10878C0010230235002E14BF4FF0004C6FF0004C3C
:10879C000027BCFBF3FA384603FB1ACC09EB040E9A
:1087AC009EF801E01EF0040F01D0303C0BE01EF0EF
:1087BC00030E1BD0BEF1010F0CBF4FF0370E4FF064
:1087CC00570ECEEB0404A34210DDB7F1FF3F0AD0E5
:1087DC00504506D801D1644503DC03FB004001275A
:1087EC0001E04FF0FF3715F8014BD7E77B1C0CD19C
:1087FC00002E4FF0220314BF4FF000406FF00040EA
:10880C00C8F800302AB9BDE8F08706B1404272B111
:10881C0007B1691E1160BDE8F0873024002BB1D17F
:10882C000823AFE70A23ADE7302CA3D0AAE7BDE8B5
:10883C00F08700BFD8D8032013460A4601460248E9
:10884C000068FFF773BF00BF3CD903201D400D002B
:10885C0059400D0085400D0089400D0000000000BE
:10886C0000000000000000000000000000000000FC
:10887C00A5400D00C9400D000000000000000000E4
:10888C00D5400D0009410D0055740D00CB400D0075
:10889C0053656E736F722031202D2054656D706599
:1088AC007261747572653A2025750053656E736F2D
:1088BC00722031202D204C696768743A2025750090
:1088CC0053656E736F722031202D2048756D69646D
:1088DC006974793A2025750053656E736F72203177
:1088EC00202D2044697374616E63653A20257500F0
:1088FC0053656E736F722032202D2054656D706538
:10890C007261747572653A2025750053656E736FCC
:10891C00722032202D204C696768743A202575002E
:10892C0053656E736F722032202D20536F756E64F9
:10893C003A2025750053656E736F722032202D20FE
:10894C0048756D616E206465746563746F723A204E
:10895C0025750053656E736F722032202D2048757B
:10896C006D616E206C6F73742E2E2E0053656E73BA
:10897C006F722032202D2048756D616E20646574F5
:10898C006563746564210053656E736F72203220C9
:10899C002D20496E76616C69642068756D616E205E
:1089AC006465746563746F72206D6573736167655C
:1089BC002E2045787065637465642030206F7220BA
:1089CC00312C2072656365697665642025750041DC
:1089DC00626F757420746F207363616E2E2E2E007F
:1089EC00466F756E64206120626C7565746F6F7470
:1089FC0068206465766963652E00416464726573F2
:108A0C00733A2000466F756E6420555549443A20E0
:108A1C000053656E736F724E6F6465312055554906
:108A2C00443A200053656E736F724E6F646532204A
:108A3C00555549443A2000537563636573736675E5
:108A4C006C6C7920636F6E6E656374656420746FF3
:108A5C002073656E736F72206E6F64652031210018
:108A6C0062633766313864392D326334332D3430D8
:108A7C0038652D626532352D3632663430363435F4
:108A8C00393837630065613532343861342D34330D
:108A9C0063632D343139382D613461612D373932AE
:108AAC003030613735303833350039396130643224
:108ABC0066392D316366612D343262332D62356235
:108ACC00612D3162346434333431333932660034DD
:108ADC00356265346135362D343866352D3438338E
:108AEC00632D386262312D643366656534333363CC
:108AFC00323363004661696C656420746F20636F68
:108B0C006E6E65637420746F2073656E736F722064
:108B1C006E6F646520312E0053656E736F72206E1C
:108B2C006F6465203120616C726561647920636FBC
:108B3C006E6E65637465642E005375636365737341
:108B4C0066756C6C7920636F6E6E656374656420FA
:108B5C00746F2073656E736F72206E6F6465203254
:108B6C00210038386261326635642D316539382D13
:108B7C00343961662D383639372D643035313664E9
:108B8C006630336265390062343832643535312DE4
:108B9C00633361652D346464652D623132352D6328
:108BAC006532343464373839366230004661696C6A
:108BBC00656420746F20636F6E6E65637420746FD0
:108BCC002073656E736F72206E6F646520322E0099
:108BDC0053656E736F72206E6F6465203220616C0A
:108BEC00726561647920636F6E6E65637465642E63
:108BFC00002564206465766963657320666F756E05
:108C0C006400466F756E642073656E736F72206EB0
:108C1C006F646520312E00466F756E642073656E2F
:108C2C00736F72206E6F646520322E003735346599
:108C3C00626635652D636533312D343330302D3913
:108C4C006664352D6138666234656534613831315E
:108C5C000039373732386164392D613939382D3460
:108C6C003632392D623835352D65653236353863F7
:108C7C006130316637000000000000000000000089
:108C8C00574D0D004D4D0D00434D0D00394D0D0050
:108C9C002D4D0D00214D0D00154D0D000D4D0D00F0
:108CAC00034D0D00F94C0D004D7E0D000000000031
:108CBC0000000000454F0D004B4F0D00E5630D000B
:108CCC00754F0D00474F0D00000000000000000024
:108CDC003F4F0D00594F0D00A1650D00794F0D0050
:108CEC00414F0D000000000000000000394F0D0046
:108CFC00674F0D00F75A0D007D4F0D003B4F0D00D7
:108D0C00776972696E672E626C6500537461727458
:108D1C0020646973636F766572696E672073657220
:108D2C0076696365732E0053746172742064697381
:108D3C00636F766572696E672063686172616374D4
:108D4C0065726973746963732E0050656572206473
:108D5C006576696365206973206D697373696E67E5
:108D6C0021004661696C656420746F2061707065C8
:108D7C006E6420706565722043656E7472616C2040
:108D8C006465766963652E00436F6E6E656374650A
:108D9C00642062792043656E7472616C2064657620
:108DAC006963652E00446973636F6E6E65637465E9
:108DBC00642062792072656D6F74652064657669D4
:108DCC0063652E0043616E6E6F7420616464206E67
:108DDC0065772070656572206465766963652E0021
:108DEC004E6577207065726970686572616C206978
:108DFC007320636F6E6E65637465642E00466169E3
:108E0C006C656420746F20617070656E6420646999
:108E1C0073636F76657265642063686172616374F5
:108E2C00657269737469632E004661696C656420B0
:108E3C00746F20617070656E6420646973636F7603
:108E4C006572656420736572766963652E00466190
:108E5C00696C656420746F20617070656E64206C41
:108E6C006F63616C206368617261637465726973AE
:108E7C007469632E004475706C6963617465642059
:108E8C00636861726163746572697374696320638A
:108E9C00616E6E6F742062652061646465642E007F
:108EAC00FB349B5F8000008000100000000000007D
:108EBC00000000000000000031680D0057680D0034
:108ECC000B680D005B7F0D0000000000000000002F
:108EDC00AD6C0D00C16C0D0009760D0013680D0012
:108EEC00626175640053657269616C0053657269E7
:108EFC00616C31007479706500706172616D006332
:108F0C006D6400696400686E64007374726D006651
:108F1C00696C74006C766C0061646448616E646C9E
:108F2C0065720072656D6F766548616E646C657212
:108F3C0000656E756D48616E646C657273004A53A2
:108F4C004F4E53747265616D4C6F6748616E646C03
:108F5C0065720061707000253031307520005D2025
:108F6C00002564002C200028293A2000205B006397
:108F7C006F6465203D200025690064657461696C2F
:108F8C0073203D20000D0A006C6E00666E00636F4E
:108F9C0064650064657461696C006E6F6E65007465
:108FAC007261636500696E666F007761726E006551
:108FBC0072726F720070616E696300616C6C00009C
:108FCC000000000000000000816C0D00996C0D0089
:108FDC0055740D00CB400D00000000000000000097
:108FEC002F680D0065680D007D730D0015680D0070
:108FFC0000000000000000002D680D0073680D00DB
:10900C00C56B0D0081680D005A00252B3033643A76
:10901C00253032750025592D256D2D256454254894
:10902C003A254D3A2553257A0061736374696D6551
:10903C00000000000000000000000000F1780D00AE
:10904C00E1780D00E3780D00000000000000000046
:10905C00C9790D00197A0D00277A0D00ED660D0007
:10906C00057A0D00CB790D00E1790D00137A0D0016
:10907C00F7790D00C5790D0000000000000000001C
:10908C00DD7A0D002D7B0D003B7B0D00ED660D0098
:10909C00F17A0D00137B0D00FF7A0D00277B0D007C
:1090AC00DF7A0D00E37A0D000000000000000000E4
:1090BC004B7C0D00417C0D00377C0D002D7C0D0090
:1090CC00217C0D00157C0D00097C0D00017C0D0030
:1090DC00F77B0D00ED7B0D004D7E0D0000000000B8
:1090EC0000000000C77D0D00BD7D0D00B37D0D009F
:1090FC00697D0D00A77D0D009B7D0D008F7D0D0002
:10910C00877D0D007D7D0D00737D0D004D7E0D0066
:10911C000000000000000000E57D0D00EF7D0D005B
:10912C00F97D0D00037E0D000D7E0D00197E0D00E6
:10913C00257E0D00317E0D00397E0D00437E0D0025
:10914C004D7E0D00302E300066616C7365007472BC
:10915C00756500252E2A6C66002567006E756C6C93
:10916C00007525303478000000202020202020209D
:10917C0020202828282828202020202020202020BB
:10918C0020202020202020202088101010101010CB
:10919C001010101010101010100404040404040417
:1091AC0004040410101010101010414141414141B1
:1091BC000101010101010101010101010101010193
:1091CC0001010101101010101010424242424242A3
:1091DC000202020202020202020202020202020263
:1091EC00020202021010101020000000000000000B
:1091FC000000000000000000000000000000000063
:10920C000000000000000000000000000000000052
:10921C000000000000000000000000000000000042
:10922C000000000000000000000000000000000032
:10923C000000000000000000000000000000000022
:10924C000000000000000000000000000000000012
:10925C000000000000000000000000000000000002
:10926C0000000000000000000000000000000000F2
:10927C0000000000000000000000000000000000E2
:10928C0000000000000000000000000000000000D2
:10929C0000000000000000000000000000000000C2
:1092AC0000000000000000000000000000000000B2
:1092BC0000000000000000000000000000000000A2
:1092CC00000000000000000000000000430000004F
:1092DC0019470D00614D0D00954D0D00C5660D0033
:1092EC0045740D0081770D00B5770D00197D0D00CB
:1092FC00D17D0D00197F0D00F5820D0079830D00D5
:10930C003D840D0001850D000000000000000000F0
:04931C00000000004D
:049320000000000049
:1093240004900D00EC8F0D0035900D0074910D002C
:109334000000000078920D0098920D00B8920D0084
:109344000000000000000000000000000000000019
:10935400D8920D0000000000000000000000000092
:1093640000000000000000000000000000000000F9
:1093740000000000000000000000000000000000E9
:1093840000000000000000000000000000000000D9
:04939400DCD80320FE
:10939800FFFFFFFF00000102030405060708090A92
:1093A8000B0C0D0E0F101112131415161718191A8D
:0893B8001B1C1D1E1F202800D4
:0493C0007856341295
:04000003D000401CCD
:00000001FF
