:02000002D0002C
:1040000000400D0004980D00000006000C000501A2
:084010000401DE0500000000C0
:044018003C8E0D00CD
:10401C0009480A49884208B505D0094A824202D0AB
:10402C00121A04F0A4FD0748074A0021121A04F0E2
:10403C00C4FD014808BD00BF70E2032054970D0079
:10404C00F8E20320F8E20320F0E7032070B503F058
:10405C0041F9074C074BE41AA40800251E46A5425B
:10406C0004D056F8253098470135F8E770BD00BFED
:10407C0044970D0008970D0000F0E4B908B500F066
:10408C0011F9BDE8084003F0E7B800F085BE00F078
:10409C008BBE00F089BE000008B5034A00210C203D
:1040AC0000F0AEFDFEE700BFD9480D000078B0FA75
:1040BC0080F0400970470123037070477047006A15
:1040CC000368DB68184710B50446006808B100F0B7
:1040DC006BFE204610BD00000A4B10B50446036071
:1040EC0002F0E2F9214602F0CFFB03F0BBFC03F037
:1040FC00ADFC2046044B40F8043B02F0CBFA2046C2
:10410C0010BD00BF708E0D00588E0D0010B504460A
:10411C00FFF7E2FF2046242104F0F6F9204610BDFB
:10412C000EB400B58CB00DAA202352F8041B0392D8
:10413C008DE8060004930168002304AA1E20059351
:10414C0000F06EFD0CB05DF804EB03B0704700009E
:10415C0010B50478054906482246FFF7E1FF012C0B
:10416C00044B16BF00221C701A7010BD808E0D00FF
:10417C00E4E3032040E3032038B5046805467CB132
:10418C006368013B63605BB9236820469B68984772
:10419C00A368013BA3601BB923682046DB689847E2
:1041AC00284638BD30B50F2087B004F027F985B20A
:1041BC0004462A460C4903A800F006FE0B4B0C499A
:1041CC001B788DF8003003AA3C2304A803F0F0F907
:1041DC0005A8FFF7D1FF2A4606490748FFF7A0FFBD
:1041EC0060B207B030BD00BF118F0D00FCE20320A0
:1041FC00A58E0D00B68E0D00E4E3032010B50E2045
:10420C0086B004F0FBF884B222460C490C48FFF748
:10421C0087FF22460B4903A800F0D6FD0A4B0B4939
:10422C001B788DF8003003AA3C2304A803F0C0F9D6
:10423C0005A8FFF7A1FF204606B010BDF08E0D00BB
:10424C00E4E30320118F0D00FCE20320008F0D002E
:10425C0010B5032086B004F0BEF8C4B222460C4957
:10426C000C48FFF75DFF22460B4903A800F0ACFD9C
:10427C000A4B0B491B788DF8003003AA3C2304A889
:10428C0003F096F905A8FFF777FF204606B010BD9E
:10429C00078F0D00E4E30320118F0D00FCE20320D7
:1042AC00148F0D0037B53B4B197801B10121042057
:1042BC0004F078F800F012FB374A1368C31AB3F510
:1042CC007A7F044617D31060FFF76CFF02A9002316
:1042DC0001F8020D0122314801F0F4F89DF9065065
:1042EC00284604F0C1FB2E4B2A46C3E900012D4998
:1042FC002D48FFF715FF2D4A1368E31AB3F57A7FA3
:10430C0017D31460FFF77AFF02A9002321F8020DDE
:10431C000222224801F0D6F8BDF80650284604F0D7
:10432C0093FB234B2A46C3E9000122491E48FFF7A1
:10433C00F7FE214A1368E31AB3F5FA6F24D314601D
:10434C00FFF786FF1D4C8DF8060022781C49164895
:10435C00FFF7E6FE9DF8062023789A420ED0002344
:10436C0001220DF10601174801F0ACF89DF806008A
:10437C00207004F069FB144BC3E900019DF8062082
:10438C0012490948FFF7CCFE642002F017FF03B076
:10439C0030BD00BF40E3032070E3032074E303202F
:1043AC0068E30320228F0D00E4E303202CE30320B9
:1043BC0020E30320F58E0D0028E3032041E30320C6
:1043CC00318F0D0030E3032000E30320538F0D00E9
:1043DC0070B5046843681426054606FB0346A642DE
:1043EC0004D0204600F092FD1434F8E7286800F061
:1043FC00DBFC284670BDF0B50E4691B0002104469A
:10440C00016041600BAD194606A8174600F088FF05
:10441C001699284600F084FF10AA3B7802F82C3D30
:10442C00189B0293179B01932046009506AB3146CF
:10443C0001F0A2FC204611B0F0BD0023092200F0CF
:10444C008BBC000010B592B012A8012200F83B2DD5
:10445C0041F6C67100F08CFB38493948FFF7EDFF87
:10446C0038493948FFF7E9FF38493948FFF7E5FF84
:10447C0038493948FFF7E1FF01F0D6F801F01AF995
:10448C0001F0D2F8354A014609A801F029FD09A826
:10449C0001F082F901F0C8F8314A014609A801F08F
:1044AC001FFD09A801F078F901F0BEF82D4A01466C
:1044BC0009A801F015FD09A801F06EF901F0B4F896
:1044CC00294A014609A801F00BFD09A801F064F97D
:1044DC0009A800F08FFF254B04A8196800F020FFF5
:1044EC0004A800F069FE044604A844B900F082FE5A
:1044FC0012AA022322F83A0D0321009406E000F0E0
:10450C007EFE0023009302461023072109A800F029
:10451C002AFF17491748FFF703FE01F085F8002220
:10452C0009A901F0FDF80021032003F02AFF012165
:10453C00042003F026FF12B010BD00BF68E3032077
:10454C00668F0D0080E30320708F0D0020E30320A5
:10455C00008F0D0000E30320148F0D0038E30320BF
:10456C0074E3032030E3032014E3032078E20320F8
:10457C00768F0D00E4E303208842F8B506460C461E
:10458C00154616D9904215D2A2F114056C1AA1F158
:10459C0014070444AF421CD02CB12946204600F02D
:1045AC00A5FC2B7C2374284600F0B0FC143D143C75
:1045BC00F0E70ED0AC420CD02EB12146304600F0C4
:1045CC0095FC237C3374204600F0A0FC1434143684
:1045DC00F0E7F8BD2DE9F0410023036043608360F0
:1045EC004E689E4204460F4624DD4FF0140808FB2B
:1045FC0006F000F0D1FB0546E0B194E8060008FB9C
:10460C000212FFF7B9FF206800F0CEFB2560A66010
:10461C003E687B6808FB0368464509D02DB13146DE
:10462C00284600F0DCFC337C2B7414361435F3E78D
:10463C007B6863602046BDE8F08100002DE9F04303
:10464C00564B574E574DDFF8A49191B000241C7077
:10465C0000F0ECF84FF6FF7373813460B480B471E2
:10466C003481032000F0F4FA2A464F49304603F017
:10467C003DFF04940594069403F0F4F94B4E8046E8
:10468C0004A907A8FFF7A6FF374607A90AA8FFF752
:10469C00A1FF474B47F8043B0AA90DA8FFF79AFF67
:1046AC000DAA0121384602F056FA0DA8FFF790FE2C
:1046BC000AA8FFF78DFE3F4B3360C6F8208007A891
:1046CC00FFF786FE3C4B336003F0CCF94FF41651E8
:1046DC0003F0B8F901F0E8FE314602F0CFF904A876
:1046EC00FFF776FE354F36492A46304603F0FEFE7C
:1046FC00029401943B680093324B334E1B68334950
:10470C004FF010080DAA48468DF83480FFF773FE61
:10471C002A463146484603F0E9FE029401943B6870
:10472C000093DFF8CC902A4B2A491B688DF8348013
:10473C000DAA4846FFF75FFE2A463146484603F06D
:10474C00D5FE029401943B6800938DF83480224B83
:10475C00DFF8A0801B6821490DAA4046FFF74BFEED
:10476C002A463146404603F0C1FE04238DF834300E
:10477C001B4B029401933B680093DFF87C80194B30
:10478C0019491B680DAA4046FFF735FE2A463146EB
:10479C00404603F0ABFE11B0BDE8F083FCE2032011
:1047AC0008E30320F8E20320D3400D0044E3032088
:1047BC00588E0D00BC930D00708E0D0078E2032016
:1047CC00E5400D007CE20320A5570D00668F0D001F
:1047DC0070E20320008F0D0074E20320888F0D001F
:1047EC005D410D0080E203208C8F0D0038E3032027
:1047FC0074E3032030E3032014E3032008B500F036
:10480C0015F8014B186008BD88E3032008B5024B6E
:10481C001B689B68019308BD6802030008B5024B36
:10482C001B68DB68019308BD6802030008B5024BE6
:10483C001B681B68019308BD2C02030008B5024BD2
:10484C001B685B68019308BD2C02030008B5024B82
:10485C001B689B68019308BD2C02030008B5024B32
:10486C001B68DB68019308BD2C02030008B5024BE2
:10487C001B681B69019308BD2C02030008B5024B91
:10488C001B685B69019308BD2C02030008B5024B41
:10489C001B681B6B019308BD2C02030008B5024B6F
:1048AC001B68DB69019308BD3002030008B5024B9D
:1048BC001B681B6A019308BD3002030008B5024B4C
:1048CC001B685B68019308BD1802030008B5024B16
:1048DC001B68DB68019308BD1802030008B5024B86
:1048EC001B685B69019308BD1802030008B5024BF5
:1048FC001B689B68019308BD7802030008B5024B46
:10490C001B681B6D019308BD7802030008B5024BB0
:10491C001B689B6D019308BD7802030008B5024B20
:10492C001B681B6E019308BD7802030008B5034B8E
:10493C001B68D3F89830019308BD0000780203007F
:10494C0008B5034B1B68D3F8A830019308BD0000D1
:10495C007802030008B5034B1B68D3F8B4300193FD
:10496C0008BD00007802030008B5034B1B68D3F8A0
:10497C00D830019308BD00007802030008B5034B42
:10498C001B68D3F8DC30019308BD000078020300EB
:10499C0008B5034B1B68D3F8EC30019308BD00003D
:1049AC007802030008B5034B1B68D3F8F030019371
:1049BC0008BD00007802030008B5034B1B68D3F850
:1049CC000031019308BD00007802030008B5034BC9
:1049DC001B68D3F80431019308BD00007802030072
:1049EC0008B5024B1B689B68019308BD4802030085
:1049FC0008B5024B1B681B69019308BD48020300F4
:104A0C0008B5024B1B685B69019308BD48020300A3
:104A1C0008B5024B1B685B6C019308BD4802030090
:104A2C0008B5024B1B689B6C019308BD4802030040
:104A3C0008B5024B1B68DB6C019308BD48020300F0
:104A4C0008B5024B1B685B6D019308BD480203005F
:104A5C0008B5024B1B685B69019308BD6402030037
:104A6C0008B5024B1B681B68019308BD3C02030090
:104A7C0008B5024B1B689B68019308BD3C02030000
:104A8C0008B5024B1B68DB68019308BD3C020300B0
:104A9C0008B5024B1B681B69019308BD3C0203005F
:104AAC0008B5024B1B685B69019308BD3C0203000F
:104ABC0008B5024B1B689B69019308BD3C020300BF
:104ACC0008B5024B1B68DB69019308BD3C0203006F
:104ADC0008B5024B1B681B6A019308BD3C0203001E
:104AEC0008B5024B1B689B6A019308BD3C0203008E
:104AFC0008B5024B1B68DB6A019308BD3C0203003E
:104B0C0008B5024B1B681B6A019308BD2802030001
:104B1C0008B5024B1B685B6A019308BD28020300B1
:104B2C0008B5024B1B689B6A019308BD2802030061
:104B3C0008B5024B1B68DB6A019308BD2802030011
:104B4C0008B5024B1B681B6B019308BD28020300C0
:104B5C0008B5024B1B685B6B019308BD2802030070
:104B6C0008B5024B1B681B6C019308BD280203009F
:104B7C0008B5024B1B685B68019308BD5802030023
:104B8C0008B5024B1B681B68019308BD4C0203005F
:104B9C0008B5024B1B685B68019308BD4C0203000F
:104BAC0008B5024B1B689B68019308BD4C020300BF
:104BBC0008B5024B1B681B69019308BD4C0203002E
:104BCC0008B5024B1B685B69019308BD4C020300DE
:104BDC0008B5024B1B689B69019308BD4C0203008E
:104BEC0008B5024B1B68DB69019308BD4C0203003E
:104BFC0008B5024B1B681B6A019308BD4C020300ED
:104C0C0008B5024B1B685B6B019308BD6002030087
:104C1C0008B5024B1B681B6D019308BD60020300B5
:104C2C0008B5024B1B685B6D019308BD6002030065
:104C3C0008B5024B1B68DB6E019308BD60020300D4
:104C4C0008B5024B1B681B6F019308BD6002030083
:104C5C0008B5024B1B685B68019308BD200203007A
:104C6C0008B5024B1B685B69019308BD2002030069
:104C7C0008B5024B1B68DB6C019308BD20020300D6
:104C8C0008B5024B1B685B6D019308BD2002030045
:104C9C0008B5034B1B68D3F88830019308BD00009E
:104CAC002002030008B5034B1B68D3F89430019322
:104CBC0008BD00002002030008B5024B1B685B68AE
:104CCC00019308BD4002030008B5024B1B689B68AA
:104CDC00019308BD4002030008B5024B1B68DB685A
:104CEC00019308BD4002030008B5024B1B681B6909
:104CFC00019308BD4002030008B5024B1B685B69B9
:104D0C00019308BD4002030008B5024B1B689B6968
:104D1C00019308BD4002030008B5024B1B68DB6918
:104D2C00019308BD4002030008B5024B1B681B6AC7
:104D3C00019308BD4002030008B5024B1B681B6BB6
:104D4C00019308BD4002030008B5024B1B685B6B66
:104D5C00019308BD4002030008B5024B1B681B6899
:104D6C00019308BD4402030008B5024B1B685B6944
:104D7C00019308BD4402030008B5024B1B681B6A73
:104D8C00019308BD4402030008B5024B1B68DB6BA2
:104D9C00019308BD4402030008B5024B1B681B6855
:104DAC00019308BD1C02030008B5024B1B685B682D
:104DBC00019308BD1C02030008B5024B1B689B68DD
:104DCC00019308BD1C02030008B5024B1B68DB688D
:104DDC00019308BD1C02030008B5024B1B685B6AFB
:104DEC00019308BD1C02030008B5024B1B68DB6A6B
:104DFC00019308BD1C02030008B5024B1B681B6B1A
:104E0C00019308BD1C020300002211464068FFF705
:104E1C008BBF002211464068FFF796BF0022406806
:104E2C00FFF78ABF002281F001014068FFF774BFD1
:104E3C0000231A4619464068FFF766BF00231A463E
:104E4C0019464068FFF758BF002211464068FFF72B
:104E5C004BBF002211464068FFF736BF00220221EB
:104E6C004068FFF739BF00231A464068FFF724BF9C
:104E7C00024B03225A60024A1A6070478CE30320EB
:104E8C0058900D00704710B50C21044603F03CFB04
:104E9C00204610BD10B5054B036004460171084651
:104EAC00FFF7FCFC0023A360204610BD8C900D0086
:104EBC000079FFF7FBBC000010B5094C00204FF641
:104ECC00FF732060A080A07120816381FFF7C0FE7A
:104EDC002046044A0449BDE8104003F007BB00BF5C
:104EEC0094E30320F8E20320D3400D000023036079
:104EFC0043608360037310B50C6804604C684460B5
:104F0C008C6884600B604B608B6010BD10B50446E0
:104F1C000068FFF749FF204610BD10B50446006835
:104F2C0008B1FFF741FF00232360A360636010BD4D
:104F3C0038B504460D4600680131FFF73DFF10B14E
:104F4C0084E82100012038BD10B50368044613B174
:104F5C0043688B4207D22046FFF7EAFF20B1A368D3
:104F6C000BB922681370012010BD70B50E461146A6
:104F7C0004461546FFF7E8FF18B92046FFF7CDFFAA
:104F8C0009E02A463146A560206803F0F0FD22684E
:104F9C00A3680021D154204670BD38B500230446C7
:104FAC0003604360836003730D4639B1084603F018
:104FBC0072FE294602462046FFF7D7FF204638BD31
:104FCC00884210B50B46044607D0096819B19A6897
:104FDC00FFF7CBFF01E0FFF7A0FF204610BD10B597
:104FEC00002304460360436083600373FFF7E8FF0C
:104FFC00204610BD38B505460C4641B1084603F0B5
:10500C004AFE214602462846FFF7AFFF01E0FFF7B4
:10501C0084FF284638BD7047002070477047002039
:10502C00704770470020704710B51421044603F0F8
:10503C006BFA204610BD10B51421044603F064FA37
:10504C00204610BD10B51421044603F05DFA20462D
:10505C0010BDFFF71CB8FFF71AB8FFF718B810B55A
:10506C000446006808B1FFF7DBFC204610BD0000C9
:10507C0008B50A20024A0021FFF7C2FD08BD00BF97
:10508C00D9480D0010B5036804469B689847A3687F
:10509C00013BA3602BB923682046DB68BDE81040B8
:1050AC00184710BDA0F13003DAB2092A01D818460E
:1050BC007047A0F16103052B01D857387047A0F158
:1050CC004103052B94BF37384FF0FF307047000079
:1050DC0010B500230370044B04461868FFF7A8FCB6
:1050EC0001232370204610BDACE3032010B50378D8
:1050FC0004461BB1024B1868FFF7A2FC204610BDFA
:10510C00ACE3032008B582798B799A4206D106224A
:10511C0003F01EFDB0FA80F0400908BD002008BD68
:10512C0010B501230361054B024603F1100153F83E
:10513C00044B42F8044B8B42F9D110BD98920D00F0
:10514C0010B50B460446B9B1012A09D1034601F149
:10515C00100251F8040B43F8040B9142F9D108E00A
:10516C00411E0F22985C01F8010F013AD2B2FF2ABE
:10517C00F8D10123236102E0102203F01EFD20462A
:10518C0010BD38B5054614461A46FFF7D9FF2C73E7
:10519C00240A6C73284638BD08B502690AB980899F
:1051AC0003E01022034903F0D3FC003018BF0120A8
:1051BC0008BD00BF98920D000069704738B50C46C9
:1051CC0014220021054603F0F8FC23692BB9627BFD
:1051DC00237B43EA02232B800AE001232B7404F186
:1051EC0010022B4654F8041B43F8041B9442F9D1CB
:1051FC00284638BD427B007B40EA0220704770474E
:10520C0010B50B69036101F11002034651F8044B10
:10521C0043F8044B9142F9D110BD10B586B0044649
:10522C00012201A8FFF78CFF01A92046FFF7E8FF38
:10523C0006B010BD08B502690B699A4206D110225E
:10524C0003F086FCB0FA80F0400908BD002008BDD0
:10525C000123F7B50361314B0E460546024603F1B7
:10526C00100153F8040B42F8040B8B42F9D1002EB9
:10527C0051D02421304603F02BFD042810D00027F8
:10528C0010242421304603F023FDB84201D944BB3D
:10529C0041E02C440023A5423DD004F8013DFAE73F
:1052AC003078FFF7FFFE041E18DB7078FFF7FAFE6C
:1052BC00002813DB40EA04108DF80400B078FFF7E7
:1052CC00F1FE041E0ADBF078FFF7ECFE0028A1BF0C
:1052DC0040EA04109DF8043028736B7300232B6193
:1052EC0019E0F05DFFF7DEFE030612D4013C00016D
:1052FC0028552421304603F0EBFC0137874208D2B5
:10530C00F05DFFF7CFFE40B20028A2BF2B5D184323
:10531C0028550137B5E703B0F0BD00BF98920D00DA
:10532C0038B504460D46FFF7FBFE20462946FFF72D
:10533C008FFF204638BDF0B58BB10024E51C8D42A3
:10534C000FD8661C055D875D974205D12E44B1428E
:10535C0007D31C60681CF0BD01352C44EEE71846E1
:10536C00F0BD0020F0BD2DE9F74304460E461D4666
:10537C001746002A3AD00A4601AB016AFFF7DBFF59
:10538C009DF82830226A03BBF8B1961C2E44361ABD
:10539C001F2E2BD8DDF8048008F10209C8EB02029D
:1053AC00121A00EB080105EB090092B221442044CB
:1053BC0003F0E8FB6B1C04F808302A46394604EB72
:1053CC00090003F0D4FB266210E0901C2B181F2B55
:1053DC000CD86B1CA35422442062394656702044CE
:1053EC002A4603F0C4FB226A2A442262206A03B0D4
:1053FC00BDE8F0831FB50446034600F11F020020F0
:10540C0003F8010B93424FF00001F9D104AA0623D3
:10541C0002F8013D01232162009120461946FFF755
:10542C00A2FF204604B010BD73B50A460E4601AB70
:10543C00016A0446FFF77FFF054678B10198226A9E
:10544C002918121A521B2144204403F090FB236AA2
:10545C005D1B256231462046FFF7E6FF02B070BDAA
:10546C0038B500254FF6FF73044643800E222946BB
:10547C0005700571063003F0A0FB04F11400FFF772
:10548C004FFE04F12800FFF74BFE044904F13C00E9
:10549C00FFF783FDE5642565204638BD7C930D0040
:1054AC0010B58369C26903EBC2029342184606D059
:1054BC00046824888C4203F10803F6D110BD002047
:1054CC0010BD00002DE9F34180461F460E4669B31E
:1054DC0062B3F42A056828BFF42214462A78A2B1D4
:1054EC002B79980707D500232246A889FFF732FAB3
:1054FC00002802DA43E06FF07700D8F800502B79DF
:10550C00DA0618D5012F23D115E068884FF6FF7302
:10551C0098420DD02B79590723D5012F21D0A98979
:10552C00009223463246FFF729FA28E0154826E078
:10553C006FF0D10023E09A0621D5022F1FD0A88945
:10554C0000232246314602B0BDE8F041FFF73EBAD7
:10555C00A88900232246314602B0BDE8F041FFF78E
:10556C002BBA1B0701D5022F02D16FF0770006E092
:10557C000023A989009332462346FFF7F5F902B0C0
:10558C00BDE8F081F2FEFFFF10B50A6852F8023F49
:10559C0003605368436010BD1FB502680B68128826
:1055AC001B889A420C460CD101466846FFF7ECFF6B
:1055BC00214602A8FFF7E8FF02A96846FFF7A2FD03
:1055CC0000B9002004B010BD10B504463420FEF71D
:1055DC005CFD014668B10023036043608360C360D7
:1055EC00036143618361C361036243628362C3628B
:1055FC000363216019B90A4A0A20FFF701FB002056
:10560C00FFF774F920B1064A00210A20FFF7F8FAD7
:10561C00002221680348FFF7C5F9204610BD00BFE2
:10562C00D9480D00315A0D0010B50A4C2368DB0720
:10563C000ED42046FEF73AFD50B10748FFF7C4FFE1
:10564C002046FEF738FD054A0549034802F04EFF97
:10565C00014810BDA4E30320A0E30320F8E20320DB
:10566C0019580D0070B50368093B012B8AB004462C
:10567C000E4619D8FFF7D8FFA1880068FFF710FF76
:10568C00024658B920230293084B0390009302AAB8
:10569C00034607493220FFF7BBFA05E0F56C1DB154
:1056AC00336DE1682069A8470AB070BD42910D00C6
:1056BC00F8900D0013B501A8FFF70AFD0020FFF7C5
:1056CC0015F9044601A8FFF711FD04EAE47002B0D5
:1056DC0010BD084609B90A4601E0096A0022FFF725
:1056EC000DB910B50C4611B90A46084606E0012161
:1056FC002046FFF799FE216A00222046BDE81040A3
:10570C00FFF704B913B501A8FFF7E2FC0020FFF77F
:10571C0005F9044601A8FFF7E9FC204602B010BDCC
:10572C0073B505460C4601A81646FFF7D1FC214679
:10573C002846FFF7CEFF002808DB31462846FFF746
:10574C00D0FF002802DB2846FFF7DCFF044601A847
:10575C00FFF7CCFC204602B070BD0B68036013B1A0
:10576C005A6801325A60704710B551F8043B044630
:10577C0040F8043BFFF7F1FF23680BB9FFF778FC07
:10578C00204610BD10B551F8043B044640F8043BCC
:10579C00FFF7E3FF204610BD10B504460430FEF7BA
:1057AC00EBFC204610BD70B504684368054604EB5D
:1057BC00C306A64204D0201DFEF7DEFC0834F8E731
:1057CC002868FFF7F1FA284670BD70B50468436885
:1057DC00054604EBC306A64204D0201DFEF7CCFC04
:1057EC000834F8E72868FFF7DFFA284670BD10B5D3
:1057FC00046904F11800FFF7E8FF04F10C00FFF74F
:10580C00D2FF2046BDE81040FEF741BCF8B5046855
:10581C000746C4B1A569E36905EBC306AE4204D0E3
:10582C00281DFEF7A9FC0835F8E7A069FFF7BCFABC
:10583C0004F10C00FFF7C9FF2046FFF7B4FF342139
:10584C00204602F061FE3846F8BD000073B5002515
:10585C000560456006462420FEF717FC044678B127
:10586C0003464FF6FF7223F8022BC0F802505D601E
:10587C008572C572C560056145618561C56105624A
:10588C00002314200193FEF700FC034628B10122EB
:10589C0042608260084A0260046102A8726840F8A3
:1058AC00042D73603460FEF767FC33680BB9FFF7A7
:1058BC00DFFB304602B070BDD4900D0038B50C68DB
:1058CC0003689C4205460CD014B1636801336360D5
:1058DC00286828B14368013B43600BB9FFF7D2FB42
:1058EC002C60284638BD884270B515461AD99042AE
:1058FC0019D2A1F10806511A0439151F44182B1F8F
:10590C009E4225D0042C07D055F8043C44F8043CA6
:10591C0029462046FFF721FF2846FEF72DFC083DBF
:10592C00083CECE714D00C1D061D231F9D420FD024
:10593C00042E07D054F8043C46F8043C214630466B
:10594C00FFF70BFF2046FEF717FC08340836ECE790
:10595C0070BD2DE9F041046843680546884604EBA8
:10596C00C307A74218D041462046FFF715FE06464E
:10597C0008B90834F5E78CB1201DFEF7FDFB2B6848
:10598C006A6804F1080103EBC2022046FFF7ABFF83
:10599C006B68013B6B6002E0002600E02646304657
:1059AC00BDE8F081F7B5044651F8043B4768009315
:1059BC0001A8FFF7D2FE6668A3689E4214DB01368D
:1059CC00002E0BDDF000FFF7E7F9054618B394E85D
:1059DC00060001EBC202FFF786FF00E000252068FD
:1059EC00FFF7E2F92560A6602668626806EBC7053A
:1059FC0006EBC202294605F10800FFF774FF35B12A
:105A0C00009B46F8373001A9281DFFF7A6FE6368F6
:105A1C0001336360012501A8FEF7AEFB284603B0F5
:105A2C00F0BD00002DE9F04104468EB003A80D46F0
:105A3C00FFF74EFB2368032B02D0042B42D087E0E8
:105A4C0004A8FFF703FF049B22891A80626804995B
:105A5C0052F8083FC1F802305368C1F8063007A865
:105A6C00049B069305A9FFF778FE06A905F118001B
:105A7C00FFF798FF044607A8FEF77EFB202306934A
:105A8C0074B9364B009306AA234635490794322045
:105A9C00FFF7BEF8049B21461888FEF747FF0DE080
:105AAC00304A0092002306AA2D4907930120FFF7E4
:105ABC00AFF86B6A13B1E96A04A8984705A8FEF71A
:105ACC005BFB45E021892846FFF7EAFC07460028E6
:105ADC003ED00468A369E1694FF6FF72228003EBA4
:105AEC00C101994203D053F8080B4280F9E7E668EC
:105AFC00236906EBC308B04504D0301DFEF73CFB10
:105B0C000836F8E700232361A669E36906EBC308AE
:105B1C00B04504D0301DFEF72FFB0836F8E7002304
:105B2C00E361A372E372AB6A13B1296B38469847F1
:105B3C0020230D4A06930092002309490793012064
:105B4C0006AAFFF765F8394605F11800FFF701FFC3
:105B5C0003A8FFF7CBFA0EB0BDE8F0815A910D0007
:105B6C00F8900D0080910D009D910D008842F8B5C4
:105B7C0006460C46154614D9904213D2A2F10805DC
:105B8C006C1AA1F108070444AF4218D01CB1294685
:105B9C002046FFF7F7FD281DFEF7EEFA083D083CFE
:105BAC00F2E70CD0AC420AD01EB121463046FFF7CA
:105BBC00E9FD201DFEF7E0FA08340836F2E7F8BDDF
:105BCC0070B50E1E05460BDDF000FFF7E5F8044638
:105BDC0070B195E8060001EBC202FFF7C7FF00E0C9
:105BEC0000242868FFF7E0F82C60AE60012070BD3F
:105BFC0070BD73B5044645686846FFF7C3FD616820
:105C0C00A368994205DB01312046FFF7D9FF064610
:105C1C0098B12368626803EBC50503EBC202294601
:105C2C0005F10800FFF7A2FF1DB169462846FFF7F2
:105C3C00A9FD636801336360012601A8FEF79CFA95
:105C4C00304602B070BD8842F8B506460C46154683
:105C5C0014D9904213D2A2F108056C1AA1F10807CD
:105C6C000444AF4218D01CB129462046FFF77CFDF6
:105C7C00281DFEF781FA083D083CF2E70CD0AC4237
:105C8C000AD01EB121463046FFF76EFD201DFEF7EF
:105C9C0073FA08340836F2E7F8BD70B50E1E0546E7
:105CAC000BDDF000FFF778F8044670B195E80600BC
:105CBC0001EBC202FFF7C7FF00E000242868FFF7E2
:105CCC0073F82C60AE60012070BD70BD73B50446D6
:105CDC0045686846FFF748FD6168A368994205DB93
:105CEC0001312046FFF7D9FF064698B12368626858
:105CFC0003EBC50503EBC202294605F10800FFF7CB
:105D0C00A2FF1DB169462846FFF72EFD63680133DB
:105D1C006360012601A8FEF72FFA304602B070BD71
:105D2C0010B50446406808B1FEF7B1F9204610BD25
:105D3C0007B503690C308DE8090003F13C00FFF74F
:105D4C00E5F86846FFF7ECFF03B05DF804FB0000D4
:105D5C0038B500230446036014200D46FEF795F970
:105D6C0028B1012343608360024B0360056120600E
:105D7C00204638BD9C900D002DE9F04188B00546B9
:105D8C001E46542000230F46904604930593FEF7BD
:105D9C007CF9CDF818D004460790C0B198F8008073
:105DAC00FFF75EFB394604F13C0084F80480FFF7F2
:105DBC0021F90F9BE3643146109B236504F1140019
:105DCC00FFF71EFA0E9904F12800FFF719FA214685
:105DDC00002601AB02AA03A80796FFF7B9FF039BA5
:105DEC00059A039203A805930494FEF7C5F906A837
:105DFC00FFF796FF049B2968059A2B6008A86B682F
:105E0C0006916A6040F8043D05960496FEF7B4F9D5
:105E1C0005A8FEF7B1F9296819B9034A0A20FEF75B
:105E2C00EFFE08B0BDE8F081D9480D0010B504466E
:105E3C00406808B1FEF72BF9204610BD07B5036981
:105E4C000C308DE809006846FFF7F0FF03B05DF8F1
:105E5C0004FB000038B500230446036014200D46F3
:105E6C00FEF713F928B1012343608360024B0360F2
:105E7C0005612060204638BDB8900D00F0B50026B5
:105E8C0087B006604660044618200F46FEF7FDF802
:105E9C00CDF810D00546059038B1FFF741F93946D9
:105EAC002846AE82EE82FFF7ABF900232946059314
:105EBC0002AA01AB03A8FFF7CDFF039B6268256024
:105ECC00636003A80392FEF757F904A8FFF7AEFF2F
:105EDC0023680BB9FFF7CCF8204607B0F0BD0000E3
:105EEC002DE9F04F1746A1B080460AA80E46FFF7E1
:105EFC00EFF83C682379002B00F0DE803368DD6816
:105F0C001B6905EBC303039304F1140A04F1280B7A
:105F1C00039BAB4223D0D5F80090504609F11401F5
:105F2C00FFF788F9002800F0CC8009F128015846C9
:105F3C00FFF780F9002800F0C480236823F47F4128
:105F4C00D9F8003023F47F43994240F0BA802023E3
:105F5C00604A159300230092169315AAA8E004F149
:105F6C0028094846FFF718F918B95B494846FFF766
:105F7C0054F933681D685B6805EBC30A55454946FF
:105F8C0005D02868FFF756F958BB0835F6E70BA87B
:105F9C00FFF774FF494615A8FFF710F90B9A002379
:105FAC00143215A90120FEF7CBFC002878D13568F6
:105FBC000BA90DA8FFF7E6FB28460DA9FFF719FE64
:105FCC0005460EA8FEF7D8F8002D69D03268556842
:105FDC0005F100531568013B0CA805EBC305FEF752
:105FEC00CBF804F114094846FFF7D6F868B93B4BD7
:105FFC0039491A88013292B21A8015A80123FFF789
:10600C00C0F815A94846FFF7FBF84FF02C0A52468A
:10601C00002115A802F0D1FD0123494604A8ADF8D2
:10602C005430ADF856A0FFF7C9F804AB18AA0DF11F
:10603C00200C186859689646AEE80300083363458F
:10604C007246F6D11868CEF8000023798DF85830D6
:10605C002B689B8AADF87430E36B17930022204BAE
:10606C001E93A11D15A81F94FEF792FC20BB0123C3
:10607C002370346839460C340DA8FFF775FB2046A5
:10608C000DA9FFF723FE04460EA8FEF775F89CB980
:10609C0020230D93134B00930E9423460DAA07E077
:1060AC0039464046FFF760FB0CA8FEF765F80AE09E
:1060BC000D493220FEF7ACFD39464046FFF754FB44
:1060CC0001E0083524E70AA8FFF710F8404621B094
:1060DC00BDE8F08F6D920D00E8900D00A8E3032051
:1060EC0071560D0046920D00F8900D0010B5064C3F
:1060FC00002320462360FEF78BFC2046034A04490C
:10610C00BDE8104002F0F2B9ACE30320F8E2032042
:10611C006B500D00F8B506460D468F180024BD4295
:10612C000CD0336815F8011B9B6830469847002843
:10613C0001DB0444F3E7002C08BF04462046F8BDFD
:10614C0070B505460C46084649B102F0A4FD2B6813
:10615C00024621462846DB68BDE87040184770BDF2
:10616C0003689B68184738B50D210546FFF7F8FF03
:10617C000A2104462846FFF7F3FF204438BD30B50A
:10618C008BB00B4600218DF82410012A98BF0A22EF
:10619C000DF12304B3FBF2F505FB123303F0FF03FF
:1061AC00092B94BF30333733DBB2214604F8013965
:1061BC002B46002DEED1FFF7C3FF0BB030BD0CB456
:1061CC002DE9F04387B000AF07F13804054654F8C9
:1061DC00049B3C600E4623464A461421381DFEF7AC
:1061EC00FBFD132805D8391D2846FFF7A9FF0446E7
:1061FC0013E000F1080323F00703E846ADEB030DB1
:10620C00411C23464A4668463C60FEF7E5FD69465C
:10621C002846FFF795FF0446C5461EB12846FFF7F2
:10622C00A2FF044420461C37BD46BDE8F04302B033
:10623C00704780680368DB681847704719B10B68B2
:10624C0008465B681847704719B10B6808465B68CD
:10625C001847704770477047704738B504460D466D
:10626C0000682E2102F0E8FC2368C31A2B6023B1CE
:10627C00037803B1013023682060184638BD10B58F
:10628C000C21044602F040F9204610BD10B5042143
:10629C00044602F039F9204610BD10B5042104461D
:1062AC0002F032F9204610BD38B50C46054601F017
:1062BC00D9FB84420DD001F061FC844205D101F080
:1062CC005DFCBDE8384001F052BC21462846FFF782
:1062DC00BBFF38BD08B502F0B9FCB0FA80F040093C
:1062EC0008BD38B5054608460C4602F0D4FC2146DC
:1062FC0002462846BDE8384001F0BFBF0068FEF7F3
:10630C0097BB70B5044608460D4602F0C4FC2368E2
:10631C00024629462046DB68BDE87040184713B595
:10632C0002AB026803F8011DD46819460122A0478C
:10633C0002B010BD2DE9F04F4568076885B0914655
:10634C00142255430193AB10194D02925D438B46B9
:10635C003C460123002D039323DD029B6E1003FBAF
:10636C0006F004EB00084A46B8F804A02058D145C2
:10637C0028BF5246594602F096FC039B48B9D145BA
:10638C0003D1019A13703546E4E78CBF012000203D
:10639C0000E0C00F0028F6D0AE1B08F11404013E3B
:1063AC00F1E7E41B0248A410604305B0BDE8F08F90
:1063BC00CDCCCCCCF0B585B003690191067E13B37E
:1063CC0009B304AF002347F8043D00F10C041D464B
:1063DC00394601A8FFF741FF0146A0B104AB039A6F
:1063EC0003F8055D2046FFF7A5FF9DF80B3053B170
:1063FC002368142404FB0034083434F9023C002BC9
:10640C00A8BFDEB2E4E7304605B0F0BD10B5094CCC
:10641C002368DB070BD42046FDF748FE38B1204635
:10642C00FDF749FE044A0549054802F05FF80448A7
:10643C0010BD00BFB0E30320F8E2032063620D003F
:10644C0088E2032010B5094C2368DB070BD42046E7
:10645C00FDF72CFE38B12046FDF72DFE044A054908
:10646C00054802F043F8044810BD00BFE0E30320E8
:10647C00F8E2032061620D0084E2032038B50025A8
:10648C00044605604560856005614561856140F89D
:10649C00245FFEF7BDFAFFF7B9FFE061FFF7D2FF0B
:1064AC0025732062204638BD10B50A4C2368DB07E3
:1064BC000ED42046FDF7FAFD50B10748FFF7DEFF7A
:1064CC002046FDF7F8FD054A0549034802F00EF891
:1064DC00014810BDB4E30320B8E30320F8E2032025
:1064EC001F690D000023024A02490348FEF7A8BBAE
:1064FC0001680D0091670D0019670D0000231A4605
:10650C0019461846FEF79CBB73B502AC8E6851F861
:10651C00043B44F8083D054601A8FFF71EF9224646
:10652C003146284601F0E0FE01A8FDF725FE28467D
:10653C0002B070BD73B502AC0E6951F8043B44F85F
:10654C00083D054601A8FFF708F9224631462846C2
:10655C0001F0E5FE01A8FDF70FFE284602B070BD64
:10656C0073B502ACCE6851F8043B44F8083D0546BF
:10657C0001A8FFF7F2F822463146284601F08CFEBE
:10658C0001A8FDF7F9FD284602B070BD30B58BB0FF
:10659C000D46014604A8FFF7B7FF04A801F0AFFDB4
:1065AC00E8B104A96846FFF7DBFF0F490298FFF733
:1065BC0091FE044610B12C1C18BF012401A8FDF754
:1065CC00DBFD002CE9D004A96846FFF7B3FF684651
:1065DC0001F075FD286001A8FDF7CEFDDDE705A8EB
:1065EC00FDF7CAFD0BB030BDD8920D0037B50C4687
:1065FC0020461349154602F029FB40B901F032FA46
:10660C004FF4165101F01EFA01F02CFA15E00D4969
:10661C00204602F01BFB78B902A94FF4165341F83F
:10662C00043D2846FFF7B2FF01F0A8FA019901F0EA
:10663C009BFA01F0A3FA00E0002003B030BD00BFCC
:10664C00DD920D00E4920D0070B5046843681426C9
:10665C00054606FB0346A64205D004F10800FFF7E9
:10666C00F3FF1434F7E72868FEF79EFB284670BD4D
:10667C0070B504684368054604EB0316A64204D0C3
:10668C002046FEF743FC1034F8E72868FEF78CFB35
:10669C00284670BD10B504460C30FFF7D5FF2046D8
:1066AC00FFF7E6FF204610BD10B5044B044640F83A
:1066BC00043BFFF7EFFF204610BD00BF588E0D00C6
:1066CC0010B50446FFF7F0FF2046242101F01CFF13
:1066DC00204610BD10B5034B03600446FFF7E4FFE2
:1066EC00204610BDC8920D0010B50446FFF7F2FF0E
:1066FC002046242101F008FF204610BD10B5036888
:10670C0004461868FEF79CF9204610BD2DE9F04FA1
:10671C009B461B4B5B68C3F3080385B082460E4651
:10672C00904653BBFFF7C0FE044624300390FFF79E
:10673C00E5FD237BF3B90123237325686368F6B267
:10674C0005EB83094D4513D055F8047B4146381DA4
:10675C00FFF730FE8642F5D33B68CDF800B09B685E
:10676C009E4638464346324651467746B847E9E797
:10677C000023237303A8FFF7C1FF05B0BDE8F08F1A
:10678C0000ED00E02DE9F74F9946194B5B68C3F318
:10679C00080307468846164633BBFFF785FE0446BA
:1067AC0024300190FFF7AAFD237BD3B90123237377
:1067BC00256863685FFA86FB05EB830A55450ED0A6
:1067CC0055F8046B4946301DFFF7F4FD8345F5D3AE
:1067DC0033684246DB68394630469847EEE700237B
:1067EC00237301A8FFF78AFF03B0BDE8F08F00BF49
:1067FC0000ED00E02DE9F341154B5B68C3F3080392
:10680C0004468846FBB9FFF74FFE0646243001903C
:10681C00FFF774FD96E8A000462605EB8707AF420C
:10682C0007D101A8FFF76AFFB442B4BF00200120D2
:10683C000AE055F8040B41460430FFF7BBFD8642D5
:10684C00A8BF0646EBE7002002B0BDE8F08100BF10
:10685C0000ED00E070B503684268044603EB820269
:10686C009A4218460ED006680D68AE4203F1040336
:10687C00F6D1011D521A02F085F96368013B636081
:10688C00012070BD002070BD1FB50446243001915D
:10689C000390FFF733FD01A92046FFF7DBFF20B97A
:1068AC0003A8FFF72BFF04B010BD6368002BF7D1D2
:1068BC00FFF724FEF4E770B5056943691826044612
:1068CC0006FB0356AE4215D005F110012046FFF72A
:1068DC00C1FF63680BB9FFF711FEE0692969036812
:1068EC00DB689847696919B1206A0368DB689847C7
:1068FC001835E7E725696369182606FB0356B54288
:10690C0004D02846FEF702FB1835F8E70023636134
:10691C0070BD73B5044602ADFFF7F0FD04F1240021
:10692C0045F8040DFFF7EAFC2046FFF7C4FF2846A4
:10693C00FFF7E4FE606A08B1FEF772F82569636937
:10694C00182606FB0356B54204D02846FEF7DEFA9D
:10695C001835F8E72069FEF727FA2068FEF724FAC5
:10696C00204602B070BD03680A6802600B60436881
:10697C004A6842604B6083688A6882608B607047AB
:10698C0010B500230446036043608360FFF7EBFF00
:10699C00204610BD8842F8B50446164625D99042CB
:1069AC0024D2551A143D2C44A1F11407A2F10C0564
:1069BC000026A5F108039F4237D084B155F8083C56
:1069CC00236035F8043CA38035F9023CE380A660D3
:1069DC00E6602661294604F10800FFF7C4FF28464B
:1069EC00FFF732FE143C143DE3E71ED001F108051D
:1069FC000027A5F108039E4217D084B155F8083C36
:106A0C00236035F8043CA38035F9023CE380A76091
:106A1C00E7602761294604F10800FFF7A4FF284628
:106A2C00FFF712FE14341435E3E7F8BDF8B54568EA
:106A3C0083689D4204460E4617460EDB0135002D39
:106A4C0005DDA9000068FEF7B7F920B9F8BD0068AC
:106A5C00FEF7AAF900202060A5602568626805EBA6
:106A6C00860105EB8202521A081D02F08BF845F8DC
:106A7C0026706368013363600120F8BD37B50446A6
:106A8C0024300D460190FFF739FC2368616803EB55
:106A9C00810083421A4609D01268AA4203F104030A
:106AAC00F7D101A8FFF72AFE00250EE02A46204662
:106ABC00FFF7BCFF05460028F3D06368012B01D11A
:106ACC00FFF710FD01A8FFF719FE284603B030BDF3
:106ADC008842F8B506460C46154614D9904213D296
:106AEC00A2F110056C1AA1F110070444AF4218D0A2
:106AFC001CB129462046FEF7F9F92846FEF706FA9E
:106B0C00103D103CF2E70CD0AC420AD01EB121462D
:106B1C003046FEF7EBF92046FEF7F8F91034103644
:106B2C00F2E7F8BD70B50E1E05460BDD3001FEF721
:106B3C0033F9044670B195E8060001EB0212FFF739
:106B4C00C7FF00E000242868FEF72EF92C60AE6029
:106B5C00012070BD70BD2DE9F04F002395B0924619
:106B6C004622036043608360C36003614361027625
:106B7C000291DAF8041008939942054609930A9396
:106B8C0040F39D8008A8FFF7CDFF002840F09780C8
:106B9C008EE021460BA8FEF7A9F90BA90FA8099EB8
:106BAC00FEF7A4F909990A9B9942C0F2CE800131F3
:106BBC0008A8FFF7B7FF002840F0C7800FA8FEF722
:106BCC00A5F90BA8FEF7A2F91434A742E1D10026CF
:106BDC000B960C960D96B146099B9E4280F2A880AE
:106BEC003301089AD3580693002B00F09F8014238E
:106BFC007343CDF81C9001930BAC07A906A8FFF7C3
:106C0C002CFB0746002800F0918014AB014603F8DA
:106C1C00399D079A2046FFF78DFB9DF81780009051
:106C2C00B8F1000F53D1BDF81C30ADF840304FF621
:106C3C00FF730F97ADF84230CDF84480CDF8488003
:106C4C00CDF84C806768A3689F424FDA009BD4F85C
:106C5C0000B06168142253430BEB030702FB01B233
:106C6C0007F1140039460393FFF794FEA7B1039B79
:106C7C000F9A4BF80320BDF84030BB80BDF9423071
:106C8C00FB80C7F80890C7F80C90C7F8109011A9B2
:106C9C0007F10800FFF767FE63680133636011A812
:106CAC00FFF7D2FCB8F1000F11D00BA8FFF7CCFC0A
:106CBC0008A8FFF7DDFC284615B0BDE8F08FDAF820
:106CCC000040DAF80430142707FB03477DE72368FC
:106CDC00009A142404FB0234069B1B7823BBDAF8BD
:106CEC000030019A13441B7CE3801DE00137002F18
:106CFC000FDD142303FB07F00393FEF74DF88346D7
:106D0C0078B194E80600039B03FB0212FFF742FEE6
:106D1C0000E0C3462068FEF747F8C4F800B0A7604F
:106D2C0094E74FF00108BAE7083466E7013653E7F9
:106D3C0008A92846FFF717FE0BA905F10C00FFF771
:106D4C0012FE9DF808302B76AFE7089B099A03EBEF
:106D5C00061603EB0212314606F11000FFF7B8FEDF
:106D6C001EB10FA93046FEF7C1F8099B01330993F8
:106D7C0024E700007FB50446094B44F8043B054664
:106D8C000E4601A81146FDF725FC01AA3146204606
:106D9C00FFF7E1FE01A8FDF71BFB284604B070BD10
:106DAC00588E0D00F0B50F468BB02B49109C384611
:106DBC0016461D4601F04AFF28BB002C49D0294637
:106DCC0001A8FFF7DDFD2549242001F0A1FB0546B4
:106DDC00B8B101A904A8FFF7D3FD04A907A8FDF7D2
:106DEC00F9FB07AA31462846FFF7C4FF07A8FDF7B1
:106DFC00EFFA1B4B2B602C6204A8FDF7E9FA194B38
:106E0C002B6001A81FE01849384601F01FFFF0B9AC
:106E1C00FCB1294604A8FFF7B3FD1049242001F06A
:106E2C0077FB054670B104A907A8FDF7D3FB07AAA9
:106E3C0031462846FFF79EFF07A8FDF7C9FA084B15
:106E4C002B602C6204A8FDF7C3FA284602E0002050
:106E5C0000E020460BB0F0BD33930D009F950D0064
:106E6C00BC930D00C8920D0037930D00014B024AE4
:106E7C001A607047E4E3032048930D002DE9F047B6
:106E8C00089DD0F8209004460E461746984600F010
:106E9C00E9FD814505D15A4801F017F8002840F06A
:106EAC00AC802B791B0705D56B69564A206A0021EB
:106EBC00FFF785F9B8F1000F0DD05B212046FFF7E5
:106ECC002EFA41462046FFF71CFA23684E49DB6830
:106EDC000222204698472B79D90725D5D5F808806A
:106EEC002F21404601F000FF08B100F10108414696
:106EFC002046FFF706FA2B799A0709D53A21204646
:106F0C00FFF70DFAEB68414A206A0021FFF757F9A9
:106F1C002B7913F0040F236818BF3D49DB6808BFB9
:106F2C003C490222204698472B795B0718D52969E2
:106F3C000A46134613F8010B38B1202801D1194623
:106F4C0001E0282801D01A46F3E72368521ADB68BF
:106F5C002046984723683049DB680422204698472E
:106F6C0000213846FDF764FE01462046FFF7C9F9BB
:106F7C0023682849DB680222204698471EB1314617
:106F8C002046FFF7BEF92B7913F0300F2DD0236874
:106F9C002249DB682046022298472B79D8060BD56C
:106FAC0023681F49DB68072220469847AB691D4AB6
:106FBC00206A0021FFF703F92B79990611D5DA061F
:106FCC0005D523681249DB680222204698472368BE
:106FDC001549DB6820460A229847E9692046FFF7E5
:106FEC0090F95D212046FFF79AF923680F49DB6879
:106FFC0020460222BDE8F0471847BDE8F08700BFE5
:10700C0018E703204C930D0053930D0056930D007D
:10701C0059930D005E930D005C930D0061930D0070
:10702C0064930D006C930D006F930D007A930D001B
:10703C002DE9F04385B0D0F820800C9C06460F4615
:10704C0091461D4600F00EFD804505D14A4800F0E2
:10705C003CFF002840F08C80336A484A01924FF084
:10706C00000801A803938DF8088001F072F84146DE
:10707C004846FDF7DDFD42498046012201A801F09A
:10708C00EDF84146FFF72DF93FB13E49012201A829
:10709C0001F0E4F83946FFF724F93DB13A490122F1
:1070AC0001A801F0DBF82946FFF71BF92379DF076C
:1070BC000ED5A5682F21284601F016FE00B1451CFF
:1070CC003249012201A801F0C9F82946FFF709F954
:1070DC0023799D0707D52E49022201A801F0BEF89D
:1070EC00E16801F043F82379580716D525692F4636
:1070FC003B4613F8012B3AB1202A01D11D4601E081
:10710C00282A01D01F46F3E70222224901A801F0E8
:10711C00A5F87A1B294601F0B0F82379190707D591
:10712C001D49012201A801F099F8616901F030F8BC
:10713C002379DA0608D5042218490DEB020001F078
:10714C008DF8A16901F012F823799B0607D5144933
:10715C00062201A801F082F8E169FFF7C2F801A844
:10716C0000F0E1FF306A0F4903680222DB689847A0
:10717C0005B0BDE8F08300BF18E70320B0920D0006
:10718C00E2920D006E8F0D0029900D008F950D0071
:10719C007D930D0080930D00748F0D0083930D0073
:1071AC0088930D007A930D00024B1A68024B1A60FB
:1071BC00704700BF8CE20320E8E303200021FDF7B9
:1071CC004FBD10B58368044613B10322014698479E
:1071DC00204610BD10B50446FFF7F3FF204610BD46
:1071EC0013B50B46044603C88DE8030093E803006F
:1071FC0084E803009DE8030083E8030002B010BD9F
:10720C000348044A04490023836001F06FB900BFAE
:10721C00ECE30320F8E20320E1710D0008B50C4B00
:10722C0033B100F01FFC03681B699847002809DC88
:10723C00084B63B100F0A2FC03681B699847002857
:10724C0003DC08BDAFF30080F2E7AFF3008008BDAC
:10725C00000000000000000008B5FFF7DFFFFDF79D
:10726C003DFB014B186008BD30E703200248034A80
:10727C000349121A01F07BBC00F4032004F4032030
:10728C0050970D0007B5002300931A466FF0770155
:10729C00FDF708FD03B05DF804FB000007B543885B
:1072AC000A2B08D0502B09D1094B1B683BB103B0FA
:1072BC005DF804EB1847FFF7E5FF06E000230093A9
:1072CC001A466FF07701FDF7EDFC03B05DF804FB97
:1072DC00FCE3032038B5104C104D2368AB42104B27
:1072EC000CBF012200221A7002D0FFF7BFFF2560ED
:1072FC00FDF7E4FA044601F069FC0A4B13B1204691
:10730C00AFF3008000210748FDF73EFD0021064841
:10731C00BDE83840FDF7BCBC00F403201E1C279AC6
:10732C0000E4032000000000A9720D00704700204B
:10733C00704710B51021044601F0E6F8204610BD48
:10734C0008B508B1FFF7F5FF08BD0022026010B5C3
:10735C004FF69C728280B1F9044084808A80026866
:10736C000C6804600A6010BD10B504460068FDF797
:10737C001BFD204610BD38B5C468F4B12378022B30
:10738C0003D104F10C00FFF7EFFF656835B1284617
:10739C00FFF717FF1021284601F0B6F8A56835B1A4
:1073AC002846FFF70EFF1021284601F0ADF82046C5
:1073BC001421BDE8384001F0A7B838BD13B5044618
:1073CC0091E8050000234B600B602060626001A80F
:1073DC0001930093FCF7D0FE204602B010BDF7B528
:1073EC000C4602AD54F8043B45F8083D06460F46E2
:1073FC0001A82146FEF7B1F929463046FFF7DEFF1A
:10740C0001A8FCF7B9FE2046FCF7B6FE3846082169
:10741C0001F07AF8304603B0F0BD000038B5002317
:10742C000446036010200D46FCF72FFE28B1012303
:10743C0043608360024B0360C5602060204638BD0A
:10744C0030940D00826810B50AB901F070F8C36869
:10745C00BDE81040184708B5006800F11001FFF7AF
:10746C00F1FF08BD826810B50AB901F060F8C36875
:10747C00BDE81040184708B5006800F11001FFF78F
:10748C00F1FF08BD38B5002383608B6804460D46B8
:10749C002BB102229847EB68E360AB68A3602046EF
:1074AC0038BD0000F0B589B004686846FFF74DFFA1
:1074BC0000238DF808304FF00202D4E84F3F002B28
:1074CC0003D1C4E8412F0029F7D102D08DF8083040
:1074DC0063E014F10C0503D069462846FFF735FF2D
:1074EC00BFF35F8F01236370002004F10803BFF327
:1074FC005F8F53E8006F43E80002002AF9D1BFF315
:10750C005F8F002E49D0FDF7B3FB20B129463046E2
:10751C00FFF798FF3AE0314602A8FFF7B3FFE068A7
:10752C00B4F9105008B101F09BFB06901020ADF897
:10753C001C50FCF7AAFD0546E8B10027876018200F
:10754C00FCF7A3FD044688B10146876002A8FFF74B
:10755C0047FE049BA268A360059B049206A9E268FF
:10756C00E36004F110000592FFF7EFFE0D4BEB60AA
:10757C000D4B2C60AB6006A8FFF7F6FE02A8FFF7D8
:10758C0020FE002229460948FDF77AFB3046FFF71A
:10759C0018FE1021304600F0B7FF6846FFF7E4FEF6
:1075AC0009B0F0BD63740D00D9760D00D57B0D00CC
:1075BC002DE9F04F8BB006460F46904699469DF844
:1075CC0050A0FDF7D1FB07AD834630BB4FF62E73B1
:1075DC00059005A92846ADF81830FFF7B6FE142023
:1075EC00FCF753FD044658B102230370012343708A
:1075FC00C0F804B0C0F808B029460C30FFF7A5FE5F
:10760C003046214640F8044BFFF708FF2846FFF7A9
:10761C00ABFE05A8FFF7A8FE52E000240C231420B3
:10762C006C60AC600793FCF730FD014618B1047038
:10763C0044704460846004A80391FFF7EFFE224B72
:10764C0008930820FCF721FD044628B1039B40F861
:10765C00043B04A9FEF781F800955FFA8AF34A46C9
:10766C00414638460994FDF787FB20B9039B5B78AC
:10767C0003F0FF0283B1039B059304A906A8FEF750
:10768C006CF805A93046FFF799FE06A8FCF774FDC7
:10769C0004A8FCF771FD13E04FF69C7305A903A831
:1076AC000592ADF81830FFF7FDFE05A8FFF75CFE5C
:1076BC0005A80999FFF793FE06A8FCF75DFDDAE72C
:1076CC0030460BB0BDE8F08F49780D00022AF8B5B2
:1076DC00044606D0032A17D0012A22D10B68036076
:1076EC001FE018200E68FCF7D0FC054650B131465F
:1076FC00FFF7C8FE3069B6F9147008B101F0B0FAA2
:10770C002861AF8225600CE0046854B104F11000CC
:10771C00FFF72AFE2046FFF754FD1821204600F003
:10772C00F3FE0020F8BD38B5002383608B68044657
:10773C000D462BB102229847EB68E360AB68A3605F
:10774C00204638BD022A70B5044606D0032A11D053
:10775C00012A18D10B68036015E014200E68FCF7A1
:10776C0094FC054620B13146FFF7DDFF337C2B74CA
:10777C00256008E0046834B12046FFF722FD14218F
:10778C00204600F0C1FE002070BD0000F0B50023C3
:10779C0087B00C46BFF35F8F50E8006F40E80032B3
:1077AC00002AF9D1BFF35F8F002E3FD01846FDF7AA
:1077BC005FFA074620B121463046FFF753FE2EE014
:1077CC00314601A8FFF7AFFF23788DF81430102055
:1077DC00FCF75BFC0546D0B187601420FCF755FC28
:1077EC00044678B18760014601A8FFF7F9FC039BBA
:1077FC00A268A360049B0392E268E3609DF81430D6
:10780C00049223740A4BEB600A4B2C60AB6001A80A
:10781C00FFF7D7FC002229460748FDF731FA30461E
:10782C00FFF7CFFC1021304600F06EFE07B0F0BD24
:10783C0083740D0051770D00D57B0D0030B585B0EC
:10784C0004460D4668461146FFF7C9FD7CB124B2CB
:10785C0028460DB101F004FA029002A96846ADF871
:10786C000C40FFF71FFE02A8FFF77EFD1DE00098FD
:10787C008DF808404FF00102D0E84F3FA34203D1EE
:10788C00C0E8412F0029F7D102D08DF808300CE068
:10789C0010F10C014FF0010318BF0373BFF35F8F9E
:1078AC00043000F8033CFFF771FF01A8FCF764FCFF
:1078BC0005B030BD704710B51821044600F024FE09
:1078CC00204610BDF0B5037D062B8DB00E4600F1A1
:1078DC0004074FF0000402D000F1080518E00CADCD
:1078EC00394605F8304D2F232A460A20FDF7B0F80B
:1078FC00284601F0D0F933680246DB682946304649
:10790C0098470FE024B12E213046FEF729FC0444A1
:10791C0015F8011D0A223046FEF731FCBD42044425
:10792C00F0D120460DB0F0BD10B5054B0446112228
:10793C0040F8043B002101F040F9204610BD00BF87
:10794C004C940D000346074A10B543F8042B01F183
:10795C00100251F8044B43F8044B9142F9D10A78C8
:10796C001A7010BD4C940D0010B59DF8084044EAF7
:10797C00032343EA024242EA016104234160037596
:10798C0010BD37B50D788B784A78C97800912946A7
:10799C00FFF7EAFF03B030BD41747047704708B57C
:1079AC000021007CFDF714F930EA200028BF4FF0CD
:1079BC00FF3008BD08B50121007CFDF709F930EA5C
:1079CC00200028BF4FF0FF3008BD08B5007CFDF744
:1079DC00F7F820EAE07008BD08B5007CFDF7E8F880
:1079EC0020EAE07008BD007CFDF702B910B5142147
:1079FC00044600F089FD204610BD38B50446007CD5
:107A0C000D46FDF7DDF8002801DC607C28B1294625
:107A1C00207CFDF7E5F820EAE07038BD10B504468F
:107A2C00002363604FF47A73A360054B236001233A
:107A3C000846217463741146FDF7A2F8204610BD68
:107A4C0060940D000022007CFDF7A2B8007CFDF7CD
:107A5C00A7B810B514220446002101F0AEF8204658
:107A6C0010BD000030B50E4D87B001A8FFF7F1FF37
:107A7C00296811F0010410D12846FCF717FB60B1FE
:107A8C0001AA21460748FFF7C9FF2846FCF713FB5C
:107A9C00054A0649034800F029FD024807B030BDED
:107AAC0004E4032008E40320F8E20320A9790D0084
:107ABC0070474174704708B5007CFDF711F820EA57
:107ACC00E07008BD08B5007CFCF7E2FF20EAE0702E
:107ADC0008BD08B5007CFCF7EBFF30EA200028BF9E
:107AEC004FF0FF3008BD08B5007CFCF7D9FF30EA39
:107AFC00200028BF4FF0FF3008BD007CFCF7E0BF32
:107B0C0010B51421044600F0FFFC204610BD70B5E2
:107B1C00457C04460E4625B9007CFCF7E1FF0028A5
:107B2C0005DD3146207CBDE87040FCF7A9BF284636
:107B3C0070BD000010B50446084611460022626074
:107B4C004FF47A72A260054A22600122207462749A
:107B5C001A46FCF785FF204610BD00BF90940D001F
:107B6C000023007CFCF7C4BF0022FFF7F9BF007CA8
:107B7C00FCF77EBF007CFCF7ABBF000038B50C4DAA
:107B8C00296811F0010411D12846FCF78FFA68B16D
:107B9C00084A094B09482146FFF7CCFF2846FCF759
:107BAC008AFA074A0749054800F0A0FC034838BD8B
:107BBC00B4E40320B8E4032030E403201CE40320E5
:107BCC00F8E20320BD7A0D0010B5836804460BB9AA
:107BDC0000F0ADFCC3689847A3681BB10322214693
:107BEC002046984720461021BDE8104000F08CBC80
:107BFC007047F8B5064615460C468F18BC4206D0A1
:107C0C00336814F8011B9B6830469847F6E7284602
:107C1C00F8BD0022007CFCF773BF0021007CFCF750
:107C2C0077BF0021007CFCF77BBF0021007CFCF7B8
:107C3C007FBF0021007CFCF783BF10B514210446E4
:107C4C0000F062FC204610BD10B5044600236360B2
:107C5C004FF47A73A360044B2174084623601146D9
:107C6C00FCF77EFF204610BDC0940D000021007C67
:107C7C00FCF76EBF002211464068FDF755B8002294
:107C8C0011464068FDF760B800224068FDF754B813
:107C9C00002281F001014068FDF73EB800231A462E
:107CAC0001214068FDF730B800231A461946406898
:107CBC00FDF722B8002211464068FDF715B80022E6
:107CCC0011464068FDF700B8002202214068FDF71C
:107CDC0003B800231A464068FCF7EEBF38B50546DA
:107CEC0088B104684CB1A3681BB10322214620461D
:107CFC0098471021204600F007FC28461421BDE8C7
:107D0C00384000F001BC38BD10B103685B681847FF
:107D1C00704710B503680446BBB15868FCF760FEA9
:107D2C0078B923685A7C12B95868FCF761FE23684D
:107D3C005868FCF765FE20680023236028B1FFF724
:107D4C00CDFF206808B1FFF7C9FF204610BD38B53C
:107D5C000446D0F8C40108B1FCF79BF9D4F8C00173
:107D6C0008B1FCF75DFED4F8BC5135B12846FFF7DD
:107D7C00D0FF0421284600F0C7FB206808B1FFF7AC
:107D8C00C3FF204638BD000010B5044B044640F834
:107D9C00083BFFF7DCFF204610BD00BFE8940D0048
:107DAC0038B50E4C0E4B23600025022304F5E4700D
:107DBC006360A560C4F8C451C4F8C851FCF728FE30
:107DCC00084BC4F8CC5184F8D05123602046064AA5
:107DDC000649BDE8384000F089BB00BF3CE50320F4
:107DEC0050950D00E8940D00F8E20320957D0D00F0
:107DFC00002211464068FCF777BF0022114640680C
:107E0C00FCF792BF002211464068FCF79DBF002290
:107E1C004068FCF791BF002281F001014068FCF73B
:107E2C007BBF00231A4619464068FCF76DBF002340
:107E3C001A4619464068FCF75FBF0022114640689D
:107E4C00FCF742BF002202214068FCF745BF00232B
:107E5C001A464068FCF730BF024B04225A60024AB3
:107E6C001A60704710E703201C950D0000231A467A
:107E7C004068FCF721BF002202214068FCF72CBFB0
:107E8C00002211464068FCF71FBF002211464068D3
:107E9C00FCF72ABF00231A4619464068FCF72CBF92
:107EAC0000231A4619464068FCF72EBF002281F0C9
:107EBC0001014068FCF730BF00224068FCF73CBF72
:107ECC00002211464068FCF73FBF00221146406873
:107EDC00FCF72ABF2DE9F043002495B016460D4659
:107EEC000746FFF721FD214620220CA8009400F044
:107EFC0064FE40230C9321466B460CAA3046FCF7DB
:107F0C008DFC0446002844D1024601216868FCF728
:107F1C00EBFE0221804622466868FCF7E5FE009ED7
:107F2C0081462146002E34D0002932D17368022BB1
:107F3C0002D00A2B09D02AE0B8F1000F27D07169C2
:107F4C0038460431FFF71DFD20E0B9F1000F1ED0BB
:107F5C007469112201A800F030FE06238DF814304C
:107F6C0001AD04F108031834186859682A4603C295
:107F7C000833A3421546F7D101A906A807ADFFF7B0
:107F8C00E1FC0FCD3C1D0FC42B6823700121F66959
:107F9C00C8E70098FCF73AFC384615B0BDE8F0830A
:107FAC00024B034A1A6000225A60704718E70320FC
:107FBC0050950D0000F11002012312F8101C01293C
:107FCC00104604D152F8041C03EB410304E00229CF
:107FDC0004BF52F8041C5B18013B02F11002ECD1F7
:107FEC0070470EB42DE9F04187B000AF07F13404AF
:107FFC00054654F8046B7C6023463246102107F189
:10800C000800FCF7E9FE0F2816D900F1080323F04D
:10801C000703E846ADEB030D3246411C2346684688
:10802C007C60FCF7D9FE021E04DD2B6869469B6858
:10803C0028469847C54607E030B12B6802469B6836
:10804C0007F10801284698471C37BD46BDE8F041AA
:10805C0003B0704713B502AB026803F8011D9468B6
:10806C0019460122A04702B010BD8368FBB11A78F3
:10807C00032A1AD8DFE802F00417021D0520704706
:10808C0002685B685268D05C2D2814D0A0F13003D4
:10809C00092B10D9742810D066280ED0A0F16E03CD
:1080AC0058425841704706207047002070471846C8
:1080BC00704704207047032070470220704710B5AA
:1080CC000446FFF7D2FF02280DD016D3042814D88B
:1080DC002268A36850685B680A2200211844BDE836
:1080EC00104000F09BBE2268A36852685B68D05CAD
:1080FC00A0F174035842584110BD002010BD10B5BA
:10810C00436904465BB18068E060013B1030A060BD
:10811C00206163612BB1FFF74DFFA06001E01846B1
:10812C0010BD012010BD10B57D210446FFF792FF54
:10813C0001232371204610BD08B50379012B02D011
:10814C00022B02D008BD2C2100E03A21FFF782FF60
:10815C0008BD10B50446FFF7EFFF20467B21FFF763
:10816C0079FF00232371204610BD000038B504466A
:10817C000D46FFF7E1FF23680449DB6820462A46D9
:10818C00984701232371204638BD00BF56930D003C
:10819C0038B504460D46FFF7CFFF23680449DB686A
:1081AC0020462A46984701232371204638BD00BF3C
:1081BC00118F0D00F8B50D461746222104462F44A9
:1081CC00FFF748FF2A462946BA4238D0164616F819
:1081DC00015B222D03D05C2D01D01F2D2DD82368DF
:1081EC00521A9B68204698475C212046FFF732FFC5
:1081FC000C2D19D007D8092D0FD00A2D12D0082D0F
:10820C0014D162210AE0222D05D05C2D03D00D2D56
:10821C000CD1722102E0294600E074212046FFF7C0
:10822C0019FF09E06E21F9E76621F7E723680A498F
:10823C00DB682A462046984731463246C4E79142CD
:10824C0004D02368521A9D682046A8472221204654
:10825C00FFF700FFF8BD00BF99950D0070B50446FF
:10826C000D461646FFF768FF204632462946FFF7B3
:10827C00A1FF02232371204670BD70B504460D4644
:10828C001646FFF759FF204632462946FFF792FF64
:10829C0001232371204670BD10B5002304460360F2
:1082AC0043601048A060E360D1B10B78032B06D07B
:1082BC00B3B9136858684B68C35C6E2B08D013684D
:1082CC0058684B680344A3608B6849685B1AE36089
:1082DC001146204651F8043B40F8043BFDF7EEFAFA
:1082EC00204610BD7C930D00002310B5044603609E
:1082FC0043608360C3600361436171B10B78012BF0
:10830C000BD101F110038360CB684361114651F826
:10831C00043B40F8043BFDF7D1FA204610BD002386
:10832C0010B5044603604360816031B1114651F8C9
:10833C00043B40F8043BFDF7C1FA204610BD10B5D4
:10834C00044600F073F8FCF7B3FD28B1A4F10B035D
:10835C00022B01D8002010BD00F0A2F8FFF786FC1C
:10836C0008B1012CF6D9FFF709FCFFF703FC18B193
:10837C00A4F10903012BEDD9232C8CBF0020012083
:10838C0010BD232838B504460D460AD8FF2908D05D
:10839C00FFF7D5FF28B129462046BDE83840FCF749
:1083AC0055BA38BD38B504460D46FCF757FAFF28C8
:1083BC0010D0062804D84D2323FA00F0C30709D4A3
:1083CC002046FFF7BCFF28B129462046BDE83840BF
:1083DC00FCF74CBA38BD10B50446FCF73FFA04382C
:1083EC00C0B2012808D92046FFF7A9FF20B12046CA
:1083FC00BDE81040FCF742BA002010BD0D2810B5A6
:10840C0004469CBF0E34A4B22046FFF798FF50B12F
:10841C0003212046FCF712FA032804D12046BDE8BC
:10842C001040FCF733BA002010BD000038B50B4DDE
:10843C00296811F001040FD12846FBF737FE58B11B
:10844C0021460748FCF726FD2846FBF734FE054A73
:10845C000549034800F04AF8014838BD2CE70320D1
:10846C0020E70320F8E20320914E0D0070B504467E
:10847C0014252A46094E002100F09FFB258020255B
:10848C003146A5602561284600F040F83146606011
:10849C00284600F03BF8E060204670BD9F950D002B
:1084AC0030B50E4D296811F0010487B013D1284660
:1084BC00FBF7FCFD78B101A8FFF7D8FF01AA214614
:1084CC000748FFF7C1FB2846FBF7F5FD054A0649AF
:1084DC00034800F00BF8024807B030BD34E7032026
:1084EC0038E70320F8E20320FD7B0D000B46014624
:1084FC00184600F01FBB0000024B1868BFF35F8FDB
:10850C00704700BF4CE70320FBF7C1BD00F000B87B
:10851C0010B5002814BF044601242046FCF73CFC8F
:10852C0020B9FFF7E9FF08B18047F6E710BD08B5A1
:10853C00FCF75AFC184B1A68D1075CBF01221A6071
:10854C00164B1A68D2075CBF01221A60144B1A68CA
:10855C00D0075CBF01221A60124B1A68D1075CBFAE
:10856C0001221A60104B1A68D2075CBF01221A60F4
:10857C000E4B1A68D0075CBF01221A600C4B1A68AC
:10858C00D1075CBF01221A600A4B1A68D2075CBF84
:10859C0001221A60704700BF6CE7032068E70320D4
:1085AC0064E7032060E703205CE7032058E703201F
:1085BC0054E7032050E70320244B1A68D0075CBF14
:1085CC0001221A60224B1A68D1075CBF01221A6083
:1085DC00204B1A68D2075CBF01221A601E4B1A6826
:1085EC00D0075CBF01221A601C4B1A68D1075CBF14
:1085FC0001221A601A4B1A68D2075CBF01221A605A
:10860C00184B1A68D0075CBF01221A60164B1A6807
:10861C00D1075CBF01221A60144B1A68D2075CBFE9
:10862C0001221A60124B1A68D0075CBF01221A6033
:10863C00104B1A68D1075CBF01221A600E4B1A68E6
:10864C00D2075CBF01221A60704700BF9CE7032071
:10865C0098E7032094E7032090E703208CE703209E
:10866C0088E7032084E7032080E703207CE70320CE
:10867C0078E7032074E7032070E70320244B1A6883
:10868C00D0075CBF01221A60224B1A68D1075CBF6D
:10869C0001221A60204B1A68D2075CBF01221A60B3
:1086AC001E4B1A68D0075CBF01221A601C4B1A685B
:1086BC00D1075CBF01221A601A4B1A68D2075CBF43
:1086CC0001221A60184B1A68D0075CBF01221A608D
:1086DC00164B1A68D1075CBF01221A60144B1A683A
:1086EC00D2075CBF01221A60124B1A68D0075CBF1C
:1086FC0001221A60104B1A68D1075CBF01221A6064
:10870C000E4B1A68D2075CBF01221A60704700BF7B
:10871C00CCE70320C8E70320C4E70320C0E703200D
:10872C00BCE70320B8E70320B4E70320B0E703203D
:10873C00ACE70320A8E70320A4E70320A0E703206D
:10874C00184B1A68D1075CBF01221A60164B1A68C5
:10875C00D2075CBF01221A60144B1A68D0075CBFA9
:10876C0001221A60124B1A68D1075CBF01221A60F1
:10877C00104B1A68D2075CBF01221A600E4B1A68A4
:10878C00D0075CBF01221A600C4B1A68D1075CBF82
:10879C0001221A600A4B1A68D2075CBF01221A60C8
:1087AC00704700BFECE70320E8E70320E4E7032071
:1087BC00E0E70320DCE70320D8E70320D4E703201D
:1087CC00D0E7032081F0004102E000BF83F00043BA
:1087DC0030B54FEA41044FEA430594EA050F08BF50
:1087EC0090EA020F1FBF54EA000C55EA020C7FEA14
:1087FC00645C7FEA655C00F0E2804FEA5454D4EB91
:10880C005555B8BF6D420CDD2C4480EA020281EA5A
:10881C00030382EA000083EA010180EA020281EA92
:10882C000303362D88BF30BD11F0004F4FEA0131E4
:10883C004FF4801C4CEA113102D0404261EB4101F3
:10884C0013F0004F4FEA03334CEA133302D0524279
:10885C0063EB430394EA050F00F0A780A4F1010435
:10886C00D5F1200E0DDB02FA0EFC22FA05F280186F
:10887C0041F1000103FA0EF2801843FA05F3594155
:10888C000EE0A5F120050EF1200E012A03FA0EFCD4
:10889C0028BF4CF0020C43FA05F3C01851EBE371FE
:1088AC0001F0004507D54FF0000EDCF1000C7EEB1B
:1088BC0000006EEB0101B1F5801F1BD3B1F5001F59
:1088CC000CD349085FEA30004FEA3C0C04F1010478
:1088DC004FEA445212F5800F80F09A80BCF1004FA1
:1088EC0008BF5FEA500C50F1000041EB045141EA23
:1088FC00050130BD5FEA4C0C404141EB010111F424
:10890C00801FA4F10104E9D191F0000F04BF0146CE
:10891C000020B1FA81F308BF2033A3F10B03B3F1AC
:10892C0020020CDA0C3208DD02F1140CC2F10C023C
:10893C0001FA0CF021FA02F10CE002F11402D8BF9A
:10894C00C2F1200C01FA02F120FA0CFCDCBF41EA66
:10895C000C019040E41AA2BF01EB0451294330BD35
:10896C006FEA04041F3C1CDA0C340EDC04F1140412
:10897C00C4F1200220FA04F001FA02F340EA0300E9
:10898C0021FA04F345EA030130BDC4F10C04C4F12F
:10899C00200220FA02F001FA04F340EA030029460F
:1089AC0030BD21FA04F0294630BD94F0000F83F459
:1089BC00801306BF81F480110134013D4EE77FEA3C
:1089CC00645C18BF7FEA655C29D094EA050F08BF88
:1089DC0090EA020F05D054EA000C04BF1946104669
:1089EC0030BD91EA030F1EBF0021002030BD5FEAAD
:1089FC00545C05D14000494128BF41F0004130BDD5
:108A0C0014F580043CBF01F5801130BD01F0004528
:108A1C0045F0FE4141F470014FF0000030BD7FEA9B
:108A2C00645C1ABF194610467FEA655C1CBF0B4696
:108A3C00024650EA013406BF52EA033591EA030FAD
:108A4C0041F4002130BD00BF90F0000F04BF0021A5
:108A5C00704730B54FF4806404F132044FF00005D8
:108A6C004FF0000150E700BF90F0000F04BF002151
:108A7C00704730B54FF4806404F1320410F00045B7
:108A8C0048BF40424FF000013EE700BF42004FEAB2
:108A9C00E2014FEA31014FEA02701FBF12F07F432F
:108AAC0093F07F4F81F06051704792F0000F14BF2C
:108ABC0093F07F4F704730B54FF4607401F0004570
:108ACC0021F0004120E700BF50EA010208BF7047C7
:108ADC0030B54FF000050AE050EA010208BF7047BC
:108AEC0030B511F0004502D5404261EB41014FF425
:108AFC00806404F132045FEA915C3FF4DCAE4FF029
:108B0C0003025FEADC0C18BF03325FEADC0C18BF0F
:108B1C00033202EBDC02C2F1200300FA03FC20FA60
:108B2C0002F001FA03FE40EA0E0021FA02F11444AD
:108B3C00C1E600BF10B5054C13462CB10A460146E0
:108B4C000220AFF3008010BD204610BD00000000D5
:108B5C0010B501390244904207D010F8013B11F8CE
:108B6C00014FA342F7D0181B10BD002010BD10B54B
:108B7C00431E0A44914204D011F8014B03F8014FF3
:108B8C00F8E710BD884210B501EB020301D8421E74
:108B9C000BE09842FBD28118D21AD34204D013F8BE
:108BAC00014D01F8014DF8E710BD994204D011F8C0
:108BBC00014B02F8014FF8E710BD02440346934203
:108BCC0002D003F8011BFAE77047000038B5124BCE
:108BDC001C68A36B0546D3B91820FCF7DDF843F2EB
:108BEC000E33A06303804AF6CD33438041F2342325
:108BFC0083804EF26D63C3804DF6EC6303810523D5
:108C0C0043810B23838101220023C0E90423A36B3E
:108C1C0000221D615A6138BDF4E20320C9B203463B
:108C2C0010F8012B1AB19142F9D11846704700295E
:108C3C000CBF18460020704710B50446FFF7EEFF36
:108C4C0018B9204600F027F8204410BD10F8012B6D
:108C5C0011F8013B012A28BF9A42F7D0D01A70476D
:108C6C00024B0146186800F003B800BFF4E2032081
:108C7C0070B5064608460C4600F00DF8451C294612
:108C8C003046FCF7B9F8064618B12A462146FFF7DC
:108C9C006EFF304670BD034613F8012B002AFBD142
:108CAC00181A0138704730B582B1451E013915F8D4
:108CBC00013F11F8014FA34206D1EC431444E042AA
:108CCC0001D0002BF3D11C46181B30BD104630BD13
:108CDC0010B5034601448B4204D01A785C1C0AB1CF
:108CEC002346F8E7181A10BD38B503460D4641B1B6
:108CFC00002429461846FFF791FF30B1431C044667
:108D0C00F7E7BDE83840FFF789BF204638BD0000C3
:108D1C002DE9F04780464048D0F800900F463D467C
:108D2C0015F8014B09EB0400407800F0080000F046
:108D3C00FF0608B12F46F2E72D2C03D1BD1C7C7821
:108D4C00012603E02B2C04BF7C78BD1C13B1102B27
:108D5C000AD15BE0302C57D1287800F0DF0058287E
:108D6C004DD16C7810230235002E14BF4FF0004CFF
:108D7C006FF0004C0027BCFBF3FA384603FB1ACC0F
:108D8C0009EB040E9EF801E01EF0040F01D0303CFC
:108D9C000BE01EF0030E1BD0BEF1010F0CBF4FF009
:108DAC00370E4FF0570ECEEB0404A34210DDB7F193
:108DBC00FF3F0AD0504506D801D1644503DC03FBC4
:108DCC000040012701E04FF0FF3715F8014BD7E7C2
:108DDC007B1C0CD1002E4FF0220314BF4FF000402F
:108DEC006FF00040C8F800302AB9BDE8F08706B132
:108DFC00404272B107B1691E1160BDE8F0873024A2
:108E0C00002BB1D10823AFE70A23ADE7302CA3D058
:108E1C00AAE7BDE8F08700BF90E2032013460A469C
:108E2C00014602480068FFF773BF00BFF4E203205D
:108E3C001D400D0059400D0085400D0089400D006E
:108E4C000000000000000000000000000000000016
:108E5C0000000000A5400D00C9400D0000000000FE
:108E6C0000000000E5400D0019410D00896E0D0059
:108E7C00CB400D00536F6C656E6F69642075706428
:108E8C00617465642076696120626C7565746F6FBE
:108E9C00746820746F202575005261696E73746557
:108EAC00616D20416E616C6F670052656164205288
:108EBC0061696E737465616D20416E616C6F673AA8
:108ECC0020256420726177206F75747075742C2066
:108EDC006E6F7420646567726565732063656C736F
:108EEC006975730052656164206C69717569643AC7
:108EFC00202575006C697175696400526561642088
:108F0C005049523A2025750068756D616E44657440
:108F1C006563746F72005261696E20737465616D64
:108F2C003A2025750050726576696F757320487507
:108F3C006D616E206465746563746F722073746107
:108F4C0074653A2025750048756D616E20646574F2
:108F5C006563746F723A202575007261696E737463
:108F6C0065616D006C69676874005374617274207C
:108F7C006164766572746973696E670070697200FA
:108F8C006C6564566F6C74616765003937303137C6
:108F9C003637342D393631352D346662612D3937FB
:108FAC0031322D363832396632303435383336007A
:108FBC0062343832643535312D633361652D346458
:108FCC0064652D623132352D636532343464373843
:108FDC00393662300038386261326635642D31655D
:108FEC0039382D343961662D383639372D643035A2
:108FFC003136646630336265390062633766313806
:10900C0064392D326334332D343038652D6265323A
:10901C00352D3632663430363435393837630039CD
:10902C00373732386164392D613939382D3436325D
:10903C00392D623835352D656532363538636130FA
:10904C00316637000000000000000000734E0D0078
:10905C00694E0D005F4E0D00554E0D00494E0D0032
:10906C003D4E0D00314E0D00294E0D001F4E0D00D2
:10907C00154E0D00E17E0D00000000000000000008
:10908C00914E0D00934E0D000000000000000000FA
:10909C002F500D0035500D003D5D0D005F500D0043
:1090AC0031500D00000000000000000029500D00A0
:1090BC0043500D00495E0D0063500D002B500D0008
:1090CC00000000000000000023500D0051500D0066
:1090DC00FB570D0067500D0025500D007BE32774E6
:1090EC007BF815ACDD49A913000072F5776972693C
:1090FC006E672E626C6500537461727420646973C0
:10910C00636F766572696E672073657276696365E5
:10911C00732E00537461727420646973636F766587
:10912C0072696E67206368617261637465726973DA
:10913C00746963732E00506565722064657669638B
:10914C0065206973206D697373696E6721004661D0
:10915C00696C656420746F20617070656E6420703A
:10916C006565722043656E7472616C206465766906
:10917C0063652E00436F6E6E65637465642062795F
:10918C002043656E7472616C206465766963652E2C
:10919C0000446973636F6E6E6563746564206279F5
:1091AC002072656D6F7465206465766963652E0049
:1091BC0043616E6E6F7420616464206E65772070FD
:1091CC00656572206465766963652E004E6577204F
:1091DC007065726970686572616C20697320636F69
:1091EC006E6E65637465642E004661696C656420FF
:1091FC00746F20617070656E6420646973636F7640
:10920C006572656420636861726163746572697309
:10921C007469632E004661696C656420746F20610B
:10922C007070656E6420646973636F7665726564D3
:10923C0020736572766963652E004661696C65649E
:10924C0020746F20617070656E64206C6F63616C4C
:10925C002063686172616374657269737469632EEB
:10926C00004475706C696361746564206368617235
:10927C00616374657269737469632063616E6E6F88
:10928C00742062652061646465642E00FB349B5F0E
:10929C0080000080001000000000000000000000B2
:1092AC000000000065620D008B620D003F620D0036
:1092BC00EF7F0D000000000000000000E1660D00D3
:1092CC00F5660D003D700D0047620D00626175641E
:1092DC000053657269616C0053657269616C310091
:1092EC007479706500706172616D00636D64006803
:1092FC006E64007374726D0066696C74006C766CCD
:10930C000061646448616E646C65720072656D6FB7
:10931C00766548616E646C657200656E756D48614A
:10932C006E646C657273004A534F4E537472656170
:10933C006D4C6F6748616E646C6572006170700093
:10934C00253031307520005D20002564002C200074
:10935C0028293A2000205B00636F6465203D2000C3
:10936C0025690064657461696C73203D20000D0AE9
:10937C00006C6E00666E00636F64650064657461FA
:10938C00696C006E6F6E6500747261636500696E66
:10939C00666F007761726E006572726F7200706139
:1093AC006E696300616C6C0000000000000000003E
:1093BC00B5660D00CD660D00896E0D00CB400D001D
:1093CC00000000000000000063620D0099620D00B7
:1093DC00B16D0D0049620D0000000000000000009E
:1093EC0061620D00A7620D00F9650D00B5620D00FC
:1093FC005A00252B3033643A253032750025592D0F
:10940C00256D2D25645425483A254D3A2553257A4A
:10941C000061736374696D6500000000000000005A
:10942C000000000039730D003F730D0083730D00B5
:10943C004D730D003B730D00000000000000000098
:10944C00D1780D00C1780D00C3780D00000000002C
:10945C0000000000A9790D00F9790D00077A0D00C4
:10946C0021610D00E5790D00AB790D00C1790D007E
:10947C00F3790D00D7790D00A5790D0000000000DF
:10948C0000000000BD7A0D000D7B0D001B7B0D0054
:10949C0021610D00D17A0D00F37A0D00DF7A0D00F9
:1094AC00077B0D00BF7A0D00C37A0D000000000091
:1094BC0000000000FD7B0D00477C0D001F7C0D00A3
:1094CC00FF7B0D00277C0D002F7C0D00377C0D00E1
:1094DC003F7C0D000000000000000000DF7C0D0050
:1094EC00D57C0D00CB7C0D00C17C0D00B57C0D0036
:1094FC00A97C0D009D7C0D00957C0D008B7C0D00D6
:10950C00817C0D00E17E0D000000000000000000D9
:10951C005B7E0D00517E0D00477E0D00FD7D0D0024
:10952C003B7E0D002F7E0D00237E0D001B7E0D005B
:10953C00117E0D00077E0D00E17E0D000000000085
:10954C0000000000797E0D00837E0D008D7E0D00E5
:10955C00977E0D00A17E0D00AD7E0D00B97E0D0035
:10956C00C57E0D00CD7E0D00D77E0D00E17E0D0079
:10957C00302E300066616C73650074727565002561
:10958C002E2A6C66002567006E756C6C0075253094
:10959C0034780000002020202020202020202828A3
:1095AC002828282020202020202020202020202097
:1095BC0020202020208810101010101010101010D7
:1095CC001010101010040404040404040404041007
:1095DC001010101010104141414141410101010195
:1095EC00010101010101010101010101010101015F
:1095FC00101010101010424242424242020202026B
:10960C00020202020202020202020202020202022E
:10961C0010101010200000000000000000000000DE
:10962C00000000000000000000000000000000002E
:10963C00000000000000000000000000000000001E
:10964C00000000000000000000000000000000000E
:10965C0000000000000000000000000000000000FE
:10966C0000000000000000000000000000000000EE
:10967C0000000000000000000000000000000000DE
:10968C0000000000000000000000000000000000CE
:10969C0000000000000000000000000000000000BE
:1096AC0000000000000000000000000000000000AE
:1096BC00000000000000000000000000000000009E
:1096CC00000000000000000000000000000000008E
:1096DC00000000000000000000000000000000007E
:1096EC00000000000000000000000000000000006E
:1096FC0000000000000000004300000049460D007F
:10970C0009480D007D4E0D00C54E0D00F9600D0091
:10971C00796E0D00B5710D000D720D00AD7D0D0053
:10972C00657E0D00AD7F0D0041850D00C5850D00DA
:10973C0089860D004D870D00000000000000000020
:04974C000000000019
:049750000000000015
:10975400E18F0D00BC8F0D002B900D0006900D00C5
:10976400978F0D00EC930D00D4930D001D940D0004
:10977400A0950D0000000000A4960D00C4960D00F5
:10978400E4960D000000000000000000000000004E
:109794000000000004970D0000000000000000001D
:1097A40000000000000000000000000000000000B5
:1097B40000000000000000000000000000000000A5
:1097C4000000000000000000000000000000000095
:0897D4000000000094E20320F4
:1097DC00FFFFFFFF00000102030405060708090A4A
:1097EC000B0C0D0E0F101112131415161718191A45
:0897FC001B1C1D1E1F2028008C
:04980400785634124C
:04000003D000401CCD
:00000001FF
