:02000002D0002C
:1040000000400D00409D0D00000006000C00050161
:084010000401DE0500000000C0
:0440180054930D00B0
:1040200009480A49884208B505D0094A824202D0A7
:10403000121A05F02EF80748074A0021121A05F057
:104040004EF8014808BD00BF80E20320949C0D009B
:1040500004E3032008E30320F4E7032070B503F032
:10406000ABF9074C074BE41AA40800251E46A542ED
:1040700004D056F8253098470135F8E770BD00BFE9
:10408000889C0D004C9C0D0000F018BA08B500F09B
:1040900015F9BDE8084003F051B900F0B3BE00F0D7
:1040A000B9BE00F0B7BE000008B5034A00210C20DD
:1040B00000F0BCFDFEE700BFD9480D000078B0FA63
:1040C00080F0400970470123037070477047006A11
:1040D0000368DB68184710B50446006808B100F0B3
:1040E00099FE204610BD00000A4B10B5044603603F
:1040F00002F016FA214602F003FC03F025FD03F05E
:1041000017FD2046044B40F8043B02F0FFFA20461E
:1041100010BD00BF88930D0070930D0010B50446CC
:10412000FFF7E2FF2046242104F046FA204610BDA6
:104130000EB400B58CB00DAA202352F8041B0392D4
:104140008DE8060004930168002304AA1E2005934D
:1041500000F07CFD0CB05DF804EB03B0704738B59F
:10416000046805467CB16368013B63605BB9236802
:1041700020469B689847A368013BA3601BB923684E
:104180002046DB689847284638BD00000000000044
:1041900010B50F2086B004F08AF91949044682B29E
:1041A00003A800F047FE174B17491B788DF8003025
:1041B00003AA3C2304A803F06DFA05A8FFF7CFFF7C
:1041C00060B204F0A9FC0AA3D3E9002304F00AFDBD
:1041D00009A3D3E9002304F051FB04F015FF44B216
:1041E00022460A490A48FFF7A3FF204606B010BD41
:1041F0007B14AE47E17AB43F00000000001071402C
:10420000D7940D000CE30320C2930D00D3930D004F
:10421000E8E3032010B50E2086B004F048F984B21C
:1042200022460C490C48FFF783FF22460B4903A89E
:1042300000F000FE0A4B0B491B788DF8003003AAF2
:104240003C2304A803F026FA05A8FFF788FF2046C0
:1042500006B010BDFD930D00E8E30320D7940D00D8
:104260000CE303200D940D0010B5032086B004F07C
:104270000BF9C4B222460C490C48FFF759FF2246FD
:104280000B4903A800F0D6FD0A4B0B491B788DF8AB
:10429000003003AA3C2304A803F0FCF905A8FFF7AB
:1042A0005EFF204606B010BD14940D00E8E3032025
:1042B000D7940D000CE3032021940D0030B58FB08E
:1042C00001F0E8F901F07FFA002800F0928000F098
:1042D0000BFB4D4A1368C31AB3F57A7F04462CD3FF
:1042E0001060FFF755FF0EA9012201F8310D0023E0
:1042F000464801F01DF99DF807308DF8103002F0A6
:10430000BDFFC117CDE9020102AA92E8030005AB87
:1043100083E803002422002304A93D4801F008F9A2
:104320009DF90750284604F0F7FB3A4B2A46C3E9AB
:10433000000139493948FFF7FBFE394A1368E31A8F
:10434000B3F57A7F21D31460FFF764FF0546ADF81B
:10435000100002F093FFC117CDE9020102AA92E812
:10436000030006AB83E803002822002304A92848A1
:1043700001F0DEF8284604F0BFFB2A4B2A46C3E9C9
:10438000000129492548FFF7D3FE284A1368E31A9C
:10439000B3F5FA6F2BD31460FFF766FF244D254960
:1043A0002A7804461D48FFF7C3FE2B78A34219D094
:1043B0008DF8104002F062FFC117CDE9020102AA98
:1043C00092E8030005AB83E803002422002304A93C
:1043D000194801F0ADF82C70204604F08DFB174B06
:1043E000C3E90001224616490C48FFF7A1FE6420EC
:1043F00005E00A481349FFF79BFE4FF4FA7002F0FC
:104400004FFF0FB030BD00BF88E3032038E3032027
:1044100078E3032070E303202F940D00E8E30320EA
:104420002CE3032020E3032002940D0028E3032063
:1044300048E303203E940D0030E3032040E30320D3
:1044400060940D0073940D0070B5046843681426E1
:10445000054606FB0346A64204D0204600F08CFD2C
:104460001434F8E7286800F0D5FC284670BDF0B594
:104470000E4691B000210446016041600BAD194623
:1044800006A8174600F082FF1699284600F07EFF26
:1044900010AA3B7802F82C3D189B0293179B0193BE
:1044A0002046009506AB314601F0A2FC204611B033
:1044B000F0BD0023092200F075BC000010B592B0D9
:1044C00012A8012200F83B2D41F6C67100F066FBF0
:1044D00031493248FFF7EDFF31493248FFF7E9FF34
:1044E00031493248FFF7E5FF31493248FFF7E1FF34
:1044F00001F0D0F801F014F901F0CCF82E4A014691
:1045000009A801F029FD09A801F083F901F0C2F81A
:104510002A4A014609A801F01FFD09A801F079F90E
:1045200001F0B8F8264A014609A801F015FD09A8CE
:1045300001F06FF909A800F093FF224B04A8196855
:1045400000F024FF04A800F06DFE044604A844B95E
:1045500000F086FE12AA022322F83A0D03210094ED
:1045600006E000F082FE002300930246102307219C
:1045700009A800F02EFF14491448FFF7D9FD01F0F7
:1045800089F8002209A901F001F90021032003F0B4
:104590006AFF12B010BD00BF70E30320DA940D0073
:1045A00080E30320E4940D0020E303200D940D002C
:1045B00040E3032021940D0038E3032078E3032037
:1045C00030E3032088E20320EA940D00E8E30320AF
:1045D0008842F8B506460C46154616D9904215D2C3
:1045E000A2F114056C1AA1F114070444AF421CD0C7
:1045F0002CB12946204600F0AFFC2B7C23742846C2
:1046000000F0BAFC143D143CF0E70ED0AC420CD0E4
:104610002EB12146304600F09FFC237C33742046A7
:1046200000F0AAFC14341436F0E7F8BD2DE9F0418F
:1046300000230360436083604E689E4204460F4639
:1046400024DD4FF0140808FB06F000F0DBFB054604
:10465000E0B194E8060008FB0212FFF7B9FF2068FA
:1046600000F0D8FB2560A6603E687B6808FB036805
:10467000464509D02DB13146284600F0E6FC337C92
:104680002B7414361435F3E77B6863602046BDE86D
:10469000F08100002DE9F0434B4B4C4D4C4EDFF8C0
:1046A0006C9191B000241C7000F0CEF84FF6FF73AF
:1046B0006B812C60AC80AC712C81012000F0E6FA9B
:1046C00032464449284603F069FF04940594069451
:1046D00003F03AFA404D804604A907A8FFF7A6FF69
:1046E0002F4607A90AA8FFF7A1FF3C4B47F8043B58
:1046F0000AA90DA8FFF79AFF0DAA0121384602F07A
:1047000066FA0DA8FFF7A0FE0AA8FFF79DFE344B3E
:104710002B60C5F8208007A8FFF796FE314B2B6071
:1047200003F012FA4FF4165103F0FEF901F0F8FE0F
:10473000294602F0DFF904A8FFF786FE2A4F2B492D
:104740003246284603F02AFF029401943B68009306
:10475000274B284D1B6828494FF010080DAA4846E2
:104760008DF83480FFF783FE32462946484603F031
:1047700015FF029401943B680093DFF894901F4B5F
:104780001F491B688DF834800DAA4846FFF76FFE5D
:1047900032462946484603F001FF029401943B68E3
:1047A00000938DF83480174BDFF868801B6816493A
:1047B0000DAA4046FFF75BFE32462946404603F00D
:1047C000EDFE11B0BDE8F0830CE3032010E30320FD
:1047D00008E30320D7400D004CE3032070930D0045
:1047E00000990D0088930D0088E20320E9400D0038
:1047F0008CE2032013580D00DA940D0080E20320B0
:104800000D940D0084E20320FC940D0038E3032096
:1048100078E3032030E3032008B500F015F8014BDE
:10482000186008BD8CE3032008B5024B1B689B6829
:10483000019308BD6802030008B5024B1B68DB68E2
:10484000019308BD6802030008B5024B1B681B6892
:10485000019308BD2C02030008B5024B1B685B687E
:10486000019308BD2C02030008B5024B1B689B682E
:10487000019308BD2C02030008B5024B1B68DB68DE
:10488000019308BD2C02030008B5024B1B685B694D
:10489000019308BD2C02030008B5024B1B681B6B7B
:1048A000019308BD2C02030008B5024B1B68DB69AD
:1048B000019308BD3002030008B5024B1B681B6A58
:1048C000019308BD3002030008B5024B1B685B680A
:1048D000019308BD1802030008B5024B1B68DB6892
:1048E000019308BD1802030008B5024B1B685B6901
:1048F000019308BD1802030008B5024B1B68DB6971
:10490000019308BD1802030008B5024B1B689B6D9C
:10491000019308BD1802030008B5024B1B689B6891
:10492000019308BD7802030008B5024B1B681B6D9C
:10493000019308BD7802030008B5024B1B689B6D0C
:10494000019308BD7802030008B5024B1B681B6E7B
:10495000019308BD7802030008B5034B1B68D3F828
:104960009830019308BD00007802030008B5034B9E
:104970001B68D3F8A830019308BD0000780203003B
:1049800008B5034B1B68D3F8B430019308BD000091
:104990007802030008B5034B1B68D3F8D8300193A5
:1049A00008BD00007802030008B5034B1B68D3F86C
:1049B000DC30019308BD00007802030008B5034B0A
:1049C0001B68D3F8EC30019308BD000078020300A7
:1049D00008B5034B1B68D3F8F030019308BD000005
:1049E0007802030008B5034B1B68D3F8003101932C
:1049F00008BD00007802030008B5034B1B68D3F81C
:104A00000431019308BD00007802030008B5024B91
:104A10001B689B68019308BD4802030008B5024B60
:104A20001B681B69019308BD4802030008B5024BCF
:104A30001B685B69019308BD4802030008B5024B7F
:104A40001B685B6C019308BD4802030008B5024B6C
:104A50001B689B6C019308BD4802030008B5024B1C
:104A60001B68DB6C019308BD4802030008B5024BCC
:104A70001B685B6D019308BD4802030008B5024B3B
:104A80001B685B69019308BD6402030008B5024B13
:104A90001B681B68019308BD3C02030008B5024B6C
:104AA0001B689B68019308BD3C02030008B5024BDC
:104AB0001B68DB68019308BD3C02030008B5024B8C
:104AC0001B681B69019308BD3C02030008B5024B3B
:104AD0001B685B69019308BD3C02030008B5024BEB
:104AE0001B689B69019308BD3C02030008B5024B9B
:104AF0001B68DB69019308BD3C02030008B5024B4B
:104B00001B681B6A019308BD3C02030008B5024BF9
:104B10001B689B6A019308BD3C02030008B5024B69
:104B20001B68DB6A019308BD3C02030008B5024B19
:104B30001B681B6A019308BD2802030008B5024BDD
:104B40001B685B6A019308BD2802030008B5024B8D
:104B50001B689B6A019308BD2802030008B5024B3D
:104B60001B68DB6A019308BD2802030008B5024BED
:104B70001B681B6B019308BD2802030008B5024B9C
:104B80001B685B6B019308BD2802030008B5024B4C
:104B90001B681B6C019308BD2802030008B5024B7B
:104BA0001B685B68019308BD5802030008B5024BFF
:104BB0001B681B68019308BD4C02030008B5024B3B
:104BC0001B685B68019308BD4C02030008B5024BEB
:104BD0001B689B68019308BD4C02030008B5024B9B
:104BE0001B681B69019308BD4C02030008B5024B0A
:104BF0001B685B69019308BD4C02030008B5024BBA
:104C00001B689B69019308BD4C02030008B5024B69
:104C10001B68DB69019308BD4C02030008B5024B19
:104C20001B681B6A019308BD4C02030008B5024BC8
:104C30001B685B6B019308BD6002030008B5024B63
:104C40001B681B6D019308BD6002030008B5024B91
:104C50001B685B6D019308BD6002030008B5024B41
:104C60001B68DB6E019308BD6002030008B5024BB0
:104C70001B681B6F019308BD6002030008B5024B5F
:104C80001B681B68019308BD2002030008B5024B96
:104C90001B685B68019308BD2002030008B5024B46
:104CA0001B685B69019308BD2002030008B5024B35
:104CB0001B68DB6C019308BD2002030008B5024BA2
:104CC0001B685B6D019308BD2002030008B5024B11
:104CD0001B689B6D019308BD2002030008B5034BC0
:104CE0001B68D3F88830019308BD00002002030040
:104CF00008B5034B1B68D3F89430019308BD00003E
:104D00002002030008B5024B1B685B68019308BDD5
:104D10004002030008B5024B1B689B68019308BD65
:104D20004002030008B5024B1B68DB68019308BD15
:104D30004002030008B5024B1B681B69019308BDC4
:104D40004002030008B5024B1B685B69019308BD74
:104D50004002030008B5024B1B689B69019308BD24
:104D60004002030008B5024B1B68DB69019308BDD4
:104D70004002030008B5024B1B681B6A019308BD83
:104D80004002030008B5024B1B681B6B019308BD72
:104D90004002030008B5024B1B685B6B019308BD22
:104DA0004002030008B5024B1B681B68019308BD55
:104DB0004402030008B5024B1B689B68019308BDC1
:104DC0004402030008B5024B1B685B69019308BDF0
:104DD0004402030008B5024B1B681B6A019308BD1F
:104DE0004402030008B5024B1B681B6B019308BD0E
:104DF0004402030008B5024B1B68DB6B019308BD3E
:104E00004402030008B5024B1B681B68019308BDF0
:104E10001C02030008B5024B1B685B68019308BDC8
:104E20001C02030008B5024B1B689B68019308BD78
:104E30001C02030008B5024B1B68DB68019308BD28
:104E40001C02030008B5024B1B685B6A019308BD96
:104E50001C02030008B5024B1B68DB6A019308BD06
:104E60001C02030008B5024B1B681B6B019308BDB5
:104E70001C020300002211464068FFF77BBF00229E
:104E800011464068FFF786BF00224068FFF77ABFEF
:104E9000002281F001014068FFF764BF00231A4639
:104EA00019464068FFF756BF00231A461946406866
:104EB000FFF748BF002211464068FFF73BBF0022C2
:104EC00011464068FFF726BF002202214068FFF725
:104ED00029BF00231A464068FFF714BF024B032284
:104EE0005A60024A1A60704790E303209C950D00B7
:104EF000704710B50C21044603F05EFB204610BD40
:104F000010B5054B0360044601710846FFF7CCFC61
:104F10000023A360204610BDD0950D000079FFF757
:104F2000CBBC000010B5094C00204FF6FF73206089
:104F3000A080A07120816381FFF7A8FE2046044A6B
:104F40000449BDE8104003F029BB00BF98E30320EB
:104F500008E30320D7400D00002303604360836013
:104F6000037310B50C6804604C6844608C688460FE
:104F70000B604B608B6010BD10B504460068FFF7F6
:104F800049FF204610BD10B50446006808B1FFF780
:104F900041FF00232360A360636010BD38B5044661
:104FA0000D4600680131FFF73DFF10B184E8210094
:104FB000012038BD10B50368044613B143688B4225
:104FC00007D22046FFF7EAFF20B1A3680BB9226899
:104FD0001370012010BD70B50E46114604461546EB
:104FE000FFF7E8FF18B92046FFF7CDFF09E02A4692
:104FF0003146A560206804F04CF82268A3680021BF
:10500000D154204670BD38B5002304460360436088
:10501000836003730D4639B1084604F0CEF8294683
:1050200002462046FFF7D7FF204638BD884210B51C
:105030000B46044607D0096819B19A68FFF7CBFF01
:1050400001E0FFF7A0FF204610BD10B50023044685
:105050000360436083600373FFF7E8FF204610BDE1
:1050600038B505460C4641B1084604F0A6F821467D
:1050700002462846FFF7AFFF01E0FFF784FF28460E
:1050800038BD704700207047704700207047704758
:105090000020704710B51421044603F08DFA204615
:1050A00010BD10B51421044603F086FA204610BD49
:1050B00010B51421044603F07FFA204610BDFEF718
:1050C000EEBFFEF7ECBFFEF7EABF10B5044600687E
:1050D00008B1FFF7BBFC204610BD000008B50A2050
:1050E000024A0021FFF7A2FD08BD00BFD9480D000C
:1050F00010B5036804469B689847A368013BA3600A
:105100002BB923682046DB68BDE81040184710BD66
:10511000A0F13003DAB2092A01D818467047A0F18D
:105120006103052B01D857387047A0F14103052BC7
:1051300094BF37384FF0FF307047000010B50023A0
:105140000370044B04461868FFF788FC01232370A2
:10515000204610BDB0E3032010B5037804461BB110
:10516000024B1868FFF782FC204610BDB0E3032015
:1051700008B582798B799A4206D1062203F07AFF2C
:10518000B0FA80F0400908BD002008BD10B5012329
:105190000361054B024603F1100153F8044B42F83A
:1051A000044B8B42F9D110BDDC970D0010B50B46B6
:1051B0000446B9B1012A09D1034601F1100251F8A0
:1051C000040B43F8040B9142F9D108E0411E0F2271
:1051D000985C01F8010F013AD2B2FF2AF8D10123FD
:1051E000236102E0102203F07AFF204610BD38B59B
:1051F000054614461A46FFF7D9FF2C73240A6C7330
:10520000284638BD08B502690AB9808903E0102232
:10521000034903F02FFF003018BF012008BD00BF75
:10522000DC970D000069704738B50C461422002148
:10523000054603F054FF23692BB9627B237B43EAC5
:1052400002232B800AE001232B7404F110022B4669
:1052500054F8041B43F8041B9442F9D1284638BD86
:10526000427B007B40EA02207047704710B50B6913
:10527000036101F11002034651F8044B43F8044B5B
:105280009142F9D110BD10B586B00446012201A8A3
:10529000FFF78CFF01A92046FFF7E8FF06B010BD1D
:1052A00008B502690B699A4206D1102203F0E2FEAA
:1052B000B0FA80F0400908BD002008BD0123F7B511
:1052C0000361314B0E460546024603F1100153F8C7
:1052D000040B42F8040B8B42F9D1002E51D024214B
:1052E000304603F087FF042810D000271024242123
:1052F000304603F07FFFB84201D944BB41E02C4463
:105300000023A5423DD004F8013DFAE73078FFF7CD
:10531000FFFE041E18DB7078FFF7FAFE002813DB8F
:1053200040EA04108DF80400B078FFF7F1FE041E87
:105330000ADBF078FFF7ECFE0028A1BF40EA04107A
:105340009DF8043028736B7300232B6119E0F05D26
:10535000FFF7DEFE030612D4013C0001285524218C
:10536000304603F047FF0137874208D2F05DFFF770
:10537000CFFE40B20028A2BF2B5D1843285501374D
:10538000B5E703B0F0BD00BFDC970D0038B50446AB
:105390000D46FFF7FBFE20462946FFF78FFF20460C
:1053A00038BDF0B58BB10024E51C8D420FD8661CCA
:1053B000055D875D974205D12E44B14207D31C603D
:1053C000681CF0BD01352C44EEE71846F0BD002006
:1053D000F0BD2DE9F74304460E461D461746002A48
:1053E0003AD00A4601AB016AFFF7DBFF9DF828308F
:1053F000226A03BBF8B1961C2E44361A1F2E2BD8F6
:10540000DDF8048008F10209C8EB0202121A00EB71
:10541000080105EB090092B22144204403F044FE48
:105420006B1C04F808302A46394604EB090003F0E7
:1054300030FE266210E0901C2B181F2B0CD86B1C22
:10544000A354224420623946567020442A4603F071
:1054500020FE226A2A442262206A03B0BDE8F0835B
:105460001FB50446034600F11F02002003F8010B9C
:1054700093424FF00001F9D104AA062302F8013D3E
:1054800001232162009120461946FFF7A2FF204622
:1054900004B010BD73B50A460E4601AB016A04465E
:1054A000FFF77FFF054678B10198226A2918121A82
:1054B000521B2144204403F0ECFD236A5D1B25624E
:1054C00031462046FFF7E6FF02B070BD38B5002533
:1054D0004FF6FF73044643800E222946057005717E
:1054E000063003F0FCFD04F11400FFF74FFE04F159
:1054F0002800FFF74BFE044904F13C00FFF783FD51
:10550000E5642565204638BDC0980D0010B5836957
:10551000C26903EBC2029342184606D0046824888D
:105520008C4203F10803F6D110BD002010BD00002D
:105530002DE9F34180461F460E4669B362B3F42A53
:10554000056828BFF42214462A78A2B12B7998075F
:1055500007D500232246A889FFF712FA002802DAAD
:1055600043E06FF07700D8F800502B79DA0618D5B1
:10557000012F23D115E068884FF6FF7398420DD0B4
:105580002B79590723D5012F21D0A98900922346D1
:105590003246FFF709FA28E0154826E06FF0D100FF
:1055A00023E09A0621D5022F1FD0A8890023224686
:1055B000314602B0BDE8F041FFF71EBAA8890023CA
:1055C0002246314602B0BDE8F041FFF70BBA1B0797
:1055D00001D5022F02D16FF0770006E00023A989E0
:1055E000009332462346FFF7D5F902B0BDE8F081BB
:1055F000F2FEFFFF10B50A6852F8023F03605368DD
:10560000436010BD1FB502680B6812881B889A4260
:105610000C460CD101466846FFF7ECFF214602A874
:10562000FFF7E8FF02A96846FFF7A2FD00B90020D6
:1056300004B010BD10B504463420FEF72EFD01461F
:1056400068B10023036043608360C360036143610A
:105650008361C361036243628362C3620363216047
:1056600019B90A4A0A20FFF7E1FA0020FFF754F9B6
:1056700020B1064A00210A20FFF7D8FA002221684B
:105680000348FFF7A5F9204610BD00BFD9480D001B
:105690009D5A0D0010B50A4C2368DB070ED4204636
:1056A000FEF70CFD50B10748FFF7C4FF2046FEF798
:1056B0000AFD054A0549034802F070FF014810BD84
:1056C000A8E30320A4E3032008E3032087580D0088
:1056D00070B50368093B012B8AB004460E4619D801
:1056E000FFF7D8FFA1880068FFF710FF024658B9FE
:1056F00020230293084B0390009302AA0346074914
:105700003220FFF79BFA05E0F56C1DB1336DE168BF
:105710002069A8470AB070BD86960D003C960D0022
:1057200013B501A8FFF70AFD0020FFF7F5F80446BE
:1057300001A8FFF711FD04EAE47002B010BD0846AD
:1057400009B90A4601E0096A0022FFF7EDB810B571
:105750000C4611B90A46084606E001212046FFF72B
:1057600099FE216A00222046BDE81040FFF7E4B808
:1057700013B501A8FFF7E2FC0020FFF7E5F80446A7
:1057800001A8FFF7E9FC204602B010BD73B505463D
:105790000C4601A81646FFF7D1FC21462846FFF724
:1057A000CEFF002808DB31462846FFF7D0FF00284F
:1057B00002DB2846FFF7DCFF044601A8FFF7CCFC1C
:1057C000204602B070BD0368D8690028D4BF00200D
:1057D000012070470B68036013B15A6801325A60A8
:1057E000704710B551F8043B044640F8043BFFF7FE
:1057F000F1FF23680BB9FFF771FC204610BD10B50F
:1058000051F8043B044640F8043BFFF7E3FF204611
:1058100010BD10B504460430FEF7A1FC204610BDB3
:1058200070B504684368054604EBC306A64204D07D
:10583000201DFEF794FC0834F8E72868FFF7EAFA21
:10584000284670BD70B504684368054604EBC3067E
:10585000A64204D0201DFEF782FC0834F8E7286831
:10586000FFF7D8FA284670BD10B5046904F1180096
:10587000FFF7E8FF04F10C00FFF7D2FF2046BDE878
:105880001040FEF70CBCF8B504680746C4B1A56922
:10589000E36905EBC306AE4204D0281DFEF75FFCAA
:1058A0000835F8E7A069FFF7B5FA04F10C00FFF737
:1058B000C9FF2046FFF7B4FF3421204602F07CFEEA
:1058C0003846F8BD73B500250560456006462420BE
:1058D000FEF7E3FB044678B103464FF6FF7223F868
:1058E000022BC0F802505D608572C572C56005610B
:1058F00045618561C5610562002314200193FEF7AF
:10590000CCFB034628B1012242608260084A026053
:10591000046102A8726840F8042D73603460FEF7D9
:105920001EFC33680BB9FFF7D9FB304602B070BDDF
:1059300018960D0038B50C6803689C4205460CD0DB
:1059400014B1636801336360286828B14368013B80
:1059500043600BB9FFF7CCFB2C60284638BD88426A
:1059600070B515461AD9904219D2A1F10806511AFC
:105970000439151F44182B1F9E4225D0042C07D034
:1059800055F8043C44F8043C29462046FFF722FF22
:105990002846FEF7E4FB083D083CECE714D00C1D5C
:1059A000061D231F9D420FD0042E07D054F8043C3F
:1059B00046F8043C21463046FFF70CFF2046FEF730
:1059C000CEFB08340836ECE770BD2DE9F0410468E1
:1059D00043680546884604EBC307A74218D04146F2
:1059E0002046FFF70FFE064608B90834F5E78CB1EC
:1059F000201DFEF7B4FB2B686A6804F1080103EB75
:105A0000C2022046FFF7ABFF6B68013B6B6002E010
:105A1000002600E026463046BDE8F081F7B5044692
:105A200051F8043B4768009301A8FFF7D3FE66686E
:105A3000A3689E4214DB0136002E0BDDF000FFF759
:105A4000E1F9054618B394E8060001EBC202FFF73E
:105A500086FF00E000252068FFF7DCF92560A660DE
:105A60002668626806EBC70506EBC202294605F107
:105A70000800FFF774FF35B1009B46F8373001A9E5
:105A8000281DFFF7A7FE636801336360012501A8A5
:105A9000FEF765FB284603B0F0BD00002DE9F0419C
:105AA00004468EB003A80D46FFF748FB2368032B7E
:105AB00002D0042B42D087E004A8FFF703FF049B29
:105AC00022891A806268049952F8083FC1F80230AE
:105AD0005368C1F8063007A8049B069305A9FFF791
:105AE00079FE06A905F11800FFF798FF044607A8FC
:105AF000FEF735FB2023069374B9364B009306AAB4
:105B00002346354907943220FFF798F8049B214635
:105B10001888FEF721FF0DE0304A0092002306AA04
:105B20002D4907930120FFF789F86B6A13B1E96AE1
:105B300004A8984705A8FEF712FB45E021892846EE
:105B4000FFF7E4FC074600283ED00468A369E1693A
:105B50004FF6FF72228003EBC101994203D053F844
:105B6000080B4280F9E7E668236906EBC308B045F5
:105B700004D0301DFEF7F3FA0836F8E7002323615E
:105B8000A669E36906EBC308B04504D0301DFEF7F3
:105B9000E6FA0836F8E70023E361A372E372AB6A22
:105BA00013B1296B3846984720230D4A069300927B
:105BB000002309490793012006AAFFF73FF8394659
:105BC00005F11800FFF701FF03A8FFF7C5FA0EB0B3
:105BD000BDE8F0819E960D003C960D00C4960D0028
:105BE000E1960D008842F8B506460C46154614D9D4
:105BF000904213D2A2F108056C1AA1F108070444DF
:105C0000AF4218D01CB129462046FFF7F8FD281DE9
:105C1000FEF7A5FA083D083CF2E70CD0AC420AD0EA
:105C20001EB121463046FFF7EAFD201DFEF797FA28
:105C300008340836F2E7F8BD70B50E1E05460BDDD8
:105C4000F000FFF7DFF8044670B195E8060001EBBD
:105C5000C202FFF7C7FF00E000242868FFF7DAF868
:105C60002C60AE60012070BD70BD73B50446456800
:105C70006846FFF7C4FD6168A368994205DB0131FE
:105C80002046FFF7D9FF064698B12368626803EB08
:105C9000C50503EBC202294605F10800FFF7A2FF84
:105CA0001DB169462846FFF7AAFD636801336360AA
:105CB000012601A8FEF753FA304602B070BD8842B3
:105CC000F8B506460C46154614D9904213D2A2F1F7
:105CD00008056C1AA1F108070444AF4218D01CB1A2
:105CE00029462046FFF77DFD281DFEF738FA083DBE
:105CF000083CF2E70CD0AC420AD01EB12146304637
:105D0000FFF76FFD201DFEF72AFA08340836F2E788
:105D1000F8BD70B50E1E05460BDDF000FFF772F8FA
:105D2000044670B195E8060001EBC202FFF7C7FF19
:105D300000E000242868FFF76DF82C60AE600120B9
:105D400070BD70BD73B5044645686846FFF749FDF0
:105D50006168A368994205DB01312046FFF7D9FF4E
:105D6000064698B12368626803EBC50503EBC202DF
:105D7000294605F10800FFF7A2FF1DB16946284634
:105D8000FFF72FFD636801336360012601A8FEF76A
:105D9000E6F9304602B070BD10B50446406808B15F
:105DA000FEF77DF9204610BD07B503690C308DE87C
:105DB000090003F13C00FFF7DFF86846FFF7ECFF4E
:105DC00003B05DF804FB000038B50023044603600F
:105DD00014200D46FEF761F928B10123436083606A
:105DE000024B036005612060204638BDE0950D0040
:105DF0002DE9F04188B005461E46542000230F4689
:105E0000904604930593FEF748F9CDF818D0044660
:105E10000790C0B198F80080FFF758FB394604F1AD
:105E20003C0084F80480FFF71BF90F9BE3643146C4
:105E3000109B236504F11400FFF718FA0E9904F182
:105E40002800FFF713FA2146002601AB02AA03A897
:105E50000796FFF7B9FF039B059A039203A80593E2
:105E60000494FEF77CF906A8FFF796FF049B2968C7
:105E7000059A2B6008A86B6806916A6040F8043D9B
:105E800005960496FEF76BF905A8FEF768F92968F0
:105E900019B9034A0A20FEF7C9FE08B0BDE8F0812F
:105EA000D9480D0010B50446406808B1FEF7F7F870
:105EB000204610BD07B503690C308DE8090068461F
:105EC000FFF7F0FF03B05DF804FB000038B50023D6
:105ED0000446036014200D46FEF7DFF828B10123C5
:105EE00043608360024B036005612060204638BD3B
:105EF000FC950D00F0B5002687B0066046600446AC
:105F000018200F46FEF7C9F8CDF810D005460590C9
:105F100038B1FFF73BF939462846AE82EE82FFF7EB
:105F2000A5F900232946059302AA01AB03A8FFF7B0
:105F3000CDFF039B62682560636003A80392FEF7B0
:105F40000EF904A8FFF7AEFF23680BB9FFF7C6F8F8
:105F5000204607B0F0BD00002DE9F04F1746A1B074
:105F600080460AA80E46FFF7E9F83C682379002B23
:105F700000F0DE803368DD681B6905EBC303039323
:105F800004F1140A04F1280B039BAB4223D0D5F88B
:105F90000090504609F11401FFF782F9002800F043
:105FA000CC8009F128015846FFF77AF9002800F063
:105FB000C480236823F47F41D9F8003023F47F4361
:105FC000994240F0BA802023604A15930023009242
:105FD000169315AAA8E004F128094846FFF712F91C
:105FE00018B95B494846FFF74EF933681D685B688E
:105FF00005EBC30A5545494605D02868FFF750F917
:1060000058BB0835F6E70BA8FFF774FF494615A8FB
:10601000FFF70AF90B9A0023143215A90120FEF7A5
:10602000A5FC002878D135680BA90DA8FFF7E7FB80
:1060300028460DA9FFF719FE05460EA8FEF78FF8B2
:10604000002D69D03268556805F100531568013B91
:106050000CA805EBC305FEF782F804F114094846C5
:10606000FFF7D0F868B93B4B39491A88013292B230
:106070001A8015A80123FFF7BAF815A94846FFF7BB
:10608000F5F84FF02C0A5246002115A803F027F826
:106090000123494604A8ADF85430ADF856A0FFF7E7
:1060A000C3F804AB18AA0DF1200C1868596896467D
:1060B000AEE80300083363457246F6D11868CEF89F
:1060C000000023798DF858302B689B8AADF8743026
:1060D000E36B17930022204B1E93A11D15A81F945C
:1060E000FEF76CFC20BB01232370346839460C3466
:1060F0000DA8FFF776FB20460DA9FFF723FE044607
:106100000EA8FEF72CF89CB920230D93134B009397
:106110000E9423460DAA07E039464046FFF761FB7F
:106120000CA8FEF71CF80AE00D493220FEF786FDA8
:1061300039464046FFF755FB01E0083524E70AA839
:10614000FFF70AF8404621B0BDE8F08FB1970D0087
:106150002C960D00ACE30320D1560D008A970D005C
:106160003C960D0010B5064C002320462360FEF738
:1061700065FC2046034A0449BDE8104002F00EBA0F
:10618000B0E3032008E30320CB500D00F8B506462A
:106190000D468F180024BD420CD0336815F8011B42
:1061A0009B6830469847002801DB0444F3E7002C45
:1061B00008BF04462046F8BD70B505460C460846A3
:1061C00049B102F0FAFF2B68024621462846DB68F7
:1061D000BDE87040184770BD03689B68184738B524
:1061E0000D210546FFF7F8FF0A2104462846FFF770
:1061F000F3FF204438BD30B58BB00B4600218DF83D
:106200002410012A98BF0A220DF12304B3FBF2F5F2
:1062100005FB123303F0FF03092B94BF30333733F0
:10622000DBB2214604F801392B46002DEED1FFF7F1
:10623000C3FF0BB030BD0CB42DE9F04387B000AF05
:1062400007F13804054654F8049B3C600E4623468B
:106250004A461421381DFEF7F5FD132805D8391DCF
:106260002846FFF7A9FF044613E000F1080323F0D6
:106270000703E846ADEB030D411C23464A4668463A
:106280003C60FEF7DFFD69462846FFF795FF0446B0
:10629000C5461EB12846FFF7A2FF044420461C371E
:1062A000BD46BDE8F04302B0704780680368DB6814
:1062B0001847704719B10B6808465B681847704764
:1062C00019B10B6808465B681847704770477047FC
:1062D000704738B504460D4600682E2102F03EFF97
:1062E0002368C31A2B6023B1037803B101302368FC
:1062F0002060184638BD10B50C21044602F05CF948
:10630000204610BD10B50421044602F055F9204680
:1063100010BD10B50421044602F04EF9204610BD10
:1063200038B50C46054601F00FFC84420DD001F053
:1063300097FC844205D101F093FCBDE8384001F0A0
:1063400088BC21462846FFF7BBFF38BD08B502F0E0
:106350000FFFB0FA80F0400908BD38B50546084681
:106360000C4602F02AFF214602462846BDE8384086
:1063700001F0F5BF0068FEF771BB70B50446084632
:106380000D4602F01AFF2368024629462046DB68C4
:10639000BDE87040184713B502AB026803F8011D51
:1063A000D46819460122A04702B010BD2DE9F04F74
:1063B0004568076885B09146142255430193AB1098
:1063C000194D02925D438B463C460123002D0393F9
:1063D00023DD029B6E1003FB06F004EB00084A4627
:1063E000B8F804A02058D14528BF5246594602F0BB
:1063F000ECFE039B48B9D14503D1019A1370354691
:10640000E4E78CBF0120002000E0C00F0028F6D098
:10641000AE1B08F11404013EF1E7E41B0248A4108E
:10642000604305B0BDE8F08FCDCCCCCCF0B585B0E5
:1064300003690191067E13B309B304AF002347F843
:10644000043D00F10C041D46394601A8FFF741FF49
:106450000146A0B104AB039A03F8055D2046FFF79F
:10646000A5FF9DF80B3053B12368142404FB0034BE
:10647000083434F9023C002BA8BFDEB2E4E7304612
:1064800005B0F0BD10B5094C2368DB070BD42046DE
:10649000FDF714FE38B12046FDF715FE044A054904
:1064A000054802F07BF8044810BD00BFB4E30320A8
:1064B00008E30320CF620D0094E2032010B5094CDD
:1064C0002368DB070BD42046FDF7F8FD38B12046E2
:1064D000FDF7F9FD044A0549054802F05FF8044854
:1064E00010BD00BFE4E3032008E30320CD620D00EC
:1064F00090E2032038B500250446056045608560BC
:1065000005614561856140F8245FFEF797FAFFF762
:10651000B9FFE061FFF7D2FF25732062204638BD46
:1065200010B50A4C2368DB070ED42046FDF7C6FDE4
:1065300050B10748FFF7DEFF2046FDF7C4FD054ACE
:106540000549034802F02AF8014810BDB8E30320CA
:10655000BCE3032008E303208B690D000023024AFB
:1065600002490348FEF782BB6D680D00FD670D0010
:1065700085670D0000231A4619461846FEF776BBBC
:1065800073B502AC8E6851F8043B44F8083D0546EB
:1065900001A8FFF71FF922463146284601F016FFF1
:1065A00001A8FDF7DCFD284602B070BD73B502AC52
:1065B0000E6951F8043B44F8083D054601A8FFF771
:1065C00009F922463146284601F01BFF01A8FDF7D4
:1065D000C6FD284602B070BD73B502ACCE6851F856
:1065E000043B44F8083D054601A8FFF7F3F82246AE
:1065F0003146284601F0C2FE01A8FDF7B0FD28464D
:1066000002B070BD30B58BB00D46014604A8FFF74F
:10661000B7FF04A801F0E5FDE8B104A96846FFF75B
:10662000DBFF0F490298FFF791FE044610B12C1CC6
:1066300018BF012401A8FDF792FD002CE9D004A9A0
:106640006846FFF7B3FF684601F0ABFD286001A87C
:10665000FDF785FDDDE705A8FDF781FD0BB030BD39
:106660001C980D0037B50C4620461349154602F01C
:106670007FFD40B901F068FA4FF4165101F054FA69
:1066800001F062FA15E00D49204602F071FD78B97B
:1066900002A94FF4165341F8043D2846FFF7B2FF14
:1066A00001F0DEFA019901F0D1FA01F0D9FA00E027
:1066B000002003B030BD00BF21980D0028980D00C8
:1066C00070B5046843681426054606FB0346A642D7
:1066D00005D004F10800FFF7F3FF1434F7E728684A
:1066E000FEF798FB284670BD70B504684368054600
:1066F00004EB0316A64204D02046FEF73DFC1034FE
:10670000F8E72868FEF786FB284670BD10B50446FA
:106710000C30FFF7D5FF2046FFF7E6FF204610BDFF
:1067200010B5044B044640F8043BFFF7EFFF20464A
:1067300010BD00BF70930D0010B50446FFF7F0FFC9
:106740002046242101F038FF204610BD10B5034B30
:1067500003600446FFF7E4FF204610BD0C980D00CF
:1067600010B50446FFF7F2FF2046242101F024FF74
:10677000204610BD10B5036804461868FEF776F988
:10678000204610BD2DE9F04F9B461B4B5B68C3F3C1
:10679000080385B082460E46904653BBFFF7C0FE05
:1067A000044624300390FFF7E5FD237BF3B9012372
:1067B000237325686368F6B205EB83094D4513D052
:1067C00055F8047B4146381DFFF730FE8642F5D36D
:1067D0003B68CDF800B09B689E463846434632463B
:1067E00051467746B847E9E70023237303A8FFF72C
:1067F000C1FF05B0BDE8F08F00ED00E02DE9F74FD7
:106800009946194B5B68C3F308030746884616464A
:1068100033BBFFF785FE044624300190FFF7AAFD45
:10682000237BD3B901232373256863685FFA86FB52
:1068300005EB830A55450ED055F8046B4946301DCB
:10684000FFF7F4FD8345F5D333684246DB683946EC
:1068500030469847EEE70023237301A8FFF78AFF2D
:1068600003B0BDE8F08F00BF00ED00E02DE9F3417B
:10687000154B5B68C3F3080304468846FBB9FFF772
:106880004FFE064624300190FFF774FD96E8A00005
:10689000462605EB8707AF4207D101A8FFF76AFF3D
:1068A000B442B4BF002001200AE055F8040B414671
:1068B0000430FFF7BBFD8642A8BF0646EBE7002089
:1068C00002B0BDE8F08100BF00ED00E070B50368E4
:1068D0004268044603EB82029A4218460ED00668CC
:1068E0000D68AE4203F10403F6D1011D521A02F005
:1068F000DBFB6368013B6360012070BD002070BD5D
:106900001FB50446243001910390FFF733FD01A920
:106910002046FFF7DBFF20B903A8FFF72BFF04B0E9
:1069200010BD6368002BF7D1FFF724FEF4E770B5C4
:10693000056943691826044606FB0356AE4215D086
:1069400005F110012046FFF7C1FF63680BB9FFF79F
:1069500011FEE06929690368DB689847696919B124
:10696000206A0368DB6898471835E7E7256963699B
:10697000182606FB0356B54204D02846FEF7FCFA5B
:106980001835F8E70023636170BD73B5044602ADA6
:10699000FFF7F0FD04F1240045F8040DFFF7EAFCD1
:1069A0002046FFF7C4FF2846FFF7E4FE606A08B1FF
:1069B000FEF74CF825696369182606FB0356B542B5
:1069C00004D02846FEF7D8FA1835F8E72069FEF714
:1069D00021FA2068FEF71EFA204602B070BD036857
:1069E0000A6802600B6043684A6842604B608368D3
:1069F0008A6882608B60704710B50023044603608C
:106A000043608360FFF7EBFF204610BD8842F8B576
:106A10000446164625D9904224D2551A143D2C44DA
:106A2000A1F11407A2F10C050026A5F108039F426D
:106A300037D084B155F8083C236035F8043CA38076
:106A400035F9023CE380A660E6602661294604F140
:106A50000800FFF7C4FF2846FFF732FE143C143D40
:106A6000E3E71ED001F108050027A5F108039E42C7
:106A700017D084B155F8083C236035F8043CA38056
:106A800035F9023CE380A760E7602761294604F1FD
:106A90000800FFF7A4FF2846FFF712FE1434143550
:106AA000E3E7F8BDF8B5456883689D4204460E46A5
:106AB00017460EDB0135002D05DDA9000068FEF745
:106AC000B1F920B9F8BD0068FEF7A4F900202060F4
:106AD000A5602568626805EB860105EB8202521A03
:106AE000081D02F0E1FA45F826706368013363601F
:106AF0000120F8BD37B5044624300D460190FFF75C
:106B000039FC2368616803EB810083421A4609D08F
:106B10001268AA4203F10403F7D101A8FFF72AFE85
:106B200000250EE02A462046FFF7BCFF0546002858
:106B3000F3D06368012B01D1FFF710FD01A8FFF727
:106B400019FE284603B030BD8842F8B506460C460B
:106B5000154614D9904213D2A2F110056C1AA1F176
:106B600010070444AF4218D01CB129462046FEF756
:106B7000F3F92846FEF700FA103D103CF2E70CD07E
:106B8000AC420AD01EB121463046FEF7E5F9204658
:106B9000FEF7F2F910341036F2E7F8BD70B50E1EAC
:106BA00005460BDD3001FEF72DF9044670B195E87E
:106BB000060001EB0212FFF7C7FF00E0002428687F
:106BC000FEF728F92C60AE60012070BD70BD2DE984
:106BD000F04F002395B092464622036043608360E5
:106BE000C3600361436102760291DAF804100893EE
:106BF0009942054609930A9340F39D8008A8FFF740
:106C0000CDFF002840F097808EE021460BA8FEF7CC
:106C1000A3F90BA90FA8099EFEF79EF909990A9BF3
:106C20009942C0F2CE80013108A8FFF7B7FF0028D3
:106C300040F0C7800FA8FEF79FF90BA8FEF79CF95C
:106C40001434A742E1D100260B960C960D96B1465E
:106C5000099B9E4280F2A8803301089AD35806937C
:106C6000002B00F09F8014237343CDF81C900193F8
:106C70000BAC07A906A8FFF72CFB0746002800F07D
:106C8000918014AB014603F8399D079A2046FFF71F
:106C90008DFB9DF817800090B8F1000F53D1BDF81F
:106CA0001C30ADF840304FF6FF730F97ADF842300F
:106CB000CDF84480CDF84880CDF84C806768A36853
:106CC0009F424FDA009BD4F800B06168142253430E
:106CD0000BEB030702FB01B207F1140039460393E3
:106CE000FFF794FEA7B1039B0F9A4BF80320BDF862
:106CF0004030BB80BDF94230FB80C7F80890C7F830
:106D00000C90C7F8109011A907F10800FFF767FE73
:106D100063680133636011A8FFF7D2FCB8F1000F7C
:106D200011D00BA8FFF7CCFC08A8FFF7DDFC284624
:106D300015B0BDE8F08FDAF80040DAF80430142717
:106D400007FB03477DE72368009A142404FB023401
:106D5000069B1B7823BBDAF80030019A13441B7C96
:106D6000E3801DE00137002F0FDD142303FB07F044
:106D70000393FEF747F8834678B194E80600039B37
:106D800003FB0212FFF742FE00E0C3462068FEF755
:106D900041F8C4F800B0A76094E74FF00108BAE7E3
:106DA000083466E7013653E708A92846FFF717FEBF
:106DB0000BA905F10C00FFF712FE9DF808302B76A9
:106DC000AFE7089B099A03EB061603EB0212314664
:106DD00006F11000FFF7B8FE1EB10FA93046FEF70E
:106DE000BBF8099B0133099324E700007FB50446F3
:106DF000094B44F8043B05460E4601A81146FDF731
:106E000015FC01AA31462046FFF7E1FE01A8FDF777
:106E10001BFB284604B070BD70930D00F0B50F4603
:106E20008BB02B49109C384616461D4602F0A0F93F
:106E300028BB002C49D0294601A8FFF7DDFD2549D4
:106E4000242001F0BDFB0546B8B101A904A8FFF755
:106E5000D3FD04A907A8FDF7E9FB07AA3146284698
:106E6000FFF7C4FF07A8FDF7EFFA1B4B2B602C625E
:106E700004A8FDF7E9FA194B2B6001A81FE0184997
:106E8000384602F075F9F0B9FCB1294604A8FFF7BD
:106E9000B3FD1049242001F093FB054670B104A90D
:106EA00007A8FDF7C3FB07AA31462846FFF79EFF58
:106EB00007A8FDF7C9FA084B2B602C6204A8FDF760
:106EC000C3FA284602E0002000E020460BB0F0BDE7
:106ED00077980D00E39A0D0000990D000C980D00B5
:106EE0007B980D00014B024A1A607047E8E30320CB
:106EF0008C980D002DE9F047089DD0F820900446AD
:106F00000E461746984600F01FFE814505D15A48A7
:106F100001F04DF8002840F0AC802B791B0705D517
:106F20006B69564A206A0021FFF785F9B8F1000F16
:106F30000DD05B212046FFF72EFA41462046FFF791
:106F40001CFA23684E49DB680222204698472B79B9
:106F5000D90725D5D5F808802F21404602F056F9EB
:106F600008B100F1010841462046FFF706FA2B79E7
:106F70009A0709D53A212046FFF70DFAEB68414AF6
:106F8000206A0021FFF757F92B7913F0040F2368CB
:106F900018BF3D49DB6808BF3C490222204698479C
:106FA0002B795B0718D529690A46134613F8010B9C
:106FB00038B1202801D1194601E0282801D01A460D
:106FC000F3E72368521ADB68204698472368304964
:106FD000DB6804222046984700213846FDF73EFE34
:106FE00001462046FFF7C9F923682849DB680222D9
:106FF000204698471EB131462046FFF7BEF92B794F
:1070000013F0300F2DD023682249DB68204602227E
:1070100098472B79D8060BD523681F49DB680722D0
:1070200020469847AB691D4A206A0021FFF703F903
:107030002B79990611D5DA0605D523681249DB6844
:1070400002222046984723681549DB6820460A2219
:107050009847E9692046FFF790F95D212046FFF740
:107060009AF923680F49DB6820460222BDE8F04701
:107070001847BDE8F08700BF1CE7032090980D007B
:1070800097980D009A980D009D980D00A2980D00FC
:10709000A0980D00A5980D00A8980D00B0980D00BF
:1070A000B3980D00BE980D002DE9F04385B0D0F8DF
:1070B00020800C9C06460F4691461D4600F044FD7C
:1070C000804505D14A4800F072FF002840F08C80CE
:1070D000336A484A01924FF0000801A803938DF8E3
:1070E000088001F0A8F841464846FDF7B7FD42493F
:1070F0008046012201A801F023F94146FFF72DF94E
:107100003FB13E49012201A801F01AF93946FFF7C3
:1071100024F93DB13A49012201A801F011F92946AB
:10712000FFF71BF92379DF070ED5A5682F21284625
:1071300002F06CF800B1451C3249012201A801F0AF
:10714000FFF82946FFF709F923799D0707D52E494E
:10715000022201A801F0F4F8E16801F079F823793E
:10716000580716D525692F463B4613F8012B3AB12F
:10717000202A01D11D4601E0282A01D01F46F3E74D
:107180000222224901A801F0DBF87A1B294601F00E
:10719000E6F82379190707D51D49012201A801F056
:1071A000CFF8616901F066F82379DA0608D5042280
:1071B00018490DEB020001F0C3F8A16901F048F88D
:1071C00023799B0607D51449062201A801F0B8F8D7
:1071D000E169FFF7C2F801A801F017F8306A0F491A
:1071E00003680222DB68984705B0BDE8F08300BF62
:1071F0001CE70320F4970D0026980D00E2940D0083
:107200006D950D00D39A0D00C1980D00C4980D0026
:10721000E8940D00C7980D00CC980D00BE980D00A5
:1072200008B50020FDF7DEFD28B1FDF7CBFD80F0AD
:107230000100C0B208BD012008BD10B50020FDF757
:1072400063FB044668B9FDF719FD01280BD1204600
:10725000FDF73CFD38B9FFF7E3FF30B9FDF7AAFDB4
:10726000F9E7012010BD002010BDFFF7D9FF002075
:10727000FDF74AFB003018BF012010BD08B5FFF72D
:10728000DCFFBDE80840FDF737BB0000024B1A6881
:10729000024B1A60704700BF98E20320ECE3032022
:1072A0000021FDF7FBBC10B58368044613B103222F
:1072B00001469847204610BD10B50446FFF7F3FF7E
:1072C000204610BD13B50B46044603C88DE80300E5
:1072D00093E8030084E803009DE8030083E80300CB
:1072E00002B010BD0348044A04490023836001F042
:1072F00055B900BFF0E3032008E30320B9720D0085
:1073000008B50C4B33B100F01FFC03681B699847AC
:10731000002809DC084B63B100F0A2FC03681B697C
:107320009847002803DC08BDAFF30080F2E7AFF315
:10733000008008BD000000000000000008B5FFF755
:10734000DFFFFDF7D1FA014B186008BD34E70320D9
:107350000248034A0349121A01F09BBE00F40320BD
:1073600004F40320909C0D0007B5002300931A46F7
:107370006FF07701FDF7BCFC03B05DF804FB000083
:1073800007B543880A2B08D0502B09D1094B1B683D
:107390003BB103B05DF804EB1847FFF7E5FF06E0EB
:1073A000002300931A466FF07701FDF7A1FC03B0AC
:1073B0005DF804FB00E4032038B5104C104D236841
:1073C000AB42104B0CBF012200221A7002D0FFF713
:1073D000BFFF2560FDF778FA044601F089FE0A4BED
:1073E00013B12046AFF3008000210748FDF702FDEE
:1073F00000210648BDE83840FDF770BC00F40320CA
:107400001E1C279A04E403200000000081730D0075
:1074100070470020704710B51021044601F0CCF8E9
:10742000204610BD08B508B1FFF7F5FF08BD0022E2
:10743000026010B54FF69C728280B1F904408480DE
:107440008A8002680C6804600A6010BD10B50446AA
:107450000068FDF7DFFC204610BD38B5C468F4B104
:107460002378022B03D104F10C00FFF7EFFF6568CE
:1074700035B12846FFF717FF1021284601F09CF888
:10748000A56835B12846FFF70EFF1021284601F008
:1074900093F820461421BDE8384001F08DB838BD7E
:1074A00013B5044691E8050000234B600B60206093
:1074B000626001A801930093FCF751FE204602B0E0
:1074C00010BDF7B50C4602AD54F8043B45F8083D35
:1074D00006460F4601A82146FEF77CF929463046AC
:1074E000FFF7DEFF01A8FCF73AFE2046FCF737FE67
:1074F0003846082101F060F8304603B0F0BD0000C6
:1075000038B500230446036010200D46FCF7C5FD86
:1075100028B1012343608360024B0360C560206093
:10752000204638BD74990D00826810B50AB901F083
:1075300056F8C368BDE81040184708B5006800F168
:107540001001FFF7F1FF08BD826810B50AB901F01C
:1075500046F8C368BDE81040184708B5006800F158
:107560001001FFF7F1FF08BD38B5002383608B6879
:1075700004460D462BB102229847EB68E360AB68E6
:10758000A360204638BD0000F0B589B004686846A5
:10759000FFF74DFF00238DF808304FF00202D4E8CA
:1075A0004F3F002B03D1C4E8412F0029F7D102D06F
:1075B0008DF8083063E014F10C0503D069462846C5
:1075C000FFF735FFBFF35F8F01236370002004F1E5
:1075D0000803BFF35F8F53E8006F43E80002002AFF
:1075E000F9D1BFF35F8F002E49D0FDF75FFB20B1CB
:1075F00029463046FFF798FF3AE0314602A8FFF7E8
:10760000B3FFE068B4F9105008B101F0BBFD06907B
:107610001020ADF81C50FCF740FD0546E8B10027EE
:1076200087601820FCF739FD044688B10146876061
:1076300002A8FFF747FE049BA268A360059B049283
:1076400006A9E268E36004F110000592FFF7EFFE7F
:107650000D4BEB600D4B2C60AB6006A8FFF7F6FE00
:1076600002A8FFF720FE002229460948FDF726FB65
:107670003046FFF718FE1021304600F09DFF6846A7
:10768000FFF7E4FE09B0F0BD3B750D00B1770D00CA
:10769000AD7C0D002DE9F04F8BB006460F469046AD
:1076A00099469DF850A0FDF78DFB07AD834630BB92
:1076B0004FF62E73059005A92846ADF81830FFF750
:1076C000B6FE1420FCF7E9FC044658B1022303700F
:1076D00001234370C0F804B0C0F808B029460C304C
:1076E000FFF7A5FE3046214640F8044BFFF708FFA0
:1076F0002846FFF7ABFE05A8FFF7A8FE52E00024DE
:107700000C2314206C60AC600793FCF7C6FC0146A8
:1077100018B1047044704460846004A80391FFF7BA
:10772000EFFE224B08930820FCF7B7FC044628B173
:10773000039B40F8043B04A9FEF74CF800955FFA60
:107740008AF34A46414638460994FDF743FB20B97F
:10775000039B5B7803F0FF0283B1039B059304A9AD
:1077600006A8FEF737F805A93046FFF799FE06A8E8
:10777000FCF7F5FC04A8FCF7F2FC13E04FF69C7351
:1077800005A903A80592ADF81830FFF7FDFE05A87E
:10779000FFF75CFE05A80999FFF793FE06A8FCF722
:1077A000DEFCDAE730460BB0BDE8F08F21790D0042
:1077B000022AF8B5044606D0032A17D0012A22D19E
:1077C0000B6803601FE018200E68FCF766FC054696
:1077D00050B13146FFF7C8FE3069B6F9147008B1F0
:1077E00001F0D0FC2861AF8225600CE0046854B140
:1077F00004F11000FFF72AFE2046FFF754FD182180
:10780000204600F0D9FE0020F8BD38B50023836083
:107810008B6804460D462BB102229847EB68E36063
:10782000AB68A360204638BD022A70B5044606D076
:10783000032A11D0012A18D10B68036015E0142027
:107840000E68FCF72AFC054620B13146FFF7DDFF44
:10785000337C2B74256008E0046834B12046FFF7C0
:1078600022FD1421204600F0A7FE002070BD00007C
:10787000F0B5002387B00C46BFF35F8F50E8006F70
:1078800040E80032002AF9D1BFF35F8F002E3FD0CD
:107890001846FDF70BFA074620B121463046FFF7A0
:1078A00053FE2EE0314601A8FFF7AFFF23788DF895
:1078B00014301020FCF7F1FB0546D0B1876014208E
:1078C000FCF7EBFB044678B18760014601A8FFF79F
:1078D000F9FC039BA268A360049B0392E268E36047
:1078E0009DF81430049223740A4BEB600A4B2C6011
:1078F000AB6001A8FFF7D7FC002229460748FDF737
:10790000DDF93046FFF7CFFC1021304600F054FE81
:1079100007B0F0BD5B750D0029780D00AD7C0D0042
:1079200030B585B004460D4668461146FFF7C9FDDF
:107930007CB124B228460DB101F024FC029002A9CA
:107940006846ADF80C40FFF71FFE02A8FFF77EFD6A
:107950001DE000988DF808404FF00102D0E84F3F3D
:10796000A34203D1C0E8412F0029F7D102D08DF8FE
:1079700008300CE010F10C014FF0010318BF037345
:10798000BFF35F8F043000F8033CFFF771FF01A8DD
:10799000FCF7E5FB05B030BD704710B51821044673
:1079A00000F00AFE204610BDF0B5037D062B8DB019
:1079B0000E4600F104074FF0000402D000F1080564
:1079C00018E00CAD394605F8304D2F232A460A2021
:1079D000FDF754F8284601F0F0FB33680246DB68F7
:1079E0002946304698470FE024B12E213046FEF755
:1079F000F3FB044415F8011D0A223046FEF7FBFB99
:107A0000BD420444F0D120460DB0F0BD10B5054B89
:107A10000446112240F8043B002101F060FB20469F
:107A200010BD00BF90990D000346074A10B543F8FA
:107A3000042B01F1100251F8044B43F8044B91421E
:107A4000F9D10A781A7010BD90990D0010B59DF803
:107A5000084044EA032343EA024242EA0161042364
:107A60004160037510BD37B50D788B784A78C978B9
:107A700000912946FFF7EAFF03B030BD417470471B
:107A8000704708B50021007CFDF7B8F830EA200007
:107A900028BF4FF0FF3008BD08B50121007CFDF77D
:107AA000ADF830EA200028BF4FF0FF3008BD08B520
:107AB000007CFDF79BF820EAE07008BD08B5007C6B
:107AC000FDF78CF820EAE07008BD007CFDF7A6B851
:107AD00010B51421044600F06FFD204610BD38B5E6
:107AE0000446007C0D46FDF781F8002801DC607C2F
:107AF00028B12946207CFDF789F820EAE07038BDDE
:107B000010B50446002363604FF47A73A360054BFD
:107B1000236001230846217463741146FDF746F87B
:107B2000204610BDA4990D000022007CFDF746B848
:107B3000007CFDF74BB810B514220446002101F07B
:107B4000CEFA204610BD000030B50E4D87B001A81A
:107B5000FFF7F1FF296811F0010410D12846FCF766
:107B6000ADFA60B101AA21460748FFF7C9FF2846D0
:107B7000FCF7A9FA054A0649034800F00FFD024840
:107B800007B030BD08E403200CE4032008E3032021
:107B9000817A0D0070474174704708B5007CFCF78E
:107BA000B5FF20EAE07008BD08B5007CFCF786FF51
:107BB00020EAE07008BD08B5007CFCF78FFF30EAD2
:107BC000200028BF4FF0FF3008BD08B5007CFCF74F
:107BD0007DFF30EA200028BF4FF0FF3008BD007C59
:107BE000FCF784BF10B51421044600F0E5FC2046E4
:107BF00010BD70B5457C04460E4625B9007CFCF7E7
:107C000085FF002805DD3146207CBDE87040FCF78B
:107C10004DBF284670BD000010B504460846114609
:107C2000002262604FF47A72A260054A226001224B
:107C3000207462741A46FCF729FF204610BD00BF6D
:107C4000D4990D000023007CFCF768BF0022FFF7E9
:107C5000F9BF007CFCF722BF007CFCF74FBF00009F
:107C600038B50C4D296811F0010411D12846FCF7F4
:107C700025FA68B1084A094B09482146FFF7CCFFAD
:107C80002846FCF720FA074A0749054800F086FC19
:107C9000034838BDB8E40320BCE4032034E40320E7
:107CA00020E4032008E30320957B0D0010B58368D2
:107CB00004460BB900F093FCC3689847A3681BB156
:107CC000032221462046984720461021BDE8104057
:107CD00000F072BC7047F8B5064615460C468F1882
:107CE000BC4206D0336814F8011B9B6830469847A5
:107CF000F6E72846F8BD0022007CFCF717BF0021FC
:107D0000007CFCF71BBF0021007CFCF71FBF00219B
:107D1000007CFCF723BF0021007CFCF727BF10B5D7
:107D20001421044600F048FC204610BD10B504465E
:107D3000002363604FF47A73A360044B21740846F8
:107D400023601146FCF722FF204610BD049A0D0067
:107D50000021007CFCF712BF002211464068FDF7AD
:107D600009B8002211464068FDF714B800224068A7
:107D7000FDF708B8002281F001014068FCF7F2BF6E
:107D800000231A4601214068FCF7E4BF00231A468D
:107D900019464068FCF7D6BF002211464068FCF740
:107DA000C9BF002211464068FCF7B4BF002202217F
:107DB0004068FCF7B7BF00231A464068FCF7A2BF33
:107DC00038B5054688B104684CB1A3681BB10322DD
:107DD0002146204698471021204600F0EDFB28461A
:107DE0001421BDE8384000F0E7BB38BD10B103688E
:107DF0005B681847704710B503680446BBB1586804
:107E0000FCF704FE78B923685A7C12B95868FCF76D
:107E100005FE23685868FCF709FE206800232360EC
:107E200028B1FFF7CDFF206808B1FFF7C9FF204652
:107E300010BD38B50446D0F8C40108B1FCF731F9DB
:107E4000D4F8C00108B1FCF701FED4F8BC5135B13B
:107E50002846FFF7D0FF0421284600F0ADFB20683C
:107E600008B1FFF7C3FF204638BD000010B5044B32
:107E7000044640F8083BFFF7DCFF204610BD00BF7A
:107E80002C9A0D0038B50E4C0E4B236000250223B2
:107E900004F5E4706360A560C4F8C451C4F8C85127
:107EA000FCF7CCFD084BC4F8CC5184F8D0512360CA
:107EB0002046064A0649BDE8384000F06FBB00BFC7
:107EC00040E50320949A0D002C9A0D0008E303204E
:107ED0006D7E0D00002211464068FCF72BBF00228A
:107EE00011464068FCF746BF002211464068FCF787
:107EF00051BF00224068FCF745BF002281F001011C
:107F00004068FCF72FBF00231A4619464068FCF76B
:107F100021BF00231A4619464068FCF713BF002210
:107F200011464068FCF7F6BE002202214068FCF7CB
:107F3000F9BE00231A464068FCF7E4BE024B042257
:107F40005A60024A1A60704714E70320609A0D00D5
:107F500000231A464068FCF7D5BE00220221406883
:107F6000FCF7E0BE002211464068FCF7D3BE0022B9
:107F700011464068FCF7DEBE00231A4619464068E9
:107F8000FCF7E0BE00231A4619464068FCF7E2BE43
:107F9000002281F001014068FCF7E4BE0022406845
:107FA000FCF7F0BE002211464068FCF7F3BE002249
:107FB00011464068FCF7DEBE2DE9F043002495B081
:107FC00016460D460746FFF721FD214620220CA844
:107FD000009401F084F840230C9321466B460CAAD0
:107FE0003046FCF729FC0446002844D10246012112
:107FF0006868FCF79FFE0221804622466868FCF70D
:1080000099FE009E81462146002E34D0002932D1AF
:108010007368022B02D00A2B09D02AE0B8F1000FB6
:1080200027D0716938460431FFF71DFD20E0B9F112
:10803000000F1ED07469112201A801F050F8062328
:108040008DF8143001AD04F108031834186859682C
:108050002A4603C20833A3421546F7D101A906A850
:1080600007ADFFF7E1FC0FCD3C1D0FC42B6823705B
:108070000121F669C8E70098FCF7D6FB384615B031
:10808000BDE8F083024B034A1A6000225A60704731
:108090001CE70320949A0D0000F11002012312F84E
:1080A000101C0129104604D152F8041C03EB4103B3
:1080B00004E0022904BF52F8041C5B18013B02F1E2
:1080C0001002ECD170470EB42DE9F04187B000AF3B
:1080D00007F13404054654F8046B7C6023463246AD
:1080E000102107F10800FCF7ADFE0F2816D900F1AA
:1080F000080323F00703E846ADEB030D3246411CAD
:10810000234668467C60FCF79DFE021E04DD2B685A
:1081100069469B6828469847C54607E030B12B68FA
:1081200002469B6807F10801284698471C37BD4660
:10813000BDE8F04103B0704713B502AB026803F825
:10814000011D946819460122A04702B010BD836842
:10815000FBB11A78032A1AD8DFE802F00417021DCF
:108160000520704702685B685268D05C2D2814D0E7
:10817000A0F13003092B10D9742810D066280ED036
:10818000A0F16E0358425841704706207047002006
:10819000704718467047042070470320704702203C
:1081A000704710B50446FFF7D2FF02280DD016D352
:1081B000042814D82268A36850685B680A2200214A
:1081C0001844BDE8104001F0BBB82268A3685268AB
:1081D0005B68D05CA0F174035842584110BD002088
:1081E00010BD10B5436904465BB18068E060013B97
:1081F0001030A060206163612BB1FFF74DFFA060DC
:1082000001E0184610BD012010BD10B57D210446C7
:10821000FFF792FF01232371204610BD08B50379B3
:10822000012B02D0022B02D008BD2C2100E03A2104
:10823000FFF782FF08BD10B50446FFF7EFFF2046A9
:108240007B21FFF779FF00232371204610BD00003A
:1082500038B504460D46FFF7E1FF23680449DB68A3
:1082600020462A46984701232371204638BD00BF87
:108270009A980D0038B504460D46FFF7CFFF2368E6
:108280000449DB6820462A4698470123237120468B
:1082900038BD00BFD7940D00F8B50D461746222112
:1082A00004462F44FFF748FF2A462946BA4238D0F1
:1082B000164616F8015B222D03D05C2D01D01F2D30
:1082C0002DD82368521A9B68204698475C21204687
:1082D000FFF732FF0C2D19D007D8092D0FD00A2D2A
:1082E00012D0082D14D162210AE0222D05D05C2D78
:1082F00003D00D2D0CD1722102E0294600E074213B
:108300002046FFF719FF09E06E21F9E76621F7E73C
:1083100023680A49DB682A46204698473146324698
:10832000C4E7914204D02368521A9D682046A847AA
:1083300022212046FFF700FFF8BD00BFDD9A0D00A7
:1083400070B504460D461646FFF768FF20463246D4
:108350002946FFF7A1FF02232371204670BD70B5A7
:1083600004460D461646FFF759FF20463246294679
:10837000FFF792FF01232371204670BD10B5002343
:108380000446036043601048A060E360D1B10B78FD
:10839000032B06D0B3B9136858684B68C35C6E2BC7
:1083A00008D0136858684B680344A3608B68496819
:1083B0005B1AE3601146204651F8043B40F8043B49
:1083C000FDF7B8FA204610BDC0980D00002310B587
:1083D0000446036043608360C3600361436171B11D
:1083E0000B78012B0BD101F110038360CB68436143
:1083F000114651F8043B40F8043BFDF79BFA204638
:1084000010BD002310B5044603604360816031B1A4
:10841000114651F8043B40F8043BFDF78BFA204627
:1084200010BD10B5044600F059F8FCF777FD28B1EF
:10843000A4F10B03022B01D8002010BD00F088F836
:10844000FFF786FC08B1012CF6D9FFF709FCFFF70E
:1084500003FC18B1A4F10903012BEDD9232C8CBF27
:108460000020012010BD232838B504460D460AD847
:10847000FF2908D0FFF7D5FF28B129462046BDE8DF
:108480003840FCF7F1B938BD10B50446FCF7F4F9F3
:108490000438C0B2012808D92046FFF7C2FF20B136
:1084A0002046BDE81040FCF7EFB9002010BD0D28B4
:1084B00010B504469CBF0E34A4B22046FFF7B1FFAE
:1084C00050B103212046FCF7C7F9032804D1204608
:1084D000BDE81040FCF7E0B9002010BD38B50B4DE9
:1084E000296811F001040FD12846FBF7E7FD58B1C8
:1084F00021460748FCF704FD2846FBF7E4FD054A42
:108500000549034800F04AF8014838BD30E7032028
:1085100024E7032008E30320F14E0D0070B5044664
:1085200014252A46094E002100F0D9FD258020257A
:108530003146A5602561284600F040F8314660606C
:10854000284600F03BF8E060204670BDE39A0D003D
:1085500030B50E4D296811F0010487B013D12846BB
:10856000FBF7ACFD78B101A8FFF7D8FF01AA2146BF
:108570000748FFF7DBFB2846FBF7A5FD054A064940
:10858000034800F00BF8024807B030BD38E703207D
:108590003CE7032008E30320D57C0D000B46014691
:1085A000184600F059BD0000024B1868BFF35F8FFA
:1085B000704700BF50E70320FBF771BD00F000B823
:1085C00010B5002814BF044601242046FCF71AFC0D
:1085D00020B9FFF7E9FF08B18047F6E710BD08B5FD
:1085E000FCF738FC184B1A68D1075CBF01221A60EF
:1085F000164B1A68D2075CBF01221A60144B1A6826
:10860000D0075CBF01221A60124B1A68D1075CBF09
:1086100001221A60104B1A68D2075CBF01221A604F
:108620000E4B1A68D0075CBF01221A600C4B1A6807
:10863000D1075CBF01221A600A4B1A68D2075CBFDF
:1086400001221A60704700BF70E703206CE7032027
:1086500068E7032064E7032060E703205CE703206A
:1086600058E7032054E70320244B1A68D0075CBF67
:1086700001221A60224B1A68D1075CBF01221A60DE
:10868000204B1A68D2075CBF01221A601E4B1A6881
:10869000D0075CBF01221A601C4B1A68D1075CBF6F
:1086A00001221A601A4B1A68D2075CBF01221A60B5
:1086B000184B1A68D0075CBF01221A60164B1A6863
:1086C000D1075CBF01221A60144B1A68D2075CBF45
:1086D00001221A60124B1A68D0075CBF01221A608F
:1086E000104B1A68D1075CBF01221A600E4B1A6842
:1086F000D2075CBF01221A60704700BFA0E70320C9
:108700009CE7032098E7032094E7032090E70320E9
:108710008CE7032088E7032084E7032080E7032019
:108720007CE7032078E7032074E70320244B1A68D2
:10873000D0075CBF01221A60224B1A68D1075CBFC8
:1087400001221A60204B1A68D2075CBF01221A600E
:108750001E4B1A68D0075CBF01221A601C4B1A68B6
:10876000D1075CBF01221A601A4B1A68D2075CBF9E
:1087700001221A60184B1A68D0075CBF01221A60E8
:10878000164B1A68D1075CBF01221A60144B1A6895
:10879000D2075CBF01221A60124B1A68D0075CBF77
:1087A00001221A60104B1A68D1075CBF01221A60BF
:1087B0000E4B1A68D2075CBF01221A60704700BFD7
:1087C000D0E70320CCE70320C8E70320C4E7032059
:1087D000C0E70320BCE70320B8E70320B4E7032089
:1087E000B0E70320ACE70320A8E70320A4E70320B9
:1087F000184B1A68D1075CBF01221A60164B1A6821
:10880000D2075CBF01221A60144B1A68D0075CBF04
:1088100001221A60124B1A68D1075CBF01221A604C
:10882000104B1A68D2075CBF01221A600E4B1A68FF
:10883000D0075CBF01221A600C4B1A68D1075CBFDD
:1088400001221A600A4B1A68D2075CBF01221A6023
:10885000704700BFF0E70320ECE70320E8E70320C0
:10886000E4E70320E0E70320DCE70320D8E7032068
:10887000D4E7032081F0004102E000BF83F0004311
:1088800030B54FEA41044FEA430594EA050F08BFAB
:1088900090EA020F1FBF54EA000C55EA020C7FEA6F
:1088A000645C7FEA655C00F0E2804FEA5454D4EBEC
:1088B0005555B8BF6D420CDD2C4480EA020281EAB6
:1088C000030382EA000083EA010180EA020281EAEE
:1088D0000303362D88BF30BD11F0004F4FEA013140
:1088E0004FF4801C4CEA113102D0404261EB41014F
:1088F00013F0004F4FEA03334CEA133302D05242D5
:1089000063EB430394EA050F00F0A780A4F1010490
:10891000D5F1200E0DDB02FA0EFC22FA05F28018CA
:1089200041F1000103FA0EF2801843FA05F35941B0
:108930000EE0A5F120050EF1200E012A03FA0EFC2F
:1089400028BF4CF0020C43FA05F3C01851EBE37159
:1089500001F0004507D54FF0000EDCF1000C7EEB76
:1089600000006EEB0101B1F5801F1BD3B1F5001FB4
:108970000CD349085FEA30004FEA3C0C04F10104D3
:108980004FEA445212F5800F80F09A80BCF1004FFC
:1089900008BF5FEA500C50F1000041EB045141EA7E
:1089A000050130BD5FEA4C0C404141EB010111F47F
:1089B000801FA4F10104E9D191F0000F04BF01462A
:1089C0000020B1FA81F308BF2033A3F10B03B3F108
:1089D00020020CDA0C3208DD02F1140CC2F10C0298
:1089E00001FA0CF021FA02F10CE002F11402D8BFF6
:1089F000C2F1200C01FA02F120FA0CFCDCBF41EAC2
:108A00000C019040E41AA2BF01EB0451294330BD90
:108A10006FEA04041F3C1CDA0C340EDC04F114046D
:108A2000C4F1200220FA04F001FA02F340EA030044
:108A300021FA04F345EA030130BDC4F10C04C4F18A
:108A4000200220FA02F001FA04F340EA030029466A
:108A500030BD21FA04F0294630BD94F0000F83F4B4
:108A6000801306BF81F480110134013D4EE77FEA97
:108A7000645C18BF7FEA655C29D094EA050F08BFE3
:108A800090EA020F05D054EA000C04BF19461046C4
:108A900030BD91EA030F1EBF0021002030BD5FEA08
:108AA000545C05D14000494128BF41F0004130BD30
:108AB00014F580043CBF01F5801130BD01F0004584
:108AC00045F0FE4141F470014FF0000030BD7FEAF7
:108AD000645C1ABF194610467FEA655C1CBF0B46F2
:108AE000024650EA013406BF52EA033591EA030F09
:108AF00041F4002130BD00BF90F0000F04BF002101
:108B0000704730B54FF4806404F132044FF0000533
:108B10004FF0000150E700BF90F0000F04BF0021AC
:108B2000704730B54FF4806404F1320410F0004512
:108B300048BF40424FF000013EE700BF42004FEA0D
:108B4000E2014FEA31014FEA02701FBF12F07F438A
:108B500093F07F4F81F06051704792F0000F14BF87
:108B600093F07F4F704730B54FF4607401F00045CB
:108B700021F0004120E700BF50EA010208BF704722
:108B800030B54FF000050AE050EA010208BF704717
:108B900030B511F0004502D5404261EB41014FF480
:108BA000806404F132045FEA915C3FF4DCAE4FF084
:108BB00003025FEADC0C18BF03325FEADC0C18BF6B
:108BC000033202EBDC02C2F1200300FA03FC20FABC
:108BD00002F001FA03FE40EA0E0021FA02F1144409
:108BE000C1E600BF70B54FF0FF0C4CF4E06C1CEA1E
:108BF00011541DBF1CEA135594EA0C0F95EA0C0F93
:108C000000F0DEF82C4481EA030621EA4C5123EA05
:108C10004C5350EA013518BF52EA033541F4801134
:108C200043F4801338D0A0FB02CE4FF00005E1FBE7
:108C300002E506F00042E0FB03E54FF00006E1FB31
:108C400003569CF0000F18BF4EF0010EA4F1FF0474
:108C5000B6F5007F64F5407404D25FEA4E0E6D41B4
:108C600046EB060642EAC62141EA55514FEAC520C5
:108C700040EA5E504FEACE2EB4F1FD0C88BFBCF541
:108C8000E06F1ED8BEF1004F08BF5FEA500E50F1F2
:108C9000000041EB045170BD06F0004646EA0101B8
:108CA00040EA020081EA0301B4EB5C04C2BFD4EBEA
:108CB0000C0541EA045170BD41F480114FF0000EE3
:108CC000013C00F3AB8014F1360FDEBF002001F051
:108CD000004170BDC4F10004203C35DA0C341BDCCB
:108CE00004F11404C4F1200500FA05F320FA04F09D
:108CF00001FA05F240EA020001F0004221F00041D1
:108D000010EBD37021FA04F642EB06015EEA430E43
:108D100008BF20EAD37070BDC4F10C04C4F1200573
:108D200000FA04F320FA05F001FA04F240EA020026
:108D300001F0004110EBD37041F100015EEA430EF7
:108D400008BF20EAD37070BDC4F1200500FA05F217
:108D50004EEA020E20FA04F301FA05F243EA020396
:108D600021FA04F001F0004121FA04F220EA0200A5
:108D700000EBD3705EEA430E08BF20EAD37070BDEB
:108D800094F0000F0FD101F00046400041EB0101CB
:108D900011F4801F08BF013CF7D041EA060195F0AD
:108DA000000F18BF704703F00046520043EB030367
:108DB00013F4801F08BF013DF7D043EA0603704754
:108DC00094EA0C0F0CEA135518BF95EA0C0F0CD05F
:108DD00050EA410618BF52EA4306D1D181EA0301A5
:108DE00001F000414FF0000070BD50EA410606BF9F
:108DF0001046194652EA430619D094EA0C0F02D1E4
:108E000050EA013613D195EA0C0F05D152EA033628
:108E10001CBF104619460AD181EA030101F0004146
:108E200041F0FE4141F470014FF0000070BD41F08F
:108E3000FE4141F4780170BD70B54FF0FF0C4CF469
:108E4000E06C1CEA11541DBF1CEA135594EA0C0F88
:108E500095EA0C0F00F0A7F8A4EB050481EA030ED5
:108E600052EA03354FEA013100F088804FEA0333BC
:108E70004FF0805545EA131343EA12634FEA02228A
:108E800045EA111545EA10654FEA00260EF000414B
:108E90009D4208BF964244F1FD0404F5407402D29D
:108EA0005B084FEA3202B61A65EB03055B084FEA2E
:108EB00032024FF480104FF4002CB6EB020E75EB2B
:108EC000030E22BFB61A754640EA0C005B084FEA53
:108ED0003202B6EB020E75EB030E22BFB61A7546D0
:108EE00040EA5C005B084FEA3202B6EB020E75EB1B
:108EF000030E22BFB61A754640EA9C005B084FEA93
:108F00003202B6EB020E75EB030E22BFB61A75469F
:108F100040EADC0055EA060E18D04FEA051545EA8E
:108F200016754FEA06164FEAC30343EA52734FEA37
:108F3000C2025FEA1C1CC0D111F4801F0BD141EAB0
:108F400000014FF000004FF0004CB6E711F4801F15
:108F500004BF01430020B4F1FD0C88BFBCF5E06FF5
:108F60003FF6AFAEB5EB030C04BFB6EB020C5FEA05
:108F7000500C50F1000041EB045170BD0EF0004E5A
:108F80004EEA113114EB5C04C2BFD4EB0C0541EA8C
:108F9000045170BD41F480114FF0000E013C90E689
:108FA00045EA060E8DE60CEA135594EA0C0F08BF4D
:108FB00095EA0C0F3FF43BAF94EA0C0F0AD150EA4C
:108FC00001347FF434AF95EA0C0F7FF425AF1046DF
:108FD00019462CE795EA0C0F06D152EA03353FF407
:108FE000FDAE1046194622E750EA410618BF52EA84
:108FF00043067FF4C5AE50EA41047FF40DAF52EA58
:1090000043057FF4EBAE12E74FEA410212F500127E
:1090100015D211D56FF47873B3EB625212D94FEABF
:10902000C12343F0004343EA505311F0004F23FAA9
:1090300002F018BF404270474FF00000704750EAFE
:10904000013005D111F0004008BF6FF000407047BB
:109050004FF00000704700BF10B5054C13462CB10F
:109060000A4601460220AFF3008010BD204610BD25
:109070000000000010B501390244904207D010F8FA
:10908000013B11F8014FA342F7D0181B10BD00207F
:1090900010BD10B5431E0A44914204D011F8014B93
:1090A00003F8014FF8E710BD884210B501EB020349
:1090B00001D8421E0BE09842FBD28118D21AD3424B
:1090C00004D013F8014D01F8014DF8E710BD9942A5
:1090D00004D011F8014B02F8014FF8E710BD02442B
:1090E0000346934202D003F8011BFAE770470000E1
:1090F00038B5124B1C68A36B0546D3B91820FBF793
:1091000081FE43F20E33A06303804AF6CD334380E1
:1091100041F2342383804EF26D63C3804DF6EC63DD
:109120000381052343810B23838101220023C0E9AE
:109130000423A36B00221D615A6138BD00E30320A4
:10914000C9B2034610F8012B1AB19142F9D1184661
:10915000704700290CBF18460020704710B5044620
:10916000FFF7EEFF18B9204600F027F8204410BDA5
:1091700010F8012B11F8013B012A28BF9A42F7D0C1
:10918000D01A7047024B0146186800F003B800BFC0
:1091900000E3032070B5064608460C4600F00DF8C3
:1091A000451C29463046FBF75DFE064618B12A46A7
:1091B0002146FFF76EFF304670BD034613F8012BC2
:1091C000002AFBD1181A0138704730B582B1451E0C
:1091D000013915F8013F11F8014FA34206D1EC43C4
:1091E0001444E04201D0002BF3D11C46181B30BDC3
:1091F000104630BD10B5034601448B4204D01A78A6
:109200005C1C0AB12346F8E7181A10BD38B50346AE
:109210000D4641B1002429461846FFF791FF30B1B1
:10922000431C0446F7E7BDE83840FFF789BF2046F6
:1092300038BD00002DE9F04780464048D0F8009046
:109240000F463D4615F8014B09EB0400407800F04D
:10925000080000F0FF0608B12F46F2E72D2C03D1DD
:10926000BD1C7C78012603E02B2C04BF7C78BD1C40
:1092700013B1102B0AD15BE0302C57D1287800F0C5
:10928000DF0058284DD16C7810230235002E14BF12
:109290004FF0004C6FF0004C0027BCFBF3FA38464F
:1092A00003FB1ACC09EB040E9EF801E01EF0040F3C
:1092B00001D0303C0BE01EF0030E1BD0BEF1010FBD
:1092C0000CBF4FF0370E4FF0570ECEEB0404A34205
:1092D00010DDB7F1FF3F0AD0504506D801D16445F3
:1092E00003DC03FB0040012701E04FF0FF3715F8D6
:1092F000014BD7E77B1C0CD1002E4FF0220314BF8B
:109300004FF000406FF00040C8F800302AB9BDE8C7
:10931000F08706B1404272B107B1691E1160BDE825
:10932000F0873024002BB1D10823AFE70A23ADE743
:10933000302CA3D0AAE7BDE8F08700BF9CE2032051
:1093400013460A46014602480068FFF773BF00BF94
:1093500000E3032021400D005D400D0089400D0019
:109360008D400D0000000000000000000000000023
:109370000000000000000000A9400D00CD400D00DD
:109380000000000000000000E9400D001D410D003C
:10939000F56E0D00CF400D00546865204C4544200B
:1093A000766F6C7461676520686173206265656EB5
:1093B000207365742076696120425420746F2025E3
:1093C00075005261696E737465616D20416E616CE8
:1093D0006F670052656164205261696E73746561E4
:1093E0006D20416E616C6F673A202564206465676B
:1093F000726565732063656C73697573005265618E
:1094000064206C69717569643A202575006C697116
:109410007569640052656164205049523A2025758F
:109420000068756D616E4465746563746F72005297
:1094300061696E20737465616D3A20257500507204
:109440006576696F75732048756D616E206465740B
:109450006563746F722073746174653A20257500BA
:1094600048756D616E206465746563746F723A202F
:109470002575006E6F7420636F6E6E65637465642E
:10948000207965742E2E2E200043757272656E74DD
:1094900020286E6F742063757272656E746C79200B
:1094A000696D706C656D656E7465642900526561E7
:1094B000642063757272656E7420286E6F74206309
:1094C000757272656E746C7920696D706C656D650E
:1094D0006E746564293A202575007261696E737433
:1094E00065616D006C696768740053746172742003
:1094F0006164766572746973696E67007069720081
:1095000062343832643535312D633361652D34640E
:1095100064652D623132352D6365323434643738F9
:10952000393662300038386261326635642D316513
:1095300039382D343961662D383639372D64303558
:1095400031366466303362653900626337663138BC
:1095500064392D326334332D343038652D626532F1
:10956000352D363266343036343539383763003984
:10957000373732386164392D613939382D34363214
:10958000392D623835352D656532363538636130B1
:10959000316637000000000000000000D34E0D00CF
:1095A000C94E0D00BF4E0D00B54E0D00A94E0D0069
:1095B0009D4E0D00914E0D00894E0D007F4E0D0009
:1095C000754E0D00B97F0D00000000000000000086
:1095D000F14E0D00F34E0D000000000000000000F1
:1095E0008F500D0095500D00A95D0D00BF500D006E
:1095F00091500D00000000000000000089500D0097
:10960000A3500D00B55E0D00C3500D008B500D0032
:10961000000000000000000083500D00B1500D005C
:1096200069580D00C7500D0085500D007BE327746D
:109630007BF815ACDD49A913000072F577697269F2
:109640006E672E626C650053746172742064697376
:10965000636F766572696E6720736572766963659C
:10966000732E00537461727420646973636F76653E
:1096700072696E6720636861726163746572697391
:10968000746963732E005065657220646576696342
:1096900065206973206D697373696E672100466187
:1096A000696C656420746F20617070656E642070F1
:1096B0006565722043656E7472616C2064657669BD
:1096C00063652E00436F6E6E656374656420627916
:1096D0002043656E7472616C206465766963652EE3
:1096E00000446973636F6E6E6563746564206279AC
:1096F0002072656D6F7465206465766963652E0000
:1097000043616E6E6F7420616464206E65772070B3
:10971000656572206465766963652E004E65772005
:109720007065726970686572616C20697320636F1F
:109730006E6E65637465642E004661696C656420B5
:10974000746F20617070656E6420646973636F76F6
:1097500065726564206368617261637465726973C0
:109760007469632E004661696C656420746F2061C2
:109770007070656E6420646973636F76657265648A
:1097800020736572766963652E004661696C656455
:1097900020746F20617070656E64206C6F63616C03
:1097A0002063686172616374657269737469632EA2
:1097B000004475706C6963617465642063686172EC
:1097C000616374657269737469632063616E6E6F3F
:1097D000742062652061646465642E00FB349B5FC5
:1097E0008000008000100000000000000000000069
:1097F00000000000D1620D00F7620D00AB620D00A9
:10980000C7800D0000000000000000004D670D0043
:1098100061670D00A9700D00B3620D00626175648F
:109820000053657269616C0053657269616C310047
:109830007479706500706172616D00636D640068B9
:109840006E64007374726D0066696C74006C766C83
:109850000061646448616E646C65720072656D6F6E
:10986000766548616E646C657200656E756D486101
:109870006E646C657273004A534F4E537472656127
:109880006D4C6F6748616E646C657200617070004A
:10989000253031307520005D20002564002C20002B
:1098A00028293A2000205B00636F6465203D20007A
:1098B00025690064657461696C73203D20000D0AA0
:1098C000006C6E00666E00636F64650064657461B1
:1098D000696C006E6F6E6500747261636500696E1D
:1098E000666F007761726E006572726F72007061F0
:1098F0006E696300616C6C000000000000000000F5
:1099000021670D0039670D00F56E0D00CF400D0089
:109910000000000000000000CF620D0005630D0094
:109920001D6E0D00B5620D0000000000000000007B
:10993000CD620D0013630D0065660D0021630D00FF
:109940005A00252B3033643A253032750025592DC5
:10995000256D2D25645425483A254D3A2553257A01
:109960000061736374696D65000000000000000011
:109970000000000011740D0017740D005B740D00E1
:1099800025740D0013740D0000000000000000009D
:10999000A9790D0099790D009B790D000000000058
:1099A00000000000817A0D00D17A0D00DF7A0D00F1
:1099B0008D610D00BD7A0D00837A0D00997A0D003E
:1099C000CB7A0D00AF7A0D007D7A0D00000000000B
:1099D00000000000957B0D00E57B0D00F37B0D0082
:1099E0008D610D00A97B0D00CB7B0D00B77B0D00B9
:1099F000DF7B0D00977B0D009B7B0D0000000000BE
:109A000000000000D57C0D001F7D0D00F77C0D00CF
:109A1000D77C0D00FF7C0D00077D0D000F7D0D0034
:109A2000177D0D000000000000000000B77D0D0054
:109A3000AD7D0D00A37D0D00997D0D008D7D0D0088
:109A4000817D0D00757D0D006D7D0D00637D0D0028
:109A5000597D0D00B97F0D000000000000000000DE
:109A6000337F0D00297F0D001F7F0D00D57E0D0077
:109A7000137F0D00077F0D00FB7E0D00F37E0D00B0
:109A8000E97E0D00DF7E0D00B97F0D0000000000B3
:109A900000000000517F0D005B7F0D00657F0D0011
:109AA0006F7F0D00797F0D00857F0D00917F0D0088
:109AB0009D7F0D00A57F0D00AF7F0D00B97F0D00CC
:109AC000302E300066616C73650074727565002518
:109AD0002E2A6C66002567006E756C6C007525304B
