:02000002D0002C
:1040000000400D00FCC60D00000006000C0005017C
:084010000401E80500000000B6
:04401800CCB00D001B
:10401C0009480A49884208B505D0094A824202D0AB
:10402C00121A06F0D8FE0748074A0021121A06F0A9
:10403C00F8FE014808BD00BF34D8032044C60D006B
:10404C00C4D80320C4D80320F0E7032070B505F0D2
:10405C0035FA074C074BE41AA40800251E46A54266
:10406C0004D056F8253098470135F8E770BD00BFED
:10407C003CC60D00FCC50D0000F034BB08B500F0CB
:10408C003DF9BDE8084005F0DBB902F039BB02F0A0
:10409C0037BB02F03DBB02F03BBB000008B5034A46
:1040AC0000210C2002F048FAFEE700BFC1610D00B0
:1040BC000078B0FA80F04009704701230370704714
:1040CC007047006A0368DB681847000008B502F007
:1040DC0082FC024B1860012008BD00BF44D80320AD
:1040EC0008B502F078FC024B1860012008BD00BF37
:1040FC003CD8032008B502F06EFC024B186001207E
:10410C0008BD00BF38D8032008B502F064FC024B90
:10411C001860012008BD00BF4CD8032008B502F080
:10412C005AFC024B1860012008BD00BF40D8032088
:10413C0010B50446006808B102F0EAFA204610BD3A
:10414C0010B50446006808B1FFF7A3FF204610BD68
:10415C000A4B10B50446036004F03CFA214604F007
:10416C0029FC05F0BFFD05F0B1FD2046044B40F8DD
:10417C00043B04F025FB204610BD00BF00B10D0030
:10418C00E8B00D0010B50446FFF7E2FF20462421ED
:10419C0006F0A4FC204610BD0EB400B58CB00DAAE0
:1041AC00202352F8041B03928DE806000493016847
:1041BC00002304AA1E20059302F0CEF90CB05DF882
:1041CC0004EB03B07047000008B502460B460248EA
:1041DC000249FFF7E1FF08BD0CE4032010B10D000C
:1041EC0010B590F90040044904482246FFF7D4FF6B
:1041FC00034B1C7010BD00BF27B10D000CE4032055
:10420C0048D8032010B50478034904482246FFF728
:10421C00C3FF034B1C7010BD52B10D000CE4032006
:10422C0034D8032013B50388ADF80630BDF806402A
:10423C00044905482246FFF7AFFF044B1C7002B03F
:10424C0010BD00BF6CB10D000CE4032049D8032055
:10425C0013B50388ADF80630BDF90640044905488E
:10426C002246FFF799FF044B1C7002B010BD00BF33
:10427C008BB10D000CE403208CE3032008B503493B
:10428C0090F900200248FFF787FF08BDA4B10D008C
:10429C000CE4032007B50388ADF80630BDF8062002
:1042AC0003490448FFF778FF03B05DF804FB00BF37
:1042BC00BEB10D000CE4032010B504780A490B487C
:1042CC002246FFF769FF0CB9094902E0012C04D121
:1042DC0008490648FFF760FF10BD2246064903480F
:1042EC00FFF75AFF10BD00BFDBB10D000CE403203B
:1042FC00F9B10D0012B20D002DB20D002DE9F041F7
:10430C0090B000230093A24AA249A34801F09EFB5F
:10431C00A24803F069F8002840F0DC80A04803F0C4
:10432C0063F80546002840F0D5809E499E489F4F73
:10433C00FFF732FF03F0B8F81E229C4903F00AF98C
:10434C000646B54280F2BE8054246C4306A802F0A7
:10435C007BFC04F10800012206A9384402F0DAFEC5
:10436C00934980469048FFF717FF3C4491490BA8AE
:10437C0002F0B5FA0022214602A802F054FC02A970
:10438C000BA802F001FB01688748FFF705FF02A8A4
:10439C0002F05EFA0BA802F05BFA87490BA802F058
:1043AC009EFA002206A902A802F0DEFD02A90BA8C3
:1043BC0002F0EAFA01687C48FFF7EEFE02A802F070
:1043CC0047FA0BA802F044FA7C490BA802F087FAD2
:1043DC0000227B4902A802F0C7FD02A90BA802F03B
:1043EC00D3FA01687048FFF7D7FE02A802F030FA42
:1043FC000BA802F02DFA73490BA802F070FA0022F8
:10440C00714902A802F0B0FD02A90BA802F0BCFA97
:10441C0001686548FFF7C0FE02A802F019FA0BA864
:10442C0002F016FAB8F1000F4AD0654906A802F05E
:10443C00ABFC00285CD05C486449FFF7ADFE5748E4
:10444C0002F0D2FF00284CD103F02EF801232246B3
:10445C0001460BA803F030FD0BA9504803F0A7F957
:10446C000BA803F0C7F84D4802F0BEFF002836D069
:10447C0057494D48FFF790FE56490BA802F0FAFC3D
:10448C000BAA5549454803F06EF954490BA802F0A4
:10449C00F1FC0BAA5249414803F065F951490BA8AC
:1044AC0002F0E8FC0BAA50493C4803F05CF94F4978
:1044BC000BA802F0DFFC4E4938480BAA03F053F965
:1044CC0001353EE7002E5FDD32464A493648FFF79C
:1044DC0063FE59E001F076FE474B186054E0474903
:1044EC0002E0474900E047492F48FFF755FEE7E750
:1044FC00354906A802F048FC0028E1D02A48424978
:10450C00FFF74AFE264802F06FFF00283AD102F06E
:10451C00CBFF0123224601460BA803F0CDFC0BA9CF
:10452C001F4803F044F90BA803F064F81C4802F090
:10453C005BFF0028D7D035491B48FFF72DFE3449C7
:10454C000BA802F097FC0BAA3249154803F00BF9A3
:10455C0031490BA802F08EFC0BAA3049104803F02D
:10456C0002F92F490BA802F085FC0BAA2D490C4827
:10457C0003F0F9F82C490BA802F07CFC0BAA2B4990
:10458C0007489BE72A49AFE710B0BDE8F08100BFB0
:10459C0075B20D007AB20D00F0D80320A0E3032011
:1045AC0074D90320F6B40D000CE4032080D9032049
:1045BC008AB20D00A4B20D00AEB20D00BBB20D005C
:1045CC0044D90320CEB20D00C8D8032007B50D0086
:1045DC00E1B20D000AB30D0064D903202FB30D0016
:1045EC0090E3032054B30D00DCD8032079B30D0005
:1045FC006CD90320E5B40D0060D903209EB30D00E7
:10460C00C2B30D00A0B40D001CB50D00E3B30D003A
:10461C000CB40D0060E3032031B40D0098E30320CB
:10462C0056B40D0058E303207BB40D0058D9032079
:10463C00C4B40D0038B5046805467CB16368013B11
:10464C0063605BB9236820469B689847A368013B6D
:10465C00A3601BB923682046DB689847284638BD01
:10466C00F0B5114D002185B003462A460646084692
:10467C0002F05EF8441C204602F042F833462A460B
:10468C002146074602F054F8084B1B788DF8003091
:10469C0000223C23394602A805F0AAF803A8FFF72C
:1046AC00C9FF05B0F0BD00BF3CB50D007CD903209F
:1046BC0070B5046843681426054606FB0346A642FB
:1046CC0004D0204602F0C4F81434F8E7286802F04D
:1046DC001FF8284670BD00000246014804F078BF60
:1046EC00B1950D0030B546494648474D8BB001F0A9
:1046FC0021FD4349434801F01FFD4149414801F068
:10470C001DFD42493F4801F01BFD0FCD6C460FC407
:10471C0095E80F0084E80F003D4B3E4939483E4D6B
:10472C0040F25B7201F0E0FC28B141F2883135486F
:10473C0001F030FB30B92B788DF8003000223C238F
:10474C0036490DE000242346354A364900942D485D
:10475C0001F07CF92B7834498DF8003022463C234B
:10476C0008A805F045F809A8FFF764FF012241F6F7
:10477C00C67108A88DF8202001F096FE02F094FE78
:10478C0002F0D8FE00222949294802F0BFFD002280
:10479C002849294802F0BAFD00222849284802F08D
:1047AC00B5FD00222749284802F0B0FD0022274918
:1047BC00274802F0ABFD00222649274802F0A6FD4F
:1047CC0000222649264802F0A1FD26492648FFF77B
:1047DC0083FF26492648FFF77FFF26492648FFF727
:1047EC007BFF26492648FFF777FF26492648FFF727
:1047FC0073FF26492648FFF76FFF0BB030BD00BF93
:10480C006D460D00F0D80320A8B60D00D5410D0063
:10481C0055B50D005FB50D007CD9032002B60D0017
:10482C001DB60D007AB20D0029B60D00ED410D003C
:10483C0064D9032011420D0090E303205D420D006A
:10484C00DCD8032031420D006CD9032089420D00C5
:10485C0060E30320A1420D0098E30320C5420D0044
:10486C0058E30320354A0D0072B50D00D9400D00F8
:10487C0082B50D00ED400D009EB50D0001410D00FF
:10488C00BBB50D0015410D00D3B50D0029410D0030
:10489C00EBB50D008842F8B506460C46154616D900
:1048AC00904215D2A2F114056C1AA1F1140704441C
:1048BC00AF421CD02CB12946204601F0B9FF2B7C0D
:1048CC002374284601F0C4FF143D143CF0E70ED0CD
:1048DC00AC420CD02EB12146304601F0A9FF237C0E
:1048EC003374204601F0B4FF14341436F0E7F8BDED
:1048FC002DE9F04100230360436083604E689E42C3
:10490C0004460F4624DD4FF0140808FB06F001F0B6
:10491C00F7FE0546E0B194E8060008FB0212FFF72B
:10492C00B9FF206801F0F4FE2560A6603E687B6844
:10493C0008FB0368464509D02DB13146284601F0E5
:10494C00F0FF337C2B7414361435F3E77B6863600B
:10495C002046BDE8F0812DE9F843436804681C1B30
:10496C00A41014BF23460123E4180646894602D23C
:10497C00B4F1804F25D36FF04044A000FFF785FBC6
:10498C000746D6F800807568D9F80030C8EB0505E5
:10499C00EF4218BF7B51AB0804D02A46414638463B
:1049AC0006F024FA04353D44B8F1000F02D040461D
:1049BC00FFF76FFB07EB840437607560B460BDE8EC
:1049CC00F883002CD9D12746DBE7000013B5134C34
:1049DC00237813B10023019301E0012201920422F8
:1049EC000DEB02010E4802F0EFFB04F0A1FC0D4BA5
:1049FC00019099685A688A42194605D002B1106034
:104A0C004B6804334B6003E001A91846FFF7A3FF82
:104A1C00237883F00103237002B010BDA8E30320B8
:104A2C0058D90320ACE3032030B585B004461449B3
:104A3C00684601F054FF6946204601F0B1FF054677
:104A4C00684601F005FF1DB10E4B1B7893B90FE0C2
:104A5C000D49684601F043FF2046694601F0A0FF6E
:104A6C000446684601F0F4FE34B1064B1B780BB1DA
:104A7C00FFF7ACFF012000E0204605B030BD00BFC1
:104A8C0047B60D00A8E303204AB60D00F0B5684BFD
:104A9C00684D8DB0012600241E7001F073FB4FF69B
:104AAC00FF736B8130462C60AC80AC712C8101F0B3
:104ABC0073FD614A6149284606F003F8009401949D
:104ACC00029405F00FF96946074603A85C4DFFF701
:104ADC000FFF03A906A8FFF70BFF5A4B2B6006A983
:104AEC0009A8FFF705FF09AA3146281D04F0C9F8EB
:104AFC0009A8FFF7DDFD06A8FFF7DAFD524B2B6086
:104B0C002F6203A8FFF7D4FD504B2B6005F0EAF899
:104B1C004FF4165105F0D6F803F05CFD294604F06D
:104B2C0043F86846FFF7C4FD434A4949284605F057
:104B3C00C8FF4848404A484904604460846005F016
:104B4C00C0FF4648464D02F0AFFD3B4A454943483D
:104B5C0005F0B7FF444802F0A7FD374A41494248E7
:104B6C0005F0AFFF4149424802F084F941494248FF
:104B7C0002F080F9414803F003FA2F4A40493F48BC
:104B8C0005F09FFF3F4803F0FBF92B4A3C493D4899
:104B9C0005F097FF3C4803F0F3F9274A38493A48A7
:104BAC0005F08FFF394803F0EBF9234A34493748B5
:104BBC0005F087FF364803F0E3F91F4A30493448C3
:104BCC0005F07FFF334803F0DBF91B4A2C493148D1
:104BDC0005F077FF304803F0D3F9174A28492E48DF
:104BEC0005F06FFF2D4803F0CBF9134A24492B48ED
:104BFC0005F067FF40F6D816281901F0A5FF04F15F
:104C0C000800284402F02FFA04F12C0028445434F4
:104C1C0002F029FAB442EFD14FF48071204800F031
:104C2C007BF8054A1F491E4805F04BFF0DB0F0BD3F
:104C3C007CD90320E4D80320C4D803203D410D00C7
:104C4C0068E30320E8B00D0058C20D0000B10D0060
:104C5C005D410D00ACE303204D410D00A0E30320AA
:104C6C0080D9032001760D0074D903204EB60D00B7
:104C7C0044D9032073B60D00C8D8032064D903208F
:104C8C00F3750D0090E30320DCD803206CD90320CE
:104C9C0060E3032098E3032058E3032058D9032052
:104CAC00F0D8032051610D0001F06CBA08B54068D2
:104CBC0003681B6B9847003018BF012008BD10B566
:104CCC008AB08DE80C000C46202102910021039142
:104CDC000B4602AA0168204601F03EFC0AB010BD4A
:104CEC000EB403B503AB012153F8042B0193FFF76A
:104CFC00E6FF02B05DF804EB03B070470EB403B5E9
:104D0C0003AB282153F8042B0193FFF7D8FF02B013
:104D1C005DF804EB03B0704738B50C4B03600A2206
:104D2C00002380F8283080F82E2003638185044608
:104D3C001C20FFF7AAF9054608B105F0FDFB6560DC
:104D4C00A08DFFF7A4F9A060204638BDCCB60D00AD
:104D5C0090F828300BB1FFF7A9BF1846704710B573
:104D6C000446FFF7F5FF20B92046BDE81040FFF7D9
:104D7C009DBF002010BD10B590F8344054B1036BAA
:104D8C0043B10022A24205DA33F81200884203D064
:104D9C000132F7E7002010BD012010BDF8B590F8E6
:104DAC00346090F82E30B34204460DD9056B6DB1CA
:104DBC00FFF7E1FF58B925F8161094F83430013399
:104DCC0084F834300120F8BD0020F8BD2846F8BD29
:104DDC00002370B513800524012586680B88F35CCD
:104DEC00168803F07F0313FB05F33344013C138057
:104DFC0007D10B8801330B800749FFF77FFF204653
:104E0C0070BD0B888668F6560133002E4FEAC51527
:104E1C000B80E2DB012070BDD5B60D0070B51D46D0
:104E2C000C460B888168164619442A46304605F014
:104E3C00D2FF002373552288AB18238070BD0B88DA
:104E4C008268D05C1A44023352780B8042EA00200C
:104E5C0070470000F0B585B004A91D4621F8022D5D
:104E6C0004469DF82870FFF7EAFF022D1FBFBDF81E
:104E7C000E30A268591CADF80E1018BFD55C0E4947
:104E8C000E4A08BF002506460346002F18BF0A46E7
:104E9C0000950B492046FFF77FF925B1636C43B1B0
:104EAC002846984705E0236C1BB187F0010130467A
:104EBC00984705B0F0BD00BFF5B60D00F9B60D0072
:104ECC00FDB60D0037B502A91D4621F8022D04468A
:104EDC00FFF7B5FF022D1CBFBDF80630A1680246D6
:104EEC001EBF581CADF80600CB5C044908BF00235C
:104EFC002046FFF751F903B030BD00BF2FB70D00AE
:104F0C002DE9FF4104A9044621F8022D1E46FFF7A6
:104F1C0096FFBDF80E20A368511CADF80E1080460C
:104F2C00985C10B90125023E14E0A36CDBB19847E4
:104F3C0019E0BDF80E30A268591CADF80E10D75C04
:104F4C0000972B46424609492046FFF725F9022FC8
:104F5C0003D80135B542ECDB05E0A36C002BF8D08F
:104F6C0038469847F5E704B0BDE8F08167B70D0007
:104F7C002DE9FF4104A9044621F8022D1E46FFF736
:104F8C005EFFBDF80E20A368511CADF80E108046D4
:104F9C00985C10B90125023E14E0E36CDBB1984734
:104FAC0019E0BDF80E30A268591CADF80E10D75C94
:104FBC0000972B46424609492046FFF7EDF8022F91
:104FCC0003D80135B542ECDB05E0E36C002BF8D0DF
:104FDC0038469847F5E704B0BDE8F081B9B70D0045
:104FEC0010B50C888368185D23440434DA7842EADF
:104FFC000062587842EA004298780C8042EA00201D
:10500C0010BD0000F8B5113900AF0446154619293A
:10501C0000F2C580DFE801F00D307AC3A7BEC3C330
:10502C00C381C394C3C350C31343C31C23632A65F6
:10503C006C731146FFF7D4FF5B49024604E011463E
:10504C00FFF7FDFE594902462046FFF749FEA9E04D
:10505C002B888268591C2980D25C5549F4E72B882F
:10506C008268591C2980D25C5249EDE71146FFF742
:10507C00B7FF51490246E7E71146FFF7E0FE00F1A2
:10508C00080222F007026E46ADEB020D03466A469B
:10509C0029462046FFF7C2FE6A46484975E011468C
:1050AC0090F82E60FFF7CBFE8642324628BF0246B0
:1050BC0084F82E204249C7E71146FFF7C0FE00F1E5
:1050CC00080222F007026E46ADEB020D03466A465B
:1050DC0029462046FFF7A2FE6A463A4955E03A496E
:1050EC0059E02B888268591C2980D25C3749ABE780
:1050FC002B888268591C2980D25C3549A4E72B88FF
:10510C008268591C2980D25C32499DE71146FFF711
:10511C0096FE3149E084024696E71146FFF78FFE72
:10512C0000F1080222F007026E46ADEB020D0346B9
:10513C006A4629462046FFF771FE6A46274924E055
:10514C001146FFF77CFE00F1080222F007026E46C2
:10515C00ADEB020D03466A4629462046FFF75EFE7C
:10516C006A461F4911E01146FFF769FE00F108027B
:10517C0022F007026E46ADEB020D03466A46294645
:10518C002046FFF74BFE17496A462046FFF7A8FD5D
:10519C00B54607E014492046FFF7A2FD02E013498B
:1051AC00FFF7ACFDBD46F8BD0DB80D002AB80D00DB
:1051BC003EB80D004EB80D0063B80D007CB80D0064
:1051CC009BB80D00B3B80D00C5B80D00D3B80D00D9
:1051DC00F7B80D001EB90D0040B90D0056B90D0001
:1051EC006FB90D0084B90D009EB90D00B2B90D0058
:1051FC00F8B5082900AF0446154629D00CD8022969
:10520C0017D003293BD0012950D12B888268591C17
:10521C002980D25C284912E00B292CD003D809290B
:10522C0044D1264928E023290CD026293ED12449F3
:10523C0022E01146FFF7D4FE224902462046FFF732
:10524C004FFD37E01146FFF7FAFD1F490246F5E71F
:10525C001146FFF7F4FD00F1080222F007026E463A
:10526C00ADEB020D03466A4629462046FFF7D6FDF4
:10527C006A46164915E01649FFF732FD1AE0114649
:10528C00FFF7DDFD00F1080222F007026E46ADEBE0
:10529C00020D03466A4629462046FFF7BFFD0D491D
:1052AC006A462046FFF71CFDB54603E00A49204636
:1052BC00FFF724FDBD46F8BDCBB90D0028BA0D0093
:1052CC00C5B80D00E8B90D0005BA0D0015BA0D00F2
:1052DC0039BA0D0051BA0D0062BA0D00F8B504468A
:1052EC00406803680D46DB6817460A46A168984774
:1052FC0086B260680368DB69984700F063FFA061C1
:10530C0027B194F83530013384F83530AB1B584253
:10531C005841F8BDF7B5002307460D4616460193D4
:10532C00144602A904F07F0251FA83F1E40918BF74
:10533C0042F0800201F8042C0133002CF1D12988B1
:10534C00BA8D4B1C9819904205DD38460B49FFF776
:10535C00D5FC20460FE0B86832460144184405F0ED
:10536C0045FDBA682B889DF80410D1542A88324424
:10537C0001322A80012003B0F0BD00BF7BBA0D00C2
:10538C00F8B50C461D46238811465F19828D0137EE
:10539C009742064604DB0D49FFF7B0FC0020F8BD30
:1053AC008268581C20802812D0542388B268581C5C
:1053BC002080D5542388B0682A46184405F00BFD8C
:1053CC0023881D4425800120F8BD00BF7BBA0D0049
:1053DC0038B515460B88828D934204DB0549FFF7DF
:1053EC008DFC002038BD80685A1C0A80C5540120F1
:1053FC0038BD00BF7BBA0D0073B502AD002625F891
:10540C00026DC02229460446FFF7E2FF08B90020CE
:10541C0013E0324629462046FFF7DAFF0028F6D083
:10542C0007492046FEF7B8FE00F0CCFE324620625B
:10543C00BDF806102046FFF751FF02B070BD00BF4B
:10544C009DBA0D00F7B502AC002624F8026D0F468C
:10545C00E02221460546FFF7BBFF08B9002025E0F6
:10546C003A4621462846FFF7B3FF0028F6D03246CD
:10547C0021462846FFF74EFF0028EFD0BDF8062046
:10548C00013A012692B221462846ADF80660FFF794
:10549C0041FF0028E2D03A4605492846FEF77CFE3B
:1054AC003246BDF806102846FFF718FF03B0F0BDD2
:1054BC00B2BA0D00F8B50C461D4623881146828DF4
:1054CC005F19974204DD0749FFF718FC0020F8BD6F
:1054DC0080682A46184405F07EFC2288AB1823808D
:1054EC000120F8BD7BBA0D0070B50C88868D651C4B
:1054FC00B542034605DB32460749FFF7FFFB0020A8
:10550C0070BD80680D801512055598680B885C1C61
:10551C000C80C254012070BD7BBA0D0073B502AC77
:10552C00002324F8023D0E46402221460546FFF793
:10553C004FFF08B900201DE0324621462846FFF7F0
:10554C00D3FF0028F6D0BDF80620013A012392B211
:10555C0021462846ADF80630FFF7DCFE20B932466E
:10556C0005492846FEF718FE0022BDF8061028460D
:10557C00FFF7B4FE02B070BDD4BA0D0073B502AC27
:10558C00002324F8023D0E46502221460546FFF723
:10559C001FFF08B900201DE0324621462846FFF7C0
:1055AC00A3FF0028F6D0BDF80620013A012392B2E1
:1055BC0021462846ADF80630FFF7ACFE20B932463E
:1055CC0005492846FEF7E8FD0022BDF806102846DE
:1055DC00FFF784FE02B070BDF6BA0D002DE9F04F56
:1055EC0089B002AF07F11805C1F3410625F80A2D61
:1055FC008A46294604469B46BA60FFF720FC00F118
:10560C00080222F00702ADEB020D0DF1080903466A
:10561C004A4629462046FFF701FC2EB12946204672
:10562C00FFF70DFC804600E0B04607F11602294654
:10563C002046FFF7CDFB08B1FB8A83BBBB68FA8918
:10564C005B449B1A3EB100934A4643461E49204692
:10565C00FEF7A2FD04E04A461C492046FEF79CFDDD
:10566C00256D75B1F889BB68A16800961A1A5A4461
:10567C000AF0010301930144CAF3C00392B24846F5
:10568C00A847012E04D141462046FFF747FF17E0FB
:10569C00022E15D141462046FFF770FF10E0FB8922
:1056AC00F989FA8A7B60C81A9042C7DAA0684A1C4A
:1056BC00FA81415C2A462046FFF79AFD7B68EFE7AA
:1056CC001C37BD46BDE8F08F18BB0D004EBB0D005E
:1056DC0073B502AC002324F8023D0E46702221461D
:1056EC000546FFF775FE08B900201DE0324621463D
:1056FC002846FFF7F9FE0028F6D0BDF80620013A3F
:10570C00012392B221462846ADF80630FFF702FE7F
:10571C0020B9324605492846FEF73EFD0022BDF869
:10572C0006102846FFF7DAFD02B070BD7ABB0D00FB
:10573C0073B502A91D4621F8022D0446FFF77FFB25
:10574C00022D1FBFBDF80630A268591CADF806101B
:10575C0018BFD55C074908BF0025064602462B46F4
:10576C002046FEF719FD1DB931462046FFF7B0FF64
:10577C0002B070BD9DBB0D0070B50C88858DE61C0C
:10578C00AE42034605DB2A460E49FFF7B7FA002066
:10579C0070BD8068651C0D80150E055508889C68C9
:1057AC00451C0D80150C255408889C68451C0D80E3
:1057BC00150A255498680B885C1C0C80C254012077
:1057CC0070BD00BF7BBA0D002DE9F04F89B0994632
:1057DC009DF8583004931A9B059204460E469DF88A
:1057EC004CA0BDF86050DDF864800393FFF7B7FA66
:1057FC0008B90020F6E09DF848209DF8503008AF1D
:10580C004FF0000B42F0300227F804BD42EA4A0286
:10581C0042EAC302D2B239462046FFF7D9FD00282E
:10582C00E7D07DB129462046FFF7A5FA50B12A46AC
:10583C0020466E49FEF7B0FC5A4639462046FFF723
:10584C0053FE08E0304605F062FB324683B207A9EE
:10585C002046FFF795FD0028CBD0BAF1000F06D1FA
:10586C00BDF81C30ADF81E30049B7BB92EE0159BA7
:10587C0013B1159A638D1380628D531C638507A930
:10588C002046FFF731FE0028EAD1B2E701220DF1E4
:10589C001E012046FFF79CFD0028AAD001220DF125
:1058AC001E012046FFF794FD0028A2D002220DF124
:1058BC001E012046FFF78CFD00289AD0179A0DF197
:1058CC001E012046FFF758FF002892D07DB12322FD
:1058DC000DF11E012046FFF77BFD002889D02A46DA
:1058EC000DF11E012046FFF7FFFD002881D0B8F115
:1058FC00000F15D008220DF11E012046FFF768FDA0
:10590C0000283FF476AF404605F001FB424683B2D7
:10591C000DF11E012046FFF733FD00283FF469AF5F
:10592C00039B9BB109220DF11E012046FFF750FD90
:10593C0000283FF45EAFBDF86C30039A0DF11E01E8
:10594C002046FFF7B7FD00283FF453AF08AFBDF872
:10595C001E3037F8042D9A1A92B239462046FFF7BA
:10596C00D9FC00283FF445AF4B46059A39462046F2
:10597C00FFF7A0FD00283FF43CAFBDF81C20013A16
:10598C00012392B239462046ADF81C30FFF7C2FC19
:10599C0000283FF42EAFBAF1000F09D0628DCDF87C
:1059AC0000903346013A12492046FEF7F5FB05E01C
:1059BC004B4632460F492046FEF7EEFB25B12946F1
:1059CC002046FFF7EBF930B90122BDF81C10204638
:1059DC00FFF784FC06E02B46324607492046FEF7CB
:1059EC00DBFBF1E709B0BDE8F08F00BFBFBC0D00D9
:1059FC005ABC0D0092BC0D00D4BC0D002DE9F04337
:105A0C0007468BB0104688461646994605F07FFA35
:105A1C0015AD1FFA80FE0FCD04AC0FC495E8030042
:105A2C0084E80300149B03939DF84C3002939DF87B
:105A3C0048300193CDF800907346324641463846C3
:105A4C00FFF7C2FE0BB0BDE8F0830000F0B50D4DC2
:105A5C0096469C4606460F460FCD8BB003AC0FC442
:105A6C0095E8030084E80300109B02930023019344
:105A7C00CDF800C0724639463046FFF7BFFF0BB079
:105A8C00F0BD00BFF4BE0D0010B50446006B00F075
:105A9C003FFE00236068236384F8343084F8283098
:105AAC0084F835300368BDE81040DB6A1847000005
:105ABC007FB5002380F82830531C81689BB2ADF869
:105ACC0006308E5C0232ADF80620CD5C044605BB78
:105ADC000DF10E020DF10601FFF77AF910B1BDF8C8
:105AEC000E3013BB94F82E000123002563859840DB
:105AFC00256284F8245000F003FE84F834502063AF
:105B0C0015492046FEF748FBA36B13B306F00100C2
:105B1C0009E0FFF7B9FF2A4610492046FEF73CFB87
:105B2C00E36BB3B12846984713E0BDF80650BDF8B7
:105B3C000630BDF80E20591B9142D3DA5A1CA168CD
:105B4C00ADF80620C95C0DF106022046FFF75AFAA3
:105B5C00EDE704B070BD00BFF6BC0D000DBD0D002F
:105B6C0010B5044613B183689A5C00E01A462046CF
:105B7C000349FEF711FB2046BDE81040FFF784BF38
:105B8C002BBD0D0070B50C46A51E11461A46BDF86E
:105B9C0010300C2D31D8DFE805F0070B0F0F171B59
:105BAC00301F302330272C00BDE87040FFF780BF3A
:105BBC00BDE87040FFF712BD251F6C426C41049488
:105BCC00BDE87040FFF746B9BDE87040FFF7B0BDC7
:105BDC00BDE87040FFF776B9BDE87040FFF790B9AB
:105BEC00BDE87040FFF7C4B90023036280F824308D
:105BFC0070BDBDE87040FFF7B3BF22460149FEF708
:105C0C00CBFA70BD5CBD0D007FB50446FFF7A0F864
:105C1C0028B3606803681B6B9847054638B9204663
:105C2C00FFF732FF55492046FEF7B6FAA2E000F026
:105C3C00C9FAA369E28CC01A4FF47A7353439842A1
:105C4C000DD92046FFF720FF4D492046FEF7A4FA58
:105C5C00E36B002B00F08D808020984789E0606812
:105C6C0003681B699847002843D000F0ABFAE06149
:105C7C006068A28D0368A1689B6A984704AA0025F6
:105C8C000646012322F8025D03A92046ADF80C302C
:105C9C00FFF79EF858B3BDF80E30BDF80C20B6B225
:105CAC001A44964201D037495FE0A268127812116B
:105CBC000D2AD5B209D0032A07D00E2D1EBF94F899
:105CCC00351001F1FF3184F8351020462E49FFF7CD
:105CDC0007F8A268BDF80E101278BDF80C300091D0
:105CEC0002F00F0229462046FFF74CFF42E0054622
:105CFC0040E02046FFF733F800283AD000F062FA73
:105D0C00E369C01AE38C4FF47A756B43984207D25F
:105D1C0000F058FAA369C01AE38C5D43A84209D37A
:105D2C00236A4BB92046FFF767FB18B91749204681
:105D3C00FEF7E4FF236AE3B100F044FA236AC01AC9
:105D4C0040F6B733984214D994F82430012B10D86C
:105D5C00013384F824300E492046FEF71DFA204604
:105D6C00FFF74AFB054620B908492046FEF7C6FF57
:105D7C0000E00025284604B070BD00BF7ABD0D00C0
:105D8C0088BD0D009ABD0D00AEBD0D00D5BD0D003A
:105D9C00ECBD0D0070B504460E4600F013FA0E492A
:105DAC0005462046FEF79CFF00F00CFA401BB04263
:105DBC000CD22046FFF728FF94F83530002BF3D196
:105DCC0020460649FEF78CFF012070BD2046044991
:105DDC00FEF786FF002070BD23BE0D0035BE0D0002
:105DEC004EBE0D0082B02DE9F04F8FB004460591E8
:105DFC0018A981E80C001B9B1A9F0493DDF8749082
:105E0C00DDF878801F9DFEF7A3FF8246002840F046
:105E1C005B81BDF86430E3842046FEF7A0FF0646A4
:105E2C00002840F04D812169012384F82830A38A91
:105E3C0069B9E268A7492046FEF7AEF96068A28A04
:105E4C000368E168D3F824A03346D0471AE04878B9
:105E5C000A780293CB7801938B7800939E49034682
:105E6C002046FEF799F9D4F804A02169DAF800303D
:105E7C0008A8D3F820B003F0C5FE3346A28A08A9BF
:105E8C005046D847003018BF012020B9934920460E
:105E9C00FEF782F90CE00DF1380A00232AF81A3DBE
:105EAC0084F83530102251462046FFF791FA18B984
:105EBC002046FFF7E9FD01E10423894A51462046BB
:105ECC00FFF75EFA0028F3D0052251462046FFF773
:105EDC007FFA0028ECD09DF861109DF86230B9F182
:105EEC00000F4FEAC10114BF6FF07F02002241EA9C
:105EFC004311B8F1000F14BF4FF0400E4FF0000EDD
:105F0C0049B227B1049B181C18BF012000E0384689
:105F1C009DF8603041EA430313434EEA030242EA20
:105F2C00800202F0FE0251462046FFF751FA00288B
:105F3C00BED0E28C51462046FFF7D6FA0028B7D0E7
:105F4C00BDF81E30ADF82030002D4AD02B686BB157
:105F5C00112208A92046FFF73BFA0028A8D02A688E
:105F6C0008A92046FFF708FC0028A1D0AB886BB12C
:105F7C00212208A92046FFF72BFA002898D0AA88DE
:105F8C0008A92046FFF7B0FA002891D0D5F808B040
:105F9C00BBF1000F04D1B4F82CB0BBF1000F0ED044
:105FAC00272208A92046FFF713FA002880D05A466A
:105FBC0008A92046FFF7E0FB00283FF479AFAB8936
:105FCC007BB1222208A92046FFF702FA00283FF4F1
:105FDC006FAFAA8908A92046FFF786FA00283FF47C
:105FEC0067AFBDF82030BDF81E209A1A92B2514608
:105FFC002046FFF78FF900283FF45AAF059804F0BC
:10600C0086FF059A83B251462046FFF7B9F900285E
:10601C003FF44EAFFFB1049BEBB10022514620463A
:10602C00FFF778F900283FF443AF384604F06FFFD0
:10603C003A4683B251462046FFF7A2F900283FF4B6
:10604C0037AFBDF87030049A51462046FFF798F9E7
:10605C0000283FF42DAFB9F1000F0BD0484604F0E7
:10606C0056FF4A4683B251462046FFF789F900286D
:10607C003FF41EAFB8F1000F0BD0404604F047FFC1
:10608C00424683B251462046FFF77AF900283FF486
:10609C000FAFBDF81E20013A012592B251462046A1
:1060AC00ADF81E50FFF736F900283FF401AF2A4631
:1060BC00BDF81E102046FFF711F90646B24603E064
:1060CC0008492046FEF768F850460FB0BDE8F04F7F
:1060DC0002B070475EBE0D0081BE0D00ADBE0D005E
:1060EC00C8B60D00D5BE0D00F0B587B01F460EAD7D
:1060FC0000230361C160828206460FCD6C460FC43B
:10610C0095E8030084E803000CAB0CCB3946304611
:10611C00FFF768FE07B0F0BD10B50446FEF71FFE92
:10612C0018B100212046FFF78DF92046BDE810403C
:10613C00FFF7AABCC1637047416470478164704724
:10614C000165704710B50446FEF709FE28B12046DC
:10615C00FFF7E2FFA06800F0DBFA204610BD00F06C
:10616C0011B8000008B5024B1B689B68019308BD71
:10617C006802030008B5024B1B68DB68019308BD7D
:10618C006802030008B5024B1B681B68019308BD2D
:10619C002C02030008B5024B1B685B69019308BD18
:1061AC006C02030008B5024B1B685B68019308BDC9
:1061BC001802030008B5024B1B68DB68019308BD8D
:1061CC001802030008B5024B1B685B69019308BDFC
:1061DC001802030008B5024B1B68DB69019308BD6C
:1061EC001802030008B5024B1B689B6D019308BD98
:1061FC001802030008B5024B1B689B68019308BD8D
:10620C007802030008B5024B1B68DB6F019308BDD5
:10621C007802030008B5034B1B68D3F88430019354
:10622C0008BD00007802030008B5034B1B68D3F8C7
:10623C009830019308BD00007802030008B5034BA9
:10624C001B68D3F8B430019308BD0000780203003A
:10625C0008B5034B1B68D3F8BC30019308BD000094
:10626C007802030008B5034B1B68D3F8C4300193C4
:10627C0008BD00007802030008B5034B1B68D3F877
:10628C00D830019308BD00007802030008B5034B19
:10629C001B68D3F8DC30019308BD000078020300C2
:1062AC0008B5034B1B68D3F8E030019308BD000020
:1062BC007802030008B5034B1B68D3F8E430019354
:1062CC0008BD00007802030008B5034B1B68D3F827
:1062DC00F030019308BD00007802030008B5034BB1
:1062EC001B68D3F8F430019308BD0000780203005A
:1062FC0008B5034B1B68D3F80031019308BD0000AF
:10630C007802030008B5034B1B68D3F804310193E2
:10631C0008BD00007802030008B5024B1B689B689F
:10632C00019308BD4802030008B5024B1B681B69AA
:10633C00019308BD4802030008B5024B1B685B695A
:10634C00019308BD4802030008B5024B1B685B6C47
:10635C00019308BD4802030008B5024B1B689B6CF7
:10636C00019308BD4802030008B5024B1B68DB6CA7
:10637C00019308BD4802030008B5024B1B685B6D16
:10638C00019308BD4802030008B5024B1B685B690A
:10639C00019308BD6402030008B5024B1B681B6A1D
:1063AC00019308BD6402030008B5024B1B689B6A8D
:1063BC00019308BD6402030008B5024B1B681B68FF
:1063CC00019308BD3C02030008B5024B1B689B6897
:1063DC00019308BD3C02030008B5024B1B68DB6847
:1063EC00019308BD3C02030008B5024B1B681B69F6
:1063FC00019308BD3C02030008B5024B1B685B69A6
:10640C00019308BD3C02030008B5024B1B689B6955
:10641C00019308BD3C02030008B5024B1B68DB6905
:10642C00019308BD3C02030008B5024B1B689B6A34
:10643C00019308BD3C02030008B5024B1B68DB6AE4
:10644C00019308BD3C02030008B5024B1B689B6915
:10645C00019308BD3802030008B5024B1B68DB69C9
:10646C00019308BD3802030008B5024B1B681B6A78
:10647C00019308BD3802030008B5024B1B689B6AE8
:10648C00019308BD3802030008B5024B1B681B6B57
:10649C00019308BD3802030008B5024B1B689B6BC7
:1064AC00019308BD3802030008B5024B1B685B68FA
:1064BC00019308BD5802030008B5024B1B681B680A
:1064CC00019308BD4C02030008B5024B1B685B68C6
:1064DC00019308BD4C02030008B5024B1B689B6876
:1064EC00019308BD4C02030008B5024B1B681B69E5
:1064FC00019308BD4C02030008B5024B1B685B6995
:10650C00019308BD4C02030008B5024B1B689B6944
:10651C00019308BD4C02030008B5024B1B68DB69F4
:10652C00019308BD4C02030008B5024B1B681B6AA3
:10653C00019308BD4C02030008B5024B1B685B6B52
:10654C00019308BD6002030008B5024B1B681B6D6C
:10655C00019308BD6002030008B5024B1B685B6D1C
:10656C00019308BD6002030008B5024B1B68DB6E8B
:10657C00019308BD6002030008B5024B1B681B6F3A
:10658C00019308BD6002030008B5024B1B681B6831
:10659C00019308BD2002030008B5024B1B685B6821
:1065AC00019308BD2002030008B5024B1B68DB6C8D
:1065BC00019308BD2002030008B5024B1B685B6DFC
:1065CC00019308BD2002030008B5024B1B689B6DAC
:1065DC00019308BD2002030008B5034B1B68D3F8D8
:1065EC008830019308BD00002002030008B5034B5E
:1065FC001B68D3F89430019308BD000020020300FF
:10660C0008B5024B1B685B68019308BD4002030090
:10661C0008B5024B1B689B68019308BD4002030040
:10662C0008B5024B1B68DB68019308BD40020300F0
:10663C0008B5024B1B681B69019308BD400203009F
:10664C0008B5024B1B685B69019308BD400203004F
:10665C0008B5024B1B689B69019308BD40020300FF
:10666C0008B5024B1B68DB69019308BD40020300AF
:10667C0008B5024B1B681B6A019308BD400203005E
:10668C0008B5024B1B681B6B019308BD400203004D
:10669C0008B5024B1B685B6B019308BD40020300FD
:1066AC0008B5024B1B685B68019308BD44020300EC
:1066BC0008B5024B1B689B68019308BD440203009C
:1066CC0008B5024B1B685B69019308BD44020300CB
:1066DC0008B5024B1B681B6A019308BD44020300FA
:1066EC0008B5024B1B681B6B019308BD44020300E9
:1066FC0008B5024B1B68DB6B019308BD4402030019
:10670C0008B5024B1B681B68019308BD1C020300F3
:10671C0008B5024B1B685B68019308BD1C020300A3
:10672C0008B5024B1B689B68019308BD1C02030053
:10673C0008B5024B1B68DB69019308BD1C02030002
:10674C0008B5024B1B685B6A019308BD1C02030071
:10675C0008B5024B1B68DB6A019308BD1C020300E1
:10676C0008B5024B1B681B6B019308BD1C02030090
:10677C0008B5024B1B68DB6B019308BD1C020300C0
:10678C00002211464068FFF773BF00221146406893
:10679C00FFF77EBF00224068FFF772BF002281F036
:1067AC0001014068FFF75CBF00231A461946406898
:1067BC00FFF74EBF00231A4619464068FFF740BF4B
:1067CC00002211464068FFF733BF00221146406893
:1067DC00FFF71EBF002202214068FFF721BF0023F4
:1067EC001A464068FFF70CBF024B03225A60024A5C
:1067FC001A607047B8E3032014BF0D0010B5094CA4
:10680C0000204FF6FF732060A080A071208163816F
:10681C00FFF7C2FE2046044A0449BDE8104004F0CC
:10682C0050B900BFC0E30320C4D803203D410D0084
:10683C000023036043608360037310B50C6804602D
:10684C004C6844608C6884600B604B608B6010BD3E
:10685C0010B504460068FFF75BFF204610BD10B56D
:10686C000446006808B1FFF753FF00232360A360C0
:10687C00636010BD38B504460D4600680131FFF762
:10688C004FFF10B184E82100012038BD10B503681A
:10689C00044613B143688B4207D22046FFF7EAFF48
:1068AC0020B1A3680BB922681370012010BD70B51C
:1068BC000E46114604461546FFF7E8FF18B9204668
:1068CC00FFF7CDFF09E02A463146A560206804F0A9
:1068DC0082FA2268A3680021D154204670BD38B5D5
:1068EC000023044603604360836003730D4639B193
:1068FC00084604F00CFB294602462046FFF7D7FF5A
:10690C00204638BD884210B50B46044607D00968AE
:10691C0019B19A68FFF7CBFF01E0FFF7A0FF204603
:10692C0010BD10B5002304460360436083600373FD
:10693C00FFF7E8FF204610BD38B505460C4641B1BF
:10694C00084604F0E4FA214602462846FFF7AFFF5A
:10695C0001E0FFF784FF284638BD70B504460E46AB
:10696C0009B9002070BD6AB18368D5182946FFF7B4
:10697C008DFF0028F5D02068A3683146184404F038
:10698C00A3FAA560012070BD10B58A680968044699
:10699C00FFF7E3FF10B92046FFF761FF204610BD5B
:1069AC00884270B515D083688A6893420FD183B141
:1069BC0004680D68013C14F8010F50B104F074FB2D
:1069CC00064615F8010B04F06FFB8642F3D000204D
:1069DC0070BD012070BD006808B104F0DBB97047D0
:1069EC0070470020704770470020704770470020A8
:1069FC00704710B51421044604F070F8204610BD01
:106A0C0010B51421044604F069F8204610BD10B5E9
:106A1C001421044604F062F8204610BDFDF739BB82
:106A2C00FDF737BBFDF735BB10B50446006808B160
:106A3C00FFF792FC204610BD30B58BB020230546E5
:106A4C0000240293084B009302AA2346074903949F
:106A5C000120FFF779FD28680549008823462A465E
:106A6C00FFF7F6FB0BB030BD9FBF0D0094BF0D00C0
:106A7C0099810D0008B50A20024A0021FFF75CFD40
:106A8C0008BD00BFC1610D0010B5036804469B68CA
:106A9C009847A368013BA3602BB923682046DB68A9
:106AAC00BDE81040184710BD70B5931C01448842D6
:106ABC0018D00478240904F13005392D88BF04F16D
:106ACC003705064603F8025C347804F00F0404F131
:106ADC003005392D88BF04F1370503F8015C01300E
:106AEC000233E4E7104670BDA0F13003DAB2092A94
:106AFC0001D818467047A0F16103052B01D857380F
:106B0C007047A0F14103052B94BF37384FF0FF308D
:106B1C007047000010B500230370044B044618683E
:106B2C00FFF722FC01232370204610BDD4E3032081
:106B3C0010B5037804461BB1024B1868FFF71CFC18
:106B4C00204610BDD4E3032000220260426070474F
:106B5C0008B582798B799A4206D1062204F02CF979
:106B6C00B0FA80F0400908BD002008BD01390523AA
:106B7C00C25C01F8012F013BDBB2FF2BF8D170474F
:106B8C0070B5144688B01D460E46002946D0002A22
:106B9C0046D001A9FFF7EAFF03AA15B1062101A807
:106BAC002DE0012101A8FFF77FFF3A250DF10F021F
:106BBC0001210DF105008DF80E50FFF775FF0DF159
:106BCC00120201210DF106008DF81150FFF76CFF38
:106BDC000DF1150201210DF107008DF81450FFF78E
:106BEC0063FF06AA012102A88DF81750FFF75CFF7E
:106BFC008DF81A500DF11B0201210DF10900013C19
:106C0C00FFF752FF112C28BF1124224603A930464E
:106C1C0004F0E1F800233355601C02E0084600E064
:106C2C00104608B070BD10B586B004461346084631
:106C3C00122201A9FFF7A4FF01A92046FFF74FFE7E
:106C4C00204606B010BD000010B501230361054BB2
:106C5C00024603F1100153F8044B42F8044B8B42EB
:106C6C00F9D110BD34C10D000B7C13F0FD0330B510
:106C7C0010D103610D4B024603F1100453F8045B71
:106C8C0042F8045BA342F9D10B8803730B881B12E7
:106C9C00437330BD0123036101F11002034651F827
:106CAC00044B43F8044B9142F9D130BD34C10D0073
:106CBC0010B50B69036101F11002034651F8044B46
:106CCC0043F8044B9142F9D110BD10B50B46044664
:106CDC00B9B1012A09D1034601F1100251F8040B94
:106CEC0043F8040B9142F9D108E0411E0F22985C45
:106CFC0001F8010F013AD2B2FF2AF8D10123236126
:106D0C0002E0102204F08DF8204610BD38B5044680
:106D1C000D46FFF799FF002325732D0A2361657338
:106D2C00204638BD10B50B69036101F11002034612
:106D3C0051F8044B43F8044B9142F9D110BD10B5F6
:106D4C0086B00446012201A8FFF7BFFF01A9204627
:106D5C00FFF7E8FF06B010BD10B586B0044601A8D9
:106D6C00FFF7D4FF01A92046FFF7DCFF06B010BDEA
:106D7C0010B586B0044601A8FFF776FF01A920469E
:106D8C00FFF7D0FF06B010BD08B502690B699A4237
:106D9C0006D1102204F010F8B0FA80F0400908BDBA
:106DAC00002008BD0123F7B50361314B0E460546A3
:106DBC00024603F1100153F8040B42F8040B8B420A
:106DCC00F9D1002E51D02421304604F0BDF804280E
:106DDC0010D0002710242421304604F0B5F8B84216
:106DEC0001D944BB41E02C440023A5423DD004F81A
:106DFC00013DFAE73078FFF777FE041E18DB707858
:106E0C00FFF772FE002813DB40EA04108DF8040033
:106E1C00B078FFF769FE041E0ADBF078FFF764FE1A
:106E2C000028A1BF40EA04109DF8043028736B734E
:106E3C0000232B6119E0F05DFFF756FE030612D418
:106E4C00013C000128552421304604F07DF801371F
:106E5C00874208D2F05DFFF747FE40B20028A2BF80
:106E6C002B5D184328550137B5E703B0F0BD00BFC3
:106E7C0034C10D0038B504460D46FFF7E5FE20463B
:106E8C002946FFF78FFF204638BD01390F23C25C1E
:106E9C0001F8012F013BDBB2FF2BF8D170472DE934
:106EAC00F04198468EB00D46002957D0002A57D095
:106EBC000669541EAEB9027B437B059643EA022356
:106ECC00022105AA01A8ADF80430FFF7EDFD042C52
:106EDC0028BF0424224605A9284603F07CFF2E5522
:106EEC003AE001A9FFF7D1FF05AAB8F1000F02D0D3
:106EFC00102101A824E004210DEB0100FFF7D4FDC3
:106F0C002D260DF11D02022102A88DF81C60FFF741
:106F1C00CBFD0DF1220202210DF10A008DF821604A
:106F2C00FFF7C2FD0DF12702022103A88DF82660A0
:106F3C00FFF7BAFD8DF82B600BAA06210DF10E00A0
:106F4C00FFF7B2FD242C28BF2424224605A928468D
:106F5C0003F041FF00232B55601C02E0084600E0C3
:106F6C0010460EB0BDE8F08110B58AB0044600237F
:106F7C00252208466946FFF792FF69462046FFF72F
:106F8C00AEFC20460AB010BD38B5054601B112B9A9
:106F9C000020286238BD1F2A28BF1F22144603F088
:106FAC001AFF2C62204638BDF0B58BB10024E51CCD
:106FBC008D420FD8661C055D875D974205D12E4426
:106FCC00B14207D31C60681CF0BD01352C44EEE7C0
:106FDC001846F0BD0020F0BD2DE9F74304460E46DF
:106FEC001D461746002A3AD00A4601AB016AFFF744
:106FFC00DBFF9DF82830226A03BBF8B1961C2E44A7
:10700C00361A1F2E2BD8DDF8048008F10209C8EBC4
:10701C000202121A00EB080105EB090092B221449E
:10702C00204403F0E3FE6B1C04F808302A46394672
:10703C0004EB090003F0CFFE266210E0901C2B1825
:10704C001F2B0CD86B1CA35422442062394656705B
:10705C0020442A4603F0BFFE226A2A442262206A98
:10706C0003B0BDE8F0831FB50446034600F11F02D0
:10707C00002003F8010B93424FF00001F9D104AA50
:10708C00062302F8013D0123216200912046194696
:10709C00FFF7A2FF204604B010BD2DE9F04F0025EC
:1070AC0085B00646894617469A462C464FF014087A
:1070BC00316A8D422AD203AB4A46491B7019FFF73D
:1070CC0073FF834610B3544520D2042803990CD186
:1070DC0029447218631CD1789278019342EA0121F9
:1070EC0008FB0470FFF738FE0AE012280AD10231BF
:1070FC002944631C314408FB04700193FFF71FFE05
:10710C00019B1C46039B5B441D44D1E7204605B004
:10711C00BDE8F08F2DE9F04113460D4616460A46A0
:10712C0002210746FFF7B9FF4FF01408331A08FB8A
:10713C000052044603213846FFF7AFFF0444331BCB
:10714C0008FB045206213846FFF7A7FF0444331B03
:10715C0008FB045207213846FFF79FFF2044BDE887
:10716C00F081000038B500254FF6FF7304464380CC
:10717C000E22294605700571063003F052FE04F10B
:10718C001400FFF761FD04F12800FFF75DFD0449D1
:10719C0004F13C00FFF7A3FBE5642565204638BDF0
:1071AC0018C20D0010B58369C26903EBC202934289
:1071BC00184606D0046824888C4203F10803F6D1E3
:1071CC0010BD002010BD00002DE9F34180461F4684
:1071DC000E4669B362B3F42A056828BFF42214463C
:1071EC002A78A2B12B79980707D500232246A889C3
:1071FC00FFF724F8002802DA43E06FF07700D8F8A4
:10720C0000502B79DA0618D5012F23D115E06888A8
:10721C004FF6FF7398420DD02B79590723D5012FC8
:10722C0021D0A989009223463246FFF72FF828E097
:10723C00154826E06FF0D10023E09A0621D5022FE5
:10724C001FD0A88900232246314602B0BDE8F04188
:10725C00FFF758B8A88900232246314602B0BDE892
:10726C00F041FFF745B81B0701D5022F02D16FF093
:10727C00770006E00023A989009332462346FEF7E7
:10728C00FBFF02B0BDE8F081F2FEFFFF70B50468B1
:10729C000E46217886B000292ED162884FF6FF73F6
:1072AC009A4229D0238A53B318252A46684603F0FC
:1072BC00B8FD0123ADF80030134BADF8025001932B
:1072CC0002946388ADF80C30238AADF80E30A38994
:1072DC00ADF810305EB123799A0644BF02230593B2
:1072EC002379DB0642BF059B43F001030593002184
:1072FC006846FEF7F3FF04E06FF0D10001E06FF099
:10730C00770006B070BD00BFF1740D000368D9643E
:10731C001A6570472DE9F0418AB020230E4602937E
:10732C0000252E4B009302AA2B462D4903950120D4
:10733C00FFF70AF93368DC681F694FF01C0804EB8F
:10734C00C7070834A4F108039F42326817D0ADF880
:10735C000A8054F8083C9B8AADF8203054F8083C5D
:10736C00DB8AADF822301088009533461D4A02A9FD
:10737C00FEF778FF002804F10804E3DA2AE09469A8
:10738C00D569002704EBC5050834A4F108039D4218
:10739C001FD054F8083CDB89CBB11422002102A881
:1073AC0003F03FFD54F8083CD989336802AA1888C9
:1073BC0000971323FEF774FF48B10AAB184402A9D7
:1073CC0000F8207C54F8080C3C30FFF7B5FA083470
:1073DC00DBE700200AB0BDE8F08100BFBBBF0D00A9
:1073EC0094BF0D00E17F0D00036818884FF6FF7302
:1073FC00C01A18BF0120704702680B68C2F802302F
:10740C004B68C2F80630704710B50A6852F8023F54
:10741C0003605368436010BD1FB502680B68128887
:10742C001B889A420C460CD101466846FFF7ECFFCC
:10743C00214602A8FFF7E8FF02A96846FFF788FB80
:10744C0000B9002004B010BD10B504463420FCF780
:10745C001CFE014668B10023036043608360C36077
:10746C00036143618361C361036243628362C362EC
:10747C000363216019B90A4A0A20FFF75DF800205E
:10748C00FEF7B8FE20B1064A00210A20FFF754F897
:10749C00002221680348FEF717FF204610BD00BFED
:1074AC00C1610D000D790D0010B50A4C2368DB0786
:1074BC000ED42046FCF7FCFD50B10748FFF7C4FF83
:1074CC002046FCF7FAFD054A0549034803F0F9FA92
:1074DC00014810BDD0E30320CCE30320C4D8032023
:1074EC0075760D0070B50368093B012B8AB0044614
:1074FC000E4619D8FFF7D8FFA1880068FFF752FE97
:10750C00024658B920230293084B0390009302AA19
:10751C00034607493220FFF717F805E0F56C1DB15B
:10752C00336DE1682069A8470AB070BDDEBF0D005D
:10753C0094BF0D0013B501A8FFF7ECFA0020FEF77D
:10754C0059FE044601A8FFF7F3FA04EAE47002B00E
:10755C0010BD000030B58BB00D4601A81446FFF7E6
:10756C00D9FAB5B1ACB1002202A90D480694029229
:10757C00039204920792089209920595FEF742FE37
:10758C000028B8BF04460298A8BF079CFFF7C0F8B4
:10759C0000E0044C01A8FFF7CBFA20460BB030BD3D
:1075AC007B7A0D00F2FEFFFF0B68036013B15A6883
:1075BC0001325A60704710B551F8043B044640F84C
:1075CC00043BFFF7F1FF23680BB9FFF753FA204692
:1075DC0010BD10B551F8043B044640F8043BFFF7CE
:1075EC00E3FF204610BD10B504460430FDF722F829
:1075FC00204610BD10B504460430FDF71BF820469C
:10760C0010BD70B504684368054604EBC306A6427A
:10761C0004D0201DFDF70EF80834F8E72868FFF7B2
:10762C0077F8284670BD70B504684368054604EBCE
:10763C00C306A64204D0201DFCF7FCFF0834F8E773
:10764C002868FFF765F8284670BD10B5046904F189
:10765C001800FFF7E8FF04F10C00FFF7D2FF2046FB
:10766C00BDE81040FCF715BDF8B504680746C4B179
:10767C00A569E36905EBC306AE4204D0281DFCF7EF
:10768C00D9FF0835F8E7A069FFF742F804F10C00C0
:10769C00FFF7C9FF2046FFF7B4FF3421204603F063
:1076AC001DFA3846F8BD000073B50025056045602D
:1076BC0006462420FCF7E9FC044678B103464FF655
:1076CC00FF7223F8022BC0F802505D608572C57200
:1076DC00C560056145618561C561056200231420A3
:1076EC000193FCF7D2FC034628B101224260826070
:1076FC00084A0260046102A8726840F8042D7360A5
:10770C003460FCF797FF33680BB9FFF7B3F93046D9
:10771C0002B070BD80BF0D0038B50C6803689C4288
:10772C0005460CD014B1636801336360286828B136
:10773C004368013B43600BB9FFF7A6F92C60284660
:10774C0038BD10B502680B680446D06C10B1D86413
:10775C00126D1A65204651F8043B40F8043BFFF7C4
:10776C00DBFF204610BD2DE9F04303689C69DE6900
:10777C0087B00F46904604EBC606B442A14611D022
:10778C0054F8081B01A81431FFF792FA414601A8DE
:10779C00FFF7FAFA05460028EFD049463846FFF7BE
:1077AC00D0FF00E00025284607B0BDE8F08310B5F7
:1077BC0051F8043B044640F8043BFFF7ADFF20466C
:1077CC0010BD884270B515461AD9904219D2A1F154
:1077DC000806511A0439151F44182B1F9E4225D038
:1077EC00042C07D055F8043C44F8043C29462046A8
:1077FC00FFF7DAFE2846FCF71DFF083D083CECE7D6
:10780C0014D00C1D061D231F9D420FD0042E07D033
:10781C0054F8043C46F8043C21463046FFF7C4FEBD
:10782C002046FCF707FF08340836ECE770BD2DE95D
:10783C00F041046843680546884604EBC307A74239
:10784C0018D041462046FFF7E7FD064608B9083434
:10785C00F5E78CB1201DFCF7EDFE2B686A6804F18E
:10786C00080103EBC2022046FFF7ABFF6B68013B3C
:10787C006B6002E0002600E026463046BDE8F08151
:10788C00F7B5044651F8043B4768009301A8FFF78D
:10789C008BFE6668A3689E4214DB0136002E0BDD5E
:1078AC00F000FEF72DFF054618B394E8060001EB37
:1078BC00C202FFF786FF00E000252068FEF728FFD4
:1078CC002560A6602668626806EBC70506EBC20257
:1078DC00294605F10800FFF774FF35B1009B46F807
:1078EC00373001A9281DFFF75FFE63680133636021
:1078FC00012501A8FCF79EFE284603B0F0BD000050
:10790C002DE9F04104468EB003A80D46FFF702F9AD
:10791C002368032B02D0042B42D087E004A8FFF786
:10792C00C3FE049B22891A806268049952F8083FAE
:10793C00C1F802305368C1F8063007A8049B0693BF
:10794C0005A9FFF731FE06A905F11800FFF798FF0E
:10795C00044607A8FCF76EFE2023069374B9364B39
:10796C00009306AA2346354907943220FEF7ECFD16
:10797C00049B21461888FEF757FC0DE0304A009214
:10798C00002306AA2D4907930120FEF7DDFD6B6A43
:10799C0013B1E96A04A8984705A8FCF74BFE45E02B
:1079AC0021892846FFF7FEFB074600283ED00468D5
:1079BC00A369E1694FF6FF72228003EBC101994282
:1079CC0003D053F8080B4280F9E7E668236906EB0D
:1079DC00C308B04504D0301DFCF72CFE0836F8E780
:1079EC0000232361A669E36906EBC308B04504D004
:1079FC00301DFCF71FFE0836F8E70023E361A37285
:107A0C00E372AB6A13B1296B3846984720230D4AB1
:107A1C0006930092002309490793012006AAFEF75A
:107A2C0093FD394605F11800FFF701FF03A8FFF796
:107A3C007FF80EB0BDE8F081F6BF0D0094BF0D00CD
:107A4C001CC00D0039C00D0038B50D1E044606DDF6
:107A5C00542169430068FEF763FE20B938BD006805
:107A6C00FEF756FE00202060A560012038BD70B5E1
:107A7C005426C0B0054632460C4601A8002103F03E
:107A8C00D0F903A8FFF7EFFA0CA8FFF7ECFA2A4697
:107A9C0001AB52F8100F5168EA8903C32B78A9681F
:107AAC008DF854300CA8FFF76FFAAA89696803A8FF
:107ABC00FFF76AFAA5691DB1E16901A8A8473CE086
:107ACC00E06898B163692269934239D25A1C6261A9
:107ADC0006FB0300512201A903F07DF962692369B9
:107AEC009A422DD32846FEF795FB29E0324601A990
:107AFC0016A803F070F9324616A92BA8656803F096
:107B0C006AF9A3689D4204DB691C2046FFF79CFFC1
:107B1C00B0B163682268542606FB052506FB0322D8
:107B2C00521B2946A81903F061F932462BA92846A5
:107B3C0003F051F963680133636063690133636176
:107B4C0040B070BD8842F8B506460C46154614D9AF
:107B5C00904213D2A2F108056C1AA1F10807044453
:107B6C00AF4218D01CB129462046FFF732FD281D24
:107B7C00FCF760FD083D083CF2E70CD0AC420AD0A3
:107B8C001EB121463046FFF724FD201DFCF752FDA7
:107B9C0008340836F2E7F8BD70B50E1E05460BDD4D
:107BAC00F000FEF7ADFD044670B195E8060001EB60
:107BBC00C202FFF7C7FF00E000242868FEF7A8FD0B
:107BCC002C60AE60012070BD70BD2DE9F04100232A
:107BDC000360436083600E4649689942044613DD96
:107BEC00FFF7DAFF80B135687368276805EBC308C7
:107BFC00454507D01FB129463846FFF7EAFC083542
:107C0C000837F5E7736863602046BDE8F08138B546
:107C1C000B689B7A05460C4633B90846FEF70CFFF9
:107C2C0010B9236801229A72216828460C31FFF79B
:107C3C00CCFF284638BD73B5044645686846FFF747
:107C4C00C8FC6168A368994205DB01312046FFF747
:107C5C00A3FF064698B12368626803EBC50503EBE6
:107C6C00C202294605F10800FFF76CFF1DB16946F9
:107C7C002846FFF7AEFC636801336360012601A858
:107C8C00FCF7D8FC304602B070BD8842F8B5064609
:107C9C000C46154614D9904213D2A2F108056C1A61
:107CAC00A1F108070444AF4218D01CB12946204664
:107CBC00FFF781FC281DFCF7BDFC083D083CF2E7F2
:107CCC000CD0AC420AD01EB121463046FFF773FCF3
:107CDC00201DFCF7AFFC08340836F2E7F8BD70B590
:107CEC000E1E05460BDDF000FEF70AFD044670B1D2
:107CFC0095E8060001EBC202FFF7C7FF00E0002485
:107D0C002868FEF705FD2C60AE60012070BD70BDCB
:107D1C002DE9F04100230360436083600E464968FF
:107D2C009942044613DDFFF7DAFF80B135687368BA
:107D3C00276805EBC308454507D01FB129463846CF
:107D4C00FFF739FC08350837F5E7736863602046A0
:107D5C00BDE8F08130B50B689B7A85B005460C46C2
:107D6C002BB901A8FFF753FF01A8FFF74AFC2368C2
:107D7C00DB7A3BB9214601A8FFF7CCFA10B923688E
:107D8C000122DA72216828461831FFF7C1FF284614
:107D9C0005B030BD2DE9F0430D4693B04FF01808F7
:107DAC00174606464246002104A81C4603F039F843
:107DBC0069682868079702AB03C34FF0010905AB4C
:107DCC0083E80300ADF81090ADF81280FFF76CFB60
:107DDC00344B0893FFF768FB002203683168099362
:107DEC0004A8FEF767FA074620B133684FF6FF7216
:107DFC001A8053E029463046FFF7FEFAFFF754FB92
:107E0C003146036812AD03F1180851F8043B45F8EC
:107E1C00203D0BA8FFF7C8FB29464046FFF730FD75
:107E2C0080460BA8FCF706FC20230A93B8F1000F40
:107E3C0014D11D4B00932A4643461C49CDF82C8087
:107E4C003220FEF781FB336841461888FEF7ECF9C7
:107E5C00336817484FF6FF721A801FE0154B0093DA
:107E6C002A463B4611490B974846FEF76DFBA4B1D9
:107E7C0031462846FFF76EFF0A9C0B9B04EBC306AA
:107E8C00A64205D020460121FFF700FA0834F7E797
:107E9C002846FFF7C8FB002000E0204613B0BDE8E1
:107EAC00F08300BF0D790D0058C00D0094BF0D007C
:107EBC00FCFEFFFF74C00D0070B5044615461E464F
:107ECC00FFF7F2FB3346002229462046FFF762FFFC
:107EDC00204670BD73B5044645686846FFF76BFBDA
:107EEC006168A368994205DB01312046FFF7F7FE74
:107EFC00064698B12368626803EBC50503EBC20222
:107F0C00294605F10800FFF7C0FE1DB16946284659
:107F1C00FFF751FB636801336360012601A8FCF78E
:107F2C0089FB304602B070BD10B50446406808B1FC
:107F3C00FCF7AFF8204610BD07B503690C308DE88F
:107F4C00090003F13C00FEF783FC6846FFF7ECFFE9
:107F5C0003B05DF804FB000038B500230446036051
:107F6C0014200D46FCF791F828B10123436083607F
:107F7C00024B036005612060204638BD48BF0D00F0
:107F8C0070B5002586B00560456004465420FCF7AA
:107F9C007CF8CDF810D00646059008B1FFF7E2F852
:107FAC00314601AB02AA03A80595FFF7D5FF039B49
:107FBC0062682660636003A80392FCF73BFB04A88D
:107FCC00FFF7B2FF23680BB9FEF754FD204606B04D
:107FDC0070BD00002DE9F041DFF804818CB005463E
:107FEC000F4600262B689E4275D202A8FFF7C8FFE9
:107FFC00029B2A895A806B6802982A247443234472
:10800C0014305B7E13F0020F1EBF10F8103C43F0CF
:10801C00020300F8103C6B6823445B7E5B0742BF95
:10802C0010F8103C43F0040300F8103C6B68234438
:10803C005B7E190742BF10F8103C43F0080300F8B0
:10804C00103C6B6823445B7EDA0642BF10F8103C90
:10805C0043F0100300F8103C6B6823445B7E9B06D6
:10806C0042BF10F8103C43F0200300F8103C696844
:10807C0021440431FEF77CFE6A68029B144402A979
:10808C00E28B1A81228C5A81628C9A81A28CDA81C1
:10809C00E28C1A82228D5A82386800F1180404A8E6
:1080AC00FFF789FA204604A9FFF714FF044605A838
:1080BC00FCF7C0FA54B920230493CDF80080234672
:1080CC0004AA064905943220FEF73EFA03A8FCF7F1
:1080DC00B1FA013686E70CB0BDE8F08194BF0D0013
:1080EC0091C00D0010B50446406808B1FBF7D1FFF4
:1080FC00204610BD07B503690C308DE809006846B1
:10810C00FFF7F0FF03B05DF804FB000038B5002367
:10811C000446036014200D46FBF7B7FF28B101237A
:10812C0043608360024B036005612060204638BDCC
:10813C0064BF0D0070B5002586B00560456004462F
:10814C001820FBF7A2FFCDF810D00646059018B109
:10815C00FEF77AFDB582F582314601AB02AA03A87F
:10816C000595FFF7D3FF039B62682660636003A845
:10817C000392FCF75FFA04A8FFF7B4FF23680BB96E
:10818C00FEF778FC204606B070BD00002DE9F041EA
:10819C00DFF880808CB006460F46002533689D4280
:1081AC0033D202A8FFF7C6FF1C24716802986C43F7
:1081BC0021440431FEF7DCFD7368029A234402A9C2
:1081CC001B8B938273681C44638BD382386800F1D9
:1081DC000C0404A8FFF7FDF9204604A9FFF72BFDBA
:1081EC00044605A8FCF726FA54B920230493CDF8CD
:1081FC000080234604AA064905943220FEF7A4F910
:10820C0003A8FCF717FA0135C8E70CB0BDE8F081FC
:10821C0094BF0D00BDC00D0010B5064C00232046C8
:10822C002360FEF791F82046034A0449BDE810404C
:10823C0002F047BCD4E30320C4D80320356A0D00F8
:10824C00F8B506460D468F180024BD420CD0336895
:10825C0015F8011B9B6830469847002801DB044445
:10826C00F3E7002C08BF04462046F8BD70B5054660
:10827C000C46084649B102F04AFE2B6802462146DC
:10828C002846DB68BDE87040184770BD03689B68E2
:10829C00184738B50D210546FFF7F8FF0A210446AB
:1082AC002846FFF7F3FF204438BD30B58BB00B46A2
:1082BC0000218DF82410012A98BF0A220DF1230405
:1082CC00B3FBF2F505FB123303F0FF03092B94BF4C
:1082DC0030333733DBB2214604F801392B46002DFD
:1082EC00EED1FFF7C3FF0BB030BD0CB42DE9F0435A
:1082FC0087B000AF07F13804054654F8049B3C6086
:10830C000E4623464A461421381DFEF719FA132847
:10831C0005D8391D2846FFF7A9FF044613E000F1E4
:10832C00080323F00703E846ADEB030D411C23467D
:10833C004A4668463C60FEF703FA69462846FFF752
:10834C0095FF0446C5461EB12846FFF7A2FF04441C
:10835C0020461C37BD46BDE8F04302B0704780682C
:10836C000368DB681847704719B10B6808465B68EF
:10837C001847704719B10B6808465B681847704777
:10838C0070477047704738B504460D4600682E217B
:10839C0002F086FD2368C31A2B6023B1037803B166
:1083AC00013023682060184638BD10B50C210446F6
:1083BC0002F094FB204610BD10B50421044602F0D7
:1083CC008DFB204610BD10B50421044602F086FB3F
:1083DC00204610BD38B50C46054601F083FC84429E
:1083EC000DD001F007FD844205D101F003FDBDE87D
:1083FC00384001F0FCBC21462846FFF7BBFF38BDD6
:10840C0008B502F057FDB0FA80F0400908BD38B548
:10841C00054608460C4602F07AFD214602462846DF
:10842C00BDE8384002F0EBBA0068FDF79DBF70B5AF
:10843C00044608460D4602F06AFD236802462946AA
:10844C002046DB68BDE87040184713B502AB0268E4
:10845C0003F8011DD46819460122A04702B010BDD3
:10846C002DE9F04F4568076885B0914614225543B5
:10847C000193AB10194D02925D438B463C46012390
:10848C00002D039323DD029B6E1003FB06F004EB1F
:10849C0000084A46B8F804A02058D14528BF5246D7
:1084AC00594602F03CFD039B48B9D14503D1019AD2
:1084BC0013703546E4E78CBF0120002000E0C00FAC
:1084CC000028F6D0AE1B08F11404013EF1E7E41BC2
:1084DC000248A410604305B0BDE8F08FCDCCCCCCE5
:1084EC00F0B585B003690191067E13B309B304AFEF
:1084FC00002347F8043D00F10C041D46394601A841
:10850C00FFF741FF0146A0B104AB039A03F8055DE8
:10851C002046FFF7A5FF9DF80B3053B123681424B8
:10852C0004FB0034083434F9023C002BA8BFDEB243
:10853C00E4E7304605B0F0BD10B5094C2368DB0705
:10854C000BD42046FBF7B4FD38B12046FBF7B5FD44
:10855C00044A0549054802F0B4FA044810BD00BFAE
:10856C00D8E30320C4D803208F830D0054D80320F4
:10857C0010B5094C2368DB070BD42046FBF798FD9C
:10858C0038B12046FBF799FD044A0549054802F02D
:10859C0098FA044810BD00BF08E40320C4D8032097
:1085AC008D830D0050D8032038B500250446056096
:1085BC004560856005614561856140F8245FFDF784
:1085CC00C3FEFFF7B9FFE061FFF7D2FF257320620E
:1085DC00204638BD10B50A4C2368DB070ED4204664
:1085EC00FBF766FD50B10748FFF7DEFF2046FBF7AF
:1085FC0064FD054A0549034802F063FA014810BDC1
:10860C00DCE30320E0E30320C4D803204B8A0D00F5
:10861C000023024A02490348FDF7AEBF2D890D0025
:10862C00BD880D0045880D0000231A4619461846D2
:10863C00FDF7A2BF73B502AC8E6851F8043B44F849
:10864C00083D054601A8FEF7AFFF224631462846F5
:10865C0002F00CFA01A8FBF7EDFF284602B070BD42
:10866C0073B502AC0E6951F8043B44F8083D05465D
:10867C0001A8FEF799FF22463146284602F011FA6E
:10868C0001A8FBF7D7FF284602B070BD73B502AC4A
:10869C00CE6851F8043B44F8083D054601A8FEF7A6
:1086AC0083FF22463146284602F0B8F901A8FBF7B1
:1086BC00C1FF284602B070BD30B58BB00D460146E7
:1086CC0004A8FFF7B7FF04A802F0DBF8E8B104A98F
:1086DC006846FFF7DBFF0F490298FFF791FE04464F
:1086EC0010B12C1C18BF012401A8FBF7A3FF002C10
:1086FC00E9D004A96846FFF7B3FF684602F0A1F879
:10870C00286001A8FBF796FFDDE705A8FBF792FFB1
:10871C000BB030BD74C10D0037B50C462046134963
:10872C00154602F0C7FB40B901F0DCFA4FF41651C4
:10873C0001F0C8FA01F0D6FA15E00D49204602F016
:10874C00B9FB78B902A94FF4165341F8043D2846F9
:10875C00FFF7B2FF01F04EFB019901F045FB01F070
:10876C0049FB00E0002003B030BD00BF79C10D0013
:10877C0080C10D0070B5046843681426054606FBDD
:10878C000346A64205D004F10800FFF7F3FF1434AA
:10879C00F7E72868FDF7BCFF284670BD70B5046884
:1087AC004368054604EB0316A64204D02046FEF7A8
:1087BC004FF81034F8E72868FDF7AAFF284670BD7B
:1087CC0010B504460C30FFF7D5FF2046FFF7E6FF47
:1087DC00204610BD10B5044B044640F8043BFFF78F
:1087EC00EFFF204610BD00BFE8B00D0010B50446E9
:1087FC00FFF7F0FF2046242102F070F9204610BD4F
:10880C0010B5034B03600446FFF7E4FF204610BD90
:10881C0064C10D0010B50446FFF7F2FF2046242179
:10882C0002F05CF9204610BD10B5036804461868C8
:10883C00FDF7A2FD204610BD2DE9F04F9B461B4BCA
:10884C005B68C3F3080385B082460E46904653BB63
:10885C00FFF7C0FE044624300390FFF7E5FD237BB1
:10886C00F3B90123237325686368F6B205EB83091A
:10887C004D4513D055F8047B4146381DFFF730FEAB
:10888C008642F5D33B68CDF800B09B689E463846CF
:10889C004346324651467746B847E9E700232373EF
:1088AC0003A8FFF7C1FF05B0BDE8F08F00ED00E0B5
:1088BC002DE9F74F9946194B5B68C3F3080307463C
:1088CC008846164633BBFFF785FE044624300190DC
:1088DC00FFF7AAFD237BD3B90123237325686368B3
:1088EC005FFA86FB05EB830A55450ED055F8046BF1
:1088FC004946301DFFF7F4FD8345F5D333684246F6
:10890C00DB68394630469847EEE70023237301A80D
:10891C00FFF78AFF03B0BDE8F08F00BF00ED00E069
:10892C002DE9F341154B5B68C3F3080304468846F5
:10893C00FBB9FFF74FFE064624300190FFF774FD9C
:10894C0096E8A000462605EB8707AF4207D101A8A1
:10895C00FFF76AFFB442B4BF002001200AE055F8CB
:10896C00040B41460430FFF7BBFD8642A8BF064608
:10897C00EBE7002002B0BDE8F08100BF00ED00E0A5
:10898C0070B503684268044603EB82029A421846AB
:10899C000ED006680D68AE4203F10403F6D1011D3A
:1089AC00521A02F023FA6368013B6360012070BD28
:1089BC00002070BD1FB50446243001910390FFF7D1
:1089CC0033FD01A92046FFF7DBFF20B903A8FFF711
:1089DC002BFF04B010BD6368002BF7D1FFF724FE0A
:1089EC00F4E770B5056943691826044606FB03567F
:1089FC00AE4215D005F110012046FFF7C1FF6368A8
:108A0C000BB9FFF711FEE06929690368DB68984729
:108A1C00696919B1206A0368DB6898471835E7E77C
:108A2C0025696369182606FB0356B54204D028460F
:108A3C00FDF70EFF1835F8E70023636170BD73B5C1
:108A4C00044602ADFFF7F0FD04F1240045F8040DD7
:108A5C00FFF7EAFC2046FFF7C4FF2846FFF7E4FEC9
:108A6C00606A08B1FDF778FC25696369182606FB76
:108A7C000356B54204D02846FDF7EAFE1835F8E750
:108A8C002069FDF745FE2068FDF742FE204602B046
:108A9C0070BD03680A6802600B6043684A684260F4
:108AAC004B6083688A6882608B60704710B50023C6
:108ABC000446036043608360FFF7EBFF204610BD64
:108ACC008842F8B50446164625D9904224D2551A48
:108ADC00143D2C44A1F11407A2F10C050026A5F1BC
:108AEC0008039F4237D084B155F8083C236035F811
:108AFC00043CA38035F9023CE380A660E660266165
:108B0C00294604F10800FFF7C4FF2846FFF732FEA0
:108B1C00143C143DE3E71ED001F108050027A5F134
:108B2C0008039E4217D084B155F8083C236035F8F1
:108B3C00043CA38035F9023CE380A760E760276121
:108B4C00294604F10800FFF7A4FF2846FFF712FEA0
:108B5C0014341435E3E7F8BDF8B5456883689D42D5
:108B6C0004460E4617460EDB0135002D05DDA90027
:108B7C000068FDF7D5FD20B9F8BD0068FDF7C8FD0C
:108B8C0000202060A5602568626805EB860105EB76
:108B9C008202521A081D02F029F945F82670636802
:108BAC00013363600120F8BD37B5044624300D460F
:108BBC000190FFF739FC2368616803EB8100834265
:108BCC001A4609D01268AA4203F10403F7D101A88E
:108BDC00FFF72AFE00250EE02A462046FFF7BCFFD1
:108BEC0005460028F3D06368012B01D1FFF710FD77
:108BFC0001A8FFF719FE284603B030BD8842F8B52E
:108C0C0006460C46154614D9904213D2A2F1100513
:108C1C006C1AA1F110070444AF4218D01CB12946BC
:108C2C002046FDF705FE2846FDF712FE103D103CD0
:108C3C00F2E70CD0AC420AD01EB121463046FDF70B
:108C4C00F7FD2046FDF704FE10341036F2E7F8BDB0
:108C5C0070B50E1E05460BDD3001FDF751FD0446C7
:108C6C0070B195E8060001EB0212FFF7C7FF00E0B8
:108C7C0000242868FDF74CFD2C60AE60012070BD0F
:108C8C0070BD2DE9F04F002395B09246462203604B
:108C9C0043608360C3600361436102760291DAF83A
:108CAC00041008939942054609930A9340F39D805A
:108CBC0008A8FFF7CDFF002840F097808EE02146F2
:108CCC000BA8FDF7B5FD0BA90FA8099EFDF7B0FD8C
:108CDC0009990A9B9942C0F2CE80013108A8FFF78E
:108CEC00B7FF002840F0C7800FA8FDF7B1FD0BA817
:108CFC00FDF7AEFD1434A742E1D100260B960C967D
:108D0C000D96B146099B9E4280F2A8803301089AC9
:108D1C00D3580693002B00F09F8014237343CDF897
:108D2C001C9001930BAC07A906A8FFF72CFB074678
:108D3C00002800F0918014AB014603F8399D079A86
:108D4C002046FFF78DFB9DF817800090B8F1000FBF
:108D5C0053D1BDF81C30ADF840304FF6FF730F9770
:108D6C00ADF84230CDF84480CDF84880CDF84C8039
:108D7C006768A3689F424FDA009BD4F800B0616823
:108D8C00142253430BEB030702FB01B207F114004F
:108D9C0039460393FFF794FEA7B1039B0F9A4BF848
:108DAC000320BDF84030BB80BDF94230FB80C7F8D2
:108DBC000890C7F80C90C7F8109011A907F108009B
:108DCC00FFF767FE63680133636011A8FFF7D2FCFD
:108DDC00B8F1000F11D00BA8FFF7CCFC08A8FFF7D7
:108DEC00DDFC284615B0BDE8F08FDAF80040DAF863
:108DFC000430142707FB03477DE72368009A1424EB
:108E0C0004FB0234069B1B7823BBDAF80030019A72
:108E1C0013441B7CE3801DE00137002F0FDD14236E
:108E2C0003FB07F00393FDF76BFC834678B194E8E2
:108E3C000600039B03FB0212FFF742FE00E0C34651
:108E4C002068FDF765FCC4F800B0A76094E74FF00C
:108E5C000108BAE7083466E7013653E708A9284643
:108E6C00FFF717FE0BA905F10C00FFF712FE9DF89A
:108E7C0008302B76AFE7089B099A03EB061603EB39
:108E8C000212314606F11000FFF7B8FE1EB10FA911
:108E9C003046FDF7CDFC099B0133099324E7000014
:108EAC007FB50446094B44F8043B05460E4601A821
:108EBC001146FBF71DFD01AA31462046FFF7E1FEE6
:108ECC0001A8FBF7F5FB284604B070BDE8B00D0017
:108EDC00F0B50F468BB02B49109C384616461D46F4
:108EEC0001F0E8FF28BB002C49D0294601A8FFF768
:108EFC00DDFD2549242001F0F3FD0546B8B101A99B
:108F0C0004A8FFF7D3FD04A907A8FBF7F1FC07AAF7
:108F1C0031462846FFF7C4FF07A8FBF7C9FB1B4BDC
:108F2C002B602C6204A8FBF7C3FB194B2B6001A828
:108F3C001FE01849384601F0BDFFF0B9FCB12946D5
:108F4C0004A8FFF7B3FD1049242001F0C9FD054624
:108F5C0070B104A907A8FBF7CBFC07AA3146284639
:108F6C00FFF79EFF07A8FBF7A3FB084B2B602C62B7
:108F7C0004A8FBF79DFB284602E0002000E02046F9
:108F8C000BB0F0BDD2C10D0093C40D0058C20D0042
:108F9C0064C10D00D6C10D00014B024A1A60704726
:108FAC000CE40320E7C10D002DE9F047089DD0F833
:108FBC00209004460E461746984600F093FE8145D5
:108FCC0005D15A4801F043FB002840F0AC802B79C6
:108FDC001B0705D56B69564A206A0021FFF785F9F6
:108FEC00B8F1000F0DD05B212046FFF72EFA414659
:108FFC002046FFF71CFA23684E49DB680222204604
:10900C0098472B79D90725D5D5F808802F214046CC
:10901C0001F0A6FF08B100F1010841462046FFF718
:10902C0006FA2B799A0709D53A212046FFF70DFA53
:10903C00EB68414A206A0021FFF757F92B7913F0AE
:10904C00040F236818BF3D49DB6808BF3C49022266
:10905C00204698472B795B0718D529690A46134691
:10906C0013F8010B38B1202801D1194601E028284A
:10907C0001D01A46F3E72368521ADB68204698475A
:10908C0023683049DB680422204698470021384683
:10909C00FDF76AFA01462046FFF7C9F9236828490B
:1090AC00DB680222204698471EB131462046FFF766
:1090BC00BEF92B7913F0300F2DD023682249DB68D1
:1090CC002046022298472B79D8060BD523681F49D6
:1090DC00DB68072220469847AB691D4A206A0021AD
:1090EC00FFF703F92B79990611D5DA0605D5236814
:1090FC001249DB6802222046984723681549DB6831
:10910C0020460A229847E9692046FFF790F95D212D
:10911C002046FFF79AF923680F49DB6820460222A4
:10912C00BDE8F0471847BDE8F08700BF40E70320D3
:10913C00EBC10D00F2C10D004BB80D00F5C10D00D7
:10914C00FAC10D00F8C10D00FDC10D0000C20D00EB
:10915C0008C20D000BC20D0016C20D002DE9F04324
:10916C0085B0D0F820800C9C06460F4691461D46D3
:10917C0000F0B8FD804505D14A4801F068FA002896
:10918C0040F08C80336A484A01924FF0000801A8E5
:10919C0003938DF8088001F09EFB41464846FDF78D
:1091AC00E3F942498046012201A801F019FC41462D
:1091BC00FFF72DF93FB13E49012201A801F010FC47
:1091CC003946FFF724F93DB13A49012201A801F0D3
:1091DC0007FC2946FFF71BF92379DF070ED5A56895
:1091EC002F21284601F0BCFE00B1451C324901225A
:1091FC0001A801F0F5FB2946FFF709F923799D0732
:10920C0007D52E49022201A801F0EAFBE16801F022
:10921C006FFB2379580716D525692F463B4613F863
:10922C00012B3AB1202A01D11D4601E0282A01D098
:10923C001F46F3E70222224901A801F0D1FB7A1B59
:10924C00294601F0DCFB2379190707D51D490122BA
:10925C0001A801F0C5FB616901F05CFB2379DA061A
:10926C0008D5042218490DEB020001F0B9FBA169E5
:10927C0001F03EFB23799B0607D51449062201A871
:10928C0001F0AEFBE169FFF7C2F801A801F00DFB9C
:10929C00306A0F4903680222DB68984705B0BDE8C5
:1092AC00F08300BF40E703204CC10D007EC10D00D0
:1092BC0091C10D0077B30D0052B30D0019C20D0012
:1092CC001CC20D00A6C10D001FC20D0024C20D0052
:1092DC0016C20D0008B50020FDF702FA28B1FDF703
:1092EC00EFF980F00100C0B208BD012008BD10B537
:1092FC000020FCF777FF044668B9FDF745F9012813
:10930C000BD12046FDF760F938B9FFF7E3FF30B910
:10931C00FDF7CEF9F9E7012010BD002010BDFFF7D5
:10932C00D9FF0020FCF75EFF003018BF012010BDF4
:10933C0008B5FFF7DCFFBDE80840FCF74BBF0000A9
:10934C00024B1A68024B1A60704700BF58D80320B2
:10935C0010E4032010B5036804469B689847A36883
:10936C00013BA3602BB923682046DB68BDE81040A5
:10937C00184710BD10B5064B03600446806928B130
:10938C004368013B43600BB9FFF7E4FF204610BD77
:10939C00ACC30D0010B50446FFF7ECFF20461C21B2
:1093AC0001F09CFB204610BD10B58368044613B138
:1093BC00032201469847204610BD10B50446FFF71E
:1093CC00F3FF204610BD13B50B46044603C88DE8C9
:1093DC00030093E8030084E803009DE8030083E89E
:1093EC00030002B010BD00000348044A04490023E6
:1093FC00836001F066BB00BF14E40320C4D80320D3
:10940C00C7930D0008B50C4B33B100F06BFC03682F
:10941C001B699847002809DC084B63B100F0EAFC93
:10942C0003681B699847002803DC08BDAFF3008074
:10943C00F2E7AFF3008008BD000000000000000060
:10944C0008B5FFF7DFFFFCF7BDFE014B186008BD48
:10945C0048E703200248034A0349121A01F0BBBC37
:10946C0000F4032004F4032040C60D0007B50023CC
:10947C0000931A466FF07701FDF7B8F803B05DF86A
:10948C0004FB000007B543880A2B08D0502B09D1E8
:10949C00094B1B683BB103B05DF804EB1847FFF7B1
:1094AC00E5FF06E0002300931A466FF07701FDF705
:1094BC009DF803B05DF804FB24E4032038B5104C90
:1094CC00104D2368AB42104B0CBF012200221A70C6
:1094DC0002D0FFF7BFFF2560FCF764FE044601F0E5
:1094EC00A9FC0A4B13B12046AFF3008000210748BA
:1094FC00FDF7FEF800210648BDE83840FDF76CB8D2
:10950C0000F403201E1C279A28E40320000000000E
:10951C0091940D0070470020704710B5102104463F
:10952C0001F0DCFA204610BD08B508B1FFF7F5FFD5
:10953C0008BD0022026010B54FF69C728280B1F912
:10954C00044084808A8002680C6804600A6010BD44
:10955C0010B504460068FDF7DBF8204610BD38B5A1
:10956C00C468F4B12378022B03D104F10C00FFF78B
:10957C00EFFF656835B12846FFF716FF1021284626
:10958C0001F0ACFAA56835B12846FFF70DFF1021A4
:10959C00284601F0A3FA20461421BDE8384001F01A
:1095AC009DBA38BD10B588B004466846FDF797F9EA
:1095BC00694604A8FDF7B5F904A8A047044604A819
:1095CC00FDF746F96846FDF743F9204608B010BD93
:1095DC00F0B5102485B007460E46154600212246EC
:1095EC00684601F01EFC002269461046ADF80040AA
:1095FC00029703960195FDF753F805B0F0BD13B52E
:10960C00044691E8050000234B600B60206062600B
:10961C0001A801930093FBF70DF8204602B010BD92
:10962C00F7B50C4602AD54F8043B45F8083D064628
:10963C000F4601A82146FDF7B7FF29463046FFF734
:10964C00DEFF01A8FAF7F6FF2046FAF7F3FF3846DB
:10965C00082101F043FA304603B0F0BD38B50023C1
:10966C000446036010200D46FAF70FFD28B10123C4
:10967C0043608360024B0360C5602060204638BDA8
:10968C00CCC20D00826810B50AB901F038FAC36873
:10969C00BDE81040184708B5006800F11001FFF74D
:1096AC00F1FF08BD826810B50AB901F028FAC36849
:1096BC00BDE81040184708B5006800F11001FFF72D
:1096CC00F1FF08BD38B5002383608B6804460D4656
:1096DC002BB102229847EB68E360AB68A36020468D
:1096EC0038BD0000F0B589B004686846FFF721FF6B
:1096FC0000238DF808304FF00202D4E84F3F002BC6
:10970C0003D1C4E8412F0029F7D102D08DF80830DD
:10971C0063E014F10C0503D069462846FFF709FFF6
:10972C00BFF35F8F01236370002004F10803BFF3C4
:10973C005F8F53E8006F43E80002002AF9D1BFF3B2
:10974C005F8F002E49D0FCF72FFF20B12946304601
:10975C00FFF798FF3AE0314602A8FFF7B3FFE06845
:10976C00B4F9105008B101F0B7FB06901020ADF819
:10977C001C50FAF78AFC0546E8B1002787601820D0
:10978C00FAF783FC044688B10146876002A8FFF70C
:10979C001AFE049BA268A360059B049206A9E268CA
:1097AC00E36004F110000592FFF7C3FE0D4BEB6074
:1097BC000D4B2C60AB6006A8FFF7CAFE02A8FFF7A2
:1097CC00F3FD002229460948FCF7F6FE3046FFF768
:1097DC00EBFD1021304601F081F96846FFF7B8FE29
:1097EC0009B0F0BDA3960D0019990D004D9E0D000A
:1097FC002DE9F04F8BB006460F46904699469DF8E2
:10980C0050A0FCF75DFF07AD834630BB4FF62E73BF
:10981C00059005A92846ADF81830FFF78AFE1420EC
:10982C00FAF733FC044658B102230370012343704A
:10983C00C0F804B0C0F808B029460C30FFF779FE28
:10984C003046214640F8044BFFF708FF2846FFF747
:10985C007FFE05A8FFF77CFE52E000240C231420A9
:10986C006C60AC600793FAF710FC014618B10470F9
:10987C0044704460846004A80391FFF7EFFE224B10
:10988C0008930820FAF701FC044628B1039B40F822
:10989C00043B04A9FDF788FE00955FFA8AF34A465B
:1098AC00414638460994FCF713FF20B9039B5B78BB
:1098BC0003F0FF0283B1039B059304A906A8FDF7EF
:1098CC0073FE05A93046FFF79AFE06A8FAF7B2FE1A
:1098DC0004A8FAF7AFFE13E04FF69C7305A903A892
:1098EC000592ADF81830FFF7FDFE05A8FFF730FE26
:1098FC0005A80999FFF794FE06A8FAF79BFEDAE78C
:10990C0030460BB0BDE8F08F899A0D00022AF8B5ED
:10991C00044606D0032A17D0012A22D10B68036013
:10992C001FE018200E68FAF7B0FB054650B131461F
:10993C00FFF7C8FE3069B6F9147008B101F0CCFA23
:10994C002861AF8225600CE0046854B104F110006A
:10995C00FFF7FEFD2046FFF727FD1821204601F0FA
:10996C00BDF80020F8BD38B5002383608B68044631
:10997C000D462BB102229847EB68E360AB68A360FD
:10998C00204638BD022A70B5044606D0032A11D0F1
:10999C00012A18D10B68036015E014200E68FAF741
:1099AC0074FB054620B13146FFF7DDFF337C2B7489
:1099BC00256008E0046834B12046FFF7F5FC14215B
:1099CC00204601F08BF8002070BD0000F0B500239C
:1099DC0087B00C46BFF35F8F50E8006F40E8003251
:1099EC00002AF9D1BFF35F8F002E3FD01846FCF749
:1099FC00DBFD074620B121463046FFF753FE2EE033
:109A0C00314601A8FFF7AFFF23788DF814301020F2
:109A1C00FAF73BFB0546D0B187601420FAF735FB0B
:109A2C00044678B18760014601A8FFF7CCFC039B84
:109A3C00A268A360049B0392E268E3609DF8143073
:109A4C00049223740A4BEB600A4B2C60AB6001A8A8
:109A5C00FFF7AAFC002229460748FCF7ADFD30466B
:109A6C00FFF7A2FC1021304601F038F807B0F0BD2A
:109A7C00C3960D0091990D004D9E0D0030B585B02B
:109A8C0004460D4668461146FFF7CAFD7CB124B268
:109A9C0028460DB101F020FA029002A96846ADF8F3
:109AAC000C40FFF71FFE02A8FFF752FD1DE00098C7
:109ABC008DF808404FF00102D0E84F3FA34203D18C
:109ACC00C0E8412F0029F7D102D08DF808300CE006
