:02000002D0002C
:1040000000400D00B4940D00000006000C000501F6
:084010000401E80500000000B6
:04401800C4880D004B
:10401C0009480A49884208B505D0094A824202D0AB
:10402C00121A04F0FCFA0748074A0021121A04F08D
:10403C001CFB014808BD00BFACD8032014940D0034
:10404C0024D9032024D90320F0E7032070B503F012
:10405C004BFC074C074BE41AA40800251E46A5424E
:10406C0004D056F8253098470135F8E770BD00BFED
:10407C0004940D00C8930D0000F016B908B500F0BB
:10408C006BF9BDE8084003F0F1BB00F055BE00F041
:10409C005BBE00F059BE000008B5034A00210C209D
:1040AC0000F0AEFDFEE700BF8D490D000078B0FAC0
:1040BC0080F0400970470123037070477047006A15
:1040CC000368DB68184710B50446006808B100F0B7
:1040DC003BFE204610BD00000A4B10B504460360A1
:1040EC0002F0FEFC214602F0EBFE03F001FD03F0B2
:1040FC00F3FC2046044B40F8043B02F0E7FD20465D
:10410C0010BD00BFF8880D00E0880D0010B5044606
:10411C00FFF7E2FF2046242104F00AF9204610BDE7
:10412C000EB400B58CB00DAA202352F8041B0392D8
:10413C008DE8060004930168002304AA1E20059351
:10414C0000F06EFD0CB05DF804EB03B0704700009E
:10415C0010B590F90040044904482246FFF7E0FFEF
:10416C00034B1C7010BD00BF08890D000CE403202C
:10417C00ACD8032008B5034902780348FFF7D0FFF9
:10418C0008BD00BF33890D000CE4032007B503887C
:10419C00ADF80630BDF8062003490448FFF7C0FF10
:1041AC0003B05DF804FB00BF4D890D000CE4032047
:1041BC0007B50388ADF80630BDF80620034904485E
:1041CC00FFF7AEFF03B05DF804FB00BF69890D007B
:1041DC000CE4032010B5047809490A482246FFF77D
:1041EC009FFF094A094913781470E31A002BB8BFD2
:1041FC005B42012BD4BF002301230B7010BD00BF09
:10420C0085890D000CE4032074E3032028D90320D6
:10421C0008B5034990F900200248FFF781FF08BD5B
:10422C00A0890D000CE4032013B50388ADF806300B
:10423C00BDF80640044905482246FFF771FF044BC0
:10424C001C8002B010BD00BFCB890D000CE4032014
:10425C00A4E3032013B50246044652F8010F247858
:10426C0051686B4603C322460A490B48FFF758FFB7
:10427C000CB90A4902E0012C04D109490648FFF7A0
:10428C004FFF04E0224607490348FFF749FF02B0FD
:10429C0010BD00BFE4890D000CE40320028A0D0060
:1042AC001B8A0D00368A0D0007B502A8012200F802
:1042BC00012D41F6C67100F05BFC01F06FFB01F0C3
:1042CC00B3FB00221449154801F09AFA0022144954
:1042DC00144801F095FA00221349144801F090FAA1
:1042EC0000221349134801F08BFA0022124913489B
:1042FC0001F086FA00221249124801F081FA0022DC
:10430C001149124801F07CFA00221149114801F0C0
:10431C0077FA03B05DF804FB5D410D0074D90320FE
:10432C0081410D00A8E30320E1410D0040D9032099
:10433C0099410D007CD903201D420D0078E3032028
:10434C0035420D00B0E3032061420D006CE3032005
:10435C00BD410D006CD903202DE9F0419F488EB072
:10436C0001F0BCFA002840F0DC809D4801F0B6FA60
:10437C000546002840F0D5809A499B489B4FFFF793
:10438C00CFFE01F00BFB1E22984901F05DFB0646A7
:10439C00B54280F2BE8054246C4304A800F030FF78
:1043AC0004F10800012204A9384401F08FF9904966
:1043BC0080468D48FFF7B4FE3C448E4909A800F0B6
:1043CC008AFD00222146684600F009FF694609A8CB
:1043DC0000F0D6FD01688448FFF7A2FE684600F0A5
:1043EC0033FD09A800F030FD834909A800F073FDE6
:1043FC00002204A9684601F093F8694609A800F068
:10440C00BFFD01687848FFF78BFE684600F01CFD85
:10441C0009A800F019FD794909A800F05CFD0022FB
:10442C007749684601F07CF8694609A800F0A8FDB8
:10443C0001686D48FFF774FE684600F005FD09A899
:10444C0000F002FD6F4909A800F045FD00226E49FD
:10445C00684601F065F8694609A800F091FD01680D
:10446C006148FFF75DFE684600F0EEFC09A800F01D
:10447C00EBFCB8F1000F4AD0614904A800F060FFD2
:10448C0000285CD058486149FFF74AFE534801F0B8
:10449C0025FA00284CD101F081FA0123224601466D
:1044AC0009A801F08FFF09A94C4801F006FC09A8E6
:1044BC0001F026FB494801F011FA002836D0544986
:1044CC004948FFF72DFE534909A800F0AFFF09AA90
:1044DC005149424801F0CDFB504909A800F0A6FF14
:1044EC0009AA4F493D4801F0C4FB4E4909A800F008
:1044FC009DFF09AA4C49394801F0BBFB4B4909A85F
:10450C0000F094FF4A49354809AA01F0B2FB013585
:10451C003EE7002E5FDD324646493348FFF700FE8A
:10452C0059E000F035FA444B186054E0434902E07E
:10453C00434900E043492C48FFF7F2FDE7E73249D5
:10454C0004A800F0FDFE0028E1D027483E49FFF703
:10455C00E7FD234801F0C2F900283AD101F01EFA18
:10456C0001232246014609A801F02CFF09A91C4889
:10457C0001F0A3FB09A801F0C3FA194801F0AEF948
:10458C000028D7D031491848FFF7CAFD304909A88F
:10459C0000F04CFF09AA2F49114801F06AFB2E4983
:1045AC0009A800F043FF09AA2C490D4801F061FB52
:1045BC002B4909A800F03AFF09AA2A49084801F03A
:1045CC0058FB294909A800F031FF09AA27490448DA
:1045DC009BE72749AFE70EB0BDE8F08184D90320F3
:1045EC008CD90320EA8C0D000CE4032094D9032011
:1045FC007E8A0D00988A0D00A28A0D00AF8A0D00EC
:10460C0054D90320C28A0D002CD90320FB8C0D0039
:10461C00D58A0D00FE8A0D0074D90320238B0D0062
:10462C00A8E30320488B0D0040D903206D8B0D00AF
:10463C007CD90320D98C0D0068D90320928B0D00F6
:10464C00B68B0D00948C0D00108D0D00D78B0D00CA
:10465C00008C0D0078E30320258C0D00B0E30320C3
:10466C004A8C0D006CE303206F8C0D006CD9032079
:10467C00B88C0D0070B5046843681426054606FB1B
:10468C000346A64204D0204600F0DEFB1434F8E7C3
:10469C00286800F059FB284670BD8842F8B50646DC
:1046AC000C46154616D9904215D2A2F114056C1A77
:1046BC00A1F114070444AF421CD02CB1294620466A
:1046CC0000F0B2FB2B7C2374284600F0BDFB143D9C
:1046DC00143CF0E70ED0AC420CD02EB12146304643
:1046EC0000F0A2FB237C3374204600F0ADFB1434A5
:1046FC001436F0E7F8BD2DE9F04100230360436068
:10470C0083604E689E4204460F4624DD4FF0140829
:10471C0008FB06F000F010FB0546E0B194E806003B
:10472C0008FB0212FFF7B9FF206800F00DFB2560B3
:10473C00A6603E687B6808FB0368464509D02DB12E
:10474C003146284600F0E9FB337C2B7414361435C3
:10475C00F3E77B6863602046BDE8F08170B55E4D81
:10476C008CB000F0FDF800244FF6FF736B812C60C9
:10477C00AC80AC712C81012000F06AFA574A584980
:10478C00284603F0C8FD00940194029403F0B0F99C
:10479C006946064603A8534DFFF7ADFF03A906A8CB
:1047AC00FFF7A9FF504B2B6006A909A8FFF7A3FF41
:1047BC0009AA0121281D02F0EAFC09A8FFF75AFFFB
:1047CC0006A8FFF757FF494B2B602E6203A8FFF793
:1047DC0051FF474B2B6003F08BF94FF4165103F04C
:1047EC0077F902F07DF9294602F064FC6846FFF780
:1047FC0041FF3A4A3F49284603F08DFD3E483F4D64
:10480C0001F0D8F9354A3E493B4803F084FD3D4858
:10481C0001F0D0F9314A3A493A4803F07CFD3A4963
:10482C003A4800F003FE3A493A4800F0FFFD3A4896
:10483C0001F02CFE294A3949374803F06CFD384801
:10484C0001F024FE254A3549354803F064FD35480E
:10485C0001F01CFE214A3149324803F05CFD32481C
:10486C0001F014FE1D4A2D492F4803F054FD2F482A
:10487C0001F00CFE194A29492C4803F04CFD2C4838
:10488C0001F004FE154A2549294803F044FD294846
:10489C0001F0FCFD114A2149264803F03CFD264855
:1048AC0001F0F4FD0D4A1D49234803F034FD40F698
:1048BC00D816281900F024FC04F10800284400F054
:1048CC00AEFE04F12C002844543400F0A8FEB4428F
:1048DC00EFD10CB070BD00BF48D9032024D9032000
:1048EC00D3400D0080E30320E0880D00C0900D0044
:1048FC00F8880D00E5400D0084D9032094D90320DD
:10490C000D5B0D008CD90320258D0D0054D903208F
:10491C004A8D0D002CD9032074D90320FF5A0D00A9
:10492C00A8E3032040D903207CD9032078E303209B
:10493C00B0E303206CE303206CD9032000F010B823
:10494C0008B5024B1B689B68019308BD6802030005
:10495C0008B5024B1B68DB68019308BD68020300B5
:10496C0008B5024B1B681B68019308BD2C020300A1
:10497C0008B5024B1B685B68019308BD1802030065
:10498C0008B5024B1B68DB68019308BD18020300D5
:10499C0008B5024B1B685B69019308BD1802030044
:1049AC0008B5024B1B689B68019308BD7802030095
:1049BC0008B5024B1B68DB6F019308BD780203003E
:1049CC0008B5034B1B68D3F88430019308BD000075
:1049DC007802030008B5034B1B68D3F89830019399
:1049EC0008BD00007802030008B5034B1B68D3F820
:1049FC00BC30019308BD00007802030008B5034BDE
:104A0C001B68D3F8C430019308BD00007802030082
:104A1C0008B5034B1B68D3F8E030019308BD0000C8
:104A2C007802030008B5034B1B68D3F8E4300193FC
:104A3C0008BD00007802030008B5034B1B68D3F8CF
:104A4C00F030019308BD00007802030008B5034B59
:104A5C001B68D3F8F430019308BD00007802030002
:104A6C0008B5024B1B689B68019308BD4802030004
:104A7C0008B5024B1B681B69019308BD4802030073
:104A8C0008B5024B1B685B69019308BD4802030023
:104A9C0008B5024B1B685B6C019308BD4802030010
:104AAC0008B5024B1B689B6C019308BD48020300C0
:104ABC0008B5024B1B68DB6C019308BD4802030070
:104ACC0008B5024B1B685B6D019308BD48020300DF
:104ADC0008B5024B1B685B69019308BD64020300B7
:104AEC0008B5024B1B681B68019308BD3C02030010
:104AFC0008B5024B1B689B68019308BD3C02030080
:104B0C0008B5024B1B68DB68019308BD3C0203002F
:104B1C0008B5024B1B681B69019308BD3C020300DE
:104B2C0008B5024B1B685B69019308BD3C0203008E
:104B3C0008B5024B1B689B69019308BD3C0203003E
:104B4C0008B5024B1B68DB69019308BD3C020300EE
:104B5C0008B5024B1B689B6A019308BD3C0203001D
:104B6C0008B5024B1B68DB6A019308BD3C020300CD
:104B7C0008B5024B1B685B68019308BD5802030023
:104B8C0008B5024B1B681B68019308BD4C0203005F
:104B9C0008B5024B1B685B68019308BD4C0203000F
:104BAC0008B5024B1B689B68019308BD4C020300BF
:104BBC0008B5024B1B681B69019308BD4C0203002E
:104BCC0008B5024B1B685B69019308BD4C020300DE
:104BDC0008B5024B1B689B69019308BD4C0203008E
:104BEC0008B5024B1B68DB69019308BD4C0203003E
:104BFC0008B5024B1B681B6A019308BD4C020300ED
:104C0C0008B5024B1B685B6B019308BD6002030087
:104C1C0008B5024B1B681B6D019308BD60020300B5
:104C2C0008B5024B1B685B6D019308BD6002030065
:104C3C0008B5024B1B68DB6E019308BD60020300D4
:104C4C0008B5024B1B681B6F019308BD6002030083
:104C5C0008B5024B1B685B68019308BD200203007A
:104C6C0008B5034B1B68D3F88830019308BD0000CE
:104C7C002002030008B5034B1B68D3F89430019352
:104C8C0008BD00002002030008B5024B1B685B68DE
:104C9C00019308BD4002030008B5024B1B689B68DA
:104CAC00019308BD4002030008B5024B1B68DB688A
:104CBC00019308BD4002030008B5024B1B681B6939
:104CCC00019308BD4002030008B5024B1B685B69E9
:104CDC00019308BD4002030008B5024B1B689B6999
:104CEC00019308BD4002030008B5024B1B68DB6949
:104CFC00019308BD4002030008B5024B1B681B6AF8
:104D0C00019308BD4002030008B5024B1B681B6BE6
:104D1C00019308BD4002030008B5024B1B685B6B96
:104D2C00019308BD4002030008B5024B1B68DB6B06
:104D3C00019308BD4402030008B5024B1B681B68B5
:104D4C00019308BD1C02030008B5024B1B685B688D
:104D5C00019308BD1C02030008B5024B1B689B683D
:104D6C00019308BD1C02030008B5024B1B685B6A6B
:104D7C00019308BD1C020300002211464068FFF796
:104D8C00BBBF002211464068FFF7C6BF0022406837
:104D9C00FFF7BABF002281F001014068FFF7A4BF02
:104DAC0000231A4619464068FFF796BF00231A469F
:104DBC0019464068FFF788BF002211464068FFF78C
:104DCC007BBF002211464068FFF766BF002202211C
:104DDC004068FFF769BF00231A464068FFF754BFCD
:104DEC00024B03225A60024A1A607047B8E3032050
:104DFC00788D0D0010B5094C00204FF6FF73206024
:104E0C00A080A07120816381FFF722FF2046044A15
:104E1C000449BDE8104003F07EBA00BFC0E3032094
:104E2C0024D90320D3400D0000230360436083602A
:104E3C00037310B50C6804604C6844608C68846023
:104E4C000B604B608B6010BD10B504460068FFF71B
:104E5C007BFF204610BD10B50446006808B1FFF773
:104E6C0073FF00232360A360636010BD38B5044654
:104E7C000D4600680131FFF76FFF10B184E8210087
:104E8C00012038BD10B50368044613B143688B424A
:104E9C0007D22046FFF7EAFF20B1A3680BB92268BE
:104EAC001370012010BD70B50E4611460446154610
:104EBC00FFF7E8FF18B92046FFF7CDFF09E02A46B7
:104ECC003146A560206803F0AAFB2268A368002184
:104EDC00D154204670BD38B50023044603604360AE
:104EEC00836003730D4639B1084603F019FC29465B
:104EFC0002462046FFF7D7FF204638BD884210B542
:104F0C000B46044607D0096819B19A68FFF7CBFF26
:104F1C0001E0FFF7A0FF204610BD10B500230446AA
:104F2C000360436083600373FFF7E8FF204610BD06
:104F3C0038B505460C4641B1084603F0F1FB214655
:104F4C0002462846FFF7AFFF01E0FFF784FF284633
:104F5C0038BD70B504460E4609B9002070BD6AB163
:104F6C008368D5182946FFF78DFF0028F5D02068F7
:104F7C00A3683146184403F0CBFBA560012070BD3B
:104F8C0010B58A6809680446FFF7E3FF10B920469C
:104F9C00FFF761FF204610BD704700207047704737
:104FAC000020704770470020704710B5142104464C
:104FBC0003F0BEF9204610BD10B51421044603F0D1
:104FCC00B7F9204610BD10B51421044603F0B0F912
:104FDC00204610BDFFF75BB8FFF759B8FFF757B87D
:104FEC0010B50446006808B1FFF75AFD204610BD05
:104FFC0030B58BB02023054600240293084B009358
:10500C0002AA2346074903940120FFF701FE2868F2
:10501C000549008823462A46FFF7E6FC0BB030BD55
:10502C00038E0D00F88D0D00A5660D0008B50A2045
:10503C00024A0021FFF7E4FD08BD00BF8D490D00B9
:10504C0010B5036804469B689847A368013BA360AE
:10505C002BB923682046DB68BDE81040184710BD0B
:10506C0070B5931C0144884218D00478240904F1CB
:10507C003005392D88BF04F13705064603F8025C6C
:10508C00347804F00F0404F13005392D88BF04F195
:10509C00370503F8015C01300233E4E7104670BDBC
:1050AC00A0F13003DAB2092A01D818467047A0F1F2
:1050BC006103052B01D857387047A0F14103052B2C
:1050CC0094BF37384FF0FF307047000010B5002305
:1050DC000370044B04461868FFF7EAFC01232370A5
:1050EC00204610BDD4E3032010B5037804461BB151
:1050FC00024B1868FFF7E4FC204610BDD4E30320F4
:10510C00002202604260704708B582798B799A421E
:10511C0006D1062203F074FAB0FA80F0400908BDFB
:10512C00002008BD01390523C25C01F8012F013BA9
:10513C00DBB2FF2BF8D1704770B5144688B01D4612
:10514C000E46002946D0002A46D001A9FFF7EAFFF7
:10515C0003AA15B1062101A82DE0012101A8FFF732
:10516C007FFF3A250DF10F0201210DF105008DF89D
:10517C000E50FFF775FF0DF1120201210DF1060023
:10518C008DF81150FFF76CFF0DF1150201210DF197
:10519C0007008DF81450FFF763FF06AA012102A83F
:1051AC008DF81750FFF75CFF8DF81A500DF11B02AC
:1051BC0001210DF10900013CFFF752FF112C28BF12
:1051CC001124224603A9304603F029FA0023335553
:1051DC00601C02E0084600E0104608B070BD10B537
:1051EC0086B0044613460846122201A9FFF7A4FF15
:1051FC0001A92046FFF76FFE204606B010BD000047
:10520C0010B501230361054B024603F1100153F85D
:10521C00044B42F8044B8B42F9D110BD988F0D0012
:10522C000B7C13F0FD0330B510D103610D4B02461E
:10523C0003F1100453F8045B42F8045BA342F9D168
:10524C000B8803730B881B12437330BD012303615E
:10525C0001F11002034651F8044B43F8044B914200
:10526C00F9D130BD988F0D0010B50B69036101F1B8
:10527C001002034651F8044B43F8044B9142F9D108
:10528C0010BD10B50B460446B9B1012A09D103462D
:10529C0001F1100251F8040B43F8040B9142F9D1BF
:1052AC0008E0411E0F22985C01F8010F013AD2B2BE
:1052BC00FF2AF8D10123236102E0102203F0D5F973
:1052CC00204610BD38B504460D46FFF799FF002364
:1052DC0025732D0A23616573204638BD10B50B6903
:1052EC00036101F11002034651F8044B43F8044BDF
:1052FC009142F9D110BD10B586B00446012201A827
:10530C00FFF7BFFF01A92046FFF7E8FF06B010BD6D
:10531C0010B586B0044601A8FFF7D4FF01A92046BA
:10532C00FFF7DCFF06B010BD10B586B0044601A82F
:10533C00FFF776FF01A92046FFF7D0FF06B010BD9E
:10534C0008B502690B699A4206D1102203F058F98C
:10535C00B0FA80F0400908BD002008BD0123F7B564
:10536C000361314B0E460546024603F1100153F81A
:10537C00040B42F8040B8B42F9D1002E51D024219E
:10538C00304603F0EAF9042810D000271024242119
:10539C00304603F0E2F9B84201D944BB41E02C4459
:1053AC000023A5423DD004F8013DFAE73078FFF721
:1053BC0077FE041E18DB7078FFF772FE002813DBF3
:1053CC0040EA04108DF80400B078FFF769FE041E63
:1053DC000ADBF078FFF764FE0028A1BF40EA041056
:1053EC009DF8043028736B7300232B6119E0F05D7A
:1053FC00FFF756FE030612D4013C00012855242168
:10540C00304603F0AAF90137874208D2F05DFFF766
:10541C0047FE40B20028A2BF2B5D18432855013728
:10542C00B5E703B0F0BD00BF988F0D0038B504464A
:10543C000D46FFF7E5FE20462946FFF78FFF204675
:10544C0038BD01390F23C25C01F8012F013BDBB2DF
:10545C00FF2BF8D170472DE9F04198468EB00D46E0
:10546C00002957D0002A57D00669541EAEB9027BCA
:10547C00437B059643EA0223022105AA01A8ADF855
:10548C000430FFF7EDFD042C28BF0424224605A9A7
:10549C00284603F0C4F82E553AE001A9FFF7D1FFD6
:1054AC0005AAB8F1000F02D0102101A824E00421B4
:1054BC000DEB0100FFF7D4FD2D260DF11D0202218D
:1054CC0002A88DF81C60FFF7CBFD0DF12202022122
:1054DC000DF10A008DF82160FFF7C2FD0DF12702D6
:1054EC00022103A88DF82660FFF7BAFD8DF82B601A
:1054FC000BAA06210DF10E00FFF7B2FD242C28BFDC
:10550C002424224605A9284603F089F800232B55AC
:10551C00601C02E0084600E010460EB0BDE8F081C9
:10552C0010B58AB004460023252208466946FFF7C9
:10553C0092FF69462046FFF7CEFC20460AB010BD0C
:10554C0038B5054601B112B90020286238BD1F2AB2
:10555C0028BF1F22144603F062F82C62204638BD87
:10556C00F0B58BB10024E51C8D420FD8661C055D8F
:10557C00875D974205D12E44B14207D31C60681C4D
:10558C00F0BD01352C44EEE71846F0BD0020F0BD0F
:10559C002DE9F74304460E461D461746002A3AD01D
:1055AC000A4601AB016AFFF7DBFF9DF82830226A3F
:1055BC0003BBF8B1961C2E44361A1F2E2BD8DDF8DF
:1055CC00048008F10209C8EB0202121A00EB080170
:1055DC0005EB090092B22144204403F02BF86B1C1C
:1055EC0004F808302A46394604EB090003F017F892
:1055FC00266210E0901C2B181F2B0CD86B1CA3548C
:10560C00224420623946567020442A4603F007F89B
:10561C00226A2A442262206A03B0BDE8F0831FB5D7
:10562C000446034600F11F02002003F8010B9342CD
:10563C004FF00001F9D104AA062302F8013D012321
:10564C002162009120461946FFF7A2FF204604B0C4
:10565C0010BD2DE9F04F002585B00646894617464A
:10566C009A462C464FF01408316A8D422AD203AB6D
:10567C004A46491B7019FFF773FF834610B3544514
:10568C0020D2042803990CD129447218631CD178B8
:10569C009278019342EA012108FB0470FFF738FE6F
:1056AC000AE012280AD102312944631C314408FB58
:1056BC0004700193FFF71FFE019B1C46039B5B4488
:1056CC001D44D1E7204605B0BDE8F08F2DE9F0412F
:1056DC0013460D4616460A4602210746FFF7B9FF48
:1056EC004FF01408331A08FB0052044603213846C5
:1056FC00FFF7AFFF0444331B08FB04520621384666
:10570C00FFF7A7FF0444331B08FB0452072138465C
:10571C00FFF79FFF2044BDE8F081000038B500255D
:10572C004FF6FF73044643800E222946057005711F
:10573C00063002F09AFF04F11400FFF761FD04F14A
:10574C002800FFF75DFD044904F13C00FFF7C3FBA3
:10575C00E5642565204638BD7F900D0010B5836942
:10576C00C26903EBC2029342184606D0046824882F
:10577C008C4203F10803F6D110BD002010BD0000CF
:10578C0070B504680E46217886B000292ED1628847
:10579C004FF6FF739A4229D0238A53B318252A4611
:1057AC00684602F062FF0123ADF80030134BADF8F0
:1057BC000250019302946388ADF80C30238AADF843
:1057CC000E30A389ADF810305EB123799A0644BF30
:1057DC00022305932379DB0642BF059B43F00103AB
:1057EC00059300216846FFF731F904E06FF0D10012
:1057FC0001E06FF0770006B070BD00BFE5590D00F9
:10580C000368D9641A6570472DE9F0418AB02023EA
:10581C000E46029300252E4B009302AA2B462D49CF
:10582C0003950120FFF7F4F93368DC681F694FF02A
:10583C001C0804EBC7070834A4F108039F42326824
:10584C0017D0ADF80A8054F8083C9B8AADF820308C
:10585C0054F8083CDB8AADF82230108800953346AA
:10586C001D4A02A9FFF7CAF8002804F10804E3DA7C
:10587C002AE09469D569002704EBC5050834A4F126
:10588C0008039D421FD054F8083CDB89CBB114228D
:10589C00002102A802F0E9FE54F8083CD9893368CB
:1058AC0002AA188800971323FFF7B2F848B10AAB85
:1058BC00184402A900F8207C54F8080C3C30FFF77F
:1058CC0037FB0834DBE700200AB0BDE8F08100BFED
:1058DC001F8E0D00F88D0D00ED640D000368188807
:1058EC004FF6FF73C01A18BF0120704702680B688F
:1058FC00C2F802304B68C2F80630704710B50A681F
:10590C0052F8023F03605368436010BD1FB5026834
:10591C000B6812881B889A420C460CD101466846CB
:10592C00FFF7ECFF214602A8FFF7E8FF02A9684643
:10593C00FFF7EAFB00B9002004B010BD10B5044617
:10594C003420FEF7A2FB014668B1002303604360DC
:10595C008360C360036143618361C361036243621B
:10596C008362C3620363216019B90A4A0A20FFF7F4
:10597C0047F90020FFF714F820B1064A00210A204D
:10598C00FFF73EF9002221680348FFF755F820463F
:10599C0010BD00BF8D490D00195E0D0010B50A4CED
:1059AC002368DB070ED42046FEF780FB50B1074876
:1059BC00FFF7C4FF2046FEF77EFB054A0549034866
:1059CC0002F0A9FC014810BDD0E30320CCE3032076
:1059DC0024D90320815B0D0070B50368093B012BB2
:1059EC008AB004460E4619D8FFF7D8FFA188006884
:1059FC00FFF7B4FE024658B920230293084B0390DC
:105A0C00009302AA034607493220FFF701F905E08B
:105A1C00F56C1DB1336DE1682069A8470AB070BD03
:105A2C00428E0D00F88D0D0013B501A8FFF74EFB4B
:105A3C000020FEF7B5FF044601A8FFF755FB04EA6A
:105A4C00E47002B010BD000030B58BB00D4601A85B
:105A5C001446FFF73BFBB5B1ACB1002202A90D48CF
:105A6C000694029203920492079208920992059569
:105A7C00FEF79EFF0028B8BF04460298A8BF079CFB
:105A8C00FFF762F900E0044C01A8FFF72DFB20465C
:105A9C000BB030BD875F0D00F2FEFFFF0B6803609B
:105AAC0013B15A6801325A60704710B551F8043B73
:105ABC00044640F8043BFFF7F1FF23680BB9FFF7EE
:105ACC00B5FA204610BD10B551F8043B044640F819
:105ADC00043BFFF7E3FF204610BD10B504460068F9
:105AEC0028B14368013B43600BB9FFF7A9FA204684
:105AFC0010BD10B504460430FFF7EFFF204610BD73
:105B0C0010B504460430FFF7E8FF204610BD70B511
:105B1C0004684368054604EBC306A64204D0201D66
:105B2C00FFF7DBFF0834F8E72868FFF70DF9284684
:105B3C0070BD70B504684368054604EBC306A64205
:105B4C0004D0201DFFF7C9FF0834F8E72868FFF7D9
:105B5C00FBF8284670BD10B5046904F11800FFF776
:105B6C00E8FF04F10C00FFF7D2FF2046BDE810401F
:105B7C00FEF78DBAF8B504680746C4B1A569E369A8
:105B8C0005EBC306AE4204D0281DFFF7A6FF08356F
:105B9C00F8E7A069FFF7D8F804F10C00FFF7C9FF8C
:105BAC002046FFF7B4FF3421204602F0C1FB3846F3
:105BBC00F8BD000073B5002505604560064624203D
:105BCC00FEF763FA044678B103464FF6FF7223F8EA
:105BDC00022BC0F802505D608572C572C56005610C
:105BEC0045618561C5610562002314200193FEF7B0
:105BFC004CFA034628B1012242608260084A0260D6
:105C0C00046102A8726840F8042D73603460FFF7D9
:105C1C0064FF33680BB9FFF709FA304602B070BD68
:105C2C00E48D0D0038B50C6803689C4205460CD019
:105C3C0014B1636801336360286828B14368013B81
:105C4C0043600BB9FFF7FCF92C60284638BD10B542
:105C5C0002680B680446D06C10B1D864126D1A65DA
:105C6C00204651F8043B40F8043BFFF7DBFF20468D
:105C7C0010BD2DE9F04303689C69DE6987B00F46BF
:105C8C00904604EBC606B442A14611D054F8081B4A
:105C9C0001A81431FFF7E8FA414601A8FFF750FBC1
:105CAC0005460028EFD049463846FFF7D0FF00E004
:105CBC000025284607B0BDE8F08310B551F8043B29
:105CCC00044640F8043BFFF7ADFF204610BD884268
:105CDC0070B515461AD9904219D2A1F10806511A7D
:105CEC000439151F44182B1F9E4225D0042C07D0B5
:105CFC0055F8043C44F8043C29462046FFF7CEFEF8
:105D0C002846FFF7EAFE083D083CECE714D00C1DD2
:105D1C00061D231F9D420FD0042E07D054F8043CBF
:105D2C0046F8043C21463046FFF7B8FE2046FFF704
:105D3C00D4FE08340836ECE770BD2DE9F041046858
:105D4C0043680546884604EBC307A74218D0414672
:105D5C002046FFF7DBFD064608B90834F5E78CB1A1
:105D6C00201DFFF7BAFE2B686A6804F1080103EBEB
:105D7C00C2022046FFF7ABFF6B68013B6B6002E091
:105D8C00002600E026463046BDE8F081F7B5044613
:105D9C0051F8043B4768009301A8FFF77FFE666843
:105DAC00A3689E4214DB0136002E0BDDF000FEF7DB
:105DBC00C3FF054618B394E8060001EBC202FFF7D7
:105DCC0086FF00E000252068FEF7BEFF2560A66078
:105DDC002668626806EBC70506EBC202294605F188
:105DEC000800FFF774FF35B1009B46F8373001A966
:105DFC00281DFFF753FE636801336360012501A87A
:105E0C00FFF76BFE284603B0F0BD00002DE9F04112
:105E1C0004468EB003A80D46FFF758F92368032BF0
:105E2C0002D0042B42D087E004A8FFF7C3FE049BEA
:105E3C0022891A806268049952F8083FC1F802302E
:105E4C005368C1F8063007A8049B069305A9FFF711
:105E5C0025FE06A905F11800FFF798FF044607A8D0
:105E6C00FFF73BFE2023069374B9364B009306AA2A
:105E7C002346354907943220FEF7CAFE049B21467F
:105E8C001888FEF7A7FD0DE0304A0092002306AA01
:105E9C002D4907930120FEF7BBFE6B6A13B1E96A2B
:105EAC0004A8984705A8FFF718FE45E02189284665
:105EBC00FFF754FC074600283ED00468A369E1694B
:105ECC004FF6FF72228003EBC101994203D053F8C5
:105EDC00080B4280F9E7E668236906EBC308B04576
:105EEC0004D0301DFFF7F9FD0836F8E700232361D5
:105EFC00A669E36906EBC308B04504D0301DFFF773
:105F0C00ECFD0836F8E70023E361A372E372AB6A99
:105F1C0013B1296B3846984720230D4A06930092FB
:105F2C00002309490793012006AAFEF771FE3946A2
:105F3C0005F11800FFF701FF03A8FFF7D5F80EB025
:105F4C00BDE8F0815A8E0D00F88D0D00808E0D008D
:105F5C009D8E0D0038B50D1E044606DD5421694397
:105F6C000068FEF7F9FE20B938BD0068FEF7ECFEBC
:105F7C0000202060A560012038BD70B55426C0B04B
:105F8C00054632460C4601A8002102F06EFB03A820
:105F9C00FFF745FB0CA8FFF742FB2A4601AB52F872
:105FAC00100F5168EA8903C32B78A9688DF8543017
:105FBC000CA8FFF7C5FAAA89696803A8FFF7C0FA0D
:105FCC00A5691DB1E16901A8A8473CE0E06898B15A
:105FDC0063692269934239D25A1C626106FB030041
:105FEC00512201A902F01BFB626923699A422DD34D
:105FFC002846FEF7E5FC29E0324601A916A802F076
:10600C000EFB324616A92BA8656802F008FBA368A4
:10601C009D4204DB691C2046FFF79CFFB0B163680E
:10602C002268542606FB052506FB0322521B294633
:10603C00A81902F0FFFA32462BA9284602F0EFFA13
:10604C0063680133636063690133636140B070BDA1
:10605C008842F8B506460C46154614D9904213D220
:10606C00A2F108056C1AA1F108070444AF4218D03C
:10607C001CB129462046FFF726FD281DFFF72DFDF4
:10608C00083D083CF2E70CD0AC420AD01EB12146C8
:10609C003046FFF718FD201DFFF71FFD08340836AA
:1060AC00F2E7F8BD70B50E1E05460BDDF000FEF7ED
:1060BC0043FE044670B195E8060001EBC202FFF7FF
:1060CC00C7FF00E000242868FEF73EFE2C60AE609F
:1060DC00012070BD70BD2DE9F041002303604360C9
:1060EC0083600E4649689942044613DDFFF7DAFFD8
:1060FC0080B135687368276805EBC308454507D040
:10610C001FB129463846FFF7DEFC08350837F5E79E
:10611C00736863602046BDE8F08138B50B689B7AE4
:10612C0005460C4633B90846FEF762FF10B92368E2
:10613C0001229A72216828460C31FFF7CCFF2846C1
:10614C0038BD73B5044645686846FFF7BCFC61680A
:10615C00A368994205DB01312046FFF7A3FF0646F1
:10616C0098B12368626803EBC50503EBC2022946AC
:10617C0005F10800FFF76CFF1DB169462846FFF7D3
:10618C00A2FC636801336360012601A8FFF7A5FC3C
:10619C00304602B070BD8842F8B506460C4615462E
:1061AC0014D9904213D2A2F108056C1AA1F1080778
:1061BC000444AF4218D01CB129462046FFF775FCA9
:1061CC00281DFFF78AFC083D083CF2E70CD0AC42D6
:1061DC000AD01EB121463046FFF767FC201DFFF7A1
:1061EC007CFC08340836F2E7F8BD70B50E1E054687
:1061FC000BDDF000FEF7A0FD044670B195E806003B
:10620C0001EBC202FFF7C7FF00E000242868FEF78D
:10621C009BFD2C60AE60012070BD70BD2DE9F0417E
:10622C0000230360436083600E464968994204462C
:10623C0013DDFFF7DAFF80B135687368276805EB6B
:10624C00C308454507D01FB129463846FFF72DFC3A
:10625C0008350837F5E7736863602046BDE8F081C0
:10626C0030B50B689B7A85B005460C462BB901A856
:10627C00FFF753FF01A8FFF74AFC2368DB7A3BB911
:10628C00214601A8FFF7C0FA10B923680122DA727F
:10629C00216828461831FFF7C1FF284605B030BDEC
:1062AC002DE9F0430D4693B04FF0180817460646FB
:1062BC004246002104A81C4602F0D7F969682868F8
:1062CC00079702AB03C34FF0010905AB83E803004A
:1062DC00ADF81090ADF81280FFF760FB344B0893CB
:1062EC00FFF75CFB002203683168099304A8FEF7F2
:1062FC0099FB074620B133684FF6FF721A8053E0C2
:10630C0029463046FFF7F2FAFFF748FB314603689F
:10631C0012AD03F1180851F8043B45F8203D0BA8C9
:10632C00FFF7BCFB29464046FFF730FD80460BA823
:10633C00FFF7D3FB20230A93B8F1000F14D11D4BA8
:10634C0000932A4643461C49CDF82C803220FEF798
:10635C005FFC336841461888FEF73CFB33681748EE
:10636C004FF6FF721A801FE0154B00932A463B46EE
:10637C0011490B974846FEF74BFCA4B13146284611
:10638C00FFF76EFF0A9C0B9B04EBC306A64205D0DD
:10639C0020460121FFF7F4F90834F7E72846FFF708
:1063AC00C8FB002000E0204613B0BDE8F08300BF1E
:1063BC00195E0D00BC8E0D00F88D0D00FCFEFFFF6C
:1063CC00D88E0D0070B5044615461E46FFF7F2FB3D
:1063DC003346002229462046FFF762FF204670BD57
:1063EC0073B5044645686846FFF75FFB6168A368B0
:1063FC00994205DB01312046FFF7F7FE064698B1BE
:10640C002368626803EBC50503EBC202294605F15C
:10641C000800FFF7C0FE1DB169462846FFF745FB93
:10642C00636801336360012601A8FFF756FB304611
:10643C0002B070BD10B50446406808B1FDF727FEE8
:10644C00204610BD07B503690C308DE8090003F137
:10645C003C00FEF7F9FC6846FFF7ECFF03B05DF873
:10646C0004FB000038B500230446036014200D46DD
:10647C00FDF70BFE28B1012343608360024B0360E0
:10648C0005612060204638BDAC8D0D0070B500252F
:10649C0086B00560456004465420FDF7F6FDCDF846
:1064AC0010D00646059008B1FFF738F9314601AB1C
:1064BC0002AA03A80595FFF7D5FF039B6268266027
:1064CC00636003A80392FFF708FB04A8FFF7B2FF71
:1064DC0023680BB9FEF7AAFD204606B070BD00007C
:1064EC002DE9F041DFF804818CB005460F460026FB
:1064FC002B689E4275D202A8FFF7C8FF029B2A891F
:10650C005A806B6802982A247443234414305B7EAF
:10651C0013F0020F1EBF10F8103C43F0020300F8FA
:10652C00103C6B6823445B7E5B0742BF10F8103C49
:10653C0043F0040300F8103C6B6823445B7E19079E
:10654C0042BF10F8103C43F0080300F8103C6B6895
:10655C0023445B7EDA0642BF10F8103C43F0100374
:10656C0000F8103C6B6823445B7E9B0642BF10F81E
:10657C00103C43F0200300F8103C696821440431BE
:10658C00FEF7D2FE6A68029B144402A9E28B1A81C0
:10659C00228C5A81628C9A81A28CDA81E28C1A82CA
:1065AC00228D5A82386800F1180404A8FFF77DFA8E
:1065BC00204604A9FFF714FF044605A8FFF78DFA3F
:1065CC0054B920230493CDF80080234604AA06492D
:1065DC0005943220FEF71CFB03A8FFF77EFA013668
:1065EC0086E70CB0BDE8F081F88D0D00F58E0D003E
:1065FC0010B50446406808B1FDF749FD204610BDB2
:10660C0007B503690C308DE809006846FFF7F0FF09
:10661C0003B05DF804FB000038B5002304460360AA
:10662C0014200D46FDF731FD28B101234360836032
:10663C00024B036005612060204638BDC88D0D00FB
:10664C0070B5002586B00560456004461820FDF73E
:10665C001CFDCDF810D00646059018B1FEF7D0FD04
:10666C00B582F582314601AB02AA03A80595FFF766
:10667C00D3FF039B62682660636003A80392FFF755
:10668C002CFA04A8FFF7B4FF23680BB9FEF7CEFC75
:10669C00204606B070BD00002DE9F041DFF8808087
:1066AC008CB006460F46002533689D4233D202A8B3
:1066BC00FFF7C6FF1C24716802986C432144043117
:1066CC00FEF732FE7368029A234402A91B8B938255
:1066DC0073681C44638BD382386800F10C0404A8E3
:1066EC00FFF7F1F9204604A9FFF72BFD044605A896
:1066FC00FFF7F3F954B920230493CDF80080234617
:10670C0004AA064905943220FEF782FA03A8FFF783
:10671C00E4F90135C8E70CB0BDE8F081F88D0D0047
:10672C00218F0D0010B5064C002320462360FEF788
:10673C00AFF92046034A0449BDE8104001F0EBBD17
:10674C00D4E3032024D90320ED4F0D00F8B5064601
:10675C000D468F180024BD420CD0336815F8011B70
:10676C009B6830469847002801DB0444F3E7002C73
:10677C0008BF04462046F8BD70B505460C460846D1
:10678C0049B101F0CDFF2B68024621462846DB6853
:10679C00BDE87040184770BD03689B68184738B552
:1067AC000D210546FFF7F8FF0A2104462846FFF79E
:1067BC00F3FF204438BD30B58BB00B4600218DF86B
:1067CC002410012A98BF0A220DF12304B3FBF2F521
:1067DC0005FB123303F0FF03092B94BF303337331F
:1067EC00DBB2214604F801392B46002DEED1FFF720
:1067FC00C3FF0BB030BD0CB42DE9F04387B000AF34
:10680C0007F13804054654F8049B3C600E462346B9
:10681C004A461421381DFEF7A7FA132805D8391D4E
:10682C002846FFF7A9FF044613E000F1080323F004
:10683C000703E846ADEB030D411C23464A46684668
:10684C003C60FEF791FA69462846FFF795FF04462F
:10685C00C5461EB12846FFF7A2FF044420461C374C
:10686C00BD46BDE8F04302B0704780680368DB6842
:10687C001847704719B10B6808465B681847704792
:10688C0019B10B6808465B6818477047704770472A
:10689C00704738B504460D4600682E2101F024FFE0
:1068AC002368C31A2B6023B1037803B1013023682A
:1068BC002060184638BD10B50C21044601F038FD97
:1068CC00204610BD10B50421044601F031FD2046D0
:1068DC0010BD10B50421044601F02AFD204610BD60
:1068EC0038B50C46054601F003F984420DD001F091
:1068FC0087F9844205D101F083F9BDE8384001F0F5
:10690C007CB921462846FFF7BBFF38BD08B501F01E
:10691C00F5FEB0FA80F0400908BD38B505460846CA
:10692C000C4601F0FDFE214602462846BDE83840E3
:10693C0001F08FBC0068FEF7BBB870B50446084682
:10694C000D4601F0EDFE2368024629462046DB6821
:10695C00BDE87040184713B502AB026803F8011D7F
:10696C00D46819460122A04702B010BD2DE9F04FA2
:10697C004568076885B09146142255430193AB10C6
:10698C00194D02925D438B463C460123002D039327
:10699C0023DD029B6E1003FB06F004EB00084A4655
:1069AC00B8F804A02058D14528BF5246594601F0EA
:1069BC00BFFE039B48B9D14503D1019A13703546EC
:1069CC00E4E78CBF0120002000E0C00F0028F6D0C7
:1069DC00AE1B08F11404013EF1E7E41B0248A410BD
:1069EC00604305B0BDE8F08FCDCCCCCCF0B585B014
:1069FC0003690191067E13B309B304AF002347F872
:106A0C00043D00F10C041D46394601A8FFF741FF77
:106A1C000146A0B104AB039A03F8055D2046FFF7CD
:106A2C00A5FF9DF80B3053B12368142404FB0034EC
:106A3C00083434F9023C002BA8BFDEB2E4E7304640
:106A4C0005B0F0BD10B5094C2368DB070BD420460C
:106A5C00FDF72CFB38B12046FDF72DFB044A054908
:106A6C00054801F058FC044810BD00BFD8E30320D2
:106A7C0024D903209B680D00B4D8032010B5094C11
:106A8C002368DB070BD42046FDF710FB38B12046FA
:106A9C00FDF711FB044A0549054801F03CFC04488C
:106AAC0010BD00BF08E4032024D9032099680D0011
:106ABC00B0D8032038B500250446056045608560D4
:106ACC0005614561856140F8245FFDF7E1FFFFF743
:106ADC00B9FFE061FFF7D2FF25732062204638BD75
:106AEC0010B50A4C2368DB070ED42046FDF7DEFAFE
:106AFC0050B10748FFF7DEFF2046FDF7DCFA054AE8
:106B0C000549034801F007FC014810BDDCE30320F4
:106B1C00E0E3032024D90320576F0D000023024A21
:106B2C0002490348FEF78CB8396E0D00C96D0D0093
:106B3C00516D0D0000231A4619461846FEF780B811
:106B4C0073B502AC8E6851F8043B44F8083D054619
:106B5C0001A8FEF7A3FF22463146284601F0B0FB00
:106B6C0001A8FEF7BAFF284602B070BD73B502AC9F
:106B7C000E6951F8043B44F8083D054601A8FEF7A0
:106B8C008DFF22463146284601F0B5FB01A8FEF7E1
:106B9C00A4FF284602B070BD73B502ACCE6851F8A4
:106BAC00043B44F8083D054601A8FEF777FF224652
:106BBC003146284601F05CFB01A8FEF78EFF284603
:106BCC0002B070BD30B58BB00D46014604A8FFF77E
:106BDC00B7FF04A801F07FFAE8B104A96846FFF7F3
:106BEC00DBFF0F490298FFF791FE044610B12C1CF5
:106BFC0018BF012401A8FEF770FF002CE9D004A9EE
:106C0C006846FFF7B3FF684601F045FA286001A813
:106C1C00FEF763FFDDE705A8FEF75FFF0BB030BDA5
:106C2C00D88F0D0037B50C4620461349154601F098
:106C3C0065FD40B900F05CFF4FF4165100F048FFC1
:106C4C0000F056FF15E00D49204601F057FD78B9CC
:106C5C0002A94FF4165341F8043D2846FFF7B2FF42
:106C6C0000F0CEFF019900F0C5FF00F0C9FF00E075
:106C7C00002003B030BD00BFDD8F0D00E48F0D0090
:106C8C0070B5046843681426054606FB0346A64205
:106C9C0005D004F10800FFF7F3FF1434F7E7286878
:106CAC00FEF752F8284670BD70B504684368054677
:106CBC0004EB0316A64204D02046FEF7C5F81034A8
:106CCC00F8E72868FEF740F8284670BD10B5044672
:106CDC000C30FFF7D5FF2046FFF7E6FF204610BD2E
:106CEC0010B5044B044640F8043BFFF7EFFF204679
:106CFC0010BD00BFE0880D0010B50446FFF7F0FF93
:106D0C002046242101F014FB204610BD10B5034B86
:106D1C0003600446FFF7E4FF204610BDC88F0D004A
:106D2C0010B50446FFF7F2FF2046242101F000FBCA
:106D3C00204610BD10B5036804461868FDF7C0FE68
:106D4C00204610BD2DE9F04F9B461B4B5B68C3F3EF
:106D5C00080385B082460E46904653BBFFF7C0FE33
:106D6C00044624300390FFF7E5FD237BF3B90123A0
:106D7C00237325686368F6B205EB83094D4513D080
:106D8C0055F8047B4146381DFFF730FE8642F5D39B
:106D9C003B68CDF800B09B689E4638464346324669
:106DAC0051467746B847E9E70023237303A8FFF75A
:106DBC00C1FF05B0BDE8F08F00ED00E02DE9F74F05
:106DCC009946194B5B68C3F3080307468846164679
:106DDC0033BBFFF785FE044624300190FFF7AAFD74
:106DEC00237BD3B901232373256863685FFA86FB81
:106DFC0005EB830A55450ED055F8046B4946301DFA
:106E0C00FFF7F4FD8345F5D333684246DB6839461A
:106E1C0030469847EEE70023237301A8FFF78AFF5B
:106E2C0003B0BDE8F08F00BF00ED00E02DE9F341A9
:106E3C00154B5B68C3F3080304468846FBB9FFF7A0
:106E4C004FFE064624300190FFF774FD96E8A00033
:106E5C00462605EB8707AF4207D101A8FFF76AFF6B
:106E6C00B442B4BF002001200AE055F8040B41469F
:106E7C000430FFF7BBFD8642A8BF0646EBE70020B7
:106E8C0002B0BDE8F08100BF00ED00E070B5036812
:106E9C004268044603EB82029A4218460ED00668FA
:106EAC000D68AE4203F10403F6D1011D521A01F034
:106EBC00C1FB6368013B6360012070BD002070BDA5
:106ECC001FB50446243001910390FFF733FD01A94F
:106EDC002046FFF7DBFF20B903A8FFF72BFF04B018
:106EEC0010BD6368002BF7D1FFF724FEF4E770B5F3
:106EFC00056943691826044606FB0356AE4215D0B5
:106F0C0005F110012046FFF7C1FF63680BB9FFF7CD
:106F1C0011FEE06929690368DB689847696919B152
:106F2C00206A0368DB6898471835E7E725696369C9
:106F3C00182606FB0356B54204D02846FDF784FFFD
:106F4C001835F8E70023636170BD73B5044602ADD4
:106F5C00FFF7F0FD04F1240045F8040DFFF7EAFCFF
:106F6C002046FFF7C4FF2846FFF7E4FE606A08B12D
:106F7C00FDF796FD25696369182606FB0356B54295
:106F8C0004D02846FDF760FF1835F8E72069FDF7B7
:106F9C00DBFE2068FDF7D8FE204602B070BD03680A
:106FAC000A6802600B6043684A6842604B60836801
:106FBC008A6882608B60704710B5002304460360BA
:106FCC0043608360FFF7EBFF204610BD8842F8B5A5
:106FDC000446164625D9904224D2551A143D2C4409
:106FEC00A1F11407A2F10C050026A5F108039F429C
:106FFC0037D084B155F8083C236035F8043CA380A5
:10700C0035F9023CE380A660E6602661294604F16E
:10701C000800FFF7C4FF2846FFF732FE143C143D6E
:10702C00E3E71ED001F108050027A5F108039E42F5
:10703C0017D084B155F8083C236035F8043CA38084
:10704C0035F9023CE380A760E7602761294604F12B
:10705C000800FFF7A4FF2846FFF712FE143414357E
:10706C00E3E7F8BDF8B5456883689D4204460E46D3
:10707C0017460EDB0135002D05DDA9000068FDF774
:10708C006BFE20B9F8BD0068FDF75EFE00202060A5
:10709C00A5602568626805EB860105EB8202521A31
:1070AC00081D01F0C7FA45F8267063680133636068
:1070BC000120F8BD37B5044624300D460190FFF78A
:1070CC0039FC2368616803EB810083421A4609D0BE
:1070DC001268AA4203F10403F7D101A8FFF72AFEB4
:1070EC0000250EE02A462046FFF7BCFF0546002887
:1070FC00F3D06368012B01D1FFF710FD01A8FFF756
:10710C0019FE284603B030BD8842F8B506460C4639
:10711C00154614D9904213D2A2F110056C1AA1F1A4
:10712C0010070444AF4218D01CB129462046FDF785
:10713C007BFE2846FDF788FE103D103CF2E70CD094
:10714C00AC420AD01EB121463046FDF76DFE2046FA
:10715C00FDF77AFE10341036F2E7F8BD70B50E1E4E
:10716C0005460BDD3001FDF7E7FD044670B195E8EF
:10717C00060001EB0212FFF7C7FF00E000242868AD
:10718C00FDF7E2FD2C60AE60012070BD70BD2DE9F5
:10719C00F04F002395B09246462203604360836013
:1071AC00C3600361436102760291DAF8041008931C
:1071BC009942054609930A9340F39D8008A8FFF76E
:1071CC00CDFF002840F097808EE021460BA8FDF7FC
:1071DC002BFE0BA90FA8099EFDF726FE09990A9B09
:1071EC009942C0F2CE80013108A8FFF7B7FF002802
:1071FC0040F0C7800FA8FDF727FE0BA8FDF724FE73
:10720C001434A742E1D100260B960C960D96B1468C
:10721C00099B9E4280F2A8803301089AD3580693AA
:10722C00002B00F09F8014237343CDF81C90019326
:10723C000BAC07A906A8FFF72CFB0746002800F0AB
:10724C00918014AB014603F8399D079A2046FFF74D
:10725C008DFB9DF817800090B8F1000F53D1BDF84D
:10726C001C30ADF840304FF6FF730F97ADF842303D
:10727C00CDF84480CDF84880CDF84C806768A36881
:10728C009F424FDA009BD4F800B06168142253433C
:10729C000BEB030702FB01B207F114003946039311
:1072AC00FFF794FEA7B1039B0F9A4BF80320BDF890
:1072BC004030BB80BDF94230FB80C7F80890C7F85E
:1072CC000C90C7F8109011A907F10800FFF767FEA2
:1072DC0063680133636011A8FFF7D2FCB8F1000FAB
:1072EC0011D00BA8FFF7CCFC08A8FFF7DDFC284653
:1072FC0015B0BDE8F08FDAF80040DAF80430142746
:10730C0007FB03477DE72368009A142404FB02342F
:10731C00069B1B7823BBDAF80030019A13441B7CC4
:10732C00E3801DE00137002F0FDD142303FB07F072
:10733C000393FDF701FD834678B194E80600039BA7
:10734C0003FB0212FFF742FE00E0C3462068FDF784
:10735C00FBFCC4F800B0A76094E74FF00108BAE753
:10736C00083466E7013653E708A92846FFF717FEED
:10737C000BA905F10C00FFF712FE9DF808302B76D7
:10738C00AFE7089B099A03EB061603EB0212314692
:10739C0006F11000FFF7B8FE1EB10FA93046FDF73D
:1073AC0043FD099B0133099324E700007FB5044694
:1073BC00094B44F8043B05460E4601A81146FDF75F
:1073CC009AF901AA31462046FFF7E1FE01A8FDF724
:1073DC0051F9284604B070BDE0880D00F0B50F4699
:1073EC008BB02B49109C384616461D4601F086F989
:1073FC0028BB002C49D0294601A8FFF7DDFD254903
:10740C00242000F097FF0546B8B101A904A8FFF7A6
:10741C00D3FD04A907A8FDF76EF907AA3146284643
:10742C00FFF7C4FF07A8FDF725F91B4B2B602C6257
:10743C0004A8FDF71FF9194B2B6001A81FE0184990
:10744C00384601F05BF9F0B9FCB1294604A8FFF706
:10745C00B3FD1049242000F06DFF054670B104A95E
:10746C0007A8FDF748F907AA31462846FFF79EFF03
:10747C0007A8FDF7FFF8084B2B602C6204A8FDF75A
:10748C00F9F8284602E0002000E020460BB0F0BDE1
:10749C0036900D005F920D00C0900D00C88F0D004E
:1074AC003A900D00014B024A1A6070470CE403201D
:1074BC004B900D002DE9F047089DD0F82090044624
:1074CC000E461746984600F013FB814505D15A48E5
:1074DC0000F0E7FC002840F0AC802B791B0705D5A9
:1074EC006B69564A206A0021FFF785F9B8F1000F45
:1074FC000DD05B212046FFF72EFA41462046FFF7C0
:10750C001CFA23684E49DB680222204698472B79E7
:10751C00D90725D5D5F808802F21404601F029F947
:10752C0008B100F1010841462046FFF706FA2B7915
:10753C009A0709D53A212046FFF70DFAEB68414A24
:10754C00206A0021FFF757F92B7913F0040F2368F9
:10755C0018BF3D49DB6808BF3C49022220469847CA
:10756C002B795B0718D529690A46134613F8010BCA
:10757C0038B1202801D1194601E0282801D01A463B
:10758C00F3E72368521ADB68204698472368304992
:10759C00DB6804222046984700213846FDF748FB5B
:1075AC0001462046FFF7C9F923682849DB68022207
:1075BC00204698471EB131462046FFF7BEF92B797D
:1075CC0013F0300F2DD023682249DB6820460222AD
:1075DC0098472B79D8060BD523681F49DB680722FF
:1075EC0020469847AB691D4A206A0021FFF703F932
:1075FC002B79990611D5DA0605D523681249DB6873
:10760C0002222046984723681549DB6820460A2247
:10761C009847E9692046FFF790F95D212046FFF76E
:10762C009AF923680F49DB6820460222BDE8F0472F
:10763C001847BDE8F08700BF40E703204F900D00CE
:10764C0056900D0059900D005C900D0061900D004E
:10765C005F900D0064900D0067900D006F900D0011
:10766C0072900D007D900D002DE9F04385B0D0F89F
:10767C0020800C9C06460F4691461D4600F038FAB9
:10768C00804505D14A4800F00CFC002840F08C8065
:10769C00336A484A01924FF0000801A803938DF811
:1076AC00088000F042FD41464846FDF7C1FA4249C8
:1076BC008046012201A800F0BDFD4146FFF72DF9DF
:1076CC003FB13E49012201A800F0B4FD3946FFF755
:1076DC0024F93DB13A49012201A800F0ABFD29463D
:1076EC00FFF71BF92379DF070ED5A5682F21284654
:1076FC0001F03FF800B1451C3249012201A800F00D
:10770C0099FD2946FFF709F923799D0707D52E49DD
:10771C00022201A800F08EFDE16800F013FD237930
:10772C00580716D525692F463B4613F8012B3AB15D
:10773C00202A01D11D4601E0282A01D01F46F3E77B
:10774C000222224901A800F075FD7A1B294600F09F
:10775C0080FD2379190707D51D49012201A800F0E6
:10776C0069FD616900F000FD2379DA0608D5042271
:10777C0018490DEB020000F05DFDA16900F0E2FC80
:10778C0023799B0607D51449062201A800F052FD67
:10779C00E169FFF7C2F801A800F0B1FC306A0F49AB
:1077AC0003680222DB68984705B0BDE8F08300BF90
:1077BC0040E70320B08F0D00E28F0D00F58F0D0018
:1077CC006B8B0D00468B0D0080900D0083900D008F
:1077DC000A900D0086900D008B900D007D900D0091
:1077EC00024B1A68024B1A60704700BFB8D80320CE
:1077FC0010E4032010B58368044613B1032201463C
:10780C009847204610BD10B50446FFF7F3FF2046FD
:10781C0010BD00000348044A04490023836000F0B3
:10782C007ABD00BF14E4032024D9032013780D0083
:10783C0008B50C4B33B100F05BF903681B69984732
:10784C00002809DC084B63B100F0DAF903681B6906
:10785C009847002803DC08BDAFF30080F2E7AFF3D4
:10786C00008008BD000000000000000008B5FFF714
:10787C00DFFFFDF78DF8014B186008BD48E70320CA
:10788C000248034A0349121A00F0C9BE00F403204F
:10789C0004F4032010940D0007B5002300931A463E
:1078AC006FF07701FDF7E6F903B05DF804FB00001B
:1078BC0007B543880A2B08D0502B09D1094B1B68FC
:1078CC003BB103B05DF804EB1847FFF7E5FF06E0AA
:1078DC00002300931A466FF07701FDF7CBF903B044
:1078EC005DF804FB24E4032038B5104C104D2368DC
:1078FC00AB42104B0CBF012200221A7002D0FFF7D2
:10790C00BFFF2560FDF734F8044600F0B7FE0A4BC4
:10791C0013B12046AFF3008000210748FDF704FAAD
:10792C0000210648BDE83840FDF79AB900F4032061
:10793C001E1C279A28E4032000000000BD780D00CF
:10794C00704710B51821044600F0F2FC204610BD1B
:10795C00F0B5037D062B8DB00E4600F104074FF0F9
:10796C00000402D000F1080518E00CAD394605F80A
:10797C00304D2F232A460A20FDF7AAF8284600F09E
:10798C00CFFE33680246DB682946304698470FE045
:10799C0024B12E213046FEF7FFFE044415F8011DDC
:1079AC000A223046FEF707FFBD420444F0D12046C0
:1079BC000DB0F0BD10B5054B0446112240F8043B48
:1079CC00002100F052FE204610BD00BF34910D0086
:1079DC000346074A10B543F8042B01F1100251F885
:1079EC00044B43F8044B9142F9D10A781A7010BD3C
:1079FC0034910D0010B59DF8084044EA032343EA86
:107A0C00024242EA016104234160037510BD37B59F
:107A1C000D788B784A78C97800912946FFF7EAFFF0
:107A2C0003B030BD41747047704708B50021007C2D
:107A3C00FDF7CEF830EA200028BF4FF0FF3008BD2C
:107A4C0008B50121007CFDF7C3F830EA200028BFFF
:107A5C004FF0FF3008BD08B5007CFDF7B1F820EA07
:107A6C00E07008BD08B5007CFDF7A2F820EAE070D4
:107A7C0008BD007CFDF7BCB810B51421044600F01D
:107A8C0057FC204610BD38B50446007C0D46FDF76A
:107A9C0097F8002801DC607C28B12946207CFDF792
:107AAC009FF820EAE07038BD10B5044600236360EF
:107ABC004FF47A73A360054B2360012308462174AD
:107ACC0063741146FDF75CF8204610BD48910D001B
:107ADC000022007CFDF75CB8007CFDF761B810B5A6
:107AEC0014220446002100F0C0FD204610BD000009
:107AFC0030B50E4D87B001A8FFF7F1FF296811F0E2
:107B0C00010410D12846FCF7D1FA60B101AA214634
:107B1C000748FFF7C9FF2846FCF7CDFA054A064986
:107B2C00034800F0F8FB024807B030BD2CE40320FA
:107B3C0030E4032024D90320357A0D0070474174BA
:107B4C00704708B5007CFDF703F820EAE07008BD2B
:107B5C0008B5007CFCF7DCFF20EAE07008BD08B536
:107B6C00007CFCF7E5FF30EA200028BF4FF0FF3027
:107B7C0008BD08B5007CFCF7D3FF30EA200028BF15
:107B8C004FF0FF3008BD007CFCF7DABF10B51421B4
:107B9C00044600F0CDFB204610BD70B5457C044674
:107BAC000E4625B9007CFCF7D3FF002805DD3146D5
:107BBC00207CBDE87040FCF7A3BF284670BD0000D8
:107BCC0010B5044608461146002262604FF47A72E2
:107BDC00A260054A22600122207462741A46FCF7E6
:107BEC007FFF204610BD00BF78910D000023007C64
:107BFC00FCF7B6BF0022FFF7F9BF007CFCF778BF9B
:107C0C0038B50C4D296811F0010411D12846FCF748
:107C1C004DFA68B1084A094B09482146FFF7D0FFD5
:107C2C002846FCF748FA074A0749054800F073FB59
:107C3C00034838BDDCE40320E0E4032058E40320CF
:107C4C0044E4032024D90320497B0D000022114673
:107C5C004068FDF751B8002211464068FDF75CB84A
:107C6C0000224068FDF750B8002281F00101406805
:107C7C00FDF73AB800231A4601214068FDF72CB8ED
:107C8C0000231A4619464068FDF71EB8002211461B
:107C9C004068FDF711B8002211464068FCF7FCBFA4
:107CAC00002202214068FCF7FFBF00231A464068FF
:107CBC00FCF7EABF38B5054688B104684CB1A36837
:107CCC001BB103222146204698471021204600F084
:107CDC002FFB28461421BDE8384000F029BB38BDE5
:107CEC0010B103685B681847704710B50368044609
:107CFC00BBB15868FCF7B4FE78B923685A7C12B94A
:107D0C005868FCF7B5FE23685868FCF7B9FE206884
:107D1C000023236028B1FFF7CDFF206808B1FFF7DF
:107D2C00C9FF204610BD38B50446D0F8C40108B1CF
:107D3C00FCF7AFF9D4F8C00108B1FCF7B1FED4F8E8
:107D4C00BC5135B12846FFF7D0FF0421284600F07E
:107D5C00EFFA206808B1FFF7C3FF204638BD0000DA
:107D6C0010B5044B044640F8083BFFF7DCFF2046F7
:107D7C0010BD00BFA8910D0038B50E4C0E4B236002
:107D8C000025022304F5E4706360A560C4F8C451B7
:107D9C00C4F8C851FCF77CFE084BC4F8CC5184F8ED
:107DAC00D05123602046064A0649BDE8384000F011
:107DBC00B2BA00BF64E5032010920D00A8910D002B
:107DCC0024D903206D7D0D00002211464068FCF77C
:107DDC0073BF002211464068FCF78EBF002211468B
:107DEC004068FCF799BF00224068FCF78DBF002269
:107DFC0081F001014068FCF777BF00231A46194651
:107E0C004068FCF769BF00231A4619464068FCF726
:107E1C005BBF002211464068FCF73EBF00220221E6
:107E2C004068FCF741BF00231A464068FCF72CBFA2
:107E3C00024B04225A60024A1A60704738E703204A
:107E4C00DC910D0000231A464068FCF71DBF002290
:107E5C0002214068FCF728BF002211464068FCF75D
:107E6C001BBF002211464068FCF726BF00231A46B0
:107E7C0019464068FCF728BF00231A46194640688B
:107E8C00FCF72ABF002281F001014068FCF72CBFEF
:107E9C0000224068FCF738BF002211464068FCF70E
:107EAC003BBF002211464068FCF726BF2DE9F0438A
:107EBC00002495B016460D460746FFF77BFD21467C
:107ECC0020220CA8009400F0D0FB40230C932146F8
:107EDC006B460CAA3046FCF73BFD0446002844D107
:107EEC00024601216868FCF7E7FE02218046224623
:107EFC006868FCF7E1FE009E81462146002E34D0D6
:107F0C00002932D17368022B02D00A2B09D02AE047
:107F1C00B8F1000F27D0716938460431FFF777FDAF
:107F2C0020E0B9F1000F1ED07469112201A800F0F5
:107F3C009CFB06238DF8143001AD04F108031834B2
:107F4C00186859682A4603C20833A3421546F7D16C
:107F5C0001A906A807ADFFF73BFD0FCD3C1D0FC4D3
:107F6C002B6823700121F669C8E70098FCF7E8FC40
:107F7C00384615B0BDE8F083024B034A1A60002264
:107F8C005A60704740E7032010920D0000F1100278
:107F9C00012312F8101C0129104604D152F8041CBC
:107FAC0003EB410304E0022904BF52F8041C5B18E4
:107FBC00013B02F11002ECD170470EB42DE9F041F7
:107FCC0087B000AF07F13404054654F8046B7C60AD
:107FDC0023463246102107F10800FCF7C5FE0F2896
:107FEC0016D900F1080323F00703E846ADEB030DA7
:107FFC003246411C234668467C60FCF7B5FE021EE7
:10800C0004DD2B6869469B6828469847C54607E0FF
:10801C0030B12B6802469B6807F108012846984747
:10802C001C37BD46BDE8F04103B0704713B502AB39
:10803C00026803F8011D946819460122A04702B09A
:10804C0010BD8368FBB11A78032A1AD8DFE802F056
:10805C000417021D0520704702685B685268D05CEB
:10806C002D2814D0A0F13003092B10D9742810D06E
:10807C0066280ED0A0F16E03584258417047062076
:10808C007047002070471846704704207047032043
:10809C0070470220704710B50446FFF7D2FF022844
:1080AC000DD016D3042814D82268A36850685B68D6
:1080BC000A2200211844BDE8104000F0F3BB2268EE
:1080CC00A36852685B68D05CA0F1740358425841B5
:1080DC0010BD002010BD10B5436904465BB180682B
:1080EC00E060013B1030A060206163612BB1FFF7B1
:1080FC004DFFA06001E0184610BD012010BD10B569
:10810C007D210446FFF792FF01232371204610BD09
:10811C0008B50379012B02D0022B02D008BD2C210B
:10812C0000E03A21FFF782FF08BD10B50446FFF7C7
:10813C00EFFF20467B21FFF779FF002323712046B8
:10814C0010BD000038B504460D46FFF7E1FF23686B
:10815C000449DB6820462A469847012323712046B0
:10816C0038BD00BF59900D0038B504460D46FFF7D9
:10817C00CFFF23680449DB6820462A469847012331
:10818C002371204638BD00BFFF890D00F8B50D46A0
:10819C001746222104462F44FFF748FF2A4629465A
:1081AC00BA4238D0164616F8015B222D03D05C2D4E
:1081BC0001D01F2D2DD82368521A9B682046984752
:1081CC005C212046FFF732FF0C2D19D007D8092D62
:1081DC000FD00A2D12D0082D14D162210AE0222DC5
:1081EC0005D05C2D03D00D2D0CD1722102E0294657
:1081FC0000E074212046FFF719FF09E06E21F9E732
:10820C006621F7E723680A49DB682A462046984727
:10821C0031463246C4E7914204D02368521A9D6815
:10822C002046A84722212046FFF700FFF8BD00BFDB
:10823C0059920D0070B504460D461646FFF768FFBF
:10824C00204632462946FFF7A1FF02232371204620
:10825C0070BD70B504460D461646FFF759FF204613
:10826C0032462946FFF792FF01232371204670BD49
:10827C0010B500230446036043601048A060E3601F
:10828C00D1B10B78032B06D0B3B9136858684B687F
:10829C00C35C6E2B08D0136858684B680344A3600A
:1082AC008B6849685B1AE3601146204651F8043B21
:1082BC0040F8043BFDF7B6FC204610BD7F900D0046
:1082CC00002310B50446036043608360C360036100
:1082DC00436171B10B78012B0BD101F11003836059
:1082EC00CB684361114651F8043B40F8043BFDF761
:1082FC0099FC204610BD002310B504460360436072
:10830C00816031B1114651F8043B40F8043BFDF754
:10831C0089FC204610BD0B460146184600F062B998
:10832C00024B1868BFF35F8F704700BF4CE7032008
:10833C00FBF7ADBE10B5002814BF0446012420463F
:10834C00FCF7FAFC20B9FFF7EBFF08B18047F6E722
:10835C0010BD0000184B1A68D1075CBF01221A60CF
:10836C00164B1A68D2075CBF01221A60144B1A68AC
:10837C00D0075CBF01221A60124B1A68D1075CBF90
:10838C0001221A60104B1A68D2075CBF01221A60D6
:10839C000E4B1A68D0075CBF01221A600C4B1A688E
:1083AC00D1075CBF01221A600A4B1A68D2075CBF66
:1083BC0001221A60704700BF6CE7032068E70320B6
:1083CC0064E7032060E703205CE7032058E7032001
:1083DC0054E7032050E70320244B1A68D0075CBFF6
:1083EC0001221A60224B1A68D1075CBF01221A6065
:1083FC00204B1A68D2075CBF01221A601E4B1A6808
:10840C00D0075CBF01221A601C4B1A68D1075CBFF5
:10841C0001221A601A4B1A68D2075CBF01221A603B
:10842C00184B1A68D0075CBF01221A60164B1A68E9
:10843C00D1075CBF01221A60144B1A68D2075CBFCB
:10844C0001221A60124B1A68D0075CBF01221A6015
:10845C00104B1A68D1075CBF01221A600E4B1A68C8
:10846C00D2075CBF01221A60704700BF9CE7032053
:10847C0098E7032094E7032090E703208CE7032080
:10848C0088E7032084E7032080E703207CE70320B0
:10849C0078E7032074E7032070E70320244B1A6865
:1084AC00D0075CBF01221A60224B1A68D1075CBF4F
:1084BC0001221A60204B1A68D2075CBF01221A6095
:1084CC001E4B1A68D0075CBF01221A601C4B1A683D
:1084DC00D1075CBF01221A601A4B1A68D2075CBF25
:1084EC0001221A60184B1A68D0075CBF01221A606F
:1084FC00164B1A68D1075CBF01221A60144B1A681C
:10850C00D2075CBF01221A60124B1A68D0075CBFFD
:10851C0001221A60104B1A68D1075CBF01221A6045
:10852C000E4B1A68D2075CBF01221A60704700BF5D
:10853C00CCE70320C8E70320C4E70320C0E70320EF
:10854C00BCE70320B8E70320B4E70320B0E703201F
:10855C00ACE70320A8E70320A4E70320A0E703204F
:10856C00184B1A68D1075CBF01221A60164B1A68A7
:10857C00D2075CBF01221A60144B1A68D0075CBF8B
:10858C0001221A60124B1A68D1075CBF01221A60D3
:10859C00104B1A68D2075CBF01221A600E4B1A6886
:1085AC00D0075CBF01221A600C4B1A68D1075CBF64
:1085BC0001221A600A4B1A68D2075CBF01221A60AA
:1085CC00704700BFECE70320E8E70320E4E7032053
:1085DC00E0E70320DCE70320D8E70320D4E70320FF
:1085EC00D0E7032010B5054C13462CB10A460146C2
:1085FC000220AFF3008010BD204610BD000000002B
:10860C0010B501390244904207D010F8013B11F823
:10861C00014FA342F7D0181B10BD002010BD10B5A0
:10862C00431E0A44914204D011F8014B03F8014F48
:10863C00F8E710BD884210B501EB020301D8421EC9
:10864C000BE09842FBD28118D21AD34204D013F813
:10865C00014D01F8014DF8E710BD994204D011F815
:10866C00014B02F8014FF8E710BD02440346934258
:10867C0002D003F8011BFAE77047000038B5124B23
:10868C001C68A36B0546D3B91820FCF755FB43F2C5
:10869C000E33A06303804AF6CD33438041F234237A
:1086AC0083804EF26D63C3804DF6EC63038105232A
:1086BC0043810B23838101220023C0E90423A36B94
:1086CC0000221D615A6138BD20D90320C9B203466E
:1086DC0010F8012B1AB19142F9D1184670470029B4
:1086EC000CBF18460020704710B50446FFF7EEFF8C
:1086FC0018B9204600F014F8204410BD10F8012BD6
:10870C0011F8013B012A28BF9A42F7D0D01A7047C2
:10871C00034611F8012B03F8012B002AF9D17047FD
:10872C00034613F8012B002AFBD1181A01387047A5
:10873C0030B582B1451E013915F8013F11F8014FD2
:10874C00A34206D1EC431444E04201D0002BF3D1F8
:10875C001C46181B30BD104630BD10B503460144F5
:10876C008B4204D01A785C1C0AB12346F8E7181A1D
:10877C0010BD38B503460D4641B1002429461846B4
:10878C00FFF7A4FF30B1431C0446F7E7BDE83840BF
:10879C00FFF79CBF204638BD2DE9F0478046404886
:1087AC00D0F800900F463D4615F8014B09EB04003C
:1087BC00407800F0080000F0FF0608B12F46F2E701
:1087CC002D2C03D1BD1C7C78012603E02B2C04BF7F
:1087DC007C78BD1C13B1102B0AD15BE0302C57D127
:1087EC00287800F0DF0058284DD16C781023023522
:1087FC00002E14BF4FF0004C6FF0004C0027BCFB58
:10880C00F3FA384603FB1ACC09EB040E9EF801E090
:10881C001EF0040F01D0303C0BE01EF0030E1BD0F9
:10882C00BEF1010F0CBF4FF0370E4FF0570ECEEBD1
:10883C000404A34210DDB7F1FF3F0AD0504506D81F
:10884C0001D1644503DC03FB0040012701E04FF03C
:10885C00FF3715F8014BD7E77B1C0CD1002E4FF0DE
:10886C00220314BF4FF000406FF00040C8F80030F6
:10887C002AB9BDE8F08706B1404272B107B1691E52
:10888C001160BDE8F0873024002BB1D10823AFE78D
:10889C000A23ADE7302CA3D0AAE7BDE8F08700BFD0
:1088AC00BCD8032013460A46014602480068FFF76D
:1088BC0073BF00BF20D903201D400D0059400D008F
:1088CC0085400D0089400D000000000000000000F4
:1088DC00000000000000000000000000A5400D009A
:1088EC00C9400D000000000000000000E5400D0034
:1088FC0019410D00C1740D00CB400D0053656E7312
:10890C006F722031202D2054656D70657261747505
:10891C0072653A202575206465677265657320431E
:10892C00656C736975730053656E736F72203120BB
:10893C002D2048756D69646974793A202575252553
:10894C000053656E736F722031202D204375727247
:10895C00656E743A20257520416D70730053656EF9
:10896C00736F722032202D2043757272656E743ACB
:10897C0020257520416D70730053656E736F7220E6
:10898C0031202D2044697374616E63653A2025751E
:10899C0020636D0053656E736F722032202D20544E
:1089AC00656D70657261747572653A20256420641A
:1089BC006567726565732043656C736975730053E5
:1089CC00656E736F722032202D204C696768743A83
:1089DC00202575204C75780053656E736F722032AC
:1089EC00202D2048756D616E206465746563746F0D
:1089FC00723A2025750053656E736F722032202DEC
:108A0C002048756D616E206C6F73742E2E2E005382
:108A1C00656E736F722032202D2048756D616E204B
:108A2C006465746563746564210053656E736F725D
:108A3C002032202D20496E76616C69642068756D3A
:108A4C00616E206465746563746F72206D657373F9
:108A5C006167652E204578706563746564203020ED
:108A6C006F7220312C2072656365697665642025F0
:108A7C007500466F756E64206120626C7565746F4D
:108A8C006F7468206465766963652E004164647256
:108A9C006573733A2000466F756E642055554944D2
:108AAC003A200053656E736F724E6F6465312055BA
:108ABC005549443A200053656E736F724E6F64656E
:108ACC003220555549443A200053756363657373DE
:108ADC0066756C6C7920636F6E6E6563746564206B
:108AEC00746F2073656E736F72206E6F64652031C6
:108AFC00210032396662613366352D346365382D59
:108B0C00343662632D386437352D37373830366458
:108B1C006232326333310039396130643266392D57
:108B2C00316366612D343262332D623562612D31D1
:108B3C00623464343334313339326600343562652F
:108B4C00346135362D343866352D343833632D3851
:108B5C006262312D6433666565343333633233635B
:108B6C000065613532343861342D343363632D3410
:108B7C003139382D613461612D37393230306137FC
:108B8C003530383335004661696C656420746F206C
:108B9C00636F6E6E65637420746F2073656E736F94
:108BAC0072206E6F646520312E0053656E736F7288
:108BBC00206E6F6465203120616C72656164792070
:108BCC00636F6E6E65637465642E005375636365C5
:108BDC00737366756C6C7920636F6E6E6563746508
:108BEC006420746F2073656E736F72206E6F646592
:108BFC002032210062633766313864392D32633498
:108C0C00332D343038652D626532352D363266346D
:108C1C00303634353938376300383862613266356E
:108C2C00642D316539382D343961662D3836393734
:108C3C002D64303531366466303362653900623408
:108C4C003832643535312D633361652D3464646598
:108C5C002D623132352D6365323434643738393610
:108C6C0062300039373031373637342D39363135BB
:108C7C002D346662612D393731322D3638323966F2
:108C8C0032303435383336004661696C6564207493
:108C9C006F20636F6E6E65637420746F2073656EE6
:108CAC00736F72206E6F646520322E0053656E7385
:108CBC006F72206E6F6465203220616C7265616426
:108CCC007920636F6E6E65637465642E0025642075
:108CDC006465766963657320666F756E64004162C6
:108CEC006F757420746F207363616E2E2E2E004688
:108CFC006F756E642073656E736F72206E6F646532
:108D0C0020312E00466F756E642073656E736F7222
:108D1C00206E6F646520322E0037353465626635FF
:108D2C00652D636533312D343330302D3966643520
:108D3C002D613866623465653461383131003937FC
:108D4C003732386164392D613939382D343632393E
:108D5C002D623835352D65653236353863613031E5
:108D6C00663700000000000000000000E34D0D001D
:108D7C00D94D0D00CF4D0D00C54D0D00B94D0D0059
:108D8C00AD4D0D00A14D0D00994D0D008F4D0D00F9
:108D9C00854D0D00B97E0D000000000000000000A4
:108DAC00B14F0D00B74F0D0051640D00E14F0D0098
:108DBC00B34F0D000000000000000000AB4F0D0091
:108DCC00C54F0D000D660D00E54F0D00AD4F0D00AC
:108DDC000000000000000000A54F0D00D34F0D0057
:108DEC00635B0D00E94F0D00A74F0D0077697269A9
:108DFC006E672E626C6500537461727420646973C3
:108E0C00636F766572696E672073657276696365E8
:108E1C00732E00537461727420646973636F76658A
:108E2C0072696E67206368617261637465726973DD
:108E3C00746963732E00506565722064657669638E
:108E4C0065206973206D697373696E6721004661D3
:108E5C00696C656420746F20617070656E6420703D
:108E6C006565722043656E7472616C206465766909
:108E7C0063652E00436F6E6E656374656420627962
:108E8C002043656E7472616C206465766963652E2F
:108E9C0000446973636F6E6E6563746564206279F8
:108EAC002072656D6F7465206465766963652E004C
:108EBC0043616E6E6F7420616464206E6577207000
:108ECC00656572206465766963652E004E65772052
:108EDC007065726970686572616C20697320636F6C
:108EEC006E6E65637465642E004661696C65642002
:108EFC00746F20617070656E6420646973636F7643
:108F0C00657265642063686172616374657269730C
:108F1C007469632E004661696C656420746F20610E
:108F2C007070656E6420646973636F7665726564D6
:108F3C0020736572766963652E004661696C6564A1
:108F4C0020746F20617070656E64206C6F63616C4F
:108F5C002063686172616374657269737469632EEE
:108F6C00004475706C696361746564206368617238
:108F7C00616374657269737469632063616E6E6F8B
:108F8C00742062652061646465642E00FB349B5F11
:108F9C0080000080001000000000000000000000B5
:108FAC00000000009D680D00C3680D0077680D007F
:108FBC00C77F0D000000000000000000196D0D00BF
:108FCC002D6D0D0075760D007F680D006261756466
:108FDC000053657269616C0053657269616C310094
:108FEC007479706500706172616D00636D64006905
:108FFC006400686E64007374726D0066696C740052
:10900C006C766C0061646448616E646C65720072AD
:10901C00656D6F766548616E646C657200656E7522
:10902C006D48616E646C657273004A534F4E537495
:10903C007265616D4C6F6748616E646C657200613E
:10904C00707000253031307520005D2000256400E3
:10905C002C200028293A2000205B00636F646520D7
:10906C003D200025690064657461696C73203D20A6
:10907C00000D0A006C6E00666E00636F6465006420
:10908C00657461696C006E6F6E6500747261636506
:10909C0000696E666F007761726E006572726F7236
:1090AC000070616E696300616C6C00000000000070
:1090BC0000000000ED6C0D00056D0D00C1740D007D
:1090CC00CB400D0000000000000000009B680D006C
:1090DC00D1680D00E9730D0081680D0000000000DF
:1090EC000000000099680D00DF680D00316C0D0068
:1090FC00ED680D005A00252B3033643A253032755B
:10910C000025592D256D2D25645425483A254D3AB9
:10911C002553257A0061736374696D650000000046
:10912C0000000000000000005D790D004D790D007D
:10913C004F790D000000000000000000357A0D0092
:10914C00857A0D00937A0D0059670D00717A0D0028
:10915C00377A0D004D7A0D007F7A0D00637A0D0081
:10916C00317A0D000000000000000000497B0D006A
:10917C00997B0D00A77B0D0059670D005D7B0D00E1
:10918C007F7B0D006B7B0D00937B0D004B7B0D00EB
:10919C004F7B0D000000000000000000B77C0D00AC
:1091AC00AD7C0D00A37C0D00997C0D008D7C0D0019
:1091BC00817C0D00757C0D006D7C0D00637C0D00B9
:1091CC00597C0D00B97E0D0000000000000000006D
:1091DC00337E0D00297E0D001F7E0D00D57D0D0008
:1091EC00137E0D00077E0D00FB7D0D00F37D0D0041
:1091FC00E97D0D00DF7D0D00B97E0D000000000043
:10920C0000000000517E0D005B7E0D00657E0D00A0
:10921C006F7E0D00797E0D00857E0D00917E0D0018
:10922C009D7E0D00A57E0D00AF7E0D00B97E0D005C
:10923C00302E300066616C736500747275650025A4
:10924C002E2A6C66002567006E756C6C00752530D7
:10925C0034780000002020202020202020202828E6
:10926C0028282820202020202020202020202020DA
:10927C00202020202088101010101010101010101A
:10928C00101010101004040404040404040404104A
:10929C0010101010101041414141414101010101D8
:1092AC0001010101010101010101010101010101A2
:1092BC0010101010101042424242424202020202AE
:1092CC000202020202020202020202020202020272
:1092DC001010101020000000000000000000000022
:1092EC000000000000000000000000000000000072
:1092FC000000000000000000000000000000000062
:10930C000000000000000000000000000000000051
:10931C000000000000000000000000000000000041
:10932C000000000000000000000000000000000031
:10933C000000000000000000000000000000000021
:10934C000000000000000000000000000000000011
:10935C000000000000000000000000000000000001
:10936C0000000000000000000000000000000000F1
:10937C0000000000000000000000000000000000E1
:10938C0000000000000000000000000000000000D1
:10939C0000000000000000000000000000000000C1
:1093AC0000000000000000000000000000000000B1
:1093BC0000000000000000004300000069470D00A1
:1093CC0049490D00ED4D0D00014E0D0031670D00AA
:1093DC00B1740D00ED770D0021780D00857D0D0029
:1093EC003D7E0D00857F0D0061830D00E5830D0032
:1093FC00A9840D006D850D00000000000000000028
:04940C00000000005C
:049410000000000058
:1094140081000000F0900D00D8900D0021910D0006
:1094240060920D000000000064930D0084930D0011
:10943400A4930D00000000000000000000000000E4
:1094440000000000C4930D000000000000000000B4
:109454000000000000000000000000000000000008
:1094640000000000000000000000000000000000F8
:1094740000000000000000000000000000000000E8
:0894840000000000C0D8032025
:10948C00FFFFFFFF00000102030405060708090A9D
:10949C000B0C0D0E0F101112131415161718191A98
:0894AC001B1C1D1E1F202800DF
:0494B40078563412A0
:04000003D000401CCD
:00000001FF
