:02000002D0002C
:1040000000400D0044C10D00000006000C00050139
:084010000401E80500000000B6
:04401800D0AB0D001C
:10401C0009480A49884208B505D0094A824202D0AB
:10402C00121A06F066FC0748074A0021121A06F01D
:10403C0086FC014808BD00BF5CD80320A4C00D005D
:10404C00D4D80320D4D80320F0E7032070B504F0B3
:10405C00F3FF074C074BE41AA40800251E46A542A3
:10406C0004D056F8253098470135F8E770BD00BFED
:10407C00A0C00D0060C00D0000F0D8BA08B500F06B
:10408C00FBF8BDE8084004F099BF02F0AFB902F0AC
:10409C00ADB902F0B3B902F0B1B9000008B5034AEA
:1040AC0000210C2002F0E6F8FEE700BF815F0D0056
:1040BC000078B0FA80F04009704701230370704714
:1040CC007047006A0368DB68184710B5044600683F
:1040DC0008B102F093F9204610BD00000A4B10B550
:1040EC000446036004F06AF8214604F057FA05F020
:1040FC008BFB05F07DFB2046044B40F8043B04F0A1
:10410C0053F9204610BD00BF04AC0D00ECAB0D0004
:10411C0010B50446FFF7E2FF2046242106F070FAA2
:10412C00204610BD0EB400B58CB00DAA202352F859
:10413C00041B03928DE8060004930168002304AA73
:10414C001E20059302F0A6F80CB05DF804EB03B04A
:10415C007047000008B502460B4602480249FFF7BB
:10416C00E1FF08BD0CE4032034AC0D0010B590F950
:10417C000040044904482246FFF7D4FF034B1C704F
:10418C0010BD00BF4BAC0D000CE403205CD8032029
:10419C0008B5034902780348FFF7C4FF08BD00BF08
:1041AC0076AC0D000CE4032007B50388ADF806309F
:1041BC00BDF8062003490448FFF7B4FF03B05DF8CF
:1041CC0004FB00BF90AC0D000CE4032013B5038876
:1041DC00ADF80630BDF80640044905482246FFF705
:1041EC00A1FF044B1C8002B010BD00BFAFAC0D0092
:1041FC000CE40320A4E3032008B5034990F9002044
:10420C000248FFF78FFF08BDC8AC0D000CE403207B
:10421C0007B50388ADF80630BDF8062003490448FD
:10422C00FFF780FF03B05DF804FB00BFE2AC0D00AC
:10423C000CE4032010B504780A490B482246FFF71A
:10424C0071FF0CB9094902E0012C04D10849064858
:10425C00FFF768FF10BD224606490348FFF762FFCF
:10426C0010BD00BFFFAC0D000CE403201DAD0D0014
:10427C0036AD0D0051AD0D002DE9F04190B000238D
:10428C000093A24AA249A34801F0C0FAA24802F046
:10429C009FFE002840F0DC80A04802F099FE054605
:1042AC00002840F0D5809E499E489F4FFFF73AFF6B
:1042BC0002F0EEFE1E229C4902F040FF0646B5427B
:1042CC0080F2BE8054246C4306A802F013FB04F168
:1042DC000800012206A9384402F072FD9349804679
:1042EC009048FFF71FFF3C4491490BA802F06DF971
:1042FC000022214602A802F0ECFA02A90BA802F057
:10430C00B9F901688748FFF70DFF02A802F016F90A
:10431C000BA802F013F987490BA802F056F90022FA
:10432C0006A902A802F076FC02A90BA802F0A2F9D9
:10433C0001687C48FFF7F6FE02A802F0FFF80BA814
:10434C0002F0FCF87C490BA802F03FF900227B49F3
:10435C0002A802F05FFC02A90BA802F08BF901681D
:10436C007048FFF7DFFE02A802F0E8F80BA802F095
:10437C00E5F873490BA802F028F90022714902A84C
:10438C0002F048FC02A90BA802F074F90168654818
:10439C00FFF7C8FE02A802F0D1F80BA802F0CEF885
:1043AC00B8F1000F4AD0654906A802F043FB00287B
:1043BC005CD05C486449FFF7B5FE574802F008FE34
:1043CC0000284CD102F064FE0123224601460BA8C2
:1043DC0003F066FB0BA9504802F0DDFF0BA802F0BE
:1043EC00FDFE4D4802F0F4FD002836D057494D48EB
:1043FC00FFF798FE56490BA802F092FB0BAA554901
:10440C00454802F0A4FF54490BA802F089FB0BAA03
:10441C005249414802F09BFF51490BA802F080FB26
:10442C000BAA50493C4802F092FF4F490BA802F0EE
:10443C0077FB4E4938480BAA02F089FF01353EE75D
:10444C00002E5FDD32464A493648FFF76BFE59E0D5
:10445C0001F098FD474B186054E0474902E047498A
:10446C0000E047492F48FFF75DFEE7E7354906A80E
:10447C0002F0E0FA0028E1D02A484249FFF752FE48
:10448C00264802F0A5FD00283AD102F001FE0123D6
:10449C00224601460BA803F003FB0BA91F4802F0B0
:1044AC007AFF0BA802F09AFE1C4802F091FD00283E
:1044BC00D7D035491B48FFF735FE34490BA802F01D
:1044CC002FFB0BAA3249154802F041FF31490BA8CA
:1044DC0002F026FB0BAA3049104802F038FF2F4996
:1044EC000BA802F01DFB0BAA2D490C4802F02FFF64
:1044FC002C490BA802F014FB0BAA2B4907489BE78D
:10450C002A49AFE710B0BDE8F08100BF99AD0D00AE
:10451C009EAD0D0000D9032084D903208CD9032033
:10452C001AB00D000CE4032098D90320AEAD0D0099
:10453C00C8AD0D00D2AD0D00DFAD0D0054D9032078
:10454C00F2AD0D00D8D803202BB00D0005AE0D0038
:10455C002EAE0D0074D9032053AE0D00A8E303203A
:10456C0078AE0D00ECD803209DAE0D007CD9032055
:10457C0009B00D0068D90320C2AE0D00E6AE0D00E7
:10458C00C4AF0D0040B00D0007AF0D0030AF0D00F3
:10459C0078E3032055AF0D00B0E303207AAF0D0094
:1045AC0070E303209FAF0D006CD90320E8AF0D0022
:1045BC0038B5046805467CB16368013B63605BB940
:1045CC00236820469B689847A368013BA3601BB9EE
:1045DC0023682046DB689847284638BDF0B5114D56
:1045EC00002185B003462A460646084601F016FF10
:1045FC00441C204601F0FAFE33462A462146074663
:10460C0001F00CFF084B1B788DF8003000223C2386
:10461C00394602A804F07EFE03A8FFF7C9FF05B0D7
:10462C00F0BD00BF55B00D0094D9032030B53A4908
:10463C003A483B4D8BB001F05DFC3749374801F0EF
:10464C005BFC3549354801F059FC3649334801F0DB
:10465C0057FC0FCD6C460FC495E80F0084E80F0093
:10466C00314B32492D48324D40F25B7201F01CFC4B
:10467C0028B141F28831294801F06CFA30B92B7815
:10468C008DF8003000223C232A490DE000242346FB
:10469C00294A2A490094214801F0B8F82B78284976
:1046AC008DF8003022463C2308A804F033FE09A8FC
:1046BC00FFF77EFF012241F6C67108A88DF8202075
:1046CC0001F090FD02F0E4FC02F028FD00221D49EF
:1046DC001D4802F00FFC00221C491D4802F00AFC88
:1046EC0000221C491C4802F005FC00221B491C48F6
:1046FC0002F000FC00221B491B4802F0FBFB0022CD
:10470C001A491B4802F0F6FB00221A491A4802F01B
:10471C00F1FB0BB030BD00BFE9450D0000D9032003
:10472C0014AC0D0061410D006EB00D0078B00D00A1
:10473C0094D903208BB00D00A6B00D009EAD0D00DA
:10474C00B2B00D0079410D0074D903209D410D00CC
:10475C00A8E30320D9410D00ECD80320B5410D008E
:10476C007CD9032005420D0078E303201D420D0087
:10477C00B0E3032041420D0070E3032070B50468E0
:10478C0043681426054606FB0346A64204D0204681
:10479C0001F0D4FE1434F8E7286801F02FFE284607
:1047AC0070BD8842F8B506460C46154616D990429F
:1047BC0015D2A2F114056C1AA1F114070444AF42EE
:1047CC001CD02CB12946204601F0A8FE2B7C23746A
:1047DC00284601F0B3FE143D143CF0E70ED0AC4279
:1047EC000CD02EB12146304601F098FE237C337458
:1047FC00204601F0A3FE14341436F0E7F8BD2DE981
:10480C00F04100230360436083604E689E4204467F
:10481C000F4624DD4FF0140808FB06F001F0E6FD0E
:10482C000546E0B194E8060008FB0212FFF7B9FF59
:10483C00206801F0E3FD2560A6603E687B6808FBFC
:10484C000368464509D02DB13146284601F0DFFEFC
:10485C00337C2B7414361435F3E77B686360204685
:10486C00BDE8F081F0B5644B644D8DB00126002499
:10487C001E7001F067FB4FF6FF736B8130462C60A6
:10488C00AC80AC712C8101F01DFD5D4A5D49284660
:10489C0005F0A9FE00940194029404F0B5FF69465A
:1048AC00074603A8584DFFF7AAFF03A906A8FFF770
:1048BC00A6FF564B2B6006A909A8FFF7A0FF09AA73
:1048CC003146281D03F0D1FF09A8FFF757FF06A8B2
:1048DC00FFF754FF4E4B2B602F6203A8FFF74EFFE0
:1048EC004C4B2B6004F090FF4FF4165104F07CFFFE
:1048FC0003F064FC294603F04BFF6846FFF73EFFCC
:10490C003F4A4549284605F06EFE4448444D02F0A6
:10491C00BFFC3B4A4349414805F065FE424802F062
:10492C00B7FC374A3F49404805F05DFE3F494048D7
:10493C0002F0F6F83F49404802F0F2F83F4803F025
:10494C0013F92F4A3E493D4805F04DFE3D4803F012
:10495C000BF92B4A3A493B4805F045FE3A4803F01F
:10496C0003F9274A3649384805F03DFE374803F02D
:10497C00FBF8234A3249354805F035FE344803F03C
:10498C00F3F81F4A2E49324805F02DFE314803F04A
:10499C00EBF81B4A2A492F4805F025FE2E4803F058
:1049AC00E3F8174A26492C4805F01DFE2B4803F066
:1049BC00DBF8134A2249294805F015FE40F6D816B3
:1049CC00281901F017FF04F10800284402F0A1F99E
:1049DC0004F12C002844543402F09BF9B442EFD17A
:1049EC004FF480711E4800F077F8054A1D491C48A9
:1049FC0005F0F9FD0DB0F0BD94D90320F4D80320D7
:104A0C00D4D80320D7400D0080E30320ECAB0D007D
:104A1C00BCBC0D0004AC0D00E9400D0084D9032092
:104A2C0098D90320E9710D008CD90320D0B00D006A
:104A3C0054D90320F5B00D00D8D8032074D9032025
:104A4C00DB710D00A8E30320ECD803207CD90320F4
:104A5C0078E30320B0E3032070E303206CD9032038
:104A6C0000D90320115F0D0001F06CBA08B5406845
:104A7C0003681B6B9847003018BF012008BD10B5A8
:104A8C008AB08DE80C000C46202102910021039184
:104A9C000B4602AA0168204601F0FCFB0AB010BDCF
:104AAC000EB403B503AB012153F8042B0193FFF7AC
:104ABC00E6FF02B05DF804EB03B070470EB403B52B
:104ACC0003AB282153F8042B0193FFF7D8FF02B056
:104ADC005DF804EB03B0704738B50C4B03600A2249
:104AEC00002380F8283080F82E200363818504464B
:104AFC001C20FFF7CAFA054608B105F0AFFA65604D
:104B0C00A08DFFF7C4FAA060204638BD30B10D006F
:104B1C0090F828300BB1FFF7A9BF1846704710B5B5
:104B2C000446FFF7F5FF20B92046BDE81040FFF71B
:104B3C009DBF002010BD10B590F8344054B1036BEC
:104B4C0043B10022A24205DA33F81200884203D0A6
:104B5C000132F7E7002010BD012010BDF8B590F828
:104B6C00346090F82E30B34204460DD9056B6DB10C
:104B7C00FFF7E1FF58B925F8161094F834300133DB
:104B8C0084F834300120F8BD0020F8BD2846F8BD6B
:104B9C00002370B513800524012586680B88F35C0F
:104BAC00168803F07F0313FB05F33344013C138099
:104BBC0007D10B8801330B800749FFF77FFF204695
:104BCC0070BD0B888668F6560133002E4FEAC5156A
:104BDC000B80E2DB012070BD39B10D0070B51D46B4
:104BEC000C460B888168164619442A46304605F057
:104BFC0080FE002373552288AB18238070BD0B8870
:104C0C008268D05C1A44023352780B8042EA00204E
:104C1C0070470000F0B585B004A91D4621F8022D9F
:104C2C0004469DF82870FFF7EAFF022D1FBFBDF860
:104C3C000E30A268591CADF80E1018BFD55C0E4989
:104C4C000E4A08BF002506460346002F18BF0A4629
:104C5C0000950B492046FFF765FA25B1636C43B10B
:104C6C002846984705E0236C1BB187F001013046BC
:104C7C00984705B0F0BD00BF59B10D005DB10D00F6
:104C8C0061B10D0037B502A91D4621F8022D04466D
:104C9C00FFF7B5FF022D1CBFBDF80630A168024618
:104CAC001EBF581CADF80600CB5C044908BF00239E
:104CBC002046FFF737FA03B030BD00BF93B10D00AB
:104CCC002DE9FF4104A9044621F8022D1E46FFF7E9
:104CDC0096FFBDF80E20A368511CADF80E1080464F
:104CEC00985C10B90125023E14E0A36CDBB1984727
:104CFC0019E0BDF80E30A268591CADF80E10D75C47
:104D0C0000972B46424609492046FFF70BFA022F23
:104D1C0003D80135B542ECDB05E0A36C002BF8D0D1
:104D2C0038469847F5E704B0BDE8F081CBB10D00EB
:104D3C002DE9FF4104A9044621F8022D1E46FFF778
:104D4C005EFFBDF80E20A368511CADF80E10804616
:104D5C00985C10B90125023E14E0E36CDBB1984776
:104D6C0019E0BDF80E30A268591CADF80E10D75CD6
:104D7C0000972B46424609492046FFF7D3F9022FEC
:104D8C0003D80135B542ECDB05E0E36C002BF8D021
:104D9C0038469847F5E704B0BDE8F0811DB20D0028
:104DAC0010B50C888368185D23440434DA7842EA21
:104DBC000062587842EA004298780C8042EA00205F
:104DCC0010BD0000F8B5113900AF0446154619297D
:104DDC0000F2C580DFE801F00D307AC3A7BEC3C373
:104DEC00C381C394C3C350C31343C31C23632A6539
:104DFC006C731146FFF7D4FF5B49024604E0114681
:104E0C00FFF7FDFE594902462046FFF749FEA9E08F
:104E1C002B888268591C2980D25C5549F4E72B8871
:104E2C008268591C2980D25C5249EDE71146FFF784
:104E3C00B7FF51490246E7E71146FFF7E0FE00F1E4
:104E4C00080222F007026E46ADEB020D03466A46DD
:104E5C0029462046FFF7C2FE6A46484975E01146CE
:104E6C0090F82E60FFF7CBFE8642324628BF0246F2
:104E7C0084F82E204249C7E71146FFF7C0FE00F127
:104E8C00080222F007026E46ADEB020D03466A469D
:104E9C0029462046FFF7A2FE6A463A4955E03A49B0
:104EAC0059E02B888268591C2980D25C3749ABE7C2
:104EBC002B888268591C2980D25C3549A4E72B8841
:104ECC008268591C2980D25C32499DE71146FFF754
:104EDC0096FE3149E084024696E71146FFF78FFEB5
:104EEC0000F1080222F007026E46ADEB020D0346FC
:104EFC006A4629462046FFF771FE6A46274924E098
:104F0C001146FFF77CFE00F1080222F007026E4604
:104F1C00ADEB020D03466A4629462046FFF75EFEBE
:104F2C006A461F4911E01146FFF769FE00F10802BD
:104F3C0022F007026E46ADEB020D03466A46294687
:104F4C002046FFF74BFE17496A462046FFF7A8FD9F
:104F5C00B54607E014492046FFF7A2FD02E01349CD
:104F6C00FFF7ACFDBD46F8BD71B20D008EB20D0061
:104F7C00A2B20D00B2B20D00C7B20D00E0B20D002E
:104F8C00FFB20D0017B30D0029B30D0037B30D00A0
:104F9C005BB30D0082B30D00A4B30D00BAB30D00CA
:104FAC00D3B30D00E8B30D0002B40D0016B40D0020
:104FBC00F8B5082900AF0446154629D00CD80229AB
:104FCC0017D003293BD0012950D12B888268591C5A
:104FDC002980D25C284912E00B292CD003D809294E
:104FEC0044D1264928E023290CD026293ED1244936
:104FFC0022E01146FFF7D4FE224902462046FFF775
:10500C004FFD37E01146FFF7FAFD1F490246F5E761
:10501C001146FFF7F4FD00F1080222F007026E467C
:10502C00ADEB020D03466A4629462046FFF7D6FD36
:10503C006A46164915E01649FFF732FD1AE011468B
:10504C00FFF7DDFD00F1080222F007026E46ADEB22
:10505C00020D03466A4629462046FFF7BFFD0D495F
:10506C006A462046FFF71CFDB54603E00A49204678
:10507C00FFF724FDBD46F8BD2FB40D008CB40D0018
:10508C0029B30D004CB40D0069B40D0079B40D00BA
:10509C009DB40D00B5B40D00C6B40D00F8B50446B2
:1050AC00406803680D46DB6817460A46A1689847B6
:1050BC0086B260680368DB69984700F063FFA06103
:1050CC0027B194F83530013384F83530AB1B584296
:1050DC005841F8BDF7B5002307460D461646019317
:1050EC00144602A904F07F0251FA83F1E40918BFB7
:1050FC0042F0800201F8042C0133002CF1D12988F4
:10510C00BA8D4B1C9819904205DD38460B49FFF7B8
:10511C00D5FC20460FE0B86832460144184405F02F
:10512C00F3FBBA682B889DF80410D1542A883244BA
:10513C0001322A80012003B0F0BD00BFDFB40D00A6
:10514C00F8B50C461D46238811465F19828D013730
:10515C009742064604DB0D49FFF7B0FC0020F8BD72
:10516C008268581C20802812D0542388B268581C9E
:10517C002080D5542388B0682A46184405F0B9FB22
:10518C0023881D4425800120F8BD00BFDFB40D002D
:10519C0038B515460B88828D934204DB0549FFF721
:1051AC008DFC002038BD80685A1C0A80C554012033
:1051BC0038BD00BFDFB40D0073B502AD002625F875
:1051CC00026DC02229460446FFF7E2FF08B9002011
:1051DC0013E0324629462046FFF7DAFF0028F6D0C6
:1051EC0007492046FEF79EFF00F0CCFE32462062B7
:1051FC00BDF806102046FFF751FF02B070BD00BF8E
:10520C0001B50D00F7B502AC002624F8026D0F466F
:10521C00E02221460546FFF7BBFF08B9002025E038
:10522C003A4621462846FFF7B3FF0028F6D032460F
:10523C0021462846FFF74EFF0028EFD0BDF8062088
:10524C00013A012692B221462846ADF80660FFF7D6
:10525C0041FF0028E2D03A4605492846FEF762FF96
:10526C003246BDF806102846FFF718FF03B0F0BD14
:10527C0016B50D00F8B50C461D4623881146828DD7
:10528C005F19974204DD0749FFF718FC0020F8BDB1
:10529C0080682A46184405F02CFB2288AB18238022
:1052AC000120F8BDDFB40D0070B50C88868D651C2F
:1052BC00B542034605DB32460749FFF7FFFB0020EA
:1052CC0070BD80680D801512055598680B885C1CA4
:1052DC000C80C254012070BDDFB40D0073B502AC5C
:1052EC00002324F8023D0E46402221460546FFF7D6
:1052FC004FFF08B900201DE0324621462846FFF733
:10530C00D3FF0028F6D0BDF80620013A012392B253
:10531C0021462846ADF80630FFF7DCFE20B93246B0
:10532C0005492846FEF7FEFE0022BDF80610284669
:10533C00FFF7B4FE02B070BD38B50D0073B502AC0A
:10534C00002324F8023D0E46502221460546FFF765
:10535C001FFF08B900201DE0324621462846FFF702
:10536C00A3FF0028F6D0BDF80620013A012392B223
:10537C0021462846ADF80630FFF7ACFE20B9324680
:10538C0005492846FEF7CEFE0022BDF80610284639
:10539C00FFF784FE02B070BD5AB50D002DE9F04F39
:1053AC0089B002AF07F11805C1F3410625F80A2DA3
:1053BC008A46294604469B46BA60FFF720FC00F15A
:1053CC00080222F00702ADEB020D0DF108090346AD
:1053DC004A4629462046FFF701FC2EB129462046B5
:1053EC00FFF70DFC804600E0B04607F11602294697
:1053FC002046FFF7CDFB08B1FB8A83BBBB68FA895B
:10540C005B449B1A3EB100934A4643461E492046D4
:10541C00FEF788FE04E04A461C492046FEF782FE51
:10542C00256D75B1F889BB68A16800961A1A5A44A3
:10543C000AF0010301930144CAF3C00392B2484637
:10544C00A847012E04D141462046FFF747FF17E03D
:10545C00022E15D141462046FFF770FF10E0FB8964
:10546C00F989FA8A7B60C81A9042C7DAA0684A1C8C
:10547C00FA81415C2A462046FFF79AFD7B68EFE7EC
:10548C001C37BD46BDE8F08F7CB50D00B2B50D00E4
:10549C0073B502AC002324F8023D0E46702221465F
:1054AC000546FFF775FE08B900201DE0324621467F
:1054BC002846FFF7F9FE0028F6D0BDF80620013A81
:1054CC00012392B221462846ADF80630FFF702FEC2
:1054DC0020B9324605492846FEF724FE0022BDF8C5
:1054EC0006102846FFF7DAFD02B070BDDEB50D00E0
:1054FC0073B502A91D4621F8022D0446FFF77FFB68
:10550C00022D1FBFBDF80630A268591CADF806105D
:10551C0018BFD55C074908BF0025064602462B4636
:10552C002046FEF7FFFD1DB931462046FFF7B0FFC0
:10553C0002B070BD01B60D0070B50C88858DE61CEF
:10554C00AE42034605DB2A460E49FFF7B7FA0020A8
:10555C0070BD8068651C0D80150E055508889C680B
:10556C00451C0D80150C255408889C68451C0D8025
:10557C00150A255498680B885C1C0C80C2540120B9
:10558C0070BD00BFDFB40D002DE9F04F89B0994616
:10559C009DF8583004931A9B059204460E469DF8CC
:1055AC004CA0BDF86050DDF864800393FFF7B7FAA8
:1055BC0008B90020F6E09DF848209DF8503008AF5F
:1055CC004FF0000B42F0300227F804BD42EA4A02C9
:1055DC0042EAC302D2B239462046FFF7D9FD002871
:1055EC00E7D07DB129462046FFF7A5FA50B12A46EF
:1055FC0020466E49FEF796FD5A4639462046FFF77F
:10560C0053FE08E0304605F010FA324683B207A983
:10561C002046FFF795FD0028CBD0BAF1000F06D13C
:10562C00BDF81C30ADF81E30049B7BB92EE0159BE9
:10563C0013B1159A638D1380628D531C638507A972
:10564C002046FFF731FE0028EAD1B2E701220DF126
:10565C001E012046FFF79CFD0028AAD001220DF167
:10566C001E012046FFF794FD0028A2D002220DF166
:10567C001E012046FFF78CFD00289AD0179A0DF1D9
:10568C001E012046FFF758FF002892D07DB123223F
:10569C000DF11E012046FFF77BFD002889D02A461C
:1056AC000DF11E012046FFF7FFFD002881D0B8F157
:1056BC00000F15D008220DF11E012046FFF768FDE2
:1056CC0000283FF476AF404605F0AFF9424683B26E
:1056DC000DF11E012046FFF733FD00283FF469AFA2
:1056EC00039B9BB109220DF11E012046FFF750FDD3
:1056FC0000283FF45EAFBDF86C30039A0DF11E012B
:10570C002046FFF7B7FD00283FF453AF08AFBDF8B4
:10571C001E3037F8042D9A1A92B239462046FFF7FC
:10572C00D9FC00283FF445AF4B46059A3946204634
:10573C00FFF7A0FD00283FF43CAFBDF81C20013A58
:10574C00012392B239462046ADF81C30FFF7C2FC5B
:10575C0000283FF42EAFBAF1000F09D0628DCDF8BE
:10576C0000903346013A12492046FEF7DBFC05E077
:10577C004B4632460F492046FEF7D4FC25B129464C
:10578C002046FFF7EBF930B90122BDF81C1020467A
:10579C00FFF784FC06E02B46324607492046FEF70D
:1057AC00C1FCF1E709B0BDE8F08F00BF23B70D00D5
:1057BC00BEB60D00F6B60D0038B70D002DE9F0435E
:1057CC0007468BB0104688461646994605F02DF9CB
:1057DC0015AD1FFA80FE0FCD04AC0FC495E8030085
:1057EC0084E80300149B03939DF84C3002939DF8BE
:1057FC0048300193CDF80090734632464146384606
:10580C00FFF7C2FE0BB0BDE8F0830000F0B50D4D04
:10581C0096469C4606460F460FCD8BB003AC0FC484
:10582C0095E8030084E80300109B02930023019386
:10583C00CDF800C0724639463046FFF7BFFF0BB0BB
:10584C00F0BD00BF58B90D0010B50446006B00F058
:10585C00D5FD00236068236384F8343084F8283045
:10586C0084F835300368BDE81040DB6A1847000047
:10587C007FB5002380F82830531C81689BB2ADF8AB
:10588C0006308E5C0232ADF80620CD5C044605BBBA
:10589C000DF10E020DF10601FFF77AF910B1BDF80A
:1058AC000E3013BB94F82E0001230025638598401D
:1058BC00256284F8245000F099FD84F8345020635C
:1058CC0015492046FEF72EFCA36B13B306F001001E
:1058DC0009E0FFF7B9FF2A4610492046FEF722FCE3
:1058EC00E36BB3B12846984713E0BDF80650BDF8FA
:1058FC000630BDF80E20591B9142D3DA5A1CA16810
:10590C00ADF80620C95C0DF106022046FFF75AFAE5
:10591C00EDE704B070BD00BF5AB70D0071B70D00B4
:10592C0010B5044613B183689A5C00E01A46204611
:10593C000349FEF7F7FB2046BDE81040FFF784BF94
:10594C008FB70D0070B50C46A51E11461A46BDF852
:10595C0010300C2D31D8DFE805F0070B0F0F171B9B
:10596C00301F302330272C00BDE87040FFF780BF7C
:10597C00BDE87040FFF712BD251F6C426C410494CA
:10598C00BDE87040FFF746B9BDE87040FFF7B0BD09
:10599C00BDE87040FFF776B9BDE87040FFF790B9ED
:1059AC00BDE87040FFF7C4B90023036280F82430CF
:1059BC0070BDBDE87040FFF7B3BF22460149FEF74A
:1059CC00B1FB70BDC0B70D007FB50446FFF7A0F862
:1059DC0028B3606803681B6B9847054638B92046A6
:1059EC00FFF732FF55492046FEF79CFBA2E000F082
:1059FC00C9FAA369E28CC01A4FF47A7353439842E4
:105A0C000DD92046FFF720FF4D492046FEF78AFBB3
:105A1C00E36B002B00F08D808020984789E0606854
:105A2C0003681B699847002843D000F0ABFAE0618B
:105A3C006068A28D0368A1689B6A984704AA002538
:105A4C000646012322F8025D03A92046ADF80C306E
:105A5C00FFF79EF858B3BDF80E30BDF80C20B6B267
:105A6C001A44964201D037495FE0A26812781211AD
:105A7C000D2AD5B209D0032A07D00E2D1EBF94F8DB
:105A8C00351001F1FF3184F8351020462E49FFF70F
:105A9C0007F8A268BDF80E101278BDF80C30009112
:105AAC0002F00F0229462046FFF74CFF42E0054664
:105ABC0040E02046FFF733F800283AD000F062FAB5
:105ACC00E369C01AE38C4FF47A756B43984207D2A2
:105ADC0000F058FAA369C01AE38C5D43A84209D3BD
:105AEC00236A4BB92046FFF767FB18B917492046C4
:105AFC00FEF7E4FF236AE3B100F044FA236AC01A0C
:105B0C0040F6B733984214D994F82430012B10D8AE
:105B1C00013384F824300E492046FEF703FB20465F
:105B2C00FFF74AFB054620B908492046FEF7C6FF99
:105B3C0000E00025284604B070BD00BFDEB70D00A4
:105B4C00ECB70D00FEB70D0012B80D0039B80D0002
:105B5C0050B80D0070B504460E4600F013FA0E490D
:105B6C0005462046FEF79CFF00F00CFA401BB042A5
:105B7C000CD22046FFF728FF94F83530002BF3D1D8
:105B8C0020460649FEF78CFF012070BD20460449D3
:105B9C00FEF786FF002070BD87B80D0099B80D0088
:105BAC00B2B80D0082B02DE9F04F8FB004460591CC
:105BBC0018A981E80C001B9B1A9F0493DDF87490C4
:105BCC00DDF878801F9DFEF7A3FF8246002840F089
:105BDC005B81BDF86430E3842046FEF7A0FF0646E7
:105BEC00002840F04D812169012384F82830A38AD4
:105BFC0069B9E268A7492046FEF794FA6068A28A60
:105C0C000368E168D3F824A03346D0471AE04878FB
:105C1C000A780293CB7801938B7800939E490346C4
:105C2C002046FEF77FFAD4F804A02169DAF8003098
:105C3C0008A8D3F820B003F077FD3346A28A08A950
:105C4C005046D847003018BF012020B99349204650
:105C5C00FEF768FA0CE00DF1380A00232AF81A3D19
:105C6C0084F83530102251462046FFF791FA18B9C6
:105C7C002046FFF7E9FD01E10423894A51462046FD
:105C8C00FFF75EFA0028F3D0052251462046FFF7B5
:105C9C007FFA0028ECD09DF861109DF86230B9F1C4
:105CAC00000F4FEAC10114BF6FF07F02002241EADE
:105CBC004311B8F1000F14BF4FF0400E4FF0000E1F
:105CCC0049B227B1049B181C18BF012000E03846CC
:105CDC009DF8603041EA430313434EEA030242EA63
:105CEC00800202F0FE0251462046FFF751FA0028CE
:105CFC00BED0E28C51462046FFF7D6FA0028B7D02A
:105D0C00BDF81E30ADF82030002D4AD02B686BB199
:105D1C00112208A92046FFF73BFA0028A8D02A68D0
:105D2C0008A92046FFF708FC0028A1D0AB886BB16E
:105D3C00212208A92046FFF72BFA002898D0AA8820
:105D4C0008A92046FFF7B0FA002891D0D5F808B082
:105D5C00BBF1000F04D1B4F82CB0BBF1000F0ED086
:105D6C00272208A92046FFF713FA002880D05A46AC
:105D7C0008A92046FFF7E0FB00283FF479AFAB8978
:105D8C007BB1222208A92046FFF702FA00283FF433
:105D9C006FAFAA8908A92046FFF786FA00283FF4BE
:105DAC0067AFBDF82030BDF81E209A1A92B251464A
:105DBC002046FFF78FF900283FF45AAF059804F0FE
:105DCC0034FE059A83B251462046FFF7B9F90028F4
:105DDC003FF44EAFFFB1049BEBB10022514620467D
:105DEC00FFF778F900283FF443AF384604F01DFE66
:105DFC003A4683B251462046FFF7A2F900283FF4F9
:105E0C0037AFBDF87030049A51462046FFF798F929
:105E1C0000283FF42DAFB9F1000F0BD0484604F029
:105E2C0004FE4A4683B251462046FFF789F9002802
:105E3C003FF41EAFB8F1000F0BD0404604F0F5FD57
:105E4C00424683B251462046FFF77AF900283FF4C8
:105E5C000FAFBDF81E20013A012592B251462046E3
:105E6C00ADF81E50FFF736F900283FF401AF2A4673
:105E7C00BDF81E102046FFF711F90646B24603E0A6
:105E8C0008492046FEF74EF950460FB0BDE8F04FDA
:105E9C0002B07047C2B80D00E5B80D0011B90D0085
:105EAC002CB10D0039B90D00F0B587B01F460EAD01
:105EBC0000230361C160828206460FCD6C460FC47D
:105ECC0095E8030084E803000CAB0CCB3946304654
:105EDC00FFF768FE07B0F0BD10B50446FEF71FFED5
:105EEC0018B100212046FFF78DF92046BDE810407F
:105EFC00FFF7AABCC1637047416470478164704767
:105F0C000165704710B50446FEF709FE28B120461E
:105F1C00FFF7E2FFA06800F071FA204610BD00F018
:105F2C0011B8000008B5024B1B689B68019308BDB3
:105F3C006802030008B5024B1B68DB68019308BDBF
:105F4C006802030008B5024B1B681B68019308BD6F
:105F5C002C02030008B5024B1B685B69019308BD5A
:105F6C006C02030008B5024B1B685B68019308BD0B
:105F7C001802030008B5024B1B68DB68019308BDCF
:105F8C001802030008B5024B1B685B69019308BD3E
:105F9C001802030008B5024B1B689B68019308BDEF
:105FAC007802030008B5024B1B68DB6F019308BD38
:105FBC007802030008B5034B1B68D3F884300193B7
:105FCC0008BD00007802030008B5034B1B68D3F82A
:105FDC009830019308BD00007802030008B5034B0C
:105FEC001B68D3F8BC30019308BD00007802030095
:105FFC0008B5034B1B68D3F8C430019308BD0000EF
:10600C007802030008B5034B1B68D3F8E03001930A
:10601C0008BD00007802030008B5034B1B68D3F8D9
:10602C00E430019308BD00007802030008B5034B6F
:10603C001B68D3F8F030019308BD00007802030010
:10604C0008B5034B1B68D3F8F430019308BD00006E
:10605C007802030008B5024B1B689B68019308BDCE
:10606C004802030008B5024B1B681B69019308BD6D
:10607C004802030008B5024B1B685B69019308BD1D
:10608C004802030008B5024B1B685B6C019308BD0A
:10609C004802030008B5024B1B689B6C019308BDBA
:1060AC004802030008B5024B1B68DB6C019308BD6A
:1060BC004802030008B5024B1B685B6D019308BDD9
:1060CC004802030008B5024B1B685B69019308BDCD
:1060DC006402030008B5024B1B681B6A019308BDE0
:1060EC006402030008B5024B1B689B6A019308BD50
:1060FC006402030008B5024B1B681B68019308BDC2
:10610C003C02030008B5024B1B689B68019308BD59
:10611C003C02030008B5024B1B68DB68019308BD09
:10612C003C02030008B5024B1B681B69019308BDB8
:10613C003C02030008B5024B1B685B69019308BD68
:10614C003C02030008B5024B1B689B69019308BD18
:10615C003C02030008B5024B1B68DB69019308BDC8
:10616C003C02030008B5024B1B689B6A019308BDF7
:10617C003C02030008B5024B1B68DB6A019308BDA7
:10618C003C02030008B5024B1B689B69019308BDD8
:10619C003802030008B5024B1B68DB69019308BD8C
:1061AC003802030008B5024B1B681B6A019308BD3B
:1061BC003802030008B5024B1B689B6A019308BDAB
:1061CC003802030008B5024B1B681B6B019308BD1A
:1061DC003802030008B5024B1B689B6B019308BD8A
:1061EC003802030008B5024B1B685B68019308BDBD
:1061FC005802030008B5024B1B681B68019308BDCD
:10620C004C02030008B5024B1B685B68019308BD88
:10621C004C02030008B5024B1B689B68019308BD38
:10622C004C02030008B5024B1B681B69019308BDA7
:10623C004C02030008B5024B1B685B69019308BD57
:10624C004C02030008B5024B1B689B69019308BD07
:10625C004C02030008B5024B1B68DB69019308BDB7
:10626C004C02030008B5024B1B681B6A019308BD66
:10627C004C02030008B5024B1B685B6B019308BD15
:10628C006002030008B5024B1B681B6D019308BD2F
:10629C006002030008B5024B1B685B6D019308BDDF
:1062AC006002030008B5024B1B68DB6E019308BD4E
:1062BC006002030008B5024B1B681B6F019308BDFD
:1062CC006002030008B5024B1B685B68019308BDB4
:1062DC002002030008B5024B1B68DB6C019308BD60
:1062EC002002030008B5024B1B685B6D019308BDCF
:1062FC002002030008B5034B1B68D3F888300193C8
:10630C0008BD00002002030008B5034B1B68D3F83E
:10631C009430019308BD00002002030008B5024B25
:10632C001B685B68019308BD4002030008B5024B73
:10633C001B689B68019308BD4002030008B5024B23
:10634C001B68DB68019308BD4002030008B5024BD3
:10635C001B681B69019308BD4002030008B5024B82
:10636C001B685B69019308BD4002030008B5024B32
:10637C001B689B69019308BD4002030008B5024BE2
:10638C001B68DB69019308BD4002030008B5024B92
:10639C001B681B6A019308BD4002030008B5024B41
:1063AC001B681B6B019308BD4002030008B5024B30
:1063BC001B685B6B019308BD4002030008B5024BE0
:1063CC001B685B69019308BD4402030008B5024BCE
:1063DC001B681B6A019308BD4402030008B5024BFD
:1063EC001B68DB6B019308BD4402030008B5024B2C
:1063FC001B681B68019308BD1C02030008B5024B07
:10640C001B685B68019308BD1C02030008B5024BB6
:10641C001B689B68019308BD1C02030008B5024B66
:10642C001B68DB69019308BD1C02030008B5024B15
:10643C001B685B6A019308BD1C02030008B5024B84
:10644C001B68DB6A019308BD1C02030008B5024BF4
:10645C001B681B6B019308BD1C02030008B5024BA3
:10646C001B68DB6B019308BD1C0203000022114664
:10647C004068FFF78BBF002211464068FFF796BFBC
:10648C0000224068FFF78ABF002281F001014068BA
:10649C00FFF774BF00231A4619464068FFF766BF22
:1064AC0000231A4619464068FFF758BF00221146D0
:1064BC004068FFF74BBF002211464068FFF736BF1C
:1064CC00002202214068FFF739BF00231A464068BA
:1064DC00FFF724BF024B03225A60024A1A6070472E
:1064EC00B8E3032078B90D0010B5094C00204FF625
:1064FC00FF732060A080A07120816381FFF7E2FE12
:10650C002046044A0449BDE8104004F06CB800BFB2
:10651C00C0E30320D4D80320D7400D000023036030
:10652C0043608360037310B50C6804604C6844606E
:10653C008C6884600B604B608B6010BD10B504469A
:10654C000068FFF75BFF204610BD10B504460068DD
:10655C0008B1FFF753FF00232360A360636010BDF5
:10656C0038B504460D4600680131FFF74FFF10B1F6
:10657C0084E82100012038BD10B50368044613B12E
:10658C0043688B4207D22046FFF7EAFF20B1A3688D
:10659C000BB922681370012010BD70B50E46114660
:1065AC0004461546FFF7E8FF18B92046FFF7CDFF64
:1065BC0009E02A463146A560206804F09AF9226861
:1065CC00A3680021D154204670BD38B50023044681
:1065DC0003604360836003730D4639B1084604F0D1
:1065EC0024FA294602462046FFF7D7FF204638BD3D
:1065FC00884210B50B46044607D0096819B19A6851
:10660C00FFF7CBFF01E0FFF7A0FF204610BD10B550
:10661C00002304460360436083600373FFF7E8FFC5
:10662C00204610BD38B505460C4641B1084604F06D
:10663C00FCF9214602462846FFF7AFFF01E0FFF7C1
:10664C0084FF284638BD70B504460E4609B90020B3
:10665C0070BD6AB18368D5182946FFF78DFF0028F5
:10666C00F5D02068A3683146184404F0BBF9A56046
:10667C00012070BD10B58A6809680446FFF7E3FF76
:10668C0010B92046FFF761FF204610BD704700206F
:10669C00704770470020704770470020704710B556
:1066AC001421044603F0ACFF204610BD10B5142194
:1066BC00044603F0A5FF204610BD10B51421044676
:1066CC0003F09EFF204610BDFDF7E3BCFDF7E1BCD7
:1066DC00FDF7DFBC10B50446006808B1FFF7DAFC23
:1066EC00204610BD30B58BB0202305460024029304
:1066FC00084B009302AA2346074903940120FFF795
:10670C00C1FD28680549008823462A46FFF766FC28
:10671C000BB030BD03BA0D00F8B90D00817D0D0032
:10672C0008B50A20024A0021FFF7A4FD08BD00BFEE
:10673C00815F0D0010B5036804469B689847A368F9
:10674C00013BA3602BB923682046DB68BDE81040F1
:10675C00184710BD70B5931C0144884218D00478BA
:10676C00240904F13005392D88BF04F1370506469C
:10677C0003F8025C347804F00F0404F13005392D71
:10678C0088BF04F1370503F8015C01300233E4E7FC
:10679C00104670BDA0F13003DAB2092A01D81846B0
:1067AC007047A0F16103052B01D857387047A0F151
:1067BC004103052B94BF37384FF0FF307047000072
:1067CC0010B500230370044B04461868FFF76AFCED
:1067DC0001232370204610BDD4E3032010B50378A9
:1067EC0004461BB1024B1868FFF764FC204610BD31
:1067FC00D4E30320002202604260704708B582791E
:10680C008B799A4206D1062204F064F8B0FA80F033
:10681C00400908BD002008BD01390523C25C01F800
:10682C00012F013BDBB2FF2BF8D1704770B514463A
:10683C0088B01D460E46002946D0002A46D001A934
:10684C00FFF7EAFF03AA15B1062101A82DE00121EB
:10685C0001A8FFF77FFF3A250DF10F0201210DF181
:10686C0005008DF80E50FFF775FF0DF11202012196
:10687C000DF106008DF81150FFF76CFF0DF11502AC
:10688C0001210DF107008DF81450FFF763FF06AAE4
:10689C00012102A88DF81750FFF75CFF8DF81A50F4
:1068AC000DF11B0201210DF10900013CFFF752FF14
:1068BC00112C28BF1124224603A9304604F019F8E4
:1068CC0000233355601C02E0084600E0104608B077
:1068DC0070BD10B586B0044613460846122201A9B5
:1068EC00FFF7A4FF01A92046FFF76FFE204606B074
:1068FC0010BD000010B501230361054B024603F1E6
:10690C00100153F8044B42F8044B8B42F9D110BDE3
:10691C0098BB0D000B7C13F0FD0330B510D1036157
:10692C000D4B024603F1100453F8045B42F8045B70
:10693C00A342F9D10B8803730B881B12437330BD30
:10694C000123036101F11002034651F8044B43F893
:10695C00044B9142F9D130BD98BB0D0010B50B69B9
:10696C00036101F11002034651F8044B43F8044B48
:10697C009142F9D110BD10B50B460446B9B1012AAC
:10698C0009D1034601F1100251F8040B43F8040B32
:10699C009142F9D108E0411E0F22985C01F8010FD9
:1069AC00013AD2B2FF2AF8D10123236102E010226E
:1069BC0003F0C5FF204610BD38B504460D46FFF761
:1069CC0099FF002325732D0A23616573204638BD7A
:1069DC0010B50B69036101F11002034651F8044B29
:1069EC0043F8044B9142F9D110BD10B586B0044662
:1069FC00012201A8FFF7BFFF01A92046FFF7E8FF1E
:106A0C0006B010BD10B586B0044601A8FFF7D4FF40
:106A1C0001A92046FFF7DCFF06B010BD10B586B00B
:106A2C00044601A8FFF776FF01A92046FFF7D0FF27
:106A3C0006B010BD08B502690B699A4206D1102246
:106A4C0003F048FFB0FA80F0400908BD002008BDF3
:106A5C000123F7B50361314B0E460546024603F19F
:106A6C00100153F8040B42F8040B8B42F9D1002EA1
:106A7C0051D02421304603F0F5FF042810D0002714
:106A8C0010242421304603F0EDFFB84201D944BB59
:106A9C0041E02C440023A5423DD004F8013DFAE727
:106AAC003078FFF777FE041E18DB7078FFF772FE64
:106ABC00002813DB40EA04108DF80400B078FFF7CF
:106ACC0069FE041E0ADBF078FFF764FE0028A1BF04
:106ADC0040EA04109DF8043028736B7300232B617B
:106AEC0019E0F05DFFF756FE030612D4013C0001DD
:106AFC0028552421304603F0B5FF0137874208D2D0
:106B0C00F05DFFF747FE40B20028A2BF2B5D184393
:106B1C0028550137B5E703B0F0BD00BF98BB0D0099
:106B2C0038B504460D46FFF7E5FE20462946FFF72B
:106B3C008FFF204638BD01390F23C25C01F8012FAD
:106B4C00013BDBB2FF2BF8D170472DE9F0419846A1
:106B5C008EB00D46002957D0002A57D00669541E16
:106B6C00AEB9027B437B059643EA0223022105AAB8
:106B7C0001A8ADF80430FFF7EDFD042C28BF042468
:106B8C00224605A9284603F0B4FE2E553AE001A989
:106B9C00FFF7D1FF05AAB8F1000F02D0102101A810
:106BAC0024E004210DEB0100FFF7D4FD2D260DF19F
:106BBC001D02022102A88DF81C60FFF7CBFD0DF120
:106BCC00220202210DF10A008DF82160FFF7C2FDAF
:106BDC000DF12702022103A88DF82660FFF7BAFDFC
:106BEC008DF82B600BAA06210DF10E00FFF7B2FDFC
:106BFC00242C28BF2424224605A9284603F079FE1C
:106C0C0000232B55601C02E0084600E010460EB035
:106C1C00BDE8F08110B58AB0044600232522084651
:106C2C006946FFF792FF69462046FFF7CEFC2046E7
:106C3C000AB010BD38B5054601B112B90020286262
:106C4C0038BD1F2A28BF1F22144603F052FE2C62A7
:106C5C00204638BDF0B58BB10024E51C8D420FD811
:106C6C00661C055D875D974205D12E44B14207D362
:106C7C001C60681CF0BD01352C44EEE71846F0BDD5
:106C8C000020F0BD2DE9F74304460E461D4617467D
:106C9C00002A3AD00A4601AB016AFFF7DBFF9DF8E8
:106CAC002830226A03BBF8B1961C2E44361A1F2ECC
:106CBC002BD8DDF8048008F10209C8EB0202121A85
:106CCC0000EB080105EB090092B22144204403F0CB
:106CDC001BFE6B1C04F808302A46394604EB0900ED
:106CEC0003F007FE266210E0901C2B181F2B0CD80B
:106CFC006B1CA354224420623946567020442A4609
:106D0C0003F0F7FD226A2A442262206A03B0BDE830
:106D1C00F0831FB50446034600F11F02002003F860
:106D2C00010B93424FF00001F9D104AA062302F89B
:106D3C00013D01232162009120461946FFF7A2FF75
:106D4C00204604B010BD2DE9F04F002585B0064655
:106D5C00894617469A462C464FF01408316A8D42E4
:106D6C002AD203AB4A46491B7019FFF773FF8346BF
:106D7C0010B3544520D2042803990CD1294472181D
:106D8C00631CD1789278019342EA012108FB0470CC
:106D9C00FFF738FE0AE012280AD102312944631C9D
:106DAC00314408FB04700193FFF71FFE019B1C4646
:106DBC00039B5B441D44D1E7204605B0BDE8F08F32
:106DCC002DE9F04113460D4616460A4602210746A8
:106DDC00FFF7B9FF4FF01408331A08FB00520446B2
:106DEC0003213846FFF7AFFF0444331B08FB045262
:106DFC0006213846FFF7A7FF0444331B08FB045257
:106E0C0007213846FFF79FFF2044BDE8F0810000C2
:106E1C0038B500254FF6FF73044643800E222946F1
:106E2C0005700571063003F08AFD04F11400FFF7BC
:106E3C0061FD04F12800FFF75DFD044904F13C00FD
:106E4C00FFF7C3FBE5642565204638BD7CBC0D000F
:106E5C0010B58369C26903EBC2029342184606D08F
:106E6C00046824888C4203F10803F6D110BD00207D
:106E7C0010BD000070B504680E46217886B000295C
:106E8C002ED162884FF6FF739A4229D0238A53B3CE
:106E9C0018252A46684603F052FD0123ADF8003050
:106EAC00134BADF80250019302946388ADF80C308B
:106EBC00238AADF80E30A389ADF810305EB123797A
:106ECC009A0644BF022305932379DB0642BF059B38
:106EDC0043F00103059300216846FFF7B1F804E085
:106EEC006FF0D10001E06FF0770006B070BD00BF0D
:106EFC00D9700D000368D9641A6570472DE9F0410B
:106F0C008AB020230E46029300252E4B009302AA32
:106F1C002B462D4903950120FFF7B4F93368DC6843
:106F2C001F694FF01C0804EBC7070834A4F10803D1
:106F3C009F42326817D0ADF80A8054F8083C9B8AFF
:106F4C00ADF8203054F8083CDB8AADF822301088BC
:106F5C00009533461D4A02A9FFF74AF8002804F1B0
:106F6C000804E3DA2AE09469D569002704EBC50527
:106F7C000834A4F108039D421FD054F8083CDB8967
:106F8C00CBB11422002102A803F0D9FC54F8083C20
:106F9C00D989336802AA188800971323FFF732F8AF
:106FAC0048B10AAB184402A900F8207C54F8080C2C
:106FBC003C30FFF737FB0834DBE700200AB0BDE8B4
:106FCC00F08100BF1FBA0D00F8B90D00C97B0D0090
:106FDC00036818884FF6FF73C01A18BF012070475A
:106FEC0002680B68C2F802304B68C2F80630704772
:106FFC0010B50A6852F8023F03605368436010BD35
:10700C001FB502680B6812881B889A420C460CD17B
:10701C0001466846FFF7ECFF214602A8FFF7E8FFA0
:10702C0002A96846FFF7EAFB00B9002004B010BDC6
:10703C0010B504463420FDF728F8014668B100234A
:10704C00036043608360C360036143618361C36118
:10705C00036243628362C3620363216019B90A4A03
:10706C000A20FFF707F90020FEF794FF20B1064A2B
:10707C0000210A20FFF7FEF8002221680348FEF7E2
:10708C00D5FF204610BD00BF815F0D00F5740D00CB
:10709C0010B50A4C2368DB070ED42046FDF708F820
:1070AC0050B10748FFF7C4FF2046FDF706F8054A24
:1070BC000549034803F097FA014810BDD0E30320BB
:1070CC00CCE30320D4D803205D720D0070B50368A7
:1070DC00093B012B8AB004460E4619D8FFF7D8FF9E
:1070EC00A1880068FFF7B4FE024658B9202302932A
:1070FC00084B0390009302AA034607493220FFF77E
:10710C00C1F805E0F56C1DB1336DE1682069A84745
:10711C000AB070BD42BA0D00F8B90D0013B501A844
:10712C00FFF74EFB0020FEF735FF044601A8FFF7E2
:10713C0055FB04EAE47002B010BD000030B58BB012
:10714C000D4601A81446FFF73BFBB5B1ACB10022CC
:10715C0002A90D4806940292039204920792089297
:10716C0009920595FEF71EFF0028B8BF0446029849
:10717C00A8BF079CFFF742F900E0044C01A8FFF7F9
:10718C002DFB20460BB030BD63760D00F2FEFFFFE9
:10719C000B68036013B15A6801325A60704710B51E
:1071AC0051F8043B044640F8043BFFF7F1FF236819
:1071BC000BB9FFF7B5FA204610BD10B551F8043BDA
:1071CC00044640F8043BFFF7E3FF204610BD10B522
:1071DC0004460430FDF7ECF9204610BD10B504460A
:1071EC000430FDF7E5F9204610BD70B5046843681E
:1071FC00054604EBC306A64204D0201DFDF7D8F9C2
:10720C000834F8E72868FFF7F9F8284670BD70B520
:10721C0004684368054604EBC306A64204D0201D4F
:10722C00FDF7C6F90834F8E72868FFF7E7F82846B1
:10723C0070BD10B5046904F11800FFF7E8FF04F104
:10724C000C00FFF7D2FF2046BDE81040FCF721BF31
:10725C00F8B504680746C4B1A569E36905EBC30634
:10726C00AE4204D0281DFDF7A3F90835F8E7A06954
:10727C00FFF7C4F804F10C00FFF7C9FF2046FFF735
:10728C00B4FF3421204603F0BBF93846F8BD0000AA
:10729C0073B500250560456006462420FCF7F5FE15
:1072AC00044678B103464FF6FF7223F8022BC0F860
:1072BC0002505D608572C572C5600561456185616E
:1072CC00C5610562002314200193FCF7DEFE034622
:1072DC0028B1012242608260084A0260046102A85F
:1072EC00726840F8042D73603460FDF761F93368FF
:1072FC000BB9FFF715FA304602B070BDE4B90D00BA
:10730C0038B50C6803689C4205460CD014B1636810
:10731C0001336360286828B14368013B43600BB9B3
:10732C00FFF708FA2C60284638BD10B502680B68C8
:10733C000446D06C10B1D864126D1A65204651F811
:10734C00043B40F8043BFFF7DBFF204610BD2DE962
:10735C00F04303689C69DE6987B00F46904604EBE6
:10736C00C606B442A14611D054F8081B01A814312A
:10737C00FFF7F4FA414601A8FFF75CFB054600282D
:10738C00EFD049463846FFF7D0FF00E000252846ED
:10739C0007B0BDE8F08310B551F8043B044640F843
:1073AC00043BFFF7ADFF204610BD884270B5154673
:1073BC001AD9904219D2A1F10806511A0439151F95
:1073CC0044182B1F9E4225D0042C07D055F8043CA2
:1073DC0044F8043C29462046FFF7DAFE2846FDF720
:1073EC00E7F8083D083CECE714D00C1D061D231FE4
:1073FC009D420FD0042E07D054F8043C46F8043CB0
:10740C0021463046FFF7C4FE2046FDF7D1F808347C
:10741C000836ECE770BD2DE9F04104684368054679
:10742C00884604EBC307A74218D041462046FFF715
:10743C00E7FD064608B90834F5E78CB1201DFDF7C9
:10744C00B7F82B686A6804F1080103EBC202204606
:10745C00FFF7ABFF6B68013B6B6002E0002600E0BE
:10746C0026463046BDE8F081F7B5044651F8043B9A
:10747C004768009301A8FFF78BFE6668A3689E42DD
:10748C0014DB0136002E0BDDF000FEF7AFFF0546D6
:10749C0018B394E8060001EBC202FFF786FF00E088
:1074AC0000252068FEF7AAFF2560A66026686268A2
:1074BC0006EBC70506EBC202294605F10800FFF7EB
:1074CC0074FF35B1009B46F8373001A9281DFFF732
:1074DC005FFE636801336360012501A8FDF768F85E
:1074EC00284603B0F0BD00002DE9F04104468EB0F3
:1074FC0003A80D46FFF764F92368032B02D0042B75
:10750C0042D087E004A8FFF7C3FE049B22891A80AF
:10751C006268049952F8083FC1F802305368C1F808
:10752C00063007A8049B069305A9FFF731FE06A9B0
:10753C0005F11800FFF798FF044607A8FDF738F887
:10754C002023069374B9364B009306AA234635497B
:10755C0007943220FEF796FE049B21461888FEF70E
:10756C0033FD0DE0304A0092002306AA2D49079303
:10757C000120FEF787FE6B6A13B1E96A04A89847ED
:10758C0005A8FDF715F845E021892846FFF760FCB2
:10759C00074600283ED00468A369E1694FF6FF72E4
:1075AC00228003EBC101994203D053F8080B4280AF
:1075BC00F9E7E668236906EBC308B04504D0301D33
:1075CC00FCF7F6FF0836F8E700232361A669E369A8
:1075DC0006EBC308B04504D0301DFCF7E9FF0836B4
:1075EC00F8E70023E361A372E372AB6A13B1296B72
:1075FC003846984720230D4A0693009200230949E8
:10760C000793012006AAFEF73DFE394605F1180046
:10761C00FFF701FF03A8FFF7E1F80EB0BDE8F0811A
:10762C005ABA0D00F8B90D0080BA0D009DBA0D00C4
:10763C0038B50D1E044606DD542169430068FEF77B
:10764C00E5FE20B938BD0068FEF7D8FE00202060AA
:10765C00A560012038BD70B55426C0B00546324631
:10766C000C4601A8002103F06AF903A8FFF751FBAF
:10767C000CA8FFF74EFB2A4601AB52F8100F5168CD
:10768C00EA8903C32B78A9688DF854300CA8FFF74E
:10769C00D1FAAA89696803A8FFF7CCFAA5691DB1CC
:1076AC00E16901A8A8473CE0E06898B163692269E8
:1076BC00934239D25A1C626106FB0300512201A984
:1076CC0003F017F9626923699A422DD32846FEF715
:1076DC0071FC29E0324601A916A803F00AF93246DA
:1076EC0016A92BA8656803F004F9A3689D4204DB76
:1076FC00691C2046FFF79CFFB0B1636822685426D2
:10770C0006FB052506FB0322521B2946A81903F08C
:10771C00FBF832462BA9284603F0EBF863680133DB
:10772C00636063690133636140B070BD8842F8B532
:10773C0006460C46154614D9904213D2A2F1080500
:10774C006C1AA1F108070444AF4218D01CB12946A9
:10775C002046FFF732FD281DFCF72AFF083D083CA8
:10776C00F2E70CD0AC420AD01EB121463046FFF7EE
:10777C0024FD201DFCF71CFF08340836F2E7F8BD89
:10778C0070B50E1E05460BDDF000FEF72FFE04460D
:10779C0070B195E8060001EBC202FFF7C7FF00E0ED
:1077AC0000242868FEF72AFE2C60AE60012070BD14
:1077BC0070BD2DE9F04100230360436083600E46E9
:1077CC0049689942044613DDFFF7DAFF80B135684A
:1077DC007368276805EBC308454507D01FB12946D8
:1077EC003846FFF7EAFC08350837F5E7736863603D
:1077FC002046BDE8F08138B50B689B7A05460C46EF
:10780C0033B90846FEF76EFF10B9236801229A724D
:10781C00216828460C31FFF7CCFF284638BD73B5DC
:10782C00044645686846FFF7C8FC6168A36899423E
:10783C0005DB01312046FFF7A3FF064698B123680C
:10784C00626803EBC50503EBC202294605F108008B
:10785C00FFF76CFF1DB169462846FFF7AEFC636865
:10786C0001336360012601A8FCF7A2FE304602B08A
:10787C0070BD8842F8B506460C46154614D99042A0
:10788C0013D2A2F108056C1AA1F108070444AF4207
:10789C0018D01CB129462046FFF781FC281DFCF7A7
:1078AC0087FE083D083CF2E70CD0AC420AD01EB172
:1078BC0021463046FFF773FC201DFCF779FE083497
:1078CC000836F2E7F8BD70B50E1E05460BDDF0006C
:1078DC00FEF78CFD044670B195E8060001EBC20280
:1078EC00FFF7C7FF00E000242868FEF787FD2C6037
:1078FC00AE60012070BD70BD2DE9F0410023036026
:10790C00436083600E4649689942044613DDFFF7D5
:10791C00DAFF80B135687368276805EBC308454505
:10792C0007D01FB129463846FFF739FC0835083710
:10793C00F5E7736863602046BDE8F08130B50B68ED
:10794C009B7A85B005460C462BB901A8FFF753FF6F
:10795C0001A8FFF74AFC2368DB7A3BB9214601A852
:10796C00FFF7CCFA10B923680122DA722168284695
:10797C001831FFF7C1FF284605B030BD2DE9F043A3
:10798C000D4693B04FF018081746064642460021A4
:10799C0004A81C4602F0D3FF69682868079702AB5D
:1079AC0003C34FF0010905AB83E80300ADF8109059
:1079BC00ADF81280FFF76CFB344B0893FFF768FBB4
:1079CC00002203683168099304A8FEF725FB0746DB
:1079DC0020B133684FF6FF721A8053E029463046C7
:1079EC00FFF7FEFAFFF754FB3146036812AD03F1C3
:1079FC00180851F8043B45F8203D0BA8FFF7C8FBCD
:107A0C0029464046FFF730FD80460BA8FCF7D0FD19
:107A1C0020230A93B8F1000F14D11D4B00932A4672
:107A2C0043461C49CDF82C803220FEF72BFC3368E2
:107A3C0041461888FEF7C8FA336817484FF6FF72AC
:107A4C001A801FE0154B00932A463B4611490B97B1
:107A5C004846FEF717FCA4B131462846FFF76EFFE7
:107A6C000A9C0B9B04EBC306A64205D020460121C1
:107A7C00FFF700FA0834F7E72846FFF7C8FB0020A9
:107A8C0000E0204613B0BDE8F08300BFF5740D0094
:107A9C00BCBA0D00F8B90D00FCFEFFFFD8BA0D0002
:107AAC0070B5044615461E46FFF7F2FB334600221E
:107ABC0029462046FFF762FF204670BD73B5044689
:107ACC0045686846FFF76BFB6168A368994205DB64
:107ADC0001312046FFF7F7FE064698B1236862682D
:107AEC0003EBC50503EBC202294605F10800FFF7BD
:107AFC00C0FE1DB169462846FFF751FB6368013390
:107B0C006360012601A8FCF753FD304602B070BD3E
:107B1C0010B50446406808B1FCF7BBFA204610BD0E
:107B2C0007B503690C308DE8090003F13C00FEF742
:107B3C0005FD6846FFF7ECFF03B05DF804FB0000A1
:107B4C0038B500230446036014200D46FCF79DFA5B
:107B5C0028B1012343608360024B03600561206000
:107B6C00204638BDACB90D0070B5002586B0056057
:107B7C00456004465420FCF788FACDF810D0064630
:107B8C00059008B1FFF744F9314601AB02AA03A8EE
:107B9C000595FFF7D5FF039B62682660636003A819
:107BAC000392FCF705FD04A8FFF7B2FF23680BB99D
:107BBC00FEF7B6FD204606B070BD00002DE9F04181
:107BCC00DFF804818CB005460F4600262B689E42D8
:107BDC0075D202A8FFF7C8FF029B2A895A806B68EE
:107BEC0002982A247443234414305B7E13F0020F52
:107BFC001EBF10F8103C43F0020300F8103C6B68F9
:107C0C0023445B7E5B0742BF10F8103C43F0040337
:107C1C0000F8103C6B6823445B7E190742BF10F8D8
:107C2C00103C43F0080300F8103C6B6823445B7E67
:107C3C00DA0642BF10F8103C43F0100300F8103C79
:107C4C006B6823445B7E9B0642BF10F8103C43F0EC
:107C5C00200300F8103C696821440431FEF7DEFE75
:107C6C006A68029B144402A9E28B1A81228C5A8105
:107C7C00628C9A81A28CDA81E28C1A82228D5A82D1
:107C8C00386800F1180404A8FFF789FA204604A903
:107C9C00FFF714FF044605A8FCF78AFC54B920230F
:107CAC000493CDF80080234604AA0649059432209B
:107CBC00FEF7E8FA03A8FCF77BFC013686E70CB06C
:107CCC00BDE8F081F8B90D00F5BA0D0010B5044609
:107CDC00406808B1FCF7DDF9204610BD07B5036913
:107CEC000C308DE809006846FFF7F0FF03B05DF833
:107CFC0004FB000038B500230446036014200D4635
:107D0C00FCF7C3F928B1012343608360024B036085
:107D1C0005612060204638BDC8B90D0070B500253E
:107D2C0086B00560456004461820FCF7AEF9CDF826
:107D3C0010D00646059018B1FEF7DCFDB582F58231
:107D4C00314601AB02AA03A80595FFF7D3FF039BAD
:107D5C0062682660636003A80392FCF729FC04A800
:107D6C00FFF7B4FF23680BB9FEF7DAFC204606B028
:107D7C0070BD00002DE9F041DFF880808CB0064624
:107D8C000F46002533689D4233D202A8FFF7C6FF89
:107D9C001C24716802986C4321440431FEF73EFEAA
:107DAC007368029A234402A91B8B938273681C4448
:107DBC00638BD382386800F10C0404A8FFF7FDF93B
:107DCC00204604A9FFF72BFD044605A8FCF7F0FBA1
:107DDC0054B920230493CDF80080234604AA064905
:107DEC0005943220FEF74EFA03A8FCF7E1FB0135AF
:107DFC00C8E70CB0BDE8F081F8B90D0021BB0D004F
:107E0C0010B5064C002320462360FEF73BF92046B4
:107E1C00034A0449BDE8104002F0E5BBD4E303205B
:107E2C00D4D80320E1660D00F8B506460D468F1830
:107E3C000024BD420CD0336815F8011B9B683046FA
:107E4C009847002801DB0444F3E7002C08BF0446E4
:107E5C002046F8BD70B505460C46084649B102F0FF
:107E6C00E4FD2B68024621462846DB68BDE87040DD
:107E7C00184770BD03689B68184738B50D21054637
:107E8C00FFF7F8FF0A2104462846FFF7F3FF2044CA
:107E9C0038BD30B58BB00B4600218DF82410012A6B
:107EAC0098BF0A220DF12304B3FBF2F505FB123344
:107EBC0003F0FF03092B94BF30333733DBB2214679
:107ECC0004F801392B46002DEED1FFF7C3FF0BB0A0
:107EDC0030BD0CB42DE9F04387B000AF07F1380486
:107EEC00054654F8049B3C600E4623464A46142132
:107EFC00381DFEF79BFA132805D8391D2846FFF7C5
:107F0C00A9FF044613E000F1080323F00703E84639
:107F1C00ADEB030D411C23464A4668463C60FEF718
:107F2C0085FA69462846FFF795FF0446C5461EB1FB
:107F3C002846FFF7A2FF044420461C37BD46BDE887
:107F4C00F04302B0704780680368DB6818477047DD
:107F5C0019B10B6808465B681847704719B10B6874
:107F6C0008465B681847704770477047704738B5CC
:107F7C0004460D4600682E2102F020FD2368C31A2A
:107F8C002B6023B1037803B10130236820601846BD
:107F9C0038BD10B50C21044602F032FB204610BD52
:107FAC0010B50421044602F02BFB204610BD10B581
:107FBC000421044602F024FB204610BD38B50C46C3
:107FCC00054601F021FC84420DD001F0A5FC844251
:107FDC0005D101F0A1FCBDE8384001F09ABC214666
:107FEC002846FFF7BBFF38BD08B502F0F1FCB0FA2C
:107FFC0080F0400908BD38B5054608460C4602F02D
:10800C0014FD214602462846BDE8384002F089BAE4
:10801C000068FEF747B870B5044608460D4602F0F6
:10802C0004FD2368024629462046DB68BDE8704003
:10803C00184713B502AB026803F8011DD468194642
:10804C000122A04702B010BD2DE9F04F456807682A
:10805C0085B09146142255430193AB10194D0292F1
:10806C005D438B463C460123002D039323DD029B8D
:10807C006E1003FB06F004EB00084A46B8F804A0A7
:10808C002058D14528BF5246594602F0D6FC039BD6
:10809C0048B9D14503D1019A13703546E4E78CBF3A
:1080AC000120002000E0C00F0028F6D0AE1B08F124
:1080BC001404013EF1E7E41B0248A410604305B030
:1080CC00BDE8F08FCDCCCCCCF0B585B00369019177
:1080DC00067E13B309B304AF002347F8043D00F147
:1080EC000C041D46394601A8FFF741FF0146A0B11B
:1080FC0004AB039A03F8055D2046FFF7A5FF9DF836
:10810C000B3053B12368142404FB0034083434F9C5
:10811C00023C002BA8BFDEB2E4E7304605B0F0BD50
:10812C0010B5094C2368DB070BD42046FBF7C0FFC6
:10813C0038B12046FBF7C1FF044A0549054802F057
:10814C0052FA044810BD00BFD8E30320D4D8032052
:10815C00777F0D0064D8032010B5094C2368DB072A
:10816C000BD42046FBF7A4FF38B12046FBF7A5FF44
:10817C00044A0549054802F036FA044810BD00BF10
:10818C0008E40320D4D80320757F0D0060D80320A9
:10819C0038B500250446056045608560056145617C
:1081AC00856140F8245FFDF76DFFFFF7B9FFE061D3
:1081BC00FFF7D2FF25732062204638BD10B50A4C5C
:1081CC002368DB070ED42046FBF772FF50B107483B
:1081DC00FFF7DEFF2046FBF770FF054A0549034811
:1081EC0002F001FA014810BDDCE30320E0E30320B8
:1081FC00D4D8032033860D000023024A02490348D9
:10820C00FEF758B815850D00A5840D002D840D00C2
:10821C0000231A4619461846FEF74CB873B502AC43
:10822C008E6851F8043B44F8083D054601A8FEF75A
:10823C00AFFF22463146284602F0AAF901A8FCF706
:10824C00B7F9284602B070BD73B502AC0E6951F88F
:10825C00043B44F8083D054601A8FEF799FF224669
:10826C003146284602F0AFF901A8FCF7A1F92846DF
:10827C0002B070BD73B502ACCE6851F8043B44F843
:10828C00083D054601A8FEF783FF224631462846E5
:10829C0002F056F901A8FCF78BF9284602B070BD24
:1082AC0030B58BB00D46014604A8FFF7B7FF04A804
:1082BC0002F079F8E8B104A96846FFF7DBFF0F4933
:1082CC000298FFF791FE044610B12C1C18BF012434
:1082DC0001A8FCF76DF9002CE9D004A96846FFF75A
:1082EC00B3FF684602F03FF8286001A8FCF760F97C
:1082FC00DDE705A8FCF75CF90BB030BDD8BB0D0071
:10830C0037B50C4620461349154602F061FB40B9BF
:10831C0001F07AFA4FF4165101F066FA01F074FA92
:10832C0015E00D49204602F053FB78B902A94FF431
:10833C00165341F8043D2846FFF7B2FF01F0ECFA62
:10834C00019901F0E3FA01F0E7FA00E0002003B034
:10835C0030BD00BFDDBB0D00E4BB0D0070B5046883
:10836C0043681426054606FB0346A64205D004F1D5
:10837C000800FFF7F3FF1434F7E72868FEF73EF820
:10838C00284670BD70B504684368054604EB0316B7
:10839C00A64204D02046FEF7D1F81034F8E728683E
:1083AC00FEF72CF8284670BD10B504460C30FFF7CC
:1083BC00D5FF2046FFF7E6FF204610BD10B5044B55
:1083CC00044640F8043BFFF7EFFF204610BD00BF0A
:1083DC00ECAB0D0010B50446FFF7F0FF204624214E
:1083EC0002F00EF9204610BD10B5034B0360044695
:1083FC00FFF7E4FF204610BDC8BB0D0010B50446C6
:10840C00FFF7F2FF2046242102F0FAF8204610BDB7
:10841C0010B5036804461868FDF74CFE204610BDE5
:10842C002DE9F04F9B461B4B5B68C3F3080385B0EB
:10843C0082460E46904653BBFFF7C0FE04462430DE
:10844C000390FFF7E5FD237BF3B901232373256824
:10845C006368F6B205EB83094D4513D055F8047BE0
:10846C004146381DFFF730FE8642F5D33B68CDF808
:10847C0000B09B689E463846434632465146774686
:10848C00B847E9E70023237303A8FFF7C1FF05B042
:10849C00BDE8F08F00ED00E02DE9F74F9946194B40
:1084AC005B68C3F3080307468846164633BBFFF7E1
:1084BC0085FE044624300190FFF7AAFD237BD3B937
:1084CC0001232373256863685FFA86FB05EB830A37
:1084DC0055450ED055F8046B4946301DFFF7F4FD99
:1084EC008345F5D333684246DB68394630469847B6
:1084FC00EEE70023237301A8FFF78AFF03B0BDE862
:10850C00F08F00BF00ED00E02DE9F341154B5B68E7
:10851C00C3F3080304468846FBB9FFF74FFE064633
:10852C0024300190FFF774FD96E8A000462605EB79
:10853C008707AF4207D101A8FFF76AFFB442B4BF67
:10854C00002001200AE055F8040B41460430FFF7E7
:10855C00BBFD8642A8BF0646EBE7002002B0BDE893
:10856C00F08100BF00ED00E070B50368426804467E
:10857C0003EB82029A4218460ED006680D68AE4292
:10858C0003F10403F6D1011D521A02F0BDF9636820
:10859C00013B6360012070BD002070BD1FB5044617
:1085AC00243001910390FFF733FD01A92046FFF71A
:1085BC00DBFF20B903A8FFF72BFF04B010BD6368E5
:1085CC00002BF7D1FFF724FEF4E770B5056943697A
:1085DC001826044606FB0356AE4215D005F11001D1
:1085EC002046FFF7C1FF63680BB9FFF711FEE06986
:1085FC0029690368DB689847696919B1206A0368BF
:10860C00DB6898471835E7E725696369182606FB88
:10861C000356B54204D02846FDF790FF1835F8E70D
:10862C000023636170BD73B5044602ADFFF7F0FD26
:10863C0004F1240045F8040DFFF7EAFC2046FFF78F
:10864C00C4FF2846FFF7E4FE606A08B1FDF722FD7F
:10865C0025696369182606FB0356B54204D02846E3
:10866C00FDF76CFF1835F8E72069FDF7C7FE2068A9
:10867C00FDF7C4FE204602B070BD03680A680260B4
:10868C000B6043684A6842604B6083688A6882600A
:10869C008B60704710B50023044603604360836011
:1086AC00FFF7EBFF204610BD8842F8B5044616468E
:1086BC0025D9904224D2551A143D2C44A1F114070B
:1086CC00A2F10C050026A5F108039F4237D084B116
:1086DC0055F8083C236035F8043CA38035F9023C7E
:1086EC00E380A660E6602661294604F10800FFF7E6
:1086FC00C4FF2846FFF732FE143C143DE3E71ED0BE
:10870C0001F108050027A5F108039E4217D084B19A
:10871C0055F8083C236035F8043CA38035F9023C3D
:10872C00E380A760E7602761294604F10800FFF7A2
:10873C00A4FF2846FFF712FE14341435E3E7F8BD06
:10874C00F8B5456883689D4204460E4617460EDB15
:10875C000135002D05DDA9000068FDF757FE20B995
:10876C00F8BD0068FDF74AFE00202060A560256872
:10877C00626805EB860105EB8202521A081D02F0B5
:10878C00C3F845F826706368013363600120F8BDB7
:10879C0037B5044624300D460190FFF739FC2368A9
:1087AC00616803EB810083421A4609D01268AA4221
:1087BC0003F10403F7D101A8FFF72AFE00250EE010
:1087CC002A462046FFF7BCFF05460028F3D0636815
:1087DC00012B01D1FFF710FD01A8FFF719FE284668
:1087EC0003B030BD8842F8B506460C46154614D980
:1087FC00904213D2A2F110056C1AA1F11007044497
:10880C00AF4218D01CB129462046FDF787FE2846FA
:10881C00FDF794FE103D103CF2E70CD0AC420AD0B0
:10882C001EB121463046FDF779FE2046FDF786FE47
:10883C0010341036F2E7F8BD70B50E1E05460BDD90
:10884C003001FDF7D3FD044670B195E8060001EB4D
:10885C000212FFF7C7FF00E000242868FDF7CEFDE9
:10886C002C60AE60012070BD70BD2DE9F04F00236F
:10887C0095B092464622036043608360C3600361F7
:10888C00436102760291DAF8041008939942054686
:10889C0009930A9340F39D8008A8FFF7CDFF0028A9
:1088AC0040F097808EE021460BA8FDF737FE0BA910
:1088BC000FA8099EFDF732FE09990A9B9942C0F256
:1088CC00CE80013108A8FFF7B7FF002840F0C78021
:1088DC000FA8FDF733FE0BA8FDF730FE1434A742AA
:1088EC00E1D100260B960C960D96B146099B9E4243
:1088FC0080F2A8803301089AD3580693002B00F01D
:10890C009F8014237343CDF81C9001930BAC07A9E3
:10891C0006A8FFF72CFB0746002800F0918014AB4B
:10892C00014603F8399D079A2046FFF78DFB9DF809
:10893C0017800090B8F1000F53D1BDF81C30ADF882
:10894C0040304FF6FF730F97ADF84230CDF84480AE
:10895C00CDF84880CDF84C806768A3689F424FDA09
:10896C00009BD4F800B06168142253430BEB03074F
:10897C0002FB01B207F1140039460393FFF794FE92
:10898C00A7B1039B0F9A4BF80320BDF84030BB8076
:10899C00BDF94230FB80C7F80890C7F80C90C7F8B7
:1089AC00109011A907F10800FFF767FE6368013307
:1089BC00636011A8FFF7D2FCB8F1000F11D00BA81F
:1089CC00FFF7CCFC08A8FFF7DDFC284615B0BDE886
:1089DC00F08FDAF80040DAF80430142707FB03476D
:1089EC007DE72368009A142404FB0234069B1B7851
:1089FC0023BBDAF80030019A13441B7CE3801DE0A2
:108A0C000137002F0FDD142303FB07F00393FDF751
:108A1C00EDFC834678B194E80600039B03FB02123D
:108A2C00FFF742FE00E0C3462068FDF7E7FCC4F800
:108A3C0000B0A76094E74FF00108BAE7083466E786
:108A4C00013653E708A92846FFF717FE0BA905F1D5
:108A5C000C00FFF712FE9DF808302B76AFE7089B51
:108A6C00099A03EB061603EB0212314606F11000CD
:108A7C00FFF7B8FE1EB10FA93046FDF74FFD099B5D
:108A8C000133099324E700007FB50446094B44F8F1
:108A9C00043B05460E4601A81146FBF7B0FE01AAA1
:108AAC0031462046FFF7E1FE01A8FBF767FE28469A
:108ABC0004B070BDECAB0D00F0B50F468BB02B497C
:108ACC00109C384616461D4601F082FF28BB002C30
:108ADC0049D0294601A8FFF7DDFD2549242001F0E6
:108AEC0091FD0546B8B101A904A8FFF7D3FD04A96F
:108AFC0007A8FBF784FE07AA31462846FFF7C4FFF8
:108B0C0007A8FBF73BFE1B4B2B602C6204A8FBF762
:108B1C0035FE194B2B6001A81FE01849384601F0AF
:108B2C0057FFF0B9FCB1294604A8FFF7B3FD104973
:108B3C00242001F067FD054670B104A907A8FBF7D6
:108B4C005EFE07AA31462846FFF79EFF07A8FBF7F3
:108B5C0015FE084B2B602C6204A8FBF70FFE284671
:108B6C0002E0002000E020460BB0F0BD36BC0D004A
:108B7C00F7BE0D00BCBC0D00C8BB0D003ABC0D000F
:108B8C00014B024A1A6070470CE403204BBC0D00E9
:108B9C002DE9F047089DD0F8209004460E46174664
:108BAC00984600F031FE814505D15A4801F0E1FAB2
:108BBC00002840F0AC802B791B0705D56B69564A11
:108BCC00206A0021FFF785F9B8F1000F0DD05B2169
:108BDC002046FFF72EFA41462046FFF71CFA236881
:108BEC004E49DB680222204698472B79D90725D5B8
:108BFC00D5F808802F21404601F040FF08B100F164
:108C0C00010841462046FFF706FA2B799A0709D549
:108C1C003A212046FFF70DFAEB68414A206A002101
:108C2C00FFF757F92B7913F0040F236818BF3D4950
:108C3C00DB6808BF3C490222204698472B795B072A
:108C4C0018D529690A46134613F8010B38B12028A8
:108C5C0001D1194601E0282801D01A46F3E7236810
:108C6C00521ADB682046984723683049DB68042297
:108C7C002046984700213846FDF714FB0146204654
:108C8C00FFF7C9F923682849DB6802222046984778
:108C9C001EB131462046FFF7BEF92B7913F0300F89
:108CAC002DD023682249DB682046022298472B7975
:108CBC00D8060BD523681F49DB6807222046984746
:108CCC00AB691D4A206A0021FFF703F92B7999063D
:108CDC0011D5DA0605D523681249DB680222204635
:108CEC00984723681549DB6820460A229847E969AA
:108CFC002046FFF790F95D212046FFF79AF923688B
:108D0C000F49DB6820460222BDE8F0471847BDE852
:108D1C00F08700BF40E703204FBC0D0056BC0D0090
:108D2C00AFB20D0059BC0D005EBC0D005CBC0D005B
:108D3C0061BC0D0064BC0D006CBC0D006FBC0D0063
:108D4C007ABC0D002DE9F04385B0D0F820800C9C46
:108D5C0006460F4691461D4600F056FD804505D14E
:108D6C004A4801F006FA002840F08C80336A484AE1
:108D7C0001924FF0000801A803938DF8088001F0D0
:108D8C003CFB41464846FDF78DFA4249804601229C
:108D9C0001A801F0B7FB4146FFF72DF93FB13E4961
:108DAC00012201A801F0AEFB3946FFF724F93DB1D1
:108DBC003A49012201A801F0A5FB2946FFF71BF94E
:108DCC002379DF070ED5A5682F21284601F056FE22
:108DDC0000B1451C3249012201A801F093FB294640
:108DEC00FFF709F923799D0707D52E49022201A81F
:108DFC0001F088FBE16801F00DFB2379580716D5CB
:108E0C0025692F463B4613F8012B3AB1202A01D194
:108E1C001D4601E0282A01D01F46F3E70222224911
:108E2C0001A801F06FFB7A1B294601F07AFB23792C
:108E3C00190707D51D49012201A801F063FB6169DF
:108E4C0001F0FAFA2379DA0608D5042218490DEB59
:108E5C00020001F057FBA16901F0DCFA23799B06B3
:108E6C0007D51449062201A801F04CFBE169FFF774
:108E7C00C2F801A801F0ABFA306A0F49036802226C
:108E8C00DB68984705B0BDE8F08300BF40E70320DE
:108E9C00B0BB0D00E2BB0D00F5BB0D009BAE0D0091
:108EAC0076AE0D007DBC0D0080BC0D000ABC0D0023
:108EBC0083BC0D0088BC0D007ABC0D00024B1A68F7
:108ECC00024B1A60704700BF68D8032010E40320DF
:108EDC0010B5036804469B689847A368013BA360E0
:108EEC002BB923682046DB68BDE81040184710BD3D
:108EFC0010B5064B03600446806928B14368013BFA
:108F0C0043600BB9FFF7E4FF204610BD10BE0D0007
:108F1C0010B50446FFF7ECFF20461C2101F070FB56
:108F2C00204610BD10B58368044613B103220146D8
:108F3C009847204610BD10B50446FFF7F3FF2046B6
:108F4C0010BD13B50B46044603C88DE8030093E827
:108F5C00030084E803009DE8030083E8030002B0EB
:108F6C0010BD00000348044A04490023836001F04B
:108F7C003ABB00BF14E40320D4D80320438F0D0068
:108F8C0008B50C4B33B100F03FFC03681B699847E4
:108F9C00002809DC084B63B100F0BEFC03681B69B8
:108FAC009847002803DC08BDAFF30080F2E7AFF36D
:108FBC00008008BD000000000000000008B5FFF7AD
:108FCC00DFFFFCF7DFFF014B186008BD48E703200B
:108FDC000248034A0349121A01F08BBC00F4032027
:108FEC0004F40320A0C00D0007B5002300931A461B
:108FFC006FF07701FDF788F903B05DF804FB000012
:10900C0007B543880A2B08D0502B09D1094B1B6894
:10901C003BB103B05DF804EB1847FFF7E5FF06E042
:10902C00002300931A466FF07701FDF76DF903B03A
:10903C005DF804FB24E4032038B5104C104D236874
:10904C00AB42104B0CBF012200221A7002D0FFF76A
:10905C00BFFF2560FCF786FF044601F079FC0A4B44
:10906C0013B12046AFF3008000210748FDF7B6F995
:10907C0000210648BDE83840FDF73CB900F4032058
:10908C001E1C279A28E40320000000000D900D0000
:10909C0070470020704710B51021044601F0B0FA5B
:1090AC00204610BD08B508B1FFF7F5FF08BD00223A
:1090BC00026010B54FF69C728280B1F90440848036
:1090CC008A8002680C6804600A6010BD10B5044602
:1090DC000068FDF793F9204610BD38B5C468F4B1AB
:1090EC002378022B03D104F10C00FFF7EFFF656826
:1090FC0035B12846FFF716FF1021284601F080FAFB
:10910C00A56835B12846FFF70DFF1021284601F060
:10911C0077FA20461421BDE8384001F071BA38BD09
:10912C0013B5044691E8050000234B600B602060EA
:10913C00626001A801930093FBF73AFA204602B053
:10914C0010BDF7B50C4602AD54F8043B45F8083D8C
:10915C0006460F4601A82146FEF71AF82946304666
:10916C00FFF7DEFF01A8FBF723FA2046FBF720FAF6
:10917C003846082101F044FA304603B0F0BD000037
:10918C0038B500230446036010200D46FAF77DFF26
:10919C0028B1012343608360024B0360C5602060EB
:1091AC00204638BD30BD0D00826810B50AB901F0FB
:1091BC0038FAC368BDE81040184708B5006800F1DC
:1091CC001001FFF7F1FF08BD826810B50AB901F074
:1091DC0028FAC368BDE81040184708B5006800F1CC
:1091EC001001FFF7F1FF08BD38B5002383608B68D1
:1091FC0004460D462BB102229847EB68E360AB683E
:10920C00A360204638BD0000F0B589B004686846FC
:10921C00FFF74DFF00238DF808304FF00202D4E821
:10922C004F3F002B03D1C4E8412F0029F7D102D0C6
:10923C008DF8083063E014F10C0503D0694628461C
:10924C00FFF735FFBFF35F8F01236370002004F13C
:10925C000803BFF35F8F53E8006F43E80002002A56
:10926C00F9D1BFF35F8F002E49D0FDF733F820B151
:10927C0029463046FFF798FF3AE0314602A8FFF73F
:10928C00B3FFE068B4F9105008B101F0B3FB0690DD
:10929C001020ADF81C50FAF7F8FE0546E8B100278F
:1092AC0087601820FAF7F1FE044688B10146876002
:1092BC0002A8FFF746FE049BA268A360059B0492DC
:1092CC0006A9E268E36004F110000592FFF7EFFED7
:1092DC000D4BEB600D4B2C60AB6006A8FFF7F6FE58
:1092EC0002A8FFF71FFE002229460948FCF7FAFFE7
:1092FC003046FFF717FE1021304601F081F9684621
:10930C00FFF7E4FE09B0F0BDC7910D003D940D00D0
:10931C0071990D002DE9F04F8BB006460F46904623
:10932C0099469DF850A0FDF749F807AD834630BB30
:10933C004FF62E73059005A92846ADF81830FFF7A7
:10934C00B6FE1420FAF7A1FE044658B102230370AE
:10935C0001234370C0F804B0C0F808B029460C30A3
:10936C00FFF7A5FE3046214640F8044BFFF708FFF7
:10937C002846FFF7ABFE05A8FFF7A8FE52E0002435
:10938C000C2314206C60AC600793FAF77EFE014648
:10939C0018B1047044704460846004A80391FFF712
:1093AC00EFFE224B08930820FAF76FFE044628B113
:1093BC00039B40F8043B04A9FDF7EAFE00955FFA15
:1093CC008AF34A46414638460994FCF7FFFF20B918
:1093DC00039B5B7803F0FF0283B1039B059304A905
:1093EC0006A8FDF7D5FE05A93046FFF799FE06A89D
:1093FC00FBF7DEF804A8FBF7DBF813E04FF69C73E1
:10940C0005A903A80592ADF81830FFF7FDFE05A8D5
:10941C00FFF75CFE05A80999FFF793FE06A8FBF77A
:10942C00C7F8DAE730460BB0BDE8F08FAD950D000C
:10943C00022AF8B5044606D0032A17D0012A22D1F5
:10944C000B6803601FE018200E68FAF71EFE054635
:10945C0050B13146FFF7C8FE3069B6F9147008B147
:10946C0001F0C8FA2861AF8225600CE0046854B1A1
:10947C0004F11000FFF72AFE2046FFF753FD1821D8
:10948C00204601F0BDF80020F8BD38B500238360FC
:10949C008B6804460D462BB102229847EB68E360BB
:1094AC00AB68A360204638BD022A70B5044606D0CE
:1094BC00032A11D0012A18D10B68036015E014207F
:1094CC000E68FAF7E2FD054620B13146FFF7DDFFE5
:1094DC00337C2B74256008E0046834B12046FFF718
:1094EC0021FD1421204601F08BF8002070BD0000F6
:1094FC00F0B5002387B00C46BFF35F8F50E8006FC8
:10950C0040E80032002AF9D1BFF35F8F002E3FD024
:10951C001846FCF7DFFE074620B121463046FFF720
:10952C0053FE2EE0314601A8FFF7AFFF23788DF8EC
:10953C0014301020FAF7A9FD0546D0B1876014202D
:10954C00FAF7A3FD044678B18760014601A8FFF73E
:10955C00F8FC039BA268A360049B0392E268E3609F
:10956C009DF81430049223740A4BEB600A4B2C6068
:10957C00AB6001A8FFF7D6FC002229460748FCF790
:10958C00B1FE3046FFF7CEFC1021304601F038F822
:10959C0007B0F0BDE7910D00B5940D0071990D0069
:1095AC0030B585B004460D4668461146FFF7C9FD37
:1095BC007CB124B228460DB101F01CFA029002A92C
:1095CC006846ADF80C40FFF71FFE02A8FFF77EFDC2
:1095DC001DE000988DF808404FF00102D0E84F3F95
:1095EC00A34203D1C0E8412F0029F7D102D08DF856
:1095FC0008300CE010F10C014FF0010318BF03739D
:10960C00BFF35F8F043000F8033CFFF771FF01A834
:10961C00FAF7CEFF05B030BD704710B518210446DF
:10962C0000F0EEFF204610BDF0B5037D062B8DB08B
:10963C000E4600F104074FF0000402D000F10805BB
:10964C0018E00CAD394605F8304D2F232A460A2078
:10965C00FCF738FD284601F0E8F933680246DB6870
:10966C002946304698470FE024B12E213046FEF7AC
:10967C0001FC044415F8011D0A223046FEF709FCD2
:10968C00BD420444F0D120460DB0F0BD10B5054BE1
:10969C000446112240F8043B002101F050F9204609
:1096AC0010BD00BF4CBD0D000346074A10B543F872
:1096BC00042B01F1100251F8044B43F8044B914276
:1096CC00F9D10A781A7010BD4CBD0D00037D042B26
:1096DC0001D1406808E0062B0AD1436853B983686E
:1096EC0043B9C36833B90069003018BF0120704713
:1096FC00002070470120704710B59DF8084044EADF
:10970C00032343EA024242EA0161042341600375E8
:10971C0010BD37B50D788B784A78C97800912946F9
:10972C00FFF7EAFF03B030BD10B5034B03600446EE
:10973C00FFF7EFFF204610BD4CBD0D004174704784
:10974C00704708B50021007CFCF77CFD30EA200056
:10975C0028BF4FF0FF3008BD08B50121007CFCF795
:10976C0071FD30EA200028BF4FF0FF3008BD08B56E
:10977C00007CFCF75FFD20EAE07008BD08B5007CBA
:10978C00FCF750FD20EAE07008BD007CFCF76ABDD8
:10979C0010B51421044600F033FF204610BD38B537
:1097AC000446007C0D46FCF745FD002801DC607C7E
:1097BC0028B12946207CFCF74DFD20EAE07038BD2D
:1097CC0010B50446002363604FF47A73A360054B15
:1097DC00236001230846217463741146FCF70AFDCB
:1097EC00204610BD60BD0D000022007CFCF70ABDB8
:1097FC00007CFCF70FBD10B514220446002101F0CB
:10980C009EF8204610BD000030B50E4D87B001A863
:10981C00FFF7F1FF296811F0010410D12846FAF77F
:10982C0047FC60B101AA21460748FFF7C9FF28464B
:10983C00FAF743FC054A0649034800F0D4FE0248F7
:10984C0007B030BD2CE4032030E40320D4D803202F
:10985C004D970D0070474174704708B5007CFCF7BC
:10986C0081FC20EAE07008BD08B5007CFCF75AFCCE
:10987C0020EAE07008BD08B5007CFCF763FC30EA18
:10988C00200028BF4FF0FF3008BD08B5007CFCF766
:10989C0051FC30EA200028BF4FF0FF3008BD007C9F
:1098AC00FCF758BC10B51421044600F0A9FE204664
:1098BC0010BD70B5457C04460E4625B9007CFCF7FE
:1098CC0051FC002805DD3146207CBDE87040FCF7DA
:1098DC0021BC284670BD000010B504460846114650
:1098EC00002262604FF47A72A260054A2260012263
:1098FC00207462741A46FCF7FDFB204610BD00BFB5
:10990C0090BD0D000023007CFCF734BC0022FFF757
:10991C00F9BF007CFCF7F6BB38B50C4D296811F08B
:10992C00010411D12846FAF7C3FB68B1084A094B68
:10993C0009482146FFF7D0FF2846FAF7BEFB074A35
:10994C000749054800F04FFE034838BDDCE403200E
:10995C00E0E4032058E4032044E40320D4D803209B
:10996C0061980D0010B5836804460BB900F059FEE0
:10997C00C3689847A3681BB1032221462046984729
:10998C0020461021BDE8104000F03ABE00221146DE
:10999C004068FCF7FBBC002211464068FCF706BD92
:1099AC0000224068FCF7FABC002281F001014068FB
:1099BC00FCF7E4BC00231A4601214068FCF7D6BC36
:1099CC0000231A4619464068FCF7C8BC0022114611
:1099DC004068FCF7BBBC002211464068FCF7A6BCF3
:1099EC00002202214068FCF7A9BC00231A464068FB
:1099FC00FCF794BC38B5054688B104684CB1A36833
:109A0C001BB103222146204698471021204600F026
:109A1C00F7FD28461421BDE8384000F0F1BD38BDF3
:109A2C0010B103685B681847704710B503680446AB
:109A3C00BBB15868FCF70EFB78B923685A7C12B995
:109A4C005868FCF70FFB23685868FCF713FB206879
:109A5C000023236028B1FFF7CDFF206808B1FFF782
:109A6C00C9FF204610BD38B50446D0F8C40108B172
:109A7C00FAF711FBD4F8C00108B1FCF70BFBD4F8D2
:109A8C00BC5135B12846FFF7D0FF0421284600F021
:109A9C00B7FD206808B1FFF7C3FF204638BD0000B2
:109AAC0010B5044B044640F8083BFFF7DCFF20469A
:109ABC0010BD00BFC0BD0D0038B50E4C0E4B236061
:109ACC000025022304F5E4706360A560C4F8C4515A
