:02000002D0002C
:1040000000400D0000C10D00000006000C0005017D
:084010000401E80500000000B6
:0440180064AA0D0089
:10401C0009480A49884208B505D0094A824202D0AB
:10402C00121A06F0CCFB0748074A0021121A06F0B8
:10403C00ECFB014808BD00BF30D8032044C00D0084
:10404C00C4D80320C4D80320F0E7032070B505F0D2
:10405C0033FA074C074BE41AA40800251E46A54268
:10406C0004D056F8253098470135F8E770BD00BFED
:10407C003CC00D00FCBF0D0000F030B908B500F0DD
:10408C0029FBBDE8084005F0D9B902F06BBB02F082
:10409C0069BB02F06FBB02F06DBB000008B5034AB0
:1040AC0000210C2002F09AFAFEE700BF65620D00B9
:1040BC000078B0FA80F04009704701230370704714
:1040CC007047006A0368DB68184710B5044600683F
:1040DC0008B102F04FFB204610BD10B50446006835
:1040EC0008B1FFF7D6FF204610BD00000A4B10B5F3
:1040FC000446036004F07CFA214604F069FC05F0E8
:10410C00FFFA05F0F1FA2046044B40F8043B04F0AA
:10411C0065FB204610BD00BF98AA0D0080AA0D00BB
:10412C0010B50446FFF7E2FF2046242106F0D0F933
:10413C00204610BD0EB400B58CB00DAA202352F849
:10414C00041B03928DE8060004930168002304AA63
:10415C001E20059302F052FA0CB05DF804EB03B08C
:10416C007047000070B50B4E0021044603463246E2
:10417C00084602F00FFB451C284602F0F3FA3246C3
:10418C002946234602F006FB224603490348FFF763
:10419C00D1FF70BDACAA0D00C5AA0D000CE4032024
:1041AC0008B502460B4602480249FFF7C3FF08BD9B
:1041BC000CE40320DFAA0D0010B590F9004004496F
:1041CC0004482246FFF7B6FF034B1C7010BD00BF1E
:1041DC00F6AA0D000CE4032044D8032010B5047893
:1041EC00034904482246FFF7A5FF034B1C7010BD82
:1041FC0021AB0D000CE4032031D8032013B5038848
:10420C00ADF80630BDF80640044905482246FFF7D4
:10421C0091FF044B1C8002B010BD00BF3BAB0D00E6
:10422C000CE4032046D8032013B50388ADF8063000
:10423C00BDF90640044905482246FFF77BFF044BB5
:10424C001C7002B010BD00BF58AB0D000CE4032075
:10425C004DD8032008B5034990F900200248FFF718
:10426C0069FF08BD6DAB0D000CE4032007B5038896
:10427C00ADF80630BDF8062003490448FFF75AFF95
:10428C0003B05DF804FB00BF87AB0D000CE403200A
:10429C0010B504780B4B0C490C481C702246FFF7E8
:1042AC0049FF0CB90A4902E0012C04D1094907481D
:1042BC00FFF740FF10BD224607490448FFF73AFFBD
:1042CC0010BD00BF80D90320A4AB0D000CE403206B
:1042DC00C2AB0D00DBAB0D00F6AB0D0030B53B4CAB
:1042EC003B4D606800238BB01A46194602F0EAF980
:1042FC0000231A461946606802F0C4F9354936485D
:10430C0001F06AFF3349344801F068FF3149324803
:10431C0001F066FF3149304801F064FF304B1868FA
:10432C0009900FCD6C460FC495E80F0084E80F0080
:10433C002C4B294840F25B7209A901F027FF28B1E8
:10434C0041F28831244801F077FD08B9264909E08B
:10435C000023019300932549254A1F480B2301F0A4
:10436C00BDFB24492448FFF7E5FE0AA8012200F80A
:10437C00052D41F6C67102F0E9F803F097F803F049
:10438C00DBF800221D491E4802F0C2FF00221D4925
:10439C001D4802F0BDFF00221C491D4802F0B8FF69
:1043AC0000221C491C4802F0B3FF00221B491C4888
:1043BC0002F0AEFF00221B491B4802F0A9FF0022AD
:1043CC001A491B4802F0A4FF0BB030BD38E703209C
:1043DC00B4B00D0071410D00F0D80320AD410D00BB
:1043EC00A8AA0D003EAC0D004FAC0D0092AC0D0018
:1043FC0086AC0D00A2AC0D000CE40320C5410D00F1
:10440C0070D90320E9410D0098E3032035420D00DB
:10441C00DCD8032009420D0078D9032061420D003D
:10442C006CE3032079420D005CE303209D420D00F8
:10443C0064E30320F0B52D4E2D492E4885B002AF14
:10444C00FFF778FE736834681C1BA41064000934F1
:10445C00A4B2E31D23F00703ADEB030D04F076FFCC
:10446C0007F10803864643F8040D1868224B0290A6
:10447C0002AD1B882B71214B1A78214B1B689A4279
:10448C00CCBF012300236B711E4B1B78AB711E4BF1
:10449C001B78EB711D4B1A782A7205F1090C00225E
:1044AC0031687068401AB2EBA00F0CD251F82200A0
:1044BC0007F10801CEEB000021F8060D09882CF855
:1044CC00021B0132ECE7094A5160114A127802B121
:1044DC0001221A700023019300932A4623460D49AA
:1044EC000D4801F0FBFA0C37BD46F0BDACE30320E0
:1044FC00DAAC0D000CE4032046D803204DD8032081
:10450C003CD8032044D8032031D803204CD80320B6
:10451C00A8E3032004AD0D00F0D8032070B50468A7
:10452C0043681426054606FB0346A64204D02046E3
:10453C0002F0B0F91434F8E7286802F01BF92846A9
:10454C0070BD8842F8B506460C46154616D9904201
:10455C0015D2A2F114056C1AA1F114070444AF4250
:10456C001CD02CB12946204602F084F92B7C2374F4
:10457C00284602F08FF9143D143CF0E70ED0AC4203
:10458C000CD02EB12146304602F074F9237C3374E2
:10459C00204602F07FF914341436F0E7F8BD2DE90B
:1045AC00F04100230360436083604E689E420446E2
:1045BC000F4624DD4FF0140808FB06F002F0D2F889
:1045CC000546E0B194E8060008FB0212FFF7B9FFBC
:1045DC00206802F0CFF82560A6603E687B6808FB77
:1045EC000368464509D02DB13146284602F0BBF987
:1045FC00337C2B7414361435F3E77B6863602046E8
:10460C00BDE8F0812DE9F843436804681C1BA41035
:10461C0014BF23460123E4180646894602D2B4F19E
:10462C00804F25D36FF04044A000FFF72EFD0746C6
:10463C00D6F800807568D9F80030C8EB0505EF4254
:10464C0018BF7B51AB0804D02A464146384606F0C9
:10465C00C1F804353D44B8F1000F02D04046FFF7D5
:10466C0018FD07EB840437607560B460BDE8F8830F
:10467C00002CD9D12746DBE713B5134C237813B1A3
:10468C000023019301E00122019204220DEB0201AF
:10469C000E4802F09BFD04F059FE0D4B01909968F9
:1046AC005A688A42194605D002B110604B6804332F
:1046BC004B6003E001A91846FFF7A4FF237883F0B1
:1046CC000103237002B010BDA8E3032058D90320C6
:1046DC00ACE303202DE9F041994896B002F086FE38
:1046EC0028B1984802F082FE002840F0DA80964902
:1046FC009648974FFFF71EFD02F0D8FE1E229449F4
:10470C0002F02AFF00250646B54280F2C1805424EF
:10471C006C430CA802F09AFA04F1080001220CA9CF
:10472C00384402F0F9FC8B4980468848FFF702FDBB
:10473C003C44894911A802F0F4F80022214608A84B
:10474C0002F073FA08A911A802F040F901687F4839
:10475C00FFF7F0FC08A802F09DF811A802F09AF8F7
:10476C007E4911A802F0DDF800220CA908A802F07D
:10477C00FDFB08A911A802F029F901687348FFF79D
:10478C00D9FC08A802F086F811A802F083F8744945
:10479C0011A802F0C6F80022724908A802F0E6FB44
:1047AC0008A911A802F012F901686848FFF7C2FCC9
:1047BC0008A802F06FF811A802F06CF86A4911A869
:1047CC0002F0AFF80022694908A802F0CFFB08A953
:1047DC0011A802F0FBF801685C48FFF7ABFC08A8D5
:1047EC0002F058F811A802F055F8B8F1000F4DD0AE
:1047FC005C490CA802F0CAFA002800F02D8153483D
:10480C005B49FFF797FC4E4802F0F0FD002840F0A2
:10481C001C8102F04BFE01232246014611A803F035
:10482C0059FB11A9464802F0D0FF11A802F0F0FE86
:10483C00434802F0DBFD002800F005814D49434858
:10484C00FFF778FC4C4911A802F016FB11AA4B4952
:10485C003B4802F096FF4A4911A802F00DFB11AA41
:10486C004849374802F08DFF474911A802F004FB74
:10487C0011AA4649324802F084FF454911A802F0BA
:10488C00FBFA44492E4811AA02F07BFF01353BE7A5
:10489C00002E40F32E8132463F492C48FFF74AFC4C
:1048AC0027E101F0E1FC3D4A3D4B117818601446BC
:1048BC001D46C1B93B4B1A883B4B1B689A4212DA16
:1048CC003A4B1A783A4B1B689A420CDD394B93F9E8
:1048DC000020394B1B689A4205DD384B93F90030A8
:1048EC000BB9FFF7C9FE2378BBB1344B93F90030F9
:1048FC00012B10D0324B1B78502B0CD8294B1A881B
:10490C00304B1B689A4206DC2F4B93F900202F4B3F
:10491C001B689A4201DDFFF7AFFE2D4A2968136828
:10492C0043F69720CB1A834240F2E380294811606A
:10493C0000F085FA0646002850D0274974E000BFE5
:10494C00A0E3032064D903202CB00D000CE4032059
:10495C0084D90320C0AD0D00DAAD0D00E4AD0D001F
:10496C00F1AD0D0044D9032004AE0D00C8D80320CE
:10497C003DB00D0017AE0D0040AE0D0070D90320F8
:10498C0065AE0D0098E303208AAE0D00DCD8032041
:10499C00AFAE0D0078D903201BB00D00A8E30320A7
:1049AC0060D9032046D8032040D803204DD80320DB
:1049BC003CD8032044D8032034D8032080D90320CA
:1049CC0030D8032048D8032031D8032038D803200E
:1049DC006CD90320F0D803201BAD0D004649474885
:1049EC00474DFFF7A7FB474B186811900FCD6C464E
:1049FC000FC495E80F0084E80F00434B434840F286
:104A0C005B7211A901F0C2FBD8B141F288313F4869
:104A1C0001F012FAA8B13E49019600960B233D4ACB
:104A2C003A4801F05BF83C493448FFF783FBFFF749
:104A3C0001FD08B1394900E039493048FFF77AFBEC
:104A4C0057E03849F0E7384902E0384900E0384986
:104A5C002A48FFF76FFB19E736490CA802F096F9C4
:104A6C0000283FF413AF25483349FFF763FB334865
:104A7C0002F0BCFC00283AD102F018FD01232246BA
:104A8C00014611A803F026FA11A92C4802F09DFE4C
:104A9C0011A802F0BDFD294802F0A8FC0028D6D0D0
:104AAC0027491648FFF746FB264911A802F0E4F9FE
:104ABC0011AA2549214802F064FE244911A802F0EC
:104ACC00DBF911AA22491D4802F05BFE214911A80D
:104ADC0002F0D2F911AA2049184802F052FE1F49DF
:104AEC0011A802F0C9F911AA1D491448CCE61D49B8
:104AFC00AEE716B0BDE8F08148AD0D000CE4032024
:104B0C00B4B00D00A8AA0D003EAC0D00F0D80320E7
:104B1C0092AC0D0086AC0D00A2AC0D0078AD0D0072
:104B2C009EAD0D004FAC0D00D4AE0D00F8AE0D00D7
:104B3C00D6AF0D00C8D8032052B00D0064D90320A5
:104B4C0019AF0D0042AF0D006CE3032067AF0D00F1
:104B5C005CE303208CAF0D0064E30320B1AF0D00C8
:104B6C0058D90320FAAF0D0070B5694D8CB001F027
:104B7C005BFB00244FF6FF736B812C60AC80AC7137
:104B8C002C81022001F05AFD624A6349284605F047
:104B9C0092FC00940194029404F0B2FD694606461E
:104BAC0003A85E4DFFF7FBFC03A906A8FFF7F7FC73
:104BBC005B4B2B6006A909A8FFF7F1FC09AA0121A0
:104BCC00281D04F06CF809A8FFF7A8FC06A8FFF74D
:104BDC00A5FC544B2B602E6203A8FFF79FFC524B95
:104BEC002B6004F08DFD4FF4165104F079FD03F0A9
:104BFC00FFFC294603F0E6FF6846FFF78FFC454AA9
:104C0C004A49284605F057FC4948424A494904603C
:104C1C004460846005F04FFC4748484D02F052FD5B
:104C2C003C4A4749444805F046FC464802F04AFDD8
:104C3C00384A4349434805F03EFC4349434802F097
:104C4C001BF94349434802F017F9434803F0A6F90E
:104C5C00304A4249404805F02EFC414803F09EF989
:104C6C002C4A3E493E4805F026FC3E4803F096F996
:104C7C00284A3A493B4805F01EFC3B4803F08EF9A4
:104C8C00244A3649384805F016FC384803F086F9B2
:104C9C00204A3249354805F00EFC354803F07EF9C0
:104CAC001C4A2E49324805F006FC324803F076F9CE
:104CBC00184A2A492F4805F0FEFB2F4803F06EF9DD
:104CCC00144A26492C4805F0F6FB40F6D81628194C
:104CDC0001F03CFF04F10800284402F0C6F904F18D
:104CEC002C002844543402F0C0F9B442EFD14FF4F4
:104CFC008071224800F080F8064A21491F4805F0CF
:104D0C00DAFB01F0B1FA1F4B18600CB070BD00BF9C
:104D1C00E4D80320C4D80320D7400D0074E303204B
:104D2C0080AA0D0074BC0D0098AA0D00F9400D006E
:104D3C00ACE30320E7400D00A0E3032084D903205B
:104D4C001D760D0064D9032067B00D0044D90320F3
:104D5C008CB00D00C8D8032070D903200F760D003D
:104D6C0098E30320DCD8032078D903206CE30320DC
:104D7C005CE3032064E3032058D90320F0D803201C
:104D8C00F5610D006CD9032001F04EBA08B54068EE
:104D9C0003681B6B9847003018BF012008BD10B585
:104DAC008AB08DE80C000C46202102910021039161
:104DBC000B4602AA0168204601F020FC0AB010BD87
:104DCC000EB403B503AB012153F8042B0193FFF789
:104DDC00E6FF02B05DF804EB03B070470EB403B508
:104DEC0003AB282153F8042B0193FFF7D8FF02B033
:104DFC005DF804EB03B0704738B50C4B03600A2226
:104E0C00002380F8283080F82E2003638185044627
:104E1C001C20FFF73AF9054608B105F087F86560E4
:104E2C00A08DFFF734F9A060204638BDE8B00D0026
:104E3C0090F828300BB1FFF7A9BF1846704710B592
:104E4C000446FFF7F5FF20B92046BDE81040FFF7F8
:104E5C009DBF002010BD10B590F8344054B1036BC9
:104E6C0043B10022A24205DA33F81200884203D083
:104E7C000132F7E7002010BD012010BDF8B590F805
:104E8C00346090F82E30B34204460DD9056B6DB1E9
:104E9C00FFF7E1FF58B925F8161094F834300133B8
:104EAC0084F834300120F8BD0020F8BD2846F8BD48
:104EBC00002370B513800524012586680B88F35CEC
:104ECC00168803F07F0313FB05F33344013C138076
:104EDC0007D10B8801330B800749FFF77FFF204672
:104EEC0070BD0B888668F6560133002E4FEAC51547
:104EFC000B80E2DB012070BDF1B00D0070B51D46DA
:104F0C000C460B888168164619442A46304605F033
:104F1C0056FC002373552288AB18238070BD0B8878
:104F2C008268D05C1A44023352780B8042EA00202B
:104F3C0070470000F0B585B004A91D4621F8022D7C
:104F4C0004469DF82870FFF7EAFF022D1FBFBDF83D
:104F5C000E30A268591CADF80E1018BFD55C0E4966
:104F6C000E4A08BF002506460346002F18BF0A4606
:104F7C0000950B492046FFF7DDF825B1636C43B172
:104F8C002846984705E0236C1BB187F00101304699
:104F9C00984705B0F0BD00BF11B10D0015B10D0063
:104FAC0019B10D0037B502A91D4621F8022D044692
:104FBC00FFF7B5FF022D1CBFBDF80630A1680246F5
:104FCC001EBF581CADF80600CB5C044908BF00237B
:104FDC002046FFF7AFF803B030BD00BF4BB10D005A
:104FEC002DE9FF4104A9044621F8022D1E46FFF7C6
:104FFC0096FFBDF80E20A368511CADF80E1080462C
:10500C00985C10B90125023E14E0A36CDBB1984703
:10501C0019E0BDF80E30A268591CADF80E10D75C23
:10502C0000972B46424609492046FFF783F8022F8A
:10503C0003D80135B542ECDB05E0A36C002BF8D0AE
:10504C0038469847F5E704B0BDE8F08183B10D0010
:10505C002DE9FF4104A9044621F8022D1E46FFF755
:10506C005EFFBDF80E20A368511CADF80E108046F3
:10507C00985C10B90125023E14E0E36CDBB1984753
:10508C0019E0BDF80E30A268591CADF80E10D75CB3
:10509C0000972B46424609492046FFF74BF8022F52
:1050AC0003D80135B542ECDB05E0E36C002BF8D0FE
:1050BC0038469847F5E704B0BDE8F081D5B10D004E
:1050CC0010B50C888368185D23440434DA7842EAFE
:1050DC000062587842EA004298780C8042EA00203C
:1050EC0010BD0000F8B5113900AF0446154619295A
:1050FC0000F2C580DFE801F00D307AC3A7BEC3C350
:10510C00C381C394C3C350C31343C31C23632A6515
:10511C006C731146FFF7D4FF5B49024604E011465D
:10512C00FFF7FDFE594902462046FFF749FEA9E06C
:10513C002B888268591C2980D25C5549F4E72B884E
:10514C008268591C2980D25C5249EDE71146FFF761
:10515C00B7FF51490246E7E71146FFF7E0FE00F1C1
:10516C00080222F007026E46ADEB020D03466A46BA
:10517C0029462046FFF7C2FE6A46484975E01146AB
:10518C0090F82E60FFF7CBFE8642324628BF0246CF
:10519C0084F82E204249C7E71146FFF7C0FE00F104
:1051AC00080222F007026E46ADEB020D03466A467A
:1051BC0029462046FFF7A2FE6A463A4955E03A498D
:1051CC0059E02B888268591C2980D25C3749ABE79F
:1051DC002B888268591C2980D25C3549A4E72B881E
:1051EC008268591C2980D25C32499DE71146FFF731
:1051FC0096FE3149E084024696E71146FFF78FFE92
:10520C0000F1080222F007026E46ADEB020D0346D8
:10521C006A4629462046FFF771FE6A46274924E074
:10522C001146FFF77CFE00F1080222F007026E46E1
:10523C00ADEB020D03466A4629462046FFF75EFE9B
:10524C006A461F4911E01146FFF769FE00F108029A
:10525C0022F007026E46ADEB020D03466A46294664
:10526C002046FFF74BFE17496A462046FFF7A8FD7C
:10527C00B54607E014492046FFF7A2FD02E01349AA
:10528C00FFF7ACFDBD46F8BD29B20D0046B20D00CE
:10529C005AB20D006AB20D007FB20D0098B20D002B
:1052AC00B7B20D00CFB20D00E1B20D00EFB20D00A0
:1052BC0013B30D003AB30D005CB30D0072B30D00C7
:1052CC008BB30D00A0B30D00BAB30D00CEB30D001F
:1052DC00F8B5082900AF0446154629D00CD8022988
:1052EC0017D003293BD0012950D12B888268591C37
:1052FC002980D25C284912E00B292CD003D809292B
:10530C0044D1264928E023290CD026293ED1244912
:10531C0022E01146FFF7D4FE224902462046FFF751
:10532C004FFD37E01146FFF7FAFD1F490246F5E73E
:10533C001146FFF7F4FD00F1080222F007026E4659
:10534C00ADEB020D03466A4629462046FFF7D6FD13
:10535C006A46164915E01649FFF732FD1AE0114668
:10536C00FFF7DDFD00F1080222F007026E46ADEBFF
:10537C00020D03466A4629462046FFF7BFFD0D493C
:10538C006A462046FFF71CFDB54603E00A49204655
:10539C00FFF724FDBD46F8BDE7B30D0044B40D0086
:1053AC00E1B20D0004B40D0021B40D0031B40D00B8
:1053BC0055B40D006DB40D007EB40D00F8B5044667
:1053CC00406803680D46DB6817460A46A168984793
:1053DC0086B260680368DB69984700F045FFA061FE
:1053EC0027B194F83530013384F83530AB1B584273
:1053FC005841F8BDF7B5002307460D4616460193F4
:10540C00144602A904F07F0251FA83F1E40918BF93
:10541C0042F0800201F8042C0133002CF1D12988D0
:10542C00BA8D4B1C9819904205DD38460B49FFF795
:10543C00D5FC20460FE0B86832460144184405F00C
:10544C00C9F9BA682B889DF80410D1542A883244C3
:10545C0001322A80012003B0F0BD00BF97B40D00CB
:10546C00F8B50C461D46238811465F19828D01370D
:10547C009742064604DB0D49FFF7B0FC0020F8BD4F
:10548C008268581C20802812D0542388B268581C7B
:10549C002080D5542388B0682A46184405F08FF92B
:1054AC0023881D4425800120F8BD00BF97B40D0052
:1054BC0038B515460B88828D934204DB0549FFF7FE
:1054CC008DFC002038BD80685A1C0A80C554012010
:1054DC0038BD00BF97B40D0073B502AD002625F89A
:1054EC00026DC02229460446FFF7E2FF08B90020EE
:1054FC0013E0324629462046FFF7DAFF0028F6D0A3
:10550C0007492046FEF716FE00F0AEFE324620623A
:10551C00BDF806102046FFF751FF02B070BD00BF6A
:10552C00B9B40D00F7B502AC002624F8026D0F4695
:10553C00E02221460546FFF7BBFF08B9002025E015
:10554C003A4621462846FFF7B3FF0028F6D03246EC
:10555C0021462846FFF74EFF0028EFD0BDF8062065
:10556C00013A012692B221462846ADF80660FFF7B3
:10557C0041FF0028E2D03A4605492846FEF7DAFDFD
:10558C003246BDF806102846FFF718FF03B0F0BDF1
:10559C00CEB40D00F8B50C461D4623881146828DFD
:1055AC005F19974204DD0749FFF718FC0020F8BD8E
:1055BC0080682A46184405F002F92288AB1823802B
:1055CC000120F8BD97B40D0070B50C88868D651C54
:1055DC00B542034605DB32460749FFF7FFFB0020C7
:1055EC0070BD80680D801512055598680B885C1C81
:1055FC000C80C254012070BD97B40D0073B502AC81
:10560C00002324F8023D0E46402221460546FFF7B2
:10561C004FFF08B900201DE0324621462846FFF70F
:10562C00D3FF0028F6D0BDF80620013A012392B230
:10563C0021462846ADF80630FFF7DCFE20B932468D
:10564C0005492846FEF776FD0022BDF806102846CF
:10565C00FFF7B4FE02B070BDF0B40D0073B502AC30
:10566C00002324F8023D0E46502221460546FFF742
:10567C001FFF08B900201DE0324621462846FFF7DF
:10568C00A3FF0028F6D0BDF80620013A012392B200
:10569C0021462846ADF80630FFF7ACFE20B932465D
:1056AC0005492846FEF746FD0022BDF8061028469F
:1056BC00FFF784FE02B070BD12B50D002DE9F04F5E
:1056CC0089B002AF07F11805C1F3410625F80A2D80
:1056DC008A46294604469B46BA60FFF720FC00F137
:1056EC00080222F00702ADEB020D0DF1080903468A
:1056FC004A4629462046FFF701FC2EB12946204692
:10570C00FFF70DFC804600E0B04607F11602294673
:10571C002046FFF7CDFB08B1FB8A83BBBB68FA8937
:10572C005B449B1A3EB100934A4643461E492046B1
:10573C00FEF700FD04E04A461C492046FEF7FAFC41
:10574C00256D75B1F889BB68A16800961A1A5A4480
:10575C000AF0010301930144CAF3C00392B2484614
:10576C00A847012E04D141462046FFF747FF17E01A
:10577C00022E15D141462046FFF770FF10E0FB8941
:10578C00F989FA8A7B60C81A9042C7DAA0684A1C69
:10579C00FA81415C2A462046FFF79AFD7B68EFE7C9
:1057AC001C37BD46BDE8F08F34B50D006AB50D0051
:1057BC0073B502AC002324F8023D0E46702221463C
:1057CC000546FFF775FE08B900201DE0324621465C
:1057DC002846FFF7F9FE0028F6D0BDF80620013A5E
:1057EC00012392B221462846ADF80630FFF702FE9F
:1057FC0020B9324605492846FEF79CFC0022BDF82C
:10580C0006102846FFF7DAFD02B070BD96B50D0004
:10581C0073B502A91D4621F8022D0446FFF77FFB44
:10582C00022D1FBFBDF80630A268591CADF806103A
:10583C0018BFD55C074908BF0025064602462B4613
:10584C002046FEF777FC1DB931462046FFF7B0FF26
:10585C0002B070BDB9B50D0070B50C88858DE61C15
:10586C00AE42034605DB2A460E49FFF7B7FA002085
:10587C0070BD8068651C0D80150E055508889C68E8
:10588C00451C0D80150C255408889C68451C0D8002
:10589C00150A255498680B885C1C0C80C254012096
:1058AC0070BD00BF97B40D002DE9F04F89B099463B
:1058BC009DF8583004931A9B059204460E469DF8A9
:1058CC004CA0BDF86050DDF864800393FFF7B7FA85
:1058DC0008B90020F6E09DF848209DF8503008AF3C
:1058EC004FF0000B42F0300227F804BD42EA4A02A6
:1058FC0042EAC302D2B239462046FFF7D9FD00284E
:10590C00E7D07DB129462046FFF7A5FA50B12A46CB
:10591C0020466E49FEF70EFC5A4639462046FFF7E4
:10592C0053FE08E0304604F0CBFF324683B207A9A1
:10593C002046FFF795FD0028CBD0BAF1000F06D119
:10594C00BDF81C30ADF81E30049B7BB92EE0159BC6
:10595C0013B1159A638D1380628D531C638507A94F
:10596C002046FFF731FE0028EAD1B2E701220DF103
:10597C001E012046FFF79CFD0028AAD001220DF144
:10598C001E012046FFF794FD0028A2D002220DF143
:10599C001E012046FFF78CFD00289AD0179A0DF1B6
:1059AC001E012046FFF758FF002892D07DB123221C
:1059BC000DF11E012046FFF77BFD002889D02A46F9
:1059CC000DF11E012046FFF7FFFD002881D0B8F134
:1059DC00000F15D008220DF11E012046FFF768FDBF
:1059EC0000283FF476AF404604F06AFF424683B28B
:1059FC000DF11E012046FFF733FD00283FF469AF7F
:105A0C00039B9BB109220DF11E012046FFF750FDAF
:105A1C0000283FF45EAFBDF86C30039A0DF11E0107
:105A2C002046FFF7B7FD00283FF453AF08AFBDF891
:105A3C001E3037F8042D9A1A92B239462046FFF7D9
:105A4C00D9FC00283FF445AF4B46059A3946204611
:105A5C00FFF7A0FD00283FF43CAFBDF81C20013A35
:105A6C00012392B239462046ADF81C30FFF7C2FC38
:105A7C0000283FF42EAFBAF1000F09D0628DCDF89B
:105A8C0000903346013A12492046FEF753FB05E0DD
:105A9C004B4632460F492046FEF74CFB25B12946B2
:105AAC002046FFF7EBF930B90122BDF81C10204657
:105ABC00FFF784FC06E02B46324607492046FEF7EA
:105ACC0039FBF1E709B0BDE8F08F00BFDBB60D0084
:105ADC0076B60D00AEB60D00F0B60D00F0B5124D59
:105AEC0096469C4606460F460FCD91B00AAC0FC4A5
:105AFC0095E803000AAD84E803000FCD04AC0FC495
:105B0C0095E8030084E80300179B9DF85820039345
:105B1C000023029301920093724663463946304645
:105B2C00FFF7C2FE11B0F0BD10B90D0010B5044660
:105B3C00006B00F01FFE00236068236384F8343090
:105B4C0084F8283084F835300368BDE81040DB6AEF
:105B5C00184700007FB5002380F82830531C81685B
:105B6C009BB2ADF806308E5C0232ADF80620CD5CEF
:105B7C00044605BB0DF10E020DF10601FFF798F975
:105B8C0010B1BDF80E3013BB94F82E000123002584
:105B9C0063859840256284F8245000F0E3FD84F876
:105BAC003450206315492046FEF7C4FAA36B13B397
:105BBC0006F0010009E0FFF7B9FF2A46104920461C
:105BCC00FEF7B8FAE36BB3B12846984713E0BDF87B
:105BDC000650BDF80630BDF80E20591B9142D3DAA1
:105BEC005A1CA168ADF80620C95C0DF106022046CE
:105BFC00FFF778FAEDE704B070BD00BF12B70D00E7
:105C0C0029B70D0010B5044613B183689A5C00E007
:105C1C001A4620460349FEF78DFA2046BDE810408F
:105C2C00FFF784BF47B70D0070B50C46A51E114693
:105C3C001A46BDF810300C2D31D8DFE805F0070BF3
:105C4C000F0F171B301F302330272C00BDE870407E
:105C5C00FFF780BFBDE87040FFF730BD251F6C42D9
:105C6C006C410494BDE87040FFF764B9BDE8704026
:105C7C00FFF7CEBDBDE87040FFF794B9BDE87040AA
:105C8C00FFF7AEB9BDE87040FFF7E2B9002303623D
:105C9C0080F8243070BDBDE87040FFF7B3BF2246DA
:105CAC000149FEF747FA70BD78B70D007FB5044681
:105CBC00FFF7BEF828B3606803681B6B984705466E
:105CCC0038B92046FFF732FF55492046FEF732FA25
:105CDC00A2E000F0C9FAA369E28CC01A4FF47A73FF
:105CEC00534398420DD92046FFF720FF4D492046DB
:105CFC00FEF720FAE36B002B00F08D808020984794
:105D0C0089E0606803681B699847002843D000F05D
:105D1C00ABFAE0616068A28D0368A1689B6A984742
:105D2C0004AA00250646012322F8025D03A9204699
:105D3C00ADF80C30FFF7BCF858B3BDF80E30BDF819
:105D4C000C20B6B21A44964201D037495FE0A268E3
:105D5C00127812110D2AD5B209D0032A07D00E2DB4
:105D6C001EBF94F8351001F1FF3184F83510204630
:105D7C002E49FFF725F8A268BDF80E101278BDF871
:105D8C000C30009102F00F0229462046FFF74CFF21
:105D9C0042E0054640E02046FFF751F800283AD093
:105DAC0000F062FAE369C01AE38C4FF47A756B4326
:105DBC00984207D200F058FAA369C01AE38C5D43ED
:105DCC00A84209D3236A4BB92046FFF785FB18B9C3
:105DDC0017492046FFF702F8236AE3B100F044FAB2
:105DEC00236AC01A40F6B733984214D994F8243079
:105DFC00012B10D8013384F824300E492046FEF7CD
:105E0C0099F92046FFF768FB054620B9084920465A
:105E1C00FEF7E4FF00E00025284604B070BD00BF8B
:105E2C0096B70D00A4B70D00B6B70D00CAB70D009C
:105E3C00F1B70D0008B80D0070B504460E4600F021
:105E4C0013FA0E4905462046FEF7BAFF00F00CFA8D
:105E5C00401BB0420CD22046FFF728FF94F8353097
:105E6C00002BF3D120460649FEF7AAFF012070BD96
:105E7C0020460449FEF7A4FF002070BD3FB80D007A
:105E8C0051B80D006AB80D0082B02DE9F04F8FB0FB
:105E9C000446059118A981E80C001B9B1A9F0493DA
:105EAC00DDF87490DDF878801F9DFEF7C1FF824607
:105EBC00002840F05B81BDF86430E3842046FEF797
:105ECC00BEFF0646002840F04D812169012384F86D
:105EDC002830A38A69B9E268A7492046FEF72AF957
:105EEC006068A28A0368E168D3F824A03346D047DF
:105EFC001AE048780A780293CB7801938B78009358
:105F0C009E4903462046FEF715F9D4F804A02169F2
:105F1C00DAF8003008A8D3F820B003F081FB334640
:105F2C00A28A08A95046D847003018BF012020B9D2
:105F3C0093492046FEF7FEF80CE00DF1380A0023D9
:105F4C002AF81A3D84F83530102251462046FFF7C6
:105F5C00AFFA18B92046FFF7E9FD01E10423894A9D
:105F6C0051462046FFF77CFA0028F3D00522514613
:105F7C002046FFF79DFA0028ECD09DF861109DF8A3
:105F8C006230B9F1000F4FEAC10114BF6FF07F020C
:105F9C00002241EA4311B8F1000F14BF4FF0400E3C
:105FAC004FF0000E49B227B1049B181C18BF0120FA
:105FBC0000E038469DF8603041EA430313434EEA53
:105FCC00030242EA800202F0FE0251462046FFF72D
:105FDC006FFA0028BED0E28C51462046FFF7F4FA47
:105FEC000028B7D0BDF81E30ADF82030002D4AD0B7
:105FFC002B686BB1112208A92046FFF759FA00282B
:10600C00A8D02A6808A92046FFF726FC0028A1D0B2
:10601C00AB886BB1212208A92046FFF749FA00286A
:10602C0098D0AA8808A92046FFF7CEFA002891D06C
:10603C00D5F808B0BBF1000F04D1B4F82CB0BBF10B
:10604C00000F0ED0272208A92046FFF731FA0028AE
:10605C0080D05A4608A92046FFF7FEFB00283FF4E3
:10606C0079AFAB897BB1222208A92046FFF720FA31
:10607C0000283FF46FAFAA8908A92046FFF7A4FABD
:10608C0000283FF467AFBDF82030BDF81E209A1AE7
:10609C0092B251462046FFF7ADF900283FF45AAFB3
:1060AC00059804F00DFC059A83B251462046FFF783
:1060BC00D7F900283FF44EAFFFB1049BEBB100229F
:1060CC0051462046FFF796F900283FF443AF384677
:1060DC0004F0F6FB3A4683B251462046FFF7C0F96E
:1060EC0000283FF437AFBDF87030049A5146204673
:1060FC00FFF7B6F900283FF42DAFB9F1000F0BD024
:10610C00484604F0DDFB4A4683B251462046FFF771
:10611C00A7F900283FF41EAFB8F1000F0BD0404692
:10612C0004F0CEFB424683B251462046FFF798F965
:10613C0000283FF40FAFBDF81E20013A012592B2A2
:10614C0051462046ADF81E50FFF754F900283FF495
:10615C0001AF2A46BDF81E102046FFF72FF9064660
:10616C00B24603E008492046FDF7E4FF50460FB065
:10617C00BDE8F04F02B070477AB80D009DB80D0025
:10618C00C9B80D00E4B00D00F1B80D00F0B587B042
:10619C001F460EAD00230161C360828206460FCDFF
:1061AC006C460FC495E8030084E803000CAB0CCBE1
:1061BC0039463046FFF768FE07B0F0BD10B504460F
:1061CC00FEF73DFE18B100212046FFF7ABF9204643
:1061DC00BDE81040FFF7AABCC1637047416470472B
:1061EC00816470470165704710B50446FEF727FEC1
:1061FC0028B12046FFF7E2FFA06800F0BBFA20466A
:10620C0010BD00F011B8000008B5024B1B689B686C
:10621C00019308BD6802030008B5024B1B68DB68DC
:10622C00019308BD6802030008B5024B1B681B688C
:10623C00019308BD2C02030008B5024B1B685B6977
:10624C00019308BD6C02030008B5024B1B685B6828
:10625C00019308BD1802030008B5024B1B68DB68EC
:10626C00019308BD1802030008B5024B1B685B695B
:10627C00019308BD1802030008B5024B1B68DB69CB
:10628C00019308BD1802030008B5024B1B689B6DF7
:10629C00019308BD1802030008B5024B1B689B68EC
:1062AC00019308BD7802030008B5024B1B68DB6F35
:1062BC00019308BD7802030008B5034B1B68D3F8A3
:1062CC008430019308BD00007802030008B5034B2D
:1062DC001B68D3F89830019308BD000078020300C6
:1062EC0008B5034B1B68D3F8B430019308BD00000C
:1062FC007802030008B5034B1B68D3F8BC3001933C
:10630C0008BD00007802030008B5034B1B68D3F8E6
:10631C00C430019308BD00007802030008B5034B9C
:10632C001B68D3F8D830019308BD00007802030035
:10633C0008B5034B1B68D3F8DC30019308BD000093
:10634C007802030008B5034B1B68D3F8E0300193C7
:10635C0008BD00007802030008B5034B1B68D3F896
:10636C00E430019308BD00007802030008B5034B2C
:10637C001B68D3F8F030019308BD000078020300CD
:10638C0008B5034B1B68D3F8F430019308BD00002B
:10639C007802030008B5034B1B68D3F80031019356
:1063AC0008BD00007802030008B5034B1B68D3F846
:1063BC000431019308BD00007802030008B5024BBC
:1063CC001B689B68019308BD4802030008B5024B8B
:1063DC001B681B69019308BD4802030008B5024BFA
:1063EC001B685B69019308BD4802030008B5024BAA
:1063FC001B685B6C019308BD4802030008B5024B97
:10640C001B689B6C019308BD4802030008B5024B46
:10641C001B68DB6C019308BD4802030008B5024BF6
:10642C001B685B6D019308BD4802030008B5024B65
:10643C001B685B69019308BD6402030008B5024B3D
:10644C001B681B6A019308BD6402030008B5024B6C
:10645C001B689B6A019308BD6402030008B5024BDC
:10646C001B681B68019308BD3C02030008B5024B76
:10647C001B689B68019308BD3C02030008B5024BE6
:10648C001B68DB68019308BD3C02030008B5024B96
:10649C001B681B69019308BD3C02030008B5024B45
:1064AC001B685B69019308BD3C02030008B5024BF5
:1064BC001B689B69019308BD3C02030008B5024BA5
:1064CC001B68DB69019308BD3C02030008B5024B55
:1064DC001B689B6A019308BD3C02030008B5024B84
:1064EC001B68DB6A019308BD3C02030008B5024B34
:1064FC001B689B69019308BD3802030008B5024B69
:10650C001B68DB69019308BD3802030008B5024B18
:10651C001B681B6A019308BD3802030008B5024BC7
:10652C001B689B6A019308BD3802030008B5024B37
:10653C001B681B6B019308BD3802030008B5024BA6
:10654C001B689B6B019308BD3802030008B5024B16
:10655C001B685B68019308BD5802030008B5024B29
:10656C001B681B68019308BD4C02030008B5024B65
:10657C001B685B68019308BD4C02030008B5024B15
:10658C001B689B68019308BD4C02030008B5024BC5
:10659C001B681B69019308BD4C02030008B5024B34
:1065AC001B685B69019308BD4C02030008B5024BE4
:1065BC001B689B69019308BD4C02030008B5024B94
:1065CC001B68DB69019308BD4C02030008B5024B44
:1065DC001B681B6A019308BD4C02030008B5024BF3
:1065EC001B685B6B019308BD6002030008B5024B8E
:1065FC001B681B6D019308BD6002030008B5024BBC
:10660C001B685B6D019308BD6002030008B5024B6B
:10661C001B68DB6E019308BD6002030008B5024BDA
:10662C001B681B6F019308BD6002030008B5024B89
:10663C001B681B68019308BD2002030008B5024BC0
:10664C001B685B68019308BD2002030008B5024B70
:10665C001B689B6D019308BD2002030008B5034B1A
:10666C001B68D3F88830019308BD0000200203009A
:10667C0008B5034B1B68D3F89430019308BD000098
:10668C002002030008B5024B1B685B68019308BD30
:10669C004002030008B5024B1B689B68019308BDC0
:1066AC004002030008B5024B1B68DB68019308BD70
:1066BC004002030008B5024B1B681B69019308BD1F
:1066CC004002030008B5024B1B685B69019308BDCF
:1066DC004002030008B5024B1B689B69019308BD7F
:1066EC004002030008B5024B1B68DB69019308BD2F
:1066FC004002030008B5024B1B681B6A019308BDDE
:10670C004002030008B5024B1B681B6B019308BDCC
:10671C004002030008B5024B1B685B6B019308BD7C
:10672C004002030008B5024B1B689B68019308BD2F
:10673C004402030008B5024B1B685B69019308BD5A
:10674C004402030008B5024B1B681B6B019308BD88
:10675C004402030008B5024B1B68DB6B019308BDB8
:10676C004402030008B5024B1B681B68019308BD6B
:10677C001C02030008B5024B1B685B68019308BD43
:10678C001C02030008B5024B1B689B68019308BDF3
:10679C001C02030008B5024B1B68DB69019308BDA2
:1067AC001C02030008B5024B1B685B6A019308BD11
:1067BC001C02030008B5024B1B68DB6B019308BD80
:1067CC001C020300002211464068FFF793BF002211
:1067DC0011464068FFF79EBF00224068FFF792BF4A
:1067EC00002281F001014068FFF77CBF00231A46AC
:1067FC0019464068FFF76EBF00231A4619464068D9
:10680C00FFF760BF002211464068FFF753BF00221C
:10681C0011464068FFF73EBF002202214068FFF797
:10682C0041BF00231A464068FFF72CBF024B0322DE
:10683C005A60024A1A607047B8E3032030B90D0061
:10684C0010B5094C00204FF6FF732060A080A0719A
:10685C0020816381FFF7F2FE2046044A0449BDE81B
:10686C00104003F028BE00BFC0E30320C4D80320AF
:10687C00D7400D000023036043608360037310B5A1
:10688C000C6804604C6844608C6884600B604B60DE
:10689C008B6010BD10B504460068FFF76BFF2046F7
:1068AC0010BD10B50446006808B1FFF763FF002364
:1068BC002360A360636010BD38B504460D460068C4
:1068CC000131FFF75FFF10B184E82100012038BDD2
:1068DC0010B50368044613B143688B4207D22046B7
:1068EC00FFF7EAFF20B1A3680BB9226813700120EF
:1068FC0010BD70B50E46114604461546FFF7E8FF6D
:10690C0018B92046FFF7CDFF09E02A463146A560AD
:10691C00206803F054FF2268A3680021D15420465C
:10692C0070BD38B500230446036043608360037375
:10693C000D4639B1084603F0C3FF294602462046EE
:10694C00FFF7D7FF204638BD884210B50B460446EA
:10695C0007D0096819B19A68FFF7CBFF01E0FFF780
:10696C00A0FF204610BD10B5002304460360436011
:10697C0083600373FFF7E8FF204610BD38B505466A
:10698C000C4641B1084603F09BFF214602462846BF
:10699C00FFF7AFFF01E0FFF784FF284638BD70B565
:1069AC0004460E4609B9002070BD6AB18368D5183B
:1069BC002946FFF78DFF0028F5D02068A3683146E3
:1069CC00184403F075FFA560012070BD10B58A68EE
:1069DC0009680446FFF7E3FF10B92046FFF761FF93
:1069EC00204610BD7047002070477047002070474C
:1069FC0070470020704710B51421044603F068FD61
:106A0C00204610BD10B51421044603F061FD20464C
:106A1C0010BD10B51421044603F05AFD204610BDDC
:106A2C00FDF737BBFDF735BBFDF733BB10B504469F
:106A3C00006808B1FFF7E2FC204610BD30B58BB002
:106A4C002023054600240293084B009302AA2346F8
:106A5C00074903940120FFF7C9FD28680549008800
:106A6C0023462A46FFF746FC0BB030BDBBB90D00E0
:106A7C00B0B90D00B5810D0008B50A20024A0021FD
:106A8C00FFF7ACFD08BD00BF65620D0010B50368D3
:106A9C0004469B689847A368013BA3602BB9236805
:106AAC002046DB68BDE81040184710BD70B5931C3C
:106ABC000144884218D00478240904F13005392D9A
:106ACC0088BF04F13705064603F8025C347804F0FD
:106ADC000F0404F13005392D88BF04F1370503F894
:106AEC00015C01300233E4E7104670BDA0F13003C5
:106AFC00DAB2092A01D818467047A0F16103052BB8
:106B0C0001D857387047A0F14103052B94BF373893
:106B1C004FF0FF307047000010B500230370044B9A
:106B2C0004461868FFF772FC01232370204610BD41
:106B3C00D4E3032010B5037804461BB1024B18684C
:106B4C00FFF76CFC204610BDD4E30320002202604A
:106B5C004260704708B582798B799A4206D1062239
:106B6C0003F01EFEB0FA80F0400908BD002008BDFD
:106B7C0001390523C25C01F8012F013BDBB2FF2B6D
:106B8C00F8D1704770B5144688B01D460E460029E2
:106B9C0046D0002A46D001A9FFF7EAFF03AA15B197
:106BAC00062101A82DE0012101A8FFF77FFF3A255E
:106BBC000DF10F0201210DF105008DF80E50FFF7BC
:106BCC0075FF0DF1120201210DF106008DF8115027
:106BDC00FFF76CFF0DF1150201210DF107008DF887
:106BEC001450FFF763FF06AA012102A88DF8175075
:106BFC00FFF75CFF8DF81A500DF11B0201210DF10E
:106C0C000900013CFFF752FF112C28BF112422462A
:106C1C0003A9304603F0D3FD00233355601C02E07A
:106C2C00084600E0104608B070BD10B586B00446AA
:106C3C0013460846122201A9FFF7A4FF01A920461A
:106C4C00FFF76FFE204606B010BD000010B5012303
:106C5C000361054B024603F1100153F8044B42F853
:106C6C00044B8B42F9D110BD50BB0D000B7C13F0C3
:106C7C00FD0330B510D103610D4B024603F1100436
:106C8C0053F8045B42F8045BA342F9D10B880373FD
:106C9C000B881B12437330BD0123036101F11002F9
:106CAC00034651F8044B43F8044B9142F9D130BDE3
:106CBC0050BB0D0010B50B69036101F110020346C6
:106CCC0051F8044B43F8044B9142F9D110BD10B567
:106CDC000B460446B9B1012A09D1034601F1100251
:106CEC0051F8040B43F8040B9142F9D108E0411E12
:106CFC000F22985C01F8010F013AD2B2FF2AF8D1A9
:106D0C000123236102E0102203F07FFD204610BD19
:106D1C0038B504460D46FFF799FF002325732D0A5D
:106D2C0023616573204638BD10B50B69036101F111
:106D3C001002034651F8044B43F8044B9142F9D12D
:106D4C0010BD10B586B00446012201A8FFF7BFFFA5
:106D5C0001A92046FFF7E8FF06B010BD10B586B0BC
:106D6C00044601A8FFF7D4FF01A92046FFF7DCFF7A
:106D7C0006B010BD10B586B0044601A8FFF776FF2B
:106D8C0001A92046FFF7D0FF06B010BD08B5026977
:106D9C000B699A4206D1102203F002FDB0FA80F082
:106DAC00400908BD002008BD0123F7B50361314B34
:106DBC000E460546024603F1100153F8040B42F847
:106DCC00040B8B42F9D1002E51D02421304603F014
:106DDC0094FD042810D0002710242421304603F001
:106DEC008CFDB84201D944BB41E02C440023A542A0
:106DFC003DD004F8013DFAE73078FFF777FE041E2A
:106E0C0018DB7078FFF772FE002813DB40EA0410E1
:106E1C008DF80400B078FFF769FE041E0ADBF078E9
:106E2C00FFF764FE0028A1BF40EA04109DF804306F
:106E3C0028736B7300232B6119E0F05DFFF756FE8E
:106E4C00030612D4013C000128552421304603F0DE
:106E5C0054FD0137874208D2F05DFFF747FE40B280
:106E6C000028A2BF2B5D184328550137B5E703B0A6
:106E7C00F0BD00BF50BB0D0038B504460D46FFF702
:106E8C00E5FE20462946FFF78FFF204638BD013925
:106E9C000F23C25C01F8012F013BDBB2FF2BF8D1B1
:106EAC0070472DE9F04198468EB00D46002957D019
:106EBC00002A57D00669541EAEB9027B437B059657
:106ECC0043EA0223022105AA01A8ADF80430FFF71A
:106EDC00EDFD042C28BF0424224605A9284603F006
:106EEC006EFC2E553AE001A9FFF7D1FF05AAB8F1C7
:106EFC00000F02D0102101A824E004210DEB0100A9
:106F0C00FFF7D4FD2D260DF11D02022102A88DF8EC
:106F1C001C60FFF7CBFD0DF1220202210DF10A00DE
:106F2C008DF82160FFF7C2FD0DF12702022103A8A5
:106F3C008DF82660FFF7BAFD8DF82B600BAA0621A1
:106F4C000DF10E00FFF7B2FD242C28BF242422469D
:106F5C0005A9284603F033FC00232B55601C02E0E6
:106F6C00084600E010460EB0BDE8F08110B58AB0BE
:106F7C0004460023252208466946FFF792FF69461E
:106F8C002046FFF7CEFC20460AB010BD38B50546AA
:106F9C0001B112B90020286238BD1F2A28BF1F2258
:106FAC00144603F00CFC2C62204638BDF0B58BB1B6
:106FBC000024E51C8D420FD8661C055D875D974249
:106FCC0005D12E44B14207D31C60681CF0BD0135BD
:106FDC002C44EEE71846F0BD0020F0BD2DE9F74338
:106FEC0004460E461D461746002A3AD00A4601AB07
:106FFC00016AFFF7DBFF9DF82830226A03BBF8B16A
:10700C00961C2E44361A1F2E2BD8DDF8048008F15E
:10701C000209C8EB0202121A00EB080105EB090089
:10702C0092B22144204403F0D5FB6B1C04F80830C9
:10703C002A46394604EB090003F0C1FB266210E036
:10704C00901C2B181F2B0CD86B1CA35422442062B1
:10705C003946567020442A4603F0B1FB226A2A4472
:10706C002262206A03B0BDE8F0831FB504460346D4
:10707C0000F11F02002003F8010B93424FF00001B6
:10708C00F9D104AA062302F8013D012321620091E3
:10709C0020461946FFF7A2FF204604B010BD2DE98B
:1070AC00F04F002585B00646894617469A462C4671
:1070BC004FF01408316A8D422AD203AB4A46491B61
:1070CC007019FFF773FF834610B3544520D2042880
:1070DC0003990CD129447218631CD17892780193CE
:1070EC0042EA012108FB0470FFF738FE0AE012287F
:1070FC000AD102312944631C314408FB047001930A
:10710C00FFF71FFE019B1C46039B5B441D44D1E70C
:10711C00204605B0BDE8F08F2DE9F04113460D4631
:10712C0016460A4602210746FFF7B9FF4FF014082E
:10713C00331A08FB0052044603213846FFF7AFFF11
:10714C000444331B08FB045206213846FFF7A7FF03
:10715C000444331B08FB045207213846FFF79FFFFA
:10716C002044BDE8F081000038B500254FF6FF73D0
:10717C00044643800E22294605700571063003F043
:10718C0044FB04F11400FFF761FD04F12800FFF744
:10719C005DFD044904F13C00FFF7C3FBE564256584
:1071AC00204638BD34BC0D0010B58369C26903EBB1
:1071BC00C2029342184606D0046824888C4203F11C
:1071CC000803F6D110BD002010BD00002DE9F341DD
:1071DC0080461F460E4669B362B3F42A056828BF81
:1071EC00F42214462A78A2B12B79980707D50023EC
:1071FC002246A889FFF774F8002802DA43E06FF002
:10720C007700D8F800502B79DA0618D5012F23D146
:10721C0015E068884FF6FF7398420DD02B7959070B
:10722C0023D5012F21D0A989009223463246FFF79E
:10723C007FF828E0154826E06FF0D10023E09A068D
:10724C0021D5022F1FD0A88900232246314602B037
:10725C00BDE8F041FFF7A8B8A889002322463146C3
:10726C0002B0BDE8F041FFF795B81B0701D5022F1E
:10727C0002D16FF0770006E00023A9890093324613
:10728C002346FFF74BF802B0BDE8F081F2FEFFFF9A
:10729C0070B504680E46217886B000292ED162881C
:1072AC004FF6FF739A4229D0238A53B318252A46E6
:1072BC00684603F0AAFA0123ADF80030134BADF881
:1072CC000250019302946388ADF80C30238AADF818
:1072DC000E30A389ADF810305EB123799A0644BF05
:1072EC00022305932379DB0642BF059B43F0010380
:1072FC00059300216846FFF743F804E06FF0D100D6
:10730C0001E06FF0770006B070BD00BFF5740D00A2
:10731C000368D9641A6570472DE9F0418AB02023BF
:10732C000E46029300252E4B009302AA2B462D49A4
:10733C0003950120FFF75AF93368DC681F694FF099
:10734C001C0804EBC7070834A4F108039F423268F9
:10735C0017D0ADF80A8054F8083C9B8AADF8203061
:10736C0054F8083CDB8AADF822301088009533467F
:10737C001D4A02A9FEF7C8FF002804F10804E3DA4D
:10738C002AE09469D569002704EBC5050834A4F1FB
:10739C0008039D421FD054F8083CDB89CBB1142262
:1073AC00002102A803F031FA54F8083CD98933685B
:1073BC0002AA188800971323FEF7C4FF48B10AAB42
:1073CC00184402A900F8207C54F8080C3C30FFF754
:1073DC00D5FA0834DBE700200AB0BDE8F08100BF25
:1073EC00D7B90D00B0B90D00FD7F0D0003681888EA
:1073FC004FF6FF73C01A18BF0120704702680B6864
:10740C00C2F802304B68C2F80630704710B50A68F3
:10741C0052F8023F03605368436010BD1FB5026809
:10742C000B6812881B889A420C460CD101466846A0
:10743C00FFF7ECFF214602A8FFF7E8FF02A9684618
:10744C00FFF788FB00B9002004B010BD10B504464E
:10745C003420FCF71AFE014668B100230360436038
:10746C008360C360036143618361C36103624362F0
:10747C008362C3620363216019B90A4A0A20FFF7C9
:10748C00ADF80020FEF708FF20B1064A00210A20C3
:10749C00FFF7A4F8002221680348FEF767FF204697
:1074AC0010BD00BF65620D0029790D0010B50A4CA6
:1074BC002368DB070ED42046FCF7FAFD50B10748D1
:1074CC00FFF7C4FF2046FCF7F8FD054A05490348C1
:1074DC0002F0F1FF014810BDD0E30320CCE3032000
:1074EC00C4D8032091760D0070B50368093B012BBD
:1074FC008AB004460E4619D8FFF7D8FFA188006859
:10750C00FFF752FE024658B920230293084B039012
:10751C00009302AA034607493220FFF767F805E0FB
:10752C00F56C1DB1336DE1682069A8470AB070BDD8
:10753C00FAB90D00B0B90D0013B501A8FFF7ECFABC
:10754C000020FEF7A9FE044601A8FFF7F3FA04EAAF
:10755C00E47002B010BD000030B58BB00D4601A830
:10756C001446FFF7D9FAB5B1ACB1002202A90D4807
:10757C00069402920392049207920892099205953E
:10758C00FEF792FE0028B8BF04460298A8BF079CDD
:10759C00FFF7F0F800E0044C01A8FFF7CBFA204607
:1075AC000BB030BD977A0D00F2FEFFFF0B68036045
:1075BC0013B15A6801325A60704710B551F8043B48
:1075CC00044640F8043BFFF7F1FF23680BB9FFF7C3
:1075DC0053FA204610BD10B551F8043B044640F850
:1075EC00043BFFF7E3FF204610BD10B504460068CE
:1075FC0028B14368013B43600BB9FFF747FA2046BB
:10760C0010BD10B504460430FFF7EFFF204610BD47
:10761C0010B504460430FFF7E8FF204610BD70B5E6
:10762C0004684368054604EBC306A64204D0201D3B
:10763C00FFF7DBFF0834F8E72868FFF79BF82846CC
:10764C0070BD70B504684368054604EBC306A642DA
:10765C0004D0201DFFF7C9FF0834F8E72868FFF7AE
:10766C0089F8284670BD10B5046904F11800FFF7BD
:10767C00E8FF04F10C00FFF7D2FF2046BDE81040F4
:10768C00FCF707BDF8B504680746C4B1A569E36902
:10769C0005EBC306AE4204D0281DFFF7A6FF083544
:1076AC00F8E7A069FFF766F804F10C00FFF7C9FFD3
:1076BC002046FFF7B4FF3421204602F009FF38467C
:1076CC00F8BD000073B50025056045600646242012
:1076DC00FCF7DBFC044678B103464FF6FF7223F847
:1076EC00022BC0F802505D608572C572C5600561E1
:1076FC0045618561C5610562002314200193FCF787
:10770C00C4FC034628B1012242608260084A026030
:10771C00046102A8726840F8042D73603460FFF7AE
:10772C0064FF33680BB9FFF7A7F9304602B070BDA0
:10773C009CB90D0038B50C6803689C4205460CD00A
:10774C0014B1636801336360286828B14368013B56
:10775C0043600BB9FFF79AF92C60284638BD10B579
:10776C0002680B680446D06C10B1D864126D1A65AF
:10777C00204651F8043B40F8043BFFF7DBFF204662
:10778C0010BD2DE9F04303689C69DE6987B00F4694
:10779C00904604EBC606B442A14611D054F8081B1F
:1077AC0001A81431FFF786FA414601A8FFF7EEFA5B
:1077BC0005460028EFD049463846FFF7D0FF00E0D9
:1077CC000025284607B0BDE8F08310B551F8043BFE
:1077DC00044640F8043BFFF7ADFF204610BD88423D
:1077EC0070B515461AD9904219D2A1F10806511A52
:1077FC000439151F44182B1F9E4225D0042C07D08A
:10780C0055F8043C44F8043C29462046FFF7CEFECC
:10781C002846FFF7EAFE083D083CECE714D00C1DA7
:10782C00061D231F9D420FD0042E07D054F8043C94
:10783C0046F8043C21463046FFF7B8FE2046FFF7D9
:10784C00D4FE08340836ECE770BD2DE9F04104682D
:10785C0043680546884604EBC307A74218D0414647
:10786C002046FFF7DBFD064608B90834F5E78CB176
:10787C00201DFFF7BAFE2B686A6804F1080103EBC0
:10788C00C2022046FFF7ABFF6B68013B6B6002E066
:10789C00002600E026463046BDE8F081F7B50446E8
:1078AC0051F8043B4768009301A8FFF77FFE666818
:1078BC00A3689E4214DB0136002E0BDDF000FEF7B0
:1078CC0051FF054618B394E8060001EBC202FFF71E
:1078DC0086FF00E000252068FEF74CFF2560A660BF
:1078EC002668626806EBC70506EBC202294605F15D
:1078FC000800FFF774FF35B1009B46F8373001A93B
:10790C00281DFFF753FE636801336360012501A84E
:10791C00FFF76BFE284603B0F0BD00002DE9F041E7
:10792C0004468EB003A80D46FFF7F6F82368032B28
:10793C0002D0042B42D087E004A8FFF7C3FE049BBF
:10794C0022891A806268049952F8083FC1F8023003
:10795C005368C1F8063007A8049B069305A9FFF7E6
:10796C0025FE06A905F11800FFF798FF044607A8A5
:10797C00FFF73BFE2023069374B9364B009306AAFF
:10798C002346354907943220FEF730FE049B2146EE
:10799C001888FEF79BFC0DE0304A0092002306AAE3
:1079AC002D4907930120FEF721FE6B6A13B1E96A9A
:1079BC0004A8984705A8FFF718FE45E0218928463A
:1079CC00FFF7F2FB074600283ED00468A369E16983
:1079DC004FF6FF72228003EBC101994203D053F89A
:1079EC00080B4280F9E7E668236906EBC308B0454B
:1079FC0004D0301DFFF7F9FD0836F8E700232361AA
:107A0C00A669E36906EBC308B04504D0301DFFF747
:107A1C00ECFD0836F8E70023E361A372E372AB6A6E
:107A2C0013B1296B3846984720230D4A06930092D0
:107A3C00002309490793012006AAFEF7D7FD394612
:107A4C0005F11800FFF701FF03A8FFF773F80EB05C
:107A5C00BDE8F08112BA0D00B0B90D0038BA0D00B6
:107A6C0055BA0D0038B50D1E044606DD5421694388
:107A7C000068FEF787FE20B938BD0068FEF77AFE75
:107A8C0000202060A560012038BD70B55426C0B020
:107A9C00054632460C4601A8002102F0B6FE03A8AA
:107AAC00FFF7E3FA0CA8FFF7E0FA2A4601AB52F80D
:107ABC00100F5168EA8903C32B78A9688DF85430EC
:107ACC000CA8FFF763FAAA89696803A8FFF75EFAA6
:107ADC00A5691DB1E16901A8A8473CE0E06898B12F
:107AEC0063692269934239D25A1C626106FB030016
:107AFC00512201A902F063FE626923699A422DD3D7
:107B0C002846FEF7D9FB29E0324601A916A802F057
:107B1C0056FE324616A92BA8656802F050FEA368E3
:107B2C009D4204DB691C2046FFF79CFFB0B16368E3
:107B3C002268542606FB052506FB0322521B294608
:107B4C00A81902F047FE32462BA9284602F037FE50
:107B5C0063680133636063690133636140B070BD76
:107B6C008842F8B506460C46154614D9904213D2F5
:107B7C00A2F108056C1AA1F108070444AF4218D011
:107B8C001CB129462046FFF726FD281DFFF72DFDC9
:107B9C00083D083CF2E70CD0AC420AD01EB121469D
:107BAC003046FFF718FD201DFFF71FFD083408367F
:107BBC00F2E7F8BD70B50E1E05460BDDF000FEF7C2
:107BCC00D1FD044670B195E8060001EBC202FFF747
:107BDC00C7FF00E000242868FEF7CCFD2C60AE60E7
:107BEC00012070BD70BD2DE9F0410023036043609E
:107BFC0083600E4649689942044613DDFFF7DAFFAD
:107C0C0080B135687368276805EBC308454507D014
:107C1C001FB129463846FFF7DEFC08350837F5E773
:107C2C00736863602046BDE8F08138B50B689B7AB9
:107C3C0005460C4633B90846FEF700FF10B9236819
:107C4C0001229A72216828460C31FFF7CCFF284696
:107C5C0038BD73B5044645686846FFF7BCFC6168DF
:107C6C00A368994205DB01312046FFF7A3FF0646C6
:107C7C0098B12368626803EBC50503EBC202294681
:107C8C0005F10800FFF76CFF1DB169462846FFF7A8
:107C9C00A2FC636801336360012601A8FFF7A5FC11
:107CAC00304602B070BD8842F8B506460C46154603
:107CBC0014D9904213D2A2F108056C1AA1F108074D
:107CCC000444AF4218D01CB129462046FFF775FC7E
:107CDC00281DFFF78AFC083D083CF2E70CD0AC42AB
:107CEC000AD01EB121463046FFF767FC201DFFF776
:107CFC007CFC08340836F2E7F8BD70B50E1E05465C
:107D0C000BDDF000FEF72EFD044670B195E8060081
:107D1C0001EBC202FFF7C7FF00E000242868FEF762
:107D2C0029FD2C60AE60012070BD70BD2DE9F041C5
:107D3C0000230360436083600E4649689942044601
:107D4C0013DDFFF7DAFF80B135687368276805EB40
:107D5C00C308454507D01FB129463846FFF72DFC0F
:107D6C0008350837F5E7736863602046BDE8F08195
:107D7C0030B50B689B7A85B005460C462BB901A82B
:107D8C00FFF753FF01A8FFF74AFC2368DB7A3BB9E6
:107D9C00214601A8FFF7C0FA10B923680122DA7254
:107DAC00216828461831FFF7C1FF284605B030BDC1
:107DBC002DE9F0430D4693B04FF0180817460646D0
:107DCC004246002104A81C4602F01FFD6968286881
:107DDC00079702AB03C34FF0010905AB83E803001F
:107DEC00ADF81090ADF81280FFF760FB344B0893A0
:107DFC00FFF75CFB002203683168099304A8FEF7C7
:107E0C00ABFA074620B133684FF6FF721A8053E085
:107E1C0029463046FFF7F2FAFFF748FB3146036874
:107E2C0012AD03F1180851F8043B45F8203D0BA89E
:107E3C00FFF7BCFB29464046FFF730FD80460BA8F8
:107E4C00FFF7D3FB20230A93B8F1000F14D11D4B7D
:107E5C0000932A4643461C49CDF82C803220FEF76D
:107E6C00C5FB336841461888FEF730FA336817486B
:107E7C004FF6FF721A801FE0154B00932A463B46C3
:107E8C0011490B974846FEF7B1FBA4B13146284681
:107E9C00FFF76EFF0A9C0B9B04EBC306A64205D0B2
:107EAC0020460121FFF7F4F90834F7E72846FFF7DD
:107EBC00C8FB002000E0204613B0BDE8F08300BFF3
:107ECC0029790D0074BA0D00B0B90D00FCFEFFFF4E
:107EDC0090BA0D0070B5044615461E46FFF7F2FB2E
:107EEC003346002229462046FFF762FF204670BD2C
:107EFC0073B5044645686846FFF75FFB6168A36885
:107F0C00994205DB01312046FFF7F7FE064698B192
:107F1C002368626803EBC50503EBC202294605F131
:107F2C000800FFF7C0FE1DB169462846FFF745FB68
:107F3C00636801336360012601A8FFF756FB3046E6
:107F4C0002B070BD10B50446406808B1FCF7A1F84A
:107F5C00204610BD07B503690C308DE8090003F10C
:107F6C003C00FEF797FC6846FFF7ECFF03B05DF8AA
:107F7C0004FB000038B500230446036014200D46B2
:107F8C00FCF783F828B1012343608360024B036044
:107F9C0005612060204638BD64B90D0070B5002520
:107FAC0086B00560456004465420FCF76EF8CDF8A9
:107FBC0010D00646059008B1FFF7D6F8314601AB54
:107FCC0002AA03A80595FFF7D5FF039B62682660FC
:107FDC00636003A80392FFF708FB04A8FFF7B2FF46
:107FEC0023680BB9FEF748FD204606B070BD0000B3
:107FFC002DE9F041DFF804818CB005460F460026D0
:10800C002B689E4275D202A8FFF7C8FF029B2A89F3
:10801C005A806B6802982A247443234414305B7E84
:10802C0013F0020F1EBF10F8103C43F0020300F8CF
:10803C00103C6B6823445B7E5B0742BF10F8103C1E
:10804C0043F0040300F8103C6B6823445B7E190773
:10805C0042BF10F8103C43F0080300F8103C6B686A
:10806C0023445B7EDA0642BF10F8103C43F0100349
:10807C0000F8103C6B6823445B7E9B0642BF10F8F3
:10808C00103C43F0200300F8103C69682144043193
:10809C00FEF770FE6A68029B144402A9E28B1A81F7
:1080AC00228C5A81628C9A81A28CDA81E28C1A829F
:1080BC00228D5A82386800F1180404A8FFF77DFA63
:1080CC00204604A9FFF714FF044605A8FFF78DFA14
:1080DC0054B920230493CDF80080234604AA064902
:1080EC0005943220FEF782FA03A8FFF77EFA0136D8
:1080FC0086E70CB0BDE8F081B0B90D00ADBA0D004B
:10810C0010B50446406808B1FBF7C3FF204610BD0C
:10811C0007B503690C308DE809006846FFF7F0FFDE
:10812C0003B05DF804FB000038B50023044603607F
:10813C0014200D46FBF7A9FF28B10123436083608F
:10814C00024B036005612060204638BD80B90D00EC
:10815C0070B5002586B00560456004461820FBF715
:10816C0094FFCDF810D00646059018B1FEF76EFDC1
:10817C00B582F582314601AB02AA03A80595FFF73B
:10818C00D3FF039B62682660636003A80392FFF72A
:10819C002CFA04A8FFF7B4FF23680BB9FEF76CFCAC
:1081AC00204606B070BD00002DE9F041DFF880805C
:1081BC008CB006460F46002533689D4233D202A888
:1081CC00FFF7C6FF1C24716802986C4321440431EC
:1081DC00FEF7D0FD7368029A234402A91B8B93828D
:1081EC0073681C44638BD382386800F10C0404A8B8
:1081FC00FFF7F1F9204604A9FFF72BFD044605A86B
:10820C00FFF7F3F954B920230493CDF800802346EB
:10821C0004AA064905943220FEF7E8F903A8FFF7F3
:10822C00E4F90135C8E70CB0BDE8F081B0B90D0038
:10823C00D9BA0D0010B5064C002320462360FEF77A
:10824C00D5F82046034A0449BDE8104002F033B982
:10825C00D4E30320C4D80320396A0D00F8B50646D0
:10826C000D468F180024BD420CD0336815F8011B45
:10827C009B6830469847002801DB0444F3E7002C48
:10828C0008BF04462046F8BD70B505460C460846A6
:10829C0049B102F015FB2B68024621462846DB68E3
:1082AC00BDE87040184770BD03689B68184738B527
:1082BC000D210546FFF7F8FF0A2104462846FFF773
:1082CC00F3FF204438BD30B58BB00B4600218DF840
:1082DC002410012A98BF0A220DF12304B3FBF2F5F6
:1082EC0005FB123303F0FF03092B94BF30333733F4
:1082FC00DBB2214604F801392B46002DEED1FFF7F5
:10830C00C3FF0BB030BD0CB42DE9F04387B000AF08
:10831C0007F13804054654F8049B3C600E4623468E
:10832C004A461421381DFEF73DFA132805D8391D8D
:10833C002846FFF7A9FF044613E000F1080323F0D9
:10834C000703E846ADEB030D411C23464A4668463D
:10835C003C60FEF727FA69462846FFF795FF04466E
:10836C00C5461EB12846FFF7A2FF044420461C3721
:10837C00BD46BDE8F04302B0704780680368DB6817
:10838C001847704719B10B6808465B681847704767
:10839C0019B10B6808465B681847704770477047FF
:1083AC00704738B504460D4600682E2102F06CFA71
:1083BC002368C31A2B6023B1037803B101302368FF
:1083CC002060184638BD10B50C21044602F080F828
:1083DC00204610BD10B50421044602F079F8204661
:1083EC0010BD10B50421044602F072F8204610BDF1
:1083FC0038B50C46054601F083F984420DD001F0E6
:10840C0007FA844205D101F003FABDE8384001F0C7
:10841C00FCB921462846FFF7BBFF38BD08B502F072
:10842C003DFAB0FA80F0400908BD38B5054608465B
:10843C000C4602F045FA214602462846BDE8384073
:10844C0001F0D7BF0068FDF7E1BF70B504460846E0
:10845C000D4602F035FA2368024629462046DB68B1
:10846C00BDE87040184713B502AB026803F8011D54
:10847C00D46819460122A04702B010BD2DE9F04F77
:10848C004568076885B09146142255430193AB109B
:10849C00194D02925D438B463C460123002D0393FC
:1084AC0023DD029B6E1003FB06F004EB00084A462A
:1084BC00B8F804A02058D14528BF5246594602F0BE
:1084CC0007FA039B48B9D14503D1019A137035467D
:1084DC00E4E78CBF0120002000E0C00F0028F6D09C
:1084EC00AE1B08F11404013EF1E7E41B0248A41092
:1084FC00604305B0BDE8F08FCDCCCCCCF0B585B0E9
:10850C0003690191067E13B309B304AF002347F846
:10851C00043D00F10C041D46394601A8FFF741FF4C
:10852C000146A0B104AB039A03F8055D2046FFF7A2
:10853C00A5FF9DF80B3053B12368142404FB0034C1
:10854C00083434F9023C002BA8BFDEB2E4E7304615
:10855C0005B0F0BD10B5094C2368DB070BD42046E1
:10856C00FBF7A6FD38B12046FBF7A7FD044A0549E9
:10857C00054801F0A0FF044810BD00BFD8E303205C
:10858C00C4D80320AB830D0054D8032010B5094C7C
:10859C002368DB070BD42046FBF78AFD38B1204655
:1085AC00FBF78BFD044A0549054801F084FF04489C
:1085BC0010BD00BF08E40320C4D80320A9830D001C
:1085CC0050D8032038B50025044605604560856009
:1085DC0005614561856140F8245FFDF707FFFFF7F2
:1085EC00B9FFE061FFF7D2FF25732062204638BD4A
:1085FC0010B50A4C2368DB070ED42046FBF758FD58
:10860C0050B10748FFF7DEFF2046FBF756FD054A41
:10861C000549034801F04FFF014810BDDCE303207E
:10862C00E0E30320C4D80320678A0D000023024A2C
:10863C0002490348FDF7F2BF49890D00D9880D00A6
:10864C0061880D0000231A4619461846FDF7E6BF4F
:10865C0073B502AC8E6851F8043B44F8083D0546EE
:10866C0001A8FEF7A3FF22463146284601F0F8FE8A
:10867C0001A8FEF7BAFF284602B070BD73B502AC74
:10868C000E6951F8043B44F8083D054601A8FEF775
:10869C008DFF22463146284601F0FDFE01A8FEF76B
:1086AC00A4FF284602B070BD73B502ACCE6851F879
:1086BC00043B44F8083D054601A8FEF777FF224627
:1086CC003146284601F0A4FE01A8FEF78EFF28468D
:1086DC0002B070BD30B58BB00D46014604A8FFF753
:1086EC00B7FF04A801F0C7FDE8B104A96846FFF77D
:1086FC00DBFF0F490298FFF791FE044610B12C1CCA
:10870C0018BF012401A8FEF770FF002CE9D004A9C2
:10871C006846FFF7B3FF684601F08DFD286001A89D
:10872C00FEF763FFDDE705A8FEF75FFF0BB030BD7A
:10873C0090BB0D0037B50C4620461349154602F088
:10874C00ADF840B900F0DCFF4FF4165100F0C8FF53
:10875C0000F0D6FF15E00D49204602F09FF878B9DD
:10876C0002A94FF4165341F8043D2846FFF7B2FF17
:10877C0001F04EF8019901F045F801F049F800E0DC
:10878C00002003B030BD00BF95BB0D009CBB0D009D
:10879C0070B5046843681426054606FB0346A642DA
:1087AC0005D004F10800FFF7F3FF1434F7E728684D
:1087BC00FDF7E0FF284670BD70B5046843680546B8
:1087CC0004EB0316A64204D02046FEF763F81034DF
:1087DC00F8E72868FDF7CEFF284670BD10B50446B3
:1087EC000C30FFF7D5FF2046FFF7E6FF204610BD03
:1087FC0010B5044B044640F8043BFFF7EFFF20464E
:10880C0010BD00BF80AA0D0010B50446FFF7F0FFA5
:10881C002046242101F05CFE204610BD10B5034B10
:10882C0003600446FFF7E4FF204610BD80BB0D003B
:10883C0010B50446FFF7F2FF2046242101F048FE54
:10884C00204610BD10B5036804461868FDF7E6FD18
:10885C00204610BD2DE9F04F9B461B4B5B68C3F3C4
:10886C00080385B082460E46904653BBFFF7C0FE08
:10887C00044624300390FFF7E5FD237BF3B9012375
:10888C00237325686368F6B205EB83094D4513D055
:10889C0055F8047B4146381DFFF730FE8642F5D370
:1088AC003B68CDF800B09B689E463846434632463E
:1088BC0051467746B847E9E70023237303A8FFF72F
:1088CC00C1FF05B0BDE8F08F00ED00E02DE9F74FDA
:1088DC009946194B5B68C3F308030746884616464E
:1088EC0033BBFFF785FE044624300190FFF7AAFD49
:1088FC00237BD3B901232373256863685FFA86FB56
:10890C0005EB830A55450ED055F8046B4946301DCE
:10891C00FFF7F4FD8345F5D333684246DB683946EF
:10892C0030469847EEE70023237301A8FFF78AFF30
:10893C0003B0BDE8F08F00BF00ED00E02DE9F3417E
:10894C00154B5B68C3F3080304468846FBB9FFF775
:10895C004FFE064624300190FFF774FD96E8A00008
:10896C00462605EB8707AF4207D101A8FFF76AFF40
:10897C00B442B4BF002001200AE055F8040B414674
:10898C000430FFF7BBFD8642A8BF0646EBE700208C
:10899C0002B0BDE8F08100BF00ED00E070B50368E7
:1089AC004268044603EB82029A4218460ED00668CF
:1089BC000D68AE4203F10403F6D1011D521A01F009
:1089CC0009FF6368013B6360012070BD002070BD2E
:1089DC001FB50446243001910390FFF733FD01A924
:1089EC002046FFF7DBFF20B903A8FFF72BFF04B0ED
:1089FC0010BD6368002BF7D1FFF724FEF4E770B5C8
:108A0C00056943691826044606FB0356AE4215D089
:108A1C0005F110012046FFF7C1FF63680BB9FFF7A2
:108A2C0011FEE06929690368DB689847696919B127
:108A3C00206A0368DB6898471835E7E7256963699E
:108A4C00182606FB0356B54204D02846FDF722FF34
:108A5C001835F8E70023636170BD73B5044602ADA9
:108A6C00FFF7F0FD04F1240045F8040DFFF7EAFCD4
:108A7C002046FFF7C4FF2846FFF7E4FE606A08B102
:108A8C00FDF7BCFC25696369182606FB0356B54245
:108A9C0004D02846FDF7FEFE1835F8E72069FDF7EF
:108AAC0069FE2068FDF766FE204602B070BD0368C3
:108ABC000A6802600B6043684A6842604B608368D6
:108ACC008A6882608B60704710B50023044603608F
:108ADC0043608360FFF7EBFF204610BD8842F8B57A
:108AEC000446164625D9904224D2551A143D2C44DE
:108AFC00A1F11407A2F10C050026A5F108039F4271
:108B0C0037D084B155F8083C236035F8043CA38079
:108B1C0035F9023CE380A660E6602661294604F143
:108B2C000800FFF7C4FF2846FFF732FE143C143D43
:108B3C00E3E71ED001F108050027A5F108039E42CA
:108B4C0017D084B155F8083C236035F8043CA38059
:108B5C0035F9023CE380A760E7602761294604F100
:108B6C000800FFF7A4FF2846FFF712FE1434143553
:108B7C00E3E7F8BDF8B5456883689D4204460E46A8
:108B8C0017460EDB0135002D05DDA9000068FDF749
:108B9C00F9FD20B9F8BD0068FDF7ECFD0020206060
:108BAC00A5602568626805EB860105EB8202521A06
:108BBC00081D01F00FFE45F82670636801336360F1
:108BCC000120F8BD37B5044624300D460190FFF75F
:108BDC0039FC2368616803EB810083421A4609D093
:108BEC001268AA4203F10403F7D101A8FFF72AFE89
:108BFC0000250EE02A462046FFF7BCFF054600285C
:108C0C00F3D06368012B01D1FFF710FD01A8FFF72A
:108C1C0019FE284603B030BD8842F8B506460C460E
:108C2C00154614D9904213D2A2F110056C1AA1F179
:108C3C0010070444AF4218D01CB129462046FDF75A
:108C4C0019FE2846FDF726FE103D103CF2E70CD02D
:108C5C00AC420AD01EB121463046FDF70BFE204631
:108C6C00FDF718FE10341036F2E7F8BD70B50E1E85
:108C7C0005460BDD3001FDF775FD044670B195E836
:108C8C00060001EB0212FFF7C7FF00E00024286882
:108C9C00FDF770FD2C60AE60012070BD70BD2DE93C
:108CAC00F04F002395B092464622036043608360E8
:108CBC00C3600361436102760291DAF804100893F1
:108CCC009942054609930A9340F39D8008A8FFF743
:108CDC00CDFF002840F097808EE021460BA8FDF7D1
:108CEC00C9FD0BA90FA8099EFDF7C4FD09990A9BA4
:108CFC009942C0F2CE80013108A8FFF7B7FF0028D7
:108D0C0040F0C7800FA8FDF7C5FD0BA8FDF7C2FD0D
:108D1C001434A742E1D100260B960C960D96B14661
:108D2C00099B9E4280F2A8803301089AD35806937F
:108D3C00002B00F09F8014237343CDF81C900193FB
:108D4C000BAC07A906A8FFF72CFB0746002800F080
:108D5C00918014AB014603F8399D079A2046FFF722
:108D6C008DFB9DF817800090B8F1000F53D1BDF822
:108D7C001C30ADF840304FF6FF730F97ADF8423012
:108D8C00CDF84480CDF84880CDF84C806768A36856
:108D9C009F424FDA009BD4F800B061681422534311
:108DAC000BEB030702FB01B207F1140039460393E6
:108DBC00FFF794FEA7B1039B0F9A4BF80320BDF865
:108DCC004030BB80BDF94230FB80C7F80890C7F833
:108DDC000C90C7F8109011A907F10800FFF767FE77
:108DEC0063680133636011A8FFF7D2FCB8F1000F80
:108DFC0011D00BA8FFF7CCFC08A8FFF7DDFC284628
:108E0C0015B0BDE8F08FDAF80040DAF8043014271A
:108E1C0007FB03477DE72368009A142404FB023404
:108E2C00069B1B7823BBDAF80030019A13441B7C99
:108E3C00E3801DE00137002F0FDD142303FB07F047
:108E4C000393FDF78FFC834678B194E80600039BEF
:108E5C0003FB0212FFF742FE00E0C3462068FDF759
:108E6C0089FCC4F800B0A76094E74FF00108BAE79A
:108E7C00083466E7013653E708A92846FFF717FEC2
:108E8C000BA905F10C00FFF712FE9DF808302B76AC
:108E9C00AFE7089B099A03EB061603EB0212314667
:108EAC0006F11000FFF7B8FE1EB10FA93046FDF712
:108EBC00E1FC099B0133099324E700007FB50446CC
:108ECC00094B44F8043B05460E4601A81146FBF736
:108EDC0066FB01AA31462046FFF7E1FE01A8FBF72D
:108EEC001DFB284604B070BD80AA0D00F0B50F46DE
:108EFC008BB02B49109C384616461D4601F0CEFC13
:108F0C0028BB002C49D0294601A8FFF7DDFD2549D7
:108F1C00242001F0DFFA0546B8B101A904A8FFF737
:108F2C00D3FD04A907A8FBF73AFB07AA314628464C
:108F3C00FFF7C4FF07A8FBF7F1FA1B4B2B602C6261
:108F4C0004A8FBF7EBFA194B2B6001A81FE018499A
:108F5C00384601F0A3FCF0B9FCB1294604A8FFF790
:108F6C00B3FD1049242001F0B5FA054670B104A9EF
:108F7C0007A8FBF714FB07AA31462846FFF79EFF0C
:108F8C0007A8FBF7CBFA084B2B602C6204A8FBF765
:108F9C00C5FA284602E0002000E020460BB0F0BDE8
:108FAC00EEBB0D0093BE0D0074BC0D0080BB0D001C
:108FBC00F2BB0D00014B024A1A6070470CE403200F
:108FCC0003BC0D002DE9F047089DD0F82090044615
:108FDC000E461746984600F093FB814505D15A483A
:108FEC0001F02FF8002840F0AC802B791B0705D539
:108FFC006B69564A206A0021FFF785F9B8F1000F1A
:10900C000DD05B212046FFF72EFA41462046FFF794
:10901C001CFA23684E49DB680222204698472B79BC
:10902C00D90725D5D5F808802F21404601F071FCD1
:10903C0008B100F1010841462046FFF706FA2B79EA
:10904C009A0709D53A212046FFF70DFAEB68414AF9
:10905C00206A0021FFF757F92B7913F0040F2368CE
:10906C0018BF3D49DB6808BF3C490222204698479F
:10907C002B795B0718D529690A46134613F8010B9F
:10908C0038B1202801D1194601E0282801D01A4610
:10909C00F3E72368521ADB68204698472368304967
:1090AC00DB6804222046984700213846FDF7AEFACB
:1090BC0001462046FFF7C9F923682849DB680222DC
:1090CC00204698471EB131462046FFF7BEF92B7952
:1090DC0013F0300F2DD023682249DB682046022282
:1090EC0098472B79D8060BD523681F49DB680722D4
:1090FC0020469847AB691D4A206A0021FFF703F907
:10910C002B79990611D5DA0605D523681249DB6847
:10911C0002222046984723681549DB6820460A221C
:10912C009847E9692046FFF790F95D212046FFF743
:10913C009AF923680F49DB6820460222BDE8F04704
:10914C001847BDE8F08700BF40E7032007BC0D00BF
:10915C000EBC0D0067B20D0011BC0D0016BC0D004D
:10916C0014BC0D0019BC0D001CBC0D0024BC0D0062
:10917C0027BC0D0032BC0D002DE9F04385B0D0F8B2
:10918C0020800C9C06460F4691461D4600F0B8FA0E
:10919C00804505D14A4800F054FF002840F08C80EF
:1091AC00336A484A01924FF0000801A803938DF8E6
:1091BC00088001F08AF841464846FDF727FA4249F3
:1091CC008046012201A801F005F94146FFF72DF96F
:1091DC003FB13E49012201A801F0FCF83946FFF7E6
:1091EC0024F93DB13A49012201A801F0F3F82946CE
:1091FC00FFF71BF92379DF070ED5A5682F21284629
:10920C0001F087FB00B1451C3249012201A801F095
:10921C00E1F82946FFF709F923799D0707D52E496F
:10922C00022201A801F0D6F8E16801F05BF823797D
:10923C00580716D525692F463B4613F8012B3AB132
:10924C00202A01D11D4601E0282A01D01F46F3E750
:10925C000222224901A801F0BDF87A1B294601F02F
:10926C00C8F82379190707D51D49012201A801F077
:10927C00B1F8616901F048F82379DA0608D50422BF
:10928C0018490DEB020001F0A5F8A16901F02AF8CC
:10929C0023799B0607D51449062201A801F09AF8F8
:1092AC00E169FFF7C2F801A800F0F9FF306A0F4935
:1092BC0003680222DB68984705B0BDE8F08300BF65
:1092CC0040E7032068BB0D009ABB0D00ADBB0D0041
:1092DC00ADAE0D0088AE0D0035BC0D0038BC0D00D8
:1092EC00C2BB0D003BBC0D0040BC0D0032BC0D00E0
:1092FC0008B50020FDF726FA28B1FDF71BFA80F01F
:10930C000100C0B208BD012008BD10B50020FCF75B
:10931C00BBFF044668B9FDF789F901280BD120463B
:10932C00FDF794F938B9FFF7E3FF30B9FDF7FAF917
:10933C00F9E7012010BD002010BDFFF7D9FF002078
:10934C00FCF7A2FF003018BF012010BD08B5FFF7D5
:10935C00DCFFBDE80840FCF78FBF0000024B1A6829
:10936C00024B1A60704700BF58D8032010E403204A
:10937C0010B5036804469B689847A368013BA3603B
:10938C002BB923682046DB68BDE81040184710BD98
:10939C0010B5064B03600446806928B14368013B55
:1093AC0043600BB9FFF7E4FF204610BDACBD0D00C8
:1093BC0010B50446FFF7ECFF20461C2101F088F89D
:1093CC00204610BD10B58368044613B10322014634
:1093DC009847204610BD10B50446FFF7F3FF204612
:1093EC0010BD00000348044A04490023836001F0C7
:1093FC0062B800BF14E40320C4D80320E3930D002B
:10940C0008B50C4B33B100F07BF903681B69984726
:10941C00002809DC084B63B100F0FAF903681B69FA
:10942C009847002803DC08BDAFF30080F2E7AFF3E8
:10943C00008008BD000000000000000008B5FFF728
:10944C00DFFFFCF711FF014B186008BD48E7032054
:10945C000248034A0349121A01F0B1B900F403207F
:10946C0004F4032040C00D0007B5002300931A46F6
:10947C006FF07701FDF7FCF803B05DF804FB00001A
:10948C0007B543880A2B08D0502B09D1094B1B6810
:10949C003BB103B05DF804EB1847FFF7E5FF06E0BE
:1094AC00002300931A466FF07701FDF7E1F803B043
:1094BC005DF804FB24E4032038B5104C104D2368F0
:1094CC00AB42104B0CBF012200221A7002D0FFF7E6
:1094DC00BFFF2560FCF7B8FE044601F09FF90A4B6C
:1094EC0013B12046AFF3008000210748FDF732F995
:1094FC0000210648BDE83840FDF7B0B800F4032061
:10950C001E1C279A28E40320000000008D940D00F7
:10951C00704710B51821044600F0DAFF204610BD44
:10952C00F0B5037D062B8DB00E4600F104074FF00D
:10953C00000402D000F1080518E00CAD394605F81E
:10954C00304D2F232A460A20FCF770FF284601F0E5
:10955C00B7F933680246DB682946304698470FE076
:10956C0024B12E213046FEF79FFE044415F8011D50
:10957C000A223046FEF7A7FEBD420444F0D1204635
:10958C000DB0F0BD10B5054B0446112240F8043B5C
:10959C00002101F03AF9204610BD00BFE8BC0D00D7
:1095AC000346074A10B543F8042B01F1100251F899
:1095BC00044B43F8044B9142F9D10A781A7010BD50
:1095CC00E8BC0D00037D042B01D1406808E0062B9C
:1095DC000AD1436853B9836843B9C36833B9006986
:1095EC00003018BF012070470020704701207047E1
:1095FC0010B59DF8084044EA032343EA024242EACC
:10960C00016104234160037510BD37B50D788B786B
:10961C004A78C97800912946FFF7EAFF03B030BDBC
:10962C0010B5034B03600446FFF7EFFF204610BD57
:10963C00E8BC0D0041747047704708B50021007CF0
:10964C00FCF7B4FF30EA200028BF4FF0FF3008BD14
:10965C0008B50121007CFCF7A9FF30EA200028BFE7
:10966C004FF0FF3008BD08B5007CFCF797FF20EAEF
:10967C00E07008BD08B5007CFCF788FF20EAE070BC
:10968C0008BD007CFCF7A2BF10B51421044600F005
:10969C001FFF204610BD38B50446007C0D46FCF774
:1096AC007DFF002801DC607C28B12946207CFCF77A
:1096BC0085FF20EAE07038BD10B5044600236360D6
:1096CC004FF47A73A360054B236001230846217481
:1096DC0063741146FCF742FF204610BDFCBC0D0024
:1096EC000022007CFCF742BF007CFCF747BF10B5A2
:1096FC0014220446002101F088F8204610BD000019
:10970C0030B50E4D87B001A8FFF7F1FF296811F0B5
:10971C00010410D12846FAF7CBFC60B101AA21460E
:10972C000748FFF7C9FF2846FAF7C7FC054A064960
:10973C00034800F0C0FE024807B030BD2CE4032003
:10974C0030E40320C4D8032045960D0070474174C3
:10975C00704708B5007CFCF7B9FE20EAE07008BD44
:10976C0008B5007CFCF792FE20EAE07008BD08B555
:10977C00007CFCF79BFE30EA200028BF4FF0FF3046
:10978C0008BD08B5007CFCF789FE30EA200028BF34
:10979C004FF0FF3008BD007CFCF790BE10B51421D3
:1097AC00044600F095FE204610BD70B5457C04467D
:1097BC000E4625B9007CFCF789FE002805DD3146F4
:1097CC00207CBDE87040FCF759BE284670BD0000F7
:1097DC0010B5044608461146002262604FF47A72B6
:1097EC00A260054A22600122207462741A46FCF7BA
:1097FC0035FE204610BD00BF2CBD0D000023007CA3
:10980C00FCF76CBE0022FFF7F9BF007CFCF72EBE04
:10981C0038B50C4D296811F0010411D12846FAF71E
:10982C0047FC68B1084A094B09482146FFF7D0FFAD
:10983C002846FAF742FC074A0749054800F03BFE68
:10984C00034838BDDCE40320E0E4032058E40320A3
:10985C0044E40320C4D8032059970D00002211467C
:10986C004068FCF747BF002211464068FCF752BF26
:10987C0000224068FCF746BF002281F001014068DD
:10988C00FCF730BF00231A4601214068FCF722BFC9
:10989C0000231A4619464068FCF714BF00221146F3
:1098AC004068FCF707BF002211464068FCF7F2BE87
:1098BC00002202214068FCF7F5BE00231A464068DE
:1098CC00FCF7E0BE38B5054688B104684CB1A36816
:1098DC001BB103222146204698471021204600F058
:1098EC00F7FD28461421BDE8384000F0F1BD38BD25
:1098FC0010B103685B681847704710B503680446DD
:10990C00BBB15868FCF75AFD78B923685A7C12B978
:10991C005868FCF75BFD23685868FCF75FFD20680E
:10992C000023236028B1FFF7CDFF206808B1FFF7B3
:10993C00C9FF204610BD38B50446D0F8C40108B1A3
:10994C00FAF7A9FBD4F8C00108B1FCF757FDD4F81D
:10995C00BC5135B12846FFF7D0FF0421284600F052
:10996C00B7FD206808B1FFF7C3FF204638BD0000E3
:10997C0010B5044B044640F8083BFFF7DCFF2046CB
:10998C0010BD00BF5CBD0D0038B50E4C0E4B2360F6
:10999C000025022304F5E4706360A560C4F8C4518B
:1099AC00C4F8C851FCF722FD084BC4F8CC5184F81C
:1099BC00D05123602046064A0649BDE8384000F0E5
:1099CC007ABD00BF64E5032044BE0D005CBD0D00F4
:1099DC00C4D803207D990D0037B502AC036804F898
:1099EC00011DDD6B01224FF0FF332146A84703B068
:1099FC0030BD10B40368DC6B4FF0FF33A4465DF848
:109A0C00044B604737B502AC036804F8011DDD6BED
:109A1C00214613460122A84703B030BD704738B524
:109A2C0043691A68002A044605DAB3F88620B3F8AD
:109A3C0084309A4201D001250BE003681B699847DA
:109A4C00002814BF0125002503D123682046DB6ABA
:109A5C009847284638BD43691868C043C00F704703
:109A6C0070470020704710B51421044600F030FDFB
:109A7C00204610BDFAF70DBB7FB51646002242609A
:109A8C00029203925A1C04460D4608D04FF47A7287
:109A9C00B3FBF2F1029102FB11314A43039260696C
:109AAC000823009341F205026B4440F6FF710068F5
:109ABC00FCF71CFD002808DB6069002332462946B0
:109ACC000068FCF733FD002804DAFCF773FE03682A
