:02000002D0002C
:1040000000400D000CB20D00000006000C00050180
:084010000401E80500000000B6
:044018001CA20D00D9
:10401C0009480A49884208B505D0094A824202D0AB
:10402C00121A05F0E8FB0748074A0021121A05F09E
:10403C0008FC014808BD00BF74D7032014B10D0063
:10404C0044D8032048D80320F4E7032070B504F0CB
:10405C00E7FA074C074BE41AA40800251E46A542B4
:10406C0004D056F8253098470135F8E770BD00BFED
:10407C0004B10D00C8B00D0000F034BD08B500F05F
:10408C0023FBBDE8084004F08DBA01F085BB01F0BC
:10409C008BBB01F089BB000008B5034A00210C2042
:1040AC0001F0CEFAFEE700BF89520D000078B0FA9D
:1040BC0080F0400970470123037070477047006A15
:1040CC000368DB681847704708B501F023FD024B05
:1040DC001880012008BD00BF82D7032008B501F06D
:1040EC0019FD024B1880012008BD00BF80D70320AA
:1040FC0008B501F00FFD024B1880012008BD00BF70
:10410C0074D7032070B588B004460F490F4E68462B
:10411C0001F037FC6946204601F0BEFCC5B22146D1
:10412C002B46002204A801F0BBFC04A801F0F2FC11
:10413C0026F8020F04A801F0DDFB029A00212A44A4
:10414C00204601F0CDFCE5E760A20D0078D70320F6
:10415C0070B588B004460F490F4E684601F011FC4B
:10416C006946204601F098FCC5B221462B46002238
:10417C0004A801F095FC04A801F0CCFC26F8020F71
:10418C0004A801F0B7FB029A00212A44204601F052
:10419C00A7FCE5E760A20D0074D7032010B5044618
:1041AC00006808B101F000FB204610BD0A4B10B5A9
:1041BC000446036003F0BEFA214603F0ABFC04F0A6
:1041CC0061FB04F053FB2046044B40F8043B03F026
:1041DC00A7FB204610BD00BF50A20D0038A20D0059
:1041EC0010B50446FFF7E2FF2046242105F052F8F3
:1041FC00204610BD0EB400B58CB00DAA202352F889
:10420C00041B03928DE8060004930168002304AAA2
:10421C001E20059301F024FA0CB05DF804EB03B0FA
:10422C007047000008B5034990F900200248FFF7D9
:10423C00E1FF08BD62A20D00BCE3032008B50349F1
:10424C0002780348FFF7D6FF08BD00BF8DA20D0012
:10425C00BCE3032007B50388ADF80630BDF8062093
:10426C0003490448FFF7C6FF03B05DF804FB00BF29
:10427C00A7A20D00BCE3032007B50388ADF80630F8
:10428C00BDF8062003490448FFF7B4FF03B05DF8FE
:10429C0004FB00BFC3A20D00BCE3032008B5034917
:1042AC0090F900200248FFF7A5FF08BDDFA20D0022
:1042BC00BCE3032013B50388ADF80630BDF8064007
:1042CC00044905482246FFF795FF044B1C8002B0B9
:1042DC0010BD00BF0AA30D00BCE3032010E30320B4
:1042EC0013B50246044652F8010F247851686B4608
:1042FC0003C322460A490B48FFF77CFF0CB90A4955
:10430C0002E0012C04D109490648FFF773FF04E0D1
:10431C00224607490348FFF76DFF02B010BD00BFEE
:10432C0023A30D00BCE3032041A30D005AA30D00F1
:10433C0075A30D0010B50F4B1A880F4B1B889A42B2
:10434C000E4B13D20E4A0F491268B1F90240944237
:10435C0002DA5A68024404E0B1F900108A4205DD21
:10436C0000225A601A681044186010BD00225A606E
:10437C001A6010BD10E3032074D70320B8D80320B3
:10438C00E0D803207AD70320164B1A7872B1164B5B
:10439C001B6813F0070303D10021FF2208460EE02F
:1043AC00042B1ED100221146104608E0DA7842B1E7
:1043BC000D4B1B68DA07F5D400221146FF2004F0E0
:1043CC00B1B89A7832B1084B1B6813F00303F3D0E1
:1043DC00022BE6E75B7823B1034B1B68DB07E1D4C8
:1043EC00DAE7704712E30320D8E2032008B502464F
:1043FC0003282CD8DFE800F0020D1221174B187897
:10440C00002829D0164B1B88834234BF0020012082
:10441C0008BD144B144A1B88126803E0114B124A56
:10442C005B8852689A4216D3104A114B10881B882D
:10443C0083422CBF0020012008BD0E4A0E4B106891
:10444C00B3F904308342ACBF0020012008BD0B49F6
:10445C000B48FFF7CFFE002008BD00BFD4E20320BD
:10446C0080D7032076D70320B8D8032074D7032035
:10447C0010E30320E0D803207AD70320BDA30D005E
:10448C00BCE30320032810B5044614D80D4B0122BD
:10449C001A5403F0CFFF0C4BC11703EBC403002CD1
:1044AC00C3E9000122460CBF012302230749084837
:1044BC00FFF7A0FE10BD024606490548FFF79AFE1D
:1044CC0010BD00BF12E3032018E303202EA40D003F
:1044DC00BCE3032056A40D0013B50246044652F863
:1044EC00010F247851686B4603C3224608480949DA
:1044FC00FFF780FE084B00201C70FFF777FF28B1F8
:10450C00002002B0BDE81040FFF7BCBF02B010BDE8
:10451C00BCE30320BFA40D00D4E203201FB5024668
:10452C00044652F8020F516802AB03C32388ADF85E
:10453C000630BDF80640094809492246FFF75AFEE5
:10454C00084B03201C60FFF751FF28B1032004B077
:10455C00BDE81040FFF796BF04B010BDBCE30320CC
:10456C00DAA40D00E0D80320F0B5032887B0044688
:10457C0021D803F05FFF134B53F83410002C02AD1D
:10458C00A0EB01070CBF01260226284603F07CFF96
:10459C00334622460C490D488DE8A000FFF72AFE51
:1045AC00284601F0A7F90022094B114610461A556E
:1045BC0003F0B8FF04E0024606490448FFF71AFE70
:1045CC0007B0F0BD18E30320F2A40D00BCE30320F8
:1045DC0012E3032039A50D007FB506461049114D95
:1045EC00684601F0CEF96946304601F02BFA0446D4
:1045FC00684601F07FF944B92B5D13B12046FFF7F3
:10460C00B3FF0134042CF7D106E0304601F082FAF6
:10461C002B5C0BB1FFF7A8FF012004B070BD00BFED
:10462C00A2A50D0012E303202DE9F047224D234EE5
:10463C00DFF88C90DFF88CA08046002414F8093049
:10464C001F4FC3B12046FFF7D1FE90B92B8823B979
:10465C0003F0F0FEC117C6E900012B88BAF8002060
:10466C0043449BB29A422B8005D82046FFF77CFF2F
:10467C0001E000232B800134042C05F1020506F126
:10468C000806DBD1BB781BB90220FFF7AFFE38B9A7
:10469C007B7873B90120FFF7A9FE28B9BDE8F08734
:1046AC000220FFF7EFFEF3E70120BDE8F047FFF72C
:1046BC00E9BEBDE8F08700BFECD8032040E303203F
:1046CC0012E3032082D703202DE9F04196488EB0E7
:1046DC0001F02AFF054600283CD0944C00F0D6FD92
:1046EC002268934B12F0030F18601D4605D102206F
:1046FC00FFF79AFF0220FFF71DFEFFF745FE226829
:10470C0012F007030CD10EA98A4821F8142D0222AD
:10471C0001F0FAFDBDF8242087498848FFF76AFDAF
:10472C002D6800F0B3FDFA35281A03F0D9FE236882
:10473C008348013301220021236000F035FD00F095
:10474C00A5FD0A224FF47A71B0FBF1F17C4802F01E
:10475C005CFE85E17B4979487B4EFFF74BFD01F010
:10476C0043FF1E22784901F095FF0746BD4280F2B7
:10477C00C88054246C4304A801F006FB04F1080023
:10478C00012204A9304401F065FD704980466B4854
:10479C00FFF730FD34446E4909A801F0F2F800220D
:1047AC002146684601F0DFFA694609A801F03EF996
:1047BC0001686248FFF71EFD684601F09BF809A8E6
:1047CC0001F098F8634909A801F0DBF8002204A96C
:1047DC00684601F069FC694609A801F027F90168EF
:1047EC005648FFF707FD684601F084F809A801F068
:1047FC0081F8594909A801F0C4F8002257496846C4
:10480C0001F052FC694609A801F010F901684B4807
:10481C00FFF7F0FC684601F06DF809A801F06AF8A2
:10482C004F4909A801F0ADF800224E49684601F045
:10483C003BFC694609A801F0F9F801683F48FFF70D
:10484C00D9FC684601F056F809A801F053F8B8F104
:10485C00000F54D0414904A801F036FB002800F0A9
:10486C00A18036484049FFF7C5FC2F4801F05CFE9B
:10487C00002851D101F0B8FE01232246014609A8B7
:10488C0002F0C6FB09A9284802F03DF809A801F07E
:10489C005DFF254801F048FE00283BD033492748EE
:1048AC00FFF7A8FC324909A801F084FB09AA314999
:1048BC001D4802F004F8304909A801F07BFB09AA55
:1048CC002E49194801F0FBFF2D4909A801F072FB94
:1048DC0009AA2C49144801F0F2FF2B4909A801F050
:1048EC0069FB09AA2949104801F0E9FF284909A8E0
:1048FC0001F060FB0F490C4809AA01F0E0FF0135FB
:10490C0034E7002F40F3AC803A4622490B48FFF7BE
:10491C0071FCA5E0204902E0204900E0204907484D
:10492C00FFF768FCEBE700BFE4D80320D8E20320D4
:10493C00D4D8032054D803203EA30D00BCE303209D
:10494C006CD80320A6A50D00F4D80320B7A50D0044
:10495C00D1A50D00DBA50D00E8A50D00C0D80320E6
:10496C00FBA50D0088D8032048A80D000EA60D004D
:10497C0037A60D005CD803205CA60D00CCE203200A
:10498C0081A60D009CD80320A6A60D00DCE2032016
:10499C00CBA60D0037A80D00F0A60D0014A70D0036
:1049AC00F2A70D00304904A801F08EFA0028A6D019
:1049BC002E482F49FFF71EFC2E4801F0B5FD0028AC
:1049CC004CD101F011FE01232246014609A802F048
:1049DC001FFB09A9274801F096FF09A801F0B6FEB4
:1049EC00244801F0A1FD002898D023491F48FFF767
:1049FC0001FC224909A801F0DDFA09AA20491D4849
:104A0C0001F05DFF1F4909A801F0D4FA09AA1E495B
:104A1C00184801F054FF1D4909A801F0CBFA09AA66
:104A2C001B49144801F04BFF1A4909A801F0C2FABE
:104A3C0009AA19490F4801F042FF184909A801F0C9
:104A4C00B9FA09AA16490B4801F039FF154909A80A
:104A5C0001F0B0FA09AA144906484EE713495EE77B
:104A6C000EB0BDE8F08100BF88D80320BCE3032062
:104A7C005DA80D0038E3032035A70D0037A60D0007
:104A8C0064D803205EA70D004CD8032083A70D002B
:104A9C0060E30320A8A70D00D8D80320A6A60D001C
:104AAC00E4E20320CDA70D00A4D8032016A80D0026
:104ABC0070B5046843681426054606FB0346A642F7
:104ACC0004D0204600F016FF1434F8E7286800F0F4
:104ADC006BFE284670BD00000246014803F0E2BDA3
:104AEC0085860D0013B532493248334CFFF7F4FF7D
:104AFC0032493348FFF7F0FF32493348FFF7ECFFF8
:104B0C0032493348FFF7E8FF32493348FFF7E4FFF7
:104B1C0032493348FFF7E0FF012003F0F3FCB2EE1B
:104B2C00060A03F095FC02A8012200F8012D41F6BB
:104B3C00C67100F015FD01F057FD01F09BFD002240
:104B4C002849294801F082FC00222849284801F014
:104B5C007DFC00222749284801F078FC00222749D7
:104B6C00274801F073FC00222649274801F06EFC0F
:104B7C0000222649264801F069FC002225492648D6
:104B8C0001F064FC00222549254801F05FFC00225D
:104B9C002449254801F05AFC00230222204610210A
:104BAC0000F076FA2149204602F01CFC02B010BD40
:104BBC00E5450D0072A80D006CD80320D5400D0002
:104BCC007DA80D00E9400D0092A80D00FD400D00E0
:104BDC00A7A80D0011410D00B9A80D005D410D00F5
:104BEC00CDA80D0031420D005CD8032049420D00C8
:104BFC00CCE20320E5440D009CD8032061420D005B
:104C0C00DCE20320A9420D0064D80320C1420D0050
:104C1C004CD8032029450D0060E30320ED420D0024
:104C2C00D8D8032085420D00E4E20320E8A80D004B
:104C3C008842F8B506460C46154616D9904215D250
:104C4C00A2F114056C1AA1F114070444AF421CD054
:104C5C002CB12946204600F03DFE2B7C23742846BF
:104C6C0000F048FE143D143CF0E70ED0AC420CD0E2
:104C7C002EB12146304600F02DFE237C33742046A5
:104C8C0000F038FE14341436F0E7F8BD2DE9F0418D
:104C9C0000230360436083604E689E4204460F46C7
:104CAC0024DD4FF0140808FB06F000F075FD0546F6
:104CBC00E0B194E8060008FB0212FFF7B9FF206888
:104CCC0000F072FD2560A6603E687B6808FB0368F7
:104CDC00464509D02DB13146284600F074FE337C90
:104CEC002B7414361435F3E77B6863602046BDE8FB
:104CFC00F08110B51C21044604F0CCFA204610BDFE
:104D0C0070B5724D90B000F081FA00244FF6FF732D
:104D1C006B812C60AC80AC712C81012000F0B8FC54
:104D2C006B4A6C49284604F0A7FA0494059406943F
:104D3C0003F0A8FD04A9064607A8674DFFF7A6FFD8
:104D4C0007A90AA8FFF7A2FF644B2B600AA90DA8BC
:104D5C00FFF79CFF0DAA0121281D03F042F80DA8B6
:104D6C00FFF7A6FE0AA8FFF7A3FE5D4B2B602E6291
:104D7C0007A8FFF79DFE5B4B2B6003F083FD4FF400
:104D8C00165103F06FFD02F0D5FC294602F0BCFF72
:104D9C0004A8FFF78DFE4E4A5349284604F06CFADE
:104DAC005248534D01F02CFD494A52494F4804F0EA
:104DBC0063FA514801F024FD454A4E494E4804F02F
:104DCC005BFA4E494E4801F0F5F84E494E4801F059
:104DDC00F1F84E4802F080F93D4A4D494B4804F039
:104DEC004BFA4C4802F078F9394A4949494804F0E1
:104DFC0043FA494802F070F9354A4549464804F0EF
:104E0C003BFA464802F068F9314A4149434804F0FC
:104E1C0033FA434802F060F92D4A3D49404804F00A
:104E2C002BFA404802F058F9294A39493D4804F018
:104E3C0023FA3D4802F050F9254A35493A4804F026
:104E4C001BFA3A4802F048F9214A3149374804F034
:104E5C0013FA374802F040F91D4A2D49344804F042
:104E6C000BFA344802F038F9194A2949314804F050
:104E7C0003FA314802F030F9154A25492E4804F05E
:104E8C00FBF90321042205238DE80E002B48022395
:104E9C000122214600F056F80D4A2949274804F012
:104EAC00EBF940F6D816281900F0EEFE04F10800D4
:104EBC00284401F078F904F12C002844543401F012
:104ECC0072F9B442EFD110B070BD00BFACD8032062
:104EDC0048D80320A9410D00ECE2032038A20D00B4
:104EEC00A8AC0D0050A20D00B9410D00E4D8032070
:104EFC00F4D8032059670D0038E30320EDA80D000A
:104F0C00C0D8032012A90D0088D803205CD8032038
:104F1C004B670D00CCE203209CD80320DCE203207D
:104F2C0054D8032064D803204CD8032060E303201A
:104F3C00D8D80320E4E20320A4D803206CD80320A3
:104F4C00D3400D0070B5C3729DF8103003739DF8FB
:104F5C001430094E01720025FF2143739DF818305F
:104F6C0045600660417282728373C5730574457423
:104F7C008574C57470BD00BF40A90D0010B500212B
:104F8C000446807A04F01FF9012000F077F9012122
:104F9C00A07A04F018F9012000F070F9A07A002131
:104FAC0004F011F96420BDE8104000F067B9F8B5C1
:104FBC0006460F4600F10A050024012115F8010FE1
:104FCC0004F0F0F847FA04F101F0010128780134FB
:104FDC0004F0F9F8042CF0D13046BDE8F840FFF7A6
:104FEC00CDBFF8B506460F4600F10A050024012195
:104FFC0015F8010F04F0D6F847FA04F101F001019D
:10500C002878013404F0DFF8082CF0D13046BDE8E4
:10501C00F840FFF7B3BF38B504460D46007A114689
:10502C0004F0D1F8607AFF2802D0002104F0CBF80C
:10503C00E37CDB0605D529462046BDE83840FFF762
:10504C00D0BF29092046FFF7B2FF29462046BDE80C
:10505C003840FFF7ACBF08B50122FFF7DCFF012099
:10506C0008BD0022FFF7D7BF08B50121FFF7F9FFF4
:10507C0041F28830BDE8084000F000B908B50221C3
:10508C00FFF7EFFF41F28830BDE8084000F0F6B8BA
:10509C0070B5012A1E4688BFC37C044684BF43F00A
:1050AC000803C374E275002303760121007A1546C8
:1050BC0004F078F8607AFF2802D0012104F072F82D
:1050CC000121A07A04F06EF82EB1012D02BFE37C11
:1050DC0043F00403E3744CF2503000F0CFF800219D
:1050EC00207A04F070F8A07A002104F06CF8607A51
:1050FC00FF2802D0002104F066F803212046FFF7B8
:10510C0056FF41F2883000F0B9F808212046FFF72D
:10511C004EFF41F2883000F0B1F802212046FFF733
:10512C0046FF41F2883000F0A9F802212046FFF733
:10513C003EFF41F2883000F0A1F808212046FFF72D
:10514C0036FF41F2883000F099F808212046FFF72D
:10515C0088FF41F2883000F091F8E17C204641F064
:10516C002001FFF77EFF41F2883000F087F82046DF
:10517C00FFF77AFF06212046FFF773FF41F28830D4
:10518C0000F07CF82046FFF779FF41F2883000F000
:10519C0075F820460C21FFF764FF41F28830BDE81A
:1051AC00704000F06BB800007FB50E4B14460546FE
:1051BC000E460FCB0DF1100E0EE90F00EB7DA34246
:1051CC003CBF03F1FF34E4B204AB03EB8404284688
:1051DC0054F8101C314461F07F01C9B2FFF741FF54
:1051EC0004B070BD50A90D0000F010B808B5024B0A
:1051FC001B689B68019308BD6802030008B5024B4D
:10520C001B68DB68019308BD6802030008B5024BFC
:10521C001B681B68019308BD2C02030008B5024BE8
:10522C001B689B68019308BD2C02030008B5024B58
:10523C001B68DB68019308BD2C02030008B5024B08
:10524C001B681B69019308BD2C02030008B5024BB7
:10525C001B68DB69019308BD3002030008B5024BE3
:10526C001B681B6A019308BD3002030008B5024B92
:10527C001B685B68019308BD1802030008B5024B5C
:10528C001B68DB68019308BD1802030008B5024BCC
:10529C001B685B69019308BD1802030008B5024B3B
:1052AC001B68DB69019308BD1802030008B5024BAB
:1052BC001B689B68019308BD7802030008B5024B7C
:1052CC001B68DB6F019308BD7802030008B5034B24
:1052DC001B68D3F88430019308BD000078020300EA
:1052EC0008B5034B1B68D3F89830019308BD000038
:1052FC007802030008B5034B1B68D3F8B430019354
:10530C0008BD00007802030008B5034B1B68D3F8F6
:10531C00BC30019308BD00007802030008B5034BB4
:10532C001B68D3F8C430019308BD00007802030059
:10533C0008B5034B1B68D3F8D830019308BD0000A7
:10534C007802030008B5034B1B68D3F8DC300193DB
:10535C0008BD00007802030008B5034B1B68D3F8A6
:10536C00E030019308BD00007802030008B5034B40
:10537C001B68D3F8E430019308BD000078020300E9
:10538C0008B5034B1B68D3F8F030019308BD00003F
:10539C007802030008B5034B1B68D3F8F430019373
:1053AC0008BD00007802030008B5034B1B68D3F856
:1053BC000031019308BD00007802030008B5034BCF
:1053CC001B68D3F80431019308BD00007802030078
:1053DC0008B5024B1B689B68019308BD480203008B
:1053EC0008B5024B1B681B69019308BD48020300FA
:1053FC0008B5024B1B685B69019308BD48020300AA
:10540C0008B5024B1B685B6C019308BD4802030096
:10541C0008B5024B1B689B6C019308BD4802030046
:10542C0008B5024B1B68DB6C019308BD48020300F6
:10543C0008B5024B1B685B6D019308BD4802030065
:10544C0008B5024B1B685B69019308BD640203003D
:10545C0008B5024B1B681B68019308BD3C02030096
:10546C0008B5024B1B689B68019308BD3C02030006
:10547C0008B5024B1B68DB68019308BD3C020300B6
:10548C0008B5024B1B681B69019308BD3C02030065
:10549C0008B5024B1B685B69019308BD3C02030015
:1054AC0008B5024B1B689B69019308BD3C020300C5
:1054BC0008B5024B1B68DB69019308BD3C02030075
:1054CC0008B5024B1B681B6A019308BD3C02030024
:1054DC0008B5024B1B689B6A019308BD3C02030094
:1054EC0008B5024B1B68DB6A019308BD3C02030044
:1054FC0008B5024B1B681B6A019308BD2802030008
:10550C0008B5024B1B685B6A019308BD28020300B7
:10551C0008B5024B1B689B6A019308BD2802030067
:10552C0008B5024B1B68DB6A019308BD2802030017
:10553C0008B5024B1B681B6B019308BD28020300C6
:10554C0008B5024B1B685B6B019308BD2802030076
:10555C0008B5024B1B681B6C019308BD28020300A5
:10556C0008B5024B1B685B68019308BD5802030029
:10557C0008B5024B1B681B68019308BD4C02030065
:10558C0008B5024B1B685B68019308BD4C02030015
:10559C0008B5024B1B689B68019308BD4C020300C5
:1055AC0008B5024B1B681B69019308BD4C02030034
:1055BC0008B5024B1B685B69019308BD4C020300E4
:1055CC0008B5024B1B689B69019308BD4C02030094
:1055DC0008B5024B1B68DB69019308BD4C02030044
:1055EC0008B5024B1B681B6A019308BD4C020300F3
:1055FC0008B5024B1B685B68019308BD6002030091
:10560C0008B5024B1B689B68019308BD6002030040
:10561C0008B5024B1B68DB68019308BD60020300F0
:10562C0008B5024B1B689B69019308BD600203001F
:10563C0008B5024B1B68DB69019308BD60020300CF
:10564C0008B5024B1B685B6B019308BD600203003D
:10565C0008B5024B1B681B6D019308BD600203006B
:10566C0008B5024B1B685B6D019308BD600203001B
:10567C0008B5024B1B68DB6E019308BD600203008A
:10568C0008B5024B1B681B6F019308BD6002030039
:10569C0008B5024B1B685B68019308BD2002030030
:1056AC0008B5024B1B685B69019308BD200203001F
:1056BC0008B5034B1B68D3F88830019308BD000074
:1056CC002002030008B5034B1B68D3F894300193F8
:1056DC0008BD00002002030008B5024B1B685B6884
:1056EC00019308BD4002030008B5024B1B689B6880
:1056FC00019308BD4002030008B5024B1B68DB6830
:10570C00019308BD4002030008B5024B1B681B69DE
:10571C00019308BD4002030008B5024B1B685B698E
:10572C00019308BD4002030008B5024B1B689B693E
:10573C00019308BD4002030008B5024B1B68DB69EE
:10574C00019308BD4002030008B5024B1B681B6A9D
:10575C00019308BD4002030008B5024B1B681B6B8C
:10576C00019308BD4002030008B5024B1B685B6B3C
:10577C00019308BD4002030008B5024B1B685B682F
:10578C00019308BD4402030008B5024B1B68DB6B98
:10579C00019308BD4402030008B5024B1B681B684B
:1057AC00019308BD1C02030008B5024B1B685B6823
:1057BC00019308BD1C02030008B5024B1B689B68D3
:1057CC00019308BD1C02030008B5024B1B681B6942
:1057DC00019308BD1C02030008B5024B1B689B69B2
:1057EC00019308BD1C02030008B5024B1B685B6AE1
:1057FC00019308BD1C02030008B5024B1B681B6B10
:10580C00019308BD1C020300002211464068FFF7FB
:10581C009BBF002211464068FFF7A6BF00224068DC
:10582C00FFF79ABF002281F001014068FFF784BFA7
:10583C0000231A4619464068FFF776BF00231A4624
:10584C0019464068FFF768BF002211464068FFF711
:10585C005BBF002211464068FFF746BF00220221C1
:10586C004068FFF749BF00231A464068FFF734BF72
:10587C00024B03225A60024A1A60704768E3032005
:10588C0068A90D0010B5044601700846FFF7DEFC50
:10589C0000236360204610BD0078FFF7DFBC0000DA
:1058AC0010B5094C00204FF6FF732060A080A0714A
:1058BC0020816381FFF7ECFE2046044A0449BDE8D1
:1058CC00104003F0D9BC00BF70E3032048D803207C
:1058DC00A9410D000023036043608360037310B57E
:1058EC000C6804604C6844608C6884600B604B608E
:1058FC008B6010BD10B504460068FFF755FF2046BD
:10590C0010BD10B50446006808B1FFF74DFF002329
:10591C002360A360636010BD38B504460D46006873
:10592C000131FFF749FF10B184E82100012038BD97
:10593C0010B50368044613B143688B4207D2204666
:10594C00FFF7EAFF20B1A3680BB92268137001209E
:10595C0010BD70B50E46114604461546FFF7E8FF1C
:10596C0018B92046FFF7CDFF09E02A463146A5605D
:10597C00206803F040FF2268A3680021D154204620
:10598C0070BD38B500230446036043608360037325
:10599C000D4639B1084603F0AFFF294602462046B2
:1059AC00FFF7D7FF204638BD884210B50B4604469A
:1059BC0007D0096819B19A68FFF7CBFF01E0FFF730
:1059CC00A0FF204610BD10B50023044603604360C1
:1059DC0083600373FFF7E8FF204610BD38B505461A
:1059EC000C4641B1084603F087FF21460246284683
:1059FC00FFF7AFFF01E0FFF784FF284638BD70B515
:105A0C0004460E4609B9002070BD6AB18368D518EA
:105A1C002946FFF78DFF0028F5D02068A368314692
:105A2C00184403F061FFA560012070BD10B58A68B1
:105A3C0009680446FFF7E3FF10B92046FFF761FF42
:105A4C00204610BD884270B515D083688A68934291
:105A5C000FD183B104680D68013C14F8010F50B1EB
:105A6C0004F0B8F8064615F8010B04F0B3F88642BA
:105A7C00F3D0002070BD012070BD10B58368934237
:105A8C0007D904680968A01803F072FF08B1001B5D
:105A9C0010BD4FF0FF3010BD0022FFF7EEBF00002D
:105AAC00F8B59A420F461D460C4988BF134614465A
:105ABC00064684BF2C461D46FFF763FFBA68944226
:105ACC000AD83968954294BFC4EB0502C4EB0202B4
:105ADC0021443046FFF73DFF3046F8BD6CAC0D005D
:105AEC0038B504460846A3688B4211D982B11144DB
:105AFC008B4238BF1A1A25689B1A1118A3601A1A00
:105B0C002944284403F082FE2268A3680021D15462
:105B1C00204638BD006808B103F054BD704770478B
:105B2C000020704770470020704770470020704776
:105B3C0010B51421044603F0ADFB204610BD10B582
:105B4C001421044603F0A6FB204610BD10B5142109
:105B5C00044603F09FFB204610BDFEF798BAFEF7F3
:105B6C0096BAFEF794BA10B50446006808B1FFF770
:105B7C004FFC204610BD000030B58BB020230546ED
:105B8C0000240293084B009302AA2346074903946E
:105B9C000120FFF75DFD28680549008823462A4649
:105BAC00FFF7B2FB0BB030BDF3A90D00E8A90D0057
:105BBC00F1720D0008B50A20024A0021FFF740FDE2
:105BCC0008BD00BF89520D0010B5036804469B68E0
:105BDC009847A368013BA3602BB923682046DB6878
:105BEC00BDE81040184710BD70B5931C01448842A5
:105BFC0018D00478240904F13005392D88BF04F13C
:105C0C003705064603F8025C347804F00F0404F1FF
:105C1C003005392D88BF04F1370503F8015C0130DC
:105C2C000233E4E7104670BDA0F13003DAB2092A62
:105C3C0001D818467047A0F16103052B01D85738DD
:105C4C007047A0F14103052B94BF37384FF0FF305C
:105C5C007047000010B500230370044B044618680D
:105C6C00FFF7DEFB01232370204610BD84E30320E5
:105C7C0010B5037804461BB1024B1868FFF7D8FB2C
:105C8C00204610BD84E3032000220260426070476E
:105C9C0008B582798B799A4206D1062203F09CFDD5
:105CAC00B0FA80F0400908BD002008BD0139052379
:105CBC00C25C01F8012F013BDBB2FF2BF8D170471E
:105CCC0070B5144688B01D460E46002946D0002AF1
:105CDC0046D001A9FFF7EAFF03AA15B1062101A8D6
:105CEC002DE0012101A8FFF77FFF3A250DF10F02EE
:105CFC0001210DF105008DF80E50FFF775FF0DF128
:105D0C00120201210DF106008DF81150FFF76CFF06
:105D1C000DF1150201210DF107008DF81450FFF75C
:105D2C0063FF06AA012102A88DF81750FFF75CFF4C
:105D3C008DF81A500DF11B0201210DF10900013CE7
:105D4C00FFF752FF112C28BF1124224603A930461D
:105D5C0003F051FD00233355601C02E0084600E0BF
:105D6C00104608B070BD10B586B004461346084600
:105D7C00122201A9FFF7A4FF01A92046FFF701FE9B
:105D8C00204606B010BD000010B501230361054B81
:105D9C00024603F1100153F8044B42F8044B8B42BA
:105DAC00F9D110BD88AB0D000B7C13F0FD0330B5A1
:105DBC0010D103610D4B024603F1100453F8045B40
:105DCC0042F8045BA342F9D10B8803730B881B12B6
:105DDC00437330BD0123036101F11002034651F8F6
:105DEC00044B43F8044B9142F9D130BD88AB0D0004
:105DFC0010B50B69036101F11002034651F8044B15
:105E0C0043F8044B9142F9D110BD10B50B46044632
:105E1C00B9B1012A09D1034601F1100251F8040B62
:105E2C0043F8040B9142F9D108E0411E0F22985C13
:105E3C0001F8010F013AD2B2FF2AF8D101232361F4
:105E4C0002E0102203F0FDFC204610BD38B50446DC
:105E5C000D46FFF799FF002325732D0A2361657307
:105E6C00204638BD10B50B69036101F110020346E1
:105E7C0051F8044B43F8044B9142F9D110BD10B5C5
:105E8C0086B00446012201A8FFF7BFFF01A92046F6
:105E9C00FFF7E8FF06B010BD10B586B0044601A8A8
:105EAC00FFF7D4FF01A92046FFF7DCFF06B010BDB9
:105EBC0010B586B0044601A8FFF776FF01A920466D
:105ECC00FFF7D0FF06B010BD08B502690B699A4206
:105EDC0006D1102203F080FCB0FA80F0400908BD16
:105EEC00002008BD0123F7B50361314B0E46054672
:105EFC00024603F1100153F8040B42F8040B8B42D9
:105F0C00F9D1002E51D02421304603F012FD042883
:105F1C0010D0002710242421304603F00AFDB8428B
:105F2C0001D944BB41E02C440023A5423DD004F8E8
:105F3C00013DFAE73078FFF777FE041E18DB707826
:105F4C00FFF772FE002813DB40EA04108DF8040002
:105F5C00B078FFF769FE041E0ADBF078FFF764FEE9
:105F6C000028A1BF40EA04109DF8043028736B731D
:105F7C0000232B6119E0F05DFFF756FE030612D4E7
:105F8C00013C000128552421304603F0D2FC013796
:105F9C00874208D2F05DFFF747FE40B20028A2BF4F
:105FAC002B5D184328550137B5E703B0F0BD00BF92
:105FBC0088AB0D0038B504460D46FFF7E5FE2046CC
:105FCC002946FFF78FFF204638BD01390F23C25CED
:105FDC0001F8012F013BDBB2FF2BF8D170472DE903
:105FEC00F04198468EB00D46002957D0002A57D064
:105FFC000669541EAEB9027B437B059643EA022325
:10600C00022105AA01A8ADF80430FFF7EDFD042C20
:10601C0028BF0424224605A9284603F0ECFB2E5584
:10602C003AE001A9FFF7D1FF05AAB8F1000F02D0A1
:10603C00102101A824E004210DEB0100FFF7D4FD91
:10604C002D260DF11D02022102A88DF81C60FFF710
:10605C00CBFD0DF1220202210DF10A008DF8216019
:10606C00FFF7C2FD0DF12702022103A88DF826606F
:10607C00FFF7BAFD8DF82B600BAA06210DF10E006F
:10608C00FFF7B2FD242C28BF2424224605A928465C
:10609C0003F0B1FB00232B55601C02E0084600E026
:1060AC0010460EB0BDE8F08110B58AB0044600234E
:1060BC00252208466946FFF792FF69462046FFF7FE
:1060CC0060FC20460AB010BD38B5054601B112B9C6
:1060DC000020286238BD1F2A28BF1F22144603F057
:1060EC008AFB2C62204638BDF0B58BB10024E51C30
:1060FC008D420FD8661C055D875D974205D12E44F5
:10610C00B14207D31C60681CF0BD01352C44EEE78E
:10611C001846F0BD0020F0BD2DE9F74304460E46AD
:10612C001D461746002A3AD00A4601AB016AFFF712
:10613C00DBFF9DF82830226A03BBF8B1961C2E4475
:10614C00361A1F2E2BD8DDF8048008F10209C8EB93
:10615C000202121A00EB080105EB090092B221446D
:10616C00204403F053FB6B1C04F808302A463946D4
:10617C0004EB090003F03FFB266210E0901C2B1887
:10618C001F2B0CD86B1CA35422442062394656702A
:10619C0020442A4603F02FFB226A2A442262206AFA
:1061AC0003B0BDE8F0831FB50446034600F11F029F
:1061BC00002003F8010B93424FF00001F9D104AA1F
:1061CC00062302F8013D0123216200912046194665
:1061DC00FFF7A2FF204604B010BD2DE9F04F0025BB
:1061EC0085B00646894617469A462C464FF0140849
:1061FC00316A8D422AD203AB4A46491B7019FFF70C
:10620C0073FF834610B3544520D2042803990CD154
:10621C0029447218631CD1789278019342EA0121C7
:10622C0008FB0470FFF738FE0AE012280AD102318D
:10623C002944631C314408FB04700193FFF71FFED3
:10624C00019B1C46039B5B441D44D1E7204605B0D3
:10625C00BDE8F08F2DE9F04113460D4616460A466F
:10626C0002210746FFF7B9FF4FF01408331A08FB59
:10627C000052044603213846FFF7AFFF0444331B9A
:10628C0008FB045206213846FFF7A7FF0444331BD2
:10629C0008FB045207213846FFF79FFF2044BDE856
:1062AC00F081000038B500254FF6FF73044643809B
:1062BC000E22294605700571063003F0C2FA04F16E
:1062CC001400FFF761FD04F12800FFF75DFD0449A0
:1062DC0004F13C00FFF755FBE5642565204638BD0D
:1062EC006CAC0D0010B58369C26903EBC20293421A
:1062FC00184606D0046824888C4203F10803F6D1B2
:10630C0010BD002010BD00002DE9F34180461F4652
:10631C000E4669B362B3F42A056828BFF42214460A
:10632C002A78A2B12B79980707D500232246A88991
:10633C00FEF7E0FF002802DA43E06FF07700D8F8B0
:10634C0000502B79DA0618D5012F23D115E0688877
:10635C004FF6FF7398420DD02B79590723D5012F97
:10636C0021D0A989009223463246FEF7EBFF28E0A4
:10637C00154826E06FF0D10023E09A0621D5022FB4
:10638C001FD0A88900232246314602B0BDE8F04157
:10639C00FFF714B8A88900232246314602B0BDE8A5
:1063AC00F041FFF701B81B0701D5022F02D16FF0A6
:1063BC00770006E00023A989009332462346FEF7B6
:1063CC00B7FF02B0BDE8F081F2FEFFFF70B50468C4
:1063DC000E46217886B000292ED162884FF6FF73C5
:1063EC009A4229D0238A53B318252A46684603F0CB
:1063FC0028FA0123ADF80030134BADF8025001938D
:10640C0002946388ADF80C30238AADF80E30A38962
:10641C00ADF810305EB123799A0644BF0223059380
:10642C002379DB0642BF059B43F001030593002152
:10643C006846FEF7AFFF04E06FF0D10001E06FF0AB
:10644C00770006B070BD00BF31660D000368D964DB
:10645C001A6570472DE9F0418AB020230E4602934D
:10646C0000252E4B009302AA2B462D4903950120A3
:10647C00FFF7EEF83368DC681F694FF01C0804EB7B
:10648C00C7070834A4F108039F42326817D0ADF84F
:10649C000A8054F8083C9B8AADF8203054F8083C2C
:1064AC00DB8AADF822301088009533461D4A02A9CC
:1064BC00FEF734FF002804F10804E3DA2AE09469BB
:1064CC00D569002704EBC5050834A4F108039D42E7
:1064DC001FD054F8083CDB89CBB11422002102A850
:1064EC0003F0AFF954F8083CD989336802AA18882C
:1064FC0000971323FEF730FF48B10AAB184402A9EA
:10650C0000F8207C54F8080C3C30FFF767FA08348C
:10651C00DBE700200AB0BDE8F08100BF0FAA0D0038
:10652C00E8A90D0039710D00036818884FF6FF7348
:10653C00C01A18BF0120704702680B68C2F80230FD
:10654C004B68C2F80630704710B50A6852F8023F23
:10655C0003605368436010BD1FB502680B68128856
:10656C001B889A420C460CD101466846FFF7ECFF9B
:10657C00214602A8FFF7E8FF02A96846FFF788FB4F
:10658C0000B9002004B010BD10B504463420FDF74E
:10659C007CFD014668B10023036043608360C360E7
:1065AC00036143618361C361036243628362C362BB
:1065BC000363216019B90A4A0A20FFF741F8002049
:1065CC00FEF774FE20B1064A00210A20FFF738F8C6
:1065DC00002221680348FEF7D3FE204610BD00BF01
:1065EC0089520D00656A0D0010B50A4C2368DB0753
:1065FC000ED42046FDF75AFD50B10748FFF7C4FFF3
:10660C002046FDF758FD054A0549034802F034FEC3
:10661C00014810BD80E303207CE3032048D803200D
:10662C00CD670D0070B50368093B012B8AB0044699
:10663C000E4619D8FFF7D8FFA1880068FFF752FE65
:10664C00024658B920230293084B0390009302AAE8
:10665C00034607493220FEF7FBFF05E0F56C1DB140
:10666C00336DE1682069A8470AB070BD32AA0D00ED
:10667C00E8A90D0013B501A8FFF7ECFA0020FEF70E
:10668C0015FE044601A8FFF7F3FA04EAE47002B021
:10669C0010BD000030B58BB00D4601A81446FFF7B5
:1066AC00D9FAB5B1ACB1002202A90D4806940292F8
:1066BC00039204920792089209920595FEF7FEFD4B
:1066CC000028B8BF04460298A8BF079CFFF76CF8D7
:1066DC0000E0044C01A8FFF7CBFA20460BB030BD0C
:1066EC00D36B0D00F2FEFFFF0B68036013B15A6809
:1066FC0001325A60704710B551F8043B044640F81B
:10670C00043BFFF7F1FF23680BB9FFF753FA204660
:10671C0010BD10B551F8043B044640F8043BFFF79C
:10672C00E3FF204610BD10B50446006828B143684D
:10673C00013B43600BB9FFF747FA204610BD10B57B
:10674C0004460430FFF7EFFF204610BD10B5044699
:10675C000430FFF7E8FF204610BD70B504684368AD
:10676C00054604EBC306A64204D0201DFFF7DBFF51
:10677C000834F8E72868FFF717F8284670BD70B59D
:10678C0004684368054604EBC306A64204D0201DEA
:10679C00FFF7C9FF0834F8E72868FFF705F8284623
:1067AC0070BD10B5046904F11800FFF7E8FF04F19F
:1067BC000C00FFF7D2FF2046BDE81040FDF767BC88
:1067CC00F8B504680746C4B1A569E36905EBC306CF
:1067DC00AE4204D0281DFFF7A6FF0835F8E7A069E4
:1067EC00FEF7E2FF04F10C00FFF7C9FF2046FFF7AC
:1067FC00B4FF3421204602F04DFD3846F8BD0000B0
:10680C0073B500250560456006462420FDF73DFC68
:10681C00044678B103464FF6FF7223F8022BC0F8FA
:10682C0002505D608572C572C56005614561856108
:10683C00C5610562002314200193FDF726FC034675
:10684C0028B1012242608260084A0260046102A8F9
:10685C00726840F8042D73603460FFF764FF33688E
:10686C000BB9FFF7A7F9304602B070BDD4A90D00E3
:10687C0038B50C6803689C4205460CD014B16368AB
:10688C0001336360286828B14368013B43600BB94E
:10689C00FFF79AF92C60284638BD10B502680B68D2
:1068AC000446D06C10B1D864126D1A65204651F8AC
:1068BC00043B40F8043BFFF7DBFF204610BD2DE9FD
:1068CC00F04303689C69DE6987B00F46904604EB81
:1068DC00C606B442A14611D054F8081B01A81431C5
:1068EC00FFF786FA414601A8FFF7EEFA05460028A5
:1068FC00EFD049463846FFF7D0FF00E00025284688
:10690C0007B0BDE8F08310B551F8043B044640F8DD
:10691C00043BFFF7ADFF204610BD884270B515460D
:10692C001AD9904219D2A1F10806511A0439151F2F
:10693C0044182B1F9E4225D0042C07D055F8043C3C
:10694C0044F8043C29462046FFF7CEFE2846FFF7C4
:10695C00EAFE083D083CECE714D00C1D061D231F75
:10696C009D420FD0042E07D054F8043C46F8043C4A
:10697C0021463046FFF7B8FE2046FFF7D4FE083418
:10698C000836ECE770BD2DE9F04104684368054614
:10699C00884604EBC307A74218D041462046FFF7B0
:1069AC00DBFD064608B90834F5E78CB1201DFFF76E
:1069BC00BAFE2B686A6804F1080103EBC202204698
:1069CC00FFF7ABFF6B68013B6B6002E0002600E059
:1069DC0026463046BDE8F081F7B5044651F8043B35
:1069EC004768009301A8FFF77FFE6668A3689E4284
:1069FC0014DB0136002E0BDDF000FEF7CDFE054654
:106A0C0018B394E8060001EBC202FFF786FF00E022
:106A1C0000252068FEF7C8FE2560A660266862681F
:106A2C0006EBC70506EBC202294605F10800FFF785
:106A3C0074FF35B1009B46F8373001A9281DFFF7CC
:106A4C0053FE636801336360012501A8FFF76BFEF9
:106A5C00284603B0F0BD00002DE9F04104468EB08D
:106A6C0003A80D46FFF7F6F82368032B02D0042B7E
:106A7C0042D087E004A8FFF7C3FE049B22891A804A
:106A8C006268049952F8083FC1F802305368C1F8A3
:106A9C00063007A8049B069305A9FFF725FE06A957
:106AAC0005F11800FFF798FF044607A8FFF73BFE17
:106ABC002023069374B9364B009306AA2346354916
:106ACC0007943220FEF7C4FD049B21461888FEF77C
:106ADC0007FC0DE0304A0092002306AA2D490793CB
:106AEC000120FEF7B5FD6B6A13B1E96A04A898475B
:106AFC0005A8FFF718FE45E021892846FFF7F2FBB1
:106B0C00074600283ED00468A369E1694FF6FF727E
:106B1C00228003EBC101994203D053F8080B428049
:106B2C00F9E7E668236906EBC308B04504D0301DCD
:106B3C00FFF7F9FD0836F8E700232361A669E3693E
:106B4C0006EBC308B04504D0301DFFF7ECFD08364A
:106B5C00F8E70023E361A372E372AB6A13B1296B0C
:106B6C003846984720230D4A069300920023094982
:106B7C000793012006AAFEF76BFD394605F11800B4
:106B8C00FFF701FF03A8FFF773F80EB0BDE8F08123
:106B9C004AAA0D00E8A90D0070AA0D008DAA0D00DF
:106BAC0038B50D1E044606DD542169430068FEF716
:106BBC0003FE20B938BD0068FEF7F6FD002020600A
:106BCC00A560012038BD70B55426C0B005463246CC
:106BDC000C4601A8002102F034FE03A8FFF7E3FAEB
:106BEC000CA8FFF7E0FA2A4601AB52F8100F5168D7
:106BFC00EA8903C32B78A9688DF854300CA8FFF7E9
:106C0C0063FAAA89696803A8FFF75EFAA5691DB142
:106C1C00E16901A8A8473CE0E06898B16369226982
:106C2C00934239D25A1C626106FB0300512201A91E
:106C3C0002F0E1FD626923699A422DD32846FEF7E2
:106C4C0045FB29E0324601A916A802F0D4FD3246D4
:106C5C0016A92BA8656802F0CEFDA3689D4204DB43
:106C6C00691C2046FFF79CFFB0B16368226854266C
:106C7C0006FB052506FB0322521B2946A81902F028
:106C8C00C5FD32462BA9284602F0B5FD63680133D9
:106C9C00636063690133636140B070BD8842F8B5CD
:106CAC0006460C46154614D9904213D2A2F108059B
:106CBC006C1AA1F108070444AF4218D01CB1294644
:106CCC002046FFF726FD281DFFF72DFD083D083C4B
:106CDC00F2E70CD0AC420AD01EB121463046FFF789
:106CEC0018FD201DFFF71FFD08340836F2E7F8BD2C
:106CFC0070B50E1E05460BDDF000FEF74DFD04468B
:106D0C0070B195E8060001EBC202FFF7C7FF00E087
:106D1C0000242868FEF748FD2C60AE60012070BD91
:106D2C0070BD2DE9F04100230360436083600E4683
:106D3C0049689942044613DDFFF7DAFF80B13568E4
:106D4C007368276805EBC308454507D01FB1294672
:106D5C003846FFF7DEFC08350837F5E773686360E3
:106D6C002046BDE8F08138B50B689B7A05460C4689
:106D7C0033B90846FEF700FF10B9236801229A7256
:106D8C00216828460C31FFF7CCFF284638BD73B577
:106D9C00044645686846FFF7BCFC6168A3689942E5
:106DAC0005DB01312046FFF7A3FF064698B12368A7
:106DBC00626803EBC50503EBC202294605F1080026
:106DCC00FFF76CFF1DB169462846FFF7A2FC63680C
:106DDC0001336360012601A8FFF7A5FC304602B021
:106DEC0070BD8842F8B506460C46154614D990423B
:106DFC0013D2A2F108056C1AA1F108070444AF42A2
:106E0C0018D01CB129462046FFF775FC281DFFF74A
:106E1C008AFC083D083CF2E70CD0AC420AD01EB10B
:106E2C0021463046FFF767FC201DFFF77CFC083439
:106E3C000836F2E7F8BD70B50E1E05460BDDF00006
:106E4C00FEF7AAFC044670B195E8060001EBC202FD
:106E5C00FFF7C7FF00E000242868FEF7A5FC2C60B4
:106E6C00AE60012070BD70BD2DE9F04100230360C0
:106E7C00436083600E4649689942044613DDFFF770
:106E8C00DAFF80B135687368276805EBC3084545A0
:106E9C0007D01FB129463846FFF72DFC08350837B7
:106EAC00F5E7736863602046BDE8F08130B50B6888
:106EBC009B7A85B005460C462BB901A8FFF753FF0A
:106ECC0001A8FFF74AFC2368DB7A3BB9214601A8ED
:106EDC00FFF7C0FA10B923680122DA72216828463C
:106EEC001831FFF7C1FF284605B030BD2DE9F0433E
:106EFC000D4693B04FF0180817460646424600213F
:106F0C0004A81C4602F09DFC69682868079702AB30
:106F1C0003C34FF0010905AB83E80300ADF81090F3
:106F2C00ADF81280FFF760FB344B0893FFF75CFB66
:106F3C00002203683168099304A8FEF717FA074684
:106F4C0020B133684FF6FF721A8053E02946304661
:106F5C00FFF7F2FAFFF748FB3146036812AD03F175
:106F6C00180851F8043B45F8203D0BA8FFF7BCFB73
:106F7C0029464046FFF730FD80460BA8FFF7D3FBB0
:106F8C0020230A93B8F1000F14D11D4B00932A460D
:106F9C0043461C49CDF82C803220FEF759FB336850
:106FAC0041461888FEF79CF9336817484FF6FF7274
:106FBC001A801FE0154B00932A463B4611490B974C
:106FCC004846FEF745FBA4B131462846FFF76EFF55
:106FDC000A9C0B9B04EBC306A64205D0204601215C
:106FEC00FFF7F4F90834F7E72846FFF7C8FB002051
:106FFC0000E0204613B0BDE8F08300BF656A0D00C9
:10700C00ACAA0D00E8A90D00FCFEFFFFC8AA0D00FC
:10701C0070B5044615461E46FFF7F2FB33460022B8
:10702C0029462046FFF762FF204670BD73B5044623
:10703C0045686846FFF75FFB6168A368994205DB0A
:10704C0001312046FFF7F7FE064698B123686268C7
:10705C0003EBC50503EBC202294605F10800FFF757
:10706C00C0FE1DB169462846FFF745FB6368013336
:10707C006360012601A8FFF756FB304602B070BDD5
:10708C0010B50446406808B1FDF701F8204610BD64
:10709C0007B503690C308DE8090003F13C00FEF7DD
:1070AC0029FC6846FFF7ECFF03B05DF804FB000019
:1070BC0038B500230446036014200D46FCF7E5FFA9
:1070CC0028B1012343608360024B0360056120609B
:1070DC00204638BD9CA90D0070B5002586B0056012
:1070EC00456004465420FCF7D0FFCDF810D006467E
:1070FC00059008B1FFF7D6F8314601AB02AA03A8F8
:10710C000595FFF7D5FF039B62682660636003A8B3
:10711C000392FFF708FB04A8FFF7B2FF23680BB933
:10712C00FEF748FD204606B070BD00002DE9F04189
:10713C00DFF804818CB005460F4600262B689E4272
:10714C0075D202A8FFF7C8FF029B2A895A806B6888
:10715C0002982A247443234414305B7E13F0020FEC
:10716C001EBF10F8103C43F0020300F8103C6B6893
:10717C0023445B7E5B0742BF10F8103C43F00403D2
:10718C0000F8103C6B6823445B7E190742BF10F873
:10719C00103C43F0080300F8103C6B6823445B7E02
:1071AC00DA0642BF10F8103C43F0100300F8103C14
:1071BC006B6823445B7E9B0642BF10F8103C43F087
:1071CC00200300F8103C696821440431FEF770FE7E
:1071DC006A68029B144402A9E28B1A81228C5A81A0
:1071EC00628C9A81A28CDA81E28C1A82228D5A826C
:1071FC00386800F1180404A8FFF77DFA204604A9AA
:10720C00FFF714FF044605A8FFF78DFA54B92023A5
:10721C000493CDF80080234604AA06490594322035
:10722C00FEF716FA03A8FFF77EFA013686E70CB0D4
:10723C00BDE8F081E8A90D00E5AA0D0010B50446E3
:10724C00406808B1FCF723FF204610BD07B5036961
:10725C000C308DE809006846FFF7F0FF03B05DF8CD
:10726C0004FB000038B500230446036014200D46CF
:10727C00FCF70BFF28B1012343608360024B0360D2
:10728C0005612060204638BDB8A90D0070B50025F9
:10729C0086B00560456004461820FCF7F6FECDF874
:1072AC0010D00646059018B1FEF76EFDB582F5823A
:1072BC00314601AB02AA03A80595FFF7D3FF039B48
:1072CC0062682660636003A80392FFF72CFA04A897
:1072DC00FFF7B4FF23680BB9FEF76CFC204606B031
:1072EC0070BD00002DE9F041DFF880808CB00646BF
:1072FC000F46002533689D4233D202A8FFF7C6FF24
:10730C001C24716802986C4321440431FEF7D0FDB3
:10731C007368029A234402A91B8B938273681C44E2
:10732C00638BD382386800F10C0404A8FFF7F1F9E1
:10733C00204604A9FFF72BFD044605A8FFF7F3F937
:10734C0054B920230493CDF80080234604AA06499F
:10735C0005943220FEF77CF903A8FFF7E4F9013518
:10736C00C8E70CB0BDE8F081E8A90D0011AB0D0029
:10737C0010B5064C002320462360FEF741F820464A
:10738C00034A0449BDE8104001F076BF84E30320B2
:10739C0048D80320735B0D00F8B506460D468F18D0
:1073AC000024BD420CD0336815F8011B9B68304695
:1073BC009847002801DB0444F3E7002C08BF04467F
:1073CC002046F8BD70B505460C46084649B102F09A
:1073DC0093FA2B68024621462846DB68BDE87040CC
:1073EC00184770BD08B5FFF7EDFF08BD03689B6833
:1073FC00184738B50D210546FFF7F8FF0A2104465A
:10740C002846FFF7F3FF204438BD30B58BB00B4650
:10741C0000218DF82410012A98BF0A220DF12304B3
:10742C00B3FBF2F505FB123303F0FF03092B94BFFA
:10743C0030333733DBB2214604F801392B46002DAB
:10744C00EED1FFF7BFFF0BB030BD0CB42DE9F0430C
:10745C0087B000AF07F13804054654F8049B3C6034
:10746C000E4623464A461421381DFEF7BDF9132853
:10747C0005D8391D2846FFF7A5FF044613E000F197
:10748C00080323F00703E846ADEB030D411C23462C
:10749C004A4668463C60FEF7A7F969462846FFF75E
:1074AC0091FF0446C5461EB12846FFF7A2FF0444CF
:1074BC0020461C37BD46BDE8F04302B070478068DB
:1074CC000368DB681847704719B10B6808465B689E
:1074DC001847704719B10B6808465B681847704726
:1074EC0070477047704738B504460D4600682E212A
:1074FC0002F0E6F92368C31A2B6023B1037803B1B9
:10750C00013023682060184638BD10B50C210446A4
:10751C0001F0C0FE204610BD10B50421044601F058
:10752C00B9FE204610BD10B50421044601F0B2FE90
:10753C00204610BD38B50C46054601F0A3F984422F
:10754C000DD001F02BFA844205D101F027FABDE8E9
:10755C00384001F01CBA21462846FFF7BBFF38BD66
:10756C0008B502F0B7F9B0FA80F0400908BD38B59B
:10757C00054608460C4602F0BFF92146024628464D
:10758C00BDE8384001F075BD0068FDF749BF70B526
:10759C00044608460D4602F0AFF923680246294618
:1075AC002046DB68BDE87040184713B502AB026893
:1075BC0003F8011DD46819460122A04702B010BD82
:1075CC002DE9F04F4568076885B091461422554364
:1075DC000193AB10194D02925D438B463C4601233F
:1075EC00002D039323DD029B6E1003FB06F004EBCE
:1075FC0000084A46B8F804A02058D14528BF524686
:10760C00594602F081F9039B48B9D14503D1019A3F
:10761C0013703546E4E78CBF0120002000E0C00F5A
:10762C000028F6D0AE1B08F11404013EF1E7E41B70
:10763C000248A410604305B0BDE8F08FCDCCCCCC93
:10764C00F0B585B003690191067E13B309B304AF9D
:10765C00002347F8043D00F10C041D46394601A8EF
:10766C00FFF741FF0146A0B104AB039A03F8055D97
:10767C002046FFF7A5FF9DF80B3053B12368142467
:10768C0004FB0034083434F9023C002BA8BFDEB2F2
:10769C00E4E7304605B0F0BD10B5094C2368DB07B4
:1076AC000BD42046FCF702FD38B12046FCF703FD55
:1076BC00044A0549054801F0DFFD044810BD00BF30
:1076CC0088E3032048D80320EF740D0088D70320EB
:1076DC0010B5094C2368DB070BD42046FCF7E6FCFD
:1076EC0038B12046FCF7E7FC044A0549054801F08F
:1076FC00C3FD044810BD00BFB8E3032048D80320E5
:10770C00ED740D0084D7032038B5002504460560C0
:10771C004560856005614561856140F8245FFDF732
:10772C006FFEFFF7B9FFE061FFF7D2FF2573206210
:10773C00204638BD10B50A4C2368DB070ED4204612
:10774C00FCF7B4FC50B10748FFF7DEFF2046FCF70E
:10775C00B2FC054A0549034801F08EFD014810BDF5
:10776C008CE3032090E3032048D80320AB7B0D006F
:10777C000023024A02490348FDF782BF8D7A0D00AF
:10778C001D7A0D00A5790D0000231A4619461846DE
:10779C00FDF776BF73B502AC8E6851F8043B44F824
:1077AC00083D054601A8FEF79FFF224631462846B4
:1077BC0001F096FC01A8FEF7B6FF284602B070BD9A
:1077CC0073B502AC0E6951F8043B44F8083D05460C
:1077DC0001A8FEF789FF22463146284601F09BFCA2
:1077EC0001A8FEF7A0FF284602B070BD73B502AC2D
:1077FC00CE6851F8043B44F8083D054601A8FEF755
:10780C0073FF22463146284601F042FC01A8FEF7E0
:10781C008AFF284602B070BD30B58BB00D460146CC
:10782C0004A8FFF7B7FF04A801F065FBE8B104A9B1
:10783C006846FFF7DBFF0F490298FFF791FE0446FD
:10784C0010B12C1C18BF012401A8FEF76CFF002CF2
:10785C00E9D004A96846FFF7B3FF684601F02BFB9B
:10786C00286001A8FEF75FFFDDE705A8FEF75BFFC8
:10787C000BB030BDC8AB0D0037B50C4620461349D4
:10788C00154602F027F840B900F0FCFF4FF41651F2
:10789C0000F0E8FF00F0F6FF15E00D49204602F07D
:1078AC0019F878B902A94FF4165341F8043D28464B
:1078BC00FFF7B2FF01F072F8019901F065F801F0E1
:1078CC006DF800E0002003B030BD00BFCDAB0D0063
:1078DC00D4AB0D0070B5046843681426054606FB4E
:1078EC000346A64205D004F10800FFF7F3FF143459
:1078FC00F7E72868FDF758FF284670BD70B5046897
:10790C004368054604EB0316A64204D02046FDF757
:10791C00F1FF1034F8E72868FDF746FF284670BDE4
:10792C0010B504460C30FFF7D5FF2046FFF7E6FFF5
:10793C00204610BD10B5044B044640F8043BFFF73D
:10794C00EFFF204610BD00BF38A20D0010B5044655
:10795C00FFF7F0FF2046242101F09CFC204610BDCF
:10796C0010B5034B03600446FFF7E4FF204610BD3F
:10797C00B8AB0D0010B50446FFF7F2FF20462421EA
:10798C0001F088FC204610BD10B503680446186849
:10799C00FDF74EFD204610BD2DE9F04F9B461B4BCD
:1079AC005B68C3F3080385B082460E46904653BB12
:1079BC00FFF7C0FE044624300390FFF7E5FD237B60
:1079CC00F3B90123237325686368F6B205EB8309C9
:1079DC004D4513D055F8047B4146381DFFF730FE5A
:1079EC008642F5D33B68CDF800B09B689E4638467E
:1079FC004346324651467746B847E9E7002323739E
:107A0C0003A8FFF7C1FF05B0BDE8F08F00ED00E063
:107A1C002DE9F74F9946194B5B68C3F308030746EA
:107A2C008846164633BBFFF785FE0446243001908A
:107A3C00FFF7AAFD237BD3B9012323732568636861
:107A4C005FFA86FB05EB830A55450ED055F8046B9F
:107A5C004946301DFFF7F4FD8345F5D333684246A4
:107A6C00DB68394630469847EEE70023237301A8BC
:107A7C00FFF78AFF03B0BDE8F08F00BF00ED00E018
:107A8C002DE9F341154B5B68C3F3080304468846A4
:107A9C00FBB9FFF74FFE064624300190FFF774FD4B
:107AAC0096E8A000462605EB8707AF4207D101A850
:107ABC00FFF76AFFB442B4BF002001200AE055F87A
:107ACC00040B41460430FFF7BBFD8642A8BF0646B7
:107ADC00EBE7002002B0BDE8F08100BF00ED00E054
:107AEC0070B503684268044603EB82029A4218465A
:107AFC000ED006680D68AE4203F10403F6D1011DE9
:107B0C00521A01F083FE6368013B6360012070BD73
:107B1C00002070BD1FB50446243001910390FFF77F
:107B2C0033FD01A92046FFF7DBFF20B903A8FFF7BF
:107B3C002BFF04B010BD6368002BF7D1FFF724FEB8
:107B4C00F4E770B5056943691826044606FB03562D
:107B5C00AE4215D005F110012046FFF7C1FF636856
:107B6C000BB9FFF711FEE06929690368DB689847D8
:107B7C00696919B1206A0368DB6898471835E7E72B
:107B8C0025696369182606FB0356B54204D02846BE
:107B9C00FDF7B0FE1835F8E70023636170BD73B5CF
:107BAC00044602ADFFF7F0FD04F1240045F8040D86
:107BBC00FFF7EAFC2046FFF7C4FF2846FFF7E4FE78
:107BCC00606A08B1FDF724FC25696369182606FB79
:107BDC000356B54204D02846FDF78CFE1835F8E75D
:107BEC002069FDF7E1FD2068FDF7DEFD204602B0BF
:107BFC0070BD03680A6802600B6043684A684260A3
:107C0C004B6083688A6882608B60704710B5002374
:107C1C000446036043608360FFF7EBFF204610BD12
:107C2C008842F8B50446164625D9904224D2551AF6
:107C3C00143D2C44A1F11407A2F10C050026A5F16A
:107C4C0008039F4237D084B155F8083C236035F8BF
:107C5C00043CA38035F9023CE380A660E660266113
:107C6C00294604F10800FFF7C4FF2846FFF732FE4F
:107C7C00143C143DE3E71ED001F108050027A5F1E3
:107C8C0008039E4217D084B155F8083C236035F8A0
:107C9C00043CA38035F9023CE380A760E7602761D0
:107CAC00294604F10800FFF7A4FF2846FFF712FE4F
:107CBC0014341435E3E7F8BDF8B5456883689D4284
:107CCC0004460E4617460EDB0135002D05DDA900D6
:107CDC000068FDF771FD20B9F8BD0068FDF764FD83
:107CEC0000202060A5602568626805EB860105EB25
:107CFC008202521A081D01F089FD45F8267063684E
:107D0C00013363600120F8BD37B5044624300D46BD
:107D1C000190FFF739FC2368616803EB8100834213
:107D2C001A4609D01268AA4203F10403F7D101A83C
:107D3C00FFF72AFE00250EE02A462046FFF7BCFF7F
:107D4C0005460028F3D06368012B01D1FFF710FD25
:107D5C0001A8FFF719FE284603B030BD8842F8B5DC
:107D6C0006460C46154614D9904213D2A2F11005C2
:107D7C006C1AA1F110070444AF4218D01CB129466B
:107D8C002046FDF7A7FD2846FDF7B4FD103D103C3D
:107D9C00F2E70CD0AC420AD01EB121463046FDF7BA
:107DAC0099FD2046FDF7A6FD10341036F2E7F8BD1C
:107DBC0070B50E1E05460BDD3001FDF7EDFC0446DB
:107DCC0070B195E8060001EB0212FFF7C7FF00E067
:107DDC0000242868FDF7E8FC2C60AE60012070BD23
:107DEC0070BD2DE9F04F002395B0924646220360FA
:107DFC0043608360C3600361436102760291DAF8E9
:107E0C00041008939942054609930A9340F39D8008
:107E1C0008A8FFF7CDFF002840F097808EE02146A0
:107E2C000BA8FDF757FD0BA90FA8099EFDF752FDF6
:107E3C0009990A9B9942C0F2CE80013108A8FFF73C
:107E4C00B7FF002840F0C7800FA8FDF753FD0BA823
:107E5C00FDF750FD1434A742E1D100260B960C9689
:107E6C000D96B146099B9E4280F2A8803301089A78
:107E7C00D3580693002B00F09F8014237343CDF846
:107E8C001C9001930BAC07A906A8FFF72CFB074627
:107E9C00002800F0918014AB014603F8399D079A35
:107EAC002046FFF78DFB9DF817800090B8F1000F6E
:107EBC0053D1BDF81C30ADF840304FF6FF730F971F
:107ECC00ADF84230CDF84480CDF84880CDF84C80E8
:107EDC006768A3689F424FDA009BD4F800B06168D2
:107EEC00142253430BEB030702FB01B207F11400FE
:107EFC0039460393FFF794FEA7B1039B0F9A4BF8F7
:107F0C000320BDF84030BB80BDF94230FB80C7F880
:107F1C000890C7F80C90C7F8109011A907F1080049
:107F2C00FFF767FE63680133636011A8FFF7D2FCAB
:107F3C00B8F1000F11D00BA8FFF7CCFC08A8FFF785
:107F4C00DDFC284615B0BDE8F08FDAF80040DAF811
:107F5C000430142707FB03477DE72368009A142499
:107F6C0004FB0234069B1B7823BBDAF80030019A21
:107F7C0013441B7CE3801DE00137002F0FDD14231D
:107F8C0003FB07F00393FDF707FC834678B194E8F5
:107F9C000600039B03FB0212FFF742FE00E0C34600
:107FAC002068FDF701FCC4F800B0A76094E74FF01F
:107FBC000108BAE7083466E7013653E708A92846F2
:107FCC00FFF717FE0BA905F10C00FFF712FE9DF849
:107FDC0008302B76AFE7089B099A03EB061603EBE8
:107FEC000212314606F11000FFF7B8FE1EB10FA9C0
:107FFC003046FDF76FFC099B0133099324E7000021
:10800C007FB50446094B44F8043B05460E4601A8CF
:10801C001146FCF73BFE01AA31462046FFF7E1FE74
:10802C0001A8FCF745FD284604B070BD38A20D0030
:10803C00F0B50F468BB02B49109C384616461D46A2
:10804C0001F048FC28BB002C49D0294601A8FFF7B9
:10805C00DDFD2549242001F021F90546B8B101A91F
:10806C0004A8FFF7D3FD04A907A8FCF70FFE07AA85
:10807C0031462846FFF7C4FF07A8FCF719FD1B4B38
:10808C002B602C6204A8FCF713FD194B2B6001A884
:10809C001FE01849384601F01DFCF0B9FCB1294627
:1080AC0004A8FFF7B3FD1049242001F0F7F80546AA
:1080BC0070B104A907A8FCF7E9FD07AA31462846C8
:1080CC00FFF79EFF07A8FCF7F3FC084B2B602C6214
:1080DC0004A8FCF7EDFC284602E0002000E0204656
:1080EC000BB0F0BD26AC0D006BAE0D00A8AC0D00B6
:1080FC00B8AB0D002AAC0D00014B024A1A60704758
:10810C00BCE303203BAC0D002DE9F047089DD0F8F3
:10811C00209004460E461746984600F0B3FB814566
:10812C0005D15A4800F0CDFD002840F0AC802B79E9
:10813C001B0705D56B69564A206A0021FFF785F9A4
:10814C00B8F1000F0DD05B212046FFF72EFA414607
:10815C002046FFF71CFA23684E49DB6802222046B2
:10816C0098472B79D90725D5D5F808802F2140467B
:10817C0001F0EBFB08B100F1010841462046FFF786
:10818C0006FA2B799A0709D53A212046FFF70DFA02
:10819C00EB68414A206A0021FFF757F92B7913F05D
:1081AC00040F236818BF3D49DB6808BF3C49022215
:1081BC00204698472B795B0718D529690A46134640
:1081CC0013F8010B38B1202801D1194601E02828F9
:1081DC0001D01A46F3E72368521ADB682046984709
:1081EC0023683049DB680422204698470021384632
:1081FC00FDF73EFA01462046FFF7C9F923682849E6
:10820C00DB680222204698471EB131462046FFF714
:10821C00BEF92B7913F0300F2DD023682249DB687F
:10822C002046022298472B79D8060BD523681F4984
:10823C00DB68072220469847AB691D4A206A00215B
:10824C00FFF703F92B79990611D5DA0605D52368C2
:10825C001249DB6802222046984723681549DB68DF
:10826C0020460A229847E9692046FFF790F95D21DC
:10827C002046FFF79AF923680F49DB682046022253
:10828C00BDE8F0471847BDE8F08700BFF8E60320CB
:10829C003FAC0D0046AC0D009FA50D0049AC0D0088
:1082AC004EAC0D004CAC0D0051AC0D0054AC0D009F
:1082BC005CAC0D005FAC0D006AAC0D002DE9F04319
:1082CC0085B0D0F820800C9C06460F4691461D4682
:1082DC0000F0D8FA804505D14A4800F0F2FC00289D
:1082EC0040F08C80336A484A01924FF0000801A894
:1082FC0003938DF8088000F028FE41464846FDF7B0
:10830C00B7F942498046012201A800F0A3FE41467C
:10831C00FFF72DF93FB13E49012201A800F09AFE6A
:10832C003946FFF724F93DB13A49012201A800F082
:10833C0091FE2946FFF71BF92379DF070ED5A568B7
:10834C002F21284601F001FB00B1451C32490122C6
:10835C0001A800F07FFE2946FFF709F923799D0754
:10836C0007D52E49022201A800F074FEE16800F046
:10837C00F9FD2379580716D525692F463B4613F886
:10838C00012B3AB1202A01D11D4601E0282A01D047
:10839C001F46F3E70222224901A800F05BFE7A1B7C
:1083AC00294600F066FE2379190707D51D490122DD
:1083BC0001A800F04FFE616900F0E6FD2379DA06B2
:1083CC0008D5042218490DEB020000F043FEA16908
:1083DC0000F0C8FD23799B0607D51449062201A895
:1083EC0000F038FEE169FFF7C2F801A800F097FD34
:1083FC00306A0F4903680222DB68984705B0BDE874
:10840C00F08300BFF8E60320A0AB0D00D2AB0D004B
:10841C00E5AB0D00A4A60D007FA60D006DAC0D0004
:10842C0070AC0D00FAAB0D0073AC0D0078AC0D0008
:10843C006AAC0D0008B5FCF731FF034B1B68184400
:10844C00024B1B68184408BDC8E30320C4E3032097
:10845C00FAEE087AB4EEE70AF1EE10FA0FD4F2EE67
:10846C000C7AB4EEE70AF1EE10FA08DCDFED047AD0
:10847C00044B20EE270ABDEEC00A83ED000A7047BC
:10848C0000006145C8E3032037B50E4B1B68194447
:10849C000D4B1B68044602A8194440F8041D01F05A
:1084AC00A3F801F053F8054601F026FA28440023FE
:1084BC0000F8013C29462046FDF763FA204603B03C
:1084CC0030BD00BFC8E30320C4E30320024B1A688D
:1084DC00024B1A60704700BF8CD70320C0E3032007
:1084EC000021FDF7DDB810B58368044613B10322F3
:1084FC0001469847204610BD10B50446FFF7F3FF20
:10850C00204610BD10B50446FDF78AF8844208D009
:10851C001CB1BDE81040FDF773B8BDE81040FDF785
:10852C0077B810BD70B505460E461446FDF778F8C1
:10853C0050B144EA062040EA0540FDF759F8E7201F
:10854C00BDE87040FDF774B870BD00000348044AE4
:10855C0004490023836000F08FBE00BFCCE30320EE
:10856C0048D8032005850D0008B50C4B33B100F03D
:10857C0089F903681B699847002809DC084B63B12B
:10858C0000F00CFA03681B699847002803DC08BD4F
:10859C00AFF30080F2E7AFF3008008BD00000000ED
:1085AC000000000008B5FFF7DFFFFCF76FFE014B82
:1085BC00186008BD0CE703200248034A0349121A4D
:1085CC0001F019B900F4032004F4032010B10D00DC
:1085DC0007B5002300931A466FF07701FDF772F888
:1085EC0003B05DF804FB000007B543880A2B08D0E4
:1085FC00502B09D1094B1B683BB103B05DF804EB60
:10860C001847FFF7E5FF06E0002300931A466FF0CA
:10861C007701FDF757F803B05DF804FBDCE30320AA
:10862C0038B5104C104D2368AB42104B0CBF0122D7
:10863C0000221A7002D0FFF7BFFF2560FCF716FE70
:10864C00044601F007F90A4B13B12046AFF3008042
:10865C0000210748FDF798F800210648BDE838408E
:10866C00FDF726B800F403201E1C279AE0E3032034
:10867C0000000000F5850D0010B588B00446684672
:10868C00FDF77FF9694604A8FDF79DF904A8A047FA
:10869C00044604A8FDF72EF96846FDF72BF9204691
:1086AC0008B010BDF0B5102485B007460E4615462F
:1086BC0000212246684601F0C4F8002269461046A3
:1086CC00ADF80040029703960195FDF755F805B0FB
:1086DC00F0BD704710B51821044600F0DBFD2046B4
:1086EC0010BDF0B5037D062B8DB00E4600F10407CE
:1086FC004FF0000402D000F1080518E00CAD39462B
:10870C0005F8304D2F232A460A20FCF799FE2846FF
:10871C0001F0F2F833680246DB6829463046984788
:10872C000FE024B12E213046FEF760FE044415F80C
:10873C00011D0A223046FEF768FEBD420444F0D10A
:10874C0020460DB0F0BD000010B5054B04461122BB
:10875C0040F8043B002101F074F8204610BD00BF26
:10876C0018AD0D000346074A10B543F8042B01F170
:10877C00100251F8044B43F8044B9142F9D10A789A
:10878C001A7010BD18AD0D0010B59DF8084044EAE4
:10879C00032343EA024242EA016104234160037568
:1087AC0010BD37B50D788B784A78C9780091294679
:1087BC00FFF7EAFF03B030BD41747047704708B54E
:1087CC000021007CFCF7FCFE30EA200028BF4FF0B3
:1087DC00FF3008BD08B50121007CFCF7F1FE30EA42
:1087EC00200028BF4FF0FF3008BD08B5007CFCF717
:1087FC00DFFE20EAE07008BD08B5007CFCF7D0FE77
:10880C0020EAE07008BD007CFCF7EABE10B514212C
:10881C00044600F03FFD204610BD38B50446007CF0
:10882C000D46FCF7C5FE002801DC607C28B129460A
:10883C00207CFCF7CDFE20EAE07038BD10B5044674
:10884C00002363604FF47A73A360054B236001230C
:10885C000846217463741146FCF78AFE204610BD4D
:10886C002CAD0D000022007CFCF78ABE007CFCF7CE
:10887C008FBE10B514220446002100F0E2FF204602
:10888C0010BD000030B50E4D87B001A8FFF7F1FF09
:10889C00296811F0010410D12846FBF707FC60B1E0
:1088AC0001AA21460748FFF7C9FF2846FBF703FC3E
:1088BC00054A0649034800F0DFFC024807B030BD0A
:1088CC00E4E30320E8E3032048D80320C9870D0024
:1088DC0070474174704708B5007CFCF7F9FD20EA3D
:1088EC00E07008BD08B5007CFCF7CAFD20EAE0701A
:1088FC0008BD08B5007CFCF7D3FD30EA200028BF8A
:10890C004FF0FF3008BD08B5007CFCF7C1FD30EA24
:10891C00200028BF4FF0FF3008BD007CFCF7C8BD1D
:10892C0010B51421044600F0B5FC204610BD70B5FE
:10893C00457C04460E4625B9007CFCF7C9FD002891
:10894C0005DD3146207CBDE87040FCF791BD284622
:10895C0070BD000010B50446084611460022626046
:10896C004FF47A72A260054A22600122207462746C
:10897C001A46FCF76DFD204610BD00BF5CAD0D0026
:10898C000023007CFCF7ACBD0022FFF7F9BF007C94
:10899C00FCF766BD007CFCF793BD000038B50C4DB0
:1089AC00296811F0010411D12846FBF77FFB68B14F
:1089BC00084A094B09482146FFF7CCFF2846FBF72C
:1089CC007AFB074A0749054800F056FC034838BDB6
:1089DC0094E4032098E4032010E40320FCE3032038
:1089EC0048D80320DD880D007047F8B506461546BB
:1089FC000C468F18BC4206D0336814F8011B9B68D8
:108A0C0030469847F6E72846F8BD0022007CFCF774
:108A1C006FBD0021007CFCF773BD0021007CFCF7CE
:108A2C0077BD0021007CFCF77BBD0021007CFCF7AE
:108A3C007FBD10B51421044600F02CFC204610BD5F
:108A4C0010B50446002363604FF47A73A360044BA3
:108A5C002174084623601146FCF77AFD204610BDB0
:108A6C008CAD0D000021007CFCF76ABD0022114684
:108A7C004068FCF769BE002211464068FCF774BEE2
:108A8C0000224068FCF768BE002281F001014068BA
:108A9C00FCF752BE00231A4601214068FCF744BE85
:108AAC0000231A4619464068FCF736BE00221146D0
:108ABC004068FCF729BE002211464068FCF714BE42
:108ACC00002202214068FCF717BE00231A464068BA
:108ADC00FCF702BE38B5054688B104684CB1A368F2
:108AEC001BB103222146204698471021204600F056
:108AFC00D1FB28461421BDE8384000F0CBBB38BD73
:108B0C0010B103685B681847704710B503680446DA
:108B1C00BBB15868FCF75CFC78B923685A7C12B975
:108B2C005868FCF75DFC23685868FCF761FC20680A
:108B3C000023236028B1FFF7CDFF206808B1FFF7B1
:108B4C00C9FF204610BD38B50446D0F8C40108B1A1
:108B5C00FBF79FFAD4F8C00108B1FCF759FCD4F824
:108B6C00BC5135B12846FFF7D0FF0421284600F050
:108B7C0091FB206808B1FFF7C3FF204638BD000009
:108B8C0010B5044B044640F8083BFFF7DCFF2046C9
:108B9C0010BD00BFB4AD0D0038B50E4C0E4B2360AC
:108BAC000025022304F5E4706360A560C4F8C45189
:108BBC00C4F8C851FCF724FC084BC4F8CC5184F819
:108BCC00D05123602046064A0649BDE8384000F0E3
:108BDC0053BB00BF1CE503201CAE0D00B4AD0D0053
:108BEC0048D803208D8B0D00002211464068FCF7FD
:108BFC008BBD002211464068FCF7A6BD0022114631
:108C0C004068FCF7B1BD00224068FCF7A5BD00220E
:108C1C0081F001014068FCF78FBD00231A4619460C
:108C2C004068FCF781BD00231A4619464068FCF7E2
:108C3C0073BD002211464068FCF756BD002202218C
:108C4C004068FCF759BD00231A464068FCF744BD48
:108C5C00024B04225A60024A1A607047F0E6032065
:108C6C00E8AD0D0000231A464068FCF735BD002224
:108C7C0002214068FCF740BD002211464068FCF719
:108C8C0033BD002211464068FCF73EBD00231A4656
:108C9C0019464068FCF740BD00231A461946406847
:108CAC00FCF742BD002281F001014068FCF744BD95
:108CBC0000224068FCF750BD002211464068FCF7CA
:108CCC0053BD002211464068FCF73EBD2DE9F04330
:108CDC00002495B016460D460746FFF735FD214694
:108CEC0020220CA8009400F0ACFD40230C932146EC
:108CFC006B460CAA3046FCF781FA0446002844D196
:108D0C00024601216868FCF7FFFC022180462246DE
:108D1C006868FCF7F9FC009E81462146002E34D091
:108D2C00002932D17368022B02D00A2B09D02AE019
:108D3C00B8F1000F27D0716938460431FFF731FDC7
:108D4C0020E0B9F1000F1ED07469112201A800F0C7
:108D5C0078FD06238DF8143001AD04F108031834A6
:108D6C00186859682A4603C20833A3421546F7D13E
:108D7C0001A906A807ADFFF7F5FC0FCD3C1D0FC4EC
:108D8C002B6823700121F669C8E70098FCF72EFACE
:108D9C00384615B0BDE8F083024B034A1A60002236
:108DAC005A607047F8E603201CAE0D0000F110026B
:108DBC00012312F8101C0129104604D152F8041C8E
:108DCC0003EB410304E0022904BF52F8041C5B18B6
:108DDC00013B02F11002ECD170470EB42DE9F041C9
:108DEC0087B000AF07F13404054654F8046B7C607F
:108DFC0023463246102107F10800FCF7F5FC0F283A
:108E0C0016D900F1080323F00703E846ADEB030D78
:108E1C003246411C234668467C60FCF7E5FC021E8A
:108E2C0004DD2B6869469B6828469847C54607E0D1
:108E3C0030B12B6802469B6807F108012846984719
:108E4C001C37BD46BDE8F04103B0704713B502AB0B
:108E5C00026803F8011D946819460122A04702B06C
:108E6C0010BD8368FBB11A78032A1AD8DFE802F028
:108E7C000417021D0520704702685B685268D05CBD
:108E8C002D2814D0A0F13003092B10D9742810D040
:108E9C0066280ED0A0F16E03584258417047062048
:108EAC007047002070471846704704207047032015
:108EBC0070470220704710B50446FFF7D2FF022816
:108ECC000DD016D3042814D82268A36850685B68A8
:108EDC000A2200211844BDE8104000F0E9BD2268C8
:108EEC00A36852685B68D05CA0F174035842584187
:108EFC0010BD002010BD10B5436904465BB18068FD
:108F0C00E060013B1030A060206163612BB1FFF782
:108F1C004DFFA06001E0184610BD012010BD10B53A
:108F2C007D210446FFF792FF01232371204610BDDB
:108F3C0008B50379012B02D0022B02D008BD2C21DD
:108F4C0000E03A21FFF782FF08BD10B50446FFF799
:108F5C00EFFF20467B21FFF779FF0023237120468A
:108F6C0010BD000038B504460D46FFF7E1FF23683D
:108F7C000449DB6820462A46984701232371204682
:108F8C0038BD00BF9FA50D0038B504460D46FFF750
:108F9C00CFFF23680449DB6820462A469847012303
:108FAC002371204638BD00BF3EA30D00F8B50D4619
:108FBC001746222104462F44FFF748FF2A4629462C
:108FCC00BA4238D0164616F8015B222D03D05C2D20
:108FDC0001D01F2D2DD82368521A9B682046984724
:108FEC005C212046FFF732FF0C2D19D007D8092D34
:108FFC000FD00A2D12D0082D14D162210AE0222D97
:10900C0005D05C2D03D00D2D0CD1722102E0294628
:10901C0000E074212046FFF719FF09E06E21F9E703
:10902C006621F7E723680A49DB682A4620469847F9
:10903C0031463246C4E7914204D02368521A9D68E7
:10904C002046A84722212046FFF700FFF8BD00BFAD
:10905C0065AE0D0070B504460D461646FFF768FF69
:10906C00204632462946FFF7A1FF022323712046F2
:10907C0070BD70B504460D461646FFF759FF2046E5
:10908C0032462946FFF792FF01232371204670BD1B
:10909C0010B500230446036043601048A060E360F1
:1090AC00D1B10B78032B06D0B3B9136858684B6851
:1090BC00C35C6E2B08D0136858684B680344A360DC
:1090CC008B6849685B1AE3601146204651F8043BF3
:1090DC0040F8043BFDF7CCFB204610BD6CAC0D00FA
:1090EC00002310B50446036043608360C3600361D2
:1090FC00436171B10B78012B0BD101F1100383602B
:10910C00CB684361114651F8043B40F8043BFDF732
:10911C00AFFB204610BD002310B50446036043602E
:10912C00816031B1114651F8043B40F8043BFDF726
:10913C009FFB204610BD000070B5184E316811F031
:10914C00010504460AD13046FAF7B0FF30B1294682
:10915C001348FCF797FB3046FAF7ADFF1048FCF7C5
:10916C009BFB28B1A4F10B03022B01D8002070BD8E
:10917C0000F05CF8FFF776FC08B1012CF6D9FFF78C
:10918C000DFCFFF707FC18B1A4F10903012BEDD975
:10919C00232C8CBF0020012070BD00BF00E70320F2
:1091AC0004E70320232838B504460D460AD8FF29C6
:1091BC0008D0FFF7C1FF28B129462046BDE838404A
:1091CC00FCF72CB838BD38B504460D46FCF72EF824
:1091DC00FF2810D0062804D84D2323FA00F0C3072B
:1091EC0009D42046FFF7A8FF28B129462046BDE840
:1091FC003840FCF723B838BD70B5044614252A4610
:10920C00094E002100F01DFB258020253146A5606C
:10921C002561284600F040F831466060284600F091
:10922C003BF8E060204670BD6BAE0D0030B50E4DC6
:10923C00296811F0010487B013D12846FAF736FFDC
:10924C0078B101A8FFF7D8FF01AA21460748FFF71C
:10925C00F7FB2846FAF72FFF054A0649034800F0AA
:10926C000BF8024807B030BD10E7032014E70320C9
:10927C0048D80320F5890D000B460146184600F02E
:10928C00A5B90000024B1868BFF35F8F704700BF91
:10929C0028E70320FAF7FBBE00F000B810B5002851
:1092AC0014BF044601242046FCF776FA20B9FFF7D8
:1092BC00E9FF08B18047F6E710BD0000184B1A68AB
:1092CC00D1075CBF01221A60164B1A68D2075CBF2B
:1092DC0001221A60144B1A68D0075CBF01221A6075
:1092EC00124B1A68D1075CBF01221A60104B1A6826
:1092FC00D2075CBF01221A600E4B1A68D0075CBF04
:10930C0001221A600C4B1A68D1075CBF01221A604B
:10931C000A4B1A68D2075CBF01221A60704700BF63
:10932C0048E7032044E7032040E703203CE7032001
:10933C0038E7032034E7032030E703202CE7032031
:10934C00244B1A68D0075CBF01221A60224B1A68A2
:10935C00D1075CBF01221A60204B1A68D2075CBF90
:10936C0001221A601E4B1A68D0075CBF01221A60DA
:10937C001C4B1A68D1075CBF01221A601A4B1A6881
:10938C00D2075CBF01221A60184B1A68D0075CBF69
:10939C0001221A60164B1A68D1075CBF01221A60B1
:1093AC00144B1A68D2075CBF01221A60124B1A6860
:1093BC00D0075CBF01221A60104B1A68D1075CBF42
:1093CC0001221A600E4B1A68D2075CBF01221A6088
:1093DC00704700BF78E7032074E7032070E7032091
:1093EC006CE7032068E7032064E7032060E70320B1
:1093FC005CE7032058E7032054E7032050E70320E1
:10940C004CE70320244B1A68D0075CBF01221A607A
:10941C00224B1A68D1075CBF01221A60204B1A68D4
:10942C00D2075CBF01221A601E4B1A68D0075CBFC2
:10943C0001221A601C4B1A68D1075CBF01221A600A
:10944C001A4B1A68D2075CBF01221A60184B1A68B3
:10945C00D0075CBF01221A60164B1A68D1075CBF9B
:10946C0001221A60144B1A68D2075CBF01221A60E1
:10947C00124B1A68D0075CBF01221A60104B1A6895
:10948C00D1075CBF01221A600E4B1A68D2075CBF71
:10949C0001221A60704700BFA8E70320A4E703204D
:1094AC00A0E703209CE7032098E7032094E7032020
:1094BC0090E703208CE7032088E7032084E7032050
:1094CC0080E703207CE70320184B1A68D1075CBFA8
:1094DC0001221A60164B1A68D2075CBF01221A606F
:1094EC00144B1A68D0075CBF01221A60124B1A6821
:1094FC00D1075CBF01221A60104B1A68D2075CBFFF
:10950C0001221A600E4B1A68D0075CBF01221A6048
:10951C000C4B1A68D1075CBF01221A600A4B1A68FF
:10952C00D2075CBF01221A60704700BFC8E7032056
:10953C00C4E70320C0E70320BCE70320B8E70320FF
:10954C00B4E70320B0E70320ACE70320094B70B568
:10955C001C68256C06463DB91A20FCF71DF91A2229
:10956C002064294600F06DF9216C3046BDE870404E
:10957C0000F002B8F4D7032010B50C46416903691A
:10958C00826986B001F26C710491016803914168A3
:10959C00029181680191C1680091074903EB430373
:1095AC000B44064902EB42020A4420460449FCF7EC
:1095BC000BF9204606B010BD81AE0D006CAE0D004F
:1095CC00A5AE0D000A22002100F072BA10B5054CB0
:1095DC0013462CB10A4601460220AFF3008010BDA1
:1095EC00204610BD0000000038B5074B1C68E36B2B
:1095FC0005461BB92420FCF7CFF8E063E16B284645
:10960C00BDE8384000F002B8F4D703202DE9F04152
:10961C000C46804600F05EFD21460746404600F0B1
:10962C005DFD466906F26C76B307044605D16422EB
:10963C0096FBF2F302FB13634BB94FF4C87596FB20
:10964C00F5F305FB1365B5FA85F35B0900E001231F
:10965C005F4A302505FB032500F070FB00F070FB22
:10966C005C4B1B68F3B17B689E4205D13968D8F816
:10967C000030FA6941B90AE0304600F0B7FA002828
:10968C00F4D14FF0FF330DE0934208DB01E093423D
:10969C0007DABA6B9342ACBF0023012302E000232C
:1096AC0000E001232362236A012B0CBFF96B396A9A
:1096BC004FF461633C2091FBF3F603FB16136168D6
:1096CC0093FBF0F200FB12302368891AA2686160E8
:1096DC001B1A921B3B2B2360A26003DD01316160DE
:1096EC003C3B04E0002B03DA013961603C3323601E
:1096FC0063683B2B03DD0132A2603C3B04E0002B92
:10970C0003DA013AA2603C336360A368172B22DDB5
:10971C00E2690132E261A2690132062AC8BF002265
:10972C00A261E268183B0132A3602369E26055F83C
:10973C0023108A4246DD01330C2B0CBF6369236175
:10974C00A2EB0102E26001BF0133002222616361DE
:10975C0008BFE26136E0002B34DAE269013AE261DB
:10976C00A269013A48BF0622A261E2681833013AA5
:10977C00E260A36032BB2369013B01D423611DE08D
:10978C000B23236163695A1E12F0030F626103F20B
:10979C006B7305D1642193FBF1F201FB12324AB9D0
:1097AC004FF4C87193FBF1F201FB1233B3FA83F35C
:1097BC005B0900E0012303F5B673E361236955F8F7
:1097CC002330E36000F0BBFA2046BDE8F08100BF17
:1097DC002CB00D00E8E7032010B50139024490428B
:1097EC0007D010F8013B11F8014FA342F7D0181B1A
:1097FC0010BD002010BD10B5431E0A44914204D088
:10980C0011F8014B03F8014FF8E710BD884210B571
:10981C0001EB020301D8421E0BE09842FBD28118E7
:10982C00D21AD34204D013F8014D01F8014DF8E7D8
:10983C0010BD994204D011F8014B02F8014FF8E722
:10984C0010BD02440346934202D003F8011BFAE711
:10985C007047000038B5124B1C68A36B0546D3B992
:10986C001820FBF799FF43F20E33A06303804AF6EE
:10987C00CD33438041F2342383804EF26D63C38039
:10988C004DF6EC630381052343810B238381012275
:10989C000023C0E90423A36B00221D615A6138BD6B
:1098AC00F4D70320C9B2034610F8012B1AB1914228
:1098BC00F9D11846704700290CBF18460020704794
:1098CC0010B50446FFF7EEFF18B9204600F014F867
:1098DC00204410BD10F8012B11F8013B012A28BFC0
:1098EC009A42F7D0D01A7047034611F8012B03F8AF
:1098FC00012B002AF9D17047034613F8012B002ADB
:10990C00FBD1181A0138704730B582B1451E0139A8
:10991C0015F8013F11F8014FA34206D1EC43144452
:10992C00E04201D0002BF3D11C46181B30BD104671
:10993C0030BD10B5034601448B4204D01A785C1C30
:10994C000AB12346F8E7181A10BD38B503460D4680
:10995C0041B1002429461846FFF7A4FF30B1431C3F
:10996C000446F7E7BDE83840FFF79CBF204638BDFA
:10997C00F0B5037863B90B78002B18BF0020F0BD4D
:10998C0015F8012F62B114F8017F97423046F7D0D9
:10999C000346461C007810B14D1E5C1EF0E7F0BD6E
:1099AC001846F0BD2DE9F04780464048D0F80090AD
:1099BC000F463D4615F8014B09EB0400407800F0CA
:1099CC00080000F0FF0608B12F46F2E72D2C03D15A
:1099DC00BD1C7C78012603E02B2C04BF7C78BD1CBD
:1099EC0013B1102B0AD15BE0302C57D1287800F042
:1099FC00DF0058284DD16C7810230235002E14BF8F
:109A0C004FF0004C6FF0004C0027BCFBF3FA3846CB
:109A1C0003FB1ACC09EB040E9EF801E01EF0040FB8
:109A2C0001D0303C0BE01EF0030E1BD0BEF1010F39
:109A3C000CBF4FF0370E4FF0570ECEEB0404A34281
:109A4C0010DDB7F1FF3F0AD0504506D801D164456F
:109A5C0003DC03FB0040012701E04FF0FF3715F852
:109A6C00014BD7E77B1C0CD1002E4FF0220314BF07
:109A7C004FF000406FF00040C8F800302AB9BDE844
:109A8C00F08706B1404272B107B1691E1160BDE8A2
:109A9C00F0873024002BB1D10823AFE70A23ADE7C0
:109AAC00302CA3D0AAE7BDE8F08700BF90D70320E5
:109ABC0013460A46014602480068FFF773BF00BF11
:109ACC00F4D703202DE9F04780463C48D0F80090AD
