:02000002D0002C
:1040000000400D00E4A00D00000006000C000501BA
:084010000401E80500000000B6
:0440180074920D0091
:10401C0009480A49884208B505D0094A824202D0AB
:10402C00121A04F0AEFF0748074A0021121A04F0D6
:10403C00CEFF014808BD00BF48D8032034A00D00B6
:10404C00D0D80320D0D80320F0E7032070B504F0BB
:10405C00CBF8074C074BE41AA40800251E46A542D2
:10406C0004D056F8253098470135F8E770BD00BFED
:10407C002CA00D00F49F0D0000F010BD08B500F051
:10408C0011FBBDE8084004F071B801F0A9B901F0CA
:10409C00AFB901F0ADB9000008B5034A00210C20FE
:1040AC0001F0CAF8FEE700BFF14E0D000078B0FA3F
:1040BC0080F0400970470123037070477047006A15
:1040CC000368DB681847000008B501F021FB024BC0
:1040DC001880012008BD00BF58D8032008B501F096
:1040EC0017FB024B1880012008BD00BF56D80320D7
:1040FC0008B501F00DFB024B1880012008BD00BF74
:10410C0048D8032070B588B004460F490F4E684656
:10411C0001F035FA6946204601F0BCFAC5B22146D9
:10412C002B46002204A801F0B9FA04A801F0F0FA19
:10413C0026F8020F04A801F0DBF9029A00212A44A8
:10414C00204601F0CBFAE5E7B8920D004ED80320DB
:10415C0070B588B004460F490F4E684601F00FFA4F
:10416C006946204601F096FAC5B221462B4600223C
:10417C0004A801F093FA04A801F0CAFA26F8020F79
:10418C0004A801F0B5F9029A00212A44204601F056
:10419C00A5FAE5E7B8920D004AD8032010B50446FD
:1041AC00006808B101F024F9204610BD0A4B10B587
:1041BC000446036003F0B8F8214603F0A5FA04F0B6
:1041CC0045F904F037F92046044B40F8043B03F062
:1041DC00A1F9204610BD00BFA8920D0090920D00D1
:1041EC0010B50446FFF7E2FF2046242104F04EFDF3
:1041FC00204610BD0EB400B58CB00DAA202352F889
:10420C00041B03928DE8060004930168002304AAA2
:10421C001E20059301F020F80CB05DF804EB03B000
:10422C007047000008B5044B90F90020034904487E
:10423C001A80FFF7DFFF08BD4AD80320BA920D00A1
:10424C000CE4032008B5034902780348FFF7D2FFBA
:10425C0008BD00BFE5920D000CE4032007B50388F0
:10426C00ADF80630BDF8062003490448FFF7C2FF3D
:10427C0003B05DF804FB00BFFF920D000CE40320BB
:10428C0007B50388ADF80630BDF80620034904488D
:10429C00FFF7B0FF03B05DF804FB00BF1B930D00EC
:1042AC000CE4032008B5034990F900200248FFF7FD
:1042BC00A1FF08BD37930D000CE4032013B5038850
:1042CC00ADF80630BDF80640044905482246FFF714
:1042DC0091FF044B1C8002B010BD00BF62930D0017
:1042EC000CE4032074E3032013B50246044652F891
:1042FC00010F247851686B4603C322460A490B48C8
:10430C00FFF778FF0CB90A4902E0012C04D10949E6
:10431C000648FFF76FFF04E0224607490348FFF702
:10432C0069FF02B010BD00BF7B930D000CE40320AD
:10433C0099930D00B2930D00CD930D0010B50F4B5A
:10434C001A880F4B1B889A420E4B13D20E4A0F49F8
:10435C001268B1F90240944202DA5A68024404E04D
:10436C00B1F900108A4205DD00225A601A68104427
:10437C00186010BD00225A601A6010BD74E303204F
:10438C0048D80320A8E3032044D9032050D80320A5
:10439C00164B1A7872B1164B1B6813F0070303D136
:1043AC000021FF2208460EE0042B1ED100221146EC
:1043BC00104608E0DA7842B10D4B1B68DA07F5D4E9
:1043CC0000221146FF2003F091BE9A7832B1084BBF
:1043DC001B6813F00303F3D0022BE6E75B7823B1E1
:1043EC00034B1B68DB07E1D4DAE7704776E3032065
:1043FC003CE3032008B5024603282CD8DFE800F084
:10440C00020D1221174B1878002829D0164B1B8847
:10441C00834234BF0020012008BD144B144A1B8872
:10442C00126803E0114B124A5B8852689A4216D309
:10443C00104A114B10881B8883422CBF002001208E
:10444C0008BD0E4A0E4B1068B3F904308342ACBF62
:10445C000020012008BD0B490B48FFF7CBFE0020C4
:10446C0008BD00BF38E3032056D803204CD80320E6
:10447C00A8E3032048D8032074E3032044D9032085
:10448C0050D8032015940D000CE40320032810B51C
:10449C00044614D80D4B01221A5403F0F3FD0C4BB7
:1044AC00C11703EBC403002CC3E9000122460CBF67
:1044BC000123022307490848FFF79CFE10BD024662
:1044CC0006490548FFF796FE10BD00BF76E30320B2
:1044DC0080E3032086940D000CE40320AE940D00C1
:1044EC0013B50246044652F8010F247851686B4606
:1044FC0003C3224608480949FFF77CFE084B0020FD
:10450C001C70FFF777FF28B1002002B0BDE8104007
:10451C00FFF7BCBF02B010BD0CE4032017950D00D3
:10452C0038E303201FB50246044652F8020F5168C7
:10453C0002AB03C32388ADF80630BDF8064009482A
:10454C0009492246FFF756FE084B03201C60FFF773
:10455C0051FF28B1032004B0BDE81040FFF796BF0F
:10456C0004B010BD0CE4032032950D0044D9032097
:10457C00032813B504461AD803F084FD0F4B1049D9
:10458C0053F83430002CA0EB030000900CBF012337
:10459C00022322460B48FFF72DFE00220A4B114640
:1045AC0010461A5502B0BDE8104003F09FBD0246FC
:1045BC0006490448FFF71EFE02B010BD80E303203D
:1045CC004A950D000CE4032076E30320A9950D0019
:1045DC007FB506461049114D684600F0D0FF69467C
:1045EC00304601F02DF80446684600F081FF44B9CE
:1045FC002B5D13B12046FFF7BBFF0134042CF7D120
:10460C0006E0304601F084F82B5C0BB1FFF7B0FFED
:10461C00012004B070BD00BF12960D0076E303209C
:10462C002DE9F041DFF874801B4D0746002414F887
:10463C0008301A4EA3B12046FFF7DCFE68B935F8F6
:10464C001430174A3B4412889BB29A4225F8143016
:10465C0006D82046FFF78CFF02E0002325F8143023
:10466C000134042CE3D1B3781BB90220FFF7C2FE4E
:10467C0038B9737873B90120FFF7BCFE28B9BDE8CF
:10468C00F0810220FFF702FFF3E70120BDE8F041C3
:10469C00FFF7FCBEBDE8F08150D9032076E3032080
:1046AC0058D803202DE9F0418E488EB001F03AFD28
:1046BC00054668B38C4C00F01DFC22688B4B12F045
:1046CC00070F18601D4605D10220FFF7A9FF022035
:1046DC00FFF734FEFFF75CFE226812F007030CD1E3
:1046EC000EA9834821F8142D022201F00BFCBDF811
:1046FC00242080498048FFF77DFD2D6800F0FAFBEF
:10470C00FA35281A03F0D0FC23680133236083E1C7
:10471C007A4979487A4EFFF76DFD01F063FD1E2250
:10472C00774901F0B5FD0746BD4280F2C88054249C
:10473C006C4304A801F026F904F10800012204A935
:10474C00304401F085FB6F4980466B48FFF752FD02
:10475C0034446D4909A800F012FF00222146684636
:10476C0001F0FFF8694609A800F05EFF0168624895
:10477C00FFF740FD684600F0BBFE09A800F0B8FE4C
:10478C00624909A800F0FBFE002204A9684601F06A
:10479C0089FA694609A800F047FF01685648FFF7F7
:1047AC0029FD684600F0A4FE09A800F0A1FE5849B6
:1047BC0009A800F0E4FE00225649684601F072FA9E
:1047CC00694609A800F030FF01684B48FFF712FD5D
:1047DC00684600F08DFE09A800F08AFE4E4909A833
:1047EC0000F0CDFE00224D49684601F05BFA6946A7
:1047FC0009A800F019FF01683F48FFF7FBFC684669
:10480C0000F076FE09A800F073FEB8F1000F54D04A
:10481C00404904A801F056F9002800F09F80364862
:10482C003F49FFF7E7FC2F4801F07CFC002851D1F1
:10483C0001F0D8FC01232246014609A802F0E6F952
:10484C0009A9284801F05DFE09A801F07DFD254865
:10485C0001F068FC00283BD032492748FFF7CAFC1E
:10486C00314909A801F0A4F909AA30491D4801F001
:10487C0024FE2F4909A801F09BF909AA2D491948D2
:10488C0001F01BFE2C4909A801F092F909AA2B4949
:10489C00144801F012FE2A4909A801F089F909AA65
:1048AC002849104801F009FE274909A801F080F9B0
:1048BC000F490C4809AA01F000FE013534E7002F1E
:1048CC0040F3AA803A4621490B48FFF793FCA3E03A
:1048DC001F4902E01F4900E01F490748FFF78AFC07
:1048EC00EBE700BF48D903203CE3032038D9032071
:1048FC00DCD8032096930D000CE4032016960D00D3
:10490C0058D9032027960D0041960D004B960D00AB
:10491C0058960D0024D903206B960D00F4D8032073
:10492C00B8980D007E960D00A7960D00E4D80320D4
:10493C00CC960D0030E30320F1960D0008D903202E
:10494C0016970D0040E303203B970D00A7980D0030
:10495C0060970D0084970D0062980D00304904A8F3
:10496C0001F0B0F80028A8D02E482F49FFF742FCE0
:10497C002E4801F0D7FB00284CD101F033FC012369
:10498C002246014609A802F041F909A9274801F07D
:10499C00B8FD09A801F0D8FC244801F0C3FB00289D
:1049AC009AD023491F48FFF725FC224909A801F09A
:1049BC00FFF809AA20491D4801F07FFD1F4909A8ED
:1049CC0001F0F6F809AA1E49184801F076FD1D49B8
:1049DC0009A801F0EDF809AA1B49144801F06DFD76
:1049EC001A4909A801F0E4F809AA19490F4801F07D
:1049FC0064FD184909A801F0DBF809AA16490B480F
:104A0C0001F05BFD154909A801F0D2F809AA144977
:104A1C00064850E7134960E70EB0BDE8F08100BFCF
:104A2C00F4D803200CE40320CD980D00A0E3032060
:104A3C00A5970D00A7960D00ECD80320CE970D007E
:104A4C00D4D80320F3970D00B0E3032018980D0081
:104A5C003CD9032016970D0048E303203D980D0028
:104A6C0010D9032086980D0070B50468436814268D
:104A7C00054606FB0346A64204D0204600F038FD4E
:104A8C001434F8E7286800F0B3FC284670BD000029
:104A9C000246014803F0EABB4D820D0007B52B49D5
:104AAC002B48FFF7F5FF2B492B48FFF7F1FF2B495C
:104ABC002B48FFF7EDFF2B492B48FFF7E9FF2B495C
:104ACC002B48FFF7E5FF2B492B48FFF7E1FF0120AF
:104ADC0003F0FCFA02A8012200F8012D41F6C67180
:104AEC0000F03AFB01F07EFB01F0C2FB00222349EF
:104AFC00234801F0A9FA00222249234801F0A4FA24
:104B0C0000222249224801F09FFA00222149224822
:104B1C0001F09AFA00222149214801F095FA00226D
:104B2C002049214801F090FA00222049204801F048
:104B3C008BFA00221F49204801F086FA00221F49F7
:104B4C001F4801F081FA03B05DF804FBDD450D0050
:104B5C00E2980D00D5400D00ED980D00E9400D00D8
:104B6C0002990D00FD400D0017990D0011410D002B
:104B7C0029990D005D410D003D990D0031420D004C
:104B8C00E4D8032051420D0030E30320ED440D0026
:104B9C0008D9032069420D0040E30320B1420D0007
:104BAC00ECD80320C9420D00D4D8032031450D00A8
:104BBC00B0E30320F5420D003CD903208D420D00DB
:104BCC0048E303208842F8B506460C46154616D92C
:104BDC00904215D2A2F114056C1AA1F114070444E9
:104BEC00AF421CD02CB12946204600F071FC2B7C26
:104BFC002374284600F07CFC143D143CF0E70ED0E6
:104C0C00AC420CD02EB12146304600F061FC237C26
:104C1C003374204600F06CFC14341436F0E7F8BD05
:104C2C002DE9F04100230360436083604E689E428F
:104C3C0004460F4624DD4FF0140808FB06F000F084
:104C4C00CFFB0546E0B194E8060008FB0212FFF723
:104C5C00B9FF206800F0CCFB2560A6603E687B683D
:104C6C0008FB0368464509D02DB13146284600F0B3
:104C7C00A8FC337C2B7414361435F3E77B68636023
:104C8C002046BDE8F081000070B56A4D8CB000F094
:104C9C0019F900244FF6FF736B812C60AC80AC715A
:104CAC002C81012000F0F8FA634A6449284603F08D
:104CBC00E0FF00940194029403F0C8FB6946064699
:104CCC0003A85F4DFFF7ACFF03A906A8FFF7A8FFE9
:104CDC005C4B2B6006A909A8FFF7A2FF09AA0121CA
:104CEC00281D02F078FE09A8FFF7BEFE06A8FFF704
:104CFC00BBFE554B2B602E6203A8FFF7B5FE534B42
:104D0C002B6003F0A3FB4FF4165103F08FFB02F062
:104D1C000BFB294602F0F2FD6846FFF7A5FE464A5A
:104D2C004B49284603F0A5FF4A484B4D01F066FB62
:104D3C00414A4A49474803F09CFF494801F05EFB51
:104D4C003D4A4649464803F094FF4649464800F020
:104D5C002FFF4649464800F02BFF464801F0BAFFAA
:104D6C00354A4549434803F084FF444801F0B2FFFB
:104D7C00314A4149414803F07CFF414801F0AAFF08
:104D8C002D4A3D493E4803F074FF3E4801F0A2FF16
:104D9C00294A39493B4803F06CFF3B4801F09AFF24
:104DAC00254A3549384803F064FF384801F092FF32
:104DBC00214A3149354803F05CFF354801F08AFF40
:104DCC001D4A2D49324803F054FF324801F082FF4E
:104DDC00194A29492F4803F04CFF2F4801F07AFF5C
:104DEC00154A25492C4803F044FF2C4801F072FF6A
:104DFC00114A2149294803F03CFF294801F06AFF78
:104E0C000D4A1D49264803F034FF40F6D8162819E0
:104E1C0000F038FD04F10800284400F0C2FF04F152
:104E2C002C002844543400F0BCFFB442EFD10CB039
:104E3C0070BD00BF18D90320D0D80320A9410D00A4
:104E4C0050E3032090920D00EC9C0D00A8920D00F5
:104E5C00B9410D0048D9032058D9032055630D00E2
:104E6C00A0E3032058990D0024D903207D990D004F
:104E7C00F4D80320E4D8032047630D0030E303206B
:104E8C0008D9032040E30320DCD80320ECD803200E
:104E9C00D4D80320B0E303203CD9032048E30320FB
:104EAC0010D9032008B5024B1B689B68019308BD01
:104EBC006802030008B5024B1B68DB68019308BD50
:104ECC006802030008B5024B1B681B68019308BD00
:104EDC002C02030008B5024B1B685B68019308BDEC
:104EEC001802030008B5024B1B68DB68019308BD70
:104EFC001802030008B5024B1B685B69019308BDDF
:104F0C001802030008B5024B1B68DB69019308BD4E
:104F1C001802030008B5024B1B689B6D019308BD7A
:104F2C001802030008B5024B1B689B68019308BD6F
:104F3C007802030008B5024B1B68DB6F019308BDB8
:104F4C007802030008B5034B1B68D3F88430019337
:104F5C0008BD00007802030008B5034B1B68D3F8AA
:104F6C009830019308BD00007802030008B5034B8C
:104F7C001B68D3F8B430019308BD0000780203001D
:104F8C0008B5034B1B68D3F8BC30019308BD000077
:104F9C007802030008B5034B1B68D3F8C4300193A7
:104FAC0008BD00007802030008B5034B1B68D3F85A
:104FBC00D830019308BD00007802030008B5034BFC
:104FCC001B68D3F8DC30019308BD000078020300A5
:104FDC0008B5034B1B68D3F8E030019308BD000003
:104FEC007802030008B5034B1B68D3F8E430019337
:104FFC0008BD00007802030008B5034B1B68D3F80A
:10500C00F030019308BD00007802030008B5034B93
:10501C001B68D3F8F430019308BD0000780203003C
:10502C0008B5034B1B68D3F80031019308BD000091
:10503C007802030008B5034B1B68D3F804310193C5
:10504C0008BD00007802030008B5024B1B689B6882
:10505C00019308BD4802030008B5024B1B681B698D
:10506C00019308BD4802030008B5024B1B685B693D
:10507C00019308BD4802030008B5024B1B685B6C2A
:10508C00019308BD4802030008B5024B1B689B6CDA
:10509C00019308BD4802030008B5024B1B68DB6C8A
:1050AC00019308BD4802030008B5024B1B685B6DF9
:1050BC00019308BD4802030008B5024B1B685B69ED
:1050CC00019308BD6402030008B5024B1B681B6802
:1050DC00019308BD3C02030008B5024B1B689B689A
:1050EC00019308BD3C02030008B5024B1B68DB684A
:1050FC00019308BD3C02030008B5024B1B681B69F9
:10510C00019308BD3C02030008B5024B1B685B69A8
:10511C00019308BD3C02030008B5024B1B689B6958
:10512C00019308BD3C02030008B5024B1B68DB6908
:10513C00019308BD3C02030008B5024B1B689B6A37
:10514C00019308BD3C02030008B5024B1B68DB6AE7
:10515C00019308BD3C02030008B5024B1B685B6859
:10516C00019308BD5802030008B5024B1B681B686D
:10517C00019308BD4C02030008B5024B1B685B6829
:10518C00019308BD4C02030008B5024B1B689B68D9
:10519C00019308BD4C02030008B5024B1B681B6948
:1051AC00019308BD4C02030008B5024B1B685B69F8
:1051BC00019308BD4C02030008B5024B1B689B69A8
:1051CC00019308BD4C02030008B5024B1B68DB6958
:1051DC00019308BD4C02030008B5024B1B681B6A07
:1051EC00019308BD4C02030008B5024B1B685B68B9
:1051FC00019308BD6002030008B5024B1B689B6855
:10520C00019308BD6002030008B5024B1B68DB6804
:10521C00019308BD6002030008B5024B1B689B6933
:10522C00019308BD6002030008B5024B1B68DB69E3
:10523C00019308BD6002030008B5024B1B685B6B51
:10524C00019308BD6002030008B5024B1B681B6D7F
:10525C00019308BD6002030008B5024B1B685B6D2F
:10526C00019308BD6002030008B5024B1B68DB6E9E
:10527C00019308BD6002030008B5024B1B681B6F4D
:10528C00019308BD6002030008B5024B1B681B6844
:10529C00019308BD2002030008B5024B1B685B6834
:1052AC00019308BD2002030008B5024B1B685B6923
:1052BC00019308BD2002030008B5024B1B689B6DCF
:1052CC00019308BD2002030008B5034B1B68D3F8FB
:1052DC008830019308BD00002002030008B5034B81
:1052EC001B68D3F89430019308BD00002002030022
:1052FC0008B5024B1B685B68019308BD40020300B4
:10530C0008B5024B1B689B68019308BD4002030063
:10531C0008B5024B1B68DB68019308BD4002030013
:10532C0008B5024B1B681B69019308BD40020300C2
:10533C0008B5024B1B685B69019308BD4002030072
:10534C0008B5024B1B689B69019308BD4002030022
:10535C0008B5024B1B68DB69019308BD40020300D2
:10536C0008B5024B1B681B6A019308BD4002030081
:10537C0008B5024B1B681B6B019308BD4002030070
:10538C0008B5024B1B685B6B019308BD4002030020
:10539C0008B5024B1B685B68019308BD440203000F
:1053AC0008B5024B1B689B68019308BD44020300BF
:1053BC0008B5024B1B685B69019308BD44020300EE
:1053CC0008B5024B1B681B6B019308BD440203001C
:1053DC0008B5024B1B68DB6B019308BD440203004C
:1053EC0008B5024B1B681B68019308BD1C02030027
:1053FC0008B5024B1B685B68019308BD1C020300D7
:10540C0008B5024B1B689B68019308BD1C02030086
:10541C0008B5024B1B685B6A019308BD1C020300B4
:10542C00002211464068FFF79BBF002211464068DE
:10543C00FFF7A6BF00224068FFF79ABF002281F059
:10544C0001014068FFF784BF00231A4619464068E3
:10545C00FFF776BF00231A4619464068FFF768BF6E
:10546C00002211464068FFF75BBF002211464068DE
:10547C00FFF746BF002202214068FFF749BF002317
:10548C001A464068FFF734BF024B03225A60024AA7
:10549C001A607047B8E30320AC990D0010B5094CA5
:1054AC0000204FF6FF732060A080A07120816381E3
:1054BC00FFF7F2FE2046044A0449BDE8104003F011
:1054CC00D8BB00BFC0E30320D0D80320A9410D00F6
:1054DC000023036043608360037310B50C680460A1
:1054EC004C6844608C6884600B604B608B6010BDB2
:1054FC0010B504460068FFF77BFF204610BD10B5C1
:10550C000446006808B1FFF773FF00232360A36013
:10551C00636010BD38B504460D4600680131FFF7D5
:10552C006FFF10B184E82100012038BD10B503686D
:10553C00044613B143688B4207D22046FFF7EAFFBB
:10554C0020B1A3680BB922681370012010BD70B58F
:10555C000E46114604461546FFF7E8FF18B92046DB
:10556C00FFF7CDFF09E02A463146A560206803F01D
:10557C0008FD2268A3680021D154204670BD38B5BF
:10558C000023044603604360836003730D4639B106
:10559C00084603F077FD294602462046FFF7D7FF61
:1055AC00204638BD884210B50B46044607D0096822
:1055BC0019B19A68FFF7CBFF01E0FFF7A0FF204677
:1055CC0010BD10B500230446036043608360037371
:1055DC00FFF7E8FF204610BD38B505460C4641B133
:1055EC00084603F04FFD214602462846FFF7AFFF61
:1055FC0001E0FFF784FF284638BD70B504460E461F
:10560C0009B9002070BD6AB18368D5182946FFF727
:10561C008DFF0028F5D02068A3683146184403F0AC
:10562C0029FDA560012070BD10B58A680968044683
:10563C00FFF7E3FF10B92046FFF761FF204610BDCE
:10564C00884270B515D083688A6893420FD183B1B4
:10565C0004680D68013C14F8010F50B103F0F8FD1B
:10566C00064615F8010B03F0F3FD8642F3D000203B
:10567C0070BD012070BD10B58368934207D90468D2
:10568C000968A01803F03AFD08B1001B10BD4FF0DB
:10569C00FF3010BD0022FFF7EEBF0000F8B59A42B4
:1056AC000F461D460C4988BF13461446064684BF58
:1056BC002C461D46FFF763FFBA6894420AD8396836
:1056CC00954294BFC4EB0502C4EB02022144304660
:1056DC00FFF73DFF3046F8BDB09C0D0038B50446D1
:1056EC000846A3688B4211D982B111448B4238BF52
:1056FC001A1A25689B1A1118A3601A1A29442844EF
:10570C0003F04AFC2268A3680021D154204638BD1E
:10571C00006808B103F014BC704770470020704754
:10572C0070470020704770470020704710B5142157
:10573C00044603F0ABFA204610BD10B51421044604
:10574C0003F0A4FA204610BD10B51421044603F052
:10575C009DFA204610BDFEF79ABCFEF798BCFEF7EA
:10576C0096BC10B50446006808B1FFF78DFC2046C6
:10577C0010BD000030B58BB02023054600240293E9
:10578C00084B009302AA2346074903940120FFF714
:10579C005BFD28680549008823462A46FFF7F0FB85
:1057AC000BB030BD379A0D002C9A0D00ED6E0D002C
:1057BC0008B50A20024A0021FFF73EFD08BD00BFD4
:1057CC00F14E0D0010B5036804469B689847A3681A
:1057DC00013BA3602BB923682046DB68BDE8104071
:1057EC00184710BD70B5931C0144884218D004783A
:1057FC00240904F13005392D88BF04F1370506461C
:10580C0003F8025C347804F00F0404F13005392DF0
:10581C0088BF04F1370503F8015C01300233E4E77B
:10582C00104670BDA0F13003DAB2092A01D818462F
:10583C007047A0F16103052B01D857387047A0F1D0
:10584C004103052B94BF37384FF0FF3070470000F1
:10585C0010B500230370044B04461868FFF71CFCBA
:10586C0001232370204610BDD4E3032010B5037828
:10587C0004461BB1024B1868FFF716FC204610BDFE
:10588C00D4E30320002202604260704708B582799D
:10589C008B799A4206D1062203F064FBB0FA80F0B1
:1058AC00400908BD002008BD01390523C25C01F880
:1058BC00012F013BDBB2FF2BF8D1704770B51446BA
:1058CC0088B01D460E46002946D0002A46D001A9B4
:1058DC00FFF7EAFF03AA15B1062101A82DE001216B
:1058EC0001A8FFF77FFF3A250DF10F0201210DF101
:1058FC0005008DF80E50FFF775FF0DF11202012116
:10590C000DF106008DF81150FFF76CFF0DF115022B
:10591C0001210DF107008DF81450FFF763FF06AA63
:10592C00012102A88DF81750FFF75CFF8DF81A5073
:10593C000DF11B0201210DF10900013CFFF752FF93
:10594C00112C28BF1124224603A9304603F019FB61
:10595C0000233355601C02E0084600E0104608B0F6
:10596C0070BD10B586B0044613460846122201A934
:10597C00FFF7A4FF01A92046FFF701FE204606B061
:10598C0010BD000010B501230361054B024603F165
:10599C00100153F8044B42F8044B8B42F9D110BD63
:1059AC00CC9B0D000B7C13F0FD0330B510D10361C3
:1059BC000D4B024603F1100453F8045B42F8045BF0
:1059CC00A342F9D10B8803730B881B12437330BDB0
:1059DC000123036101F11002034651F8044B43F813
:1059EC00044B9142F9D130BDCC9B0D0010B50B6925
:1059FC00036101F11002034651F8044B43F8044BC8
:105A0C009142F9D110BD10B50B460446B9B1012A2B
:105A1C0009D1034601F1100251F8040B43F8040BB1
:105A2C009142F9D108E0411E0F22985C01F8010F58
:105A3C00013AD2B2FF2AF8D10123236102E01022ED
:105A4C0003F0C5FA204610BD38B504460D46FFF7E5
:105A5C0099FF002325732D0A23616573204638BDF9
:105A6C0010B50B69036101F11002034651F8044BA8
:105A7C0043F8044B9142F9D110BD10B586B00446E1
:105A8C00012201A8FFF7BFFF01A92046FFF7E8FF9D
:105A9C0006B010BD10B586B0044601A8FFF7D4FFC0
:105AAC0001A92046FFF7DCFF06B010BD10B586B08B
:105ABC00044601A8FFF776FF01A92046FFF7D0FFA7
:105ACC0006B010BD08B502690B699A4206D11022C6
:105ADC0003F048FAB0FA80F0400908BD002008BD78
:105AEC000123F7B50361314B0E460546024603F11F
:105AFC00100153F8040B42F8040B8B42F9D1002E21
:105B0C0051D02421304603F0DAFA042810D00027B3
:105B1C0010242421304603F0D2FAB84201D944BBF8
:105B2C0041E02C440023A5423DD004F8013DFAE7A6
:105B3C003078FFF777FE041E18DB7078FFF772FEE3
:105B4C00002813DB40EA04108DF80400B078FFF74E
:105B5C0069FE041E0ADBF078FFF764FE0028A1BF83
:105B6C0040EA04109DF8043028736B7300232B61FA
:105B7C0019E0F05DFFF756FE030612D4013C00015C
:105B8C0028552421304603F09AFA0137874208D26F
:105B9C00F05DFFF747FE40B20028A2BF2B5D184313
:105BAC0028550137B5E703B0F0BD00BFCC9B0D0005
:105BBC0038B504460D46FFF7E5FE20462946FFF7AB
:105BCC008FFF204638BD01390F23C25C01F8012F2D
:105BDC00013BDBB2FF2BF8D170472DE9F041984621
:105BEC008EB00D46002957D0002A57D00669541E96
:105BFC00AEB9027B437B059643EA0223022105AA38
:105C0C0001A8ADF80430FFF7EDFD042C28BF0424E7
:105C1C00224605A9284603F0B4F92E553AE001A90D
:105C2C00FFF7D1FF05AAB8F1000F02D0102101A88F
:105C3C0024E004210DEB0100FFF7D4FD2D260DF11E
:105C4C001D02022102A88DF81C60FFF7CBFD0DF19F
:105C5C00220202210DF10A008DF82160FFF7C2FD2E
:105C6C000DF12702022103A88DF82660FFF7BAFD7B
:105C7C008DF82B600BAA06210DF10E00FFF7B2FD7B
:105C8C00242C28BF2424224605A9284603F079F9A0
:105C9C0000232B55601C02E0084600E010460EB0B5
:105CAC00BDE8F08110B58AB00446002325220846D1
:105CBC006946FFF792FF69462046FFF760FC2046D5
:105CCC000AB010BD38B5054601B112B900202862E2
:105CDC0038BD1F2A28BF1F22144603F052F92C622C
:105CEC00204638BDF0B58BB10024E51C8D420FD891
:105CFC00661C055D875D974205D12E44B14207D3E2
:105D0C001C60681CF0BD01352C44EEE71846F0BD54
:105D1C000020F0BD2DE9F74304460E461D461746FC
:105D2C00002A3AD00A4601AB016AFFF7DBFF9DF867
:105D3C002830226A03BBF8B1961C2E44361A1F2E4B
:105D4C002BD8DDF8048008F10209C8EB0202121A04
:105D5C0000EB080105EB090092B22144204403F04A
:105D6C001BF96B1C04F808302A46394604EB090071
:105D7C0003F007F9266210E0901C2B181F2B0CD88F
:105D8C006B1CA354224420623946567020442A4688
:105D9C0003F0F7F8226A2A442262206A03B0BDE8B5
:105DAC00F0831FB50446034600F11F02002003F8E0
:105DBC00010B93424FF00001F9D104AA062302F81B
:105DCC00013D01232162009120461946FFF7A2FFF5
:105DDC00204604B010BD2DE9F04F002585B00646D5
:105DEC00894617469A462C464FF01408316A8D4264
:105DFC002AD203AB4A46491B7019FFF773FF83463F
:105E0C0010B3544520D2042803990CD1294472189C
:105E1C00631CD1789278019342EA012108FB04704B
:105E2C00FFF738FE0AE012280AD102312944631C1C
:105E3C00314408FB04700193FFF71FFE019B1C46C5
:105E4C00039B5B441D44D1E7204605B0BDE8F08FB1
:105E5C002DE9F04113460D4616460A460221074627
:105E6C00FFF7B9FF4FF01408331A08FB0052044631
:105E7C0003213846FFF7AFFF0444331B08FB0452E1
:105E8C0006213846FFF7A7FF0444331B08FB0452D6
:105E9C0007213846FFF79FFF2044BDE8F081000042
:105EAC0038B500254FF6FF73044643800E22294671
:105EBC0005700571063003F08AF804F11400FFF741
:105ECC0061FD04F12800FFF75DFD044904F13C007D
:105EDC00FFF755FBE5642565204638BDB09C0D00E9
:105EEC0010B58369C26903EBC2029342184606D00F
:105EFC00046824888C4203F10803F6D110BD0020FD
:105F0C0010BD00002DE9F34180461F460E4669B3D3
:105F1C0062B3F42A056828BFF42214462A78A2B189
:105F2C002B79980707D500232246A889FFF71EF87E
:105F3C00002802DA43E06FF07700D8F800502B7994
:105F4C00DA0618D5012F23D115E068884FF6FF73B8
:105F5C0098420DD02B79590723D5012F21D0A9892F
:105F6C00009223463246FFF729F828E0154826E030
:105F7C006FF0D10023E09A0621D5022F1FD0A889FB
:105F8C0000232246314602B0BDE8F041FFF752B87B
:105F9C00A88900232246314602B0BDE8F041FFF744
:105FAC003FB81B0701D5022F02D16FF0770006E036
:105FBC000023A989009332462346FEF7F5FF02B071
:105FCC00BDE8F081F2FEFFFF70B504680E46217843
:105FDC0086B000292ED162884FF6FF739A4229D0E1
:105FEC00238A53B318252A46684602F0F0FF012392
:105FFC00ADF80030134BADF8025001930294638856
:10600C00ADF80C30238AADF80E30A389ADF8103002
:10601C005EB123799A0644BF022305932379DB06EC
:10602C0042BF059B43F00103059300216846FEF730
:10603C00EDFF04E06FF0D10001E06FF0770006B0E7
:10604C0070BD00BF2D620D000368D9641A657047DE
:10605C002DE9F0418AB020230E46029300252E4BE9
:10606C00009302AA2B462D4903950120FFF7ECF86B
:10607C003368DC681F694FF01C0804EBC707083451
:10608C00A4F108039F42326817D0ADF80A8054F887
:10609C00083C9B8AADF8203054F8083CDB8AADF8FC
:1060AC0022301088009533461D4A02A9FEF772FF74
:1060BC00002804F10804E3DA2AE09469D569002782
:1060CC0004EBC5050834A4F108039D421FD054F815
:1060DC00083CDB89CBB11422002102A802F077FF27
:1060EC0054F8083CD989336802AA188800971323FE
:1060FC00FEF76EFF48B10AAB184402A900F8207CE9
:10610C0054F8080C3C30FFF767FA0834DBE7002042
:10611C000AB0BDE8F08100BF539A0D002C9A0D0017
:10612C00356D0D00036818884FF6FF73C01A18BF41
:10613C000120704702680B68C2F802304B68C2F845
:10614C000630704710B50A6852F8023F0360536876
:10615C00436010BD1FB502680B6812881B889A42F9
:10616C000C460CD101466846FFF7ECFF214602A80D
:10617C00FFF7E8FF02A96846FFF788FB00B900208B
:10618C0004B010BD10B504463420FDF77EFF014667
:10619C0068B10023036043608360C36003614361A3
:1061AC008361C361036243628362C36203632160E0
:1061BC0019B90A4A0A20FFF73FF80020FEF7B2FE91
:1061CC0020B1064A00210A20FFF736F80022216888
:1061DC000348FEF711FF204610BD00BFF14E0D0025
:1061EC0061660D0010B50A4C2368DB070ED42046FF
:1061FC00FDF75CFF50B10748FFF7C4FF2046FDF7E1
:10620C005AFF054A0549034802F033FD014810BD09
:10621C00D0E30320CCE30320D0D80320C9630D00C6
:10622C0070B50368093B012B8AB004460E4619D899
:10623C00FFF7D8FFA1880068FFF752FE024658B955
:10624C0020230293084B0390009302AA03460749AC
:10625C003220FEF7F9FF05E0F56C1DB1336DE168F6
:10626C002069A8470AB070BD769A0D002C9A0D00D3
:10627C0013B501A8FFF7ECFA0020FEF753FE044615
:10628C0001A8FFF7F3FA04EAE47002B010BD0000B5
:10629C0030B58BB00D4601A81446FFF7D9FAB5B14D
:1062AC00ACB1002202A90D4806940292039204920A
:1062BC000792089209920595FEF73CFE0028B8BF9C
:1062CC0004460298A8BF079CFFF792F800E0044C24
:1062DC0001A8FFF7CBFA20460BB030BDCF670D00FD
:1062EC00F2FEFFFF0B68036013B15A6801325A606B
:1062FC00704710B551F8043B044640F8043BFFF7D7
:10630C00F1FF23680BB9FFF753FA204610BD10B507
:10631C0051F8043B044640F8043BFFF7E3FF2046EA
:10632C0010BD10B50446006828B14368013B4360BA
:10633C000BB9FFF747FA204610BD10B504460430E0
:10634C00FFF7EFFF204610BD10B504460430FFF7F1
:10635C00E8FF204610BD70B504684368054604EBA1
:10636C00C306A64204D0201DFFF7DBFF0834F8E774
:10637C002868FFF73DF8284670BD70B5046843687F
:10638C00054604EBC306A64204D0201DFFF7C9FF47
:10639C000834F8E72868FFF72BF8284670BD10B5CD
:1063AC00046904F11800FFF7E8FF04F10C00FFF793
:1063BC00D2FF2046BDE81040FDF769BEF8B5046871
:1063CC000746C4B1A569E36905EBC306AE4204D028
:1063DC00281DFFF7A6FF0835F8E7A069FFF708F8B6
:1063EC0004F10C00FFF7C9FF2046FFF7B4FF34217E
:1063FC00204602F04BFC3846F8BD000073B5002572
:10640C000560456006462420FDF73FFE044678B142
:10641C0003464FF6FF7223F8022BC0F802505D6062
:10642C008572C572C560056145618561C56105628E
:10643C00002314200193FDF728FE034628B1012206
:10644C0042608260084A0260046102A8726840F8E7
:10645C00042D73603460FFF764FF33680BB9FFF7EA
:10646C00A7F9304602B070BD189A0D0038B50C680B
:10647C0003689C4205460CD014B163680133636019
:10648C00286828B14368013B43600BB9FFF79AF9C0
:10649C002C60284638BD10B502680B680446D06CD9
:1064AC0010B1D864126D1A65204651F8043B40F8BF
:1064BC00043BFFF7DBFF204610BD2DE9F0430368DA
:1064CC009C69DE6987B00F46904604EBC606B44261
:1064DC00A14611D054F8081B01A81431FFF786FA15
:1064EC00414601A8FFF7EEFA05460028EFD04946D1
:1064FC003846FFF7D0FF00E00025284607B0BDE87E
:10650C00F08310B551F8043B044640F8043BFFF708
:10651C00ADFF204610BD884270B515461AD9904281
:10652C0019D2A1F10806511A0439151F44182B1F52
:10653C009E4225D0042C07D055F8043C44F8043C6A
:10654C0029462046FFF7CEFE2846FFF7EAFE083D17
:10655C00083CECE714D00C1D061D231F9D420FD0E8
:10656C00042E07D054F8043C46F8043C214630462F
:10657C00FFF7B8FE2046FFF7D4FE08340836ECE7E8
:10658C0070BD2DE9F041046843680546884604EB6C
:10659C00C307A74218D041462046FFF7DBFD06464D
:1065AC0008B90834F5E78CB1201DFFF7BAFE2B684B
:1065BC006A6804F1080103EBC2022046FFF7ABFF47
:1065CC006B68013B6B6002E0002600E0264630461B
:1065DC00BDE8F081F7B5044651F8043B47680093D9
:1065EC0001A8FFF77FFE6668A3689E4214DB0136A4
:1065FC00002E0BDDF000FEF7F3FE054618B394E811
:10660C00060001EBC202FFF786FF00E000252068C0
:10661C00FEF7EEFE2560A6602668626806EBC705ED
:10662C0006EBC202294605F10800FFF774FF35B1ED
:10663C00009B46F8373001A9281DFFF753FE63680D
:10664C0001336360012501A8FFF76BFE284603B0F8
:10665C00F0BD00002DE9F04104468EB003A80D46B4
:10666C00FFF7F6F82368032B02D0042B42D087E007
:10667C0004A8FFF7C3FE049B22891A806268049960
:10668C0052F8083FC1F802305368C1F8063007A829
:10669C00049B069305A9FFF725FE06A905F1180032
:1066AC00FFF798FF044607A8FFF73BFE202306934D
:1066BC0074B9364B009306AA234635490794322009
:1066CC00FEF7C2FD049B21461888FEF745FC0DE041
:1066DC00304A0092002306AA2D4907930120FEF7A9
:1066EC00B3FD6B6A13B1E96A04A8984705A8FFF7D4
:1066FC0018FE45E021892846FFF7F2FB07460028E3
:10670C003ED00468A369E1694FF6FF72228003EB67
:10671C00C101994203D053F8080B4280F9E7E668AF
:10672C00236906EBC308B04504D0301DFFF7F9FD13
:10673C000836F8E700232361A669E36906EBC30872
:10674C00B04504D0301DFFF7ECFD0836F8E7002308
:10675C00E361A372E372AB6A13B1296B38469847B5
:10676C0020230D4A06930092002309490793012028
:10677C0006AAFEF769FD394605F11800FFF701FF7F
:10678C0003A8FFF773F80EB0BDE8F0818E9A0D00E8
:10679C002C9A0D00B49A0D00D19A0D0038B50D1E2F
:1067AC00044606DD542169430068FEF729FE20B932
:1067BC0038BD0068FEF71CFE00202060A56001209B
:1067CC0038BD70B55426C0B0054632460C4601A8FB
:1067DC00002102F0FCFB03A8FFF7E3FA0CA8FFF77B
:1067EC00E0FA2A4601AB52F8100F5168EA8903C34C
:1067FC002B78A9688DF854300CA8FFF763FAAA8996
:10680C00696803A8FFF75EFAA5691DB1E16901A8E3
:10681C00A8473CE0E06898B163692269934239D299
:10682C005A1C626106FB0300512201A902F0A9FB6C
:10683C00626923699A422DD32846FEF783FB29E02F
:10684C00324601A916A802F09CFB324616A92BA8C9
:10685C00656802F096FBA3689D4204DB691C204628
:10686C00FFF79CFFB0B163682268542606FB052530
:10687C0006FB0322521B2946A81902F08DFB324657
:10688C002BA9284602F07DFB6368013363606369C2
:10689C000133636140B070BD8842F8B506460C46C2
:1068AC00154614D9904213D2A2F108056C1AA1F125
:1068BC0008070444AF4218D01CB129462046FFF704
:1068CC0026FD281DFFF72DFD083D083CF2E70CD0F6
:1068DC00AC420AD01EB121463046FFF718FD201DF0
:1068EC00FFF71FFD08340836F2E7F8BD70B50E1E31
:1068FC0005460BDDF000FEF773FD044670B195E81C
:10690C00060001EBC202FFF7C7FF00E00024286875
:10691C00FEF76EFD2C60AE60012070BD70BD2DE9E0
:10692C00F04100230360436083600E46496899423E
:10693C00044613DDFFF7DAFF80B13568736827680A
:10694C0005EBC308454507D01FB129463846FFF76C
:10695C00DEFC08350837F5E7736863602046BDE850
:10696C00F08138B50B689B7A05460C4633B908465E
:10697C00FEF700FF10B9236801229A72216828469D
:10698C000C31FFF7CCFF284638BD73B5044645687B
:10699C006846FFF7BCFC6168A368994205DB0131CE
:1069AC002046FFF7A3FF064698B12368626803EB05
:1069BC00C50503EBC202294605F10800FFF76CFF81
:1069CC001DB169462846FFF7A2FC6368013363607A
:1069DC00012601A8FFF7A5FC304602B070BD884225
:1069EC00F8B506460C46154614D9904213D2A2F1BE
:1069FC0008056C1AA1F108070444AF4218D01CB169
:106A0C0029462046FFF775FC281DFFF78AFC083D38
:106A1C00083CF2E70CD0AC420AD01EB121463046FD
:106A2C00FFF767FC201DFFF77CFC08340836F2E703
:106A3C00F8BD70B50E1E05460BDDF000FEF7D0FC60
:106A4C00044670B195E8060001EBC202FFF7C7FFE0
:106A5C0000E000242868FEF7CBFC2C60AE6001201F
:106A6C0070BD70BD2DE9F04100230360436083606D
:106A7C000E4649689942044613DDFFF7DAFF80B1F0
:106A8C0035687368276805EBC308454507D01FB107
:106A9C0029463846FFF72DFC08350837F5E77368AB
:106AAC0063602046BDE8F08130B50B689B7A85B0F9
:106ABC0005460C462BB901A8FFF753FF01A8FFF7B9
:106ACC004AFC2368DB7A3BB9214601A8FFF7C0FAE0
:106ADC0010B923680122DA72216828461831FFF7B1
:106AEC00C1FF284605B030BD2DE9F0430D4693B0EB
:106AFC004FF01808174606464246002104A81C46CB
:106B0C0002F065FA69682868079702AB03C34FF077
:106B1C00010905AB83E80300ADF81090ADF81280C5
:106B2C00FFF760FB344B0893FFF75CFB0022036814
:106B3C003168099304A8FEF755FA074620B133686B
:106B4C004FF6FF721A8053E029463046FFF7F2FAEF
:106B5C00FFF748FB3146036812AD03F1180851F8F2
:106B6C00043B45F8203D0BA8FFF7BCFB29464046EB
:106B7C00FFF730FD80460BA8FFF7D3FB20230A93C9
:106B8C00B8F1000F14D11D4B00932A4643461C4903
:106B9C00CDF82C803220FEF757FB3368414618881D
:106BAC00FEF7DAF9336817484FF6FF721A801FE0C8
:106BBC00154B00932A463B4611490B974846FEF766
:106BCC0043FBA4B131462846FFF76EFF0A9C0B9B92
:106BDC0004EBC306A64205D020460121FFF7F4F9C9
:106BEC000834F7E72846FFF7C8FB002000E02046F2
:106BFC0013B0BDE8F08300BF61660D00F09A0D0084
:106C0C002C9A0D00FCFEFFFF0C9B0D0070B504468A
:106C1C0015461E46FFF7F2FB334600222946204656
:106C2C00FFF762FF204670BD73B5044645686846A1
:106C3C00FFF75FFB6168A368994205DB01312046D1
:106C4C00FFF7F7FE064698B12368626803EBC505AB
:106C5C0003EBC202294605F10800FFF7C0FE1DB187
:106C6C0069462846FFF745FB6368013363600126DC
:106C7C0001A8FFF756FB304602B070BD10B50446B4
:106C8C00406808B1FDF703FA204610BD07B503694B
:106C9C000C308DE8090003F13C00FEF729FC684636
:106CAC00FFF7ECFF03B05DF804FB000038B50023E0
:106CBC000446036014200D46FDF7E7F928B10123C3
:106CCC0043608360024B036005612060204638BD41
:106CDC00E0990D0070B5002586B00560456004464E
:106CEC005420FDF7D2F9CDF810D00646059008B126
:106CFC00FFF7D6F8314601AB02AA03A80595FFF7BA
:106D0C00D5FF039B62682660636003A80392FFF7BC
:106D1C0008FB04A8FFF7B2FF23680BB9FEF748FD88
:106D2C00204606B070BD00002DE9F041DFF804816B
:106D3C008CB005460F4600262B689E4275D202A8E1
:106D4C00FFF7C8FF029B2A895A806B6802982A2495
:106D5C007443234414305B7E13F0020F1EBF10F8F3
:106D6C00103C43F0020300F8103C6B6823445B7E3C
:106D7C005B0742BF10F8103C43F0040300F8103CD2
:106D8C006B6823445B7E190742BF10F8103C43F03C
:106D9C00080300F8103C6B6823445B7EDA0642BFA4
:106DAC0010F8103C43F0100300F8103C6B682344BF
:106DBC005B7E9B0642BF10F8103C43F0200300F8AA
:106DCC00103C696821440431FEF770FE6A68029B2E
:106DDC00144402A9E28B1A81228C5A81628C9A810A
:106DEC00A28CDA81E28C1A82228D5A82386800F1E8
:106DFC00180404A8FFF77DFA204604A9FFF714FF36
:106E0C00044605A8FFF78DFA54B920230493CDF856
:106E1C000080234604AA064905943220FEF714FA92
:106E2C0003A8FFF77EFA013686E70CB0BDE8F081C7
:106E3C002C9A0D00299B0D0010B50446406808B132
:106E4C00FDF725F9204610BD07B503690C308DE818
:106E5C0009006846FFF7F0FF03B05DF804FB000083
:106E6C0038B500230446036014200D46FDF70DF9D8
:106E7C0028B1012343608360024B036005612060ED
:106E8C00204638BDFC990D0070B5002586B0056014
:106E9C00456004461820FDF7F8F8CDF810D00646EA
:106EAC00059018B1FEF76EFDB582F582314601AB47
:106EBC0002AA03A80595FFF7D3FF039B626826601F
:106ECC00636003A80392FFF72CFA04A8FFF7B4FF42
:106EDC0023680BB9FEF76CFC204606B070BD0000B1
:106EEC002DE9F041DFF880808CB006460F46002576
:106EFC0033689D4233D202A8FFF7C6FF1C24716889
:106F0C0002986C4321440431FEF7D0FD7368029A59
:106F1C00234402A91B8B938273681C44638BD3821A
:106F2C00386800F10C0404A8FFF7F1F9204604A915
:106F3C00FFF72BFD044605A8FFF7F3F954B92023FE
:106F4C000493CDF80080234604AA06490594322008
:106F5C00FEF77AF903A8FFF7E4F90135C8E70CB09E
:106F6C00BDE8F0812C9A0D00559B0D0010B5064C18
:106F7C00002320462360FEF77FF82046034A04498D
:106F8C00BDE8104001F075BED4E30320D0D8032037
:106F9C006F570D00F8B506460D468F180024BD42FC
:106FAC000CD0336815F8011B9B68304698470028B5
:106FBC0001DB0444F3E7002C08BF04462046F8BD6F
:106FCC0070B505460C46084649B102F05BF82B68D3
:106FDC00024621462846DB68BDE87040184770BD64
:106FEC0003689B68184738B50D210546FFF7F8FF75
:106FFC000A2104462846FFF7F3FF204438BD30B57C
:10700C008BB00B4600218DF82410012A98BF0A2260
:10701C000DF12304B3FBF2F505FB123303F0FF0370
:10702C00092B94BF30333733DBB2214604F80139D6
:10703C002B46002DEED1FFF7C3FF0BB030BD0CB4C7
:10704C002DE9F04387B000AF07F13804054654F83A
:10705C00049B3C600E4623464A461421381DFEF71D
:10706C00D7F9132805D8391D2846FFF7A9FF044680
:10707C0013E000F1080323F00703E846ADEB030D22
:10708C00411C23464A4668463C60FEF7C1F96946F6
:10709C002846FFF795FF0446C5461EB12846FFF764
:1070AC00A2FF044420461C37BD46BDE8F04302B0A5
:1070BC00704780680368DB681847704719B10B6824
:1070CC0008465B681847704719B10B6808465B683F
:1070DC001847704770477047704738B504460D46DF
:1070EC0000682E2101F0B2FF2368C31A2B6023B174
:1070FC00037803B1013023682060184638BD10B501
:10710C000C21044601F0C2FD204610BD10B504212F
:10711C00044601F0BBFD204610BD10B50421044609
:10712C0001F0B4FD204610BD38B50C46054601F003
:10713C008DF984420DD001F011FA844205D101F091
:10714C000DFABDE8384001F006BA21462846FFF793
:10715C00BBFF38BD08B501F083FFB0FA80F04009E1
:10716C0008BD38B5054608460C4601F08BFF214694
:10717C0002462846BDE8384001F019BD0068FDF70D
:10718C008BBF70B5044608460D4601F07BFF2368A3
:10719C00024629462046DB68BDE87040184713B507
:1071AC0002AB026803F8011DD46819460122A047FE
:1071BC0002B010BD2DE9F04F4568076885B09146C7
:1071CC00142255430193AB10194D02925D438B462B
:1071DC003C460123002D039323DD029B6E1003FB21
:1071EC0006F004EB00084A46B8F804A02058D14534
:1071FC0028BF5246594601F04DFF039B48B9D14573
:10720C0003D1019A13703546E4E78CBF01200020AE
:10721C0000E0C00F0028F6D0AE1B08F11404013EAC
:10722C00F1E7E41B0248A410604305B0BDE8F08F01
:10723C00CDCCCCCCF0B585B003690191067E13B3EF
:10724C0009B304AF002347F8043D00F10C041D46BC
:10725C00394601A8FFF741FF0146A0B104AB039AE0
:10726C0003F8055D2046FFF7A5FF9DF80B3053B1E1
:10727C002368142404FB0034083434F9023C002B3A
:10728C00A8BFDEB2E4E7304605B0F0BD10B5094C3E
:10729C002368DB070BD42046FCF708FF38B12046E7
:1072AC00FCF709FF044A0549054801F0E2FC0448D3
:1072BC0010BD00BFD8E30320D0D80320E3700D002D
:1072CC0060D8032010B5094C2368DB070BD420468B
:1072DC00FCF7ECFE38B12046FCF7EDFE044A0549FC
:1072EC00054801F0C6FC044810BD00BF08E40320AB
:1072FC00D0D80320E1700D005CD8032038B50025F0
:10730C00044605604560856005614561856140F80E
:10731C00245FFDF7B1FEFFF7B9FFE061FFF7D2FF85
:10732C0025732062204638BD10B50A4C2368DB0754
:10733C000ED42046FCF7BAFE50B10748FFF7DEFF2B
:10734C002046FCF7B8FE054A0549034801F091FCBC
:10735C00014810BDDCE30320E0E30320D0D8032078
:10736C009F770D000023024A02490348FDF784BFB2
:10737C0081760D0011760D0099750D0000231A46CB
:10738C0019461846FDF778BF73B502AC8E6851F8F4
:10739C00043B44F8083D054601A8FEF7A3FF22462E
:1073AC003146284601F03AFC01A8FEF7BAFF284600
:1073BC0002B070BD73B502AC0E6951F8043B44F8D1
:1073CC00083D054601A8FEF78DFF224631462846AA
:1073DC0001F03FFC01A8FEF7A4FF284602B070BDE7
:1073EC0073B502ACCE6851F8043B44F8083D054631
:1073FC0001A8FEF777FF22463146284601F0E6FB4E
:10740C0001A8FEF78EFF284602B070BD30B58BB0D8
:10741C000D46014604A8FFF7B7FF04A801F009FBCD
:10742C00E8B104A96846FFF7DBFF0F490298FFF7A4
:10743C0091FE044610B12C1C18BF012401A8FEF7C4
:10744C0070FF002CE9D004A96846FFF7B3FF68462B
:10745C0001F0CFFA286001A8FEF763FFDDE705A86D
:10746C00FEF75FFF0BB030BD0C9C0D0037B50C4622
:10747C0020461349154601F0F3FD40B900F0E6FF34
:10748C004FF4165100F0D2FF00F0E0FF15E00D496B
:10749C00204601F0E5FD78B902A94FF4165341F8E6
:1074AC00043D2846FFF7B2FF01F058F8019901F0AE
:1074BC004FF801F053F800E0002003B030BD00BFDE
:1074CC00119C0D00189C0D0070B5046843681426BF
:1074DC00054606FB0346A64205D004F10800FFF75B
:1074EC00F3FF1434F7E72868FDF782FF284670BDD8
:1074FC0070B504684368054604EB0316A64204D035
:10750C002046FDF7F5FF1034F8E72868FDF770FF0B
:10751C00284670BD10B504460C30FFF7D5FF204649
:10752C00FFF7E6FF204610BD10B5044B044640F8AB
:10753C00043BFFF7EFFF204610BD00BF90920D00FB
:10754C0010B50446FFF7F0FF2046242101F09EFB06
:10755C00204610BD10B5034B03600446FFF7E4FF53
:10756C00204610BDFC9B0D0010B50446FFF7F2FF42
:10757C002046242101F08AFB204610BD10B503687B
:10758C0004461868FDF790FD204610BD2DE9F04F1C
:10759C009B461B4B5B68C3F3080385B082460E46C3
:1075AC00904653BBFFF7C0FE044624300390FFF710
:1075BC00E5FD237BF3B90123237325686368F6B2D9
:1075CC0005EB83094D4513D055F8047B4146381D16
:1075DC00FFF730FE8642F5D33B68CDF800B09B68D0
:1075EC009E4638464346324651467746B847E9E709
:1075FC000023237303A8FFF7C1FF05B0BDE8F08F8C
:10760C0000ED00E02DE9F74F9946194B5B68C3F389
:10761C00080307468846164633BBFFF785FE04462B
:10762C0024300190FFF7AAFD237BD3B901232373E8
:10763C00256863685FFA86FB05EB830A55450ED017
:10764C0055F8046B4946301DFFF7F4FD8345F5D31F
:10765C0033684246DB68394630469847EEE70023EC
:10766C00237301A8FFF78AFF03B0BDE8F08F00BFBA
:10767C0000ED00E02DE9F341154B5B68C3F3080303
:10768C0004468846FBB9FFF74FFE064624300190AE
:10769C00FFF774FD96E8A000462605EB8707AF427E
:1076AC0007D101A8FFF76AFFB442B4BF0020012044
:1076BC000AE055F8040B41460430FFF7BBFD864247
:1076CC00A8BF0646EBE7002002B0BDE8F08100BF82
:1076DC0000ED00E070B503684268044603EB8202DB
:1076EC009A4218460ED006680D68AE4203F10403A8
:1076FC00F6D1011D521A01F04FFC6368013B636027
:10770C00012070BD002070BD1FB5044624300191CE
:10771C000390FFF733FD01A92046FFF7DBFF20B9EB
:10772C0003A8FFF72BFF04B010BD6368002BF7D143
:10773C00FFF724FEF4E770B5056943691826044683
:10774C0006FB0356AE4215D005F110012046FFF79B
:10775C00C1FF63680BB9FFF711FEE0692969036883
:10776C00DB689847696919B1206A0368DB68984738
:10777C001835E7E725696369182606FB0356B542F9
:10778C0004D02846FDF7B4FE1835F8E700236361F2
:10779C0070BD73B5044602ADFFF7F0FD04F1240093
:1077AC0045F8040DFFF7EAFC2046FFF7C4FF284616
:1077BC00FFF7E4FE606A08B1FDF766FC25696369B2
:1077CC00182606FB0356B54204D02846FDF790FE5A
:1077DC001835F8E72069FDF70BFE2068FDF708FE69
:1077EC00204602B070BD03680A6802600B604368F3
:1077FC004A6842604B6083688A6882608B6070471D
:10780C0010B500230446036043608360FFF7EBFF71
:10781C00204610BD8842F8B50446164625D990423C
:10782C0024D2551A143D2C44A1F11407A2F10C05D5
:10783C000026A5F108039F4237D084B155F8083CC7
:10784C00236035F8043CA38035F9023CE380A66044
:10785C00E6602661294604F10800FFF7C4FF2846BC
:10786C00FFF732FE143C143DE3E71ED001F108058E
:10787C000027A5F108039E4217D084B155F8083CA7
:10788C00236035F8043CA38035F9023CE380A76003
:10789C00E7602761294604F10800FFF7A4FF28469A
:1078AC00FFF712FE14341435E3E7F8BDF8B545685C
:1078BC0083689D4204460E4617460EDB0135002DAB
:1078CC0005DDA9000068FDF79BFD20B9F8BD006837
:1078DC00FDF78EFD00202060A5602568626805EB31
:1078EC00860105EB8202521A081D01F055FB45F882
:1078FC0026706368013363600120F8BD37B5044618
:10790C0024300D460190FFF739FC2368616803EBC6
:10791C00810083421A4609D01268AA4203F104037B
:10792C00F7D101A8FFF72AFE00250EE02A462046D3
:10793C00FFF7BCFF05460028F3D06368012B01D18B
:10794C00FFF710FD01A8FFF719FE284603B030BD64
:10795C008842F8B506460C46154614D9904213D207
:10796C00A2F110056C1AA1F110070444AF4218D013
:10797C001CB129462046FDF7ABFD2846FDF7B8FDA6
:10798C00103D103CF2E70CD0AC420AD01EB121469F
:10799C003046FDF79DFD2046FDF7AAFD103410364C
:1079AC00F2E7F8BD70B50E1E05460BDD3001FDF794
:1079BC0017FD044670B195E8060001EB0212FFF7C3
:1079CC00C7FF00E000242868FDF712FD2C60AE60B4
:1079DC00012070BD70BD2DE9F04F002395B092468B
:1079EC004622036043608360C36003614361027697
:1079FC000291DAF8041008939942054609930A9308
:107A0C0040F39D8008A8FFF7CDFF002840F0978039
:107A1C008EE021460BA8FDF75BFD0BA90FA8099E74
:107A2C00FDF756FD09990A9B9942C0F2CE800131AF
:107A3C0008A8FFF7B7FF002840F0C7800FA8FDF794
:107A4C0057FD0BA8FDF754FD1434A742E1D10026D5
:107A5C000B960C960D96B146099B9E4280F2A8801F
:107A6C003301089AD3580693002B00F09F801423FF
:107A7C007343CDF81C9001930BAC07A906A8FFF734
:107A8C002CFB0746002800F0918014AB014603F84C
:107A9C00399D079A2046FFF78DFB9DF817800090C3
:107AAC00B8F1000F53D1BDF81C30ADF840304FF693
:107ABC00FF730F97ADF84230CDF84480CDF8488075
:107ACC00CDF84C806768A3689F424FDA009BD4F8CE
:107ADC0000B06168142253430BEB030702FB01B2A5
:107AEC0007F1140039460393FFF794FEA7B1039BEB
:107AFC000F9A4BF80320BDF84030BB80BDF94230E3
:107B0C00FB80C7F80890C7F80C90C7F8109011A923
:107B1C0007F10800FFF767FE63680133636011A883
:107B2C00FFF7D2FCB8F1000F11D00BA8FFF7CCFC7B
:107B3C0008A8FFF7DDFC284615B0BDE8F08FDAF891
:107B4C000040DAF80430142707FB03477DE723686D
:107B5C00009A142404FB0234069B1B7823BBDAF82E
:107B6C000030019A13441B7CE3801DE00137002F89
:107B7C000FDD142303FB07F00393FDF731FC834661
:107B8C0078B194E80600039B03FB0212FFF742FE58
:107B9C0000E0C3462068FDF72BFCC4F800B0A760DA
:107BAC0094E74FF00108BAE7083466E7013653E76B
:107BBC0008A92846FFF717FE0BA905F10C00FFF7E3
:107BCC0012FE9DF808302B76AFE7089B099A03EB61
:107BDC00061603EB0212314606F11000FFF7B8FE51
:107BEC001EB10FA93046FDF773FC099B01330993B5
:107BFC0024E700007FB50446094B44F8043B0546D6
:107C0C000E4601A81146FDF70BF801AA3146204695
:107C1C00FFF7E1FE01A8FCF727FF284604B070BD72
:107C2C0090920D00F0B50F468BB02B49109C384646
:107C3C0016461D4601F014FA28BB002C49D02946E3
:107C4C0001A8FFF7DDFD2549242001F021F80546A8
:107C5C00B8B101A904A8FFF7D3FD04A907A8FCF744
:107C6C00DFFF07AA31462846FFF7C4FF07A8FCF739
:107C7C00FBFE1B4B2B602C6204A8FCF7F5FE194B8A
:107C8C002B6001A81FE01849384601F0E9F9F0B95A
:107C9C00FCB1294604A8FFF7B3FD1049242000F0DD
:107CAC00F7FF054670B104A907A8FCF7B9FF07AAAE
:107CBC0031462846FFF79EFF07A8FCF7D5FE084B78
:107CCC002B602C6204A8FCF7CFFE284602E00020B3
:107CDC0000E020460BB0F0BD6A9C0D008B9E0D00A1
:107CEC00EC9C0D00FC9B0D006E9C0D00014B024AA0
:107CFC001A6070470CE403207F9C0D002DE9F047BF
:107D0C00089DD0F8209004460E461746984600F081
:107D1C009DFB814505D15A4800F071FD002840F0CB
:107D2C00AC802B791B0705D56B69564A206A00215C
:107D3C00FFF785F9B8F1000F0DD05B212046FFF756
:107D4C002EFA41462046FFF71CFA23684E49DB68A1
:107D5C000222204698472B79D90725D5D5F80880DB
:107D6C002F21404601F0B7F908B100F10108414656
:107D7C002046FFF706FA2B799A0709D53A212046B7
:107D8C00FFF70DFAEB68414A206A0021FFF757F91B
:107D9C002B7913F0040F236818BF3D49DB6808BF2B
:107DAC003C490222204698472B795B0718D5296954
:107DBC000A46134613F8010B38B1202801D1194695
:107DCC0001E0282801D01A46F3E72368521ADB6831
:107DDC002046984723683049DB68042220469847A0
:107DEC0000213846FDF740FA01462046FFF7C9F955
:107DFC0023682849DB680222204698471EB1314689
:107E0C002046FFF7BEF92B7913F0300F2DD02368E5
:107E1C002249DB682046022298472B79D8060BD5DD
:107E2C0023681F49DB68072220469847AB691D4A27
:107E3C00206A0021FFF703F92B79990611D5DA0690
:107E4C0005D523681249DB6802222046984723682F
:107E5C001549DB6820460A229847E9692046FFF756
:107E6C0090F95D212046FFF79AF923680F49DB68EA
:107E7C0020460222BDE8F0471847BDE8F08700BF56
:107E8C0040E70320839C0D008A9C0D000F960D008B
:107E9C008D9C0D00929C0D00909C0D00959C0D00EE
:107EAC00989C0D00A09C0D00A39C0D00AE9C0D0099
:107EBC002DE9F04385B0D0F820800C9C06460F4687
:107ECC0091461D4600F0C2FA804505D14A4800F0A3
:107EDC0096FC002840F08C80336A484A01924FF09F
:107EEC00000801A803938DF8088000F0CCFD4146F2
:107EFC004846FDF7B9F942498046012201A800F035
:107F0C0047FE4146FFF72DF93FB13E49012201A83A
:107F1C0000F03EFE3946FFF724F93DB13A49012203
:107F2C0001A800F035FE2946FFF71BF92379DF077E
:107F3C000ED5A5682F21284601F0CDF800B1451CBF
:107F4C003249012201A800F023FE2946FFF709F966
:107F5C0023799D0707D52E49022201A800F018FEAF
:107F6C00E16800F09DFD2379580716D525692F4649
:107F7C003B4613F8012B3AB1202A01D11D4601E0F2
:107F8C00282A01D01F46F3E70222224901A800F05B
:107F9C00FFFD7A1B294600F00AFE2379190707D545
:107FAC001D49012201A800F0F3FD616900F08AFD72
:107FBC002379DA0608D5042218490DEB020000F0EB
:107FCC00E7FDA16900F06CFD23799B0607D51449E8
:107FDC00062201A800F0DCFDE169FFF7C2F801A858
:107FEC0000F03BFD306A0F4903680222DB689847BA
:107FFC0005B0BDE8F08300BF40E70320E49B0D0013
:10800C00169C0D00299C0D0014970D00EF960D0089
:10801C00B19C0D00B49C0D003E9C0D00B79C0D0056
:10802C00BC9C0D00AE9C0D0008B50020FDF7C8F9F6
:10803C0028B1FDF7BDF980F00100C0B208BD0120E8
:10804C0008BD10B50020FCF765FF044668B9FDF7C4
:10805C001BF901280BD12046FDF72EF938B9FFF793
:10806C00E3FF30B9FDF79CF9F9E7012010BD0020C2
:10807C0010BDFFF7D9FF0020FCF74CFF003018BFF4
:10808C00012010BD08B5FFF7DCFFBDE80840FCF788
:10809C0039BF0000024B1A68024B1A60704700BFD0
:1080AC0064D8032010E403200021FDF7FDB810B5BF
:1080BC008368044613B1032201469847204610BD3D
:1080CC0010B50446FFF7F3FF204610BD10B504466B
:1080DC00FDF7A2F8844208D01CB1BDE81040FDF7B2
:1080EC008BB8BDE81040FDF78FB810BD70B50546D4
:1080FC000E461446FDF790F850B144EA062040EACB
:10810C000540FDF771F8E720BDE87040FDF78CB82D
:10811C0070BD00000348044A04490023836000F04A
:10812C00A8BD00BF14E40320D0D80320CD800D00DF
:10813C0008B50C4B33B100F089F903681B699847FB
:10814C00002809DC084B63B100F008FA03681B69CE
:10815C009847002803DC08BDAFF30080F2E7AFF3CB
:10816C00008008BD000000000000000008B5FFF70B
:10817C00DFFFFCF7BFFE014B186008BD48E703208A
:10818C000248034A0349121A00F0FBBE00F4032014
:10819C0004F4032030A00D0007B5002300931A4609
:1081AC006FF07701FDF79AF803B05DF804FB00005F
:1081BC0007B543880A2B08D0502B09D1094B1B68F3
:1081CC003BB103B05DF804EB1847FFF7E5FF06E0A1
:1081DC00002300931A466FF07701FDF77FF803B088
:1081EC005DF804FB24E4032038B5104C104D2368D3
:1081FC00AB42104B0CBF012200221A7002D0FFF7C9
:10820C00BFFF2560FCF766FE044600F0E9FE0A4B52
:10821C0013B12046AFF3008000210748FDF7D8F8D2
:10822C0000210648BDE83840FDF74EB800F40320A5
:10823C001E1C279A28E4032000000000BD810D00BD
:10824C0010B588B004466846FDF799F9694604A84C
:10825C00FDF7B7F904A8A047044604A8FDF748F9B0
:10826C006846FDF745F9204608B010BDF0B510245E
:10827C0085B007460E46154600212246684600F09A
:10828C00A6FE002269461046ADF800400297039600
:10829C000195FDF77DF805B0F0BD704710B51821BC
:1082AC00044600F0F3FC204610BDF0B5037D062B10
:1082BC008DB00E4600F104074FF0000402D000F11F
:1082CC00080518E00CAD394605F8304D2F232A4629
:1082DC000A20FCF7F1FE284600F0D4FE3368024673
:1082EC00DB682946304698470FE024B12E213046F2
:1082FC00FEF776FE044415F8011D0A223046FEF7FF
:10830C007EFEBD420444F0D120460DB0F0BD00000D
:10831C0010B5054B0446112240F8043B002100F037
:10832C0056FE204610BD00BF609D0D000346074A57
:10833C0010B543F8042B01F1100251F8044B43F82B
:10834C00044B9142F9D10A781A7010BD609D0D0052
:10835C0010B59DF8084044EA032343EA024242EA7E
:10836C00016104234160037510BD37B50D788B781E
:10837C004A78C97800912946FFF7EAFF03B030BD6F
:10838C0041747047704708B50021007CFCF714FF5E
:10839C0030EA200028BF4FF0FF3008BD08B501219E
:1083AC00007CFCF709FF30EA200028BF4FF0FF30BB
:1083BC0008BD08B5007CFCF7F7FE20EAE07008BDAC
:1083CC0008B5007CFCF7E8FE20EAE07008BD007CF4
:1083DC00FCF702BF10B51421044600F057FC2046F0
:1083EC0010BD38B50446007C0D46FCF7DDFE0028B8
:1083FC0001DC607C28B12946207CFCF7E5FE20EAF4
:10840C00E07038BD10B50446002363604FF47A73F6
:10841C00A360054B23600123084621746374114645
:10842C00FCF7A2FE204610BD749D0D000022007CBE
:10843C00FCF7A2BE007CFCF7A7BE10B514220446C4
:10844C00002100F0C4FD204610BD000030B50E4DDB
:10845C0087B001A8FFF7F1FF296811F0010410D1D2
:10846C002846FBF723FE60B101AA21460748FFF717
:10847C00C9FF2846FBF71FFE054A0649034800F0D2
:10848C00F8FB024807B030BD2CE4032030E4032095
:10849C00D0D8032091830D0070474174704708B504
:1084AC00007CFCF749FE20EAE07008BD08B5007CB2
:1084BC00FCF722FE20EAE07008BD08B5007CFCF752
:1084CC002BFE30EA200028BF4FF0FF3008BD08B566
:1084DC00007CFCF719FE30EA200028BF4FF0FF307B
:1084EC0008BD007CFCF720BE10B51421044600F03A
:1084FC00CDFB204610BD70B5457C04460E4625B913
:10850C00007CFCF719FE002805DD3146207CBDE817
:10851C007040FCF7E9BD284670BD000010B504465C
:10852C0008461146002262604FF47A72A260054A36
:10853C0022600122207462741A46FCF7C5FD2046A5
:10854C0010BD00BFA49D0D000023007CFCF7FCBDFA
:10855C000022FFF7F9BF007CFCF7BEBD38B50C4D0F
:10856C00296811F0010411D12846FBF79FFD68B171
:10857C00084A094B09482146FFF7D0FF2846FBF76C
:10858C009AFD074A0749054800F073FB034838BDBC
:10859C00DCE40320E0E4032058E4032044E403205B
:1085AC00D0D80320A5840D00002211464068FCF7AA
:1085BC00D7BE002211464068FCF7E2BE002240689C
:1085CC00FCF7D6BE002281F001014068FCF7C0BE6A
:1085DC0000231A4601214068FCF7B2BE00231A465C
:1085EC0019464068FCF7A4BE002211464068FCF70F
:1085FC0097BE002211464068FCF782BE0022022181
:10860C004068FCF785BE00231A464068FCF770BE34
:10861C0038B5054688B104684CB1A3681BB1032278
:10862C002146204698471021204600F02FFB284673
:10863C001421BDE8384000F029BB38BD10B10368E7
:10864C005B681847704710B503680446BBB158689F
:10865C00FCF7FAFC78B923685A7C12B95868FCF715
:10866C00FBFC23685868FCF7FFFC206800232360A0
:10867C0028B1FFF7CDFF206808B1FFF7C9FF2046EE
:10868C0010BD38B50446D0F8C40108B1FBF701FDA4
:10869C00D4F8C00108B1FCF7F7FCD4F8BC5135B1E3
:1086AC002846FFF7D0FF0421284600F0EFFA206897
:1086BC0008B1FFF7C3FF204638BD000010B5044BCE
:1086CC00044640F8083BFFF7DCFF204610BD00BF16
:1086DC00D49D0D0038B50E4C0E4B236000250223A3
:1086EC0004F5E4706360A560C4F8C451C4F8C851C3
:1086FC00FCF7C2FC084BC4F8CC5184F8D051236071
:10870C002046064A0649BDE8384000F0B2BA00BF20
:10871C0064E503203C9E0D00D49D0D00D0D80320B1
:10872C00C9860D00002211464068FCF7F9BD0022F5
:10873C0011464068FCF714BE002211464068FCF755
:10874C001FBE00224068FCF713BE002281F001011D
:10875C004068FCF7FDBD00231A4619464068FCF73B
:10876C00EFBD00231A4619464068FCF7E1BD002214
:10877C0011464068FCF7C4BD002202214068FCF79A
:10878C00C7BD00231A464068FCF7B2BD024B042259
:10879C005A60024A1A60704738E70320089E0D00A1
:1087AC0000231A464068FCF7A3BD00220221406852
:1087BC00FCF7AEBD002211464068FCF7A1BD0022BB
:1087CC0011464068FCF7ACBD00231A4619464068B8
:1087DC00FCF7AEBD00231A4619464068FCF7B0BD45
:1087EC00002281F001014068FCF7B2BD0022406814
:1087FC00FCF7BEBD002211464068FCF7C1BD00224B
:10880C0011464068FCF7ACBD2DE9F043002495B04F
:10881C0016460D460746FFF77BFD214620220CA885
:10882C00009400F0D4FB40230C9321466B460CAA19
:10883C003046FCF73FFB0446002844D10246012198
:10884C006868FCF76DFD0221804622466868FCF7DB
:10885C0067FD009E81462146002E34D0002932D17E
:10886C007368022B02D00A2B09D02AE0B8F1000F52
:10887C0027D0716938460431FFF777FD20E0B9F154
:10888C00000F1ED07469112201A800F0A0FB062372
:10889C008DF8143001AD04F10803183418685968C8
:1088AC002A4603C20833A3421546F7D101A906A8EC
:1088BC0007ADFFF73BFD0FCD3C1D0FC42B6823709C
:1088CC000121F669C8E70098FCF7ECFA384615B0B8
:1088DC00BDE8F083024B034A1A6000225A607047CD
:1088EC0040E703203C9E0D0000F11002012312F81A
:1088FC00101C0129104604D152F8041C03EB41034F
:10890C0004E0022904BF52F8041C5B18013B02F17D
:10891C001002ECD170470EB42DE9F04187B000AFD6
:10892C0007F13404054654F8046B7C602346324648
:10893C00102107F10800FCF76BFD0F2816D900F188
:10894C00080323F00703E846ADEB030D3246411C48
:10895C00234668467C60FCF75BFD021E04DD2B6839
:10896C0069469B6828469847C54607E030B12B6896
:10897C0002469B6807F10801284698471C37BD46FC
:10898C00BDE8F04103B0704713B502AB026803F8C1
:10899C00011D946819460122A04702B010BD8368DE
:1089AC00FBB11A78032A1AD8DFE802F00417021D6B
:1089BC000520704702685B685268D05C2D2814D083
:1089CC00A0F13003092B10D9742810D066280ED0D2
:1089DC00A0F16E03584258417047062070470020A2
:1089EC0070471846704704207047032070470220D8
:1089FC00704710B50446FFF7D2FF02280DD016D3EE
:108A0C00042814D82268A36850685B680A220021E5
:108A1C001844BDE8104000F011BC2268A3685268ED
:108A2C005B68D05CA0F174035842584110BD002023
:108A3C0010BD10B5436904465BB18068E060013B32
:108A4C001030A060206163612BB1FFF74DFFA06077
:108A5C0001E0184610BD012010BD10B57D21044663
:108A6C00FFF792FF01232371204610BD08B503794F
:108A7C00012B02D0022B02D008BD2C2100E03A21A0
:108A8C00FFF782FF08BD10B50446FFF7EFFF204645
:108A9C007B21FFF779FF00232371204610BD0000D6
:108AAC0038B504460D46FFF7E1FF23680449DB683F
:108ABC0020462A46984701232371204638BD00BF23
:108ACC000F960D0038B504460D46FFF7CFFF23680F
:108ADC000449DB6820462A46984701232371204627
:108AEC0038BD00BF96930D00F8B50D4617462221F0
:108AFC0004462F44FFF748FF2A462946BA4238D08D
:108B0C00164616F8015B222D03D05C2D01D01F2DCB
:108B1C002DD82368521A9B68204698475C21204622
:108B2C00FFF732FF0C2D19D007D8092D0FD00A2DC5
:108B3C0012D0082D14D162210AE0222D05D05C2D13
:108B4C0003D00D2D0CD1722102E0294600E07421D6
:108B5C002046FFF719FF09E06E21F9E76621F7E7D8
:108B6C0023680A49DB682A46204698473146324634
:108B7C00C4E7914204D02368521A9D682046A84746
:108B8C0022212046FFF700FFF8BD00BF859E0D0097
:108B9C0070B504460D461646FFF768FF2046324670
:108BAC002946FFF7A1FF02232371204670BD70B543
:108BBC0004460D461646FFF759FF20463246294615
:108BCC00FFF792FF01232371204670BD10B50023DF
:108BDC000446036043601048A060E360D1B10B7899
:108BEC00032B06D0B3B9136858684B68C35C6E2B63
:108BFC0008D0136858684B680344A3608B684968B5
:108C0C005B1AE3601146204651F8043B40F8043BE4
:108C1C00FDF72CFC204610BDB09C0D00002310B5B8
:108C2C000446036043608360C3600361436171B1B8
:108C3C000B78012B0BD101F110038360CB684361DE
:108C4C00114651F8043B40F8043BFDF70FFC20465D
:108C5C0010BD002310B5044603604360816031B140
:108C6C00114651F8043B40F8043BFDF7FFFB20464E
:108C7C0010BD0B460146184600F066B9024B186849
:108C8C00BFF35F8F704700BF4CE70320FBF7FFB9C2
:108C9C0010B5002814BF044601242046FCF7A0FBA5
:108CAC0020B9FFF7EBFF08B18047F6E710BD0000D5
:108CBC00184B1A68D1075CBF01221A60164B1A6850
:108CCC00D2075CBF01221A60144B1A68D0075CBF34
:108CDC0001221A60124B1A68D1075CBF01221A607C
:108CEC00104B1A68D2075CBF01221A600E4B1A682F
:108CFC00D0075CBF01221A600C4B1A68D1075CBF0D
:108D0C0001221A600A4B1A68D2075CBF01221A6052
:108D1C00704700BF6CE7032068E7032064E703207B
:108D2C0060E703205CE7032058E7032054E70320A7
:108D3C0050E70320244B1A68D0075CBF01221A604D
:108D4C00224B1A68D1075CBF01221A60204B1A68AB
:108D5C00D2075CBF01221A601E4B1A68D0075CBF99
:108D6C0001221A601C4B1A68D1075CBF01221A60E1
:108D7C001A4B1A68D2075CBF01221A60184B1A688A
:108D8C00D0075CBF01221A60164B1A68D1075CBF72
:108D9C0001221A60144B1A68D2075CBF01221A60B8
:108DAC00124B1A68D0075CBF01221A60104B1A686C
:108DBC00D1075CBF01221A600E4B1A68D2075CBF48
:108DCC0001221A60704700BF9CE7032098E703203C
:108DDC0094E7032090E703208CE7032088E7032027
:108DEC0084E7032080E703207CE7032078E7032057
:108DFC0074E7032070E70320244B1A68D0075CBF8C
:108E0C0001221A60224B1A68D1075CBF01221A603A
:108E1C00204B1A68D2075CBF01221A601E4B1A68DD
:108E2C00D0075CBF01221A601C4B1A68D1075CBFCB
:108E3C0001221A601A4B1A68D2075CBF01221A6011
:108E4C00184B1A68D0075CBF01221A60164B1A68BF
:108E5C00D1075CBF01221A60144B1A68D2075CBFA1
:108E6C0001221A60124B1A68D0075CBF01221A60EB
:108E7C00104B1A68D1075CBF01221A600E4B1A689E
:108E8C00D2075CBF01221A60704700BFCCE70320F9
:108E9C00C8E70320C4E70320C0E70320BCE7032096
:108EAC00B8E70320B4E70320B0E70320ACE70320C6
:108EBC00A8E70320A4E70320A0E70320184B1A68B7
:108ECC00D1075CBF01221A60164B1A68D2075CBF2F
:108EDC0001221A60144B1A68D0075CBF01221A6079
:108EEC00124B1A68D1075CBF01221A60104B1A682A
:108EFC00D2075CBF01221A600E4B1A68D0075CBF08
:108F0C0001221A600C4B1A68D1075CBF01221A604F
:108F1C000A4B1A68D2075CBF01221A60704700BF67
:108F2C00ECE70320E8E70320E4E70320E0E7032075
:108F3C00DCE70320D8E70320D4E70320D0E70320A5
:108F4C000A22002100F07AB910B5054C13462CB159
:108F5C000A4601460220AFF3008010BD204610BD2A
:108F6C000000000010B501390244904207D010F8FF
:108F7C00013B11F8014FA342F7D0181B10BD002084
:108F8C0010BD10B5431E0A44914204D011F8014B98
:108F9C0003F8014FF8E710BD884210B501EB02034E
:108FAC0001D8421E0BE09842FBD28118D21AD34250
:108FBC0004D013F8014D01F8014DF8E710BD9942AA
:108FCC0004D011F8014B02F8014FF8E710BD024430
:108FDC000346934202D003F8011BFAE770470000E6
:108FEC0038B5124B1C68A36B0546D3B91820FCF797
:108FFC00F7F943F20E33A06303804AF6CD33438076
:10900C0041F2342383804EF26D63C3804DF6EC63E2
:10901C000381052343810B23838101220023C0E9B3
:10902C000423A36B00221D615A6138BDCCD80320E8
:10903C00C9B2034610F8012B1AB19142F9D1184666
:10904C00704700290CBF18460020704710B5044625
:10905C00FFF7EEFF18B9204600F014F8204410BDBD
:10906C0010F8012B11F8013B012A28BF9A42F7D0C6
:10907C00D01A7047034611F8012B03F8012B002A74
:10908C00F9D17047034613F8012B002AFBD1181AAB
:10909C000138704730B582B1451E013915F8013FD2
:1090AC0011F8014FA34206D1EC431444E04201D025
:1090BC00002BF3D11C46181B30BD104630BD10B52B
:1090CC00034601448B4204D01A785C1C0AB1234637
:1090DC00F8E7181A10BD38B503460D4641B1002407
:1090EC0029461846FFF7A4FF30B1431C0446F7E7A6
:1090FC00BDE83840FFF79CBF204638BDF0B503787B
:10910C0063B90B78002B18BF0020F0BD15F8012FA8
:10911C0062B114F8017F97423046F7D00346461CE3
:10912C00007810B14D1E5C1EF0E7F0BD1846F0BD86
:10913C002DE9F04780464048D0F800900F463D4658
:10914C0015F8014B09EB0400407800F0080000F022
:10915C00FF0608B12F46F2E72D2C03D1BD1C7C78FD
:10916C00012603E02B2C04BF7C78BD1C13B1102B03
:10917C000AD15BE0302C57D1287800F0DF0058285A
:10918C004DD16C7810230235002E14BF4FF0004CDB
:10919C006FF0004C0027BCFBF3FA384603FB1ACCEB
:1091AC0009EB040E9EF801E01EF0040F01D0303CD8
:1091BC000BE01EF0030E1BD0BEF1010F0CBF4FF0E5
:1091CC00370E4FF0570ECEEB0404A34210DDB7F16F
:1091DC00FF3F0AD0504506D801D1644503DC03FBA0
:1091EC000040012701E04FF0FF3715F8014BD7E79E
:1091FC007B1C0CD1002E4FF0220314BF4FF000400B
:10920C006FF00040C8F800302AB9BDE8F08706B10D
:10921C00404272B107B1691E1160BDE8F08730247D
:10922C00002BB1D10823AFE70A23ADE7302CA3D034
:10923C00AAE7BDE8F08700BF68D8032013460A46AA
:10924C00014602480068FFF773BF00BFCCD803206B
:10925C00044B1B6803445B7803F00303012B08BF2A
:10926C002030704768D803201D400D0059400D0078
:10927C0085400D0089400D0000000000000000003A
:10928C00000000000000000000000000A5400D00E0
:10929C00C9400D000000000000000000B9410D00A5
:1092AC00ED410D00097D0D00CB400D002C005365E8
:1092BC006E736F722031202D2054656D7065726154
:1092CC00747572653A2025752064656772656573DF
:1092DC002043656C736975730053656E736F7220F0
:1092EC0031202D2048756D69646974793A20257593
:1092FC0025250053656E736F722031202D20437528
:10930C007272656E743A20257520416D707300532E
:10931C00656E736F722032202D2043757272656EEC
:10932C00743A20257520416D70730053656E736F10
:10933C00722032202D2054656D70657261747572C7
:10934C00653A202564206465677265657320436502
:10935C006C736975730053656E736F722032202DB8
:10936C00204C696768743A202575204C7578005339
:10937C00656E736F722032202D2048756D616E20E2
:10938C006465746563746F723A2025750053656E5D
:10939C00736F722032202D2048756D616E206C6FBA
:1093AC0073742E2E2E0053656E736F722032202D27
:1093BC002048756D616E2064657465637465642105
:1093CC000053656E736F722032202D20496E7661CA
:1093DC006C69642068756D616E2064657465637476
:1093EC006F72206D6573736167652E2045787065AB
:1093FC00637465642030206F7220312C2072656399
:10940C0065697665642025750040404040404020E9
:10941C004552524F52202D20696E76616C69642042
:10942C00616C61726D206E756D6265722073757002
:10943C00706C69656420746F2027616C61726D4378
:10944C006F6E646974696F6E734D657427206675F1
:10945C006E6374696F6E2E204578706563746564F5
:10946C002076616C75652066726F6D2030202D2022
:10947C00332C20676F742025640041637469766116
:10948C0074696E6720616C61726D20256420667250
:10949C006F6D2073656E736F72206E6F646520251F
:1094AC007500404040404040204552524F52202DC4
:1094BC0020696E76616C696420616C61726D206EDE
:1094CC00756D62657220737570706C69656420745B
:1094DC006F20277374617274416C61726D27206602
:1094EC00756E6374696F6E2E204578706563746554
:1094FC00642076616C75652066726F6D2030202D4E
:10950C0020332C20676F742025640053656E736FB5
:10951C00722031202D2044697374616E63653A208A
:10952C00257520636D0053656E736F722032202D8C
:10953C0020536F756E643A20257520644200416C8F
:10954C0061726D202564206576656E742074726975
:10955C006767657265642062792053656E736F72FC
:10956C00204E6F6465202575206174205B636F6EDF
:10957C0076657274656420646174652F74696D65B9
:10958C0020686572655D2E204475726174696F6E1A
:10959C003A202564207365636F6E6473004040400D
:1095AC00404040204552524F52202D20696E76612A
:1095BC006C696420616C61726D206E756D62657290
:1095CC0020737570706C69656420746F20277265E8
:1095DC00736574416C61726D272066756E63746976
:1095EC006F6E2E2045787065637465642076616CAF
:1095FC0075652066726F6D2030202D20332C20670E
:10960C006F7420256400616C6C0041626F7574206E
:10961C00746F207363616E2E2E2E00466F756E6410
:10962C00206120626C7565746F6F74682064657658
:10963C006963652E00416464726573733A20004659
:10964C006F756E6420555549443A200053656E730E
:10965C006F724E6F64653120555549443A20005362
:10966C00656E736F724E6F64653220555549443A7E
:10967C0020005375636365737366756C6C79206336
:10968C006F6E6E656374656420746F2073656E73A2
:10969C006F72206E6F646520312100626337663112
:1096AC003864392D326334332D343038652D62658E
:1096BC0032352D363266343036343539383763002E
:1096CC0039396130643266392D316366612D34323B
:1096DC0062332D623562612D31623464343334313E
:1096EC00333932660034356265346135362D3438A1
:1096FC0066352D343833632D386262312D64336610
:10970C006565343333633233630032383232613659
:10971C0031302D333264362D343565312D62396656
:10972C00622D323437313338666338646637003231
:10973C00396662613366352D346365382D34366293
:10974C00632D386437352D37373830366462323212
:10975C00633331004661696C656420746F20636FFC
:10976C006E6E65637420746F2073656E736F7220F8
:10977C006E6F646520312E0053656E736F72206EB0
:10978C006F6465203120616C726561647920636F50
:10979C006E6E65637465642E0053756363657373D5
:1097AC0066756C6C7920636F6E6E6563746564208E
:1097BC00746F2073656E736F72206E6F64652032E8
:1097CC00210065613532343861342D343363632DB7
:1097DC00343139382D613461612D37393230306193
:1097EC003735303833350038386261326635642DA0
:1097FC00316539382D343961662D383639372D6459
:10980C003035313664663033626539006234383253
:10981C00643535312D633361652D346464652D6297
:10982C003132352D63653234346437383936623031
:10983C000039373031373637342D393631352D3410
:10984C006662612D393731322D3638323966323015
:10985C003435383336004661696C656420746F208A
:10986C00636F6E6E65637420746F2073656E736FB7
:10987C0072206E6F646520322E0053656E736F72AA
:10988C00206E6F6465203220616C72656164792092
:10989C00636F6E6E65637465642E00256420646569
:1098AC00766963657320666F756E6400466F756EBE
:1098BC00642073656E736F72206E6F646520312E39
:1098CC0000466F756E642073656E736F72206E6FD9
:1098DC00646520322E007265736574416C61726D23
:1098EC0000736574416C61726D436F6F6C6F66666B
:1098FC0044656C61790073657444697374616E635B
:10990C00655468726573686F6C64007365744C6938
:10991C006768745468726573686F6C6400736574FF
:10992C00566F6C756D655468726573686F6C647393
:10993C0000736574536F756E644475726174696FEE
:10994C006E5468726573686F6C6473003735346578
:10995C00626635652D636533312D343330302D39E6
:10996C006664352D61386662346565346138313131
:10997C000039373732386164392D613939382D3433
:10998C003632392D623835352D65653236353863CA
:10999C00613031663700000000000000000000005C
:1099AC008B540D0081540D0077540D006D540D0037
:1099BC0061540D0055540D0049540D0041540D00D7
:1099CC0037540D002D540D0015880D0000000000BB
:1099DC000000000033570D0039570D00996C0D0035
:1099EC0063570D0035570D0000000000000000000B
:1099FC002D570D0047570D00556E0D0067570D0084
:109A0C002F570D00000000000000000027570D002C
:109A1C0055570D00AB630D006B570D0029570D000A
:109A2C00776972696E672E626C650053746172742B
:109A3C0020646973636F766572696E6720736572F3
:109A4C0076696365732E0053746172742064697354
:109A5C00636F766572696E672063686172616374A7
:109A6C0065726973746963732E0050656572206446
:109A7C006576696365206973206D697373696E67B8
:109A8C0021004661696C656420746F20617070659B
:109A9C006E6420706565722043656E7472616C2013
:109AAC006465766963652E00436F6E6E65637465DD
:109ABC00642062792043656E7472616C20646576F3
:109ACC006963652E00446973636F6E6E65637465BC
