:02000002D0002C
:1040000000400D00A48B0D00000006000C0005010F
:084010000401DE0500000000C0
:04401800C8820D004D
:10401C0009480A49884208B505D0094A824202D0AB
:10402C00121A04F006F80748074A0021121A04F085
:10403C0026F8014808BD00BFACE20320F48A0D004D
:10404C0034E3032038E30320F4E7032070B502F0D7
:10405C009DFF074C074BE41AA40800251E46A542F9
:10406C0004D056F8253098470135F8E770BD00BFED
:10407C00E48A0D00AC8A0D0000F09AB808B500F087
:10408C0025F9BDE8084002F043BF00F003BD00F085
:10409C0009BD00F007BD000008B5034A00210C2043
:1040AC0000F054FCFEE700BFB5460D000078B0FAF6
:1040BC0080F0400970470123037070477047006A15
:1040CC000368DB68184700000A4B10B50446036010
:1040DC0002F058F8214602F045FA03F05BF803F0C1
:1040EC004DF82046044B40F8043B02F041F92046C1
:1040FC0010BD00BFFC820D00E4820D0010B504461B
:10410C00FFF7E2FF2046242103F064FC204610BD9B
:10411C000EB400B58CB00DAA202352F8041B0392E8
:10412C008DE8060004930168002304AA1E20059361
:10413C0000F01CFC0CB05DF804EB03B0704770B5DC
:10414C00046843681426054606FB0346A64204D0C1
:10415C00204600F037FD1434F8E7286800F0A2FC84
:10416C00284670BDF0B50E4691B0002104460160A2
:10417C0041600BAD194606A8174600F02DFF1699A5
:10418C00284600F029FF10AA3B7802F82C3D189B1A
:10419C000293179B01932046009506AB314601F024
:1041AC0059FC204611B0F0BD0023092200F062BC7E
:1041BC0010B53549354892B0FFF7F6FF344935480C
:1041CC00FFF7F2FF34493548FFF7EEFF3449354825
:1041DC00FFF7EAFF01F084F801F0C8F801F080F86D
:1041EC00314A014609A801F0E9FC09A801F043F99C
:1041FC0001F076F82D4A014609A801F0DFFC09A868
:10420C0001F039F901F06CF8294A014609A801F0CE
:10421C00D5FC09A801F02FF901F062F8254A0146F6
:10422C0009A801F0CBFC09A801F025F909A800F0B8
:10423C003DFF214B04A8196800F0CEFE04A800F045
:10424C0017FE044604A844B900F030FE12AA02235B
:10425C0022F83A0D0321009406E000F02CFE002316
:10426C00009302461023072109A800F0D8FE134939
:10427C001348FFF74DFF01F033F8002209A901F0B4
:10428C00ABF812B010BD00BFA0E303200C830D00EF
:10429C0058E3032018830D0040E303201E830D0018
:1042AC0068E3032027830D0070E3032060E3032001
:1042BC00A8E303204CE30320ACE2032030830D0081
:1042CC0010E403201346022200F058BF37B501F06A
:1042DC0007F801F09EF8002876D000F0EDF93D4A81
:1042EC00136841F28731C31A8B42044615D902A9CF
:1042FC000223106021F8023D00223748FFF7E2FF4D
:10430C00BDF80650284603F001FE344BC3E900010A
:10431C00334934482944FFF7FBFE334A136841F212
:10432C008731E31A8B4216D902A940F6D57321F8CE
:10433C00023D14602D480022FFF7C4FFBDF8065063
:10434C00284603F0E3FD2A4BC3E90001294925481F
:10435C002944FFF7DDFE284A136841F28731E31A3E
:10436C008B4215D902A9022321F8023D146023487F
:10437C000022FFF7A7FFBDF80650284603F0C6FD44
:10438C001F4BC3E900011F4916482944FFF7C0FE23
:10439C001D4A136841F28731E31A8B4218D902A9DE
:1043AC0040F6F273146021F8023D00221748FFF723
:1043BC0089FFBDF80640204603F0A8FD144BC3E965
:1043CC0000011449214400E013490648FFF7A0FE00
:1043DC0003B030BD3CE3032070E30320A0E30320D3
:1043EC0042830D0010E4032048E3032060E3032024
:1043FC0058E3032050830D00B4E30320A8E303200B
:10440C0040E3032058830D00B0E303204CE303206A
:10441C0068E3032063830D006E830D008842F8B5BA
:10442C0006460C46154616D9904215D2A2F1140533
:10443C006C1AA1F114070444AF421CD02CB12946CC
:10444C00204600F0AFFB2B7C2374284600F0BAFB0F
:10445C00143D143CF0E70ED0AC420CD02EB12146EA
:10446C00304600F09FFB237C3374204600F0AAFBFF
:10447C0014341436F0E7F8BD2DE9F0410023036045
:10448C00436083604E689E4204460F4624DD4FF025
:10449C00140808FB06F000F0FDFA0546E0B194E8BC
:1044AC00060008FB0212FFF7B9FF206800F0FAFAC9
:1044BC002560A6603E687B6808FB0368464509D00A
:1044CC002DB13146284600F0E6FB337C2B741436B4
:1044DC001435F3E77B6863602046BDE8F08100008B
:1044EC002DE9F04790B0002400F0CEF80494059428
:1044FC00069402F04FFE4B4DDFF85881DFF858A1BF
:10450C00074604A907A8FFF7B7FF2E4607A90AA874
:10451C00FFF7B2FF444B46F8043B0AA90DA8FFF77E
:10452C00ABFF0DAA0121304602F083F90DA8FFF76D
:10453C0006FE0AA8FFF703FE3C4B2B602F6207A870
:10454C00FFF7FDFD3A4B2B6002F024FE4FF41651A1
:10455C00384E394F02F00EFE01F014FE294602F0DF
:10456C00FBF804A8FFF7EBFD32463449284603F06C
:10457C0024FAD8F800300093314B324D0294019458
:10458C004FF010091B688DF834900DAA394650462F
:10459C00FFF7E8FD32462946504603F00EFAD8F8EC
:1045AC0000300093DFF8B4A0274B029401941B68F1
:1045BC008DF834900DAA39465046FFF7D3FD32469C
:1045CC002946504603F0F9F9D8F800300093DFF88B
:1045DC0090A01E4B029401941B688DF834900DAA88
:1045EC0039465046FFF7BEFD32462946504603F089
:1045FC00E4F9D8F8003000938DF83490144BDFF8C0
:10460C006490029401941B680DAA39464846FFF742
:10461C00A9FD32462946484603F0CFF910B0BDE853
:10462C00F08700BF78E30320E4820D00A4870D001F
:10463C00FC820D0038E3032084830D00D5400D006F
:10464C00B0E2032083540D00B8E20320B4E203204F
:10465C00BCE20320ACE2032070E3032060E3032000
:10466C00A8E303204CE3032008B5024B1B689B68AE
:10467C00019308BD6802030008B5024B1B68DB6898
:10468C00019308BD6802030008B5024B1B681B6848
:10469C00019308BD2C02030008B5024B1B685B6834
:1046AC00019308BD1802030008B5024B1B68DB68B8
:1046BC00019308BD1802030008B5024B1B685B6927
:1046CC00019308BD1802030008B5024B1B689B68D8
:1046DC00019308BD7802030008B5024B1B681B6DE3
:1046EC00019308BD7802030008B5024B1B689B6D53
:1046FC00019308BD7802030008B5024B1B681B6EC2
:10470C00019308BD7802030008B5034B1B68D3F86E
:10471C009830019308BD00007802030008B5034BE4
:10472C001B68D3F8A830019308BD00007802030081
:10473C0008B5034B1B68D3F8B430019308BD0000D7
:10474C007802030008B5034B1B68D3F8D8300193EB
:10475C0008BD00007802030008B5034B1B68D3F8B2
:10476C00DC30019308BD00007802030008B5034B50
:10477C001B68D3F8EC30019308BD000078020300ED
:10478C0008B5034B1B68D3F8F030019308BD00004B
:10479C007802030008B5034B1B68D3F80031019372
:1047AC0008BD00007802030008B5034B1B68D3F862
:1047BC000431019308BD00007802030008B5024BD8
:1047CC001B689B68019308BD4802030008B5024BA7
:1047DC001B681B69019308BD4802030008B5024B16
:1047EC001B685B69019308BD4802030008B5024BC6
:1047FC001B685B6C019308BD4802030008B5024BB3
:10480C001B689B6C019308BD4802030008B5024B62
:10481C001B68DB6C019308BD4802030008B5024B12
:10482C001B685B6D019308BD4802030008B5024B81
:10483C001B685B69019308BD6402030008B5024B59
:10484C001B681B68019308BD3C02030008B5024BB2
:10485C001B689B68019308BD3C02030008B5024B22
:10486C001B68DB68019308BD3C02030008B5024BD2
:10487C001B681B69019308BD3C02030008B5024B81
:10488C001B685B69019308BD3C02030008B5024B31
:10489C001B689B69019308BD3C02030008B5024BE1
:1048AC001B68DB69019308BD3C02030008B5024B91
:1048BC001B689B6A019308BD3C02030008B5024BC0
:1048CC001B68DB6A019308BD3C02030008B5024B70
:1048DC001B681B68019308BD4C02030008B5024B12
:1048EC001B685B68019308BD4C02030008B5024BC2
:1048FC001B689B68019308BD4C02030008B5024B72
:10490C001B681B69019308BD4C02030008B5024BE0
:10491C001B685B69019308BD4C02030008B5024B90
:10492C001B689B69019308BD4C02030008B5024B40
:10493C001B68DB69019308BD4C02030008B5024BF0
:10494C001B681B6A019308BD4C02030008B5024B9F
:10495C001B685B6B019308BD6002030008B5024B3A
:10496C001B681B6D019308BD6002030008B5024B68
:10497C001B685B6D019308BD6002030008B5024B18
:10498C001B68DB6E019308BD6002030008B5024B87
:10499C001B681B6F019308BD6002030008B5024B36
:1049AC001B685B68019308BD2002030008B5034B2C
:1049BC001B68D3F88830019308BD00002002030067
:1049CC0008B5034B1B68D3F89430019308BD000065
:1049DC002002030008B5024B1B685B68019308BDFD
:1049EC004002030008B5024B1B689B68019308BD8D
:1049FC004002030008B5024B1B68DB68019308BD3D
:104A0C004002030008B5024B1B681B69019308BDEB
:104A1C004002030008B5024B1B685B69019308BD9B
:104A2C004002030008B5024B1B689B69019308BD4B
:104A3C004002030008B5024B1B68DB69019308BDFB
:104A4C004002030008B5024B1B681B6A019308BDAA
:104A5C004002030008B5024B1B681B6B019308BD99
:104A6C004002030008B5024B1B685B6B019308BD49
:104A7C004002030008B5024B1B681B68019308BD7C
:104A8C004402030008B5024B1B68DB6B019308BDA5
:104A9C004402030008B5024B1B681B68019308BD58
:104AAC001C02030008B5024B1B685B68019308BD30
:104ABC001C02030008B5024B1B689B68019308BDE0
:104ACC001C02030008B5024B1B685B6A019308BD0E
:104ADC001C020300002211464068FFF7B3BF0022FE
:104AEC0011464068FFF7BEBF00224068FFF7B2BF17
:104AFC00002281F001014068FFF79CBF00231A4699
:104B0C0019464068FFF78EBF00231A4619464068C5
:104B1C00FFF780BF002211464068FFF773BF0022E9
:104B2C0011464068FFF75EBF002202214068FFF784
:104B3C0061BF00231A464068FFF74CBF024B0322AB
:104B4C005A60024A1A607047B8E303204C840D0087
:104B5C0010B50446006818B1FFF7A4FF00232360CA
:104B6C0010BD10B50446FFF7F3FF204610BD000042
:104B7C0010B5094C00204FF6FF732060A080A07187
:104B8C0020816381FFF70AFF2046044A0449BDE8EF
:104B9C00104002F012BF00BFC0E3032038E3032033
:104BAC006F4B0D000023036043608360037310B5EB
:104BBC000C6804604C6844608C6884600B604B60CB
:104BCC008B6010BD10B504460068FFF76BFF2046E4
:104BDC0010BD10B50446006808B1FFF763FF002351
:104BEC002360A360636010BD38B504460D460068B1
:104BFC000131FFF75FFF10B184E82100012038BDBF
:104C0C0010B50368044613B143688B4207D22046A3
:104C1C00FFF7EAFF20B1A3680BB9226813700120DB
:104C2C0010BD70B50E46114604461546FFF7E8FF59
:104C3C0018B92046FFF7CDFF09E02A463146A5609A
:104C4C00206803F0F6F92268A3680021D1542046AD
:104C5C0070BD38B500230446036043608360037362
:104C6C000D4639B1084603F05DFA29460246204646
:104C7C00FFF7D7FF204638BD884210B50B460446D7
:104C8C0007D0096819B19A68FFF7CBFF01E0FFF76D
:104C9C00A0FF204610BD10B50023044603604360FE
:104CAC0083600373FFF7E8FF204610BD38B5054657
:104CBC000C4641B1084603F035FA21460246284617
:104CCC00FFF7AFFF01E0FFF784FF284638BD7047C0
:104CDC0000207047704700207047704700207047D5
:104CEC0010B51421044602F075FE204610BD10B517
:104CFC001421044602F06EFE204610BD10B514219E
:104D0C00044602F067FE204610BDFFF7C0B9FFF75E
:104D1C00BEB9FFF7BCB910B50446006808B1FFF77F
:104D2C006DFD204610BD000008B50A20024A002186
:104D3C00FFF70CFE08BD00BFB5460D0010B50368AB
:104D4C0004469B689847A368013BA3602BB9236872
:104D5C002046DB68BDE81040184710BDA0F13003B9
:104D6C00DAB2092A01D818467047A0F16103052B65
:104D7C0001D857387047A0F14103052B94BF373841
:104D8C004FF0FF307047000010B500230370044B48
:104D9C0004461868FFF73AFD01232370204610BD26
:104DAC00D8E3032010B5037804461BB1024B1868F6
:104DBC00FFF734FD204610BDD8E3032008B58279F7
:104DCC008B799A4206D1062203F024F9B0FA80F0CE
:104DDC00400908BD002008BD10B501230361054B37
:104DEC00024603F1100153F8044B42F8044B8B427A
:104DFC00F9D110BD7C860D0010B50B460446B9B137
:104E0C00012A09D1034601F1100251F8040B43F8B1
:104E1C00040B9142F9D108E0411E0F22985C01F875
:104E2C00010F013AD2B2FF2AF8D10123236102E02B
:104E3C00102203F024F9204610BD38B5054614465F
:104E4C001A46FFF7D9FF2C73240A6C73284638BD19
:104E5C0008B502690AB9808903E01022034903F0FE
:104E6C00D9F8003018BF012008BD00BF7C860D00AA
:104E7C000069704738B50C4614220021054603F032
:104E8C00FEF823692BB9627B237B43EA02232B8038
:104E9C000AE001232B7404F110022B4654F8041B76
:104EAC0043F8041B9442F9D1284638BD427B007B61
:104EBC0040EA02207047704710B50B69036101F19D
:104ECC001002034651F8044B43F8044B9142F9D1BC
:104EDC0010BD10B586B00446012201A8FFF78CFF67
:104EEC0001A92046FFF7E8FF06B010BD08B502691E
:104EFC000B699A4206D1102203F08CF8B0FA80F0BC
:104F0C00400908BD002008BD0123F7B50361314BF2
:104F1C000E460546024603F1100153F8040B42F805
:104F2C00040B8B42F9D1002E51D02421304603F0D2
:104F3C0016F9042810D0002710242421304603F041
:104F4C000EF9B84201D944BB41E02C440023A542E0
:104F5C003DD004F8013DFAE73078FFF7FFFE041E60
:104F6C0018DB7078FFF7FAFE002813DB40EA041018
:104F7C008DF80400B078FFF7F1FE041E0ADBF07820
:104F8C00FFF7ECFE0028A1BF40EA04109DF80430A6
:104F9C0028736B7300232B6119E0F05DFFF7DEFEC5
:104FAC00030612D4013C000128552421304603F09D
:104FBC00D6F80137874208D2F05DFFF7CFFE40B23A
:104FCC000028A2BF2B5D184328550137B5E703B065
:104FDC00F0BD00BF7C860D0038B504460D46FFF7CA
:104FEC00FBFE20462946FFF78FFF204638BDF0B563
:104FFC008BB10024E51C8D420FD8661C055D875DC6
:10500C00974205D12E44B14207D31C60681CF0BDF9
:10501C0001352C44EEE71846F0BD0020F0BD2DE91B
:10502C00F74304460E461D461746002A3AD00A4658
:10503C0001AB016AFFF7DBFF9DF82830226A03BB46
:10504C00F8B1961C2E44361A1F2E2BD8DDF804808E
:10505C0008F10209C8EB0202121A00EB080105EB79
:10506C00090092B22144204402F0EEFF6B1C04F8BC
:10507C0008302A46394604EB090002F0DAFF2662B2
:10508C0010E0901C2B181F2B0CD86B1CA354224423
:10509C0020623946567020442A4602F0CAFF226A22
:1050AC002A442262206A03B0BDE8F0831FB504468F
:1050BC00034600F11F02002003F8010B93424FF04E
:1050CC000001F9D104AA062302F8013D0123216253
:1050DC00009120461946FFF7A2FF204604B010BDF0
:1050EC0073B50A460E4601AB016A0446FFF77FFF13
:1050FC00054678B10198226A2918121A521B2144CC
:10510C00204402F096FF236A5D1B2562314620463F
:10511C00FFF7E6FF02B070BD38B500254FF6FF7300
:10512C00044643800E22294605700571063002F0B4
:10513C00A6FF04F11400FFF74FFE04F12800FFF75F
:10514C004BFE044904F13C00FFF783FDE564256543
:10515C00204638BD63870D0010B58369C26903EB27
:10516C00C2029342184606D0046824888C4203F18C
:10517C000803F6D110BD002010BD00002DE9F3414D
:10518C0080461F460E4669B362B3F42A056828BFF1
:10519C00F42214462A78A2B12B79980707D500235C
:1051AC002246A889FFF7C4FA002802DA43E06FF020
:1051BC007700D8F800502B79DA0618D5012F23D1B7
:1051CC0015E068884FF6FF7398420DD02B7959077C
:1051DC0023D5012F21D0A989009223463246FFF70F
:1051EC00BBFA28E0154826E06FF0D10023E09A06C0
:1051FC0021D5022F1FD0A88900232246314602B0A8
:10520C00BDE8F041FFF7D0BAA88900232246314609
:10521C0002B0BDE8F041FFF7BDBA1B0701D5022F64
:10522C0002D16FF0770006E00023A9890093324683
:10523C002346FFF787FA02B0BDE8F081F2FEFFFFCC
:10524C0010B50A6852F8023F03605368436010BD02
:10525C001FB502680B6812881B889A420C460CD149
:10526C0001466846FFF7ECFF214602A8FFF7E8FF6E
:10527C0002A96846FFF7A2FD00B9002004B010BDDA
:10528C0010B504463420FEF700FF014668B1002338
:10529C00036043608360C360036143618361C361E6
:1052AC00036243628362C3620363216019B90A4AD1
:1052BC000A20FFF74BFB0020FFF706FA20B1064A45
:1052CC0000210A20FFF742FB002221680348FFF768
:1052DC0057FA204610BD00BFB5460D000D570D0006
:1052EC0010B50A4C2368DB070ED42046FEF7DEFE11
:1052FC0050B10748FFF7C4FF2046FEF7DCFE054A15
:10530C000549034802F059FB014810BDD0E30320C6
:10531C00CCE3032038E30320F7540D0070B5036889
:10532C00093B012B8AB004460E4619D8FFF7D8FF6B
:10533C00A1880068FFF710FF024658B9202302939A
:10534C00084B0390009302AA034607493220FFF74B
:10535C0005FB05E0F56C1DB1336DE1682069A847CC
:10536C000AB070BD26850D00DC840D0013B501A8B4
:10537C00FFF70AFD0020FFF7A7F9044601A8FFF785
:10538C0011FD04EAE47002B010BD084609B90A46E2
:10539C0001E0096A0022FFF79FB910B50C4611B95C
:1053AC000A46084606E001212046FFF799FE216ACD
:1053BC0000222046BDE81040FFF796B913B501A8AE
:1053CC00FFF7E2FC0020FFF797F9044601A8FFF76E
:1053DC00E9FC204602B010BD73B505460C4601A889
:1053EC001646FFF7D1FC21462846FFF7CEFF0028D2
:1053FC0008DB31462846FFF7D0FF002802DB2846A1
:10540C00FFF7DCFF044601A8FFF7CCFC204602B0F6
:10541C0070BD0368D8690028D4BF002001207047F4
:10542C000B68036013B15A6801325A60704710B5AB
:10543C0051F8043B044640F8043BFFF7F1FF2368A6
:10544C000BB9FFF771FC204610BD10B551F8043BA9
:10545C00044640F8043BFFF7E3FF204610BD10B5AF
:10546C000446006828B14368013B43600BB9FFF761
:10547C0065FC204610BD10B504460430FFF7EFFF65
:10548C00204610BD70B504684368054604EBC3069E
:10549C00A64204D0201DFFF7E2FF0834F8E7286885
:1054AC00FFF700FB284670BD70B5046843680546DD
:1054BC0004EBC306A64204D0201DFFF7D0FF08342E
:1054CC00F8E72868FFF7EEFA284670BD10B50469B6
:1054DC0004F11800FFF7E8FF04F10C00FFF7D2FF0E
:1054EC002046BDE81040FEF7D2BDF8B5046807466B
:1054FC00C4B1A569E36905EBC306AE4204D0281D0F
:10550C00FFF7ADFF0835F8E7A069FFF7CBFA04F118
:10551C000C00FFF7C9FF2046FFF7B4FF34212046EB
:10552C0002F058FA3846F8BD73B5002505604560A1
:10553C0006462420FEF7A9FD044678B103464FF633
:10554C00FF7223F8022BC0F802505D608572C572A1
:10555C00C560056145618561C56105620023142044
:10556C000193FEF792FD034628B10122426082604E
:10557C00084A0260046102A8726840F8042D736046
:10558C003460FFF76CFF33680BB9FFF7CDFB304687
:10559C0002B070BDB8840D0038B50C6803689C422D
:1055AC0005460CD014B1636801336360286828B1D8
:1055BC004368013B43600BB9FFF7C0FB2C602846E6
:1055CC0038BD884270B515461AD9904219D2A1F14E
:1055DC000806511A0439151F44182B1F9E4225D05A
:1055EC00042C07D055F8043C44F8043C29462046CA
:1055FC00FFF716FF2846FFF732FF083D083CECE7A3
:10560C0014D00C1D061D231F9D420FD0042E07D055
:10561C0054F8043C46F8043C21463046FFF700FFA2
:10562C002046FFF71CFF08340836ECE770BD2DE967
:10563C00F041046843680546884604EBC307A7425B
:10564C0018D041462046FFF703FE064608B9083439
:10565C00F5E78CB1201DFFF702FF2B686A6804F197
:10566C00080103EBC2022046FFF7ABFF6B68013B5E
:10567C006B6002E0002600E026463046BDE8F08173
:10568C00F7B5044651F8043B4768009301A8FFF7AF
:10569C00C7FE6668A3689E4214DB0136002E0BDD44
:1056AC00F000FFF7F7F9054618B394E8060001EB94
:1056BC00C202FFF786FF00E000252068FFF7F2F931
:1056CC002560A6602668626806EBC70506EBC20279
:1056DC00294605F10800FFF774FF35B1009B46F829
:1056EC00373001A9281DFFF79BFE63680133636007
:1056FC00012501A8FFF7B3FE284603B0F0BD00005A
:10570C002DE9F04104468EB003A80D46FFF73CFB93
:10571C002368032B02D0042B42D087E004A8FFF7A8
:10572C0003FF049B22891A806268049952F8083F8F
:10573C00C1F802305368C1F8063007A8049B0693E1
:10574C0005A9FFF76DFE06A905F11800FFF798FFF4
:10575C00044607A8FFF783FE2023069374B9364B43
:10576C00009306AA2346354907943220FFF7F6F832
:10577C00049B21461888FEF7C7FF0DE0304A0092C3
:10578C00002306AA2D4907930120FFF7E7F86B6A5F
:10579C0013B1E96A04A8984705A8FFF760FE45E035
:1057AC0021892846FFF7D8FC074600283ED004681C
:1057BC00A369E1694FF6FF72228003EBC1019942A4
:1057CC0003D053F8080B4280F9E7E668236906EB2F
:1057DC00C308B04504D0301DFFF741FE0836F8E78A
:1057EC0000232361A669E36906EBC308B04504D026
:1057FC00301DFFF734FE0836F8E70023E361A3728F
:10580C00E372AB6A13B1296B3846984720230D4AD3
:10581C0006930092002309490793012006AAFFF77B
:10582C009DF8394605F11800FFF701FF03A8FFF7B3
:10583C00B9FA0EB0BDE8F0813E850D00DC840D0098
:10584C0064850D0081850D008842F8B506460C462E
:10585C00154614D9904213D2A2F108056C1AA1F185
:10586C0008070444AF4218D01CB129462046FFF764
:10587C00ECFD281DFFF7F3FD083D083CF2E70CD0CA
:10588C00AC420AD01EB121463046FFF7DEFD201D8A
:10589C00FFF7E5FD08340836F2E7F8BD70B50E1ECB
:1058AC0005460BDDF000FFF7F5F8044670B195E8FE
:1058BC00060001EBC202FFF7C7FF00E000242868D6
:1058CC00FFF7F0F82C60AE60012070BD70BD73B5B1
:1058DC00044645686846FFF7B8FD6168A3689942BD
:1058EC0005DB01312046FFF7D9FF064698B1236846
:1058FC00626803EBC50503EBC202294605F10800FB
:10590C00FFF7A2FF1DB169462846FFF79EFD6368AD
:10591C0001336360012601A8FFF7A1FD304602B0F8
:10592C0070BD8842F8B506460C46154614D990420F
:10593C0013D2A2F108056C1AA1F108070444AF4276
:10594C0018D01CB129462046FFF771FD281DFFF722
:10595C0086FD083D083CF2E70CD0AC420AD01EB1E3
:10596C0021463046FFF763FD201DFFF778FD083414
:10597C000836F2E7F8BD70B50E1E05460BDDF000DB
:10598C00FFF788F8044670B195E8060001EBC202F7
:10599C00FFF7C7FF00E000242868FFF783F82C60AE
:1059AC00AE60012070BD70BD73B504464568684695
:1059BC00FFF73DFD6168A368994205DB0131204684
:1059CC00FFF7D9FF064698B12368626803EBC5055B
:1059DC0003EBC202294605F10800FFF7A2FF1DB137
:1059EC0069462846FFF723FD63680133636001268F
:1059FC0001A8FFF734FD304602B070BD10B5044667
:105A0C00406808B1FEF743FB204610BD07B503699B
:105A1C000C308DE8090003F13C00FFF7D3F8684621
:105A2C00FFF7ECFF03B05DF804FB000038B5002372
:105A3C000446036014200D46FEF727FB28B1012312
:105A4C0043608360024B036005612060204638BDD3
:105A5C0080840D002DE9F04188B005461E46542087
:105A6C0000230F46904604930593FEF70EFBCDF8EA
:105A7C0018D004460790C0B198F80080FFF74CFB93
:105A8C00394604F13C0084F80480FFF70FF90F9BB2
:105A9C00E3643146109B236504F11400FFF70CFA04
:105AAC000E9904F12800FFF707FA2146002601ABF6
:105ABC0002AA03A80796FFF7B9FF039B059A039266
:105ACC0003A805930494FFF7CAFC06A8FFF796FFFA
:105ADC00049B2968059A2B6008A86B6806916A607C
:105AEC0040F8043D05960496FFF7B9FC05A8FFF7AE
:105AFC00B6FC296819B9034A0A20FEF727FF08B03B
:105B0C00BDE8F081B5460D0010B50446406808B1FB
:105B1C00FEF7BDFA204610BD07B503690C308DE8C1
:105B2C0009006846FFF7F0FF03B05DF804FB0000C6
:105B3C0038B500230446036014200D46FEF7A5FA81
:105B4C0028B1012343608360024B03600561206030
:105B5C00204638BD9C840D00F0B5002687B0066049
:105B6C004660044618200F46FEF78FFACDF810D089
:105B7C000546059038B1FFF72FF939462846AE8215
:105B8C00EE82FFF799F900232946059302AA01AB8F
:105B9C0003A8FFF7CDFF039B62682560636003A831
:105BAC000392FFF75CFC04A8FFF7AEFF23680BB968
:105BBC00FFF7BAF8204607B0F0BD00002DE9F04F12
:105BCC001746A1B080460AA80E46FFF7DDF83C68E0
:105BDC002379002B00F0DE803368DD681B6905EB50
:105BEC00C303039304F1140A04F1280B039BAB4287
:105BFC0023D0D5F80090504609F11401FFF776F93F
:105C0C00002800F0CC8009F128015846FFF76EF906
:105C1C00002800F0C480236823F47F41D9F80030B9
:105C2C0023F47F43994240F0BA802023604A1593B5
:105C3C0000230092169315AAA8E004F128094846FF
:105C4C00FFF706F918B95B494846FFF742F9336884
:105C5C001D685B6805EBC30A5545494605D02868A5
:105C6C00FFF744F958BB0835F6E70BA8FFF774FFAC
:105C7C00494615A8FFF7FEF80B9A0023143215A914
:105C8C000120FEF74BFD002878D135680BA90DA833
:105C9C00FFF7DBFB28460DA9FFF719FE05460EA8FA
:105CAC00FFF7DDFB002D69D03268556805F1005314
:105CBC001568013B0CA805EBC305FFF7D0FB04F1FD
:105CCC0014094846FFF7C4F868B93B4B39491A88A0
:105CDC00013292B21A8015A80123FFF7AEF815A96C
:105CEC004846FFF7E9F84FF02C0A5246002115A858
:105CFC0002F0C5F90123494604A8ADF85430ADF8BB
:105D0C0056A0FFF7B7F804AB18AA0DF1200C1868D1
:105D1C0059689646AEE80300083363457246F6D1DF
:105D2C001868CEF8000023798DF858302B689B8AC0
:105D3C00ADF87430E36B17930022204B1E93A11D1A
:105D4C0015A81F94FEF712FD20BB012323703468A5
:105D5C0039460C340DA8FFF76AFB20460DA9FFF756
:105D6C0023FE04460EA8FFF77AFB9CB920230D9363
:105D7C00134B00930E9423460DAA07E03946404678
:105D8C00FFF755FB0CA8FFF76AFB0AE00D49322020
:105D9C00FEF7E4FD39464046FFF749FB01E00835C4
:105DAC0024E70AA8FEF7FEFF404621B0BDE8F08FBD
:105DBC0051860D00CC840D00D4E3032029530D0033
:105DCC002A860D00DC840D0010B5064C00232046FD
:105DDC002360FEF70BFD2046034A0449BDE8104042
:105DEC0001F0EBBDD8E3032038E30320234D0D0075
:105DFC00F8B506460D468F180024BD420CD033680A
:105E0C0015F8011B9B6830469847002801DB0444B9
:105E1C00F3E7002C08BF04462046F8BD70B50546D4
:105E2C000C46084649B102F07DF92B680246214622
:105E3C002846DB68BDE87040184770BD03689B6856
:105E4C00184738B50D210546FFF7F8FF0A2104461F
:105E5C002846FFF7F3FF204438BD30B58BB00B4616
:105E6C0000218DF82410012A98BF0A220DF1230479
:105E7C00B3FBF2F505FB123303F0FF03092B94BFC0
:105E8C0030333733DBB2214604F801392B46002D71
:105E9C00EED1FFF7C3FF0BB030BD0CB42DE9F043CE
:105EAC0087B000AF07F13804054654F8049B3C60FA
:105EBC000E4623464A461421381DFEF703FE1328CE
:105ECC0005D8391D2846FFF7A9FF044613E000F159
:105EDC00080323F00703E846ADEB030D411C2346F2
:105EEC004A4668463C60FEF7EDFD69462846FFF7DA
:105EFC0095FF0446C5461EB12846FFF7A2FF044491
:105F0C0020461C37BD46BDE8F04302B070478068A0
:105F1C000368DB681847704719B10B6808465B6863
:105F2C001847704719B10B6808465B6818477047EB
:105F3C0070477047704738B504460D4600682E21EF
:105F4C0002F0DCF82368C31A2B6023B1037803B189
:105F5C00013023682060184638BD10B50C2104466A
:105F6C0001F038FD204610BD10B50421044601F0A7
:105F7C0031FD204610BD10B50421044601F02AFD68
:105F8C00204610BD38B50C46054601F003F9844295
:105F9C000DD001F087F9844205D101F083F9BDE8F9
:105FAC00384001F07CB921462846FFF7BBFF38BDCD
:105FBC0008B502F0ADF8B0FA80F0400908BD38B56C
:105FCC00054608460C4602F0ADF821460246284626
:105FDC00BDE8384001F08FBC0068FEF717BC70B507
:105FEC00044608460D4602F09DF8236802462946F1
:105FFC002046DB68BDE87040184713B502AB026859
:10600C0003F8011DD46819460122A04702B010BD47
:10601C002DE9F04F4568076885B091461422554329
:10602C000193AB10194D02925D438B463C46012304
:10603C00002D039323DD029B6E1003FB06F004EB93
:10604C0000084A46B8F804A02058D14528BF52464B
:10605C00594602F06FF8039B48B9D14503D1019A18
:10606C0013703546E4E78CBF0120002000E0C00F20
:10607C000028F6D0AE1B08F11404013EF1E7E41B36
:10608C000248A410604305B0BDE8F08FCDCCCCCC59
:10609C00F0B585B003690191067E13B309B304AF63
:1060AC00002347F8043D00F10C041D46394601A8B5
:1060BC00FFF741FF0146A0B104AB039A03F8055D5D
:1060CC002046FFF7A5FF9DF80B3053B1236814242D
:1060DC0004FB0034083434F9023C002BA8BFDEB2B8
:1060EC00E4E7304605B0F0BD10B5094C2368DB077A
:1060FC000BD42046FDF7DAFF38B12046FDF7DBFF65
:10610C00044A0549054801F058FC044810BD00BF7D
:10611C00DCE3032038E303203F5F0D00C4E20320DF
:10612C0010B5094C2368DB070BD42046FDF7BEFFE6
:10613C0038B12046FDF7BFFF044A0549054801F078
:10614C003CFC044810BD00BF0CE4032038E30320E2
:10615C003D5F0D00C0E2032038B500250446056004
:10616C004560856005614561856140F8245FFEF7F7
:10617C003DFBFFF7B9FFE061FFF7D2FF257320620B
:10618C00204638BD10B50A4C2368DB070ED42046D8
:10619C00FDF78CFF50B10748FFF7DEFF2046FDF7F7
:1061AC008AFF054A0549034801F007FC014810BD68
:1061BC00E0E30320E4E3032038E30320FB650D0058
:1061CC000023024A02490348FEF7E0BBDD640D00E0
:1061DC006D640D00F5630D0000231A461946184630
:1061EC00FEF7D4BB73B502AC8E6851F8043B44F88F
:1061FC00083D054601A8FFF713F92246314628460B
:10620C0001F0B0FB01A8FFF72AF9284602B070BDD7
:10621C0073B502AC0E6951F8043B44F8083D0546D1
:10622C0001A8FFF7FDF822463146284601F0B5FBE0
:10623C0001A8FFF714F9284602B070BD73B502AC83
:10624C00CE6851F8043B44F8083D054601A8FFF719
:10625C00E7F822463146284601F05CFB01A8FFF71F
:10626C00FEF8284602B070BD30B58BB00D46014625
:10627C0004A8FFF7B7FF04A801F07FFAE8B104A95E
:10628C006846FFF7DBFF0F490298FFF791FE0446C3
:10629C0010B12C1C18BF012401A8FFF7E0F8002C4A
:1062AC00E9D004A96846FFF7B3FF684601F045FA48
:1062BC00286001A8FFF7D3F8DDE705A8FFF7CFF8B2
:1062CC000BB030BDBC860D0037B50C4620461349CB
:1062DC00154601F01DFF40B900F05CFF4FF416515C
:1062EC0000F048FF00F056FF15E00D49204601F084
:1062FC000FFF78B902A94FF4165341F8043D284614
:10630C00FFF7B2FF00F0CEFF019900F0C5FF00F0DF
:10631C00C9FF00E0002003B030BD00BFC1860D00F6
:10632C00C8860D0070B5046843681426054606FB44
:10633C000346A64205D004F10800FFF7F3FF14341E
:10634C00F7E72868FEF7AEFB284670BD70B5046809
:10635C004368054604EB0316A64204D02046FEF71C
:10636C0031FC1034F8E72868FEF79CFB284670BD1A
:10637C0010B504460C30FFF7D5FF2046FFF7E6FFBB
:10638C00204610BD10B5044B044640F8043BFFF703
:10639C00EFFF204610BD00BFE4820D0010B504468F
:1063AC00FFF7F0FF2046242101F014FB204610BD1E
:1063BC0010B5034B03600446FFF7E4FF204610BD05
:1063CC00AC860D0010B50446FFF7F2FF20462421E1
:1063DC0001F000FB204610BD10B503680446186898
:1063EC00FEF71CFA204610BD2DE9F04F9B461B4BC7
:1063FC005B68C3F3080385B082460E46904653BBD8
:10640C00FFF7C0FE044624300390FFF7E5FD237B25
:10641C00F3B90123237325686368F6B205EB83098E
:10642C004D4513D055F8047B4146381DFFF730FE1F
:10643C008642F5D33B68CDF800B09B689E46384643
:10644C004346324651467746B847E9E70023237363
:10645C0003A8FFF7C1FF05B0BDE8F08F00ED00E029
:10646C002DE9F74F9946194B5B68C3F308030746B0
:10647C008846164633BBFFF785FE04462430019050
:10648C00FFF7AAFD237BD3B9012323732568636827
:10649C005FFA86FB05EB830A55450ED055F8046B65
:1064AC004946301DFFF7F4FD8345F5D3336842466A
:1064BC00DB68394630469847EEE70023237301A882
:1064CC00FFF78AFF03B0BDE8F08F00BF00ED00E0DE
:1064DC002DE9F341154B5B68C3F30803044688466A
:1064EC00FBB9FFF74FFE064624300190FFF774FD11
:1064FC0096E8A000462605EB8707AF4207D101A816
:10650C00FFF76AFFB442B4BF002001200AE055F83F
:10651C00040B41460430FFF7BBFD8642A8BF06467C
:10652C00EBE7002002B0BDE8F08100BF00ED00E019
:10653C0070B503684268044603EB82029A4218461F
:10654C000ED006680D68AE4203F10403F6D1011DAE
:10655C00521A01F079FD6368013B6360012070BD44
:10656C00002070BD1FB50446243001910390FFF745
:10657C0033FD01A92046FFF7DBFF20B903A8FFF785
:10658C002BFF04B010BD6368002BF7D1FFF724FE7E
:10659C00F4E770B5056943691826044606FB0356F3
:1065AC00AE4215D005F110012046FFF7C1FF63681C
:1065BC000BB9FFF711FEE06929690368DB6898479E
:1065CC00696919B1206A0368DB6898471835E7E7F1
:1065DC0025696369182606FB0356B54204D0284684
:1065EC00FEF7F0FA1835F8E70023636170BD73B558
:1065FC00044602ADFFF7F0FD04F1240045F8040D4C
:10660C00FFF7EAFC2046FFF7C4FF2846FFF7E4FE3D
:10661C00606A08B1FEF7F2F825696369182606FB73
:10662C000356B54204D02846FEF7CCFA1835F8E7E5
:10663C002069FEF737FA2068FEF734FA204602B0DC
:10664C0070BD03680A6802600B6043684A68426068
:10665C004B6083688A6882608B60704710B500233A
:10666C000446036043608360FFF7EBFF204610BDD8
:10667C008842F8B50446164625D9904224D2551ABC
:10668C00143D2C44A1F11407A2F10C050026A5F130
:10669C0008039F4237D084B155F8083C236035F885
:1066AC00043CA38035F9023CE380A660E6602661D9
:1066BC00294604F10800FFF7C4FF2846FFF732FE15
:1066CC00143C143DE3E71ED001F108050027A5F1A9
:1066DC0008039E4217D084B155F8083C236035F866
:1066EC00043CA38035F9023CE380A760E760276196
:1066FC00294604F10800FFF7A4FF2846FFF712FE15
:10670C0014341435E3E7F8BDF8B5456883689D4249
:10671C0004460E4617460EDB0135002D05DDA9009B
:10672C000068FEF7C7F920B9F8BD0068FEF7BAF9A2
:10673C0000202060A5602568626805EB860105EBEA
:10674C008202521A081D01F07FFC45F8267063681E
:10675C00013363600120F8BD37B5044624300D4683
:10676C000190FFF739FC2368616803EB81008342D9
:10677C001A4609D01268AA4203F10403F7D101A802
:10678C00FFF72AFE00250EE02A462046FFF7BCFF45
:10679C0005460028F3D06368012B01D1FFF710FDEB
:1067AC0001A8FFF719FE284603B030BD8842F8B5A2
:1067BC0006460C46154614D9904213D2A2F1100588
:1067CC006C1AA1F110070444AF4218D01CB1294631
:1067DC002046FEF7E7F92846FEF7F4F9103D103C89
:1067EC00F2E70CD0AC420AD01EB121463046FEF77F
:1067FC00D9F92046FEF7E6F910341036F2E7F8BD69
:10680C0070B50E1E05460BDD3001FEF743F904464C
:10681C0070B195E8060001EB0212FFF7C7FF00E02C
:10682C0000242868FEF73EF92C60AE60012070BD94
:10683C0070BD2DE9F04F002395B0924646220360BF
:10684C0043608360C3600361436102760291DAF8AE
:10685C00041008939942054609930A9340F39D80CE
:10686C0008A8FFF7CDFF002840F097808EE0214666
:10687C000BA8FEF797F90BA90FA8099EFEF792F942
:10688C0009990A9B9942C0F2CE80013108A8FFF702
:10689C00B7FF002840F0C7800FA8FEF793F90BA8AC
:1068AC00FEF790F91434A742E1D100260B960C9612
:1068BC000D96B146099B9E4280F2A8803301089A3E
:1068CC00D3580693002B00F09F8014237343CDF80C
:1068DC001C9001930BAC07A906A8FFF72CFB0746ED
:1068EC00002800F0918014AB014603F8399D079AFB
:1068FC002046FFF78DFB9DF817800090B8F1000F34
:10690C0053D1BDF81C30ADF840304FF6FF730F97E4
:10691C00ADF84230CDF84480CDF84880CDF84C80AD
:10692C006768A3689F424FDA009BD4F800B0616897
:10693C00142253430BEB030702FB01B207F11400C3
:10694C0039460393FFF794FEA7B1039B0F9A4BF8BC
:10695C000320BDF84030BB80BDF94230FB80C7F846
:10696C000890C7F80C90C7F8109011A907F108000F
:10697C00FFF767FE63680133636011A8FFF7D2FC71
:10698C00B8F1000F11D00BA8FFF7CCFC08A8FFF74B
:10699C00DDFC284615B0BDE8F08FDAF80040DAF8D7
:1069AC000430142707FB03477DE72368009A14245F
:1069BC0004FB0234069B1B7823BBDAF80030019AE7
:1069CC0013441B7CE3801DE00137002F0FDD1423E3
:1069DC0003FB07F00393FEF75DF8834678B194E868
:1069EC000600039B03FB0212FFF742FE00E0C346C6
:1069FC002068FEF757F8C4F800B0A76094E74FF092
:106A0C000108BAE7083466E7013653E708A92846B7
:106A1C00FFF717FE0BA905F10C00FFF712FE9DF80E
:106A2C0008302B76AFE7089B099A03EB061603EBAD
:106A3C000212314606F11000FFF7B8FE1EB10FA985
:106A4C003046FEF7AFF8099B0133099324E70000A9
:106A5C007FB50446094B44F8043B05460E4601A895
:106A6C001146FDF709FD01AA31462046FFF7E1FE6C
:106A7C0001A8FDF764FB284604B070BDE4820D004C
:106A8C00F0B50F468BB02B49109C384616461D4668
:106A9C0001F03EFB28BB002C49D0294601A8FFF78A
:106AAC00DDFD2549242000F097FF0546B8B101A96A
:106ABC0004A8FFF7D3FD04A907A8FDF7DDFC07AA7E
:106ACC0031462846FFF7C4FF07A8FDF738FB1B4BE0
:106ADC002B602C6204A8FDF732FB194B2B6001A82C
:106AEC001FE01849384601F013FBF0B9FCB12946F8
:106AFC0004A8FFF7B3FD1049242000F06DFF0546F4
:106B0C0070B104A907A8FDF7B7FC07AA31462846BF
:106B1C00FFF79EFF07A8FDF712FB084B2B602C62BA
:106B2C0004A8FDF70CFB284602E0002000E02046FC
:106B3C000BB0F0BD1A870D0046890D00A4870D001F
:106B4C00AC860D001E870D00014B024A1A6070477F
:106B5C0010E403202F870D002DE9F047089DD0F895
:106B6C00209004460E461746984600F013FB8145CC
:106B7C0005D15A4800F0E7FC002840F0AC802B7996
:106B8C001B0705D56B69564A206A0021FFF785F96A
:106B9C00B8F1000F0DD05B212046FFF72EFA4146CD
:106BAC002046FFF71CFA23684E49DB680222204678
:106BBC0098472B79D90725D5D5F808802F21404641
:106BCC0001F0D9FA08B100F1010841462046FFF75F
:106BDC0006FA2B799A0709D53A212046FFF70DFAC8
:106BEC00EB68414A206A0021FFF757F92B7913F023
:106BFC00040F236818BF3D49DB6808BF3C490222DB
:106C0C00204698472B795B0718D529690A46134605
:106C1C0013F8010B38B1202801D1194601E02828BE
:106C2C0001D01A46F3E72368521ADB6820469847CE
:106C3C0023683049DB6804222046984700213846F7
:106C4C00FDF79CFE01462046FFF7C9F92368284949
:106C5C00DB680222204698471EB131462046FFF7DA
:106C6C00BEF92B7913F0300F2DD023682249DB6845
:106C7C002046022298472B79D8060BD523681F494A
:106C8C00DB68072220469847AB691D4A206A002121
:106C9C00FFF703F92B79990611D5DA0605D5236888
:106CAC001249DB6802222046984723681549DB68A5
:106CBC0020460A229847E9692046FFF790F95D21A2
:106CCC002046FFF79AF923680F49DB682046022219
:106CDC00BDE8F0471847BDE8F08700BF44E7032044
:106CEC0033870D003A870D003D870D0040870D005E
:106CFC0045870D0043870D0048870D004B870D001D
:106D0C0053870D0056870D0061870D002DE9F04368
:106D1C0085B0D0F820800C9C06460F4691461D4647
:106D2C0000F038FA804505D14A4800F00CFC0028E8
:106D3C0040F08C80336A484A01924FF0000801A859
:106D4C0003938DF8088000F042FD41464846FDF75C
:106D5C0015FE42498046012201A800F0BDFD4146C6
:106D6C00FFF72DF93FB13E49012201A800F0B4FD17
:106D7C003946FFF724F93DB13A49012201A800F048
:106D8C00ABFD2946FFF71BF92379DF070ED5A56864
:106D9C002F21284601F0EFF900B1451C32490122A0
:106DAC0001A800F099FD2946FFF709F923799D0701
:106DBC0007D52E49022201A800F08EFDE16800F0F3
:106DCC0013FD2379580716D525692F463B4613F832
:106DDC00012B3AB1202A01D11D4601E0282A01D00D
:106DEC001F46F3E70222224901A800F075FD7A1B29
:106DFC00294600F080FD2379190707D51D4901228A
:106E0C0001A800F069FD616900F000FD2379DA0644
:106E1C0008D5042218490DEB020000F05DFDA169B4
:106E2C0000F0E2FC23799B0607D51449062201A841
:106E3C0000F052FDE169FFF7C2F801A800F0B1FCC7
:106E4C00306A0F4903680222DB68984705B0BDE839
:106E5C00F08300BF44E7032094860D00C6860D0026
:106E6C00D9860D00AC830D00D1830D0064870D0015
:106E7C0067870D001C830D006A870D006F870D005E
:106E8C0061870D00024B1A68024B1A60704700BFF5
:106E9C00C8E2032014E4032010B58368044613B140
:106EAC00032201469847204610BD10B50446FFF753
:106EBC00F3FF204610BD00000348044A0449002398
:106ECC00836000F07ABD00BF18E4032038E3032090
:106EDC00B76E0D0008B50C4B33B100F05BF90368CD
:106EEC001B699847002809DC084B63B100F0DAF9FC
:106EFC0003681B699847002803DC08BDAFF30080CA
:106F0C00F2E7AFF3008008BD0000000000000000B5
:106F1C0008B5FFF7DFFFFDF7CFFB014B186008BD8D
:106F2C004CE703200248034A0349121A01F081B8C6
:106F3C0000F4032004F40320F08A0D0007B50023AD
:106F4C0000931A466FF07701FDF73AFD03B05DF838
:106F5C0004FB000007B543880A2B08D0502B09D13D
:106F6C00094B1B683BB103B05DF804EB1847FFF706
:106F7C00E5FF06E0002300931A466FF07701FDF75A
:106F8C001FFD03B05DF804FB28E4032038B5104C5A
:106F9C00104D2368AB42104B0CBF012200221A701B
:106FAC0002D0FFF7BFFF2560FDF776FB044601F02A
:106FBC006FF80A4B13B12046AFF30080002107484D
:106FCC00FDF760FD00210648BDE83840FDF7EEBC3A
:106FDC0000F403201E1C279A2CE403200000000060
:106FEC00616F0D00704710B51821044600F0F2FCDB
:106FFC00204610BDF0B5037D062B8DB00E4600F17A
:10700C0004074FF0000402D000F1080518E00CADA5
:10701C00394605F8304D2F232A460A20FDF706FC89
:10702C00284601F07FF833680246DB682946304673
:10703C0098470FE024B12E213046FEF7FFFE0444A2
:10704C0015F8011D0A223046FEF707FFBD42044425
:10705C00F0D120460DB0F0BD10B5054B0446112201
:10706C0040F8043B002101F00AF8204610BD00BF97
:10707C0018880D000346074A10B543F8042B01F19C
:10708C00100251F8044B43F8044B9142F9D10A78A1
:10709C001A7010BD18880D0010B59DF8084044EA10
:1070AC00032343EA024242EA01610423416003756F
:1070BC0010BD37B50D788B784A78C9780091294680
:1070CC00FFF7EAFF03B030BD41747047704708B555
:1070DC000021007CFDF722FC30EA200028BF4FF095
:1070EC00FF3008BD08B50121007CFDF717FC30EA24
:1070FC00200028BF4FF0FF3008BD08B5007CFDF71D
:10710C0005FC20EAE07008BD08B5007CFDF7F6FB35
:10711C0020EAE07008BD007CFDF710BC10B514210E
:10712C00044600F057FC204610BD38B50446007CE0
:10713C000D46FDF7EBFB002801DC607C28B12946ED
:10714C00207CFDF7F3FB20EAE07038BD10B5044657
:10715C00002363604FF47A73A360054B2360012313
:10716C000846217463741146FDF7B0FB204610BD30
:10717C002C880D000022007CFDF7B0BB007CFDF7D5
:10718C00B5BB10B514220446002100F078FF204650
:10719C0010BD000030B50E4D87B001A8FFF7F1FF10
:1071AC00296811F0010410D12846FCF77FFF60B16B
:1071BC0001AA21460748FFF7C9FF2846FCF77BFFC9
:1071CC00054A0649034800F0F8FB024807B030BDF9
:1071DC0030E4032034E4032038E30320D9700D009D
:1071EC0070474174704708B5007CFDF75FFB20EADF
:1071FC00E07008BD08B5007CFDF738FB20EAE070B4
:10720C0008BD08B5007CFDF741FB30EA200028BF23
:10721C004FF0FF3008BD08B5007CFDF72FFB30EABE
:10722C00200028BF4FF0FF3008BD007CFDF736BBB7
:10723C0010B51421044600F0CDFB204610BD70B5EE
:10724C00457C04460E4625B9007CFDF72FFB002833
:10725C0005DD3146207CBDE87040FDF7FFBA2846BD
:10726C0070BD000010B5044608461146002262604D
:10727C004FF47A72A260054A226001222074627473
:10728C001A46FDF7DBFA204610BD00BF5C880D00E6
:10729C000023007CFDF712BB0022FFF7F9BF007C36
:1072AC00FDF7D4BA38B50C4D296811F0010411D191
:1072BC002846FCF7FBFE68B1084A094B09482146F1
:1072CC00FFF7D0FF2846FCF7F6FE074A07490548AA
:1072DC0000F073FB034838BDE0E40320E4E4032032
:1072EC005CE4032048E4032038E30320ED710D0037
:1072FC00002211464068FDF7A5BB002211464068EC
:10730C00FDF7B0BB00224068FDF7A4BB002281F062
:10731C0001014068FDF78EBB00231A46012140682D
:10732C00FDF780BB00231A4619464068FDF772BB77
:10733C00002211464068FDF765BB002211464068EB
:10734C00FDF750BB002202214068FDF753BB002320
:10735C001A464068FDF73EBB38B5054688B104684F
:10736C004CB1A3681BB1032221462046984710213B
:10737C00204600F02FFB28461421BDE8384000F0D1
:10738C0029BB38BD10B103685B681847704710B54E
:10739C0003680446BBB15868FDF710FA78B9236846
:1073AC005A7C12B95868FDF711FA23685868FDF732
:1073BC0015FA20680023236028B1FFF7CDFF206861
:1073CC0008B1FFF7C9FF204610BD38B50446D0F808
:1073DC00C40108B1FCF75DFED4F8C00108B1FDF79B
:1073EC000DFAD4F8BC5135B12846FFF7D0FF042173
:1073FC00284600F0EFFA206808B1FFF7C3FF2046DB
:10740C0038BD000010B5044B044640F8083BFFF7AC
:10741C00DCFF204610BD00BF8C880D0038B50E4C2B
:10742C000E4B23600025022304F5E4706360A56015
:10743C00C4F8C451C4F8C851FDF7D8F9084BC4F8C6
:10744C00CC5184F8D05123602046064A0649BDE849
:10745C00384000F0B2BA00BF68E50320F4880D0094
:10746C008C880D0038E3032011740D0000221146A6
:10747C004068FDF7C7BA002211464068FDF7E2BA32
:10748C00002211464068FDF7EDBA00224068FDF776
:10749C00E1BA002281F001014068FDF7CBBA00236C
:1074AC001A4619464068FDF7BDBA00231A4619461C
:1074BC004068FDF7AFBA002211464068FDF792BA5A
:1074CC00002202214068FDF795BA00231A46406855
:1074DC00FDF780BA024B04225A60024A1A607047C8
:1074EC003CE70320C0880D0000231A464068FDF7D6
:1074FC0071BA002202214068FDF77CBA00221146C5
:10750C004068FDF76FBA002211464068FDF77ABA61
:10751C0000231A4619464068FDF77CBA00231A4628
:10752C0019464068FDF77EBA002281F001014068DF
:10753C00FDF780BA00224068FDF78CBA0022114694
:10754C004068FDF78FBA002211464068FDF77ABA01
:10755C002DE9F043002495B016460D460746FFF77B
:10756C007BFD214620220CA8009400F088FD4023CE
:10757C000C9321466B460CAA3046FDF77DF8044669
:10758C00002844D1024601216868FDF73BFA02212C
:10759C00804622466868FDF735FA009E81462146F2
:1075AC00002E34D0002932D17368022B02D00A2B62
:1075BC0009D02AE0B8F1000F27D0716938460431A0
:1075CC00FFF777FD20E0B9F1000F1ED0746911228E
:1075DC0001A800F054FD06238DF8143001AD04F120
:1075EC0008031834186859682A4603C20833A342A2
:1075FC001546F7D101A906A807ADFFF73BFD0FCD46
:10760C003C1D0FC42B6823700121F669C8E7009854
:10761C00FDF72AF8384615B0BDE8F083024B034A53
:10762C001A6000225A60704744E70320F4880D006A
:10763C0000F11002012312F8101C0129104604D18C
:10764C0052F8041C03EB410304E0022904BF52F876
:10765C00041C5B18013B02F11002ECD170470EB414
:10766C002DE9F04187B000AF07F13404054654F81A
:10767C00046B7C6023463246102107F10800FDF7AD
:10768C0021FA0F2816D900F1080323F00703E84666
:10769C00ADEB030D3246411C234668467C60FDF77A
:1076AC0011FA021E04DD2B6869469B682846984730
:1076BC00C54607E030B12B6802469B6807F108010C
:1076CC00284698471C37BD46BDE8F04103B07047CB
:1076DC0013B502AB026803F8011D94681946012228
:1076EC00A04702B010BD8368FBB11A78032A1AD8E0
:1076FC00DFE802F00417021D0520704702685B6882
:10770C005268D05C2D2814D0A0F13003092B10D96D
:10771C00742810D066280ED0A0F16E035842584140
:10772C0070470620704700207047184670470420A9
:10773C007047032070470220704710B50446FFF7CE
:10774C00D2FF02280DD016D3042814D82268A368BF
:10775C0050685B680A2200211844BDE8104000F014
:10776C00A3BD2268A36852685B68D05CA0F1740367
:10777C005842584110BD002010BD10B54369044655
:10778C005BB18068E060013B1030A06020616361F8
:10779C002BB1FFF74DFFA06001E0184610BD012092
:1077AC0010BD10B57D210446FFF792FF0123237114
:1077BC00204610BD08B50379012B02D0022B02D054
:1077CC0008BD2C2100E03A21FFF782FF08BD10B55F
:1077DC000446FFF7EFFF20467B21FFF779FF0023DC
:1077EC002371204610BD000038B504460D46FFF746
:1077FC00E1FF23680449DB6820462A4698470123A9
:10780C002371204638BD00BF3D870D0038B50446B6
:10781C000D46FFF7CFFF23680449DB6820462A4654
:10782C00984701232371204638BD00BF2F890D00D6
:10783C00F8B50D461746222104462F44FFF748FFA2
:10784C002A462946BA4238D0164616F8015B222D34
:10785C0003D05C2D01D01F2D2DD82368521A9B68A4
:10786C00204698475C212046FFF732FF0C2D19D09B
:10787C0007D8092D0FD00A2D12D0082D14D1622152
:10788C000AE0222D05D05C2D03D00D2D0CD17221D8
:10789C0002E0294600E074212046FFF719FF09E0B9
:1078AC006E21F9E76621F7E723680A49DB682A4667
:1078BC002046984731463246C4E7914204D02368AB
:1078CC00521A9D682046A84722212046FFF700FF48
:1078DC00F8BD00BF40890D0070B504460D46164634
:1078EC00FFF768FF204632462946FFF7A1FF022327
:1078FC002371204670BD70B504460D461646FFF741
:10790C0059FF204632462946FFF792FF0123237187
:10791C00204670BD10B50023044603604360104838
:10792C00A060E360D1B10B78032B06D0B3B9136818
:10793C0058684B68C35C6E2B08D0136858684B684A
:10794C000344A3608B6849685B1AE36011462046C8
:10795C0051F8043B40F8043BFDF71EFE204610BDD9
:10796C0063870D00002310B50446036043608360F9
:10797C00C3600361436171B10B78012B0BD101F131
:10798C0010038360CB684361114651F8043B40F807
:10799C00043BFDF701FE204610BD002310B5044644
:1079AC0003604360816031B1114651F8043B40F8EB
:1079BC00043BFDF7F1FD204610BD0B460146184671
:1079CC0000F01ABB024B1868BFF35F8F704700BF03
:1079DC0050E70320FCF75BBB10B5002814BF04462E
:1079EC0001242046FDF756F820B9FFF7EBFF08B14C
:1079FC008047F6E710BD0000184B1A68D1075CBF32
:107A0C0001221A60164B1A68D2075CBF01221A6059
:107A1C00144B1A68D0075CBF01221A60124B1A680B
:107A2C00D1075CBF01221A60104B1A68D2075CBFE9
:107A3C0001221A600E4B1A68D0075CBF01221A6033
:107A4C000C4B1A68D1075CBF01221A600A4B1A68EA
:107A5C00D2075CBF01221A60704700BF70E7032099
:107A6C006CE7032068E7032064E7032060E703204A
:107A7C005CE7032058E7032054E70320244B1A68E3
:107A8C00D0075CBF01221A60224B1A68D1075CBF79
:107A9C0001221A60204B1A68D2075CBF01221A60BF
:107AAC001E4B1A68D0075CBF01221A601C4B1A6867
:107ABC00D1075CBF01221A601A4B1A68D2075CBF4F
:107ACC0001221A60184B1A68D0075CBF01221A6099
:107ADC00164B1A68D1075CBF01221A60144B1A6846
:107AEC00D2075CBF01221A60124B1A68D0075CBF28
:107AFC0001221A60104B1A68D1075CBF01221A6070
:107B0C000E4B1A68D2075CBF01221A60704700BF87
:107B1C00A0E703209CE7032098E7032094E70320C9
:107B2C0090E703208CE7032088E7032084E70320F9
:107B3C0080E703207CE7032078E7032074E7032029
:107B4C00244B1A68D0075CBF01221A60224B1A68BA
:107B5C00D1075CBF01221A60204B1A68D2075CBFA8
:107B6C0001221A601E4B1A68D0075CBF01221A60F2
:107B7C001C4B1A68D1075CBF01221A601A4B1A6899
:107B8C00D2075CBF01221A60184B1A68D0075CBF81
:107B9C0001221A60164B1A68D1075CBF01221A60C9
:107BAC00144B1A68D2075CBF01221A60124B1A6878
:107BBC00D0075CBF01221A60104B1A68D1075CBF5A
:107BCC0001221A600E4B1A68D2075CBF01221A60A0
:107BDC00704700BFD0E70320CCE70320C8E70320A1
:107BEC00C4E70320C0E70320BCE70320B8E7032069
:107BFC00B4E70320B0E70320ACE70320A8E7032099
:107C0C00A4E70320184B1A68D1075CBF01221A6045
:107C1C00164B1A68D2075CBF01221A60144B1A6803
:107C2C00D0075CBF01221A60124B1A68D1075CBFE7
:107C3C0001221A60104B1A68D2075CBF01221A602D
:107C4C000E4B1A68D0075CBF01221A600C4B1A68E5
:107C5C00D1075CBF01221A600A4B1A68D2075CBFBD
:107C6C0001221A60704700BFF0E70320ECE7032005
:107C7C00E8E70320E4E70320E0E70320DCE7032048
:107C8C00D8E70320D4E7032081F0004102E000BFD5
:107C9C0083F0004330B54FEA41044FEA430594EAC0
:107CAC00050F08BF90EA020F1FBF54EA000C55EAFB
:107CBC00020C7FEA645C7FEA655C00F0E2804FEACC
:107CCC005454D4EB5555B8BF6D420CDD2C4480EAAE
:107CDC00020281EA030382EA000083EA010180EADE
:107CEC00020281EA0303362D88BF30BD11F0004F2C
:107CFC004FEA01314FF4801C4CEA113102D0404262
:107D0C0061EB410113F0004F4FEA03334CEA13339C
:107D1C0002D0524263EB430394EA050F00F0A780B4
:107D2C00A4F10104D5F1200E0DDB02FA0EFC22FAAF
:107D3C0005F2801841F1000103FA0EF2801843FAA3
:107D4C0005F359410EE0A5F120050EF1200E012A94
:107D5C0003FA0EFC28BF4CF0020C43FA05F3C018D2
:107D6C0051EBE37101F0004507D54FF0000EDCF14B
:107D7C00000C7EEB00006EEB0101B1F5801F1BD3F4
:107D8C00B1F5001F0CD349085FEA30004FEA3C0CF8
:107D9C0004F101044FEA445212F5800F80F09A80EE
:107DAC00BCF1004F08BF5FEA500C50F1000041EBF2
:107DBC00045141EA050130BD5FEA4C0C404141EBF6
:107DCC00010111F4801FA4F10104E9D191F0000F1D
:107DDC0004BF01460020B1FA81F308BF2033A3F1A0
:107DEC000B03B3F120020CDA0C3208DD02F1140C97
:107DFC00C2F10C0201FA0CF021FA02F10CE002F1D2
:107E0C001402D8BFC2F1200C01FA02F120FA0CFCCA
:107E1C00DCBF41EA0C019040E41AA2BF01EB045113
:107E2C00294330BD6FEA04041F3C1CDA0C340EDC11
:107E3C0004F11404C4F1200220FA04F001FA02F354
:107E4C0040EA030021FA04F345EA030130BDC4F112
:107E5C000C04C4F1200220FA02F001FA04F340EA07
:107E6C000300294630BD21FA04F0294630BD94F0B8
:107E7C00000F83F4801306BF81F480110134013D9F
:107E8C004EE77FEA645C18BF7FEA655C29D094EA10
:107E9C00050F08BF90EA020F05D054EA000C04BF8E
:107EAC001946104630BD91EA030F1EBF0021002079
:107EBC0030BD5FEA545C05D14000494128BF41F018
:107ECC00004130BD14F580043CBF01F5801130BD7C
:107EDC0001F0004545F0FE4141F470014FF0000007
:107EEC0030BD7FEA645C1ABF194610467FEA655CB8
:107EFC001CBF0B46024650EA013406BF52EA03355A
:107F0C0091EA030F41F4002130BD00BF90F0000F47
:107F1C0004BF0021704730B54FF4806404F1320483
:107F2C004FF000054FF0000150E700BF90F0000F3C
:107F3C0004BF0021704730B54FF4806404F1320463
:107F4C0010F0004548BF40424FF000013EE700BF33
:107F5C0042004FEAE2014FEA31014FEA02701FBFC3
:107F6C0012F07F4393F07F4F81F06051704792F095
:107F7C00000F14BF93F07F4F704730B54FF460740F
:107F8C0001F0004521F0004120E700BF50EA01025A
:107F9C0008BF704730B54FF000050AE050EA010207
:107FAC0008BF704730B511F0004502D5404261EB77
:107FBC0041014FF4806404F132045FEA915C3FF4B8
:107FCC00DCAE4FF003025FEADC0C18BF03325FEA51
:107FDC00DC0C18BF033202EBDC02C2F1200300FA06
:107FEC0003FC20FA02F001FA03FE40EA0E0021FA2B
:107FFC0002F11444C1E600BF10B5054C13462CB178
:10800C000A4601460220AFF3008010BD204610BD89
:10801C000000000010B501390244904207D010F85E
:10802C00013B11F8014FA342F7D0181B10BD0020E3
:10803C0010BD10B5431E0A44914204D011F8014BF7
:10804C0003F8014FF8E710BD884210B501EB0203AD
:10805C0001D8421E0BE09842FBD28118D21AD342AF
:10806C0004D013F8014D01F8014DF8E710BD994209
:10807C0004D011F8014B02F8014FF8E710BD02448F
:10808C000346934202D003F8011BFAE77047000045
:10809C0038B5124B1C68A36B0546D3B91820FCF7F6
:1080AC00F9FC43F20E33A06303804AF6CD334380D0
:1080BC0041F2342383804EF26D63C3804DF6EC6342
:1080CC000381052343810B23838101220023C0E913
:1080DC000423A36B00221D615A6138BD30E30320D9
:1080EC00C9B2034610F8012B1AB19142F9D11846C6
:1080FC00704700290CBF18460020704710B5044685
:10810C00FFF7EEFF18B9204600F00CF8204410BD24
:10811C0010F8012B11F8013B012A28BF9A42F7D025
:10812C00D01A7047034613F8012B002AFBD1181AFA
:10813C000138704730B582B1451E013915F8013F41
:10814C0011F8014FA34206D1EC431444E04201D094
:10815C00002BF3D11C46181B30BD104630BD10B59A
:10816C00034601448B4204D01A785C1C0AB12346A6
:10817C00F8E7181A10BD38B503460D4641B1002476
:10818C0029461846FFF7ACFF30B1431C0446F7E70D
:10819C00BDE83840FFF7A4BF204638BD2DE9F047B5
:1081AC0080464048D0F800900F463D4615F8014BEC
:1081BC0009EB0400407800F0080000F0FF0608B15D
:1081CC002F46F2E72D2C03D1BD1C7C78012603E051
:1081DC002B2C04BF7C78BD1C13B1102B0AD15BE097
:1081EC00302C57D1287800F0DF0058284DD16C780E
:1081FC0010230235002E14BF4FF0004C6FF0004CD2
:10820C000027BCFBF3FA384603FB1ACC09EB040E2F
:10821C009EF801E01EF0040F01D0303C0BE01EF084
:10822C00030E1BD0BEF1010F0CBF4FF0370E4FF0F9
:10823C00570ECEEB0404A34210DDB7F1FF3F0AD07A
:10824C00504506D801D1644503DC03FB00400127EF
:10825C0001E04FF0FF3715F8014BD7E77B1C0CD131
:10826C00002E4FF0220314BF4FF000406FF000407F
:10827C00C8F800302AB9BDE8F08706B1404272B1A7
:10828C0007B1691E1160BDE8F0873024002BB1D115
:10829C000823AFE70A23ADE7302CA3D0AAE7BDE84B
:1082AC00F08700BFCCE2032013460A460146024881
:1082BC000068FFF773BF00BF30E303201D400D00C3
:1082CC0059400D0085400D0089400D000000000054
:1082DC000000000000000000000000000000000092
:1082EC00A5400D00C9400D0000000000000000007A
:1082FC00D5400D0009410D00656B0D00CB400D0004
:10830C0074656D7065726174757265006C6967680F
:10831C00740068756D69646974790064697374615B
:10832C006E63650053746172742061647665727457
:10833C006973696E670054656D70657261747572EE
:10834C00653A20004C696768743A200048756D697D
:10835C00646974793A200044697374616E63653A98
:10836C0020006E6F7420636F6E6E6563746564209D
:10837C007965742E2E2E200074656D700034356274
:10838C0065346135362D343866352D343833632DEC
:10839C00386262312D64336665653433336332334E
:1083AC00630039396130643266392D316366612D71
:1083BC00343262332D623562612D31623464343370
:1083CC003431333932660065613532343861342DDD
:1083DC00343363632D343139382D613461612D3779
:1083EC0039323030613735303833350062633766B7
:1083FC00313864392D326334332D343038652D6285
:10840C006532352D3632663430363435393837638B
:10841C000037353465626635652D636533312D342F
:10842C003330302D396664352D61386662346565BC
:10843C003461383131000000000000000000000001
:10844C003F4B0D00354B0D002B4B0D00214B0D0000
:10845C00154B0D00094B0D00FD4A0D00F54A0D00A2
:10846C00EB4A0D00E14A0D005D750D0000000000A7
:10847C0000000000E74C0D00ED4C0D00195A0D00EA
:10848C00174D0D00E94C0D0000000000000000002D
:10849C00E14C0D00FB4C0D00255B0D001B4D0D0040
:1084AC00E34C0D000000000000000000DB4C0D0050
:1084BC00094D0D00D9540D001F4D0D00DD4C0D0064
:1084CC007BE327747BF815ACDD49A913000072F52A
:1084DC00776972696E672E626C6500537461727491
:1084EC0020646973636F766572696E672073657259
:1084FC0076696365732E00537461727420646973BA
:10850C00636F766572696E6720636861726163740C
:10851C0065726973746963732E00506565722064AB
:10852C006576696365206973206D697373696E671D
:10853C0021004661696C656420746F206170706500
:10854C006E6420706565722043656E7472616C2078
:10855C006465766963652E00436F6E6E6563746542
:10856C00642062792043656E7472616C2064657658
:10857C006963652E00446973636F6E6E6563746521
:10858C00642062792072656D6F746520646576690C
:10859C0063652E0043616E6E6F7420616464206E9F
:1085AC0065772070656572206465766963652E0059
:1085BC004E6577207065726970686572616C2069B0
:1085CC007320636F6E6E65637465642E004661691B
:1085DC006C656420746F20617070656E64206469D2
:1085EC0073636F766572656420636861726163742E
:1085FC00657269737469632E004661696C656420E9
:10860C00746F20617070656E6420646973636F763B
:10861C006572656420736572766963652E004661C8
:10862C00696C656420746F20617070656E64206C79
:10863C006F63616C206368617261637465726973E6
:10864C007469632E004475706C6963617465642091
:10865C0063686172616374657269737469632063C2
:10866C00616E6E6F742062652061646465642E00B7
:10867C00FB349B5F800000800010000000000000B5
:10868C000000000000000000415F0D00675F0D005E
:10869C001B5F0D006B760D00000000000000000059
:1086AC00BD630D00D1630D00196D0D00235F0D002E
:1086BC00626175640053657269616C00536572691F
:1086CC00616C31007479706500706172616D00636A
:1086DC006D6400696400686E64007374726D00668A
:1086EC00696C74006C766C0061646448616E646CD7
:1086FC0065720072656D6F766548616E646C65724B
:10870C0000656E756D48616E646C657273004A53DA
:10871C004F4E53747265616D4C6F6748616E646C3B
:10872C0065720061707000253031307520005D205D
:10873C00002564002C200028293A2000205B0063CF
:10874C006F6465203D200025690064657461696C67
:10875C0073203D20000D0A006C6E00666E00636F86
:10876C0064650064657461696C006E6F6E6500749D
:10877C007261636500696E666F007761726E006589
:10878C0072726F720070616E696300616C6C0000D4
:10879C00000000000000000091630D00A9630D00B3
:1087AC00656B0D00CB400D000000000000000000C8
:1087BC003F5F0D00755F0D008D6A0D00255F0D008C
:1087CC0000000000000000003D5F0D00835F0D0005
:1087DC00D5620D00915F0D005A00252B3033643AA1
:1087EC00253032750025592D256D2D2564542548CD
:1087FC003A254D3A2553257A0061736374696D658A
:10880C0000000000000000000000000001700D00DE
:10881C00F16F0D00F36F0D00000000000000000070
:10882C00D9700D0029710D0037710D00FD5D0D0023
:10883C0015710D00DB700D00F1700D0023710D0032
:10884C0007710D00D5700D00000000000000000045
:10885C00ED710D003D720D004B720D00FD5D0D00B4
:10886C0001720D0023720D000F720D0037720D0096
:10887C00EF710D00F3710D0000000000000000000E
:10888C005B730D0051730D0047730D003D730D00AC
:10889C0031730D0025730D0019730D0011730D004C
:1088AC0007730D00FD720D005D750D0000000000DA
:1088BC0000000000D7740D00CD740D00C3740D00C2
:1088CC0079740D00B7740D00AB740D009F740D001E
:1088DC0097740D008D740D0083740D005D750D0083
:1088EC000000000000000000F5740D00FF740D0086
:1088FC0009750D0013750D001D750D0029750D0002
:10890C0035750D0041750D0049750D0053750D0041
:10891C005D750D00302E300066616C7365007472ED
:10892C00756500257500252E2A6C66002567006E7E
:10893C00756C6C00752530347800000020202020E8
:10894C0020202020202828282828202020202020F3
:10895C0020202020202020202020202088101010D3
:10896C00101010101010101010101010040404042B
:10897C0004040404040410101010101010414141A0
:10898C00414141010101010101010101010101010B
:10899C00010101010101011010101010104242429E
:1089AC0042424202020202020202020202020202DB
:1089BC00020202020202021010101020000000003D
:1089CC00000000000000000000000000000000009B
:1089DC00000000000000000000000000000000008B
:1089EC00000000000000000000000000000000007B
:1089FC00000000000000000000000000000000006B
:108A0C00000000000000000000000000000000005A
:108A1C00000000000000000000000000000000004A
:108A2C00000000000000000000000000000000003A
:108A3C00000000000000000000000000000000002A
:108A4C00000000000000000000000000000000001A
:108A5C00000000000000000000000000000000000A
:108A6C0000000000000000000000000000000000FA
:108A7C0000000000000000000000000000000000EA
:108A8C0000000000000000000000000000000000DA
:108A9C000000000000000000000000004300000087
:108AAC00ED440D00494B0D007D4B0D00D55D0D00C7
:108ABC00556B0D00916E0D00C56E0D0029740D00E7
:108ACC00E1740D0029760D00057A0D00897A0D00F0
:108ADC004D7B0D00117C0D0000000000000000001B
:048AEC000000000086
:048AF0000000000082
:108AF4001D840D00F8830D00AE830D00D3830D009B
:108B040089830D00D4870D00BC870D0005880D00F6
:108B140047890D0000000000488A0D00688A0D0096
:108B2400888A0D0000000000000000000000000022
:108B340000000000A88A0D000000000000000000F2
:108B44000000000000000000000000000000000021
:108B54000000000000000000000000000000000011
:108B64000000000000000000000000000000000001
:088B740000000000D0E2032024
:108B7C00FFFFFFFF00000102030405060708090AB6
:108B8C000B0C0D0E0F101112131415161718191AB1
:088B9C001B1C1D1E1F202800F8
:048BA40078563412B9
:04000003D000401CCD
:00000001FF
