:02000002D0002C
:1040000000400D00B89B0D00000006000C000501EB
:084010000401DE0500000000C0
:0440180080920D0085
:10401C0009480A49884208B505D0094A824202D0AB
:10402C00121A04F0C6FF0748074A0021121A04F0BE
:10403C00E6FF014808BD00BF44E20320049B0D00CD
:10404C00D0E20320D0E20320F0E7032070B503F0A8
:10405C008BFB074C074BE41AA40800251E46A5420F
:10406C0004D056F8253098470135F8E770BD00BFED
:10407C00FC9A0D00BC9A0D0000F024BA08B500F0B3
:10408C0027F9BDE8084003F031BB01F0CFB801F0CF
:10409C00D5B801F0D3B8000008B5034A00210C20B4
:1040AC0000F0F8FFFEE700BF3D4D0D000078B0FAC0
:1040BC0080F0400970470123037070477047006A15
:1040CC000368DB68184710B50446006808B101F0B6
:1040DC00B5F8204610BD00000A4B10B5044603602D
:1040EC0002F02CFC214602F019FE03F005FF03F050
:1040FC00F7FE2046044B40F8043B02F015FD204629
:10410C0010BD00BFB4920D009C920D0010B504467A
:10411C00FFF7E2FF2046242104F018FC204610BDD6
:10412C000EB400B58CB00DAA202352F8041B0392D8
:10413C008DE8060004930168002304AA1E20059351
:10414C0000F0B8FF0CB05DF804EB03B07047000052
:10415C001FB5084800F0A8FCFCEEC07A0649CDED6E
:10416C00017ABDF8044003A8224601F077F82046F6
:10417C0004B010BD70E30320C4920D0038B5046880
:10418C0005467CB16368013B63605BB923682046DC
:10419C009B689847A368013BA3601BB92368204622
:1041AC00DB689847284638BD10B5132086B004F05C
:1041BC0047FB84B222460A4903A801F04FF8094B89
:1041CC0009491B788DF8003003AA3C2304A803F09E
:1041DC0039FC05A8FFF7D2FF204606B010BD00BF82
:1041EC00C4920D00E4E20320C7920D0010B512201A
:1041FC0086B004F025FB84B222460A4903A801F0DC
:10420C002DF8094B09491B788DF8003003AA3C2383
:10421C0004A803F017FC05A8FFF7B0FF204606B072
:10422C0010BD00BFC4920D00E4E20320D6920D0035
:10423C0010B50F4888B000F049FCFCEEC07A0D496F
:10424C00CDED037ABDF80C4005A8224601F006F826
:10425C00094B0A491B788DF8003005AA3C2306A8A7
:10426C0003F0F0FB07A8FFF789FF204608B010BD4C
:10427C0070E30320C4920D00E4E20320DC920D00F5
:10428C0010B50F4888B000F0DFFCFCEEC07A0D4989
:10429C00CDED037ABDF80C4005A8224600F0DEFFF8
:1042AC00094B0A491B788DF8003005AA3C2306A857
:1042BC0003F0C8FB07A8FFF761FFE0B208B010BD20
:1042CC0004E30320C4920D00E4E20320E5920D0008
:1042DC0037B54B4D00F03CFD2B6841F28732C31AC9
:1042EC00934204461ED9FFF75FFF04F0CFFD454B08
:1042FC002C60C3E90001FFF72BFF02A9002321F872
:10430C00020D0222404801F027FBBDF8065028465A
:10431C0004F0BCFD3D4BC3E900013D493D48294437
:10432C00FFF7FEFE3C4A136841F28731E31A8B42D9
:10433C0017D91460FFF75AFF02A9002321F8020DC8
:10434C000222364801F008FBBDF80650284604F05E
:10435C009DFD334BC3E9000132492E482944FFF738
:10436C00DFFE314A136841F28731E31A8B4217D9C9
:10437C001460FFF75DFF02A9002321F8020D022251
:10438C002A4801F0E9FABDF80650284604F07EFDF3
:10439C00274BC3E9000127491E482944FFF7C0FEFB
:1043AC00254A136841F28731E31A8B4223D91460F2
:1043BC00FFF766FF214C8DF8060008B923786BB126
:1043CC0000230DF1060101221D4801F0C5FA9DF8EC
:1043DC0006301C490F482370FFF7A2FE9DF80640DB
:1043EC00204604F053FD184BC3E900011749094856
:1043FC002144FFF795FE642003F02AF903B030BD89
:10440C00D4E2032010E3032020E3032058E303202D
:10441C00EE920D00E4E30320E0E20320F0E203203F
:10442C0028E30320FC920D006CE3032060E30320DF
:10443C00D8E2032004930D0068E3032054E2032028
:10444C00E8E203200F930D0018E3032025930D00E1
:10445C0070B5046843681426054606FB0346A6425D
:10446C0004D0204600F09CFF1434F8E7286800F0D4
:10447C00E5FE284670BDF0B50E4691B0002104460D
:10448C00016041600BAD194606A8174601F092F980
:10449C001699284601F08EF910AA3B7802F82C3DAB
:1044AC00189B0293179B01932046009506AB31464F
:1044BC0001F0ACFE204611B0F0BD0023092200F043
:1044CC0095BE000010B592B012A8012200F83B2D49
:1044DC0041F6C67100F096FD35493648FFF7EDFF01
:1044EC0035493648FFF7E9FF35493648FFF7E5FF10
:1044FC0035493648FFF7E1FF01F0E0FA01F024FB03
:10450C0001F0DCFA324A014609A801F033FF09A890
:10451C0001F08CFB01F0D2FA2E4A014609A801F0F9
:10452C0029FF09A801F082FB01F0C8FA2A4A0146CA
:10453C0009A801F01FFF09A801F078FB01F0BEFAF1
:10454C00264A014609A801F015FF09A801F06EFBE7
:10455C0009A801F099F9224B04A8196801F02AF96D
:10456C0004A801F073F8044604A844B901F08CF8CF
:10457C0012AA022322F83A0D0321009406E001F05E
:10458C0088F80023009302461023072109A801F0A4
:10459C0034F914491448FFF7C3FD01F08FFA0022D7
:1045AC0009A901F007FB114800F0CCFA12B010BDBC
:1045BC0010E30320C7920D0028E30320D6920D00D0
:1045CC00D8E20320DC920D0018E30320E5920D00E5
:1045DC0020E30320F0E2032060E30320E8E2032061
:1045EC0044E2032030930D00E4E3032004E30320B2
:1045FC008842F8B506460C46154616D9904215D297
:10460C00A2F114056C1AA1F114070444AF421CD09A
:10461C002CB12946204600F0B3FE2B7C237428468F
:10462C0000F0BEFE143D143CF0E70ED0AC420CD0B2
:10463C002EB12146304600F0A3FE237C3374204675
:10464C0000F0AEFE14341436F0E7F8BD2DE9F0415D
:10465C0000230360436083604E689E4204460F460D
:10466C0024DD4FF0140808FB06F000F0DFFD0546D2
:10467C00E0B194E8060008FB0212FFF7B9FF2068CE
:10468C0000F0DCFD2560A6603E687B6808FB0368D3
:10469C00464509D02DB13146284600F0EAFE337C60
:1046AC002B7414361435F3E77B6863602046BDE841
:1046BC00F08100002DE9F0475D4B5E4E5E4DDFF85A
:1046CC00B4A190B000241C7000F0EAFA2146062236
:1046DC005A4800F011F94FF6FF7373813460B480BF
:1046EC00B4713481012000F0FDFC2A465449304657
:1046FC0004F01EF904940594069403F0FDFB514E4E
:10470C00804604A907A8FFF7A1FF374607A90AA806
:10471C00FFF79CFF4C4B47F8043B0AA90DA8FFF789
:10472C0095FF0DAA0121384602F05FFC0DA8FFF79A
:10473C008FFE0AA8FFF78CFE444B3360C6F820802E
:10474C0007A8FFF785FE424B336003F0D5FB4FF40F
:10475C00165103F0C1FB02F0F1F8314602F0D8FB20
:10476C0004A8FFF775FEDFF810813A493A4F2A4644
:10477C00304604F0DDF802940194D8F80030009330
:10478C00364B374E1B684FF010090DAA3946504670
:10479C008DF83490FFF76FFE2A463146504604F0F0
:1047AC00C7F802940194D8F800300093DFF8CCA03D
:1047BC002C4B8DF834901B680DAA39465046FFF7E8
:1047CC005AFE2A463146504604F0B2F8029401943F
:1047DC00D8F800300093DFF8A8A0234B8DF8349064
:1047EC001B680DAA39465046FFF745FE2A4631464E
:1047FC00504604F09DF8022203211C4800F09AF95F
:10480C0002940194D8F8003000938DF83490184B32
:10481C00DFF870901B680DAA39464846FFF72BFE4F
:10482C002A463146484604F083F810B0BDE8F087BC
:10483C00E4E20320F8E20320D0E2032070E303203B
:10484C00D3400D0030E303209C920D0070970D00B7
:10485C00B4920D00E5400D0042930D0048E2032098
:10486C00395C0D0050E203204CE2032004E30320EA
:10487C0058E2032020E3032044E20320F0E203206B
:10488C0060E30320E8E2032010B503682F2B0446F5
:10489C0004D9074A00210A2000F0FCFB23681F2BD7
:1048AC0083BF03F01F03236002484FF0A04010BDEC
:1048BC003D4D0D000003005007B502AB43F8040D4D
:1048CC001846FFF7E1FF019A01239340C0F8083521
:1048DC0003B05DF804FB07B502AB43F8040D1846B2
:1048EC00FFF7D2FFD0F81035019823FA00F000F052
:1048FC00010003B05DF804FB0272012281710274A5
:10490C00704700002DE9F74F044600F021FAE368E8
:10491C00834284BF0023E360237C33B9E368C01A6D
:10492C00B0F5FA6F01D20120A8E00025554E257490
:10493C0000F00EFAA3793268E0601B01D1182571E2
:10494C00E570A57065702570D05C4B7803F01F0383
:10495C0043EA4010FFF7B0FFFA2002F079FE012184
:10496C00A07903F05CFFA37932681B01D118D25CEB
:10497C004B7802A803F01F0343EA421340F8043DAE
:10498C00FFF782FF019B4FF0010808FA03F3C0F810
:10499C000C35142002F05CFE03F0D4FAA3793268D3
:1049AC001B01D118D05C4B7803F01F0343EA401075
:1049BC00FFF782FF282000F0BBF92946A07903F00D
:1049CC002EFF2F464FF0000BA37932681B01D11834
:1049DC0012F803A04B7803F01F0343EA4A1A50461F
:1049EC00FFF779FF5046FFF776FF80455FFA8BF9AA
:1049FC0008D101200BF1010B00F09AF9BBF1FF0F6C
:104A0C00E2D1D946A37932681B01D11812F8038080
:104A1C004B7803F01F0343EA48184046FFF75BFF4F
:104A2C004046FFF758FFB9F1FF0F5FFA80F814D03A
:104A3C00032D0ED9EB070CD4FA080137A35C5B00ED
:104A4C00DBB2A354217A49453CBF43F00103A35484
:104A5C00FFB20135EDB2552DB4D103F075FA272F05
:104A6C000BD92278637821791344A2781344E27825
:104A7C001344DBB299423FF456AF002003B0BDE8BB
:104A8C00F08F00BF84E3032010B50446FFF73AFF14
:104A9C0028B1A37800EE103AB8EE400A10BD9FED95
:104AAC00010A10BD0000C07FFFF7EEBF10B5044631
:104ABC00FFF728FF28B1237800EE103AB8EE400A31
:104ACC0010BD9FED010A10BD0000C07FFFF7EEBFC7
:104ADC0008B500F0E5F8014B186008BD84E303202D
:104AEC0010B503682F2B044604D9074A00210A206D
:104AFC0000F0D0FA23681F2B83BF03F01F03236041
:104B0C0002484FF0A04010BD3D4D0D000003005079
:104B1C0007B502AB43F8040D1846FFF7E1FFD0F8D8
:104B2C001035019823FA00F000F0010003B05DF895
:104B3C0004FB000010B5024C04604160826010BDA3
:104B4C00000080BF10B504460121808803F067FE89
:104B5C0020890021BDE8104003F061BE2DE9F34728
:104B6C000746384D00F0FCF8BB882A681B01D118A9
:104B7C00D25C4B78804603F01F0302A843EA421331
:104B8C0040F8043DFFF7ACFF019B012606FA03F346
:104B9C00C0F808350A2000F0CBF8BB882A681B0146
:104BAC00D118D25C4B7802A803F01F0343EA4213DE
:104BBC0040F8083DFFF794FF009B9E40C0F80C6541
:104BCC0000F0BEF881463B892A681B01D118D65CDF
:104BDC004B7803F01F0343EA46163046FFF798FF65
:104BEC003046FFF795FF012808D000F0A9F8C9EB73
:104BFC000004B4F5FA6FE6D300241CE000F0A0F832
:104C0C0047F2471982463B892A681B01D118D65CAA
:104C1C004B7803F01F0343EA46163046FFF778FF44
:104C2C003046FFF775FF30B100F08AF8CAEB00048C
:104C3C004C45E8D9E0E7404600F09AF8204602B02F
:104C4C00BDE8F08788E3032010B50446FFF786FF24
:104C5C0010B994ED000A10BD07EE900AB8EE670A81
:104C6C00DFED027A20EE270A10BD00BF95438B3C86
:104C7C0008B500F015F8014B186008BD88E3032057
:104C8C0008B5024B1B689B68019308BD68020300C2
:104C9C0008B5024B1B68DB68019308BD6802030072
:104CAC0008B5024B1B681B68019308BD2C0203005E
:104CBC0008B5024B1B685B68019308BD2C0203000E
:104CCC0008B5024B1B689B68019308BD2C020300BE
:104CDC0008B5024B1B681B6A019308BD2C0203002C
:104CEC0008B5024B1B685B6A019308BD2C020300DC
:104CFC0008B5024B1B681B6B019308BD2C0203000B
:104D0C0008B5024B1B68DB69019308BD3002030038
:104D1C0008B5024B1B681B6A019308BD30020300E7
:104D2C0008B5024B1B685B68019308BD18020300B1
:104D3C0008B5024B1B68DB68019308BD1802030021
:104D4C0008B5024B1B681B69019308BD18020300D0
:104D5C0008B5024B1B685B69019308BD1802030080
:104D6C0008B5024B1B689B6B019308BD180203002E
:104D7C0008B5024B1B68DB6B019308BD18020300DE
:104D8C0008B5024B1B689B68019308BD78020300B1
:104D9C0008B5024B1B681B6D019308BD780203001C
:104DAC0008B5024B1B689B6D019308BD780203008C
:104DBC0008B5024B1B681B6E019308BD78020300FB
:104DCC0008B5034B1B68D3F89830019308BD00005D
:104DDC007802030008B5034B1B68D3F8A830019385
:104DEC0008BD00007802030008B5034B1B68D3F81C
:104DFC00B430019308BD00007802030008B5034BE2
:104E0C001B68D3F8D830019308BD0000780203006A
:104E1C0008B5034B1B68D3F8DC30019308BD0000C8
:104E2C007802030008B5034B1B68D3F8EC300193F0
:104E3C0008BD00007802030008B5034B1B68D3F8CB
:104E4C00F030019308BD00007802030008B5034B55
:104E5C001B68D3F80031019308BD000078020300F1
:104E6C0008B5034B1B68D3F80431019308BD00004F
:104E7C007802030008B5024B1B689B68019308BDC0
:104E8C004802030008B5024B1B681B69019308BD5F
:104E9C004802030008B5024B1B685B69019308BD0F
:104EAC004802030008B5024B1B685B6C019308BDFC
:104EBC004802030008B5024B1B689B6C019308BDAC
:104ECC004802030008B5024B1B68DB6C019308BD5C
:104EDC004802030008B5024B1B685B6D019308BDCB
:104EEC004802030008B5024B1B685B69019308BDBF
:104EFC006402030008B5024B1B681B68019308BDD4
:104F0C003C02030008B5024B1B689B68019308BD6B
:104F1C003C02030008B5024B1B68DB68019308BD1B
:104F2C003C02030008B5024B1B681B69019308BDCA
:104F3C003C02030008B5024B1B685B69019308BD7A
:104F4C003C02030008B5024B1B689B69019308BD2A
:104F5C003C02030008B5024B1B68DB69019308BDDA
:104F6C003C02030008B5024B1B681B6A019308BD89
:104F7C003C02030008B5024B1B689B6A019308BDF9
:104F8C003C02030008B5024B1B68DB6A019308BDA9
:104F9C003C02030008B5024B1B681B6A019308BD59
:104FAC002802030008B5024B1B685B6A019308BD1D
:104FBC002802030008B5024B1B689B6A019308BDCD
:104FCC002802030008B5024B1B68DB6A019308BD7D
:104FDC002802030008B5024B1B681B6B019308BD2C
:104FEC002802030008B5024B1B685B6B019308BDDC
:104FFC002802030008B5024B1B681B6C019308BD0B
:10500C002802030008B5024B1B685B68019308BDBE
:10501C005802030008B5024B1B681B68019308BDBE
:10502C004C02030008B5024B1B685B68019308BD7A
:10503C004C02030008B5024B1B689B68019308BD2A
:10504C004C02030008B5024B1B681B69019308BD99
:10505C004C02030008B5024B1B685B69019308BD49
:10506C004C02030008B5024B1B689B69019308BDF9
:10507C004C02030008B5024B1B68DB69019308BDA9
:10508C004C02030008B5024B1B681B6A019308BD58
:10509C004C02030008B5024B1B685B6B019308BD07
:1050AC006002030008B5024B1B681B6D019308BD21
:1050BC006002030008B5024B1B685B6D019308BDD1
:1050CC006002030008B5024B1B68DB6E019308BD40
:1050DC006002030008B5024B1B681B6F019308BDEF
:1050EC006002030008B5024B1B685B68019308BDA6
:1050FC002002030008B5024B1B685B69019308BDD5
:10510C002002030008B5024B1B68DB6C019308BD41
:10511C002002030008B5024B1B685B6D019308BDB0
:10512C002002030008B5034B1B68D3F888300193A9
:10513C0008BD00002002030008B5034B1B68D3F820
:10514C009430019308BD00002002030008B5024B07
:10515C001B685B68019308BD4002030008B5024B55
:10516C001B689B68019308BD4002030008B5024B05
:10517C001B68DB68019308BD4002030008B5024BB5
:10518C001B681B69019308BD4002030008B5024B64
:10519C001B685B69019308BD4002030008B5024B14
:1051AC001B689B69019308BD4002030008B5024BC4
:1051BC001B68DB69019308BD4002030008B5024B74
:1051CC001B681B6A019308BD4002030008B5024B23
:1051DC001B681B6B019308BD4002030008B5024B12
:1051EC001B685B6B019308BD4002030008B5024BC2
:1051FC001B681B68019308BD4402030008B5024BF1
:10520C001B685B69019308BD4402030008B5024B9F
:10521C001B681B6A019308BD4402030008B5024BCE
:10522C001B68DB6B019308BD4402030008B5024BFD
:10523C001B681B68019308BD1C02030008B5024BD8
:10524C001B685B68019308BD1C02030008B5024B88
:10525C001B689B68019308BD1C02030008B5024B38
:10526C001B68DB68019308BD1C02030008B5024BE8
:10527C001B685B6A019308BD1C02030008B5024B56
:10528C001B68DB6A019308BD1C02030008B5024BC6
:10529C001B681B6B019308BD1C0203000022114606
:1052AC004068FFF78BBF002211464068FFF796BF9E
:1052BC0000224068FFF78ABF002281F0010140689C
:1052CC00FFF774BF00231A4619464068FFF766BF04
:1052DC0000231A4619464068FFF758BF00221146B2
:1052EC004068FFF74BBF002211464068FFF736BFFE
:1052FC00002202214068FFF739BF00231A4640689C
:10530C00FFF724BF024B03225A60024A1A6070470F
:10531C008CE3032008940D00704710B50C21044653
:10532C0003F014FB204610BD10B5054B036004467A
:10533C0001710846FFF7E4FC0023A360204610BD72
:10534C003C940D000079FFF7E3BC000010B5094C4C
:10535C0000204FF6FF732060A080A0712081638134
:10536C00FFF7C0FE2046044A0449BDE8104003F094
:10537C00DFBA00BF94E30320D0E20320D3400D003A
:10538C000023036043608360037310B50C680460F2
:10539C004C6844608C6884600B604B608B6010BD03
:1053AC0010B504460068FFF749FF204610BD10B544
:1053BC000446006808B1FFF741FF00232360A36097
:1053CC00636010BD38B504460D4600680131FFF727
:1053DC003DFF10B184E82100012038BD10B50368F1
:1053EC00044613B143688B4207D22046FFF7EAFF0D
:1053FC0020B1A3680BB922681370012010BD70B5E1
:10540C000E46114604461546FFF7E8FF18B920462C
:10541C00FFF7CDFF09E02A463146A560206803F06E
:10542C00C8FD2268A3680021D154204670BD38B550
:10543C000023044603604360836003730D4639B157
:10544C00084603F04AFE294602462046FFF7D7FFDE
:10545C00204638BD884210B50B46044607D0096873
:10546C0019B19A68FFF7CBFF01E0FFF7A0FF2046C8
:10547C0010BD10B5002304460360436083600373C2
:10548C00FFF7E8FF204610BD38B505460C4641B184
:10549C00084603F022FE214602462846FFF7AFFFDE
:1054AC0001E0FFF784FF284638BD704700207047A5
:1054BC0070470020704770470020704710B51421CA
:1054CC00044603F043FA204610BD10B514210446DF
:1054DC0003F03CFA204610BD10B51421044603F02D
:1054EC0035FA204610BDFEF7D2BDFEF7D0BDFEF753
:1054FC00CEBD10B50446006808B1FFF7DBFC2046B2
:10550C0010BD000008B50A20024A0021FFF7C2FDB9
:10551C0008BD00BF3D4D0D0010B5036804469B68E7
:10552C009847A368013BA3602BB923682046DB682E
:10553C00BDE81040184710BDA0F13003DAB2092ABB
:10554C0001D818467047A0F16103052B01D85738D4
:10555C007047A0F14103052B94BF37384FF0FF3053
:10556C007047000010B500230370044B0446186804
:10557C00FFF7A8FC01232370204610BDACE30320E9
:10558C0010B5037804461BB1024B1868FFF7A2FC58
:10559C00204610BDACE3032008B582798B799A4282
:1055AC0006D1062203F0F6FCB0FA80F0400908BDE3
:1055BC00002008BD10B501230361054B024603F121
:1055CC00100153F8044B42F8044B8B42F9D110BD37
:1055DC0048960D0010B50B460446B9B1012A09D105
:1055EC00034601F1100251F8040B43F8040B9142ED
:1055FC00F9D108E0411E0F22985C01F8010F013A25
:10560C00D2B2FF2AF8D10123236102E0102203F069
:10561C00F6FC204610BD38B5054614461A46FFF771
:10562C00D9FF2C73240A6C73284638BD08B502695F
:10563C000AB9808903E01022034903F0ABFC003067
:10564C0018BF012008BD00BF48960D0000697047C7
:10565C0038B50C4614220021054603F0D0FC236912
:10566C002BB9627B237B43EA02232B800AE00123C4
:10567C002B7404F110022B4654F8041B43F8041B42
:10568C009442F9D1284638BD427B007B40EA022087
:10569C007047704710B50B69036101F110020346A6
:1056AC0051F8044B43F8044B9142F9D110BD10B59D
:1056BC0086B00446012201A8FFF78CFF01A9204601
:1056CC00FFF7E8FF06B010BD08B502690B699A42F6
:1056DC0006D1102203F05EFCB0FA80F0400908BD40
:1056EC00002008BD0123F7B50361314B0E4605467A
:1056FC00024603F1100153F8040B42F8040B8B42E1
:10570C00F9D1002E51D02421304603F003FD04289A
:10571C0010D0002710242421304603F0FBFCB842A3
:10572C0001D944BB41E02C440023A5423DD004F8F0
:10573C00013DFAE73078FFF7FFFE041E18DB7078A6
:10574C00FFF7FAFE002813DB40EA04108DF8040082
:10575C00B078FFF7F1FE041E0ADBF078FFF7ECFEE1
:10576C000028A1BF40EA04109DF8043028736B7325
:10577C0000232B6119E0F05DFFF7DEFE030612D467
:10578C00013C000128552421304603F0C3FC0137AD
:10579C00874208D2F05DFFF7CFFE40B20028A2BFCF
:1057AC002B5D184328550137B5E703B0F0BD00BF9A
:1057BC0048960D0038B504460D46FFF7FBFE204613
:1057CC002946FFF78FFF204638BDF0B58BB100247A
:1057DC00E51C8D420FD8661C055D875D974205D18F
:1057EC002E44B14207D31C60681CF0BD01352C441B
:1057FC00EEE71846F0BD0020F0BD2DE9F743044656
:10580C000E461D461746002A3AD00A4601AB016ADD
:10581C00FFF7DBFF9DF82830226A03BBF8B1961C1A
:10582C002E44361A1F2E2BD8DDF8048008F10209FD
:10583C00C8EB0202121A00EB080105EB090092B248
:10584C002144204403F0C0FB6B1C04F808302A46AA
:10585C00394604EB090003F0ACFB266210E0901C07
:10586C002B181F2B0CD86B1CA354224420623946D6
:10587C00567020442A4603F09CFB226A2A4422627A
:10588C00206A03B0BDE8F0831FB50446034600F15F
:10589C001F02002003F8010B93424FF00001F9D1D5
:1058AC0004AA062302F8013D01232162009120463F
:1058BC001946FFF7A2FF204604B010BD73B50A4687
:1058CC000E4601AB016A0446FFF77FFF054678B12F
:1058DC000198226A2918121A521B2144204403F001
:1058EC0068FB236A5D1B256231462046FFF7E6FF05
:1058FC0002B070BD38B500254FF6FF7304464380E7
:10590C000E22294605700571063003F078FB04F170
:10591C001400FFF74FFE04F12800FFF74BFE04497B
:10592C0004F13C00FFF783FDE5642565204638BD96
:10593C002F970D0010B58369C26903EBC202934225
:10594C00184606D0046824888C4203F10803F6D16B
:10595C0010BD002010BD00002DE9F34180461F460C
:10596C000E4669B362B3F42A056828BFF4221446C4
:10597C002A78A2B12B79980707D500232246A8894B
:10598C00FFF732FA002802DA43E06FF07700D8F81C
:10599C0000502B79DA0618D5012F23D115E0688831
:1059AC004FF6FF7398420DD02B79590723D5012F51
:1059BC0021D0A989009223463246FFF729FA28E024
:1059CC00154826E06FF0D10023E09A0621D5022F6E
:1059DC001FD0A88900232246314602B0BDE8F04111
:1059EC00FFF73EBAA88900232246314602B0BDE833
:1059FC00F041FFF72BBA1B0701D5022F02D16FF034
:105A0C00770006E00023A989009332462346FFF76E
:105A1C00F5F902B0BDE8F081F2FEFFFF10B50A689F
:105A2C0052F8023F03605368436010BD1FB5026813
:105A3C000B6812881B889A420C460CD101466846AA
:105A4C00FFF7ECFF214602A8FFF7E8FF02A9684622
:105A5C00FFF7A2FD00B9002004B010BD10B504463C
:105A6C003420FEF712FB014668B10023036043604B
:105A7C008360C360036143618361C36103624362FA
:105A8C008362C3620363216019B90A4A0A20FFF7D3
:105A9C0001FB0020FFF774F920B1064A00210A200F
:105AAC00FFF7F8FA002221680348FFF7C5F92046F2
:105ABC0010BD00BF3D4D0D00C55E0D0010B50A4C6C
:105ACC002368DB070ED42046FEF7F0FA50B10748E6
:105ADC00FFF7C4FF2046FEF7EEFA054A05490348D6
:105AEC0002F026FF014810BDA4E30320A0E303202D
:105AFC00D0E20320AD5C0D0070B50368093B012BAF
:105B0C008AB004460E4619D8FFF7D8FFA188006862
:105B1C00FFF710FF024658B920230293084B03905D
:105B2C00009302AA034607493220FFF7BBFA05E0AF
:105B3C00F56C1DB1336DE1682069A8470AB070BDE2
:105B4C00F2940D00A8940D0013B501A8FFF70AFDFF
:105B5C000020FFF715F9044601A8FFF711FD04EA30
:105B6C00E47002B010BD084609B90A4601E0096AA2
:105B7C000022FFF70DB910B50C4611B90A460846BC
:105B8C0006E001212046FFF799FE216A00222046FB
:105B9C00BDE81040FFF704B913B501A8FFF7E2FC0C
:105BAC000020FFF705F9044601A8FFF7E9FC2046A1
:105BBC0002B010BD73B505460C4601A81646FFF79A
:105BCC00D1FC21462846FFF7CEFF002808DB3146E2
:105BDC002846FFF7D0FF002802DB2846FFF7DCFF42
:105BEC00044601A8FFF7CCFC204602B070BD0B6840
:105BFC00036013B15A6801325A60704710B551F8FE
:105C0C00043B044640F8043BFFF7F1FF23680BB953
:105C1C00FFF778FC204610BD10B551F8043B044644
:105C2C0040F8043BFFF7E3FF204610BD10B50446D7
:105C3C000430FEF7A3FA204610BD70B50468436823
:105C4C00054604EBC306A64204D0201DFEF796FAC7
:105C5C000834F8E72868FFF7F1FA284670BD70B5EC
:105C6C0004684368054604EBC306A64204D0201D15
:105C7C00FEF784FA0834F8E72868FFF7DFFA2846BD
:105C8C0070BD10B5046904F11800FFF7E8FF04F1CA
:105C9C000C00FFF7D2FF2046BDE81040FEF7F7B925
:105CAC00F8B504680746C4B1A569E36905EBC306FA
:105CBC00AE4204D0281DFEF761FA0835F8E7A0695A
:105CCC00FFF7BCFA04F10C00FFF7C9FF2046FFF701
:105CDC00B4FF3421204602F039FE3846F8BD0000EE
:105CEC0073B500250560456006462420FEF7CDF906
:105CFC00044678B103464FF6FF7223F8022BC0F826
:105D0C0002505D608572C572C56005614561856133
:105D1C00C5610562002314200193FEF7B6F9034612
:105D2C0028B1012242608260084A0260046102A824
:105D3C00726840F8042D73603460FEF71FFA336804
:105D4C000BB9FFF7DFFB304602B070BD84940D0039
:105D5C0038B50C6803689C4205460CD014B16368D6
:105D6C0001336360286828B14368013B43600BB979
:105D7C00FFF7D2FB2C60284638BD884270B515461B
:105D8C001AD9904219D2A1F10806511A0439151FDB
:105D9C0044182B1F9E4225D0042C07D055F8043CE8
:105DAC0044F8043C29462046FFF721FF2846FEF71D
:105DBC00E5F9083D083CECE714D00C1D061D231F2B
:105DCC009D420FD0042E07D054F8043C46F8043CF6
:105DDC0021463046FFF70BFF2046FEF7CFF908347B
:105DEC000836ECE770BD2DE9F041046843680546C0
:105DFC00884604EBC307A74218D041462046FFF75C
:105E0C0015FE064608B90834F5E78CB1201DFEF7DF
:105E1C00B5F92B686A6804F1080103EBC20220464D
:105E2C00FFF7ABFF6B68013B6B6002E0002600E004
:105E3C0026463046BDE8F081F7B5044651F8043BE0
:105E4C004768009301A8FFF7D2FE6668A3689E42DC
:105E5C0014DB0136002E0BDDF000FFF7E7F90546E9
:105E6C0018B394E8060001EBC202FFF786FF00E0CE
:105E7C0000252068FFF7E2F92560A66026686268B5
:105E8C0006EBC70506EBC202294605F10800FFF731
:105E9C0074FF35B1009B46F8373001A9281DFFF778
:105EAC00A6FE636801336360012501A8FEF766F95D
:105EBC00284603B0F0BD00002DE9F04104468EB039
:105ECC0003A80D46FFF74EFB2368032B02D0042BCF
:105EDC0042D087E004A8FFF703FF049B22891A80B5
:105EEC006268049952F8083FC1F802305368C1F84F
:105EFC00063007A8049B069305A9FFF778FE06A9B0
:105F0C0005F11800FFF798FF044607A8FEF736F9CD
:105F1C002023069374B9364B009306AA23463549C1
:105F2C0007943220FFF7BEF8049B21461888FEF731
:105F3C0047FF0DE0304A0092002306AA2D49079333
:105F4C000120FFF7AFF86B6A13B1E96A04A8984710
:105F5C0005A8FEF713F945E021892846FFF7EAFC6E
:105F6C00074600283ED00468A369E1694FF6FF722A
:105F7C00228003EBC101994203D053F8080B4280F5
:105F8C00F9E7E668236906EBC308B04504D0301D79
:105F9C00FEF7F4F80836F8E700232361A669E369F5
:105FAC0006EBC308B04504D0301DFEF7E7F8083601
:105FBC00F8E70023E361A372E372AB6A13B1296BB8
:105FCC003846984720230D4A06930092002309492E
:105FDC000793012006AAFFF765F8394605F118006A
:105FEC00FFF701FF03A8FFF7CBFA0EB0BDE8F08175
:105FFC000A950D00A8940D0030950D004D950D00DF
:10600C008842F8B506460C46154614D9904213D270
:10601C00A2F108056C1AA1F108070444AF4218D08C
:10602C001CB129462046FFF7F7FD281DFEF7A6F800
:10603C00083D083CF2E70CD0AC420AD01EB1214618
:10604C003046FFF7E9FD201DFEF798F808340836B6
:10605C00F2E7F8BD70B50E1E05460BDDF000FFF73C
:10606C00E5F8044670B195E8060001EBC202FFF7B3
:10607C00C7FF00E000242868FFF7E0F82C60AE6052
:10608C00012070BD70BD73B5044645686846FFF7C6
:10609C00C3FD6168A368994205DB01312046FFF717
:1060AC00D9FF064698B12368626803EBC50503EB7C
:1060BC00C202294605F10800FFF7A2FF1DB169468F
:1060CC002846FFF7A9FD636801336360012601A828
:1060DC00FEF754F8304602B070BD8842F8B506465B
:1060EC000C46154614D9904213D2A2F108056C1A2D
:1060FC00A1F108070444AF4218D01CB12946204630
:10610C00FFF77CFD281DFEF739F8083D083CF2E747
:10611C000CD0AC420AD01EB121463046FFF76EFDC2
:10612C00201DFEF72BF808340836F2E7F8BD70B5E1
:10613C000E1E05460BDDF000FFF778F8044670B133
:10614C0095E8060001EBC202FFF7C7FF00E0002450
:10615C002868FFF773F82C60AE60012070BD70BD2D
:10616C0073B5044645686846FFF748FD6168A36847
:10617C00994205DB01312046FFF7D9FF064698B15D
:10618C002368626803EBC50503EBC202294605F1DF
:10619C000800FFF7A2FF1DB169462846FFF72EFD48
:1061AC00636801336360012601A8FDF7E7FF304601
:1061BC0002B070BD10B50446406808B1FDF767FF2A
:1061CC00204610BD07B503690C308DE8090003F1BA
:1061DC003C00FFF7E5F86846FFF7ECFF03B05DF80D
:1061EC0004FB000038B500230446036014200D4660
:1061FC00FDF74BFF28B1012343608360024B036022
:10620C0005612060204638BD4C940D002DE9F0410D
:10621C0088B005461E46542000230F469046049332
:10622C000593FDF732FFCDF818D004460790C0B1A6
:10623C0098F80080FFF75EFB394604F13C0084F8C7
:10624C000480FFF721F90F9BE3643146109B236513
:10625C0004F11400FFF71EFA0E9904F12800FFF761
:10626C0019FA2146002601AB02AA03A80796FFF7EC
:10627C00B9FF039B059A039203A805930494FDF7B9
:10628C007DFF06A8FFF796FF049B2968059A2B60F3
:10629C0008A86B6806916A6040F8043D0596049660
:1062AC00FDF76CFF05A8FDF769FF296819B9034ACA
:1062BC000A20FEF7EFFE08B0BDE8F0813D4D0D0061
:1062CC0010B50446406808B1FDF7E1FE204610BD4C
:1062DC0007B503690C308DE809006846FFF7F0FF3D
:1062EC0003B05DF804FB000038B5002304460360DE
:1062FC0014200D46FDF7C9FE28B1012343608360CD
:10630C00024B036005612060204638BD68940D0087
:10631C00F0B5002687B006604660044618200F468C
:10632C00FDF7B3FECDF810D00546059038B1FFF758
:10633C0041F939462846AE82EE82FFF7ABF90023CD
:10634C002946059302AA01AB03A8FFF7CDFF039BD7
:10635C0062682560636003A80392FDF70FFF04A831
:10636C00FFF7AEFF23680BB9FFF7CCF8204607B058
:10637C00F0BD00002DE9F04F1746A1B080460AA8E9
:10638C000E46FFF7EFF83C682379002B00F0DE8017
:10639C003368DD681B6905EBC303039304F1140A2E
:1063AC0004F1280B039BAB4223D0D5F80090504648
:1063BC0009F11401FFF788F9002800F0CC8009F1ED
:1063CC0028015846FFF780F9002800F0C4802368A4
:1063DC0023F47F41D9F8003023F47F43994240F0F5
:1063EC00BA802023604A159300230092169315AAB5
:1063FC00A8E004F128094846FFF718F918B95B49D9
:10640C004846FFF754F933681D685B6805EBC30A0F
:10641C005545494605D02868FFF756F958BB08354D
:10642C00F6E70BA8FFF774FF494615A8FFF710F91C
:10643C000B9A0023143215A90120FEF7CBFC00287F
:10644C0078D135680BA90DA8FFF7E6FB28460DA9F6
:10645C00FFF719FE05460EA8FDF790FE002D69D03A
:10646C003268556805F100531568013B0CA805EB23
:10647C00C305FDF783FE04F114094846FFF7D6F86F
:10648C0068B93B4B39491A88013292B21A8015A867
:10649C000123FFF7C0F815A94846FFF7FBF84FF0AA
:1064AC002C0A5246002115A802F0A9FD01234946E9
:1064BC0004A8ADF85430ADF856A0FFF7C9F804ABFA
:1064CC0018AA0DF1200C186859689646AEE803001E
:1064DC00083363457246F6D11868CEF8000023796C
:1064EC008DF858302B689B8AADF87430E36B17939A
:1064FC000022204B1E93A11D15A81F94FEF792FCA1
:10650C0020BB01232370346839460C340DA8FFF7E7
:10651C0075FB20460DA9FFF723FE04460EA8FDF7D8
:10652C002DFE9CB920230D93134B00930E94234600
:10653C000DAA07E039464046FFF760FB0CA8FDF7B3
:10654C001DFE0AE00D493220FEF7ACFD39464046EF
:10655C00FFF754FB01E0083524E70AA8FFF710F811
:10656C00404621B0BDE8F08F1D960D0098940D00AB
:10657C00A8E30320055B0D00F6950D00A8940D0013
:10658C0010B5064C002320462360FEF78BFC2046FA
:10659C00034A0449BDE8104002F0CAB9ACE3032039
:1065AC00D0E20320FF540D00F8B506460D468F18B7
:1065BC000024BD420CD0336815F8011B9B68304693
:1065CC009847002801DB0444F3E7002C08BF04467D
:1065DC002046F8BD70B505460C46084649B102F098
:1065EC007CFD2B68024621462846DB68BDE87040DE
:1065FC00184770BD03689B68184738B50D210546D0
:10660C00FFF7F8FF0A2104462846FFF7F3FF204462
:10661C0038BD30B58BB00B4600218DF82410012A03
:10662C0098BF0A220DF12304B3FBF2F505FB1233DC
:10663C0003F0FF03092B94BF30333733DBB2214611
:10664C0004F801392B46002DEED1FFF7C3FF0BB038
:10665C0030BD0CB42DE9F04387B000AF07F138041E
:10666C00054654F8049B3C600E4623464A461421CA
:10667C00381DFEF7FBFD132805D8391D2846FFF7FA
:10668C00A9FF044613E000F1080323F00703E846D2
:10669C00ADEB030D411C23464A4668463C60FEF7B1
:1066AC00E5FD69462846FFF795FF0446C5461EB131
:1066BC002846FFF7A2FF044420461C37BD46BDE820
:1066CC00F04302B0704780680368DB681847704776
:1066DC0019B10B6808465B681847704719B10B680D
:1066EC0008465B681847704770477047704738B565
:1066FC0004460D4600682E2102F0C0FC2368C31A24
:10670C002B6023B1037803B1013023682060184655
:10671C0038BD10B50C21044602F018F9204610BD06
:10672C0010B50421044602F011F9204610BD10B535
:10673C000421044602F00AF9204610BD38B50C4677
:10674C00054601F0D9FB84420DD001F065FC844272
:10675C0005D101F061FCBDE8384001F056BC214682
:10676C002846FFF7BBFF38BD08B502F091FCB0FA24
:10677C0080F0400908BD38B5054608460C4602F0C5
:10678C00ACFC214602462846BDE8384001F0C3BFA8
:10679C000068FEF797BB70B5044608460D4602F03C
:1067AC009CFC2368024629462046DB68BDE8704005
:1067BC00184713B502AB026803F8011DD4681946DB
:1067CC000122A04702B010BD2DE9F04F45680768C3
:1067DC0085B09146142255430193AB10194D02928A
:1067EC005D438B463C460123002D039323DD029B26
:1067FC006E1003FB06F004EB00084A46B8F804A040
:10680C002058D14528BF5246594602F06EFC039BD6
:10681C0048B9D14503D1019A13703546E4E78CBFD2
:10682C000120002000E0C00F0028F6D0AE1B08F1BC
:10683C001404013EF1E7E41B0248A410604305B0C8
:10684C00BDE8F08FCDCCCCCCF0B585B0036901910F
:10685C00067E13B309B304AF002347F8043D00F1DF
:10686C000C041D46394601A8FFF741FF0146A0B1B3
:10687C0004AB039A03F8055D2046FFF7A5FF9DF8CE
:10688C000B3053B12368142404FB0034083434F95E
:10689C00023C002BA8BFDEB2E4E7304605B0F0BDE9
:1068AC0010B5094C2368DB070BD42046FDF7FEFB23
:1068BC0038B12046FDF7FFFB044A0549054802F0B4
:1068CC0037F8044810BD00BFB0E30320D0E203202A
:1068DC00F7660D0060E2032010B5094C2368DB0756
:1068EC000BD42046FDF7E2FB38B12046FDF7E3FB65
:1068FC00044A0549054802F01BF8044810BD00BFC6
:10690C00E0E30320D0E20320F5660D005CE20320F7
:10691C0038B5002504460560456085600561456114
:10692C00856140F8245FFEF7BDFAFFF7B9FFE0611F
:10693C00FFF7D2FF25732062204638BD10B50A4CF4
:10694C002368DB070ED42046FDF7B0FB50B1074897
:10695C00FFF7DEFF2046FDF7AEFB054A054903486D
:10696C0001F0E6FF014810BDB4E30320B8E30320B7
:10697C00D0E20320B36D0D000023024A0249034804
:10698C00FEF7A8BB956C0D00256C0D00AD6B0D00D2
:10699C0000231A4619461846FEF79CBB73B502AC89
:1069AC008E6851F8043B44F8083D054601A8FFF7F2
:1069BC001EF922463146284601F0E4FE01A8FDF7F7
:1069CC00DDFB284602B070BD73B502AC0E6951F800
:1069DC00043B44F8083D054601A8FFF708F9224698
:1069EC003146284601F0E9FE01A8FDF7C7FB284611
:1069FC0002B070BD73B502ACCE6851F8043B44F8DC
:106A0C00083D054601A8FFF7F2F822463146284614
:106A1C0001F090FE01A8FDF7B1FB284602B070BD55
:106A2C0030B58BB00D46014604A8FFF7B7FF04A89C
:106A3C0001F0B3FDE8B104A96846FFF7DBFF0F498D
:106A4C000298FFF791FE044610B12C1C18BF0124CC
:106A5C0001A8FDF793FB002CE9D004A96846FFF7C9
:106A6C00B3FF684601F079FD286001A8FDF786FBAD
:106A7C00DDE705A8FDF782FB0BB030BD88960D0055
:106A8C0037B50C4620461349154602F001FB40B9B8
:106A9C0001F032FA4FF4165101F01EFA01F02CFA03
:106AAC0015E00D49204602F0F3FA78B902A94FF42B
:106ABC00165341F8043D2846FFF7B2FF01F0ACFA3B
:106ACC00019901F09FFA01F0A7FA00E0002003B051
:106ADC0030BD00BF8D960D0094960D0070B5046806
:106AEC0043681426054606FB0346A64205D004F16E
:106AFC000800FFF7F3FF1434F7E72868FEF79EFB56
:106B0C00284670BD70B504684368054604EB03164F
:106B1C00A64204D02046FEF743FC1034F8E7286860
:106B2C00FEF78CFB284670BD10B504460C30FFF701
:106B3C00D5FF2046FFF7E6FF204610BD10B5044BED
:106B4C00044640F8043BFFF7EFFF204610BD00BFA2
:106B5C009C920D0010B50446FFF7F0FF204624214F
:106B6C0001F0F4FE204610BD10B5034B0360044643
:106B7C00FFF7E4FF204610BD78960D0010B50446D3
:106B8C00FFF7F2FF2046242101F0E0FE204610BD65
:106B9C0010B5036804461868FEF79CF9204610BD32
:106BAC002DE9F04F9B461B4B5B68C3F3080385B084
:106BBC0082460E46904653BBFFF7C0FE0446243077
:106BCC000390FFF7E5FD237BF3B9012323732568BD
:106BDC006368F6B205EB83094D4513D055F8047B79
:106BEC004146381DFFF730FE8642F5D33B68CDF8A1
:106BFC0000B09B689E46384643463246514677461F
:106C0C00B847E9E70023237303A8FFF7C1FF05B0DA
:106C1C00BDE8F08F00ED00E02DE9F74F9946194BD8
:106C2C005B68C3F3080307468846164633BBFFF779
:106C3C0085FE044624300190FFF7AAFD237BD3B9CF
:106C4C0001232373256863685FFA86FB05EB830ACF
:106C5C0055450ED055F8046B4946301DFFF7F4FD31
:106C6C008345F5D333684246DB683946304698474E
:106C7C00EEE70023237301A8FFF78AFF03B0BDE8FA
:106C8C00F08F00BF00ED00E02DE9F341154B5B6880
:106C9C00C3F3080304468846FBB9FFF74FFE0646CC
:106CAC0024300190FFF774FD96E8A000462605EB12
:106CBC008707AF4207D101A8FFF76AFFB442B4BF00
:106CCC00002001200AE055F8040B41460430FFF780
:106CDC00BBFD8642A8BF0646EBE7002002B0BDE82C
:106CEC00F08100BF00ED00E070B503684268044617
:106CFC0003EB82029A4218460ED006680D68AE422B
:106D0C0003F10403F6D1011D521A02F05DF9636818
:106D1C00013B6360012070BD002070BD1FB50446AF
:106D2C00243001910390FFF733FD01A92046FFF7B2
:106D3C00DBFF20B903A8FFF72BFF04B010BD63687D
:106D4C00002BF7D1FFF724FEF4E770B50569436912
:106D5C001826044606FB0356AE4215D005F1100169
:106D6C002046FFF7C1FF63680BB9FFF711FEE0691E
:106D7C0029690368DB689847696919B1206A036857
:106D8C00DB6898471835E7E725696369182606FB21
:106D9C000356B54204D02846FEF702FB1835F8E737
:106DAC000023636170BD73B5044602ADFFF7F0FDBF
:106DBC0004F1240045F8040DFFF7EAFC2046FFF728
:106DCC00C4FF2846FFF7E4FE606A08B1FEF772F8CC
:106DDC0025696369182606FB0356B54204D028467C
:106DEC00FEF7DEFA1835F8E72069FEF727FA206877
:106DFC00FEF724FA204602B070BD03680A680260F0
:106E0C000B6043684A6842604B6083688A688260A2
:106E1C008B60704710B500230446036043608360A9
:106E2C00FFF7EBFF204610BD8842F8B50446164626
:106E3C0025D9904224D2551A143D2C44A1F11407A3
:106E4C00A2F10C050026A5F108039F4237D084B1AE
:106E5C0055F8083C236035F8043CA38035F9023C16
:106E6C00E380A660E6602661294604F10800FFF77E
:106E7C00C4FF2846FFF732FE143C143DE3E71ED056
:106E8C0001F108050027A5F108039E4217D084B133
:106E9C0055F8083C236035F8043CA38035F9023CD6
:106EAC00E380A760E7602761294604F10800FFF73B
:106EBC00A4FF2846FFF712FE14341435E3E7F8BD9F
:106ECC00F8B5456883689D4204460E4617460EDBAE
:106EDC000135002D05DDA9000068FEF7B7F920B9D2
:106EEC00F8BD0068FEF7AAF900202060A5602568AF
:106EFC00626805EB860105EB8202521A081D02F04E
:106F0C0063F845F826706368013363600120F8BDAF
:106F1C0037B5044624300D460190FFF739FC236841
:106F2C00616803EB810083421A4609D01268AA42B9
:106F3C0003F10403F7D101A8FFF72AFE00250EE0A8
:106F4C002A462046FFF7BCFF05460028F3D06368AD
:106F5C00012B01D1FFF710FD01A8FFF719FE284600
:106F6C0003B030BD8842F8B506460C46154614D918
:106F7C00904213D2A2F110056C1AA1F1100704442F
:106F8C00AF4218D01CB129462046FEF7F9F9284625
:106F9C00FEF706FA103D103CF2E70CD0AC420AD0DA
:106FAC001EB121463046FEF7EBF92046FEF7F8F904
:106FBC0010341036F2E7F8BD70B50E1E05460BDD29
:106FCC003001FEF733F9044670B195E8060001EB89
:106FDC000212FFF7C7FF00E000242868FEF72EF925
:106FEC002C60AE60012070BD70BD2DE9F04F002308
:106FFC0095B092464622036043608360C360036190
:10700C00436102760291DAF804100893994205461E
:10701C0009930A9340F39D8008A8FFF7CDFF002841
:10702C0040F097808EE021460BA8FEF7A9F90BA93A
:10703C000FA8099EFEF7A4F909990A9B9942C0F280
:10704C00CE80013108A8FFF7B7FF002840F0C780B9
:10705C000FA8FEF7A5F90BA8FEF7A2F91434A74266
:10706C00E1D100260B960C960D96B146099B9E42DB
:10707C0080F2A8803301089AD3580693002B00F0B5
:10708C009F8014237343CDF81C9001930BAC07A97C
:10709C0006A8FFF72CFB0746002800F0918014ABE4
:1070AC00014603F8399D079A2046FFF78DFB9DF8A2
:1070BC0017800090B8F1000F53D1BDF81C30ADF81B
:1070CC0040304FF6FF730F97ADF84230CDF8448047
:1070DC00CDF84880CDF84C806768A3689F424FDAA2
:1070EC00009BD4F800B06168142253430BEB0307E8
:1070FC0002FB01B207F1140039460393FFF794FE2B
:10710C00A7B1039B0F9A4BF80320BDF84030BB800E
:10711C00BDF94230FB80C7F80890C7F80C90C7F84F
:10712C00109011A907F10800FFF767FE636801339F
:10713C00636011A8FFF7D2FCB8F1000F11D00BA8B7
:10714C00FFF7CCFC08A8FFF7DDFC284615B0BDE81E
:10715C00F08FDAF80040DAF80430142707FB034705
:10716C007DE72368009A142404FB0234069B1B78E9
:10717C0023BBDAF80030019A13441B7CE3801DE03A
:10718C000137002F0FDD142303FB07F00393FEF7E9
:10719C004DF8834678B194E80600039B03FB02127A
:1071AC00FFF742FE00E0C3462068FEF747F8C4F83C
:1071BC0000B0A76094E74FF00108BAE7083466E71F
:1071CC00013653E708A92846FFF717FE0BA905F16E
:1071DC000C00FFF712FE9DF808302B76AFE7089BEA
:1071EC00099A03EB061603EB0212314606F1100066
:1071FC00FFF7B8FE1EB10FA93046FEF7C1F8099B88
:10720C000133099324E700007FB50446094B44F889
:10721C00043B05460E4601A81146FDF717FA01AAD4
:10722C0031462046FFF7E1FE01A8FDF711F928468B
:10723C0004B070BD9C920D00F0B50F468BB02B497D
:10724C00109C384616461D4601F022FF28BB002C28
:10725C0049D0294601A8FFF7DDFD2549242001F07E
:10726C0079FB0546B8B101A904A8FFF7D3FD04A921
:10727C0007A8FDF7EBF907AA31462846FFF7C4FF2C
:10728C0007A8FDF7E5F81B4B2B602C6204A8FDF753
:10729C00DFF8194B2B6001A81FE01849384601F0A4
:1072AC00F7FEF0B9FCB1294604A8FFF7B3FD10496D
:1072BC00242001F04FFB054670B104A907A8FDF787
:1072CC00C5F907AA31462846FFF79EFF07A8FDF728
:1072DC00BFF8084B2B602C6204A8FDF7B9F82846C0
:1072EC0002E0002000E020460BB0F0BDE6960D0059
:1072FC0053990D0070970D0078960D00EA960D00CD
:10730C00014B024A1A607047E4E30320FB960D0020
:10731C002DE9F047089DD0F8209004460E461746FC
:10732C00984600F0E9FD814505D15A4801F01BF85B
:10733C00002840F0AC802B791B0705D56B69564AA9
:10734C00206A0021FFF785F9B8F1000F0DD05B2101
:10735C002046FFF72EFA41462046FFF71CFA236819
:10736C004E49DB680222204698472B79D90725D550
:10737C00D5F808802F21404601F0D8FE08B100F165
:10738C00010841462046FFF706FA2B799A0709D5E2
:10739C003A212046FFF70DFAEB68414A206A00219A
:1073AC00FFF757F92B7913F0040F236818BF3D49E9
:1073BC00DB6808BF3C490222204698472B795B07C3
:1073CC0018D529690A46134613F8010B38B1202841
:1073DC0001D1194601E0282801D01A46F3E72368A9
:1073EC00521ADB682046984723683049DB68042230
:1073FC002046984700213846FDF764FE014620469A
:10740C00FFF7C9F923682849DB6802222046984710
:10741C001EB131462046FFF7BEF92B7913F0300F21
:10742C002DD023682249DB682046022298472B790D
:10743C00D8060BD523681F49DB68072220469847DE
:10744C00AB691D4A206A0021FFF703F92B799906D5
:10745C0011D5DA0605D523681249DB6802222046CD
:10746C00984723681549DB6820460A229847E96942
:10747C002046FFF790F95D212046FFF79AF9236823
:10748C000F49DB6820460222BDE8F0471847BDE8EB
:10749C00F08700BF18E70320FF960D0006970D003C
:1074AC0009970D000C970D0011970D000F970D000B
:1074BC0014970D0017970D001F970D0022970D00C4
:1074CC002D970D002DE9F04385B0D0F820800C9C51
:1074DC0006460F4691461D4600F00EFD804505D12F
:1074EC004A4800F040FF002840F08C80336A484A3C
:1074FC0001924FF0000801A803938DF8088001F069
:10750C0076F841464846FDF7DDFD424980460122AA
:10751C0001A801F0F1F84146FFF72DF93FB13E49C2
:10752C00012201A801F0E8F83946FFF724F93DB132
:10753C003A49012201A801F0DFF82946FFF71BF9AF
:10754C002379DF070ED5A5682F21284601F0EEFD23
:10755C0000B1451C3249012201A801F0CDF82946A1
:10756C00FFF709F923799D0707D52E49022201A8B7
:10757C0001F0C2F8E16801F047F82379580716D5F5
:10758C0025692F463B4613F8012B3AB1202A01D12D
:10759C001D4601E0282A01D01F46F3E702222249AA
:1075AC0001A801F0A9F87A1B294601F0B4F8237957
:1075BC00190707D51D49012201A801F09DF8616941
:1075CC0001F034F82379DA0608D5042218490DEBBA
:1075DC00020001F091F8A16901F016F823799B06DD
:1075EC0007D51449062201A801F086F8E169FFF7D6
:1075FC00C2F801A800F0E5FF306A0F4903680222C7
:10760C00DB68984705B0BDE8F08300BF18E703209E
:10761C0060960D0092960D00A5960D006A930D00D4
:10762C008F930D0030970D0033970D00DA920D00FB
:10763C0036970D003B970D002D970D00024B1A68E5
:10764C00024B1A60704700BF64E20320E8E303209A
:10765C000021FDF74FBD10B58368044613B103221A
:10766C0001469847204610BD10B50446FFF7F3FFBE
:10767C00204610BD13B50B46044603C88DE8030025
:10768C0093E8030084E803009DE8030083E803000B
:10769C0002B010BD0348044A04490023836001F082
:1076AC0047B900BFECE30320D0E2032075760D0050
:1076BC0008B50C4B33B100F01FFC03681B699847ED
:1076CC00002809DC084B63B100F0A6FC03681B69B9
:1076DC009847002803DC08BDAFF30080F2E7AFF356
:1076EC00008008BD000000000000000008B5FFF796
:1076FC00DFFFFDF72DFB014B186008BD30E70320C1
:10770C000248034A0349121A01F053BC00F4032047
:10771C0004F40320009B0D0007B5002300931A46C8
:10772C006FF07701FDF708FD03B05DF804FB000076
:10773C0007B543880A2B08D0502B09D1094B1B687D
:10774C003BB103B05DF804EB1847FFF7E5FF06E02B
:10775C00002300931A466FF07701FDF7EDFC03B0A0
:10776C005DF804FBFCE3032038B5104C104D236886
:10777C00AB42104B0CBF012200221A7002D0FFF753
:10778C00BFFF2560FDF7CCFA044601F041FC0A4B23
:10779C0013B12046AFF3008000210748FDF73EFDF2
:1077AC0000210648BDE83840FDF7BCBC00F40320BE
:1077BC001E1C279A00E40320000000003D770D00FA
:1077CC0070470020704710B51021044601F0BEF838
:1077DC00204610BD08B508B1FFF7F5FF08BD002223
:1077EC00026010B54FF69C728280B1F9044084801F
:1077FC008A8002680C6804600A6010BD10B50446EB
:10780C000068FDF71BFD204610BD38B5C468F4B107
:10781C002378022B03D104F10C00FFF7EFFF65680E
:10782C0035B12846FFF717FF1021284601F08EF8D6
:10783C00A56835B12846FFF70EFF1021284601F048
:10784C0085F820461421BDE8384001F07FB838BDDA
:10785C0013B5044691E8050000234B600B602060D3
:10786C00626001A801930093FCF788FC204602B0EB
:10787C0010BDF7B50C4602AD54F8043B45F8083D75
:10788C0006460F4601A82146FEF7B1F929463046B7
:10789C00FFF7DEFF01A8FCF771FC2046FCF76EFC3D
:1078AC003846082101F052F8304603B0F0BD000014
:1078BC0038B500230446036010200D46FCF7E5FBA9
:1078CC0028B1012343608360024B0360C5602060D4
:1078DC00204638BDE4970D00826810B50AB901F056
:1078EC0048F8C368BDE81040184708B5006800F1B7
:1078FC001001FFF7F1FF08BD826810B50AB901F05D
:10790C0038F8C368BDE81040184708B5006800F1A6
:10791C001001FFF7F1FF08BD38B5002383608B68B9
:10792C0004460D462BB102229847EB68E360AB6826
:10793C00A360204638BD0000F0B589B004686846E5
:10794C00FFF74DFF00238DF808304FF00202D4E80A
:10795C004F3F002B03D1C4E8412F0029F7D102D0AF
:10796C008DF8083063E014F10C0503D06946284605
:10797C00FFF735FFBFF35F8F01236370002004F125
:10798C000803BFF35F8F53E8006F43E80002002A3F
:10799C00F9D1BFF35F8F002E49D0FDF7B3FB20B1B7
:1079AC0029463046FFF798FF3AE0314602A8FFF728
:1079BC00B3FFE068B4F9105008B101F073FB069006
:1079CC001020ADF81C50FCF760FB0546E8B1002711
:1079DC0087601820FCF759FB044688B10146876084
:1079EC0002A8FFF747FE049BA268A360059B0492C4
:1079FC0006A9E268E36004F110000592FFF7EFFEC0
:107A0C000D4BEB600D4B2C60AB6006A8FFF7F6FE40
:107A1C0002A8FFF720FE002229460948FDF77AFB51
:107A2C003046FFF718FE1021304600F08FFF6846F5
:107A3C00FFF7E4FE09B0F0BDF7780D006D7B0D008B
:107A4C0071800D002DE9F04F8BB006460F46904625
:107A5C0099469DF850A0FDF7D1FB07AD834630BB8E
:107A6C004FF62E73059005A92846ADF81830FFF790
:107A7C00B6FE1420FCF709FB044658B10223037030
:107A8C0001234370C0F804B0C0F808B029460C308C
:107A9C00FFF7A5FE3046214640F8044BFFF708FFE0
:107AAC002846FFF7ABFE05A8FFF7A8FE52E000241E
:107ABC000C2314206C60AC600793FCF7E6FA0146CB
:107ACC0018B1047044704460846004A80391FFF7FB
:107ADC00EFFE224B08930820FCF7D7FA044628B196
:107AEC00039B40F8043B04A9FEF781F800955FFA6C
:107AFC008AF34A46414638460994FDF787FB20B97C
:107B0C00039B5B7803F0FF0283B1039B059304A9ED
:107B1C0006A8FEF76CF805A93046FFF799FE06A8F3
:107B2C00FCF72CFB04A8FCF729FB13E04FF69C7325
:107B3C0005A903A80592ADF81830FFF7FDFE05A8BE
:107B4C00FFF75CFE05A80999FFF793FE06A8FCF762
:107B5C0015FBDAE730460BB0BDE8F08FDD7C0D008D
:107B6C00022AF8B5044606D0032A17D0012A22D1DE
:107B7C000B6803601FE018200E68FCF786FA0546B8
:107B8C0050B13146FFF7C8FE3069B6F9147008B130
:107B9C0001F088FA2861AF8225600CE0046854B1CA
:107BAC0004F11000FFF72AFE2046FFF754FD1821C0
:107BBC00204600F0CBFE0020F8BD38B500238360D2
:107BCC008B6804460D462BB102229847EB68E360A4
:107BDC00AB68A360204638BD022A70B5044606D0B7
:107BEC00032A11D0012A18D10B68036015E0142068
:107BFC000E68FCF74AFA054620B13146FFF7DDFF67
:107C0C00337C2B74256008E0046834B12046FFF700
:107C1C0022FD1421204600F099FE002070BD0000CA
:107C2C00F0B5002387B00C46BFF35F8F50E8006FB0
:107C3C0040E80032002AF9D1BFF35F8F002E3FD00D
:107C4C001846FDF75FFA074620B121463046FFF78C
:107C5C0053FE2EE0314601A8FFF7AFFF23788DF8D5
:107C6C0014301020FCF711FA0546D0B187601420AF
:107C7C00FCF70BFA044678B18760014601A8FFF7C0
:107C8C00F9FC039BA268A360049B0392E268E36087
:107C9C009DF81430049223740A4BEB600A4B2C6051
:107CAC00AB6001A8FFF7D7FC002229460748FDF777
:107CBC0031FA3046FFF7CFFC1021304600F046FE7B
:107CCC0007B0F0BD17790D00E57B0D0071800D003C
:107CDC0030B585B004460D4668461146FFF7C9FD20
:107CEC007CB124B228460DB101F0DCF9029002A956
:107CFC006846ADF80C40FFF71FFE02A8FFF77EFDAB
:107D0C001DE000988DF808404FF00102D0E84F3F7D
:107D1C00A34203D1C0E8412F0029F7D102D08DF83E
:107D2C0008300CE010F10C014FF0010318BF037385
:107D3C00BFF35F8F043000F8033CFFF771FF01A81D
:107D4C00FCF71CFA05B030BD704710B5182104467D
:107D5C0000F0FCFD204610BDF0B5037D062B8DB068
:107D6C000E4600F104074FF0000402D000F10805A4
:107D7C0018E00CAD394605F8304D2F232A460A2061
:107D8C00FDF7B0F8284601F0A8F933680246DB6825
:107D9C002946304698470FE024B12E213046FEF795
:107DAC0029FC044415F8011D0A223046FEF731FC6B
:107DBC00BD420444F0D120460DB0F0BD10B5054BCA
:107DCC000446112240F8043B002101F018F920462A
:107DDC0010BD00BF00980D000346074A10B543F8CC
:107DEC00042B01F1100251F8044B43F8044B91425F
:107DFC00F9D10A781A7010BD00980D0010B59DF8D5
:107E0C00084044EA032343EA024242EA01610423A4
:107E1C004160037510BD37B50D788B784A78C978F9
:107E2C0000912946FFF7EAFF03B030BD417470475B
:107E3C00704708B50021007CFDF714F930EA2000EA
:107E4C0028BF4FF0FF3008BD08B50121007CFDF7BD
:107E5C0009F930EA200028BF4FF0FF3008BD08B503
:107E6C00007CFDF7F7F820EAE07008BD08B5007C4F
:107E7C00FDF7E8F820EAE07008BD007CFDF702B9D8
:107E8C0010B51421044600F061FD204610BD38B534
:107E9C000446007C0D46FDF7DDF8002801DC607C13
:107EAC0028B12946207CFDF7E5F820EAE07038BDC2
:107EBC0010B50446002363604FF47A73A360054B3E
:107ECC00236001230846217463741146FDF7A2F860
:107EDC00204610BD14980D000022007CFDF7A2B8BE
:107EEC00007CFDF7A7B810B514220446002101F060
:107EFC0086F8204610BD000030B50E4D87B001A8A5
:107F0C00FFF7F1FF296811F0010410D12846FCF7A6
:107F1C00CDF860B101AA21460748FFF7C9FF2846F2
:107F2C00FCF7C9F8054A0649034800F001FD024870
:107F3C0007B030BD04E4032008E40320D0E20320A2
:107F4C003D7E0D00FCF7CCBEFCF7C2BE7047417401
:107F5C00704708B5007CFDF70DF820EAE07008BD0D
:107F6C0008B5007CFCF7DEFF20EAE07008BD08B520
:107F7C00007CFCF7E7FF30EA200028BF4FF0FF3011
:107F8C0008BD08B5007CFCF7D5FF30EA200028BFFF
:107F9C004FF0FF3008BD007CFCF7DCBF10B514219E
:107FAC00044600F0D3FC204610BD70B5457C044659
:107FBC000E4625B9007CFCF7DDFF002805DD3146B7
:107FCC00207CBDE87040FCF7A5BF284670BD0000C2
:107FDC0010B5044608461146002262604FF47A72CE
:107FEC00A260054A22600122207462741A46FCF7D2
:107FFC0081FF204610BD00BF44980D000023007C7B
:10800C00FCF7C0BF0022FFF7F9BF007CFCF77ABF7A
:10801C00007CFCF7A7BF000038B50C4D296811F0A7
:10802C00010411D12846FCF741F868B1084A094B04
:10803C0009482146FFF7CCFF2846FCF73CF8074AD5
:10804C000749054800F074FC034838BDB4E403202C
:10805C00B8E4032030E403201CE40320D0E2032026
:10806C00597F0D0010B5836804460BB900F081FCF4
:10807C00C3689847A3681BB1032221462046984742
:10808C0020461021BDE8104000F060BC7047F8B5E8
:10809C00064615460C468F18BC4206D0336814F8B9
:1080AC00011B9B6830469847F6E72846F8BD00222E
:1080BC00007CFCF76FBF0021007CFCF773BF002134
:1080CC00007CFCF777BF0021007CFCF77BBF002114
:1080DC00007CFCF77FBF10B51421044600F036FC81
:1080EC00204610BD10B50446002363604FF47A732C
:1080FC00A360044B2174084623601146FCF77AFFF9
:10810C00204610BD74980D000021007CFCF76ABF5E
:10811C00002211464068FDF751B800221146406814
:10812C00FDF75CB800224068FDF750B8002281F0E2
:10813C0001014068FDF73AB800231A460121406856
:10814C00FDF72CB800231A4619464068FDF71EB8F7
:10815C00002211464068FDF711B800221146406814
:10816C00FCF7FCBF002202214068FCF7FFBF002394
:10817C001A464068FCF7EABF38B5054688B1046872
:10818C004CB1A3681BB1032221462046984710210D
:10819C00204600F0DBFB28461421BDE8384000F0F7
:1081AC00D5BB38BD10B103685B681847704710B574
:1081BC0003680446BBB15868FCF75CFE78B92368C9
:1081CC005A7C12B95868FCF75DFE23685868FCF7B6
:1081DC0061FE20680023236028B1FFF7CDFF2068E3
:1081EC0008B1FFF7C9FF204610BD38B50446D0F8DA
:1081FC00C40108B1FBF74DFFD4F8C00108B1FCF77E
:10820C0059FED4F8BC5135B12846FFF7D0FF0421F4
:10821C00284600F09BFB206808B1FFF7C3FF2046FF
:10822C0038BD000010B5044B044640F8083BFFF77E
:10823C00DCFF204610BD00BF9C980D0038B50E4CDD
:10824C000E4B23600025022304F5E4706360A560E7
:10825C00C4F8C451C4F8C851FCF724FE084BC4F848
:10826C00CC5184F8D05123602046064A0649BDE81B
:10827C00384000F05DBB00BF3CE5032004990D00C5
:10828C009C980D00D0E2032031820D000022114693
:10829C004068FCF773BF002211464068FCF78EBFA4
:1082AC00002211464068FCF799BF00224068FCF799
:1082BC008DBF002281F001014068FCF777BF0023DD
:1082CC001A4619464068FCF769BF00231A4619463E
:1082DC004068FCF75BBF002211464068FCF73EBFCC
:1082EC00002202214068FCF741BF00231A46406877
:1082FC00FCF72CBF024B04225A60024A1A607047EA
:10830C0010E70320D0980D0000231A464068FCF7B4
:10831C001DBF002202214068FCF728BF0022114635
:10832C004068FCF71BBF002211464068FCF726BFD3
:10833C0000231A4619464068FCF728BF00231A464A
:10834C0019464068FCF72ABF002281F00101406801
:10835C00FCF72CBF00224068FCF738BF0022114606
:10836C004068FCF73BBF002211464068FCF726BF73
:10837C002DE9F043002495B016460D460746FFF74D
:10838C001DFD214620220CA8009400F038FE40234D
:10839C000C9321466B460CAA3046FCF779FC04463C
:1083AC00002844D1024601216868FCF7E7FE02214F
:1083BC00804622466868FCF7E1FE009E8146214615
:1083CC00002E34D0002932D17368022B02D00A2B34
:1083DC0009D02AE0B8F1000F27D071693846043172
:1083EC00FFF719FD20E0B9F1000F1ED074691122BE
:1083FC0001A800F004FE06238DF8143001AD04F141
:10840C0008031834186859682A4603C20833A34273
:10841C001546F7D101A906A807ADFFF7DDFC0FCD76
:10842C003C1D0FC42B6823700121F669C8E7009826
:10843C00FCF726FC384615B0BDE8F083024B034A26
:10844C001A6000225A60704718E7032004990D0047
:10845C0000F11002012312F8101C0129104604D15E
:10846C0052F8041C03EB410304E0022904BF52F848
:10847C00041C5B18013B02F11002ECD170470EB4E6
:10848C002DE9F04187B000AF07F13404054654F8EC
:10849C00046B7C6023463246102107F10800FCF780
:1084AC00E5FE0F2816D900F1080323F00703E84670
:1084BC00ADEB030D3246411C234668467C60FCF74D
:1084CC00D5FE021E04DD2B6869469B68284698473A
:1084DC00C54607E030B12B6802469B6807F10801DE
:1084EC00284698471C37BD46BDE8F04103B070479D
:1084FC0013B502AB026803F8011D946819460122FA
:10850C00A04702B010BD8368FBB11A78032A1AD8B1
:10851C00DFE802F00417021D0520704702685B6853
:10852C005268D05C2D2814D0A0F13003092B10D93F
:10853C00742810D066280ED0A0F16E035842584112
:10854C00704706207047002070471846704704207B
:10855C007047032070470220704710B50446FFF7A0
:10856C00D2FF02280DD016D3042814D82268A36891
:10857C0050685B680A2200211844BDE8104000F0E6
:10858C006FBE2268A36852685B68D05CA0F174036C
:10859C005842584110BD002010BD10B54369044627
:1085AC005BB18068E060013B1030A06020616361CA
:1085BC002BB1FFF74DFFA06001E0184610BD012064
:1085CC0010BD10B57D210446FFF792FF01232371E6
:1085DC00204610BD08B50379012B02D0022B02D026
:1085EC0008BD2C2100E03A21FFF782FF08BD10B531
:1085FC000446FFF7EFFF20467B21FFF779FF0023AE
:10860C002371204610BD000038B504460D46FFF717
:10861C00E1FF23680449DB6820462A46984701237A
:10862C002371204638BD00BF09970D0038B50446AC
:10863C000D46FFF7CFFF23680449DB6820462A4626
:10864C00984701232371204638BD00BFC4920D000A
:10865C00F8B50D461746222104462F44FFF748FF74
:10866C002A462946BA4238D0164616F8015B222D06
:10867C0003D05C2D01D01F2D2DD82368521A9B6876
:10868C00204698475C212046FFF732FF0C2D19D06D
:10869C0007D8092D0FD00A2D12D0082D14D1622124
:1086AC000AE0222D05D05C2D03D00D2D0CD17221AA
:1086BC0002E0294600E074212046FFF719FF09E08B
:1086CC006E21F9E76621F7E723680A49DB682A4639
:1086DC002046984731463246C4E7914204D023687D
:1086EC00521A9D682046A84722212046FFF700FF1A
:1086FC00F8BD00BF4D990D0070B504460D461646E9
:10870C00FFF768FF204632462946FFF7A1FF0223F8
:10871C002371204670BD70B504460D461646FFF712
:10872C0059FF204632462946FFF792FF0123237159
:10873C00204670BD10B5002304460360436010480A
:10874C00A060E360D1B10B78032B06D0B3B91368EA
:10875C0058684B68C35C6E2B08D0136858684B681C
:10876C000344A3608B6849685B1AE360114620469A
:10877C0051F8043B40F8043BFDF7EAFA204610BDE3
:10878C002F970D00002310B50446036043608360EF
:10879C00C3600361436171B10B78012B0BD101F103
:1087AC0010038360CB684361114651F8043B40F8D9
:1087BC00043BFDF7CDFA204610BD002310B504464E
:1087CC0003604360816031B1114651F8043B40F8BD
:1087DC00043BFDF7BDFA204610BD10B5044600F071
:1087EC0047F8FCF7AFFD28B1A4F10B03022B01D81D
:1087FC00002010BD00F076F8FFF786FC08B1012CC4
:10880C00F6D9FFF709FCFFF703FC18B1A4F1090333
:10881C00012BEDD9232C8CBF0020012010BD232867
:10882C0038B504460D460AD8FF2908D0FFF7D5FF06
:10883C0028B129462046BDE83840FCF741BA38BD7E
:10884C000D2810B504469CBF0E34A4B22046FFF789
:10885C00C4FF50B103212046FCF72AFA032804D1A7
:10886C002046BDE81040FCF743BA002010BD0000C4
:10887C0038B50B4D296811F001040FD12846FBF7D0
:10888C0015FC58B121460748FCF74EFD2846FBF76E
:10889C0012FC054A0549034800F04AF8014838BD66
:1088AC002CE7032020E70320D0E2032025530D0002
:1088BC0070B5044614252A46094E002100F09FFB92
:1088CC00258020253146A5602561284600F040F81A
:1088DC0031466060284600F03BF8E060204670BDF1
:1088EC0053990D0030B50E4D296811F0010487B075
:1088FC0013D12846FBF7DAFB78B101A8FFF7D8FFB4
:10890C0001AA21460748FFF7EDFB2846FBF7D3FBEE
:10891C00054A0649034800F00BF8024807B030BD81
:10892C0034E7032038E70320D0E2032099800D00C0
:10893C000B460146184600F01FBB0000024B18689E
:10894C00BFF35F8F704700BF4CE70320FBF79FBB63
:10895C0000F000B810B5002814BF044601242046CE
:10896C00FCF764FC20B9FFF7E9FF08B18047F6E794
:10897C0010BD08B5FCF782FC184B1A68D1075CBF18
:10898C0001221A60164B1A68D2075CBF01221A60CA
:10899C00144B1A68D0075CBF01221A60124B1A687C
:1089AC00D1075CBF01221A60104B1A68D2075CBF5A
:1089BC0001221A600E4B1A68D0075CBF01221A60A4
:1089CC000C4B1A68D1075CBF01221A600A4B1A685B
:1089DC00D2075CBF01221A60704700BF6CE703200E
:1089EC0068E7032064E7032060E703205CE70320CB
:1089FC0058E7032054E7032050E70320244B1A6860
:108A0C00D0075CBF01221A60224B1A68D1075CBFE9
:108A1C0001221A60204B1A68D2075CBF01221A602F
:108A2C001E4B1A68D0075CBF01221A601C4B1A68D7
:108A3C00D1075CBF01221A601A4B1A68D2075CBFBF
:108A4C0001221A60184B1A68D0075CBF01221A6009
:108A5C00164B1A68D1075CBF01221A60144B1A68B6
:108A6C00D2075CBF01221A60124B1A68D0075CBF98
:108A7C0001221A60104B1A68D1075CBF01221A60E0
:108A8C000E4B1A68D2075CBF01221A60704700BFF8
:108A9C009CE7032098E7032094E7032090E703204A
:108AAC008CE7032088E7032084E7032080E703207A
:108ABC007CE7032078E7032074E7032070E70320AA
:108ACC00244B1A68D0075CBF01221A60224B1A682B
:108ADC00D1075CBF01221A60204B1A68D2075CBF19
:108AEC0001221A601E4B1A68D0075CBF01221A6063
:108AFC001C4B1A68D1075CBF01221A601A4B1A680A
:108B0C00D2075CBF01221A60184B1A68D0075CBFF1
:108B1C0001221A60164B1A68D1075CBF01221A6039
:108B2C00144B1A68D2075CBF01221A60124B1A68E8
:108B3C00D0075CBF01221A60104B1A68D1075CBFCA
:108B4C0001221A600E4B1A68D2075CBF01221A6010
:108B5C00704700BFCCE70320C8E70320C4E703201D
:108B6C00C0E70320BCE70320B8E70320B4E70320E9
:108B7C00B0E70320ACE70320A8E70320A4E7032019
:108B8C00A0E70320184B1A68D1075CBF01221A60BA
:108B9C00164B1A68D2075CBF01221A60144B1A6874
:108BAC00D0075CBF01221A60124B1A68D1075CBF58
:108BBC0001221A60104B1A68D2075CBF01221A609E
:108BCC000E4B1A68D0075CBF01221A600C4B1A6856
:108BDC00D1075CBF01221A600A4B1A68D2075CBF2E
:108BEC0001221A60704700BFECE70320E8E703207E
:108BFC00E4E70320E0E70320DCE70320D8E70320C9
:108C0C00D4E70320D0E7032081F0004102E000BF4D
:108C1C0083F0004330B54FEA41044FEA430594EA30
:108C2C00050F08BF90EA020F1FBF54EA000C55EA6B
:108C3C00020C7FEA645C7FEA655C00F0E2804FEA3C
:108C4C005454D4EB5555B8BF6D420CDD2C4480EA1E
:108C5C00020281EA030382EA000083EA010180EA4E
:108C6C00020281EA0303362D88BF30BD11F0004F9C
:108C7C004FEA01314FF4801C4CEA113102D04042D2
:108C8C0061EB410113F0004F4FEA03334CEA13330D
:108C9C0002D0524263EB430394EA050F00F0A78025
:108CAC00A4F10104D5F1200E0DDB02FA0EFC22FA20
:108CBC0005F2801841F1000103FA0EF2801843FA14
:108CCC0005F359410EE0A5F120050EF1200E012A05
:108CDC0003FA0EFC28BF4CF0020C43FA05F3C01843
:108CEC0051EBE37101F0004507D54FF0000EDCF1BC
:108CFC00000C7EEB00006EEB0101B1F5801F1BD365
:108D0C00B1F5001F0CD349085FEA30004FEA3C0C68
:108D1C0004F101044FEA445212F5800F80F09A805E
:108D2C00BCF1004F08BF5FEA500C50F1000041EB62
:108D3C00045141EA050130BD5FEA4C0C404141EB66
:108D4C00010111F4801FA4F10104E9D191F0000F8D
:108D5C0004BF01460020B1FA81F308BF2033A3F110
:108D6C000B03B3F120020CDA0C3208DD02F1140C07
:108D7C00C2F10C0201FA0CF021FA02F10CE002F142
:108D8C001402D8BFC2F1200C01FA02F120FA0CFC3B
:108D9C00DCBF41EA0C019040E41AA2BF01EB045184
:108DAC00294330BD6FEA04041F3C1CDA0C340EDC82
:108DBC0004F11404C4F1200220FA04F001FA02F3C5
:108DCC0040EA030021FA04F345EA030130BDC4F183
:108DDC000C04C4F1200220FA02F001FA04F340EA78
:108DEC000300294630BD21FA04F0294630BD94F029
:108DFC00000F83F4801306BF81F480110134013D10
:108E0C004EE77FEA645C18BF7FEA655C29D094EA80
:108E1C00050F08BF90EA020F05D054EA000C04BFFE
:108E2C001946104630BD91EA030F1EBF00210020E9
:108E3C0030BD5FEA545C05D14000494128BF41F088
:108E4C00004130BD14F580043CBF01F5801130BDEC
:108E5C0001F0004545F0FE4141F470014FF0000077
:108E6C0030BD7FEA645C1ABF194610467FEA655C28
:108E7C001CBF0B46024650EA013406BF52EA0335CA
:108E8C0091EA030F41F4002130BD00BF90F0000FB8
:108E9C0004BF0021704730B54FF4806404F13204F4
:108EAC004FF000054FF0000150E700BF90F0000FAD
:108EBC0004BF0021704730B54FF4806404F13204D4
:108ECC0010F0004548BF40424FF000013EE700BFA4
:108EDC0042004FEAE2014FEA31014FEA02701FBF34
:108EEC0012F07F4393F07F4F81F06051704792F006
:108EFC00000F14BF93F07F4F704730B54FF4607480
:108F0C0001F0004521F0004120E700BF50EA0102CA
:108F1C0008BF704730B54FF000050AE050EA010277
:108F2C0008BF704730B511F0004502D5404261EBE7
:108F3C0041014FF4806404F132045FEA915C3FF428
:108F4C00DCAE4FF003025FEADC0C18BF03325FEAC1
:108F5C00DC0C18BF033202EBDC02C2F1200300FA76
:108F6C0003FC20FA02F001FA03FE40EA0E0021FA9B
:108F7C0002F11444C1E600BF10B5054C13462CB1E8
:108F8C000A4601460220AFF3008010BD204610BDFA
:108F9C000000000010B501390244904207D010F8CF
:108FAC00013B11F8014FA342F7D0181B10BD002054
:108FBC0010BD10B5431E0A44914204D011F8014B68
:108FCC0003F8014FF8E710BD884210B501EB02031E
:108FDC0001D8421E0BE09842FBD28118D21AD34220
:108FEC0004D013F8014D01F8014DF8E710BD99427A
:108FFC0004D011F8014B02F8014FF8E710BD024400
:10900C000346934202D003F8011BFAE770470000B5
:10901C0038B5124B1C68A36B0546D3B91820FCF766
:10902C0005F943F20E33A06303804AF6CD33438037
:10903C0041F2342383804EF26D63C3804DF6EC63B2
:10904C000381052343810B23838101220023C0E983
:10905C000423A36B00221D615A6138BDCCE20320AE
:10906C00C9B2034610F8012B1AB19142F9D1184636
:10907C00704700290CBF18460020704710B50446F5
:10908C00FFF7EEFF18B9204600F027F8204410BD7A
:10909C0010F8012B11F8013B012A28BF9A42F7D096
:1090AC00D01A7047024B0146186800F003B800BF95
:1090BC00CCE2032070B5064608460C4600F00DF8CD
:1090CC00451C29463046FCF7E1F8064618B12A46FD
:1090DC002146FFF76EFF304670BD034613F8012B97
:1090EC00002AFBD1181A0138704730B582B1451EE1
:1090FC00013915F8013F11F8014FA34206D1EC4399
:10910C001444E04201D0002BF3D11C46181B30BD97
:10911C00104630BD10B5034601448B4204D01A787A
:10912C005C1C0AB12346F8E7181A10BD38B5034683
:10913C000D4641B1002429461846FFF791FF30B186
:10914C00431C0446F7E7BDE83840FFF789BF2046CB
:10915C0038BD00002DE9F04780464048D0F800901B
:10916C000F463D4615F8014B09EB0400407800F022
:10917C00080000F0FF0608B12F46F2E72D2C03D1B2
:10918C00BD1C7C78012603E02B2C04BF7C78BD1C15
:10919C0013B1102B0AD15BE0302C57D1287800F09A
:1091AC00DF0058284DD16C7810230235002E14BFE7
:1091BC004FF0004C6FF0004C0027BCFBF3FA384624
:1091CC0003FB1ACC09EB040E9EF801E01EF0040F11
:1091DC0001D0303C0BE01EF0030E1BD0BEF1010F92
:1091EC000CBF4FF0370E4FF0570ECEEB0404A342DA
:1091FC0010DDB7F1FF3F0AD0504506D801D16445C8
:10920C0003DC03FB0040012701E04FF0FF3715F8AA
:10921C00014BD7E77B1C0CD1002E4FF0220314BF5F
:10922C004FF000406FF00040C8F800302AB9BDE89C
:10923C00F08706B1404272B107B1691E1160BDE8FA
:10924C00F0873024002BB1D10823AFE70A23ADE718
:10925C00302CA3D0AAE7BDE8F08700BF68E203205A
:10926C0013460A46014602480068FFF773BF00BF69
:10927C00CCE203201D400D0059400D0085400D002F
:10928C0089400D00000000000000000000000000FC
:10929C000000000000000000A5400D00C9400D00BA
:1092AC000000000000000000E5400D0019410D0019
:1092BC001D730D00CB400D0025750074656D706538
:1092CC00726174757265416E61006C6967687400D7
:1092DC0068756D69646974790064697374616E632F
:1092EC00650054656D70657261747572653A200025
:1092FC004C696768743A200048756D6964697479C3
:10930C003A200044697374616E6365207472616EF7
:10931C00736D69747465642E0044697374616E6353
:10932C00653A2000537461727420616476657274BE
:10933C006973696E670074656D70003435626534ED
:10934C006135362D343866352D343833632D38621B
:10935C0062312D64336665653433336332336300B5
:10936C0039396130643266392D316366612D34329E
:10937C0062332D623562612D3162346434333431A1
:10938C00333932660065613532343861342D34330B
:10939C0063632D343139382D613461612D373932A5
:1093AC0030306137353038333500626337663138E9
:1093BC0064392D326334332D343038652D62653287
:1093CC00352D36326634303634353938376300371C
:1093DC00353465626635652D636533312D34333034
:1093EC00302D396664352D613866623465653461BB
:1093FC0038313100000000000000000007530D0060
:10940C00FD520D00F3520D00E9520D00DD520D001E
:10941C00D1520D00C5520D00BD520D00B3520D00BE
:10942C00A9520D007D830D0000000000000000001B
:10943C0025530D0027530D00000000000000000014
:10944C00C3540D00C9540D00D1610D00F3540D002F
:10945C00C5540D000000000000000000BD540D00BC
:10946C00D7540D00DD620D00F7540D00BF540D00F4
:10947C000000000000000000B7540D00E5540D0082
:10948C008F5C0D00FB540D00B9540D007BE3277469
:10949C007BF815ACDD49A913000072F57769726988
:1094AC006E672E626C65005374617274206469730C
:1094BC00636F766572696E67207365727669636532
:1094CC00732E00537461727420646973636F7665D4
:1094DC0072696E6720636861726163746572697327
:1094EC00746963732E0050656572206465766963D8
:1094FC0065206973206D697373696E67210046611D
:10950C00696C656420746F20617070656E64207086
:10951C006565722043656E7472616C206465766952
:10952C0063652E00436F6E6E6563746564206279AB
:10953C002043656E7472616C206465766963652E78
:10954C0000446973636F6E6E656374656420627941
:10955C002072656D6F7465206465766963652E0095
:10956C0043616E6E6F7420616464206E6577207049
:10957C00656572206465766963652E004E6577209B
:10958C007065726970686572616C20697320636FB5
:10959C006E6E65637465642E004661696C6564204B
:1095AC00746F20617070656E6420646973636F768C
:1095BC006572656420636861726163746572697356
:1095CC007469632E004661696C656420746F206158
:1095DC007070656E6420646973636F766572656420
:1095EC0020736572766963652E004661696C6564EB
:1095FC0020746F20617070656E64206C6F63616C99
:10960C002063686172616374657269737469632E37
:10961C00004475706C696361746564206368617281
:10962C00616374657269737469632063616E6E6FD4
:10963C00742062652061646465642E00FB349B5F5A
:10964C0080000080001000000000000000000000FE
:10965C0000000000F9660D001F670D00D3660D00B9
:10966C008B840D000000000000000000756B0D00E5
:10967C00896B0D00D1740D00DB660D0062617564A1
:10968C000053657269616C0053657269616C3100DD
:10969C007479706500706172616D00636D6400694E
:1096AC006400686E64007374726D0066696C74009B
:1096BC006C766C0061646448616E646C65720072F7
:1096CC00656D6F766548616E646C657200656E756C
:1096DC006D48616E646C657273004A534F4E5374DF
:1096EC007265616D4C6F6748616E646C6572006188
:1096FC00707000253031307520005D20002564002D
:10970C002C200028293A2000205B00636F64652020
:10971C003D200025690064657461696C73203D20EF
:10972C00000D0A006C6E00666E00636F6465006469
:10973C00657461696C006E6F6E650074726163654F
:10974C0000696E666F007761726E006572726F727F
:10975C000070616E696300616C6C000000000000B9
:10976C0000000000496B0D00616B0D001D730D00B6
:10977C00CB400D000000000000000000F7660D005B
:10978C002D670D0045720D00DD660D000000000018
:10979C0000000000F5660D003B670D008D6A0D00A2
:1097AC0049670D005A00252B3033643A2530327549
:1097BC000025592D256D2D25645425483A254D3A03
:1097CC002553257A0061736374696D650000000090
:1097DC000000000000000000CD770D00D3770D00D5
:1097EC0017780D00E1770D00CF770D000000000019
:1097FC0000000000657D0D00557D0D00577D0D00AE
:10980C0000000000000000003D7E0D008D7E0D006C
:10981C009B7E0D00B5650D00797E0D003F7E0D0021
:10982C00557E0D00877E0D006B7E0D00397E0D0080
:10983C000000000000000000597F0D00A97F0D0002
:10984C00B77F0D00B5650D006D7F0D008F7F0D008E
:10985C007B7F0D00A37F0D005B7F0D005F7F0D00F4
:10986C00000000000000000099800D00E3800D0056
:10987C00BB800D009B800D00C3800D00CB800D00C4
:10988C00D3800D00DB800D00000000000000000004
:10989C007B810D0071810D0067810D005D810D00D4
:1098AC0051810D0045810D0039810D0031810D0074
:1098BC0027810D001D810D007D830D00000000002F
:1098CC0000000000F7820D00ED820D00E3820D0018
:1098DC0099820D00D7820D00CB820D00BF820D0046
:1098EC00B7820D00AD820D00A3820D007D830D00AB
:1098FC00000000000000000015830D001F830D0008
:10990C0029830D0033830D003D830D0049830D0029
:10991C0055830D0061830D0069830D0073830D0069
:10992C007D830D00302E300066616C73650074729F
:10993C00756500252E2A6C66002567006E756C6CAB
:10994C0000752530347800000020202020202020B5
:10995C0020202828282828202020202020202020D3
:10996C0020202020202020202088101010101010E3
:10997C00101010101010101010040404040404042F
:10998C0004040410101010101010414141414141C9
:10999C0001010101010101010101010101010101AB
:1099AC0001010101101010101010424242424242BB
:1099BC00020202020202020202020202020202027B
:1099CC000202020210101010200000000000000023
:1099DC00000000000000000000000000000000007B
:1099EC00000000000000000000000000000000006B
:1099FC00000000000000000000000000000000005B
:109A0C00000000000000000000000000000000004A
:109A1C00000000000000000000000000000000003A
:109A2C00000000000000000000000000000000002A
:109A3C00000000000000000000000000000000001A
:109A4C00000000000000000000000000000000000A
:109A5C0000000000000000000000000000000000FA
:109A6C0000000000000000000000000000000000EA
:109A7C0000000000000000000000000000000000DA
:109A8C0000000000000000000000000000000000CA
:109A9C0000000000000000000000000000000000BA
:109AAC000000000000000000000000004300000067
:109ABC00C1460D00DD4A0D007D4C0D0011530D000B
:109ACC0059530D008D650D000D730D0049760D0079
