:02000002D0002C
:1040000000400D001C910D00000006000C00050191
:084010000401E80500000000B6
:0440180060870D00B0
:10401C0009480A49884208B505D0094A824202D0AB
:10402C00121A04F052FA0748074A0021121A04F037
:10403C0072FA014808BD00BF4CE2032054900D00F9
:10404C00ECE20320ECE20320F0E7032070B503F070
:10405C00AFFA074C074BE41AA40800251E46A542EC
:10406C0004D056F8253098470135F8E770BD00BFED
:10407C004C900D000C900D0000F094B808B500F0B9
:10408C0063F9BDE8084003F055BA00F0D7BF00F063
:10409C00DDBF00F0DBBF000008B5034A00210C2097
:1040AC0000F000FFFEE700BF5D4B0D000078B0FA9A
:1040BC0080F0400970470123037070477047006A15
:1040CC000368DB68184710B50446006808B100F0B7
:1040DC00BDFF204610BD00000A4B10B5044603601E
:1040EC0002F02AFB214602F017FD03F065FB03F0FA
:1040FC0057FB2046044B40F8043B02F013FC2046CF
:10410C0010BD00BF94870D007C870D0010B50446D0
:10411C00FFF7E2FF2046242104F05EF8204610BD94
:10412C000EB400B58CB00DAA202352F8041B0392D8
:10413C008DE8060004930168002304AA1E20059351
:10414C0000F0C0FE0CB05DF804EB03B0704700004B
:10415C0010B50E4B0E4A1B6812689B1A0D4A12685A
:10416C00934212DD04780C490C48FFF7D9FF224624
:10417C000B490A48FFF7D4FF214646F2A8124FF626
:10418C00FF70BDE8104003F0BCBF10BD64E203201B
:10419C0050E203206CE20320A4870D00E8E3032027
:1041AC00B1870D0010B592B012A8012200F83B2D7A
:1041BC0041F6C67100F02EFE01F06CFB01F0B0FB75
:1041CC0001F068FB2D4A014609A801F0D1FF09A8AE
:1041DC0001F02BFC01F05EFB294A014609A801F015
:1041EC00C7FF09A801F021FC01F054FB254A014648
:1041FC0009A801F0BDFF09A801F017FC01F04AFB6A
:10420C00214A014609A801F0B3FF09A801F00DFCF1
:10421C0009A801F025FA1D4B04A8196801F0B6F99C
:10422C0004A801F0FFF8044604A844B901F018F9F9
:10423C0012AA022322F83A0D0321009406E001F0A1
:10424C0014F90023009302461023072109A801F05A
:10425C00C0F90F490F48FFF763FF01F01BFB002269
:10426C0009A901F093FB0C4800F0FEFB01214FF66D
:10427C00FF7003F035FF12B010BD00BF1CE303202C
:10428C0060E3032000E30320F0E2032058E2032064
:10429C00D9870D00E8E3032024E303201FB50B4866
:1042AC0000F0BEFBFDEEC07A0949CDED017A9DF917
:1042BC00044008482246FFF733FF2246064903A86C
:1042CC0000F0D4FE204604B010BD00BF74E3032000
:1042DC00EB870D00E8E303203C880D001FB50B486D
:1042EC0000F0B0FBFCEEC07A0949CDED017A9DF8E7
:1042FC00044008482246FFF713FF2246064903A84C
:10430C0000F0B4FE204604B010BD00BF74E30320DF
:10431C0000880D00E8E303203C880D0007B500225F
:10432C00064901A800F0A2FE002205490548FFF746
:10433C00F7FE002003B05DF804FB00BF3C880D00C5
:10434C0012880D00E8E3032070B58CB001F0A2FADE
:10435C0001F039FB002800F08E8000F001FC494B85
:10436C001A7804461AB901221A70474A10601B7851
:10437C000BB1464B1C60464A136847F22F51E31AA7
:10438C008B4230D91460FFF789FF424A424B92F9B5
:10439C00001093F900308B42154620D100233F4E7C
:1043AC001846884204DA825D1A4453B20130F8E7A9
:1043BC0093FBF1F38DF80C3003F06CF8C117CDE9D9
:1043CC0000019DE8030004AB83E8030024220023D2
:1043DC0003A9334801F0ACF900232B7003E02F4BF9
:1043EC0058544B1C13702F4A136847F22F51E31A81
:1043FC008B420AD91460FFF771FF0CA9002301F856
:10440C00240D0122284801F093F9284A1368E31A75
:10441C00B3F57A7F19D30F2514608DF80C5003F087
:10442C0039F8C117CDE900019DE8030004AB83E81E
:10443C0003002422002303A91D4801F079F91D4B28
:10444C001D491E481D70FFF76BFE1D4A136841F293
:10445C008731E31A8B420AD91460FFF75FFF0CA96E
:10446C00002321F8240D0222164801F061F9642082
:10447C0003F022F803E014491048FFF751FE0CB08A
:10448C0070BD00BF30E3032050E2032064E2032040
:10449C0068E3032038E3032060E20320F8E2032002
:1044AC001CE3032070E3032060E3032034E30320C8
:1044BC0000E3032054E203203F880D00E8E30320CF
:1044CC006CE3032014E3032055880D0070B50468D9
:1044DC0043681426054606FB0346A64204D0204634
:1044EC0000F04AFE1434F8E7286800F0AFFD2846C7
:1044FC0070BDF0B50E4691B00021044601604160DC
:10450C000BAD194606A8174601F040F81699284637
:10451C0001F03CF810AA3B7802F82C3D189B029352
:10452C00179B01932046009506AB314601F06CFDBC
:10453C00204611B0F0BD8842F8B506460C4615462B
:10454C0016D9904215D2A2F114056C1AA1F11407D8
:10455C000444AF421CD02CB12946204600F0FCFD8F
:10456C002B7C2374284600F007FE143D143CF0E726
:10457C000ED0AC420CD02EB12146304600F0ECFDF2
:10458C00237C3374204600F0F7FD14341436F0E726
:10459C00F8BD2DE9F04100230360436083604E6851
:1045AC009E4204460F4624DD4FF0140808FB06F02B
:1045BC0000F044FD0546E0B194E8060008FB021249
:1045CC00FFF7B9FF206800F041FD2560A6603E684A
:1045DC007B6808FB0368464509D02DB13146284657
:1045EC0000F033FE337C2B7414361435F3E77B6800
:1045FC0063602046BDE8F0812DE9F04391B0644E34
:10460C00644DDFF8E89100F053FA0622002162486D
:10461C00002400F02DF94FF6FF7373813460B480E1
:10462C00B4713481012000F06DFC2A465B493046A0
:10463C0003F0C4FD04940594069403F0BDF8584EA1
:10464C00804604A907A8FFF7A4FF374607A90AA8C4
:10465C00FFF79FFF534B47F8043B0AA90DA8FFF740
:10466C0098FF0DAA0121384602F0BDFB0DA8FFF7FB
:10467C002DFF0AA8FFF72AFF4B4B3360C6F82080AA
:10468C0007A8FFF723FF494B336003F095F84FF46D
:10469C00165103F081F802F04FF8314602F036FB68
:1046AC0004A8FFF713FF424F42492A46304603F055
:1046BC0085FD029401943B6800933F4B3F4E1B6871
:1046CC003F494FF010080DAA48468DF83480FFF78B
:1046DC0010FF2A463146484603F070FD02940194BF
:1046EC003B680093DFF80891364B37491B688DF80F
:1046FC0034800DAA4846FFF7FCFE2A463146484650
:10470C0003F05CFD032202213048DFF8E89000F052
:10471C00A3F9029401943B6800932D4B2D491B681F
:10472C008DF834800DAA4846FFF7E3FE2A46314641
:10473C00484603F043FD029401943B6800938DF8C6
:10474C003480254BDFF8B0801B6824490DAA404605
:10475C00FFF7CFFE2A463146404603F02FFD0423D7
:10476C008DF834301E4B029401933B680093DFF8B4
:10477C008C801C4B1C491B680DAA4046FFF7B9FEE8
:10478C002A463146404603F019FD11B0BDE8F083CE
:10479C0008E30320ECE2032074E30320D3400D0074
:1047AC003CE303207C870D00DC8C0D0094870D000E
:1047BC0058E20320E5400D0070E20320375A0D004B
:1047CC007D880D0068E2032082880D0024E303201D
:1047DC0074E2032088880D004CE2032091880D00C0
:1047EC005D410D005CE2032099880D001CE3032061
:1047FC0060E3032000E3032014E30320F0E2032032
:10480C0010B503682F2B044604D9074A00210A204F
:10481C0000F048FB23681F2B83BF03F01F032360AA
:10482C0002484FF0A04010BD5D4B0D00000300503E
:10483C0007B502AB43F8040D1846FFF7E1FF019AE8
:10484C0001239340C0F8083503B05DF804FB07B5AD
:10485C0002AB43F8040D1846FFF7D2FFD0F8103521
:10486C00019823FA00F000F0010003B05DF804FB9E
:10487C000272012281710274704700002DE9F74F1A
:10488C00044600F06DF9E368834284BF0023E360C3
:10489C00237C33B9E368C01AB0F5FA6F01D201205A
:1048AC00A8E00025554E257400F05AF9A37932681A
:1048BC00E0601B01D1182571E570A570657025703D
:1048CC00D05C4B7803F01F0343EA4010FFF7B0FFB6
:1048DC00FA2002F0F1FD0121A07903F001FCA3798B
:1048EC0032681B01D118D25C4B7802A803F01F036D
:1048FC0043EA421340F8043DFFF782FF019B4FF05F
:10490C00010808FA03F3C0F80C35142002F0D4FDAA
:10491C0002F078FFA37932681B01D118D05C4B7878
:10492C0003F01F0343EA4010FFF782FF282000F03A
:10493C000FF92946A07903F0D3FB2F464FF0000B5B
:10494C00A37932681B01D11812F803A04B7803F03D
:10495C001F0343EA4A1A5046FFF779FF5046FFF708
:10496C0076FF80455FFA8BF908D101200BF1010B22
:10497C0000F0EEF8BBF1FF0FE2D1D946A379326813
:10498C001B01D11812F803804B7803F01F0343EA84
:10499C0048184046FFF75BFF4046FFF758FFB9F158
:1049AC00FF0F5FFA80F814D0032D0ED9EB070CD44F
:1049BC00FA080137A35C5B00DBB2A354217A4945AA
:1049CC003CBF43F00103A354FFB20135EDB2552DAA
:1049DC00B4D102F019FF272F0BD9227863782179F3
:1049EC001344A2781344E2781344DBB299423FF4A7
:1049FC0056AF002003B0BDE8F08F00BF88E3032062
:104A0C0010B50446FFF73AFF28B1A37800EE103A30
:104A1C00B8EE400A10BD9FED010A10BD0000C07F2A
:104A2C00FFF7EEBF10B50446FFF728FF28B1237837
:104A3C0000EE103AB8EE400A10BD9FED010A10BD11
:104A4C000000C07FFFF7EEBF08B500F031F8014B56
:104A5C00186008BD88E3032010B5024C0460416067
:104A6C00826010BD000080BF10B504460121808813
:104A7C0003F036FB20890021BDE8104003F030BB69
:104A8C0008B500F015F8014B186008BD8CE3032045
:104A9C0008B5024B1B689B68019308BD68020300B4
:104AAC0008B5024B1B68DB68019308BD6802030064
:104ABC0008B5024B1B681B68019308BD2C02030050
:104ACC0008B5024B1B685B68019308BD2C02030000
:104ADC0008B5024B1B689B68019308BD2C020300B0
:104AEC0008B5024B1B68DB68019308BD2C02030060
:104AFC0008B5024B1B681B6A019308BD2C0203000E
:104B0C0008B5024B1B685B6A019308BD2C020300BD
:104B1C0008B5024B1B68DB6F019308BD2C02030028
:104B2C0008B5024B1B68DB69019308BD300203001A
:104B3C0008B5024B1B681B6A019308BD30020300C9
:104B4C0008B5024B1B685B68019308BD1802030093
:104B5C0008B5024B1B68DB68019308BD1802030003
:104B6C0008B5024B1B685B69019308BD1802030072
:104B7C0008B5024B1B68DB69019308BD18020300E2
:104B8C0008B5024B1B689B6D019308BD180203000E
:104B9C0008B5024B1B689B68019308BD78020300A3
:104BAC0008B5024B1B681B6D019308BD780203000E
:104BBC0008B5024B1B689B6D019308BD780203007E
:104BCC0008B5024B1B681B6E019308BD78020300ED
:104BDC0008B5034B1B68D3F89830019308BD00004F
:104BEC007802030008B5034B1B68D3F8A830019377
:104BFC0008BD00007802030008B5034B1B68D3F80E
:104C0C00B430019308BD00007802030008B5034BD3
:104C1C001B68D3F8D830019308BD0000780203005C
:104C2C0008B5034B1B68D3F8DC30019308BD0000BA
:104C3C007802030008B5034B1B68D3F8EC300193E2
:104C4C0008BD00007802030008B5034B1B68D3F8BD
:104C5C00F030019308BD00007802030008B5034B47
:104C6C001B68D3F80031019308BD000078020300E3
:104C7C0008B5034B1B68D3F80431019308BD000041
:104C8C007802030008B5024B1B689B68019308BDB2
:104C9C004802030008B5024B1B681B69019308BD51
:104CAC004802030008B5024B1B685B69019308BD01
:104CBC004802030008B5024B1B685B6C019308BDEE
:104CCC004802030008B5024B1B689B6C019308BD9E
:104CDC004802030008B5024B1B68DB6C019308BD4E
:104CEC004802030008B5024B1B685B6D019308BDBD
:104CFC004802030008B5024B1B685B69019308BDB1
:104D0C006402030008B5024B1B681B68019308BDC5
:104D1C003C02030008B5024B1B689B68019308BD5D
:104D2C003C02030008B5024B1B68DB68019308BD0D
:104D3C003C02030008B5024B1B681B69019308BDBC
:104D4C003C02030008B5024B1B685B69019308BD6C
:104D5C003C02030008B5024B1B689B69019308BD1C
:104D6C003C02030008B5024B1B68DB69019308BDCC
:104D7C003C02030008B5024B1B681B6A019308BD7B
:104D8C003C02030008B5024B1B689B6A019308BDEB
:104D9C003C02030008B5024B1B68DB6A019308BD9B
:104DAC003C02030008B5024B1B681B6A019308BD4B
:104DBC002802030008B5024B1B685B6A019308BD0F
:104DCC002802030008B5024B1B689B6A019308BDBF
:104DDC002802030008B5024B1B68DB6A019308BD6F
:104DEC002802030008B5024B1B681B6B019308BD1E
:104DFC002802030008B5024B1B685B6B019308BDCE
:104E0C002802030008B5024B1B681B6C019308BDFC
:104E1C002802030008B5024B1B685B68019308BDB0
:104E2C005802030008B5024B1B681B68019308BDB0
:104E3C004C02030008B5024B1B685B68019308BD6C
:104E4C004C02030008B5024B1B689B68019308BD1C
:104E5C004C02030008B5024B1B681B69019308BD8B
:104E6C004C02030008B5024B1B685B69019308BD3B
:104E7C004C02030008B5024B1B689B69019308BDEB
:104E8C004C02030008B5024B1B68DB69019308BD9B
:104E9C004C02030008B5024B1B681B6A019308BD4A
:104EAC004C02030008B5024B1B685B6B019308BDF9
:104EBC006002030008B5024B1B681B6D019308BD13
:104ECC006002030008B5024B1B685B6D019308BDC3
:104EDC006002030008B5024B1B68DB6E019308BD32
:104EEC006002030008B5024B1B681B6F019308BDE1
:104EFC006002030008B5024B1B681B68019308BDD8
:104F0C002002030008B5024B1B685B68019308BDC7
:104F1C002002030008B5024B1B685B69019308BDB6
:104F2C002002030008B5024B1B689B6D019308BD62
:104F3C002002030008B5034B1B68D3F8883001939B
:104F4C0008BD00002002030008B5034B1B68D3F812
:104F5C009430019308BD00002002030008B5024BF9
:104F6C001B685B68019308BD4002030008B5024B47
:104F7C001B689B68019308BD4002030008B5024BF7
:104F8C001B68DB68019308BD4002030008B5024BA7
:104F9C001B681B69019308BD4002030008B5024B56
:104FAC001B685B69019308BD4002030008B5024B06
:104FBC001B689B69019308BD4002030008B5024BB6
:104FCC001B68DB69019308BD4002030008B5024B66
:104FDC001B681B6A019308BD4002030008B5024B15
:104FEC001B681B6B019308BD4002030008B5024B04
:104FFC001B685B6B019308BD4002030008B5024BB4
:10500C001B689B68019308BD4402030008B5024B62
:10501C001B685B69019308BD4402030008B5024B91
:10502C001B681B6B019308BD4402030008B5024BBF
:10503C001B68DB6B019308BD4402030008B5024BEF
:10504C001B681B68019308BD1C02030008B5024BCA
:10505C001B685B68019308BD1C02030008B5024B7A
:10506C001B689B68019308BD1C02030008B5024B2A
:10507C001B68DB68019308BD1C02030008B5024BDA
:10508C001B685B6A019308BD1C02030000221146D9
:10509C004068FFF79BBF002211464068FFF7A6BF90
:1050AC0000224068FFF79ABF002281F0010140689E
:1050BC00FFF784BF00231A4619464068FFF776BFF6
:1050CC0000231A4619464068FFF768BF00221146B4
:1050DC004068FFF75BBF002211464068FFF746BFF0
:1050EC00002202214068FFF749BF00231A4640689E
:1050FC00FFF734BF024B03225A60024A1A60704712
:10510C0090E3032088890D0010B504460170084611
:10511C00FFF706FD00236360204610BD0078FFF703
:10512C0007BD000010B5094C00204FF6FF7320603E
:10513C00A080A07120816381FFF7E4FE2046044A21
:10514C000449BDE8104003F039B800BF98E30320D0
:10515C00ECE20320D3400D00002303604360836026
:10516C00037310B50C6804604C6844608C688460F0
:10517C000B604B608B6010BD10B504460068FFF7E8
:10518C0065FF204610BD10B50446006808B1FFF756
:10519C005DFF00232360A360636010BD38B5044637
:1051AC000D4600680131FFF759FF10B184E821006A
:1051BC00012038BD10B50368044613B143688B4217
:1051CC0007D22046FFF7EAFF20B1A3680BB922688B
:1051DC001370012010BD70B50E46114604461546DD
:1051EC00FFF7E8FF18B92046FFF7CDFF09E02A4684
:1051FC003146A560206803F068F92268A368002195
:10520C00D154204670BD38B500230446036043607A
:10521C00836003730D4639B1084603F0CFF9294674
:10522C0002462046FFF7D7FF204638BD884210B50E
:10523C000B46044607D0096819B19A68FFF7CBFFF3
:10524C0001E0FFF7A0FF204610BD10B50023044677
:10525C000360436083600373FFF7E8FF204610BDD3
:10526C0038B505460C4641B1084603F0A7F921466E
:10527C0002462846FFF7AFFF01E0FFF784FF284600
:10528C0038BD70470020704770470020704770474A
:10529C000020704710B51421044602F09DFF2046F3
:1052AC0010BD10B51421044602F096FF204610BD27
:1052BC0010B51421044602F08FFF204610BDFEF7F6
:1052CC00E6BEFEF7E4BEFEF7E2BE10B5044600688B
:1052DC0008B1FFF7F7FC204610BD000008B50A2006
:1052EC00024A0021FFF7DEFD08BD00BF5D4B0D003B
:1052FC0010B5036804469B689847A368013BA360FC
:10530C002BB923682046DB68BDE81040184710BD58
:10531C00A0F13003DAB2092A01D818467047A0F17F
:10532C006103052B01D857387047A0F14103052BB9
:10533C0094BF37384FF0FF307047000010B5002392
:10534C000370044B04461868FFF7C4FC0123237058
:10535C00204610BDB0E3032010B5037804461BB102
:10536C00024B1868FFF7BEFC204610BDB0E30320CB
:10537C0008B582798B799A4206D1062203F096F809
:10538C00B0FA80F0400908BD002008BD10B501231B
:10539C000361054B024603F1100153F8044B42F82C
:1053AC00044B8B42F9D110BDB88B0D0010B50B46D8
:1053BC000446B9B1012A09D1034601F1100251F892
:1053CC00040B43F8040B9142F9D108E0411E0F2263
:1053DC00985C01F8010F013AD2B2FF2AF8D10123EF
:1053EC00236102E0102203F096F8204610BD38B578
:1053FC00054614461A46FFF7D9FF2C73240A6C7322
:10540C00284638BD08B502690AB9808903E0102224
:10541C00034903F04BF8003018BF012008BD00BF52
:10542C00B88B0D000069704738B50C46142200216A
:10543C00054603F070F823692BB9627B237B43EAA2
:10544C0002232B800AE001232B7404F110022B465B
:10545C0054F8041B43F8041B9442F9D1284638BD78
:10546C00427B007B40EA02207047704710B50B6905
:10547C00036101F11002034651F8044B43F8044B4D
:10548C009142F9D110BD10B586B00446012201A895
:10549C00FFF78CFF01A92046FFF7E8FF06B010BD0F
:1054AC0008B502690B699A4206D1102202F0FEFF80
:1054BC00B0FA80F0400908BD002008BD0123F7B503
:1054CC000361314B0E460546024603F1100153F8B9
:1054DC00040B42F8040B8B42F9D1002E51D024213D
:1054EC00304603F088F8042810D00027102424211B
:1054FC00304603F080F8B84201D944BB41E02C445B
:10550C000023A5423DD004F8013DFAE73078FFF7BF
:10551C00FFFE041E18DB7078FFF7FAFE002813DB81
:10552C0040EA04108DF80400B078FFF7F1FE041E79
:10553C000ADBF078FFF7ECFE0028A1BF40EA04106C
:10554C009DF8043028736B7300232B6119E0F05D18
:10555C00FFF7DEFE030612D4013C0001285524217E
:10556C00304603F048F80137874208D2F05DFFF768
:10557C00CFFE40B20028A2BF2B5D1843285501373F
:10558C00B5E703B0F0BD00BFB88B0D0038B50446CD
:10559C000D46FFF7FBFE20462946FFF78FFF2046FE
:1055AC0038BDF0B58BB10024E51C8D420FD8661CBC
:1055BC00055D875D974205D12E44B14207D31C602F
:1055CC00681CF0BD01352C44EEE71846F0BD0020F8
:1055DC00F0BD2DE9F74304460E461D461746002A3A
:1055EC003AD00A4601AB016AFFF7DBFF9DF8283081
:1055FC00226A03BBF8B1961C2E44361A1F2E2BD8E8
:10560C00DDF8048008F10209C8EB0202121A00EB63
:10561C00080105EB090092B22144204402F060FF1E
:10562C006B1C04F808302A46394604EB090002F0DA
:10563C004CFF266210E0901C2B181F2B0CD86B1CF7
:10564C00A354224420623946567020442A4602F064
:10565C003CFF226A2A442262206A03B0BDE8F08330
:10566C001FB50446034600F11F02002003F8010B8E
:10567C0093424FF00001F9D104AA062302F8013D30
:10568C0001232162009120461946FFF7A2FF204614
:10569C0004B010BD73B50A460E4601AB016A044650
:1056AC00FFF77FFF054678B10198226A2918121A74
:1056BC00521B2144204402F008FF236A5D1B256223
:1056CC0031462046FFF7E6FF02B070BD38B5002525
:1056DC004FF6FF73044643800E2229460570057170
:1056EC00063002F018FF04F11400FFF74FFE04F12E
:1056FC002800FFF74BFE044904F13C00FFF783FD43
:10570C00E5642565204638BD9C8C0D0010B5836979
:10571C00C26903EBC2029342184606D0046824887F
:10572C008C4203F10803F6D110BD002010BD00001F
:10573C002DE9F34180461F460E4669B362B3F42A45
:10574C00056828BFF42214462A78A2B12B79980751
:10575C0007D500232246A889FFF74EFA002802DA63
:10576C0043E06FF07700D8F800502B79DA0618D5A3
:10577C00012F23D115E068884FF6FF7398420DD0A6
:10578C002B79590723D5012F21D0A98900922346C3
:10579C003246FFF745FA28E0154826E06FF0D100B5
:1057AC0023E09A0621D5022F1FD0A8890023224678
:1057BC00314602B0BDE8F041FFF75ABAA889002380
:1057CC002246314602B0BDE8F041FFF747BA1B074D
:1057DC0001D5022F02D16FF0770006E00023A989D2
:1057EC00009332462346FFF711FA02B0BDE8F08170
:1057FC00F2FEFFFF10B50A6852F8023F03605368CF
:10580C00436010BD1FB502680B6812881B889A4252
:10581C000C460CD101466846FFF7ECFF214602A866
:10582C00FFF7E8FF02A96846FFF7A2FD00B90020C8
:10583C0004B010BD10B504463420FEF726FC01461A
:10584C0068B10023036043608360C36003614361FC
:10585C008361C361036243628362C3620363216039
:10586C0019B90A4A0A20FFF71DFB0020FFF790F92F
:10587C0020B1064A00210A20FFF714FB0022216800
:10588C000348FFF7E1F9204610BD00BF5D4B0D004A
:10589C00C15C0D0010B50A4C2368DB070ED4204602
:1058AC00FEF704FC50B10748FFF7C4FF2046FEF793
:1058BC0002FC054A0549034802F080FC014810BD72
:1058CC00A8E30320A4E30320ECE20320AB5A0D0071
:1058DC0070B50368093B012B8AB004460E4619D8F3
:1058EC00FFF7D8FFA1880068FFF710FF024658B9F0
:1058FC0020230293084B0390009302AA0346074906
:10590C003220FFF7D7FA05E0F56C1DB1336DE16875
:10591C002069A8470AB070BD628A0D00188A0D0074
:10592C0013B501A8FFF70AFD0020FFF731F9044673
:10593C0001A8FFF711FD04EAE47002B010BD08469F
:10594C0009B90A4601E0096A0022FFF729B910B526
:10595C000C4611B90A46084606E001212046FFF71D
:10596C0099FE216A00222046BDE81040FFF720B9BD
:10597C0013B501A8FFF7E2FC0020FFF721F904465C
:10598C0001A8FFF7E9FC204602B010BD73B505462F
:10599C000C4601A81646FFF7D1FC21462846FFF716
:1059AC00CEFF002808DB31462846FFF7D0FF002841
:1059BC0002DB2846FFF7DCFF044601A8FFF7CCFC0E
:1059CC00204602B070BD0368D8690028D4BF0020FF
:1059DC00012070470B68036013B15A6801325A609A
:1059EC00704710B551F8043B044640F8043BFFF7F0
:1059FC00F1FF23680BB9FFF771FC204610BD10B501
:105A0C0051F8043B044640F8043BFFF7E3FF204603
:105A1C0010BD10B50446006828B14368013B4360D3
:105A2C000BB9FFF765FC204610BD10B504460430D9
:105A3C00FFF7EFFF204610BD70B5046843680546BC
:105A4C0004EBC306A64204D0201DFFF7E2FF083486
:105A5C00F8E72868FFF7FAFA284670BD70B50468B5
:105A6C004368054604EBC306A64204D0201DFFF78D
:105A7C00D0FF0834F8E72868FFF7E8FA284670BD2D
:105A8C0010B5046904F11800FFF7E8FF04F10C00ED
:105A9C00FFF7D2FF2046BDE81040FEF7F8BAF8B584
:105AAC0004680746C4B1A569E36905EBC306AE42B9
:105ABC0004D0281DFFF7ADFF0835F8E7A069FFF704
:105ACC00C5FA04F10C00FFF7C9FF2046FFF7B4FF3D
:105ADC003421204602F080FB3846F8BD73B5002512
:105AEC000560456006462420FEF7CFFA044678B1DF
:105AFC0003464FF6FF7223F8022BC0F802505D608C
:105B0C008572C572C560056145618561C5610562B7
:105B1C00002314200193FEF7B8FA034628B10122A2
:105B2C0042608260084A0260046102A8726840F810
:105B3C00042D73603460FFF76CFF33680BB9FFF70B
:105B4C00CDFB304602B070BDF4890D0038B50C6841
:105B5C0003689C4205460CD014B163680133636042
:105B6C00286828B14368013B43600BB9FFF7C0FBC1
:105B7C002C60284638BD884270B515461AD990421B
:105B8C0019D2A1F10806511A0439151F44182B1FFC
:105B9C009E4225D0042C07D055F8043C44F8043C14
:105BAC0029462046FFF716FF2846FFF732FF083D2F
:105BBC00083CECE714D00C1D061D231F9D420FD092
:105BCC00042E07D054F8043C46F8043C21463046D9
:105BDC00FFF700FF2046FFF71CFF08340836ECE700
:105BEC0070BD2DE9F041046843680546884604EB16
:105BFC00C307A74218D041462046FFF703FE0646CE
:105C0C0008B90834F5E78CB1201DFFF702FF2B68AB
:105C1C006A6804F1080103EBC2022046FFF7ABFFF0
:105C2C006B68013B6B6002E0002600E026463046C4
:105C3C00BDE8F081F7B5044651F8043B4768009382
:105C4C0001A8FFF7C7FE6668A3689E4214DB013605
:105C5C00002E0BDDF000FFF7F1F9054618B394E8C0
:105C6C00060001EBC202FFF786FF00E0002520686A
:105C7C00FFF7ECF92560A6602668626806EBC7059D
:105C8C0006EBC202294605F10800FFF774FF35B197
:105C9C00009B46F8373001A9281DFFF79BFE63686F
:105CAC0001336360012501A8FFF7B3FE284603B05A
:105CBC00F0BD00002DE9F04104468EB003A80D465E
:105CCC00FFF73CFB2368032B02D0042B42D087E068
:105CDC0004A8FFF703FF049B22891A8062680499C9
:105CEC0052F8083FC1F802305368C1F8063007A8D3
:105CFC00049B069305A9FFF76DFE06A905F1180094
:105D0C00FFF798FF044607A8FFF783FE20230693AE
:105D1C0074B9364B009306AA2346354907943220B2
:105D2C00FFF7C8F8049B21461888FEF751FF0DE0D9
:105D3C00304A0092002306AA2D4907930120FFF751
:105D4C00B9F86B6A13B1E96A04A8984705A8FFF77C
:105D5C0060FE45E021892846FFF7D8FC074600285D
:105D6C003ED00468A369E1694FF6FF72228003EB11
:105D7C00C101994203D053F8080B4280F9E7E66859
:105D8C00236906EBC308B04504D0301DFFF741FE74
:105D9C000836F8E700232361A669E36906EBC3081C
:105DAC00B04504D0301DFFF734FE0836F8E7002369
:105DBC00E361A372E372AB6A13B1296B384698475F
:105DCC0020230D4A069300920023094907930120D2
:105DDC0006AAFFF76FF8394605F11800FFF701FF27
:105DEC0003A8FFF7B9FA0EB0BDE8F0817A8A0D006E
:105DFC00188A0D00A08A0D00BD8A0D008842F8B5E6
:105E0C0006460C46154614D9904213D2A2F1080549
:105E1C006C1AA1F108070444AF4218D01CB12946F2
:105E2C002046FFF7ECFD281DFFF7F3FD083D083C6D
:105E3C00F2E70CD0AC420AD01EB121463046FFF737
:105E4C00DEFD201DFFF7E5FD08340836F2E7F8BD4E
:105E5C0070B50E1E05460BDDF000FFF7EFF804469B
:105E6C0070B195E8060001EBC202FFF7C7FF00E036
:105E7C0000242868FFF7EAF82C60AE60012070BDA2
:105E8C0070BD73B5044645686846FFF7B8FD616898
:105E9C00A368994205DB01312046FFF7D9FF06467E
:105EAC0098B12368626803EBC50503EBC20229466F
:105EBC0005F10800FFF7A2FF1DB169462846FFF760
:105ECC009EFD636801336360012601A8FFF7A1FD05
:105EDC00304602B070BD8842F8B506460C461546F1
:105EEC0014D9904213D2A2F108056C1AA1F108073B
:105EFC000444AF4218D01CB129462046FFF771FD6F
:105F0C00281DFFF786FD083D083CF2E70CD0AC429B
:105F1C000AD01EB121463046FFF763FD201DFFF766
:105F2C0078FD08340836F2E7F8BD70B50E1E05464C
:105F3C000BDDF000FFF782F8044670B195E806001F
:105F4C0001EBC202FFF7C7FF00E000242868FFF74F
:105F5C007DF82C60AE60012070BD70BD73B5044639
:105F6C0045686846FFF73DFD6168A368994205DB0B
:105F7C0001312046FFF7D9FF064698B123686268C5
:105F8C0003EBC50503EBC202294605F10800FFF738
:105F9C00A2FF1DB169462846FFF723FD6368013354
:105FAC006360012601A8FFF734FD304602B070BDD6
:105FBC0010B50446406808B1FEF769F8204610BDDC
:105FCC0007B503690C308DE8090003F13C00FFF7BD
:105FDC00D3F86846FFF7ECFF03B05DF804FB000054
:105FEC0038B500230446036014200D46FEF74DF827
:105FFC0028B1012343608360024B0360056120607C
:10600C00204638BDBC890D002DE9F04188B005460D
:10601C001E46542000230F46904604930593FEF72A
:10602C0034F8CDF818D004460790C0B198F8008029
:10603C00FFF74CFB394604F13C0084F80480FFF771
:10604C000FF90F9BE3643146109B236504F1140098
:10605C00FFF70CFA0E9904F12800FFF707FA214616
:10606C00002601AB02AA03A80796FFF7B9FF039B12
:10607C00059A039203A805930494FFF7CAFC06A89B
:10608C00FFF796FF049B2968059A2B6008A86B689C
:10609C0006916A6040F8043D05960496FFF7B9FC3A
:1060AC0005A8FFF7B6FC296819B9034A0A20FEF7C0
:1060BC00F9FE08B0BDE8F0815D4B0D0010B504464B
:1060CC00406808B1FDF7E3FF204610BD07B5036932
:1060DC000C308DE809006846FFF7F0FF03B05DF85F
:1060EC0004FB000038B500230446036014200D4661
:1060FC00FDF7CBFF28B1012343608360024B0360A3
:10610C0005612060204638BDD8890D00F0B5002609
:10611C0087B006604660044618200F46FDF7B5FFB1
:10612C00CDF810D00546059038B1FFF72FF9394658
:10613C002846AE82EE82FFF799F900232946059393
:10614C0002AA01AB03A8FFF7CDFF039B6268256091
:10615C00636003A80392FFF75CFC04A8FFF7AEFF93
:10616C0023680BB9FFF7BAF8204607B0F0BD000062
:10617C002DE9F04F1746A1B080460AA80E46FFF74E
:10618C00DDF83C682379002B00F0DE803368DD6895
:10619C001B6905EBC303039304F1140A04F1280BE8
:1061AC00039BAB4223D0D5F80090504609F1140163
:1061BC00FFF776F9002800F0CC8009F12801584649
:1061CC00FFF76EF9002800F0C480236823F47F41A8
:1061DC00D9F8003023F47F43994240F0BA80202351
:1061EC00604A159300230092169315AAA8E004F1B7
:1061FC0028094846FFF706F918B95B494846FFF7E6
:10620C0042F933681D685B6805EBC30A554549467E
:10621C0005D02868FFF744F958BB0835F6E70BA8FA
:10622C00FFF774FF494615A8FFF7FEF80B9A0023F9
:10623C00143215A90120FEF7D5FC002878D1356859
:10624C000BA90DA8FFF7DBFB28460DA9FFF719FEDC
:10625C0005460EA8FFF7DDFB002D69D032685568A6
:10626C0005F100531568013B0CA805EBC305FFF7BE
:10627C00D0FB04F114094846FFF7C4F868B93B4B4E
:10628C0039491A88013292B21A8015A80123FFF7F6
:10629C00AEF815A94846FFF7E9F84FF02C0A52461C
:1062AC00002115A802F037F90123494604A8ADF8DE
:1062BC005430ADF856A0FFF7B7F804AB18AA0DF19F
:1062CC00200C186859689646AEE8030008336345FD
:1062DC007246F6D11868CEF8000023798DF8583044
:1062EC002B689B8AADF87430E36B17930022204B1C
:1062FC001E93A11D15A81F94FEF79CFC20BB012327
:10630C002370346839460C340DA8FFF76AFB20461D
:10631C000DA9FFF723FE04460EA8FFF77AFB9CB9E4
:10632C0020230D93134B00930E9423460DAA07E0E4
:10633C0039464046FFF755FB0CA8FFF76AFB0AE00D
:10634C000D493220FEF7B6FD39464046FFF749FBB2
:10635C0001E0083524E70AA8FEF7FEFF404621B00D
:10636C00BDE8F08F8D8B0D00088A0D00ACE3032087
:10637C00DD580D00668B0D00188A0D0010B5064C0B
:10638C00002320462360FEF795FC2046034A04496F
:10639C00BDE8104001F012BFB0E30320ECE2032093
:1063AC00D7520D00F8B506460D468F180024BD4295
:1063BC000CD0336815F8011B9B68304698470028B1
:1063CC0001DB0444F3E7002C08BF04462046F8BD6B
:1063DC0070B505460C46084649B102F0EFF82B683B
:1063EC00024621462846DB68BDE87040184770BD60
:1063FC0003689B68184738B50D210546FFF7F8FF71
:10640C000A2104462846FFF7F3FF204438BD30B577
:10641C008BB00B4600218DF82410012A98BF0A225C
:10642C000DF12304B3FBF2F505FB123303F0FF036C
:10643C00092B94BF30333733DBB2214604F80139D2
:10644C002B46002DEED1FFF7C3FF0BB030BD0CB4C3
:10645C002DE9F04387B000AF07F13804054654F836
:10646C00049B3C600E4623464A461421381DFEF719
:10647C0005FE132805D8391D2846FFF7A9FF044649
:10648C0013E000F1080323F00703E846ADEB030D1E
:10649C00411C23464A4668463C60FEF7EFFD6946C0
:1064AC002846FFF795FF0446C5461EB12846FFF760
:1064BC00A2FF044420461C37BD46BDE8F04302B0A1
:1064CC00704780680368DB681847704719B10B6820
:1064DC0008465B681847704719B10B6808465B683B
:1064EC001847704770477047704738B504460D46DB
:1064FC0000682E2102F04EF82368C31A2B6023B1DA
:10650C00037803B1013023682060184638BD10B5FC
:10651C000C21044601F060FE204610BD10B504218C
:10652C00044601F059FE204610BD10B50421044666
:10653C0001F052FE204610BD38B50C46054601F060
:10654C003BF984420DD001F0C7F9844205D101F02A
:10655C00C3F9BDE8384001F0B8B921462846FFF729
:10656C00BBFF38BD08B502F01FF8B0FA80F0400947
:10657C0008BD38B5054608460C4602F01FF8214602
:10658C0002462846BDE8384001F011BD0068FEF710
:10659C00A1BB70B5044608460D4602F00FF82368FF
:1065AC00024629462046DB68BDE87040184713B503
:1065BC0002AB026803F8011DD46819460122A047FA
:1065CC0002B010BD2DE9F04F4568076885B09146C3
:1065DC00142255430193AB10194D02925D438B4627
:1065EC003C460123002D039323DD029B6E1003FB1D
:1065FC0006F004EB00084A46B8F804A02058D14530
:10660C0028BF5246594601F0E1FF039B48B9D145DA
:10661C0003D1019A13703546E4E78CBF01200020AA
:10662C0000E0C00F0028F6D0AE1B08F11404013EA8
:10663C00F1E7E41B0248A410604305B0BDE8F08FFD
:10664C00CDCCCCCCF0B585B003690191067E13B3EB
:10665C0009B304AF002347F8043D00F10C041D46B8
:10666C00394601A8FFF741FF0146A0B104AB039ADC
:10667C0003F8055D2046FFF7A5FF9DF80B3053B1DD
:10668C002368142404FB0034083434F9023C002B36
:10669C00A8BFDEB2E4E7304605B0F0BD10B5094C3A
:1066AC002368DB070BD42046FDF700FD38B12046EC
:1066BC00FDF701FD044A0549054801F07FFD04483A
:1066CC0010BD00BFB4E30320ECE20320F3640D0023
:1066DC007CE2032010B5094C2368DB070BD4204661
:1066EC00FDF7E4FC38B12046FDF7E5FC044A05490A
:1066FC00054801F063FD044810BD00BFE4E303202E
:10670C00ECE20320F1640D0078E2032038B500259B
:10671C00044605604560856005614561856140F80A
:10672C00245FFEF7C7FAFFF7B9FFE061FFF7D2FF6E
:10673C0025732062204638BD10B50A4C2368DB0750
:10674C000ED42046FDF7B2FC50B10748FFF7DEFF30
:10675C002046FDF7B0FC054A0549034801F02EFD23
:10676C00014810BDB8E30320BCE30320ECE2032096
:10677C00AF6B0D000023024A02490348FEF7B2BB7F
:10678C00916A0D00216A0D00A9690D0000231A46BB
:10679C0019461846FEF7A6BB73B502AC8E6851F8C5
:1067AC00043B44F8083D054601A8FFF713F92246BF
:1067BC003146284601F032FC01A8FFF72AF9284699
:1067CC0002B070BD73B502AC0E6951F8043B44F8CD
:1067DC00083D054601A8FFF7FDF82246314628463C
:1067EC0001F037FC01A8FFF714F9284602B070BD80
:1067FC0073B502ACCE6851F8043B44F8083D05462D
:10680C0001A8FFF7E7F822463146284601F0DEFBE7
:10681C0001A8FFF7FEF8284602B070BD30B58BB06A
:10682C000D46014604A8FFF7B7FF04A801F001FBD1
:10683C00E8B104A96846FFF7DBFF0F490298FFF7A0
:10684C0091FE044610B12C1C18BF012401A8FFF7BF
:10685C00E0F8002CE9D004A96846FFF7B3FF6846BE
:10686C0001F0C7FA286001A8FFF7D3F8DDE705A807
:10687C00FFF7CFF80BB030BDF88B0D0037B50C46D9
:10688C0020461349154601F08FFE40B900F094FFE5
:10689C004FF4165100F080FF00F08EFF15E00D490B
:1068AC00204601F081FE78B902A94FF4165341F845
:1068BC00043D2846FFF7B2FF01F00EF8019901F0F4
:1068CC0001F801F009F800E0002003B030BD00BF72
:1068DC00FD8B0D00048C0D0070B504684368142604
:1068EC00054606FB0346A64205D004F10800FFF757
:1068FC00F3FF1434F7E72868FEF7A8FB284670BDB1
:10690C0070B504684368054604EB0316A64204D030
:10691C002046FEF731FC1034F8E72868FEF796FBAA
:10692C00284670BD10B504460C30FFF7D5FF204645
:10693C00FFF7E6FF204610BD10B5044B044640F8A7
:10694C00043BFFF7EFFF204610BD00BF7C870D0016
:10695C0010B50446FFF7F0FF2046242101F03CFC63
:10696C00204610BD10B5034B03600446FFF7E4FF4F
:10697C00204610BDE88B0D0010B50446FFF7F2FF62
:10698C002046242101F028FC204610BD10B50368D8
:10699C0004461868FEF7A6F9204610BD2DE9F04F05
:1069AC009B461B4B5B68C3F3080385B082460E46BF
:1069BC00904653BBFFF7C0FE044624300390FFF70C
:1069CC00E5FD237BF3B90123237325686368F6B2D5
:1069DC0005EB83094D4513D055F8047B4146381D12
:1069EC00FFF730FE8642F5D33B68CDF800B09B68CC
:1069FC009E4638464346324651467746B847E9E705
:106A0C000023237303A8FFF7C1FF05B0BDE8F08F87
:106A1C0000ED00E02DE9F74F9946194B5B68C3F385
:106A2C00080307468846164633BBFFF785FE044627
:106A3C0024300190FFF7AAFD237BD3B901232373E4
:106A4C00256863685FFA86FB05EB830A55450ED013
:106A5C0055F8046B4946301DFFF7F4FD8345F5D31B
:106A6C0033684246DB68394630469847EEE70023E8
:106A7C00237301A8FFF78AFF03B0BDE8F08F00BFB6
:106A8C0000ED00E02DE9F341154B5B68C3F30803FF
:106A9C0004468846FBB9FFF74FFE064624300190AA
:106AAC00FFF774FD96E8A000462605EB8707AF427A
:106ABC0007D101A8FFF76AFFB442B4BF0020012040
:106ACC000AE055F8040B41460430FFF7BBFD864243
:106ADC00A8BF0646EBE7002002B0BDE8F08100BF7E
:106AEC0000ED00E070B503684268044603EB8202D7
:106AFC009A4218460ED006680D68AE4203F10403A4
:106B0C00F6D1011D521A01F0EBFC6368013B636086
:106B1C00012070BD002070BD1FB5044624300191CA
:106B2C000390FFF733FD01A92046FFF7DBFF20B9E7
:106B3C0003A8FFF72BFF04B010BD6368002BF7D13F
:106B4C00FFF724FEF4E770B505694369182604467F
:106B5C0006FB0356AE4215D005F110012046FFF797
:106B6C00C1FF63680BB9FFF711FEE069296903687F
:106B7C00DB689847696919B1206A0368DB68984734
:106B8C001835E7E725696369182606FB0356B542F5
:106B9C0004D02846FEF7F0FA1835F8E700236361B5
:106BAC0070BD73B5044602ADFFF7F0FD04F124008F
:106BBC0045F8040DFFF7EAFC2046FFF7C4FF284612
:106BCC00FFF7E4FE606A08B1FEF77CF8256963699B
:106BDC00182606FB0356B54204D02846FEF7CCFA1D
:106BEC001835F8E72069FEF731FA2068FEF72EFA1F
:106BFC00204602B070BD03680A6802600B604368EF
:106C0C004A6842604B6083688A6882608B60704718
:106C1C0010B500230446036043608360FFF7EBFF6D
:106C2C00204610BD8842F8B50446164625D9904238
:106C3C0024D2551A143D2C44A1F11407A2F10C05D1
:106C4C000026A5F108039F4237D084B155F8083CC3
:106C5C00236035F8043CA38035F9023CE380A66040
:106C6C00E6602661294604F10800FFF7C4FF2846B8
:106C7C00FFF732FE143C143DE3E71ED001F108058A
:106C8C000027A5F108039E4217D084B155F8083CA3
:106C9C00236035F8043CA38035F9023CE380A760FF
:106CAC00E7602761294604F10800FFF7A4FF284696
:106CBC00FFF712FE14341435E3E7F8BDF8B5456858
:106CCC0083689D4204460E4617460EDB0135002DA7
:106CDC0005DDA9000068FEF7C1F920B9F8BD006810
:106CEC00FEF7B4F900202060A5602568626805EB0A
:106CFC00860105EB8202521A081D01F0F1FB45F8E2
:106D0C0026706368013363600120F8BD37B5044613
:106D1C0024300D460190FFF739FC2368616803EBC2
:106D2C00810083421A4609D01268AA4203F1040377
:106D3C00F7D101A8FFF72AFE00250EE02A462046CF
:106D4C00FFF7BCFF05460028F3D06368012B01D187
:106D5C00FFF710FD01A8FFF719FE284603B030BD60
:106D6C008842F8B506460C46154614D9904213D203
:106D7C00A2F110056C1AA1F110070444AF4218D00F
:106D8C001CB129462046FEF7E7F92846FEF7F4F930
:106D9C00103D103CF2E70CD0AC420AD01EB121469B
:106DAC003046FEF7D9F92046FEF7E6F910341036D6
:106DBC00F2E7F8BD70B50E1E05460BDD3001FEF78F
:106DCC003DF9044670B195E8060001EB0212FFF79D
:106DDC00C7FF00E000242868FEF738F92C60AE608D
:106DEC00012070BD70BD2DE9F04F002395B0924687
:106DFC004622036043608360C36003614361027693
:106E0C000291DAF8041008939942054609930A9303
:106E1C0040F39D8008A8FFF7CDFF002840F0978035
:106E2C008EE021460BA8FEF797F90BA90FA8099E37
:106E3C00FEF792F909990A9B9942C0F2CE80013172
:106E4C0008A8FFF7B7FF002840F0C7800FA8FEF78F
:106E5C0093F90BA8FEF790F91434A742E1D1002660
:106E6C000B960C960D96B146099B9E4280F2A8801B
:106E7C003301089AD3580693002B00F09F801423FB
:106E8C007343CDF81C9001930BAC07A906A8FFF730
:106E9C002CFB0746002800F0918014AB014603F848
:106EAC00399D079A2046FFF78DFB9DF817800090BF
:106EBC00B8F1000F53D1BDF81C30ADF840304FF68F
:106ECC00FF730F97ADF84230CDF84480CDF8488071
:106EDC00CDF84C806768A3689F424FDA009BD4F8CA
:106EEC0000B06168142253430BEB030702FB01B2A1
:106EFC0007F1140039460393FFF794FEA7B1039BE7
:106F0C000F9A4BF80320BDF84030BB80BDF94230DE
:106F1C00FB80C7F80890C7F80C90C7F8109011A91F
:106F2C0007F10800FFF767FE63680133636011A87F
:106F3C00FFF7D2FCB8F1000F11D00BA8FFF7CCFC77
:106F4C0008A8FFF7DDFC284615B0BDE8F08FDAF88D
:106F5C000040DAF80430142707FB03477DE7236869
:106F6C00009A142404FB0234069B1B7823BBDAF82A
:106F7C000030019A13441B7CE3801DE00137002F85
:106F8C000FDD142303FB07F00393FEF757F883463A
:106F9C0078B194E80600039B03FB0212FFF742FE54
:106FAC0000E0C3462068FEF751F8C4F800B0A760B3
:106FBC0094E74FF00108BAE7083466E7013653E767
:106FCC0008A92846FFF717FE0BA905F10C00FFF7DF
:106FDC0012FE9DF808302B76AFE7089B099A03EB5D
:106FEC00061603EB0212314606F11000FFF7B8FE4D
:106FFC001EB10FA93046FEF7AFF8099B0133099378
:10700C0024E700007FB50446094B44F8043B0546D1
:10701C000E4601A81146FDF7BCFA01AA31462046DE
:10702C00FFF7E1FE01A8FDF751FA284604B070BD48
:10703C007C870D00F0B50F468BB02B49109C384661
:10704C0016461D4601F0B0FA28BB002C49D0294643
:10705C0001A8FFF7DDFD2549242001F0C1F8054604
:10706C00B8B101A904A8FFF7D3FD04A907A8FDF73F
:10707C0090FA07AA31462846FFF7C4FF07A8FDF788
:10708C0025FA1B4B2B602C6204A8FDF71FFA194B39
:10709C002B6001A81FE01849384601F085FAF0B9B9
:1070AC00FCB1294604A8FFF7B3FD1049242001F0D8
:1070BC0097F8054670B104A907A8FDF76AFA07AA64
:1070CC0031462846FFF79EFF07A8FDF7FFF9084B4E
:1070DC002B602C6204A8FDF7F9F9284602E0002089
:1070EC0000E020460BB0F0BD538C0D00A38E0D00BC
:1070FC00DC8C0D00E88B0D00578C0D00014B024A07
:10710C001A607047E8E30320688C0D002DE9F04706
:10711C00089DD0F8209004460E461746984600F07D
:10712C004BFB814505D15A4800F069FD002840F021
:10713C00AC802B791B0705D56B69564A206A002158
:10714C00FFF785F9B8F1000F0DD05B212046FFF752
:10715C002EFA41462046FFF71CFA23684E49DB689D
:10716C000222204698472B79D90725D5D5F80880D7
:10717C002F21404601F04BFA08B100F101084146BD
:10718C002046FFF706FA2B799A0709D53A212046B3
:10719C00FFF70DFAEB68414A206A0021FFF757F917
:1071AC002B7913F0040F236818BF3D49DB6808BF27
:1071BC003C490222204698472B795B0718D5296950
:1071CC000A46134613F8010B38B1202801D1194691
:1071DC0001E0282801D01A46F3E72368521ADB682D
:1071EC002046984723683049DB680422204698479C
:1071FC0000213846FDF76EFE01462046FFF7C9F91F
:10720C0023682849DB680222204698471EB1314684
:10721C002046FFF7BEF92B7913F0300F2DD02368E1
:10722C002249DB682046022298472B79D8060BD5D9
:10723C0023681F49DB68072220469847AB691D4A23
:10724C00206A0021FFF703F92B79990611D5DA068C
:10725C0005D523681249DB6802222046984723682B
:10726C001549DB6820460A229847E9692046FFF752
:10727C0090F95D212046FFF79AF923680F49DB68E6
:10728C0020460222BDE8F0471847BDE8F08700BF52
:10729C001CE703206C8C0D00738C0D00768C0D009C
:1072AC00798C0D007E8C0D007C8C0D00818C0D007A
:1072BC00848C0D008C8C0D008F8C0D009A8C0D0025
:1072CC002DE9F04385B0D0F820800C9C06460F4683
:1072DC0091461D4600F070FA804505D14A4800F0F1
:1072EC008EFC002840F08C80336A484A01924FF0A3
:1072FC00000801A803938DF8088000F0C4FD4146F6
:10730C004846FDF7E7FD42498046012201A800F0FE
:10731C003FFE4146FFF72DF93FB13E49012201A83E
:10732C0000F036FE3946FFF724F93DB13A49012207
:10733C0001A800F02DFE2946FFF71BF92379DF0782
:10734C000ED5A5682F21284601F061F900B1451C26
:10735C003249012201A800F01BFE2946FFF709F96A
:10736C0023799D0707D52E49022201A800F010FEB3
:10737C00E16800F095FD2379580716D525692F464D
:10738C003B4613F8012B3AB1202A01D11D4601E0EE
:10739C00282A01D01F46F3E70222224901A800F057
:1073AC00F7FD7A1B294600F002FE2379190707D551
:1073BC001D49012201A800F0EBFD616900F082FD7E
:1073CC002379DA0608D5042218490DEB020000F0E7
:1073DC00DFFDA16900F064FD23799B0607D51449F4
:1073EC00062201A800F0D4FDE169FFF7C2F801A85C
:1073FC0000F033FD306A0F4903680222DB689847BE
:10740C0005B0BDE8F08300BF1CE70320D08B0D0056
:10741C00028C0D00158C0D000F890D0034890D00A8
:10742C009D8C0D00A08C0D00278C0D00A38C0D00E5
:10743C00A88C0D009A8C0D0008B50020FDF7EEFD10
:10744C0028B1FDF7E3FD80F00100C0B208BD0120BA
:10745C0008BD10B50020FDF793FB044668B9FDF795
:10746C0049FD01280BD12046FDF75CFD38B9FFF72B
:10747C00E3FF30B9FDF7C2FDF9E7012010BD002094
:10748C0010BDFFF7D9FF0020FDF77AFB003018BFC5
:10749C00012010BD08B5FFF7DCFFBDE80840FDF783
:1074AC0067BB0000024B1A68024B1A60704700BFA2
:1074BC0080E20320ECE303200021FDF72BBD10B587
:1074CC008368044613B1032201469847204610BD39
:1074DC0010B50446FFF7F3FF204610BD0348044ADD
:1074EC0004490023836000F069BE00BFF0E3032071
:1074FC00ECE20320DD740D0008B50C4B33B100F049
:10750C005BF903681B699847002809DC084B63B1D9
:10751C0000F0E2F903681B699847002803DC08BDFA
:10752C00AFF30080F2E7AFF3008008BD000000006D
:10753C000000000008B5FFF7DFFFFDF711FB014B62
:10754C00186008BD30E703200248034A0349121AA9
:10755C0000F0BBBF00F4032004F4032050900D0096
:10756C0007B5002300931A466FF07701FDF7ECFC8A
:10757C0003B05DF804FB000007B543880A2B08D064
:10758C00502B09D1094B1B683BB103B05DF804EBE0
:10759C001847FFF7E5FF06E0002300931A466FF04B
:1075AC007701FDF7D1FC03B05DF804FB00E4032088
:1075BC0038B5104C104D2368AB42104B0CBF012258
:1075CC0000221A7002D0FFF7BFFF2560FDF7B8FA52
:1075DC00044600F0A9FF0A4B13B12046AFF300801C
:1075EC0000210748FDF722FD00210648BDE8384080
:1075FC00FDF7A0BC00F403201E1C279A04E4032012
:10760C000000000085750D00704710B51821044668
:10761C0000F0E2FD204610BDF0B5037D062B8DB0C9
:10762C000E4600F104074FF0000402D000F10805EB
:10763C0018E00CAD394605F8304D2F232A460A20A8
:10764C00FDF758FB284600F0B9FF33680246DB68AB
:10765C002946304698470FE024B12E213046FEF7DC
:10766C00C7FE044415F8011D0A223046FEF7CFFE72
:10767C00BD420444F0D120460DB0F0BD10B5054B11
:10768C000446112240F8043B002100F044FF204640
:10769C0010BD00BF508D0D000346074A10B543F8CE
:1076AC00042B01F1100251F8044B43F8044B9142A6
:1076BC00F9D10A781A7010BD508D0D0010B59DF8D7
:1076CC00084044EA032343EA024242EA01610423EC
:1076DC004160037510BD37B50D788B784A78C97841
:1076EC0000912946FFF7EAFF03B030BD41747047A3
:1076FC00704708B50021007CFDF7BCFB30EA200088
:10770C0028BF4FF0FF3008BD08B50121007CFDF704
:10771C00B1FB30EA200028BF4FF0FF3008BD08B5A0
:10772C00007CFDF79FFB20EAE07008BD08B5007CEB
:10773C00FDF790FB20EAE07008BD007CFDF7AABBCA
:10774C0010B51421044600F047FD204610BD38B595
:10775C000446007C0D46FDF785FB002801DC607CAF
:10776C0028B12946207CFDF78DFB20EAE07038BD5E
:10777C0010B50446002363604FF47A73A360054B85
:10778C00236001230846217463741146FDF74AFBFC
:10779C00204610BD648D0D000022007CFDF74ABB15
:1077AC00007CFDF74FBB10B514220446002100F0FD
:1077BC00B2FE204610BD000030B50E4D87B001A8BA
:1077CC00FFF7F1FF296811F0010410D12846FCF7EE
:1077DC006DFC60B101AA21460748FFF7C9FF284696
:1077EC00FCF769FC054A0649034800F0E7FC02482F
:1077FC0007B030BD08E403200CE40320ECE20320C6
:10780C00FD760D00FDF77CB9FDF772B97047417438
:10781C00704708B5007CFDF7B5FA20EAE07008BDAA
:10782C0008B5007CFDF786FA20EAE07008BD08B5C3
:10783C00007CFDF78FFA30EA200028BF4FF0FF30B4
:10784C0008BD08B5007CFDF77DFA30EA200028BFA2
:10785C004FF0FF3008BD007CFDF784BA10B5142141
:10786C00044600F0B9FC204610BD70B5457C0446BA
:10787C000E4625B9007CFDF785FA002805DD31465A
:10788C00207CBDE87040FDF74DBA284670BD000065
:10789C0010B5044608461146002262604FF47A7215
:1078AC00A260054A22600122207462741A46FDF718
:1078BC0029FA204610BD00BF948D0D000023007CDA
:1078CC00FDF768BA0022FFF7F9BF007CFDF722BA7A
:1078DC00007CFDF74FBA000038B50C4D296811F04B
:1078EC00010411D12846FCF7E1FB68B1084A094BA9
:1078FC0009482146FFF7CCFF2846FCF7DCFB074A7A
:10790C000749054800F05AFC034838BDB8E4032089
:10791C00BCE4032034E4032020E40320ECE2032045
:10792C0019780D007047F8B5064615460C468F18A9
:10793C00BC4206D0336814F8011B9B68304698474C
:10794C00F6E72846F8BD0022007CFDF72BBA002193
:10795C00007CFDF72FBA0021007CFDF733BA002123
:10796C00007CFDF737BA0021007CFDF73BBA10B55F
:10797C001421044600F030FC204610BD10B504461E
:10798C00002363604FF47A73A360044B21740846A0
:10799C0023601146FDF736FA204610BDC48D0D004C
:1079AC000021007CFDF726BA002211464068FDF745
:1079BC000DBB002211464068FDF718BB0022406841
:1079CC00FDF70CBB002281F001014068FDF7F6BA0F
:1079DC0000231A4601214068FDF7E8BA00231A4635
:1079EC0019464068FDF7DABA002211464068FDF7E7
:1079FC00CDBA002211464068FDF7B8BA0022022128
:107A0C004068FDF7BBBA00231A464068FDF7A6BADA
:107A1C0038B5054688B104684CB1A3681BB1032284
:107A2C002146204698471021204600F0D5FB2846D9
:107A3C001421BDE8384000F0CFBB38BD10B103684D
:107A4C005B681847704710B503680446BBB15868AB
:107A5C00FDF718F978B923685A7C12B95868FDF704
:107A6C0019F923685868FDF71DF920680023236075
:107A7C0028B1FFF7CDFF206808B1FFF7C9FF2046FA
:107A8C0010BD38B50446D0F8C40108B1FCF701FBB1
:107A9C00D4F8C00108B1FDF715F9D4F8BC5135B1D3
:107AAC002846FFF7D0FF0421284600F095FB2068FC
:107ABC0008B1FFF7C3FF204638BD000010B5044BDA
:107ACC00044640F8083BFFF7DCFF204610BD00BF22
:107ADC00EC8D0D0038B50E4C0E4B236000250223A7
:107AEC0004F5E4706360A560C4F8C451C4F8C851CF
:107AFC00FDF7E0F8084BC4F8CC5184F8D051236062
:107B0C002046064A0649BDE8384000F057BB00BF86
:107B1C0040E50320548E0D00EC8D0D00ECE20320AB
:107B2C00C97A0D00002211464068FDF72FBA0022D9
:107B3C0011464068FDF74ABA002211464068FDF72D
:107B4C0055BA00224068FDF749BA002281F00101C4
:107B5C004068FDF733BA00231A4619464068FDF712
:107B6C0025BA00231A4619464068FDF717BA0022B9
:107B7C0011464068FDF7FAB9002202214068FDF772
:107B8C00FDB900231A464068FDF7E8B9024B042200
:107B9C005A60024A1A60704714E70320208E0D00C9
:107BAC0000231A464068FDF7D9B90022022140682B
:107BBC00FDF7E4B9002211464068FDF7D7B9002261
:107BCC0011464068FDF7E2B900231A461946406891
:107BDC00FDF7E4B900231A4619464068FDF7E6B9EB
:107BEC00002281F001014068FDF7E8B900224068ED
:107BFC00FDF7F4B9002211464068FDF7F7B90022F1
:107C0C0011464068FDF7E2B92DE9F043002495B028
:107C1C0016460D460746FFF731FD214620220CA8DB
:107C2C00009400F078FC40230C9321466B460CAA80
:107C3C003046FCF735FF0446002844D102460121AA
:107C4C006868FDF7A3F90221804622466868FDF7B3
:107C5C009DF9009E81462146002E34D0002932D158
:107C6C007368022B02D00A2B09D02AE0B8F1000F5E
:107C7C0027D0716938460431FFF72DFD20E0B9F1AA
:107C8C00000F1ED07469112201A800F044FC0623D9
:107C9C008DF8143001AD04F10803183418685968D4
:107CAC002A4603C20833A3421546F7D101A906A8F8
:107CBC0007ADFFF7F1FC0FCD3C1D0FC42B682370F3
:107CCC000121F669C8E70098FCF7E2FE384615B0CA
:107CDC00BDE8F083024B034A1A6000225A607047D9
:107CEC001CE70320548E0D0000F11002012312F842
:107CFC00101C0129104604D152F8041C03EB41035B
:107D0C0004E0022904BF52F8041C5B18013B02F189
:107D1C001002ECD170470EB42DE9F04187B000AFE2
:107D2C0007F13404054654F8046B7C602346324654
:107D3C00102107F10800FDF7A1F90F2816D900F161
:107D4C00080323F00703E846ADEB030D3246411C54
:107D5C00234668467C60FDF791F9021E04DD2B6812
:107D6C0069469B6828469847C54607E030B12B68A2
:107D7C0002469B6807F10801284698471C37BD4608
:107D8C00BDE8F04103B0704713B502AB026803F8CD
:107D9C00011D946819460122A04702B010BD8368EA
:107DAC00FBB11A78032A1AD8DFE802F00417021D77
:107DBC000520704702685B685268D05C2D2814D08F
:107DCC00A0F13003092B10D9742810D066280ED0DE
:107DDC00A0F16E03584258417047062070470020AE
:107DEC0070471846704704207047032070470220E4
:107DFC00704710B50446FFF7D2FF02280DD016D3FA
:107E0C00042814D82268A36850685B680A220021F1
:107E1C001844BDE8104000F093BC2268A368526877
:107E2C005B68D05CA0F174035842584110BD00202F
:107E3C0010BD10B5436904465BB18068E060013B3E
:107E4C001030A060206163612BB1FFF74DFFA06083
:107E5C0001E0184610BD012010BD10B57D2104466F
:107E6C00FFF792FF01232371204610BD08B503795B
:107E7C00012B02D0022B02D008BD2C2100E03A21AC
:107E8C00FFF782FF08BD10B50446FFF7EFFF204651
:107E9C007B21FFF779FF00232371204610BD0000E2
:107EAC0038B504460D46FFF7E1FF23680449DB684B
:107EBC0020462A46984701232371204638BD00BF2F
:107ECC00768C0D0038B504460D46FFF7CFFF2368BE
:107EDC000449DB6820462A46984701232371204633
:107EEC0038BD00BF3C880D00F8B50D461746222161
:107EFC0004462F44FFF748FF2A462946BA4238D099
:107F0C00164616F8015B222D03D05C2D01D01F2DD7
:107F1C002DD82368521A9B68204698475C2120462E
:107F2C00FFF732FF0C2D19D007D8092D0FD00A2DD1
:107F3C0012D0082D14D162210AE0222D05D05C2D1F
:107F4C0003D00D2D0CD1722102E0294600E07421E2
:107F5C002046FFF719FF09E06E21F9E76621F7E7E4
:107F6C0023680A49DB682A46204698473146324640
:107F7C00C4E7914204D02368521A9D682046A84752
:107F8C0022212046FFF700FFF8BD00BF9D8E0D009B
:107F9C0070B504460D461646FFF768FF204632467C
:107FAC002946FFF7A1FF02232371204670BD70B54F
:107FBC0004460D461646FFF759FF20463246294621
:107FCC00FFF792FF01232371204670BD10B50023EB
:107FDC000446036043601048A060E360D1B10B78A5
:107FEC00032B06D0B3B9136858684B68C35C6E2B6F
:107FFC0008D0136858684B680344A3608B684968C1
:10800C005B1AE3601146204651F8043B40F8043BF0
:10801C00FDF79CFD204610BD9C8C0D00002310B577
:10802C000446036043608360C3600361436171B1C4
:10803C000B78012B0BD101F110038360CB684361EA
:10804C00114651F8043B40F8043BFDF77FFD2046F8
:10805C0010BD002310B5044603604360816031B14C
:10806C00114651F8043B40F8043BFDF76FFD2046E8
:10807C0010BD000070B5184E316811F001050446B2
:10808C000AD13046FCF712F830B129461348FDF7F7
:10809C003BF83046FCF70FF81048FDF73FF828B1D5
:1080AC00A4F10B03022B01D8002070BD00F060F886
:1080BC00FFF776FC08B1012CF6D9FFF70DFCFFF7A2
:1080CC0007FC18B1A4F10903012BEDD9232C8CBFAB
:1080DC000020012070BD00BF24E7032028E7032007
:1080EC00232838B504460D460AD8FF2908D0FFF7D7
:1080FC00C1FF28B129462046BDE83840FCF7E8BC52
:10810C0038BD70B504460D461646FFF7B3FF98B15F
:10811C0002212046FCF7D4FC02280DD12046FCF7A6
:10812C00DFFC012801D0042806D13246294620461E
:10813C00BDE87040FCF7ECBC70BD000070B50446A7
:10814C0014252A46094E002100F0E5F9258020254A
:10815C003146A5602561284600F040F83146606044
:10816C00284600F03BF8E060204670BDA38E0D0061
:10817C0030B50E4D296811F0010487B013D1284693
:10818C00FBF794FF78B101A8FFF7D8FF01AA2146AD
:10819C000748FFF7F3FB2846FBF78DFF054A064916
:1081AC00034800F00BF8024807B030BD34E7032059
:1081BC0038E70320ECE2032031790D000B46014631
:1081CC00184600F065B90000024B1868BFF35F8FCA
:1081DC00704700BF4CE70320FBF759BF00F000B815
:1081EC0010B5002814BF044601242046FCF726FFD6
:1081FC0020B9FFF7E9FF08B18047F6E710BD000092
:10820C00184B1A68D1075CBF01221A60164B1A680A
:10821C00D2075CBF01221A60144B1A68D0075CBFEE
:10822C0001221A60124B1A68D1075CBF01221A6036
:10823C00104B1A68D2075CBF01221A600E4B1A68E9
:10824C00D0075CBF01221A600C4B1A68D1075CBFC7
:10825C0001221A600A4B1A68D2075CBF01221A600D
:10826C00704700BF6CE7032068E7032064E7032036
:10827C0060E703205CE7032058E7032054E7032062
:10828C0050E70320244B1A68D0075CBF01221A6008
:10829C00224B1A68D1075CBF01221A60204B1A6866
:1082AC00D2075CBF01221A601E4B1A68D0075CBF54
:1082BC0001221A601C4B1A68D1075CBF01221A609C
:1082CC001A4B1A68D2075CBF01221A60184B1A6845
:1082DC00D0075CBF01221A60164B1A68D1075CBF2D
:1082EC0001221A60144B1A68D2075CBF01221A6073
:1082FC00124B1A68D0075CBF01221A60104B1A6827
:10830C00D1075CBF01221A600E4B1A68D2075CBF02
:10831C0001221A60704700BF9CE7032098E70320F6
:10832C0094E7032090E703208CE7032088E70320E1
:10833C0084E7032080E703207CE7032078E7032011
:10834C0074E7032070E70320244B1A68D0075CBF46
:10835C0001221A60224B1A68D1075CBF01221A60F5
:10836C00204B1A68D2075CBF01221A601E4B1A6898
:10837C00D0075CBF01221A601C4B1A68D1075CBF86
:10838C0001221A601A4B1A68D2075CBF01221A60CC
:10839C00184B1A68D0075CBF01221A60164B1A687A
:1083AC00D1075CBF01221A60144B1A68D2075CBF5C
:1083BC0001221A60124B1A68D0075CBF01221A60A6
:1083CC00104B1A68D1075CBF01221A600E4B1A6859
:1083DC00D2075CBF01221A60704700BFCCE70320B4
:1083EC00C8E70320C4E70320C0E70320BCE7032051
:1083FC00B8E70320B4E70320B0E70320ACE7032081
:10840C00A8E70320A4E70320A0E70320184B1A6871
:10841C00D1075CBF01221A60164B1A68D2075CBFE9
:10842C0001221A60144B1A68D0075CBF01221A6033
:10843C00124B1A68D1075CBF01221A60104B1A68E4
:10844C00D2075CBF01221A600E4B1A68D0075CBFC2
:10845C0001221A600C4B1A68D1075CBF01221A600A
:10846C000A4B1A68D2075CBF01221A60704700BF22
:10847C00ECE70320E8E70320E4E70320E0E7032030
:10848C00DCE70320D8E70320D4E70320D0E7032060
:10849C0010B5054C13462CB10A4601460220AFF329
:1084AC00008010BD204610BD0000000010B5013941
:1084BC000244904207D010F8013B11F8014FA3423F
:1084CC00F7D0181B10BD002010BD10B5431E0A4478
:1084DC00914204D011F8014B03F8014FF8E710BD9D
:1084EC00884210B501EB020301D8421E0BE0984202
:1084FC00FBD28118D21AD34204D013F8014D01F8E3
:10850C00014DF8E710BD994204D011F8014B02F867
:10851C00014FF8E710BD02440346934202D003F822
:10852C00011BFAE77047000038B5124B1C68A36BAF
:10853C000546D3B91820FCF781FD43F20E33A06336
:10854C0003804AF6CD33438041F2342383804EF2CC
:10855C006D63C3804DF6EC630381052343810B23CC
:10856C00838101220023C0E90423A36B00221D6137
:10857C005A6138BDE8E20320C9B2034610F8012B5A
:10858C001AB19142F9D11846704700290CBF184610
:10859C000020704710B50446FFF7EEFF18B92046CF
:1085AC0000F00CF8204410BD10F8012B11F8013B21
:1085BC00012A28BF9A42F7D0D01A7047034613F805
:1085CC00012B002AFBD1181A0138704730B582B143
:1085DC00451E013915F8013F11F8014FA34206D190
:1085EC00EC431444E04201D0002BF3D11C46181B81
:1085FC0030BD104630BD10B5034601448B4204D04B
:10860C001A785C1C0AB12346F8E7181A10BD38B565
:10861C0003460D4641B1002429461846FFF7ACFF2E
:10862C0030B1431C0446F7E7BDE83840FFF7A4BF60
:10863C00204638BD2DE9F04780464048D0F80090E0
:10864C000F463D4615F8014B09EB0400407800F04D
:10865C00080000F0FF0608B12F46F2E72D2C03D1DD
:10866C00BD1C7C78012603E02B2C04BF7C78BD1C40
:10867C0013B1102B0AD15BE0302C57D1287800F0C5
:10868C00DF0058284DD16C7810230235002E14BF12
:10869C004FF0004C6FF0004C0027BCFBF3FA38464F
:1086AC0003FB1ACC09EB040E9EF801E01EF0040F3C
:1086BC0001D0303C0BE01EF0030E1BD0BEF1010FBD
:1086CC000CBF4FF0370E4FF0570ECEEB0404A34205
:1086DC0010DDB7F1FF3F0AD0504506D801D16445F3
:1086EC0003DC03FB0040012701E04FF0FF3715F8D6
:1086FC00014BD7E77B1C0CD1002E4FF0220314BF8B
:10870C004FF000406FF00040C8F800302AB9BDE8C7
:10871C00F08706B1404272B107B1691E1160BDE825
:10872C00F0873024002BB1D10823AFE70A23ADE743
:10873C00302CA3D0AAE7BDE8F08700BF84E2032069
:10874C0013460A46014602480068FFF773BF00BF94
:10875C00E8E203201D400D0059400D0085400D003E
:10876C0089400D0000000000000000000000000027
:10877C000000000000000000A5400D00C9400D00E5
:10878C000000000000000000E5400D0019410D0044
:10879C0019710D00CB400D0046616E20537461724F
:1087AC0074656421005468652066616E20706F7773
:1087BC00657220686173206265656E207365742034
:1087CC0076696120425420746F20257500537461C2
:1087DC007274206164766572746973696E67005295
:1087EC006561642074656D70657261747572653A4B
:1087FC0020257500526561642068756D6964697423
:10880C00793A202575005265616420637572726532
:10881C006E7420286E6F742063757272656E746C42
:10882C007920696D706C656D656E746564293A208C
:10883C0025750044697374616E6365207472616E92
:10884C00736D69747465642E006E6F7420636F6E43
:10885C006E6563746564207965742E2E2E2000522B
:10886C006561642064697374616E63653A20257573
:10887C000074656D700068756D696400646973746B
:10888C00616E63650063757272656E740066616E0D
:10889C0053706565640032396662613366352D3418
:1088AC006365382D343662632D386437352D373790
:1088BC0038303664623232633331003238323261EE
:1088CC003631302D333264362D343565312D6239E5
:1088DC0066622D323437313338666338646637005C
:1088EC0034356265346135362D343866352D34387F
:1088FC0033632D386262312D6433666565343333EE
:10890C00633233630039396130643266392D316337
:10891C0066612D343262332D623562612D316234E1
:10892C00643433343133393266006263376631383C
:10893C0064392D326334332D343038652D62653211
:10894C00352D3632663430363435393837630037A6
:10895C00353465626635652D636533312D343330BE
:10896C00302D396664352D61386662346565346145
:10897C00383131000000000000000000F7500D00FD
:10898C00ED500D00E3500D00D9500D00CD500D00F1
:10899C00C1500D00B5500D00AD500D00A3500D0091
:1089AC0099500D00157C0D00000000000000000027
:1089BC009B520D00A1520D00CD5F0D00CB520D004E
:1089CC009D520D00000000000000000095520D00AB
:1089DC00AF520D00D9600D00CF520D0097520D0013
:1089EC0000000000000000008F520D00BD520D0071
:1089FC008D5A0D00D3520D0091520D007BE327745C
:108A0C007BF815ACDD49A913000072F57769726922
:108A1C006E672E626C6500537461727420646973A6
:108A2C00636F766572696E672073657276696365CC
:108A3C00732E00537461727420646973636F76656E
:108A4C0072696E67206368617261637465726973C1
:108A5C00746963732E005065657220646576696372
:108A6C0065206973206D697373696E6721004661B7
:108A7C00696C656420746F20617070656E64207021
:108A8C006565722043656E7472616C2064657669ED
:108A9C0063652E00436F6E6E656374656420627946
:108AAC002043656E7472616C206465766963652E13
:108ABC0000446973636F6E6E6563746564206279DC
:108ACC002072656D6F7465206465766963652E0030
:108ADC0043616E6E6F7420616464206E65772070E4
:108AEC00656572206465766963652E004E65772036
:108AFC007065726970686572616C20697320636F50
:108B0C006E6E65637465642E004661696C656420E5
:108B1C00746F20617070656E6420646973636F7626
:108B2C0065726564206368617261637465726973F0
:108B3C007469632E004661696C656420746F2061F2
:108B4C007070656E6420646973636F7665726564BA
:108B5C0020736572766963652E004661696C656485
:108B6C0020746F20617070656E64206C6F63616C33
:108B7C002063686172616374657269737469632ED2
:108B8C00004475706C69636174656420636861721C
:108B9C00616374657269737469632063616E6E6F6F
:108BAC00742062652061646465642E00FB349B5FF5
:108BBC008000008000100000000000000000000099
:108BCC0000000000F5640D001B650D00CF640D0066
:108BDC00237D0D00000000000000000071690D00F5
:108BEC0085690D00CD720D00D7640D00626175644E
:108BFC000053657269616C0053657269616C310078
:108C0C007479706500706172616D00636D640068E9
:108C1C006E64007374726D0066696C74006C766CB3
:108C2C000061646448616E646C65720072656D6F9E
:108C3C00766548616E646C657200656E756D486131
:108C4C006E646C657273004A534F4E537472656157
:108C5C006D4C6F6748616E646C657200617070007A
:108C6C00253031307520005D20002564002C20005B
:108C7C0028293A2000205B00636F6465203D2000AA
:108C8C0025690064657461696C73203D20000D0AD0
:108C9C00006C6E00666E00636F64650064657461E1
:108CAC00696C006E6F6E6500747261636500696E4D
:108CBC00666F007761726E006572726F7200706120
:108CCC006E696300616C6C00000000000000000025
:108CDC0045690D005D690D0019710D00CB400D004B
:108CEC000000000000000000F3640D0029650D0079
:108CFC0041700D00D9640D00000000000000000060
:108D0C00F1640D0037650D0089680D0045650D0097
:108D1C005A00252B3033643A253032750025592DF5
:108D2C00256D2D25645425483A254D3A2553257A31
:108D3C000061736374696D65000000000000000041
:108D4C000000000025760D0015760D0017760D003D
:108D5C000000000000000000FD760D004D770D00B6
:108D6C005B770D00B1630D0039770D00FF760D00B8
:108D7C0015770D0047770D002B770D00F9760D0058
:108D8C00000000000000000019780D0069780D004B
:108D9C0077780D00B1630D002D780D004F780D0024
:108DAC003B780D0063780D001B780D001F780D00CB
:108DBC00000000000000000031790D007B790D00EF
:108DCC0053790D0033790D005B790D0063790D003B
:108DDC006B790D0073790D0000000000000000009D
:108DEC00137A0D00097A0D00FF790D00F5790D004D
:108DFC00E9790D00DD790D00D1790D00C9790D00EF
:108E0C00BF790D00B5790D00157C0D000000000038
:108E1C00000000008F7B0D00857B0D007B7B0D001F
:108E2C00317B0D006F7B0D00637B0D00577B0D00BC
:108E3C004F7B0D00457B0D003B7B0D00157C0D0021
:108E4C000000000000000000AD7B0D00B77B0D00A2
:108E5C00C17B0D00CB7B0D00D57B0D00E17B0D00A4
:108E6C00ED7B0D00F97B0D00017C0D000B7C0D00E2
:108E7C00157C0D00302E300066616C7365007472C9
:108E8C00756500252E2A6C66002567006E756C6C66
:108E9C000075253034780000002020202020202070
:108EAC00202028282828282020202020202020208E
:108EBC00202020202020202020881010101010109E
:108ECC0010101010101010101004040404040404EA
:108EDC000404041010101010101041414141414184
:108EEC000101010101010101010101010101010166
:108EFC000101010110101010101042424242424276
:108F0C000202020202020202020202020202020235
:108F1C0002020202101010102000000000000000DD
:108F2C000000000000000000000000000000000035
:108F3C000000000000000000000000000000000025
:108F4C000000000000000000000000000000000015
:108F5C000000000000000000000000000000000005
:108F6C0000000000000000000000000000000000F5
:108F7C0000000000000000000000000000000000E5
:108F8C0000000000000000000000000000000000D5
:108F9C0000000000000000000000000000000000C5
:108FAC0000000000000000000000000000000000B5
:108FBC0000000000000000000000000000000000A5
:108FCC000000000000000000000000000000000095
:108FDC000000000000000000000000000000000085
:108FEC000000000000000000000000000000000075
:108FFC000000000000000000000000004300000022
:10900C0005460D00554A0D008D4A0D0001510D000D
:10901C0031510D0089630D0009710D00B1740D0003
:10902C00E9740D00E17A0D00997B0D00E17C0D00D7
:10903C000D820D0091820D0055830D0019840D00D9
:04904C000000000020
:04905000000000001C
:10905400C7880D00FFFFFFFFFF0000005B890D00C4
:10906400A2880D0005000000FFFFFFFF11890D001D
:109074006400000036890D00EC880D000C8D0D0095
:10908400F48C0D003D8D0D00A48E0D000000000039
:10909400A88F0D00C88F0D00E88F0D0000000000A0
:1090A40000000000000000000000000008900D0017
:1090B40000000000000000000000000000000000AC
:1090C400000000000000000000000000000000009C
:1090D400000000000000000000000000000000008C
:1090E40000000000000000000000000088E20320EF
:1090F400FFFFFFFF00000102030405060708090A39
:109104000B0C0D0E0F101112131415161718191A33
:089114001B1C1D1E1F2028007A
:04911C00785634123B
:04000003D000401CCD
:00000001FF
