:02000002D0002C
:1040000000400D0008A00D00000006000C00050196
:084010000401E80500000000B6
:0440180068960D0099
:1040200009480A49884208B505D0094A824202D0A7
:10403000121A05F0B8F90748074A0021121A05F0CC
:10404000D8F9014808BD00BF74E20320549F0D0059
:1040500000E3032000E30320F0E7032070B503F042
:104060003DFB074C074BE41AA40800251E46A54259
:1040700004D056F8253098470135F8E770BD00BFE9
:10408000449F0D00049F0D0000F076B808B500F0C5
:10409000EBF9BDE8084003F0E3BA01F057B801F0CE
:1040A0005DB801F05BB8000008B5034A00210C20A0
:1040B00000F068FFFEE700BF314C0D000078B0FA59
:1040C00080F0400970470123037070477047006A11
:1040D0000368DB68184710B50446006808B101F0B2
:1040E0003DF8204610BD00000A4B10B504460360A1
:1040F00002F0A8FB214602F095FD03F0B7FE03F0A5
:10410000A9FE2046044B40F8043B02F091FC2046F7
:1041100010BD00BF9C960D0084960D0010B504469E
:10412000FFF7E2FF2046242104F0D8FB204610BD13
:104130000EB400B58CB00DAA202352F8041B0392D4
:104140008DE8060004930168002304AA1E2005934D
:1041500000F028FF0CB05DF804EB03B070470000DE
:1041600008B5034902780348FFF7E2FF08BD00BF26
:10417000AC960D00E8E3032010B592B012A801221E
:1041800000F83B2D41F6C67100F0B4FE01F01AFCB8
:1041900001F05EFC01F016FC304A014609A802F06D
:1041A0006DF809A801F0C6FC01F00CFC2C4A014690
:1041B00009A802F063F809A801F0BCFC01F002FCB8
:1041C000284A014609A802F059F809A801F0B2FCF2
:1041D00001F0F8FB244A014609A802F04FF809A8AB
:1041E00001F0A8FC01F0EEFB204A014609A802F00C
:1041F00045F809A801F09EFC09A801F0C9FA1C4B7A
:1042000004A8196801F05AFA04A801F0A3F90446B9
:1042100004A844B901F0BCF912AA022322F83A0D0D
:104220000321009406E001F0B8F900230093024650
:104230001023072109A801F064FA0E490E48FFF780
:1042400077FF01F0BFFB002209A901F037FC012133
:10425000042004F0B3FA12B010BD00BF2CE3032019
:1042600064E3032010E3032034E3032024E303206A
:104270007CE20320D6960D00E8E303201FB50B482F
:1042800000F04AFCFDEEC07A0949CDED017A9DF9B6
:10429000044008482246FFF74BFF2246064903A880
:1042A00000F06CFF204604B010BD00BF70E3032097
:1042B000E8960D00E8E3032039970D001FB50B4881
:1042C00000F03CFCFCEEC07A0949CDED017A9DF886
:1042D000044008482246FFF72BFF2246064903A860
:1042E00000F04CFF204604B010BD00BF70E3032077
:1042F000FD960D00E8E3032039970D0038B50468FA
:1043000005467CB16368013B63605BB92368204666
:104310009B689847A368013BA3601BB923682046AC
:10432000DB689847284638BD10B5112086B004F0E8
:104330006FFA84B222461E4903A800F01FFF1D4BEE
:104340001D491B788DF8003003AA3C2304A803F014
:1043500033FB05A8FFF7D2FF204604F06FFD10A342
:10436000D3E9002304F01CFC04F0E0FF80B204F069
:1043700065FD0DA3D3E9002304F0F0FE0F4B0022EE
:1043800004F010FC04F0D2FF84B222460C490D4820
:10439000FFF7CEFE204606B010BD00BFAFF3008091
:1043A0003C84F1D3089B9540E809DC9E46580E40BA
:1043B00039970D000CE303203C970D0000003E40B0
:1043C00042970D00E8E3032010B5122086B004F0F8
:1043D0001FFA84B222461E4903A800F0CFFE1D4BEF
:1043E0001D491B788DF8003003AA3C2304A803F074
:1043F000E3FA05A8FFF782FF204604F01FFD10A393
:10440000D3E9002304F0CCFB04F090FF80B204F069
:1044100015FD0DA3D3E9002304F0A0FE0F4B0022ED
:1044200004F0C0FB04F082FF84B222460C490D4820
:10443000FFF77EFE204606B010BD00BFAFF3008040
:104440003C84F1D3089B9540E809DC9E46580E4019
:1044500039970D000CE3032055970D0000003E40F6
:104460005E970D00E8E3032030B501218FB00420F2
:1044700004F0B5F900F0E4FB474A1368C31AB3F53A
:104480007A7F044615D31060FFF7F8FE8DF8100010
:1044900003F086F8C117CDE9020102AA92E80300F1
:1044A00005AB83E803002422002304A93B4801F064
:1044B000D7F93B4A1368E31AB3F57A7F1BD314602C
:1044C000FFF732FF0546ADF8100003F069F8C11799
:1044D000CDE9020102AA92E8030006AB83E80300DB
:1044E000282204A900232F4801F0BAF92A462E49B0
:1044F0002E48FFF71DFE2E4A1368E31AB3F57A7FA4
:104500001BD31460FFF760FF0546ADF8100003F001
:1045100047F8C117CDE9020102AA92E8030006ABF1
:1045200083E80300282204A90023224801F098F917
:104530002A4621491D48FFF7FBFD204A1368E31A6C
:10454000B3F57A7F22D31460FFF7B8FE0EA90122DB
:1045500001F8310D00231A4801F082F99DF8073067
:104560008DF8103003F01CF8C117CDE9020102AA42
:1045700092E8030005AB83E803002422002304A98A
:104580000F4801F06DF90F4B00221A70642003F000
:1045900019F80FB030BD00BF6CE303202CE30320FB
:1045A00008E3032010E3032074970D00E8E30320E1
:1045B00004E3032034E303207E970D0084E303200B
:1045C00064E303203CE3032070B5046843681426C9
:1045D000054606FB0346A64204D0204600F064FED2
:1045E0001434F8E7286800F0B9FD284670BDF0B52E
:1045F0000E4691B000210446016041600BAD1946A2
:1046000006A8174601F05AF81699284601F056F800
:1046100010AA3B7802F82C3D189B0293179B01933C
:104620002046009506AB314601F074FD204611B0DE
:10463000F0BD8842F8B506460C46154616D990429C
:1046400015D2A2F114056C1AA1F114070444AF426B
:104650001CD02CB12946204600F016FE2B7C23747A
:10466000284600F021FE143D143CF0E70ED0AC4289
:104670000CD02EB12146304600F006FE237C337468
:10468000204600F011FE14341436F0E7F8BD2DE991
:10469000F04100230360436083604E689E420446FD
:1046A0000F4624DD4FF0140808FB06F000F04EFD25
:1046B0000546E0B194E8060008FB0212FFF7B9FFD7
:1046C000206800F04BFD2560A6603E687B6808FB13
:1046D0000368464509D02DB13146284600F04DFE0D
:1046E000337C2B7414361435F3E77B686360204603
:1046F000BDE8F0812DE9F043634B644E644DDFF873
:10470000E49191B000241C7000F03AFA2146062290
:10471000604800F029F94FF6FF7373813460B4806C
:10472000B4713481012000F05DFC2A465A493046BC
:1047300004F0C6F804940594069403F097FB574ED2
:10474000804604A907A8FFF7A2FF374607A90AA8D1
:10475000FFF79DFF524B47F8043B0AA90DA8FFF74E
:1047600096FF0DAA0121384602F0C3FB0DA8FFF702
:104770002BFF0AA8FFF728FF4A4B3360C6F82080BA
:1047800007A8FFF721FF484B336003F06FFB4FF49E
:10479000165103F05BFB02F055F8314602F03CFB8A
:1047A00004A8FFF711FF414F41492A46304604F063
:1047B00087F8029401943B6800933E4B3E4E1B6881
:1047C0003E494FF010080DAA48468DF83480FFF797
:1047D0000EFF2A463146484604F072F802940194CE
:1047E0003B680093DFF80091354B36491B688DF824
:1047F00034800DAA4846FFF7FAFE2A46314648465D
:1048000004F05EF8029401943B680093DFF8DC90BA
:104810002D4B2E491B688DF834800DAA4846FFF7B2
:10482000E6FE2A463146484604F04AF802940194CE
:104830003B6800938DF83480254BDFF8B4801B680B
:1048400024490DAA4046FFF7D2FE2A46314640468B
:1048500004F036F804238DF834301F4B0294019392
:104860003B680093DFF88C801C4B1D491B680DAA28
:104870004046FFF7BCFE2A463146404604F020F889
:1048800011B0BDE8F08300BF0CE3032018E3032060
:1048900000E3032070E30320D7400D0040E3032032
:1048A00084960D00B89B0D009C960D007CE20320C1
:1048B000E9400D0084E20320355B0D008B970D006D
:1048C00080E2032090970D0078E203203C970D00D2
:1048D00074E2032055970D0061410D0088E203202A
:1048E00096970D002CE3032064E3032010E30320DC
:1048F00034E3032024E3032010B503682F2B044680
:1049000004D9074A00210A2000F03CFB23681F2B32
:1049100083BF03F01F03236002484FF0A04010BD87
:10492000314C0D000003005007B502AB43F8040DF5
:104930001846FFF7E1FF019A01239340C0F80835BC
:1049400003B05DF804FB07B502AB43F8040D18464D
:10495000FFF7D2FFD0F81035019823FA00F000F0ED
:10496000010003B05DF804FB027201228171027440
:10497000704700002DE9F74F044600F061F9E36845
:10498000834284BF0023E360237C33B9E368C01A09
:10499000B0F5FA6F01D20120A8E00025554E25742C
:1049A00000F04EF9A3793268E0601B01D11825713F
:1049B000E570A57065702570D05C4B7803F01F031F
:1049C00043EA4010FFF7B0FFFA2002F0FBFD01219F
:1049D000A07903F0F3FEA37932681B01D118D25CF1
:1049E0004B7802A803F01F0343EA421340F8043D4A
:1049F000FFF782FF019B4FF0010808FA03F3C0F8AC
:104A00000C35142002F0DEFD03F056FAA37932686B
:104A10001B01D118D05C4B7803F01F0343EA401010
:104A2000FFF782FF282000F003F92946A07903F060
:104A3000C5FE2F464FF0000BA37932681B01D11839
:104A400012F803A04B7803F01F0343EA4A1A5046BA
:104A5000FFF779FF5046FFF776FF80455FFA8BF945
:104A600008D101200BF1010B00F0E2F8BBF1FF0FC0
:104A7000E2D1D946A37932681B01D11812F803801C
:104A80004B7803F01F0343EA48184046FFF75BFFEB
:104A90004046FFF758FFB9F1FF0F5FFA80F814D0D6
:104AA000032D0ED9EB070CD4FA080137A35C5B0089
:104AB000DBB2A354217A49453CBF43F00103A35420
:104AC000FFB20135EDB2552DB4D103F0F7F9272F20
:104AD0000BD92278637821791344A2781344E278C1
:104AE0001344DBB299423FF456AF002003B0BDE857
:104AF000F08F00BF88E3032010B50446FFF73AFFAC
:104B000028B1A37800EE103AB8EE400A10BD9FED30
:104B1000010A10BD0000C07FFFF7EEBF10B50446CC
:104B2000FFF728FF28B1237800EE103AB8EE400ACC
:104B300010BD9FED010A10BD0000C07FFFF7EEBF62
:104B400008B500F01DF8014B186008BD88E303208C
:104B500008B500F015F8014B186008BD8CE3032080
:104B600008B5024B1B689B68019308BD68020300EF
:104B700008B5024B1B68DB68019308BD680203009F
:104B800008B5024B1B681B68019308BD2C0203008B
:104B900008B5024B1B685B68019308BD2C0203003B
:104BA00008B5024B1B689B68019308BD2C020300EB
:104BB00008B5024B1B68DB68019308BD2C0203009B
:104BC00008B5024B1B681B69019308BD2C0203004A
:104BD00008B5024B1B681B6A019308BD2C02030039
:104BE00008B5024B1B685B6A019308BD2C020300E9
:104BF00008B5024B1B681B6B019308BD2C02030018
:104C000008B5024B1B68DB69019308BD3002030045
:104C100008B5024B1B681B6A019308BD30020300F4
:104C200008B5024B1B685B68019308BD18020300BE
:104C300008B5024B1B68DB68019308BD180203002E
:104C400008B5024B1B685B69019308BD180203009D
:104C500008B5024B1B68DB69019308BD180203000D
:104C600008B5024B1B689B6D019308BD1802030039
:104C700008B5024B1B689B68019308BD78020300CE
:104C800008B5024B1B681B6D019308BD7802030039
:104C900008B5024B1B689B6D019308BD78020300A9
:104CA00008B5024B1B681B6E019308BD7802030018
:104CB00008B5034B1B68D3F89830019308BD00007A
:104CC0007802030008B5034B1B68D3F8A8300193A2
:104CD00008BD00007802030008B5034B1B68D3F839
:104CE000B430019308BD00007802030008B5034BFF
:104CF0001B68D3F8D830019308BD00007802030088
:104D000008B5034B1B68D3F8DC30019308BD0000E5
:104D10007802030008B5034B1B68D3F8EC3001930D
:104D200008BD00007802030008B5034B1B68D3F8E8
:104D3000F030019308BD00007802030008B5034B72
:104D40001B68D3F80031019308BD0000780203000E
:104D500008B5034B1B68D3F80431019308BD00006C
:104D60007802030008B5024B1B689B68019308BDDD
:104D70004802030008B5024B1B681B69019308BD7C
:104D80004802030008B5024B1B685B69019308BD2C
:104D90004802030008B5024B1B685B6C019308BD19
:104DA0004802030008B5024B1B689B6C019308BDC9
:104DB0004802030008B5024B1B68DB6C019308BD79
:104DC0004802030008B5024B1B685B6D019308BDE8
:104DD0004802030008B5024B1B685B69019308BDDC
:104DE0006402030008B5024B1B681B68019308BDF1
:104DF0003C02030008B5024B1B689B68019308BD89
:104E00003C02030008B5024B1B68DB68019308BD38
:104E10003C02030008B5024B1B681B69019308BDE7
:104E20003C02030008B5024B1B685B69019308BD97
:104E30003C02030008B5024B1B689B69019308BD47
:104E40003C02030008B5024B1B68DB69019308BDF7
:104E50003C02030008B5024B1B681B6A019308BDA6
:104E60003C02030008B5024B1B689B6A019308BD16
:104E70003C02030008B5024B1B68DB6A019308BDC6
:104E80003C02030008B5024B1B681B6A019308BD76
:104E90002802030008B5024B1B685B6A019308BD3A
:104EA0002802030008B5024B1B689B6A019308BDEA
:104EB0002802030008B5024B1B68DB6A019308BD9A
:104EC0002802030008B5024B1B681B6B019308BD49
:104ED0002802030008B5024B1B685B6B019308BDF9
:104EE0002802030008B5024B1B681B6C019308BD28
:104EF0002802030008B5024B1B685B68019308BDDC
:104F00005802030008B5024B1B681B68019308BDDB
:104F10004C02030008B5024B1B685B68019308BD97
:104F20004C02030008B5024B1B689B68019308BD47
:104F30004C02030008B5024B1B681B69019308BDB6
:104F40004C02030008B5024B1B685B69019308BD66
:104F50004C02030008B5024B1B689B69019308BD16
:104F60004C02030008B5024B1B68DB69019308BDC6
:104F70004C02030008B5024B1B681B6A019308BD75
:104F80004C02030008B5024B1B685B6B019308BD24
:104F90006002030008B5024B1B681B6D019308BD3E
:104FA0006002030008B5024B1B685B6D019308BDEE
:104FB0006002030008B5024B1B68DB6E019308BD5D
:104FC0006002030008B5024B1B681B6F019308BD0C
:104FD0006002030008B5024B1B681B68019308BD03
:104FE0002002030008B5024B1B685B68019308BDF3
:104FF0002002030008B5024B1B685B69019308BDE2
:105000002002030008B5024B1B68DB6C019308BD4E
:105010002002030008B5024B1B685B6D019308BDBD
:105020002002030008B5024B1B689B6D019308BD6D
:105030002002030008B5034B1B68D3F888300193A6
:1050400008BD00002002030008B5034B1B68D3F81D
:105050009430019308BD00002002030008B5024B04
:105060001B685B68019308BD4002030008B5024B52
:105070001B689B68019308BD4002030008B5024B02
:105080001B68DB68019308BD4002030008B5024BB2
:105090001B681B69019308BD4002030008B5024B61
:1050A0001B685B69019308BD4002030008B5024B11
:1050B0001B689B69019308BD4002030008B5024BC1
:1050C0001B68DB69019308BD4002030008B5024B71
:1050D0001B681B6A019308BD4002030008B5024B20
:1050E0001B681B6B019308BD4002030008B5024B0F
:1050F0001B685B6B019308BD4002030008B5024BBF
:105100001B689B68019308BD4402030008B5024B6D
:105110001B685B69019308BD4402030008B5024B9C
:105120001B681B6A019308BD4402030008B5024BCB
:105130001B681B6B019308BD4402030008B5024BBA
:105140001B68DB6B019308BD4402030008B5024BEA
:105150001B681B68019308BD1C02030008B5024BC5
:105160001B685B68019308BD1C02030008B5024B75
:105170001B689B68019308BD1C02030008B5024B25
:105180001B68DB68019308BD1C02030008B5024BD5
:105190001B685B6A019308BD1C02030008B5024B43
:1051A0001B68DB6A019308BD1C02030008B5024BB3
:1051B0001B681B6B019308BD1C02030000221146F3
:1051C0004068FFF783BF002211464068FFF78EBF9B
:1051D00000224068FFF782BF002281F00101406891
:1051E000FFF76CBF00231A4619464068FFF75EBF01
:1051F00000231A4619464068FFF750BF00221146A7
:105200004068FFF743BF002211464068FFF72EBFFA
:10521000002202214068FFF731BF00231A46406890
:10522000FFF71CBF024B03225A60024A1A60704704
:1052300090E3032064980D0010B504460170084601
:10524000FFF7DEFC00236360204610BD0078FFF707
:10525000DFBC000010B5094C00204FF6FF73206042
:10526000A080A07120816381FFF7BCFE2046044A24
:105270000449BDE8104003F023BB00BF98E30320BE
:1052800000E30320D7400D000023036043608360E8
:10529000037310B50C6804604C6844608C688460CB
:1052A0000B604B608B6010BD10B504460068FFF7C3
:1052B00055FF204610BD10B50446006808B1FFF741
:1052C0004DFF00232360A360636010BD38B5044622
:1052D0000D4600680131FFF749FF10B184E8210055
:1052E000012038BD10B50368044613B143688B42F2
:1052F00007D22046FFF7EAFF20B1A3680BB9226866
:105300001370012010BD70B50E46114604461546B7
:10531000FFF7E8FF18B92046FFF7CDFF09E02A465E
:105320003146A560206804F03EF82268A368002199
:10533000D154204670BD38B5002304460360436055
:10534000836003730D4639B1084604F0C0F829465E
:1053500002462046FFF7D7FF204638BD884210B5E9
:105360000B46044607D0096819B19A68FFF7CBFFCE
:1053700001E0FFF7A0FF204610BD10B50023044652
:105380000360436083600373FFF7E8FF204610BDAE
:1053900038B505460C4641B1084604F098F8214658
:1053A00002462846FFF7AFFF01E0FFF784FF2846DB
:1053B00038BD704700207047704700207047704725
:1053C0000020704710B51421044603F087FA2046E8
:1053D00010BD10B51421044603F080FA204610BD1C
:1053E00010B51421044603F079FA204610BDFEF7EB
:1053F00056BEFEF754BEFEF752BE10B50446006816
:1054000008B1FFF7CFFC204610BD000008B50A2008
:10541000024A0021FFF7B6FD08BD00BF314C0D0068
:1054200010B5036804469B689847A368013BA360D6
:105430002BB923682046DB68BDE81040184710BD33
:10544000A0F13003DAB2092A01D818467047A0F15A
:105450006103052B01D857387047A0F14103052B94
:1054600094BF37384FF0FF307047000010B500236D
:105470000370044B04461868FFF79CFC012323705B
:10548000204610BDB0E3032010B5037804461BB1DD
:10549000024B1868FFF796FC204610BDB0E30320CE
:1054A00008B582798B799A4206D1062203F06CFF07
:1054B000B0FA80F0400908BD002008BD10B50123F6
:1054C0000361054B024603F1100153F8044B42F807
:1054D000044B8B42F9D110BD949A0D0010B50B46C8
:1054E0000446B9B1012A09D1034601F1100251F86D
:1054F000040B43F8040B9142F9D108E0411E0F223E
:10550000985C01F8010F013AD2B2FF2AF8D10123C9
:10551000236102E0102203F06CFF204610BD38B575
:10552000054614461A46FFF7D9FF2C73240A6C73FC
:10553000284638BD08B502690AB9808903E01022FF
:10554000034903F021FF003018BF012008BD00BF50
:10555000949A0D000069704738B50C46142200215A
:10556000054603F046FF23692BB9627B237B43EAA0
:1055700002232B800AE001232B7404F110022B4636
:1055800054F8041B43F8041B9442F9D1284638BD53
:10559000427B007B40EA02207047704710B50B69E0
:1055A000036101F11002034651F8044B43F8044B28
:1055B0009142F9D110BD10B586B00446012201A870
:1055C000FFF78CFF01A92046FFF7E8FF06B010BDEA
:1055D00008B502690B699A4206D1102203F0D4FE85
:1055E000B0FA80F0400908BD002008BD0123F7B5DE
:1055F0000361314B0E460546024603F1100153F894
:10560000040B42F8040B8B42F9D1002E51D0242117
:10561000304603F079FF042810D0002710242421FD
:10562000304603F071FFB84201D944BB41E02C443D
:105630000023A5423DD004F8013DFAE73078FFF79A
:10564000FFFE041E18DB7078FFF7FAFE002813DB5C
:1056500040EA04108DF80400B078FFF7F1FE041E54
:105660000ADBF078FFF7ECFE0028A1BF40EA041047
:105670009DF8043028736B7300232B6119E0F05DF3
:10568000FFF7DEFE030612D4013C00012855242159
:10569000304603F039FF0137874208D2F05DFFF74B
:1056A000CFFE40B20028A2BF2B5D1843285501371A
:1056B000B5E703B0F0BD00BF949A0D0038B50446BD
:1056C0000D46FFF7FBFE20462946FFF78FFF2046D9
:1056D00038BDF0B58BB10024E51C8D420FD8661C97
:1056E000055D875D974205D12E44B14207D31C600A
:1056F000681CF0BD01352C44EEE71846F0BD0020D3
:10570000F0BD2DE9F74304460E461D461746002A14
:105710003AD00A4601AB016AFFF7DBFF9DF828305B
:10572000226A03BBF8B1961C2E44361A1F2E2BD8C2
:10573000DDF8048008F10209C8EB0202121A00EB3E
:10574000080105EB090092B22144204403F036FE23
:105750006B1C04F808302A46394604EB090003F0B4
:1057600022FE266210E0901C2B181F2B0CD86B1CFD
:10577000A354224420623946567020442A4603F03E
:1057800012FE226A2A442262206A03B0BDE8F08336
:105790001FB50446034600F11F02002003F8010B69
:1057A00093424FF00001F9D104AA062302F8013D0B
:1057B00001232162009120461946FFF7A2FF2046EF
:1057C00004B010BD73B50A460E4601AB016A04462B
:1057D000FFF77FFF054678B10198226A2918121A4F
:1057E000521B2144204403F0DEFD236A5D1B256229
:1057F00031462046FFF7E6FF02B070BD38B5002500
:105800004FF6FF73044643800E222946057005714A
:10581000063003F0EEFD04F11400FFF74FFE04F133
:105820002800FFF74BFE044904F13C00FFF783FD1D
:10583000E5642565204638BD789B0D0010B5836969
:10584000C26903EBC2029342184606D0046824885A
:105850008C4203F10803F6D110BD002010BD0000FA
:105860002DE9F34180461F460E4669B362B3F42A20
:10587000056828BFF42214462A78A2B12B7998072C
:1058800007D500232246A889FFF726FA002802DA66
:1058900043E06FF07700D8F800502B79DA0618D57E
:1058A000012F23D115E068884FF6FF7398420DD081
:1058B0002B79590723D5012F21D0A989009223469E
:1058C0003246FFF71DFA28E0154826E06FF0D100B8
:1058D00023E09A0621D5022F1FD0A8890023224653
:1058E000314602B0BDE8F041FFF732BAA889002383
:1058F0002246314602B0BDE8F041FFF71FBA1B0750
:1059000001D5022F02D16FF0770006E00023A989AC
:10591000009332462346FFF7E9F902B0BDE8F08173
:10592000F2FEFFFF10B50A6852F8023F03605368A9
:10593000436010BD1FB502680B6812881B889A422D
:105940000C460CD101466846FFF7ECFF214602A841
:10595000FFF7E8FF02A96846FFF7A2FD00B90020A3
:1059600004B010BD10B504463420FEF796FB014686
:1059700068B10023036043608360C36003614361D7
:105980008361C361036243628362C3620363216014
:1059900019B90A4A0A20FFF7F5FA0020FFF768F95B
:1059A00020B1064A00210A20FFF7ECFA0022216804
:1059B0000348FFF7B9F9204610BD00BF314C0D0078
:1059C000C15D0D0010B50A4C2368DB070ED42046DC
:1059D000FEF774FB50B10748FFF7C4FF2046FEF7FF
:1059E00072FB054A0549034802F06AFF014810BDF1
:1059F000A8E30320A4E3032000E30320A95B0D0038
:105A000070B50368093B012B8AB004460E4619D8CD
:105A1000FFF7D8FFA1880068FFF710FF024658B9CA
:105A200020230293084B0390009302AA03460749E0
:105A30003220FFF7AFFA05E0F56C1DB1336DE16878
:105A40002069A8470AB070BD3E990D00F4980D007A
:105A500013B501A8FFF70AFD0020FFF709F9044676
:105A600001A8FFF711FD04EAE47002B010BD08467A
:105A700009B90A4601E0096A0022FFF701B910B529
:105A80000C4611B90A46084606E001212046FFF7F8
:105A900099FE216A00222046BDE81040FFF7F8B8C1
:105AA00013B501A8FFF7E2FC0020FFF7F9F8044660
:105AB00001A8FFF7E9FC204602B010BD73B505460A
:105AC0000C4601A81646FFF7D1FC21462846FFF7F1
:105AD000CEFF002808DB31462846FFF7D0FF00281C
:105AE00002DB2846FFF7DCFF044601A8FFF7CCFCE9
:105AF000204602B070BD0B68036013B15A680132D2
:105B00005A60704710B551F8043B044640F8043B16
:105B1000FFF7F1FF23680BB9FFF778FC204610BDB3
:105B200010B551F8043B044640F8043BFFF7E3FF8F
:105B3000204610BD10B504460430FEF7DFFB2046BA
:105B400010BD70B504684368054604EBC306A64261
:105B500004D0201DFEF7D2FB0834F8E72868FFF7D1
:105B6000FDFA284670BD70B504684368054604EB2D
:105B7000C306A64204D0201DFEF7C0FB0834F8E798
:105B80002868FFF7EBFA284670BD10B5046904F1E8
:105B90001800FFF7E8FF04F10C00FFF7D2FF2046E2
:105BA000BDE81040FEF77BBAF8B504680746C4B1FB
:105BB000A569E36905EBC306AE4204D0281DFEF7D4
:105BC0009DFB0835F8E7A069FFF7C8FA04F10C005F
:105BD000FFF7C9FF2046FFF7B4FF3421204602F04B
:105BE0007DFE3846F8BD000073B5002505604560B0
:105BF00006462420FEF751FA044678B103464FF6D4
:105C0000FF7223F8022BC0F802505D608572C572E6
:105C1000C560056145618561C56105620023142089
:105C20000193FEF73AFA034628B1012242608260EE
:105C3000084A0260046102A8726840F8042D73608B
:105C40003460FEF75BFB33680BB9FFF7DFFB3046D0
:105C500002B070BDD0980D0038B50C6803689C4246
:105C600005460CD014B1636801336360286828B11D
:105C70004368013B43600BB9FFF7D2FB2C60284619
:105C800038BD884270B515461AD9904219D2A1F193
:105C90000806511A0439151F44182B1F9E4225D09F
:105CA000042C07D055F8043C44F8043C294620460F
:105CB000FFF721FF2846FEF721FB083D083CECE7F3
:105CC00014D00C1D061D231F9D420FD0042E07D09B
:105CD00054F8043C46F8043C21463046FFF70BFFDD
:105CE0002046FEF70BFB08340836ECE770BD2DE9C3
:105CF000F041046843680546884604EBC307A742A1
:105D000018D041462046FFF715FE064608B908346C
:105D1000F5E78CB1201DFEF7F1FA2B686A6804F1F3
:105D2000080103EBC2022046FFF7ABFF6B68013BA3
:105D30006B6002E0002600E026463046BDE8F081B8
:105D4000F7B5044651F8043B4768009301A8FFF7F4
:105D5000D2FE6668A3689E4214DB0136002E0BDD7E
:105D6000F000FFF7F3F9054618B394E8060001EBDD
:105D7000C202FFF786FF00E000252068FFF7EEF97A
:105D80002560A6602668626806EBC70506EBC202BE
:105D9000294605F10800FFF774FF35B1009B46F86E
:105DA000373001A9281DFFF7A6FE63680133636041
:105DB000012501A8FEF7A2FA284603B0F0BD0000B5
:105DC0002DE9F04104468EB003A80D46FFF74EFBC7
:105DD0002368032B02D0042B42D087E004A8FFF7EE
:105DE00003FF049B22891A806268049952F8083FD5
:105DF000C1F802305368C1F8063007A8049B069327
:105E000005A9FFF778FE06A905F11800FFF798FF2E
:105E1000044607A8FEF772FA2023069374B9364B9E
:105E2000009306AA2346354907943220FFF7B2F8BB
:105E3000049B21461888FEF73BFF0DE0304A009294
:105E4000002306AA2D4907930120FFF7A3F86B6AE8
:105E500013B1E96A04A8984705A8FEF74FFA45E090
:105E600021892846FFF7EAFC074600283ED004684F
:105E7000A369E1694FF6FF72228003EBC1019942E9
:105E800003D053F8080B4280F9E7E668236906EB74
:105E9000C308B04504D0301DFEF730FA0836F8E7E5
:105EA00000232361A669E36906EBC308B04504D06B
:105EB000301DFEF723FA0836F8E70023E361A372EA
:105EC000E372AB6A13B1296B3846984720230D4A19
:105ED00006930092002309490793012006AAFFF7C1
:105EE00059F8394605F11800FFF701FF03A8FFF73D
:105EF000CBFA0EB0BDE8F08156990D00F4980D0074
:105F00007C990D0099990D008842F8B506460C461B
:105F1000154614D9904213D2A2F108056C1AA1F1CA
:105F200008070444AF4218D01CB129462046FFF7A9
:105F3000F7FD281DFEF7E2F9083D083CF2E70CD01A
:105F4000AC420AD01EB121463046FFF7E9FD201DC4
:105F5000FEF7D4F908340836F2E7F8BD70B50E1E26
:105F600005460BDDF000FFF7F1F8044670B195E847
:105F7000060001EBC202FFF7C7FF00E0002428681B
:105F8000FFF7ECF82C60AE60012070BD70BD73B5FA
:105F9000044645686846FFF7C3FD6168A3689942F7
:105FA00005DB01312046FFF7D9FF064698B123688B
:105FB000626803EBC50503EBC202294605F1080040
:105FC000FFF7A2FF1DB169462846FFF7A9FD6368E8
:105FD00001336360012601A8FEF790F9304602B054
:105FE00070BD8842F8B506460C46154614D9904255
:105FF00013D2A2F108056C1AA1F108070444AF42BC
:1060000018D01CB129462046FFF77CFD281DFEF75D
:1060100075F9083D083CF2E70CD0AC420AD01EB13D
:1060200021463046FFF76EFD201DFEF767F9083464
:106030000836F2E7F8BD70B50E1E05460BDDF00020
:10604000FFF784F8044670B195E8060001EBC20240
:10605000FFF7C7FF00E000242868FFF77FF82C60F7
:10606000AE60012070BD70BD73B5044645686846DA
:10607000FFF748FD6168A368994205DB01312046BE
:10608000FFF7D9FF064698B12368626803EBC505A0
:1060900003EBC202294605F10800FFF7A2FF1DB17C
:1060A00069462846FFF72EFD6368013363600126C9
:1060B00001A8FEF723F9304602B070BD10B50446C2
:1060C000406808B1FDF7EBFF204610BD07B5036936
:1060D0000C308DE8090003F13C00FFF7E5F8684655
:1060E000FFF7ECFF03B05DF804FB000038B50023B8
:1060F0000446036014200D46FDF7CFFF28B10123AD
:1061000043608360024B036005612060204638BD18
:1061100098980D002DE9F04188B005461E465420A0
:1061200000230F46904604930593FDF7B6FFCDF884
:1061300018D004460790C0B198F80080FFF75EFBC6
:10614000394604F13C0084F80480FFF721F90F9BE5
:10615000E3643146109B236504F11400FFF71EFA37
:106160000E9904F12800FFF719FA2146002601AB29
:1061700002AA03A80796FFF7B9FF039B059A0392AB
:1061800003A805930494FEF7B9F806A8FFF796FF55
:10619000049B2968059A2B6008A86B6806916A60C1
:1061A00040F8043D05960496FEF7A8F805A8FEF70A
:1061B000A5F8296819B9034A0A20FEF7E3FE08B0DA
:1061C000BDE8F081314C0D0010B50446406808B1BF
:1061D000FDF765FF204610BD07B503690C308DE85B
:1061E00009006846FFF7F0FF03B05DF804FB00000C
:1061F00038B500230446036014200D46FDF74DFF1B
:1062000028B1012343608360024B03600561206075
:10621000204638BDB4980D00F0B5002687B0066062
:106220004660044618200F46FDF737FFCDF810D022
:106230000546059038B1FFF741F939462846AE8248
:10624000EE82FFF7ABF900232946059302AA01ABC2
:1062500003A8FFF7CDFF039B62682560636003A876
:106260000392FEF74BF804A8FFF7AEFF23680BB9C3
:10627000FFF7CCF8204607B0F0BD00002DE9F04F45
:106280001746A1B080460AA80E46FFF7EFF83C6813
:106290002379002B00F0DE803368DD681B6905EB95
:1062A000C303039304F1140A04F1280B039BAB42CC
:1062B00023D0D5F80090504609F11401FFF788F972
:1062C000002800F0CC8009F128015846FFF780F93A
:1062D000002800F0C480236823F47F41D9F80030FF
:1062E00023F47F43994240F0BA802023604A1593FB
:1062F00000230092169315AAA8E004F12809484645
:10630000FFF718F918B95B494846FFF754F93368A5
:106310001D685B6805EBC30A5545494605D02868EA
:10632000FFF756F958BB0835F6E70BA8FFF774FFDF
:10633000494615A8FFF710F90B9A0023143215A946
:106340000120FEF7BFFC002878D135680BA90DA805
:10635000FFF7E6FB28460DA9FFF719FE05460EA834
:10636000FDF7CCFF002D69D03268556805F1005368
:106370001568013B0CA805EBC305FDF7BFFF04F151
:1063800014094846FFF7D6F868B93B4B39491A88D3
:10639000013292B21A8015A80123FFF7C0F815A99F
:1063A0004846FFF7FBF84FF02C0A5246002115A88B
:1063B00003F01FF80123494604A8ADF85430ADF8A6
:1063C00056A0FFF7C9F804AB18AA0DF1200C186805
:1063D00059689646AEE80300083363457246F6D125
:1063E0001868CEF8000023798DF858302B689B8A06
:1063F000ADF87430E36B17930022204B1E93A11D60
:1064000015A81F94FEF786FC20BB01232370346877
:1064100039460C340DA8FFF775FB20460DA9FFF790
:1064200023FE04460EA8FDF769FF9CB920230D93B7
:10643000134B00930E9423460DAA07E039464046BD
:10644000FFF760FB0CA8FDF759FF0AE00D49322069
:10645000FEF7A0FD39464046FFF754FB01E0083542
:1064600024E70AA8FFF710F8404621B0BDE8F08FF6
:10647000699A0D00E4980D00ACE30320015A0D0069
:10648000429A0D00F4980D0010B5064C00232046EA
:106490002360FEF77FFC2046034A0449BDE8104014
:1064A00002F00EBAB0E3032000E30320FB530D001B
:1064B000F8B506460D468F180024BD420CD033684F
:1064C00015F8011B9B6830469847002801DB0444FF
:1064D000F3E7002C08BF04462046F8BD70B505461A
:1064E0000C46084649B102F0F2FF2B6802462146ED
:1064F0002846DB68BDE87040184770BD03689B689C
:10650000184738B50D210546FFF7F8FF0A21044664
:106510002846FFF7F3FF204438BD30B58BB00B465B
:1065200000218DF82410012A98BF0A220DF12304BE
:10653000B3FBF2F505FB123303F0FF03092B94BF05
:1065400030333733DBB2214604F801392B46002DB6
:10655000EED1FFF7C3FF0BB030BD0CB42DE9F04313
:1065600087B000AF07F13804054654F8049B3C603F
:106570000E4623464A461421381DFEF707FE13280F
:1065800005D8391D2846FFF7A9FF044613E000F19E
:10659000080323F00703E846ADEB030D411C234637
:1065A0004A4668463C60FEF7F1FD69462846FFF71B
:1065B00095FF0446C5461EB12846FFF7A2FF0444D6
:1065C00020461C37BD46BDE8F04302B070478068E6
:1065D0000368DB681847704719B10B6808465B68A9
:1065E0001847704719B10B6808465B681847704731
:1065F00070477047704738B504460D4600682E2135
:1066000002F036FF2368C31A2B6023B1037803B16D
:10661000013023682060184638BD10B50C210446AF
:1066200002F05CF9204610BD10B50421044602F0CA
:1066300055F9204610BD10B50421044602F04EF96C
:10664000204610BD38B50C46054601F00FFC8442CB
:106650000DD001F09BFC844205D101F097FCBDE810
:10666000384001F08CBC21462846FFF7BBFF38BDFF
:1066700008B502F007FFB0FA80F0400908BD38B550
:10668000054608460C4602F022FF214602462846EF
:10669000BDE8384001F0F9BF0068FEF78BBB70B56C
:1066A000044608460D4602F012FF236802462946BA
:1066B0002046DB68BDE87040184713B502AB02689E
:1066C00003F8011DD46819460122A04702B010BD8D
:1066D0002DE9F04F4568076885B09146142255436F
:1066E0000193AB10194D02925D438B463C4601234A
:1066F000002D039323DD029B6E1003FB06F004EBD9
:1067000000084A46B8F804A02058D14528BF524690
:10671000594602F0E4FE039B48B9D14503D1019AE2
:1067200013703546E4E78CBF0120002000E0C00F65
:106730000028F6D0AE1B08F11404013EF1E7E41B7B
:106740000248A410604305B0BDE8F08FCDCCCCCC9E
:10675000F0B585B003690191067E13B309B304AFA8
:10676000002347F8043D00F10C041D46394601A8FA
:10677000FFF741FF0146A0B104AB039A03F8055DA2
:106780002046FFF7A5FF9DF80B3053B12368142472
:1067900004FB0034083434F9023C002BA8BFDEB2FD
:1067A000E4E7304605B0F0BD10B5094C2368DB07BF
:1067B0000BD42046FDF782FC38B12046FDF783FC60
:1067C000044A0549054802F07BF8044810BD00BFA3
:1067D000B4E3032000E30320F3650D0090E20320FF
:1067E00010B5094C2368DB070BD42046FDF766FC87
:1067F00038B12046FDF767FC044A0549054802F018
:106800005FF8044810BD00BFE4E3032000E3032069
:10681000F1650D008CE2032038B5002504460560C3
:106820004560856005614561856140F8245FFEF73C
:10683000B1FAFFF7B9FFE061FFF7D2FF25732062DD
:10684000204638BD10B50A4C2368DB070ED420461D
:10685000FDF734FC50B10748FFF7DEFF2046FDF797
:1068600032FC054A0549034802F02AF8014810BDE8
:10687000B8E30320BCE3032000E30320AF6C0D006A
:106880000023024A02490348FEF79CBB916B0D00AE
:10689000216B0D00A96A0D0000231A4619461846FF
:1068A000FEF790BB73B502AC8E6851F8043B44F818
:1068B000083D054601A8FFF71EF922463146284645
:1068C00001F01AFF01A8FDF719FD284602B070BDBE
:1068D00073B502AC0E6951F8043B44F8083D054617
:1068E00001A8FFF708F922463146284601F01FFFAC
:1068F00001A8FDF703FD284602B070BD73B502ACD8
:10690000CE6851F8043B44F8083D054601A8FFF75E
:10691000F2F822463146284601F0C6FE01A8FDF7EE
:10692000EDFC284602B070BD30B58BB00D46014677
:1069300004A8FFF7B7FF04A801F0E9FDE8B104A936
:106940006846FFF7DBFF0F490298FFF791FE044608
:1069500010B12C1C18BF012401A8FDF7CFFC002C9E
:10696000E9D004A96846FFF7B3FF684601F0AFFD20
:10697000286001A8FDF7C2FCDDE705A8FDF7BEFC15
:106980000BB030BDD49A0D0037B50C4620461349E4
:10699000154602F077FD40B901F068FA4FF4165140
:1069A00001F054FA01F062FA15E00D49204602F0B8
:1069B00069FD78B902A94FF4165341F8043D284601
:1069C000FFF7B2FF01F0E2FA019901F0D5FA01F008
:1069D000DDFA00E0002003B030BD00BFD99A0D0001
:1069E000E09A0D0070B5046843681426054606FB5E
:1069F0000346A64205D004F10800FFF7F3FF143464
:106A0000F7E72868FEF7AAFB284670BD70B5046852
:106A10004368054604EB0316A64204D02046FEF761
:106A200043FC1034F8E72868FEF798FB284670BD51
:106A300010B504460C30FFF7D5FF2046FFF7E6FF00
:106A4000204610BD10B5044B044640F8043BFFF748
:106A5000EFFF204610BD00BF84960D0010B5044620
:106A6000FFF7F0FF2046242101F038FF204610BD3B
:106A700010B5034B03600446FFF7E4FF204610BD4A
:106A8000C49A0D0010B50446FFF7F2FF20462421FA
:106A900001F024FF204610BD10B5036804461868B5
:106AA000FEF790F9204610BD2DE9F04F9B461B4B99
:106AB0005B68C3F3080385B082460E46904653BB1D
:106AC000FFF7C0FE044624300390FFF7E5FD237B6B
:106AD000F3B90123237325686368F6B205EB8309D4
:106AE0004D4513D055F8047B4146381DFFF730FE65
:106AF0008642F5D33B68CDF800B09B689E46384689
:106B00004346324651467746B847E9E700232373A8
:106B100003A8FFF7C1FF05B0BDE8F08F00ED00E06E
:106B20002DE9F74F9946194B5B68C3F308030746F5
:106B30008846164633BBFFF785FE04462430019095
:106B4000FFF7AAFD237BD3B901232373256863686C
:106B50005FFA86FB05EB830A55450ED055F8046BAA
:106B60004946301DFFF7F4FD8345F5D333684246AF
:106B7000DB68394630469847EEE70023237301A8C7
:106B8000FFF78AFF03B0BDE8F08F00BF00ED00E023
:106B90002DE9F341154B5B68C3F3080304468846AF
:106BA000FBB9FFF74FFE064624300190FFF774FD56
:106BB00096E8A000462605EB8707AF4207D101A85B
:106BC000FFF76AFFB442B4BF002001200AE055F885
:106BD000040B41460430FFF7BBFD8642A8BF0646C2
:106BE000EBE7002002B0BDE8F08100BF00ED00E05F
:106BF00070B503684268044603EB82029A42184665
:106C00000ED006680D68AE4203F10403F6D1011DF3
:106C1000521A02F0D3FB6368013B6360012070BD30
:106C2000002070BD1FB50446243001910390FFF78A
:106C300033FD01A92046FFF7DBFF20B903A8FFF7CA
:106C40002BFF04B010BD6368002BF7D1FFF724FEC3
:106C5000F4E770B5056943691826044606FB035638
:106C6000AE4215D005F110012046FFF7C1FF636861
:106C70000BB9FFF711FEE06929690368DB689847E3
:106C8000696919B1206A0368DB6898471835E7E736
:106C900025696369182606FB0356B54204D02846C9
:106CA000FEF702FB1835F8E70023636170BD73B58A
:106CB000044602ADFFF7F0FD04F1240045F8040D91
:106CC000FFF7EAFC2046FFF7C4FF2846FFF7E4FE83
:106CD000606A08B1FEF766F825696369182606FB45
:106CE0000356B54204D02846FEF7DEFA1835F8E719
:106CF0002069FEF733FA2068FEF730FA204602B02A
:106D000070BD03680A6802600B6043684A684260AD
:106D10004B6083688A6882608B60704710B500237F
:106D20000446036043608360FFF7EBFF204610BD1D
:106D30008842F8B50446164625D9904224D2551A01
:106D4000143D2C44A1F11407A2F10C050026A5F175
:106D500008039F4237D084B155F8083C236035F8CA
:106D6000043CA38035F9023CE380A660E66026611E
:106D7000294604F10800FFF7C4FF2846FFF732FE5A
:106D8000143C143DE3E71ED001F108050027A5F1EE
:106D900008039E4217D084B155F8083C236035F8AB
:106DA000043CA38035F9023CE380A760E7602761DB
:106DB000294604F10800FFF7A4FF2846FFF712FE5A
:106DC00014341435E3E7F8BDF8B5456883689D428F
:106DD00004460E4617460EDB0135002D05DDA900E1
:106DE0000068FEF7C3F920B9F8BD0068FEF7B6F9F0
:106DF00000202060A5602568626805EB860105EB30
:106E00008202521A081D02F0D9FA45F8267063680A
:106E1000013363600120F8BD37B5044624300D46C8
:106E20000190FFF739FC2368616803EB810083421E
:106E30001A4609D01268AA4203F10403F7D101A847
:106E4000FFF72AFE00250EE02A462046FFF7BCFF8A
:106E500005460028F3D06368012B01D1FFF710FD30
:106E600001A8FFF719FE284603B030BD8842F8B5E7
:106E700006460C46154614D9904213D2A2F11005CD
:106E80006C1AA1F110070444AF4218D01CB1294676
:106E90002046FEF7F9F92846FEF706FA103D103CA9
:106EA000F2E70CD0AC420AD01EB121463046FEF7C4
:106EB000EBF92046FEF7F8F910341036F2E7F8BD8A
:106EC00070B50E1E05460BDD3001FEF73FF9044696
:106ED00070B195E8060001EB0212FFF7C7FF00E072
:106EE00000242868FEF73AF92C60AE60012070BDDE
:106EF00070BD2DE9F04F002395B092464622036005
:106F000043608360C3600361436102760291DAF8F3
:106F1000041008939942054609930A9340F39D8013
:106F200008A8FFF7CDFF002840F097808EE02146AB
:106F30000BA8FEF7A9F90BA90FA8099EFEF7A4F963
:106F400009990A9B9942C0F2CE80013108A8FFF747
:106F5000B7FF002840F0C7800FA8FEF7A5F90BA8DF
:106F6000FEF7A2F91434A742E1D100260B960C9645
:106F70000D96B146099B9E4280F2A8803301089A83
:106F8000D3580693002B00F09F8014237343CDF851
:106F90001C9001930BAC07A906A8FFF72CFB074632
:106FA000002800F0918014AB014603F8399D079A40
:106FB0002046FFF78DFB9DF817800090B8F1000F79
:106FC00053D1BDF81C30ADF840304FF6FF730F972A
:106FD000ADF84230CDF84480CDF84880CDF84C80F3
:106FE0006768A3689F424FDA009BD4F800B06168DD
:106FF000142253430BEB030702FB01B207F1140009
:1070000039460393FFF794FEA7B1039B0F9A4BF801
:107010000320BDF84030BB80BDF94230FB80C7F88B
:107020000890C7F80C90C7F8109011A907F1080054
:10703000FFF767FE63680133636011A8FFF7D2FCB6
:10704000B8F1000F11D00BA8FFF7CCFC08A8FFF790
:10705000DDFC284615B0BDE8F08FDAF80040DAF81C
:107060000430142707FB03477DE72368009A1424A4
:1070700004FB0234069B1B7823BBDAF80030019A2C
:1070800013441B7CE3801DE00137002F0FDD142328
:1070900003FB07F00393FEF759F8834678B194E8B1
:1070A0000600039B03FB0212FFF742FE00E0C3460B
:1070B0002068FEF753F8C4F800B0A76094E74FF0DB
:1070C0000108BAE7083466E7013653E708A92846FD
:1070D000FFF717FE0BA905F10C00FFF712FE9DF854
:1070E00008302B76AFE7089B099A03EB061603EBF3
:1070F0000212314606F11000FFF7B8FE1EB10FA9CB
:107100003046FEF7C1F8099B0133099324E70000DC
:107110007FB50446094B44F8043B05460E4601A8DA
:107120001146FDF7B4FA01AA31462046FFF7E1FE09
:1071300001A8FDF749FA284604B070BD84960D00F9
:10714000F0B50F468BB02B49109C384616461D46AD
:1071500002F098F928BB002C49D0294601A8FFF776
:10716000DDFD2549242001F0BDFB0546B8B101A98C
:1071700004A8FFF7D3FD04A907A8FDF788FA07AA1A
:1071800031462846FFF7C4FF07A8FDF71DFA1B4B41
:107190002B602C6204A8FDF717FA194B2B6001A88D
:1071A0001FE01849384602F06DF9F0B9FCB12946E4
:1071B00004A8FFF7B3FD1049242001F093FB054616
:1071C00070B104A907A8FDF762FA07AA314628465C
:1071D000FFF79EFF07A8FDF7F7F9084B2B602C621D
:1071E00004A8FDF7F1F9284602E0002000E020465F
:1071F0000BB0F0BD2F9B0D009B9D0D00B89B0D00AB
:10720000C49A0D00339B0D00014B024A1A6070476F
:10721000E8E30320449B0D002DE9F047089DD0F8DA
:10722000209004460E461746984600F01FFE814502
:1072300005D15A4801F051F8002840F0AC802B7974
:107240001B0705D56B69564A206A0021FFF785F9AF
:10725000B8F1000F0DD05B212046FFF72EFA414612
:107260002046FFF71CFA23684E49DB6802222046BD
:1072700098472B79D90725D5D5F808802F21404686
:1072800002F04EF908B100F1010841462046FFF72F
:1072900006FA2B799A0709D53A212046FFF70DFA0D
:1072A000EB68414A206A0021FFF757F92B7913F068
:1072B000040F236818BF3D49DB6808BF3C49022220
:1072C000204698472B795B0718D529690A4613464B
:1072D00013F8010B38B1202801D1194601E0282804
:1072E00001D01A46F3E72368521ADB682046984714
:1072F00023683049DB68042220469847002138463D
:10730000FDF758FE01462046FFF7C9F923682849D2
:10731000DB680222204698471EB131462046FFF71F
:10732000BEF92B7913F0300F2DD023682249DB688A
:107330002046022298472B79D8060BD523681F498F
:10734000DB68072220469847AB691D4A206A002166
:10735000FFF703F92B79990611D5DA0605D52368CD
:107360001249DB6802222046984723681549DB68EA
:1073700020460A229847E9692046FFF790F95D21E7
:107380002046FFF79AF923680F49DB68204602225E
:10739000BDE8F0471847BDE8F08700BF1CE70320B1
:1073A000489B0D004F9B0D00529B0D00559B0D00FF
:1073B0005A9B0D00589B0D005D9B0D00609B0D00BE
:1073C000689B0D006B9B0D00769B0D002DE9F04333
:1073D00085B0D0F820800C9C06460F4691461D468D
:1073E00000F044FD804505D14A4800F076FF0028B2
:1073F00040F08C80336A484A01924FF0000801A89F
:1074000003938DF8088001F0ACF841464846FDF73B
:10741000D1FD42498046012201A801F027F94146E9
:10742000FFF72DF93FB13E49012201A801F01EF9F5
:107430003946FFF724F93DB13A49012201A801F08C
:1074400015F92946FFF71BF92379DF070ED5A56843
:107450002F21284602F064F800B1451C3249012270
:1074600001A801F003F92946FFF709F923799D07DF
:1074700007D52E49022201A801F0F8F8E16801F0D1
:107480007DF82379580716D525692F463B4613F812
:10749000012B3AB1202A01D11D4601E0282A01D052
:1074A0001F46F3E70222224901A801F0DFF87A1B08
:1074B000294601F0EAF82379190707D51D49012269
:1074C00001A801F0D3F8616901F06AF82379DA06BE
:1074D00008D5042218490DEB020001F0C7F8A16994
:1074E00001F04CF823799B0607D51449062201A820
:1074F00001F0BCF8E169FFF7C2F801A801F01BF840
:10750000306A0F4903680222DB68984705B0BDE87E
:10751000F08300BF1CE70320AC9A0D00DE9A0D003B
:10752000F19A0D0033980D000E980D00799B0D0017
:107530007C9B0D0040970D007F9B0D00849B0D00F0
:10754000769B0D0008B50020FDF7F0FD28B1FDF792
:10755000DDFD80F00100C0B208BD012008BD10B5FE
:107560000020FDF77DFB044668B9FDF733FD0128D7
:107570000BD12046FDF756FD38B9FFF7E3FF30B9D0
:10758000FDF7BCFDF9E7012010BD002010BDFFF79D
:10759000D9FF0020FDF764FB003018BF012010BDAB
:1075A00008B5FFF7DCFFBDE80840FDF751BB000060
:1075B000024B1A68024B1A60704700BF94E2032026
:1075C000ECE303200021FDF715BD10B583680446E8
:1075D00013B1032201469847204610BD10B504465A
:1075E000FFF7F3FF204610BD13B50B46044603C852
:1075F0008DE8030093E8030084E803009DE803009E
:1076000083E8030002B010BD0348044A0449002384
:10761000836001F055B900BFF0E3032000E30320CD
:10762000DD750D0008B50C4B33B100F01FFC03688D
:107630001B699847002809DC084B63B100F0A6FCE1
:1076400003681B699847002803DC08BDAFF300807E
:10765000F2E7AFF3008008BD00000000000000006A
:1076600008B5FFF7DFFFFDF7EBFA014B186008BD27
:1076700030E703200248034A0349121A01F093BE7F
:1076800000F4032004F40320509F0D0007B50023ED
:1076900000931A466FF07701FDF7D6FC03B05DF852
:1076A00004FB000007B543880A2B08D0502B09D1F2
:1076B000094B1B683BB103B05DF804EB1847FFF7BB
:1076C000E5FF06E0002300931A466FF07701FDF70F
:1076D000BBFC03B05DF804FB00E4032038B5104C9C
:1076E000104D2368AB42104B0CBF012200221A70D0
:1076F00002D0FFF7BFFF2560FDF792FA044601F0C4
:1077000081FE0A4B13B12046AFF3008000210748E9
:10771000FDF714FD00210648BDE83840FDF78ABC9E
:1077200000F403201E1C279A04E40320000000003C
:10773000A5760D0070470020704710B51021044653
:1077400001F0CCF8204610BD08B508B1FFF7F5FFF1
:1077500008BD0022026010B54FF69C728280B1F91C
:10776000044084808A8002680C6804600A6010BD4E
:1077700010B504460068FDF7F1FC204610BD38B591
:10778000C468F4B12378022B03D104F10C00FFF795
:10779000EFFF656835B12846FFF717FF102128462F
:1077A00001F09CF8A56835B12846FFF70EFF1021BF
:1077B000284601F093F820461421BDE8384001F036
:1077C0008DB838BD13B5044691E8050000234B6021
:1077D0000B602060626001A801930093FCF78EFDAE
:1077E000204602B010BDF7B50C4602AD54F8043B7C
:1077F00045F8083D06460F4601A82146FEF77BF9ED
:1078000029463046FFF7DEFF01A8FCF777FD20464A
:10781000FCF774FD3846082101F060F8304603B0EB
:10782000F0BD000038B500230446036010200D466B
:10783000FCF733FC28B1012343608360024B0360F3
:10784000C5602060204638BD2C9C0D00826810B5B4
:107850000AB901F056F8C368BDE81040184708B5EA
:10786000006800F11001FFF7F1FF08BD826810B554
:107870000AB901F046F8C368BDE81040184708B5DA
:10788000006800F11001FFF7F1FF08BD38B50023D3
:1078900083608B6804460D462BB102229847EB6843
:1078A000E360AB68A360204638BD0000F0B589B046
:1078B00004686846FFF74DFF00238DF808304FF04D
:1078C0000202D4E84F3F002B03D1C4E8412F002926
:1078D000F7D102D08DF8083063E014F10C0503D025
:1078E00069462846FFF735FFBFF35F8F01236370BA
:1078F000002004F10803BFF35F8F53E8006F43E8F3
:107900000002002AF9D1BFF35F8F002E49D0FDF7A6
:1079100079FB20B129463046FFF798FF3AE031461F
:1079200002A8FFF7B3FFE068B4F9105008B101F006
:10793000B3FD06901020ADF81C50FCF7AEFB0546D9
:10794000E8B1002787601820FCF7A7FB044688B140
:107950000146876002A8FFF747FE049BA268A36068
:10796000059B049206A9E268E36004F11000059209
:10797000FFF7EFFE0D4BEB600D4B2C60AB6006A8E4
:10798000FFF7F6FE02A8FFF720FE0022294609486D
:10799000FDF740FB3046FFF718FE1021304600F09F
:1079A0009DFF6846FFF7E4FE09B0F0BD5F780D006B
:1079B000D57A0D00D97F0D002DE9F04F8BB006462A
:1079C0000F46904699469DF850A0FDF79FFB07ADE6
:1079D000834630BB4FF62E73059005A92846ADF8B7
:1079E0001830FFF7B6FE1420FCF757FB044658B1D9
:1079F0000223037001234370C0F804B0C0F808B03C
:107A000029460C30FFF7A5FE3046214640F8044BCE
:107A1000FFF708FF2846FFF7ABFE05A8FFF7A8FE13
:107A200052E000240C2314206C60AC600793FCF738
:107A300034FB014618B1047044704460846004A8AB
:107A40000391FFF7EFFE224B08930820FCF725FB7C
:107A5000044628B1039B40F8043B04A9FEF74BF809
:107A600000955FFA8AF34A46414638460994FDF785
:107A700055FB20B9039B5B7803F0FF0283B1039BA6
:107A8000059304A906A8FEF736F805A93046FFF7C6
:107A900099FE06A8FCF732FC04A8FCF72FFC13E0C3
:107AA0004FF69C7305A903A80592ADF81830FFF7AF
:107AB000FDFE05A8FFF75CFE05A80999FFF793FEF8
:107AC00006A8FCF71BFCDAE730460BB0BDE8F08FE8
:107AD000457C0D00022AF8B5044606D0032A17D0CB
:107AE000012A22D10B6803601FE018200E68FCF702
:107AF000D4FA054650B13146FFF7C8FE3069B6F9F1
:107B0000147008B101F0C8FC2861AF8225600CE058
:107B1000046854B104F11000FFF72AFE2046FFF775
:107B200054FD1821204600F0D9FE0020F8BD38B5DC
:107B3000002383608B6804460D462BB102229847D0
:107B4000EB68E360AB68A360204638BD022A70B5DD
:107B5000044606D0032A11D0012A18D10B6803600D
:107B600015E014200E68FCF798FA054620B131465E
:107B7000FFF7DDFF337C2B74256008E0046834B127
:107B80002046FFF722FD1421204600F0A7FE00202A
:107B900070BD0000F0B5002387B00C46BFF35F8FC7
:107BA00050E8006F40E80032002AF9D1BFF35F8F40
:107BB000002E3FD01846FDF725FA074620B1214692
:107BC0003046FFF753FE2EE0314601A8FFF7AFFF26
:107BD00023788DF814301020FCF75FFA0546D0B1F9
:107BE00087601420FCF759FA044678B18760014693
:107BF00001A8FFF7F9FC039BA268A360049B039212
:107C0000E268E3609DF81430049223740A4BEB6041
:107C10000A4B2C60AB6001A8FFF7D7FC0022294675
:107C20000748FDF7F7F93046FFF7CFFC1021304643
:107C300000F054FE07B0F0BD7F780D004D7B0D00C5
:107C4000D97F0D0030B585B004460D466846114613
:107C5000FFF7C9FD7CB124B228460DB101F01CFC30
:107C6000029002A96846ADF80C40FFF71FFE02A87B
:107C7000FFF77EFD1DE000988DF808404FF00102EF
:107C8000D0E84F3FA34203D1C0E8412F0029F7D1EC
:107C900002D08DF808300CE010F10C014FF0010318
:107CA00018BF0373BFF35F8F043000F8033CFFF786
:107CB00071FF01A8FCF722FB05B030BD704710B57D
:107CC0001821044600F00AFE204610BDF0B5037DE1
:107CD000062B8DB00E4600F104074FF0000402D0D1
:107CE00000F1080518E00CAD394605F8304D2F239A
:107CF0002A460A20FDF76EF8284601F0E8FB3368B3
:107D00000246DB682946304698470FE024B12E2111
:107D10003046FEF7F3FB044415F8011D0A223046F5
:107D2000FEF7FBFBBD420444F0D120460DB0F0BD90
:107D300010B5054B0446112240F8043B002101F028
:107D400058FB204610BD00BF489C0D000346074A63
:107D500010B543F8042B01F1100251F8044B43F81D
:107D6000044B9142F9D10A781A7010BD489C0D005D
:107D700010B59DF8084044EA032343EA024242EA70
:107D8000016104234160037510BD37B50D788B7810
:107D90004A78C97800912946FFF7EAFF03B030BD61
:107DA00041747047704708B50021007CFDF7D2F898
:107DB00030EA200028BF4FF0FF3008BD08B5012190
:107DC000007CFDF7C7F830EA200028BF4FF0FF30F5
:107DD00008BD08B5007CFDF7B5F820EAE07008BDE5
:107DE00008B5007CFDF7A6F820EAE07008BD007C2D
:107DF000FDF7C0B810B51421044600F06FFD204611
:107E000010BD38B50446007C0D46FDF79BF80028F0
:107E100001DC607C28B12946207CFDF7A3F820EA2C
:107E2000E07038BD10B50446002363604FF47A73E8
:107E3000A360054B23600123084621746374114637
:107E4000FDF760F8204610BD5C9C0D000022007C10
:107E5000FDF760B8007CFDF765B810B51422044644
:107E6000002101F0C6FA204610BD000030B50E4DCD
:107E700087B001A8FFF7F1FF296811F0010410D1C4
:107E80002846FCF71BF960B101AA21460748FFF715
:107E9000C9FF2846FCF717F9054A0649034800F0D0
:107EA0000FFD024807B030BD08E403200CE40320B6
:107EB00000E30320A57D0D00FCF792BEFCF788BE11
:107EC00070474174704708B5007CFCF7CBFF20EA8F
:107ED000E07008BD08B5007CFCF79CFF20EAE0706C
:107EE00008BD08B5007CFCF7A5FF30EA200028BFDC
:107EF0004FF0FF3008BD08B5007CFCF793FF30EA77
:107F0000200028BF4FF0FF3008BD007CFCF79ABF6F
:107F100010B51421044600F0E1FC204610BD70B5F8
:107F2000457C04460E4625B9007CFCF79BFF0028E3
:107F300005DD3146207CBDE87040FCF763BF284674
:107F400070BD000010B5044608461146002262606C
:107F50004FF47A72A260054A226001222074627492
:107F60001A46FCF73FFF204610BD00BF8C9C0D0059
:107F70000023007CFCF77EBF0022FFF7F9BF007CE6
:107F8000FCF738BF007CFCF765BF000038B50C4D2E
:107F9000296811F0010411D12846FCF78FF868B167
:107FA000084A094B09482146FFF7CCFF2846FCF751
:107FB0008AF8074A0749054800F082FC034838BDA3
:107FC000B8E40320BCE4032034E4032020E40320CD
:107FD00000E30320C17E0D0010B5836804460BB991
:107FE00000F08FFCC3689847A3681BB103222146A9
:107FF0002046984720461021BDE8104000F06EBC96
:108000007047F8B5064615460C468F18BC4206D098
:10801000336814F8011B9B6830469847F6E72846FA
:10802000F8BD0022007CFCF72DBF0021007CFCF78E
:1080300031BF0021007CFCF735BF0021007CFCF73C
:1080400039BF0021007CFCF73DBF10B51421044668
:1080500000F044FC204610BD10B5044600236360C8
:108060004FF47A73A360044B2174084623601146D1
:10807000FCF738FF204610BDBC9C0D000021007CA1
:10808000FCF728BF002211464068FDF71FB8002208
:1080900011464068FDF72AB800224068FDF71EB877
:1080A000002281F001014068FDF708B800231A465C
:1080B00001214068FCF7FABF00231A4619464068C0
:1080C000FCF7ECBF002211464068FCF7DFBF00223E
:1080D00011464068FCF7CABF002202214068FCF745
:1080E000CDBF00231A464068FCF7B8BF38B5054637
:1080F00088B104684CB1A3681BB103222146204615
:1081000098471021204600F0E9FB28461421BDE8DD
:10811000384000F0E3BB38BD10B103685B68184716
:10812000704710B503680446BBB15868FCF71AFEE7
:1081300078B923685A7C12B95868FCF71BFE23688B
:108140005868FCF71FFE20680023236028B1FFF762
:10815000CDFF206808B1FFF7C9FF204610BD38B534
:108160000446D0F8C40108B1FBF79BFFD4F8C00166
:1081700008B1FCF717FED4F8BC5135B12846FFF71B
:10818000D0FF0421284600F0A9FB206808B1FFF7C2
:10819000C3FF204638BD000010B5044B044640F82C
:1081A000083BFFF7DCFF204610BD00BFE49C0D003C
:1081B00038B50E4C0E4B23600025022304F5E47005
:1081C0006360A560C4F8C451C4F8C851FCF7E2FD6F
:1081D000084BC4F8CC5184F8D05123602046064A9D
:1081E0000649BDE8384000F06BBB00BF40E5032006
:1081F0004C9D0D00E49C0D0000E3032099810D00CF
:10820000002211464068FCF741BF00221146406839
:10821000FCF75CBF002211464068FCF767BF0022F4
:108220004068FCF75BBF002281F001014068FCF769
:1082300045BF00231A4619464068FCF737BF0023A4
:108240001A4619464068FCF729BF002211464068CB
:10825000FCF70CBF002202214068FCF70FBF00238F
:108260001A464068FCF7FABE024B04225A60024AE2
:108270001A60704714E70320189D0D0000231A466A
:108280004068FCF7EBBE002202214068FCF7F6BE16
:10829000002211464068FCF7E9BE00221146406802
:1082A000FCF7F4BE00231A4619464068FCF7F6BEF8
:1082B00000231A4619464068FCF7F8BE002281F0F8
:1082C00001014068FCF7FABE00224068FCF706BFD7
:1082D000002211464068FCF709BF002211464068A1
:1082E000FCF7F4BE2DE9F043002495B016460D4688
:1082F0000746FFF71DFD214620220CA8009401F03F
:1083000078F840230C9321466B460CAA3046FCF7C4
:108310002FFC0446002844D1024601216868FCF77E
:10832000B5FE0221804622466868FCF7AFFE009E3B
:1083300081462146002E34D0002932D17368022BA9
:1083400002D00A2B09D02AE0B8F1000F27D07169BA
:1083500038460431FFF719FD20E0B9F1000F1ED0B7
:108360007469112201A801F044F806238DF8143035
:1083700001AD04F108031834186859682A4603C28D
:108380000833A3421546F7D101A906A807ADFFF7A8
:10839000DDFC0FCD3C1D0FC42B6823700121F66955
:1083A000C8E70098FCF7DCFB384615B0BDE8F08361
:1083B000024B034A1A6000225A6070471CE70320F0
:1083C0004C9D0D0000F11002012312F8101C012930
:1083D000104604D152F8041C03EB410304E00229C7
:1083E00004BF52F8041C5B18013B02F11002ECD1EF
:1083F00070470EB42DE9F04187B000AF07F13404A7
:10840000054654F8046B7C6023463246102107F180
:108410000800FCF7BBFE0F2816D900F1080323F073
:108420000703E846ADEB030D3246411C2346684680
:108430007C60FCF7ABFE021E04DD2B6869469B687E
:1084400028469847C54607E030B12B6802469B682E
:1084500007F10801284698471C37BD46BDE8F041A2
:1084600003B0704713B502AB026803F8011D9468AE
:1084700019460122A04702B010BD8368FBB11A78EB
:10848000032A1AD8DFE802F00417021D05207047FE
:1084900002685B685268D05C2D2814D0A0F13003CC
:1084A000092B10D9742810D066280ED0A0F16E03C5
:1084B00058425841704706207047002070471846C0
:1084C000704704207047032070470220704710B5A2
:1084D0000446FFF7D2FF02280DD016D3042814D883
:1084E0002268A36850685B680A2200211844BDE82E
:1084F000104001F0AFB82268A36852685B68D05C96
:10850000A0F174035842584110BD002010BD10B5B1
:10851000436904465BB18068E060013B1030A060B5
:10852000206163612BB1FFF74DFFA06001E01846A9
:1085300010BD012010BD10B57D210446FFF792FF4C
:1085400001232371204610BD08B50379012B02D009
:10855000022B02D008BD2C2100E03A21FFF782FF58
:1085600008BD10B50446FFF7EFFF20467B21FFF75B
:1085700079FF00232371204610BD000038B5044662
:108580000D46FFF7E1FF23680449DB6820462A46D1
:10859000984701232371204638BD00BF529B0D0030
:1085A00038B504460D46FFF7CFFF23680449DB6862
:1085B00020462A46984701232371204638BD00BF34
:1085C00039970D00F8B50D461746222104462F4471
:1085D000FFF748FF2A462946BA4238D0164616F811
:1085E000015B222D03D05C2D01D01F2D2DD82368D7
:1085F000521A9B68204698475C212046FFF732FFBD
:108600000C2D19D007D8092D0FD00A2D12D0082D06
:1086100014D162210AE0222D05D05C2D03D00D2D4E
:108620000CD1722102E0294600E074212046FFF7B8
:1086300019FF09E06E21F9E76621F7E723680A4987
:10864000DB682A462046984731463246C4E79142C5
:1086500004D02368521A9D682046A847222120464C
:10866000FFF700FFF8BD00BF959D0D0070B50446F3
:108670000D461646FFF768FF204632462946FFF7AB
:10868000A1FF02232371204670BD70B504460D463C
:108690001646FFF759FF204632462946FFF792FF5C
:1086A00001232371204670BD10B5002304460360EA
:1086B00043601048A060E360D1B10B78032B06D073
:1086C000B3B9136858684B68C35C6E2B08D0136845
:1086D00058684B680344A3608B6849685B1AE36081
:1086E0001146204651F8043B40F8043BFDF7B4FA2C
:1086F000204610BD789B0D00002310B50446036092
:1087000043608360C3600361436171B10B78012BE7
:108710000BD101F110038360CB684361114651F81E
:10872000043B40F8043BFDF797FA204610BD0023B8
:1087300010B5044603604360816031B1114651F8C1
:10874000043B40F8043BFDF787FA204610BD0000CB
:1087500070B5184E316811F0010504460AD1304653
:10876000FBF7ACFC30B129461348FCF765FD3046F9
:10877000FBF7A9FC1048FCF769FD28B1A4F10B0335
:10878000022B01D8002070BD00F074F8FFF776FCD2
:1087900008B1012CF6D9FFF7F9FBFFF7F3FB18B18D
:1087A000A4F10903012BEDD9232C8CBF002001205B
:1087B00070BD00BF24E7032028E70320232838B535
:1087C00004460D460AD8FF2908D0FFF7C1FF28B19B
:1087D00029462046BDE83840FCF7E2B938BD38B537
:1087E00004460D46FCF7E4F9FF2810D0062804D80B
:1087F0004D2323FA00F0C30709D42046FFF7A8FF52
:1088000028B129462046BDE83840FCF7D9B938BD23
:108810000D2810B504469CBF0E34A4B22046FFF7C5
:1088200097FF50B103212046FCF7B2F9032804D189
:108830002046BDE81040FCF7DBB9002010BD000069
:1088400070B5044614252A46094E002100F0D1FDDA
:10885000258020253146A5602561284600F040F896
:1088600031466060284600F03BF8E060204670BD6D
:108870009B9D0D0030B50E4D296811F0010487B0A5
:1088800013D12846FBF71AFC78B101A8FFF7D8FFEF
:1088900001AA21460748FFF7DFFB2846FBF713FC38
:1088A000054A0649034800F00BF8024807B030BDFE
:1088B00034E7032038E7032000E3032001800D00A4
:1088C0000B460146184600F051BD0000024B1868E7
:1088D000BFF35F8F704700BF4CE70320FBF7DFBBA0
:1088E00000F000B810B5002814BF0446012420464B
:1088F000FCF72CFC20B9FFF7E9FF08B18047F6E749
:1089000010BD08B5FCF74AFC184B1A68D1075CBFCC
:1089100001221A60164B1A68D2075CBF01221A6046
:10892000144B1A68D0075CBF01221A60124B1A68F8
:10893000D1075CBF01221A60104B1A68D2075CBFD6
:1089400001221A600E4B1A68D0075CBF01221A6020
:108950000C4B1A68D1075CBF01221A600A4B1A68D7
:10896000D2075CBF01221A60704700BF6CE703208A
:1089700068E7032064E7032060E703205CE7032047
:1089800058E7032054E7032050E70320244B1A68DC
:10899000D0075CBF01221A60224B1A68D1075CBF66
:1089A00001221A60204B1A68D2075CBF01221A60AC
:1089B0001E4B1A68D0075CBF01221A601C4B1A6854
:1089C000D1075CBF01221A601A4B1A68D2075CBF3C
:1089D00001221A60184B1A68D0075CBF01221A6086
:1089E000164B1A68D1075CBF01221A60144B1A6833
:1089F000D2075CBF01221A60124B1A68D0075CBF15
:108A000001221A60104B1A68D1075CBF01221A605C
:108A10000E4B1A68D2075CBF01221A60704700BF74
:108A20009CE7032098E7032094E7032090E70320C6
:108A30008CE7032088E7032084E7032080E70320F6
:108A40007CE7032078E7032074E7032070E7032026
:108A5000244B1A68D0075CBF01221A60224B1A68A7
:108A6000D1075CBF01221A60204B1A68D2075CBF95
:108A700001221A601E4B1A68D0075CBF01221A60DF
:108A80001C4B1A68D1075CBF01221A601A4B1A6886
:108A9000D2075CBF01221A60184B1A68D0075CBF6E
:108AA00001221A60164B1A68D1075CBF01221A60B6
:108AB000144B1A68D2075CBF01221A60124B1A6865
:108AC000D0075CBF01221A60104B1A68D1075CBF47
:108AD00001221A600E4B1A68D2075CBF01221A608D
:108AE000704700BFCCE70320C8E70320C4E703209A
:108AF000C0E70320BCE70320B8E70320B4E7032066
:108B0000B0E70320ACE70320A8E70320A4E7032095
:108B1000A0E70320184B1A68D1075CBF01221A6036
:108B2000164B1A68D2075CBF01221A60144B1A68F0
:108B3000D0075CBF01221A60124B1A68D1075CBFD4
:108B400001221A60104B1A68D2075CBF01221A601A
:108B50000E4B1A68D0075CBF01221A600C4B1A68D2
:108B6000D1075CBF01221A600A4B1A68D2075CBFAA
:108B700001221A60704700BFECE70320E8E70320FA
:108B8000E4E70320E0E70320DCE70320D8E7032045
:108B9000D4E70320D0E7032081F0004102E000BFCA
:108BA00083F0004330B54FEA41044FEA430594EAAD
:108BB000050F08BF90EA020F1FBF54EA000C55EAE8
:108BC000020C7FEA645C7FEA655C00F0E2804FEAB9
:108BD0005454D4EB5555B8BF6D420CDD2C4480EA9B
:108BE000020281EA030382EA000083EA010180EACB
:108BF000020281EA0303362D88BF30BD11F0004F19
:108C00004FEA01314FF4801C4CEA113102D040424E
:108C100061EB410113F0004F4FEA03334CEA133389
:108C200002D0524263EB430394EA050F00F0A780A1
:108C3000A4F10104D5F1200E0DDB02FA0EFC22FA9C
:108C400005F2801841F1000103FA0EF2801843FA90
:108C500005F359410EE0A5F120050EF1200E012A81
:108C600003FA0EFC28BF4CF0020C43FA05F3C018BF
:108C700051EBE37101F0004507D54FF0000EDCF138
:108C8000000C7EEB00006EEB0101B1F5801F1BD3E1
:108C9000B1F5001F0CD349085FEA30004FEA3C0CE5
:108CA00004F101044FEA445212F5800F80F09A80DB
:108CB000BCF1004F08BF5FEA500C50F1000041EBDF
:108CC000045141EA050130BD5FEA4C0C404141EBE3
:108CD000010111F4801FA4F10104E9D191F0000F0A
:108CE00004BF01460020B1FA81F308BF2033A3F18D
:108CF0000B03B3F120020CDA0C3208DD02F1140C84
:108D0000C2F10C0201FA0CF021FA02F10CE002F1BE
:108D10001402D8BFC2F1200C01FA02F120FA0CFCB7
:108D2000DCBF41EA0C019040E41AA2BF01EB045100
:108D3000294330BD6FEA04041F3C1CDA0C340EDCFE
:108D400004F11404C4F1200220FA04F001FA02F341
:108D500040EA030021FA04F345EA030130BDC4F1FF
:108D60000C04C4F1200220FA02F001FA04F340EAF4
:108D70000300294630BD21FA04F0294630BD94F0A5
:108D8000000F83F4801306BF81F480110134013D8C
:108D90004EE77FEA645C18BF7FEA655C29D094EAFD
:108DA000050F08BF90EA020F05D054EA000C04BF7B
:108DB0001946104630BD91EA030F1EBF0021002066
:108DC00030BD5FEA545C05D14000494128BF41F005
:108DD000004130BD14F580043CBF01F5801130BD69
:108DE00001F0004545F0FE4141F470014FF00000F4
:108DF00030BD7FEA645C1ABF194610467FEA655CA5
:108E00001CBF0B46024650EA013406BF52EA033546
:108E100091EA030F41F4002130BD00BF90F0000F34
:108E200004BF0021704730B54FF4806404F1320470
:108E30004FF000054FF0000150E700BF90F0000F29
:108E400004BF0021704730B54FF4806404F1320450
:108E500010F0004548BF40424FF000013EE700BF20
:108E600042004FEAE2014FEA31014FEA02701FBFB0
:108E700012F07F4393F07F4F81F06051704792F082
:108E8000000F14BF93F07F4F704730B54FF46074FC
:108E900001F0004521F0004120E700BF50EA010247
:108EA00008BF704730B54FF000050AE050EA0102F4
:108EB00008BF704730B511F0004502D5404261EB64
:108EC00041014FF4806404F132045FEA915C3FF4A5
:108ED000DCAE4FF003025FEADC0C18BF03325FEA3E
:108EE000DC0C18BF033202EBDC02C2F1200300FAF3
:108EF00003FC20FA02F001FA03FE40EA0E0021FA18
:108F000002F11444C1E600BF70B54FF0FF0C4CF401
:108F1000E06C1CEA11541DBF1CEA135594EA0C0FB7
:108F200095EA0C0F00F0DEF82C4481EA030621EAF2
:108F30004C5123EA4C5350EA013518BF52EA03352D
:108F400041F4801143F4801338D0A0FB02CE4FF0DF
:108F50000005E1FB02E506F00042E0FB03E54FF00F
:108F60000006E1FB03569CF0000F18BF4EF0010E07
:108F7000A4F1FF04B6F5007F64F5407404D25FEA03
:108F80004E0E6D4146EB060642EAC62141EA5551B6
:108F90004FEAC52040EA5E504FEACE2EB4F1FD0CF8
:108FA00088BFBCF5E06F1ED8BEF1004F08BF5FEA76
:108FB000500E50F1000041EB045170BD06F0004628
:108FC00046EA010140EA020081EA0301B4EB5C04D5
:108FD000C2BFD4EB0C0541EA045170BD41F48011CD
:108FE0004FF0000E013C00F3AB8014F1360FDEBFF2
:108FF000002001F0004170BDC4F10004203C35DACE
:109000000C341BDC04F11404C4F1200500FA05F350
:1090100020FA04F001FA05F240EA020001F00042F1
:1090200021F0004110EBD37021FA04F642EB060167
:109030005EEA430E08BF20EAD37070BDC4F10C0491
:10904000C4F1200500FA04F320FA05F001FA04F255
:1090500040EA020001F0004110EBD37041F1000141
:109060005EEA430E08BF20EAD37070BDC4F120054C
:1090700000FA05F24EEA020E20FA04F301FA05F2B4
:1090800043EA020321FA04F001F0004121FA04F25C
:1090900020EA020000EBD3705EEA430E08BF20EA2C
:1090A000D37070BD94F0000F0FD101F00046400066
:1090B00041EB010111F4801F08BF013CF7D041EAE8
:1090C000060195F0000F18BF704703F000465200EC
:1090D00043EB030313F4801F08BF013DF7D043EABD
:1090E0000603704794EA0C0F0CEA135518BF95EA73
:1090F0000C0F0CD050EA410618BF52EA4306D1D1FA
:1091000081EA030101F000414FF0000070BD50EA18
:10911000410606BF1046194652EA430619D094EAA2
:109120000C0F02D150EA013613D195EA0C0F05D18C
:1091300052EA03361CBF104619460AD181EA0301E0
:1091400001F0004141F0FE4141F470014FF0000098
:1091500070BD41F0FE4141F4780170BD70B54FF033
:10916000FF0C4CF4E06C1CEA11541DBF1CEA1355B3
:1091700094EA0C0F95EA0C0F00F0A7F8A4EB050495
:1091800081EA030E52EA03354FEA013100F088808C
:109190004FEA03334FF0805545EA131343EA126355
:1091A0004FEA022245EA111545EA10654FEA00260A
:1091B0000EF000419D4208BF964244F1FD0404F5C3
:1091C000407402D25B084FEA3202B61A65EB03051F
:1091D0005B084FEA32024FF480104FF4002CB6EBDC
:1091E000020E75EB030E22BFB61A754640EA0C005C
:1091F0005B084FEA3202B6EB020E75EB030E22BF9C
:10920000B61A754640EA5C005B084FEA3202B6EBDC
:10921000020E75EB030E22BFB61A754640EA9C009B
:109220005B084FEA3202B6EB020E75EB030E22BF6B
:10923000B61A754640EADC0055EA060E18D04FEA29
:10924000051545EA16754FEA06164FEAC30343EAC9
:1092500052734FEAC2025FEA1C1CC0D111F4801F96
:109260000BD141EA00014FF000004FF0004CB6E78F
:1092700011F4801F04BF01430020B4F1FD0C88BF2E
:10928000BCF5E06F3FF6AFAEB5EB030C04BFB6EB39
:10929000020C5FEA500C50F1000041EB045170BD2C
:1092A0000EF0004E4EEA113114EB5C04C2BFD4EB59
:1092B0000C0541EA045170BD41F480114FF0000EDD
:1092C000013C90E645EA060E8DE60CEA135594EA59
:1092D0000C0F08BF95EA0C0F3FF43BAF94EA0C0F5C
:1092E0000AD150EA01347FF434AF95EA0C0F7FF4D1
:1092F00025AF104619462CE795EA0C0F06D152EA25
:1093000003353FF4FDAE1046194622E750EA410608
:1093100018BF52EA43067FF4C5AE50EA41047FF419
:109320000DAF52EA43057FF4EBAE12E74A0011D2CB
:1093300012F5001211D20DD56FF47873B3EB6252AF
:109340000ED44FEAC12343F0004343EA505323FABB
:1093500002F070474FF00000704750EA013002D130
:109360004FF0FF3070474FF00000704710B5054CCC
:1093700013462CB10A4601460220AFF3008010BD0F
:10938000204610BD0000000010B501390244904293
:1093900007D010F8013B11F8014FA342F7D0181B7A
:1093A00010BD002010BD10B5431E0A44914204D0E8
:1093B00011F8014B03F8014FF8E710BD884210B5D2
:1093C00001EB020301D8421E0BE09842FBD2811848
:1093D000D21AD34204D013F8014D01F8014DF8E739
:1093E00010BD994204D011F8014B02F8014FF8E783
:1093F00010BD02440346934202D003F8011BFAE772
:109400007047000038B5124B1C68A36B0546D3B9F2
:109410001820FBF79BFE43F20E33A06303804AF64D
:10942000CD33438041F2342383804EF26D63C38099
:109430004DF6EC630381052343810B2383810122D5
:109440000023C0E90423A36B00221D615A6138BDCB
:10945000FCE20320C9B2034610F8012B1AB1914275
:10946000F9D11846704700290CBF184600207047F4
:1094700010B50446FFF7EEFF18B9204600F027F8B4
:10948000204410BD10F8012B11F8013B012A28BF20
:109490009A42F7D0D01A7047024B0146186800F084
:1094A00003B800BFFCE2032070B5064608460C4630
:1094B00000F00DF8451C29463046FBF777FE0646BE
:1094C00018B12A462146FFF76EFF304670BD0346AD
:1094D00013F8012B002AFBD1181A0138704730B558
:1094E00082B1451E013915F8013F11F8014FA34221
:1094F00006D1EC431444E04201D0002BF3D11C46CA
:10950000181B30BD104630BD10B5034601448B42D8
:1095100004D01A785C1C0AB12346F8E7181A10BD6B
:1095200038B503460D4641B1002429461846FFF7D9
:1095300091FF30B1431C0446F7E7BDE83840FFF720
:1095400089BF204638BD00002DE9F04780464048DD
:10955000D0F800900F463D4615F8014B09EB04008A
:10956000407800F0080000F0FF0608B12F46F2E74F
:109570002D2C03D1BD1C7C78012603E02B2C04BFCD
:109580007C78BD1C13B1102B0AD15BE0302C57D175
:10959000287800F0DF0058284DD16C781023023570
:1095A000002E14BF4FF0004C6FF0004C0027BCFBA6
:1095B000F3FA384603FB1ACC09EB040E9EF801E0DF
:1095C0001EF0040F01D0303C0BE01EF0030E1BD048
:1095D000BEF1010F0CBF4FF0370E4FF0570ECEEB20
:1095E0000404A34210DDB7F1FF3F0AD0504506D86E
:1095F00001D1644503DC03FB0040012701E04FF08B
:10960000FF3715F8014BD7E77B1C0CD1002E4FF02C
:10961000220314BF4FF000406FF00040C8F8003044
:109620002AB9BDE8F08706B1404272B107B1691EA0
:109630001160BDE8F0873024002BB1D10823AFE7DB
:109640000A23ADE7302CA3D0AAE7BDE8F08700BF1E
:1096500098E2032013460A46014602480068FFF7D5
:1096600073BF00BFFCE2032021400D005D400D00F0
:1096700089400D008D400D0000000000000000003A
:10968000000000000000000000000000A9400D00E4
:10969000CD400D000000000000000000E9400D007A
:1096A0001D410D0019720D00CF400D00546865205A
:1096B0004C454420766F6C74616765206861732047
:1096C0006265656E2073657420766961204254205E
:1096D000746F20257500537461727420616476651F
:1096E00072746973696E6700526561642074656D98
:1096F00070657261747572653A20257500526561F6
:10970000642068756D69646974793A202575005222
:109710006561642063757272656E7420286E6F7463
:109720002063757272656E746C7920696D706C65FA
:109730006D656E746564293A202575006C696768EB
:10974000740052656164206C696768743A202575FD
:10975000206C7578006D6F69737475726500526561
:109760006164206D6F6973747572653A2025752088
:109770006C7578004C696768743A202575006D6FC8
:109780006973747572653A2025750074656D700093
:1097900068756D6964006C6564566F6C74616765AB
:1097A0000039373031373637342D393631352D34AD
:1097B0006662612D393731322D36383239663230B2
:1097C00034353833360065613532343861342D3400
:1097D0003363632D343139382D613461612D37396C
:1097E00032303061373530383335003939613064E3
:1097F0003266392D316366612D343262332D623524
:1098000062612D316234643433343133393266006D
:1098100062633766313864392D326334332D343026
:1098200038652D626532352D363266343036343542
:10983000393837630037353465626635652D6365C1
:1098400033312D343330302D396664352D6138662F
:109850006234656534613831310000000000000079
:10986000000000001B520D0011520D0007520D00A8
:10987000FD510D00F1510D00E5510D00D9510D00C4
:10988000D1510D00C7510D00BD510D00E5820D00F5
:109890000000000000000000BF530D00C5530D0084
:1098A000CD600D00EF530D00C1530D00000000000E
:1098B00000000000B9530D00D3530D00D9610D0015
:1098C000F3530D00BB530D0000000000000000002A
:1098D000B3530D00E1530D008B5B0D00F7530D00EA
:1098E000B5530D007BE327747BF815ACDD49A91354
:1098F000000072F5776972696E672E626C650053BD
:109900007461727420646973636F766572696E67DF
:109910002073657276696365732E00537461727487
:1099200020646973636F766572696E67206368612E
:109930007261637465726973746963732E00506534
:10994000657220646576696365206973206D69734B
:1099500073696E6721004661696C656420746F20CD
:10996000617070656E6420706565722043656E7409
:1099700072616C206465766963652E00436F6E6E5C
:1099800065637465642062792043656E7472616CEE
:10999000206465766963652E00446973636F6E6E3B
:1099A00065637465642062792072656D6F746520EB
:1099B0006465766963652E0043616E6E6F74206125
:1099C0006464206E657720706565722064657669D1
:1099D00063652E004E6577207065726970686572E8
:1099E000616C20697320636F6E6E65637465642EAD
:1099F000004661696C656420746F20617070656EEB
:109A00006420646973636F7665726564206368615E
:109A100072616374657269737469632E004661696B
:109A20006C656420746F20617070656E6420646979
:109A300073636F76657265642073657276696365BA
:109A40002E004661696C656420746F2061707065DA
:109A50006E64206C6F63616C206368617261637413
:109A6000657269737469632E004475706C69636113
:109A7000746564206368617261637465726973748C
:109A800069632063616E6E6F742062652061646437
:109A900065642E00FB349B5F800000800010000096
:109AA000000000000000000000000000F5650D004F
:109AB0001B660D00CF650D00F3830D000000000054
:109AC00000000000716A0D00856A0D00CD730D0065
:109AD000D7650D00626175640053657269616C0041
