:02000002D0002C
:1040000000400D0044A00D00000006000C0005015A
:084010000401E80500000000B6
:0440180048960D00B9
:1040200009480A49884208B505D0094A824202D0A7
:10403000121A05F0A8F90748074A0021121A05F0DC
:10404000C8F9014808BD00BF40E20320849F0D006D
:10405000D8E20320D8E20320F0E7032070B503F094
:1040600047FB074C074BE41AA40800251E46A5424F
:1040700004D056F8253098470135F8E770BD00BFE9
:10408000749F0D00349F0D0000F06AB808B500F071
:1040900083F9BDE8084003F0EDBA01F097B801F0EC
:1040A0009DB801F09BB8000008B5034A00210C2020
:1040B00000F0C8FFFEE700BF114D0D000078B0FA18
:1040C00080F0400970470123037070477047006A11
:1040D0000368DB68184710B50446006808B101F0B2
:1040E0007DF8204610BD00000A4B10B50446036061
:1040F00002F0E8FB214602F0D5FD03F0C1FE03F01B
:10410000B3FE2046044B40F8043B02F0D1FC2046AD
:1041100010BD00BF7C960D0064960D0010B50446DE
:10412000FFF7E2FF2046242104F0C8FB204610BD23
:104130000EB400B58CB00DAA202352F8041B0392D4
:104140008DE8060004930168002304AA1E2005934D
:1041500000F088FF0CB05DF804EB03B0704700007E
:1041600010B592B012A8012200F83B2D41F6C6719D
:1041700000F020FF01F066FC01F0AAFC01F062FCF7
:10418000294A014609A802F0B9F809A801F012FD70
:1041900001F058FC254A014609A802F0AFF809A829
:1041A00001F008FD01F04EFC214A014609A802F089
:1041B000A5F809A801F0FEFC01F044FC1D4A0146E7
:1041C00009A802F09BF809A801F0F4FC09A801F085
:1041D0001FFB194B04A8196801F0B0FA04A801F0FC
:1041E000F9F9044604A844B901F012FA12AA02230C
:1041F00022F83A0D0321009406E001F00EFA0023A4
:10420000009302461023072109A801F0BAFA0B49CE
:104210000B48FFF78DFF01F015FC002209A901F002
:104220008DFC12B010BD00BF14E3032020E3032077
:10423000E8E2032080E3032050E203208C960D0087
:10424000E8E303201FB50B4800F0E6FCFDEEC07A62
:104250000949CDED017A9DF9044008482246FFF74F
:1042600067FF2246064903A800F0C8FF204604B0B5
:1042700010BD00BF60E303209E960D00E8E303201D
:104280000A970D001FB50B4800F0D8FCFCEEC07A71
:104290000949CDED017A9DF8044008482246FFF710
:1042A00047FF2246064903A800F0A8FF204604B0B5
:1042B00010BD00BF60E30320B3960D00E8E30320C8
:1042C0000A970D0038B5046805467CB16368013B68
:1042D00063605BB9236820469B689847A368013BED
:1042E000A3601BB923682046DB689847284638BD81
:1042F00010B5112086B004F07CFA84B222460C4935
:1043000003A800F07BFF0B4B0B491B788DF80030A6
:1043100003AA3C2304A803F059FB05A8FFF7D2FF2A
:10432000224606490648FFF703FF204606B010BDA7
:104330000A970D00E4E20320C5960D00CB960D0010
:10434000E8E3032010B5122086B004F052FA84B2DC
:1043500022460C4903A800F051FF0B4B0B491B7878
:104360008DF8003003AA3C2304A803F02FFB05A816
:10437000FFF7A8FF224606490648FFF7D9FE204668
:1043800006B010BD0A970D00E4E20320E6960D008A
:10439000EF960D00E8E303202DE9F34100F0C0FCA7
:1043A000B54A1368C31AB3F5FA6F044650D31060C8
:1043B000FFF748FFB14AB249B2F90030B1F9001035
:1043C000B04D994216463FD1002201921046114647
:1043D000994205DA35F91120013110440122F7E73D
:1043E00002B1019002A9019A92FBF3F35BB241F88A
:1043F000043D04220023A44801F072FAB5F900201C
:10440000A249A348FFF794FEB5F90220A149A048AC
:10441000FFF78EFEB5F904209F499D48FFF788FEFF
:10442000B5F906209D499A48FFF782FEB5F90820A4
:104430009B499748FFF77CFE019A9A499448FFF7F9
:1044400077FE0023338003E025F813000133138047
:10445000954A1368E31AB3F5FA6F5FD3DFF8A082C9
:104460001460FFF745FF914BB8F90050B3F90030E5
:104470008F4EAB4247463FD10023019319461A465F
:10448000AA4205DA36F91230013219440123F7E75E
:1044900003B1019102A9019B93FBF5F5ADB2002395
:1044A00041F8045D0422834801F01AFAB6F90020AD
:1044B00081497748FFF73CFEB6F902207F497448EE
:1044C000FFF736FEB6F904207D497148FFF730FE4C
:1044D000B6F906207B496E48FFF72AFEB6F9082098
:1044E00079496B48FFF724FE019A78496848FFF73D
:1044F0001FFE00233B8011E004F080FC5CA3D3E9A5
:10450000002304F01BFE0022714B04F0EDFC04F0CC
:10451000FDFE26F815000135A8F800506D4A136815
:10452000E31AB3F57A7F44D36B4F1460FFF70AFFA9
:104530006A4BB7F90050B3F90030AB423E4626D182
:1045400000236748ADF804301A461946A94206DA36
:1045500030F811301A4412B201310123F6E70BB1E1
:10456000ADF80420BDF9042092FBF5F202AD12B2C1
:1045700025F8042D5B494648FFF7DAFD00230222A7
:104580002946594801F0ACF90023338011E004F0CA
:1045900035FC37A3D3E9002304F0D0FD4C4B0022B7
:1045A00004F0A2FC04F0B2FE4D4B23F815000135D7
:1045B0003D804E4A1368E31AB3F5FA6F50D3146086
:1045C000FFF760FE4A4A4B49B2F90030B1F90010DA
:1045D000494C994215463FD100220192104611469E
:1045E000994205DA34F91120013110440122F7E72C
:1045F00002B1019002A9019A92FBF3F39BB241F838
:10460000043D042200233D4801F06AF9B4F900207A
:104610001E491F48FFF78CFDB4F902201D491C48B4
:10462000FFF786FDB4F904201B491948FFF780FD08
:10463000B4F9062019491648FFF77AFDB4F90820A5
:1046400017491348FFF774FD019A16491048FFF700
:104650006FFD00232B8003E024F813000133138047
:10466000642002F0B9FF02B0BDE8F081AFF3008032
:104670000000000000FEAF405CE3032012E30320D3
:1046800054E203202AE3032014E3032001970D00E2
:10469000E8E303200D970D0019970D0025970D00F5
:1046A00031970D003D970D00E0E2032048E2032022
:1046B000FCE20320E8E203204F970D005C970D0019
:1046C00069970D0076970D0083970D0090970D0068
:1046D00000005940DCE203207EE3032040E2032097
:1046E00006E30320A3970D0080E3032058E3032093
:1046F00028E303205CE2032074E3032020E303208B
:104700001CE3032070B5046843681426054606FBC5
:104710000346A64204D0204600F006FE1434F8E713
:10472000286800F05BFD284670BDF0B50E4691B0DC
:1047300000210446016041600BAD194606A81746EA
:1047400000F0FCFF1699284600F0F8FF10AA3B780D
:1047500002F82C3D189B0293179B0193204600956D
:1047600006AB314601F016FD204611B0F0BD88427F
:10477000F8B506460C46154616D9904215D2A2F158
:1047800014056C1AA1F114070444AF421CD02CB1DB
:104790002946204600F0B8FD2B7C2374284600F003
:1047A000C3FD143D143CF0E70ED0AC420CD02EB14A
:1047B0002146304600F0A8FD237C3374204600F0EB
:1047C000B3FD14341436F0E7F8BD2DE9F0410023B1
:1047D0000360436083604E689E4204460F4624DDBA
:1047E0004FF0140808FB06F000F0F0FC0546E0B1BD
:1047F00094E8060008FB0212FFF7B9FF206800F0FA
:10480000EDFC2560A6603E687B6808FB03684645B2
:1048100009D02DB13146284600F0EFFD337C2B74D2
:1048200014361435F3E77B6863602046BDE8F081F9
:104830002DE9F043584B594E594DDFF8AC9191B0EA
:1048400000241C7000F01CFA21460622554800F096
:104850000BF94FF6FF7373813460B480B471348107
:10486000032000F017FC2A464F49304604F018F8A0
:1048700004940594069403F003FB4C4E804604A96F
:1048800007A8FFF7A2FF374607A90AA8FFF79DFF71
:10489000474B47F8043B0AA90DA8FFF796FF0DAA5E
:1048A0000121384602F065FB0DA8FFF72BFF0AA88F
:1048B000FFF728FF3F4B3360C6F8208007A8FFF7BB
:1048C00021FF3D4B336003F0DBFA4FF4165103F048
:1048D000C7FA01F0F7FF314602F0DEFA04A8FFF74D
:1048E00011FF364F36492A46304603F0D9FF02946D
:1048F00001943B680093334B334E1B6833494FF0B0
:1049000010080DAA48468DF83480FFF70EFF2A469E
:104910003146484603F0C4FF029401943B6800937B
:10492000DFF8C8902A4B2B491B688DF834800DAAFC
:104930004846FFF7FAFE2A463146484603F0B0FFE4
:10494000029401943B680093DFF8A490224B234922
:104950001B688DF834800DAA4846FFF7E6FE2A460C
:104960003146484603F09CFF029401943B68009353
:104970008DF834801A4BDFF87C801B6819490DAA2A
:104980004046FFF7D2FE2A463146404603F088FFF4
:1049900011B0BDE8F08300BFE4E20320F0E20320A1
:1049A000D8E2032060E30320D7400D0034E3032066
:1049B00064960D00E89B0D007C960D0050E20320EC
:1049C000E9400D0060E20320B55B0D00C8970D00C3
:1049D00058E20320CD970D004CE20320C5960D0050
:1049E00044E20320E6960D0014E3032020E30320B5
:1049F000E8E2032080E3032010B503682F2B044670
:104A000004D9074A00210A2000F01CFB23681F2B51
:104A100083BF03F01F03236002484FF0A04010BD86
:104A2000114D0D000003005007B502AB43F8040D13
:104A30001846FFF7E1FF019A01239340C0F80835BB
:104A400003B05DF804FB07B502AB43F8040D18464C
:104A5000FFF7D2FFD0F81035019823FA00F000F0EC
:104A6000010003B05DF804FB02720122817102743F
:104A7000704700002DE9F74F044600F051F9E36854
:104A8000834284BF0023E360237C33B9E368C01A08
:104A9000B0F5FA6F01D20120A8E00025554E25742B
:104AA00000F03EF9A3793268E0601B01D11825714E
:104AB000E570A57065702570D05C4B7803F01F031E
:104AC00043EA4010FFF7B0FFFA2002F085FD012114
:104AD000A07903F07DFEA37932681B01D118D25C66
:104AE0004B7802A803F01F0343EA421340F8043D49
:104AF000FFF782FF019B4FF0010808FA03F3C0F8AB
:104B00000C35142002F068FD03F0E0F9A379326857
:104B10001B01D118D05C4B7803F01F0343EA40100F
:104B2000FFF782FF282000F0F3F82946A07903F070
:104B30004FFE2F464FF0000BA37932681B01D118AE
:104B400012F803A04B7803F01F0343EA4A1A5046B9
:104B5000FFF779FF5046FFF776FF80455FFA8BF944
:104B600008D101200BF1010B00F0D2F8BBF1FF0FCF
:104B7000E2D1D946A37932681B01D11812F803801B
:104B80004B7803F01F0343EA48184046FFF75BFFEA
:104B90004046FFF758FFB9F1FF0F5FFA80F814D0D5
:104BA000032D0ED9EB070CD4FA080137A35C5B0088
:104BB000DBB2A354217A49453CBF43F00103A3541F
:104BC000FFB20135EDB2552DB4D103F081F9272F95
:104BD0000BD92278637821791344A2781344E278C0
:104BE0001344DBB299423FF456AF002003B0BDE856
:104BF000F08F00BF88E3032010B50446FFF73AFFAB
:104C000028B1A37800EE103AB8EE400A10BD9FED2F
:104C1000010A10BD0000C07FFFF7EEBF10B50446CB
:104C2000FFF728FF28B1237800EE103AB8EE400ACB
:104C300010BD9FED010A10BD0000C07FFFF7EEBF61
:104C400008B500F01DF8014B186008BD88E303208B
:104C500008B500F015F8014B186008BD8CE303207F
:104C600008B5024B1B689B68019308BD68020300EE
:104C700008B5024B1B68DB68019308BD680203009E
:104C800008B5024B1B681B68019308BD2C0203008A
:104C900008B5024B1B685B68019308BD2C0203003A
:104CA00008B5024B1B689B68019308BD2C020300EA
:104CB00008B5024B1B681B6A019308BD2C02030058
:104CC00008B5024B1B685B6A019308BD2C02030008
:104CD00008B5024B1B681B6B019308BD2C02030037
:104CE00008B5024B1B68DB69019308BD3002030065
:104CF00008B5024B1B681B6A019308BD3002030014
:104D000008B5024B1B685B68019308BD18020300DD
:104D100008B5024B1B68DB68019308BD180203004D
:104D200008B5024B1B685B69019308BD18020300BC
:104D300008B5024B1B689B68019308BD780203000D
:104D400008B5024B1B681B6D019308BD7802030078
:104D500008B5024B1B689B6D019308BD78020300E8
:104D600008B5024B1B681B6E019308BD7802030057
:104D700008B5034B1B68D3F89830019308BD0000B9
:104D80007802030008B5034B1B68D3F8A8300193E1
:104D900008BD00007802030008B5034B1B68D3F878
:104DA000B430019308BD00007802030008B5034B3E
:104DB0001B68D3F8D830019308BD000078020300C7
:104DC00008B5034B1B68D3F8DC30019308BD000025
:104DD0007802030008B5034B1B68D3F8EC3001934D
:104DE00008BD00007802030008B5034B1B68D3F828
:104DF000F030019308BD00007802030008B5034BB2
:104E00001B68D3F80031019308BD0000780203004D
:104E100008B5034B1B68D3F80431019308BD0000AB
:104E20007802030008B5024B1B689B68019308BD1C
:104E30004802030008B5024B1B681B69019308BDBB
:104E40004802030008B5024B1B685B69019308BD6B
:104E50004802030008B5024B1B685B6C019308BD58
:104E60004802030008B5024B1B689B6C019308BD08
:104E70004802030008B5024B1B68DB6C019308BDB8
:104E80004802030008B5024B1B685B6D019308BD27
:104E90004802030008B5024B1B685B69019308BD1B
:104EA0006402030008B5024B1B681B68019308BD30
:104EB0003C02030008B5024B1B689B68019308BDC8
:104EC0003C02030008B5024B1B68DB68019308BD78
:104ED0003C02030008B5024B1B681B69019308BD27
:104EE0003C02030008B5024B1B685B69019308BDD7
:104EF0003C02030008B5024B1B689B69019308BD87
:104F00003C02030008B5024B1B68DB69019308BD36
:104F10003C02030008B5024B1B681B6A019308BDE5
:104F20003C02030008B5024B1B689B6A019308BD55
:104F30003C02030008B5024B1B68DB6A019308BD05
:104F40003C02030008B5024B1B681B6A019308BDB5
:104F50002802030008B5024B1B685B6A019308BD79
:104F60002802030008B5024B1B689B6A019308BD29
:104F70002802030008B5024B1B68DB6A019308BDD9
:104F80002802030008B5024B1B681B6B019308BD88
:104F90002802030008B5024B1B685B6B019308BD38
:104FA0002802030008B5024B1B681B6C019308BD67
:104FB0002802030008B5024B1B685B68019308BD1B
:104FC0005802030008B5024B1B681B68019308BD1B
:104FD0004C02030008B5024B1B685B68019308BDD7
:104FE0004C02030008B5024B1B689B68019308BD87
:104FF0004C02030008B5024B1B681B69019308BDF6
:105000004C02030008B5024B1B685B69019308BDA5
:105010004C02030008B5024B1B689B69019308BD55
:105020004C02030008B5024B1B68DB69019308BD05
:105030004C02030008B5024B1B681B6A019308BDB4
:105040004C02030008B5024B1B685B6B019308BD63
:105050006002030008B5024B1B681B6D019308BD7D
:105060006002030008B5024B1B685B6D019308BD2D
:105070006002030008B5024B1B68DB6E019308BD9C
:105080006002030008B5024B1B681B6F019308BD4B
:105090006002030008B5024B1B685B68019308BD02
:1050A0002002030008B5024B1B685B69019308BD31
:1050B0002002030008B5024B1B68DB6C019308BD9E
:1050C0002002030008B5024B1B685B6D019308BD0D
:1050D0002002030008B5034B1B68D3F88830019306
:1050E00008BD00002002030008B5034B1B68D3F87D
:1050F0009430019308BD00002002030008B5024B64
:105100001B685B68019308BD4002030008B5024BB1
:105110001B689B68019308BD4002030008B5024B61
:105120001B68DB68019308BD4002030008B5024B11
:105130001B681B69019308BD4002030008B5024BC0
:105140001B685B69019308BD4002030008B5024B70
:105150001B689B69019308BD4002030008B5024B20
:105160001B68DB69019308BD4002030008B5024BD0
:105170001B681B6A019308BD4002030008B5024B7F
:105180001B681B6B019308BD4002030008B5024B6E
:105190001B685B6B019308BD4002030008B5024B1E
:1051A0001B685B69019308BD4402030008B5024B0C
:1051B0001B681B6A019308BD4402030008B5024B3B
:1051C0001B68DB6B019308BD4402030008B5024B6A
:1051D0001B681B68019308BD1C02030008B5024B45
:1051E0001B685B68019308BD1C02030008B5024BF5
:1051F0001B689B68019308BD1C02030008B5024BA5
:105200001B68DB68019308BD1C02030008B5024B54
:105210001B685B6A019308BD1C02030008B5024BC2
:105220001B68DB6A019308BD1C02030008B5024B32
:105230001B681B6B019308BD1C0203000022114672
:105240004068FFF793BF002211464068FFF79EBFFA
:1052500000224068FFF792BF002281F00101406800
:10526000FFF77CBF00231A4619464068FFF76EBF60
:1052700000231A4619464068FFF760BF0022114616
:105280004068FFF753BF002211464068FFF73EBF5A
:10529000002202214068FFF741BF00231A46406800
:1052A000FFF72CBF024B03225A60024A1A60704774
:1052B00090E3032094980D0010B504460170084651
:1052C000FFF70EFD00236360204610BD0078FFF756
:1052D0000FBD000010B5094C00204FF6FF73206091
:1052E000A080A07120816381FFF7D4FE2046044A8C
:1052F0000449BDE8104003F0D3BA00BF98E303208F
:10530000D8E20320D7400D00002303604360836090
:10531000037310B50C6804604C6844608C6884604A
:105320000B604B608B6010BD10B504460068FFF742
:1053300055FF204610BD10B50446006808B1FFF7C0
:105340004DFF00232360A360636010BD38B50446A1
:105350000D4600680131FFF749FF10B184E82100D4
:10536000012038BD10B50368044613B143688B4271
:1053700007D22046FFF7EAFF20B1A3680BB92268E5
:105380001370012010BD70B50E4611460446154637
:10539000FFF7E8FF18B92046FFF7CDFF09E02A46DE
:1053A0003146A560206803F0EEFF2268A368002163
:1053B000D154204670BD38B50023044603604360D5
:1053C000836003730D4639B1084604F070F829462E
:1053D00002462046FFF7D7FF204638BD884210B569
:1053E0000B46044607D0096819B19A68FFF7CBFF4E
:1053F00001E0FFF7A0FF204610BD10B500230446D2
:105400000360436083600373FFF7E8FF204610BD2D
:1054100038B505460C4641B1084604F048F8214627
:1054200002462846FFF7AFFF01E0FFF784FF28465A
:1054300038BD7047002070477047002070477047A4
:105440000020704710B51421044603F037FA2046B7
:1054500010BD10B51421044603F030FA204610BDEB
:1054600010B51421044603F029FA204610BDFEF7BA
:1054700016BEFEF714BEFEF712BE10B50446006855
:1054800008B1FFF7EFFC204610BD000008B50A2068
:10549000024A0021FFF7D6FD08BD00BF114D0D00E7
:1054A00010B5036804469B689847A368013BA36056
:1054B0002BB923682046DB68BDE81040184710BDB3
:1054C000A0F13003DAB2092A01D818467047A0F1DA
:1054D0006103052B01D857387047A0F14103052B14
:1054E00094BF37384FF0FF307047000010B50023ED
:1054F0000370044B04461868FFF7BCFC01232370BB
:10550000204610BDB0E3032010B5037804461BB15C
:10551000024B1868FFF7B6FC204610BDB0E303202D
:1055200008B582798B799A4206D1062203F01CFFD6
:10553000B0FA80F0400908BD002008BD10B5012375
:105540000361054B024603F1100153F8044B42F886
:10555000044B8B42F9D110BDC49A0D0010B50B4617
:105560000446B9B1012A09D1034601F1100251F8EC
:10557000040B43F8040B9142F9D108E0411E0F22BD
:10558000985C01F8010F013AD2B2FF2AF8D1012349
:10559000236102E0102203F01CFF204610BD38B545
:1055A000054614461A46FFF7D9FF2C73240A6C737C
:1055B000284638BD08B502690AB9808903E010227F
:1055C000034903F0D1FE003018BF012008BD00BF21
:1055D000C49A0D000069704738B50C4614220021AA
:1055E000054603F0F6FE23692BB9627B237B43EA71
:1055F00002232B800AE001232B7404F110022B46B6
:1056000054F8041B43F8041B9442F9D1284638BDD2
:10561000427B007B40EA02207047704710B50B695F
:10562000036101F11002034651F8044B43F8044BA7
:105630009142F9D110BD10B586B00446012201A8EF
:10564000FFF78CFF01A92046FFF7E8FF06B010BD69
:1056500008B502690B699A4206D1102203F084FE54
:10566000B0FA80F0400908BD002008BD0123F7B55D
:105670000361314B0E460546024603F1100153F813
:10568000040B42F8040B8B42F9D1002E51D0242197
:10569000304603F029FF042810D0002710242421CD
:1056A000304603F021FFB84201D944BB41E02C440D
:1056B0000023A5423DD004F8013DFAE73078FFF71A
:1056C000FFFE041E18DB7078FFF7FAFE002813DBDC
:1056D00040EA04108DF80400B078FFF7F1FE041ED4
:1056E0000ADBF078FFF7ECFE0028A1BF40EA0410C7
:1056F0009DF8043028736B7300232B6119E0F05D73
:10570000FFF7DEFE030612D4013C000128552421D8
:10571000304603F0E9FE0137874208D2F05DFFF71B
:10572000CFFE40B20028A2BF2B5D18432855013799
:10573000B5E703B0F0BD00BFC49A0D0038B504460C
:105740000D46FFF7FBFE20462946FFF78FFF204658
:1057500038BDF0B58BB10024E51C8D420FD8661C16
:10576000055D875D974205D12E44B14207D31C6089
:10577000681CF0BD01352C44EEE71846F0BD002052
:10578000F0BD2DE9F74304460E461D461746002A94
:105790003AD00A4601AB016AFFF7DBFF9DF82830DB
:1057A000226A03BBF8B1961C2E44361A1F2E2BD842
:1057B000DDF8048008F10209C8EB0202121A00EBBE
:1057C000080105EB090092B22144204403F0E6FDF4
:1057D0006B1C04F808302A46394604EB090003F034
:1057E000D2FD266210E0901C2B181F2B0CD86B1CCE
:1057F000A354224420623946567020442A4603F0BE
:10580000C2FD226A2A442262206A03B0BDE8F08306
:105810001FB50446034600F11F02002003F8010BE8
:1058200093424FF00001F9D104AA062302F8013D8A
:1058300001232162009120461946FFF7A2FF20466E
:1058400004B010BD73B50A460E4601AB016A0446AA
:10585000FFF77FFF054678B10198226A2918121ACE
:10586000521B2144204403F08EFD236A5D1B2562F8
:1058700031462046FFF7E6FF02B070BD38B500257F
:105880004FF6FF73044643800E22294605700571CA
:10589000063003F09EFD04F11400FFF74FFE04F103
:1058A0002800FFF74BFE044904F13C00FFF783FD9D
:1058B000E5642565204638BDA89B0D0010B58369B9
:1058C000C26903EBC2029342184606D004682488DA
:1058D0008C4203F10803F6D110BD002010BD00007A
:1058E0002DE9F34180461F460E4669B362B3F42AA0
:1058F000056828BFF42214462A78A2B12B799807AC
:1059000007D500232246A889FFF746FA002802DAC5
:1059100043E06FF07700D8F800502B79DA0618D5FD
:10592000012F23D115E068884FF6FF7398420DD000
:105930002B79590723D5012F21D0A989009223461D
:105940003246FFF73DFA28E0154826E06FF0D10017
:1059500023E09A0621D5022F1FD0A88900232246D2
:10596000314602B0BDE8F041FFF752BAA8890023E2
:105970002246314602B0BDE8F041FFF73FBA1B07AF
:1059800001D5022F02D16FF0770006E00023A9892C
:10599000009332462346FFF709FA02B0BDE8F081D2
:1059A000F2FEFFFF10B50A6852F8023F0360536829
:1059B000436010BD1FB502680B6812881B889A42AD
:1059C0000C460CD101466846FFF7ECFF214602A8C1
:1059D000FFF7E8FF02A96846FFF7A2FD00B9002023
:1059E00004B010BD10B504463420FEF756FB014646
:1059F00068B10023036043608360C3600361436157
:105A00008361C361036243628362C3620363216093
:105A100019B90A4A0A20FFF715FB0020FFF788F999
:105A200020B1064A00210A20FFF70CFB0022216862
:105A30000348FFF7D9F9204610BD00BF114D0D00F6
:105A4000415E0D0010B50A4C2368DB070ED42046DA
:105A5000FEF734FB50B10748FFF7C4FF2046FEF7BE
:105A600032FB054A0549034802F01AFF014810BD00
:105A7000A8E30320A4E30320D8E20320295C0D005F
:105A800070B50368093B012B8AB004460E4619D84D
:105A9000FFF7D8FFA1880068FFF710FF024658B94A
:105AA00020230293084B0390009302AA0346074960
:105AB0003220FFF7CFFA05E0F56C1DB1336DE168D8
:105AC0002069A8470AB070BD6E990D0024990D0099
:105AD00013B501A8FFF70AFD0020FFF729F90446D6
:105AE00001A8FFF711FD04EAE47002B010BD0846FA
:105AF00009B90A4601E0096A0022FFF721B910B589
:105B00000C4611B90A46084606E001212046FFF777
:105B100099FE216A00222046BDE81040FFF718B91F
:105B200013B501A8FFF7E2FC0020FFF719F90446BE
:105B300001A8FFF7E9FC204602B010BD73B5054689
:105B40000C4601A81646FFF7D1FC21462846FFF770
:105B5000CEFF002808DB31462846FFF7D0FF00289B
:105B600002DB2846FFF7DCFF044601A8FFF7CCFC68
:105B7000204602B070BD0B68036013B15A68013251
:105B80005A60704710B551F8043B044640F8043B96
:105B9000FFF7F1FF23680BB9FFF778FC204610BD33
:105BA00010B551F8043B044640F8043BFFF7E3FF0F
:105BB000204610BD10B504460430FEF783FB204696
:105BC00010BD70B504684368054604EBC306A642E1
:105BD00004D0201DFEF776FB0834F8E72868FFF7AD
:105BE000FDFA284670BD70B504684368054604EBAD
:105BF000C306A64204D0201DFEF764FB0834F8E774
:105C00002868FFF7EBFA284670BD10B5046904F167
:105C10001800FFF7E8FF04F10C00FFF7D2FF204661
:105C2000BDE81040FEF73BBAF8B504680746C4B1BA
:105C3000A569E36905EBC306AE4204D0281DFEF753
:105C400041FB0835F8E7A069FFF7C8FA04F10C003A
:105C5000FFF7C9FF2046FFF7B4FF3421204602F0CA
:105C60002DFE3846F8BD000073B50025056045607F
:105C700006462420FEF711FA044678B103464FF693
:105C8000FF7223F8022BC0F802505D608572C57266
:105C9000C560056145618561C56105620023142009
:105CA0000193FEF7FAF9034628B1012242608260AF
:105CB000084A0260046102A8726840F8042D73600B
:105CC0003460FEF7FFFA33680BB9FFF7DFFB3046AD
:105CD00002B070BD00990D0038B50C6803689C4295
:105CE00005460CD014B1636801336360286828B19D
:105CF0004368013B43600BB9FFF7D2FB2C60284699
:105D000038BD884270B515461AD9904219D2A1F112
:105D10000806511A0439151F44182B1F9E4225D01E
:105D2000042C07D055F8043C44F8043C294620468E
:105D3000FFF721FF2846FEF7C5FA083D083CECE7CF
:105D400014D00C1D061D231F9D420FD0042E07D01A
:105D500054F8043C46F8043C21463046FFF70BFF5C
:105D60002046FEF7AFFA08340836ECE770BD2DE99F
:105D7000F041046843680546884604EBC307A74220
:105D800018D041462046FFF715FE064608B90834EC
:105D9000F5E78CB1201DFEF795FA2B686A6804F1CF
:105DA000080103EBC2022046FFF7ABFF6B68013B23
:105DB0006B6002E0002600E026463046BDE8F08138
:105DC000F7B5044651F8043B4768009301A8FFF774
:105DD000D2FE6668A3689E4214DB0136002E0BDDFE
:105DE000F000FFF7F3F9054618B394E8060001EB5D
:105DF000C202FFF786FF00E000252068FFF7EEF9FA
:105E00002560A6602668626806EBC70506EBC2023D
:105E1000294605F10800FFF774FF35B1009B46F8ED
:105E2000373001A9281DFFF7A6FE636801336360C0
:105E3000012501A8FEF746FA284603B0F0BD000090
:105E40002DE9F04104468EB003A80D46FFF74EFB46
:105E50002368032B02D0042B42D087E004A8FFF76D
:105E600003FF049B22891A806268049952F8083F54
:105E7000C1F802305368C1F8063007A8049B0693A6
:105E800005A9FFF778FE06A905F11800FFF798FFAE
:105E9000044607A8FEF716FA2023069374B9364B7A
:105EA000009306AA2346354907943220FFF7D2F81B
:105EB000049B21461888FEF75BFF0DE0304A0092F4
:105EC000002306AA2D4907930120FFF7C3F86B6A48
:105ED00013B1E96A04A8984705A8FEF7F3F945E06D
:105EE00021892846FFF7EAFC074600283ED00468CF
:105EF000A369E1694FF6FF72228003EBC101994269
:105F000003D053F8080B4280F9E7E668236906EBF3
:105F1000C308B04504D0301DFEF7D4F90836F8E7C1
:105F200000232361A669E36906EBC308B04504D0EA
:105F3000301DFEF7C7F90836F8E70023E361A372C6
:105F4000E372AB6A13B1296B3846984720230D4A98
:105F500006930092002309490793012006AAFFF740
:105F600079F8394605F11800FFF701FF03A8FFF79C
:105F7000CBFA0EB0BDE8F08186990D0024990D0092
:105F8000AC990D00C9990D008842F8B506460C463B
:105F9000154614D9904213D2A2F108056C1AA1F14A
:105FA00008070444AF4218D01CB129462046FFF729
:105FB000F7FD281DFEF786F9083D083CF2E70CD0F6
:105FC000AC420AD01EB121463046FFF7E9FD201D44
:105FD000FEF778F908340836F2E7F8BD70B50E1E02
:105FE00005460BDDF000FFF7F1F8044670B195E8C7
:105FF000060001EBC202FFF7C7FF00E0002428689B
:10600000FFF7ECF82C60AE60012070BD70BD73B579
:10601000044645686846FFF7C3FD6168A368994276
:1060200005DB01312046FFF7D9FF064698B123680A
:10603000626803EBC50503EBC202294605F10800BF
:10604000FFF7A2FF1DB169462846FFF7A9FD636867
:1060500001336360012601A8FEF734F9304602B02F
:1060600070BD8842F8B506460C46154614D99042D4
:1060700013D2A2F108056C1AA1F108070444AF423B
:1060800018D01CB129462046FFF77CFD281DFEF7DD
:1060900019F9083D083CF2E70CD0AC420AD01EB119
:1060A00021463046FFF76EFD201DFEF70BF9083440
:1060B0000836F2E7F8BD70B50E1E05460BDDF000A0
:1060C000FFF784F8044670B195E8060001EBC202C0
:1060D000FFF7C7FF00E000242868FFF77FF82C6077
:1060E000AE60012070BD70BD73B50446456868465A
:1060F000FFF748FD6168A368994205DB013120463E
:10610000FFF7D9FF064698B12368626803EBC5051F
:1061100003EBC202294605F10800FFF7A2FF1DB1FB
:1061200069462846FFF72EFD636801336360012648
:1061300001A8FEF7C7F8304602B070BD10B504469E
:10614000406808B1FDF7ABFF204610BD07B50369F5
:106150000C308DE8090003F13C00FFF7E5F86846D4
:10616000FFF7ECFF03B05DF804FB000038B5002337
:106170000446036014200D46FDF78FFF28B101236C
:1061800043608360024B036005612060204638BD98
:10619000C8980D002DE9F04188B005461E465420F0
:1061A00000230F46904604930593FDF776FFCDF844
:1061B00018D004460790C0B198F80080FFF75EFB46
:1061C000394604F13C0084F80480FFF721F90F9B65
:1061D000E3643146109B236504F11400FFF71EFAB7
:1061E0000E9904F12800FFF719FA2146002601ABA9
:1061F00002AA03A80796FFF7B9FF039B059A03922B
:1062000003A805930494FEF75DF806A8FFF796FF30
:10621000049B2968059A2B6008A86B6806916A6040
:1062200040F8043D05960496FEF74CF805A8FEF7E5
:1062300049F8296819B9034A0A20FEF703FF08B094
:10624000BDE8F081114D0D0010B50446406808B15D
:10625000FDF725FF204610BD07B503690C308DE81A
:1062600009006846FFF7F0FF03B05DF804FB00008B
:1062700038B500230446036014200D46FDF70DFFDA
:1062800028B1012343608360024B036005612060F5
:10629000204638BDE4980D00F0B5002687B00660B2
:1062A0004660044618200F46FDF7F7FECDF810D0E3
:1062B0000546059038B1FFF741F939462846AE82C8
:1062C000EE82FFF7ABF900232946059302AA01AB42
:1062D00003A8FFF7CDFF039B62682560636003A8F6
:1062E0000392FDF7EFFF04A8FFF7AEFF23680BB999
:1062F000FFF7CCF8204607B0F0BD00002DE9F04FC5
:106300001746A1B080460AA80E46FFF7EFF83C6892
:106310002379002B00F0DE803368DD681B6905EB14
:10632000C303039304F1140A04F1280B039BAB424B
:1063300023D0D5F80090504609F11401FFF788F9F1
:10634000002800F0CC8009F128015846FFF780F9B9
:10635000002800F0C480236823F47F41D9F800307E
:1063600023F47F43994240F0BA802023604A15937A
:1063700000230092169315AAA8E004F128094846C4
:10638000FFF718F918B95B494846FFF754F9336825
:106390001D685B6805EBC30A5545494605D028686A
:1063A000FFF756F958BB0835F6E70BA8FFF774FF5F
:1063B000494615A8FFF710F90B9A0023143215A9C6
:1063C0000120FEF7DFFC002878D135680BA90DA865
:1063D000FFF7E6FB28460DA9FFF719FE05460EA8B4
:1063E000FDF770FF002D69D03268556805F1005344
:1063F0001568013B0CA805EBC305FDF763FF04F12D
:1064000014094846FFF7D6F868B93B4B39491A8852
:10641000013292B21A8015A80123FFF7C0F815A91E
:106420004846FFF7FBF84FF02C0A5246002115A80A
:1064300002F0CFFF0123494604A8ADF85430ADF86F
:1064400056A0FFF7C9F804AB18AA0DF1200C186884
:1064500059689646AEE80300083363457246F6D1A4
:106460001868CEF8000023798DF858302B689B8A85
:10647000ADF87430E36B17930022204B1E93A11DDF
:1064800015A81F94FEF7A6FC20BB012323703468D7
:1064900039460C340DA8FFF775FB20460DA9FFF710
:1064A00023FE04460EA8FDF70DFF9CB920230D9393
:1064B000134B00930E9423460DAA07E0394640463D
:1064C000FFF760FB0CA8FDF7FDFE0AE00D49322046
:1064D000FEF7C0FD39464046FFF754FB01E00835A2
:1064E00024E70AA8FFF710F8404621B0BDE8F08F76
:1064F000999A0D0014990D00ACE30320815A0D0008
:10650000729A0D0024990D0010B5064C0023204608
:106510002360FEF79FFC2046034A0449BDE8104073
:1065200002F0BEB9B0E30320D8E203207B540D0093
:10653000F8B506460D468F180024BD420CD03368CE
:1065400015F8011B9B6830469847002801DB04447E
:10655000F3E7002C08BF04462046F8BD70B5054699
:106560000C46084649B102F0A2FF2B6802462146BC
:106570002846DB68BDE87040184770BD03689B681B
:10658000184738B50D210546FFF7F8FF0A210446E4
:106590002846FFF7F3FF204438BD30B58BB00B46DB
:1065A00000218DF82410012A98BF0A220DF123043E
:1065B000B3FBF2F505FB123303F0FF03092B94BF85
:1065C00030333733DBB2214604F801392B46002D36
:1065D000EED1FFF7C3FF0BB030BD0CB42DE9F04393
:1065E00087B000AF07F13804054654F8049B3C60BF
:1065F0000E4623464A461421381DFEF707FE13288F
:1066000005D8391D2846FFF7A9FF044613E000F11D
:10661000080323F00703E846ADEB030D411C2346B6
:106620004A4668463C60FEF7F1FD69462846FFF79A
:1066300095FF0446C5461EB12846FFF7A2FF044455
:1066400020461C37BD46BDE8F04302B07047806865
:106650000368DB681847704719B10B6808465B6828
:106660001847704719B10B6808465B6818477047B0
:1066700070477047704738B504460D4600682E21B4
:1066800002F0E6FE2368C31A2B6023B1037803B13E
:10669000013023682060184638BD10B50C2104462F
:1066A00002F00CF9204610BD10B50421044602F09A
:1066B00005F9204610BD10B50421044602F0FEF88D
:1066C000204610BD38B50C46054601F0D9FB844282
:1066D0000DD001F065FC844205D101F061FCBDE8FC
:1066E000384001F056BC21462846FFF7BBFF38BDB5
:1066F00008B502F0B7FEB0FA80F0400908BD38B521
:10670000054608460C4602F0D2FE214602462846BF
:10671000BDE8384001F0C3BF0068FEF7ABBB70B501
:10672000044608460D4602F0C2FE2368024629468A
:106730002046DB68BDE87040184713B502AB02681D
:1067400003F8011DD46819460122A04702B010BD0C
:106750002DE9F04F4568076885B0914614225543EE
:106760000193AB10194D02925D438B463C460123C9
:10677000002D039323DD029B6E1003FB06F004EB58
:1067800000084A46B8F804A02058D14528BF524610
:10679000594602F094FE039B48B9D14503D1019AB2
:1067A00013703546E4E78CBF0120002000E0C00FE5
:1067B0000028F6D0AE1B08F11404013EF1E7E41BFB
:1067C0000248A410604305B0BDE8F08FCDCCCCCC1E
:1067D000F0B585B003690191067E13B309B304AF28
:1067E000002347F8043D00F10C041D46394601A87A
:1067F000FFF741FF0146A0B104AB039A03F8055D22
:106800002046FFF7A5FF9DF80B3053B123681424F1
:1068100004FB0034083434F9023C002BA8BFDEB27C
:10682000E4E7304605B0F0BD10B5094C2368DB073E
:106830000BD42046FDF742FC38B12046FDF743FC5F
:10684000044A0549054802F02BF8044810BD00BF72
:10685000B4E30320D8E2032073660D0068E203204E
:1068600010B5094C2368DB070BD42046FDF726FC46
:1068700038B12046FDF727FC044A0549054802F0D7
:106880000FF8044810BD00BFE4E30320D8E2032062
:1068900071660D0064E2032038B5002504460560EA
:1068A0004560856005614561856140F8245FFEF7BC
:1068B000D1FAFFF7B9FFE061FFF7D2FF257320623D
:1068C000204638BD10B50A4C2368DB070ED420469D
:1068D000FDF7F4FB50B10748FFF7DEFF2046FDF758
:1068E000F2FB054A0549034801F0DAFF014810BDF3
:1068F000B8E30320BCE30320D8E203202F6D0D0092
:106900000023024A02490348FEF7BCBB116C0D008C
:10691000A16B0D00296B0D0000231A46194618467D
:10692000FEF7B0BB73B502AC8E6851F8043B44F877
:10693000083D054601A8FFF71EF9224631462846C4
:1069400001F0E4FE01A8FDF7BDFC284602B070BDD1
:1069500073B502AC0E6951F8043B44F8083D054696
:1069600001A8FFF708F922463146284601F0E9FE62
:1069700001A8FDF7A7FC284602B070BD73B502ACB4
:10698000CE6851F8043B44F8083D054601A8FFF7DE
:10699000F2F822463146284601F090FE01A8FDF7A4
:1069A00091FC284602B070BD30B58BB00D46014653
:1069B00004A8FFF7B7FF04A801F0B3FDE8B104A9EC
:1069C0006846FFF7DBFF0F490298FFF791FE044688
:1069D00010B12C1C18BF012401A8FDF773FC002C7A
:1069E000E9D004A96846FFF7B3FF684601F079FDD6
:1069F000286001A8FDF766FCDDE705A8FDF762FC4D
:106A00000BB030BD049B0D0037B50C462046134932
:106A1000154602F027FD40B901F032FA4FF4165145
:106A200001F01EFA01F02CFA15E00D49204602F0A3
:106A300019FD78B902A94FF4165341F8043D2846D0
:106A4000FFF7B2FF01F0ACFA019901F09FFA01F0F3
:106A5000A7FA00E0002003B030BD00BF099B0D0085
:106A6000109B0D0070B5046843681426054606FBAC
:106A70000346A64205D004F10800FFF7F3FF1434E3
:106A8000F7E72868FEF7AAFB284670BD70B50468D2
:106A90004368054604EB0316A64204D02046FEF7E1
:106AA00043FC1034F8E72868FEF798FB284670BDD1
:106AB00010B504460C30FFF7D5FF2046FFF7E6FF80
:106AC000204610BD10B5044B044640F8043BFFF7C8
:106AD000EFFF204610BD00BF64960D0010B50446C0
:106AE000FFF7F0FF2046242101F0E8FE204610BD0C
:106AF00010B5034B03600446FFF7E4FF204610BDCA
:106B0000F49A0D0010B50446FFF7F2FF2046242149
:106B100001F0D4FE204610BD10B503680446186885
:106B2000FEF7B0F9204610BD2DE9F04F9B461B4BF8
:106B30005B68C3F3080385B082460E46904653BB9C
:106B4000FFF7C0FE044624300390FFF7E5FD237BEA
:106B5000F3B90123237325686368F6B205EB830953
:106B60004D4513D055F8047B4146381DFFF730FEE4
:106B70008642F5D33B68CDF800B09B689E46384608
:106B80004346324651467746B847E9E70023237328
:106B900003A8FFF7C1FF05B0BDE8F08F00ED00E0EE
:106BA0002DE9F74F9946194B5B68C3F30803074675
:106BB0008846164633BBFFF785FE04462430019015
:106BC000FFF7AAFD237BD3B90123237325686368EC
:106BD0005FFA86FB05EB830A55450ED055F8046B2A
:106BE0004946301DFFF7F4FD8345F5D3336842462F
:106BF000DB68394630469847EEE70023237301A847
:106C0000FFF78AFF03B0BDE8F08F00BF00ED00E0A2
:106C10002DE9F341154B5B68C3F30803044688462E
:106C2000FBB9FFF74FFE064624300190FFF774FDD5
:106C300096E8A000462605EB8707AF4207D101A8DA
:106C4000FFF76AFFB442B4BF002001200AE055F804
:106C5000040B41460430FFF7BBFD8642A8BF064641
:106C6000EBE7002002B0BDE8F08100BF00ED00E0DE
:106C700070B503684268044603EB82029A421846E4
:106C80000ED006680D68AE4203F10403F6D1011D73
:106C9000521A02F083FB6368013B6360012070BD00
:106CA000002070BD1FB50446243001910390FFF70A
:106CB00033FD01A92046FFF7DBFF20B903A8FFF74A
:106CC0002BFF04B010BD6368002BF7D1FFF724FE43
:106CD000F4E770B5056943691826044606FB0356B8
:106CE000AE4215D005F110012046FFF7C1FF6368E1
:106CF0000BB9FFF711FEE06929690368DB68984763
:106D0000696919B1206A0368DB6898471835E7E7B5
:106D100025696369182606FB0356B54204D0284648
:106D2000FEF702FB1835F8E70023636170BD73B509
:106D3000044602ADFFF7F0FD04F1240045F8040D10
:106D4000FFF7EAFC2046FFF7C4FF2846FFF7E4FE02
:106D5000606A08B1FEF786F825696369182606FBA4
:106D60000356B54204D02846FEF7DEFA1835F8E798
:106D70002069FEF733FA2068FEF730FA204602B0A9
:106D800070BD03680A6802600B6043684A6842602D
:106D90004B6083688A6882608B60704710B50023FF
:106DA0000446036043608360FFF7EBFF204610BD9D
:106DB0008842F8B50446164625D9904224D2551A81
:106DC000143D2C44A1F11407A2F10C050026A5F1F5
:106DD00008039F4237D084B155F8083C236035F84A
:106DE000043CA38035F9023CE380A660E66026619E
:106DF000294604F10800FFF7C4FF2846FFF732FEDA
:106E0000143C143DE3E71ED001F108050027A5F16D
:106E100008039E4217D084B155F8083C236035F82A
:106E2000043CA38035F9023CE380A760E76027615A
:106E3000294604F10800FFF7A4FF2846FFF712FED9
:106E400014341435E3E7F8BDF8B5456883689D420E
:106E500004460E4617460EDB0135002D05DDA90060
:106E60000068FEF7C3F920B9F8BD0068FEF7B6F96F
:106E700000202060A5602568626805EB860105EBAF
:106E80008202521A081D02F089FA45F826706368DA
:106E9000013363600120F8BD37B5044624300D4648
:106EA0000190FFF739FC2368616803EB810083429E
:106EB0001A4609D01268AA4203F10403F7D101A8C7
:106EC000FFF72AFE00250EE02A462046FFF7BCFF0A
:106ED00005460028F3D06368012B01D1FFF710FDB0
:106EE00001A8FFF719FE284603B030BD8842F8B567
:106EF00006460C46154614D9904213D2A2F110054D
:106F00006C1AA1F110070444AF4218D01CB12946F5
:106F10002046FEF7F9F92846FEF706FA103D103C28
:106F2000F2E70CD0AC420AD01EB121463046FEF743
:106F3000EBF92046FEF7F8F910341036F2E7F8BD09
:106F400070B50E1E05460BDD3001FEF73FF9044615
:106F500070B195E8060001EB0212FFF7C7FF00E0F1
:106F600000242868FEF73AF92C60AE60012070BD5D
:106F700070BD2DE9F04F002395B092464622036084
:106F800043608360C3600361436102760291DAF873
:106F9000041008939942054609930A9340F39D8093
:106FA00008A8FFF7CDFF002840F097808EE021462B
:106FB0000BA8FEF7A9F90BA90FA8099EFEF7A4F9E3
:106FC00009990A9B9942C0F2CE80013108A8FFF7C7
:106FD000B7FF002840F0C7800FA8FEF7A5F90BA85F
:106FE000FEF7A2F91434A742E1D100260B960C96C5
:106FF0000D96B146099B9E4280F2A8803301089A03
:10700000D3580693002B00F09F8014237343CDF8D0
:107010001C9001930BAC07A906A8FFF72CFB0746B1
:10702000002800F0918014AB014603F8399D079ABF
:107030002046FFF78DFB9DF817800090B8F1000FF8
:1070400053D1BDF81C30ADF840304FF6FF730F97A9
:10705000ADF84230CDF84480CDF84880CDF84C8072
:107060006768A3689F424FDA009BD4F800B061685C
:10707000142253430BEB030702FB01B207F1140088
:1070800039460393FFF794FEA7B1039B0F9A4BF881
:107090000320BDF84030BB80BDF94230FB80C7F80B
:1070A0000890C7F80C90C7F8109011A907F10800D4
:1070B000FFF767FE63680133636011A8FFF7D2FC36
:1070C000B8F1000F11D00BA8FFF7CCFC08A8FFF710
:1070D000DDFC284615B0BDE8F08FDAF80040DAF89C
:1070E0000430142707FB03477DE72368009A142424
:1070F00004FB0234069B1B7823BBDAF80030019AAC
:1071000013441B7CE3801DE00137002F0FDD1423A7
:1071100003FB07F00393FEF759F8834678B194E830
:107120000600039B03FB0212FFF742FE00E0C3468A
:107130002068FEF753F8C4F800B0A76094E74FF05A
:107140000108BAE7083466E7013653E708A928467C
:10715000FFF717FE0BA905F10C00FFF712FE9DF8D3
:1071600008302B76AFE7089B099A03EB061603EB72
:107170000212314606F11000FFF7B8FE1EB10FA94A
:107180003046FEF7C1F8099B0133099324E700005C
:107190007FB50446094B44F8043B05460E4601A85A
:1071A0001146FDF712FB01AA31462046FFF7E1FE2A
:1071B00001A8FDF7A7FA284604B070BD64960D003B
:1071C000F0B50F468BB02B49109C384616461D462D
:1071D00002F048F928BB002C49D0294601A8FFF746
:1071E000DDFD2549242001F06DFB0546B8B101A95C
:1071F00004A8FFF7D3FD04A907A8FDF7E6FA07AA3C
:1072000031462846FFF7C4FF07A8FDF77BFA1B4B62
:107210002B602C6204A8FDF775FA194B2B6001A8AE
:107220001FE01849384602F01DF9F0B9FCB12946B3
:1072300004A8FFF7B3FD1049242001F043FB0546E5
:1072400070B104A907A8FDF7C0FA07AA314628467D
:10725000FFF79EFF07A8FDF755FA084B2B602C623D
:1072600004A8FDF74FFA284602E0002000E020467F
:107270000BB0F0BD5F9B0D00CB9D0D00E89B0D009A
:10728000F49A0D00639B0D00014B024A1A6070478F
:10729000E8E30320749B0D002DE9F047089DD0F82A
:1072A000209004460E461746984600F0E9FD8145B9
:1072B00005D15A4801F01BF8002840F0AC802B792A
:1072C0001B0705D56B69564A206A0021FFF785F92F
:1072D000B8F1000F0DD05B212046FFF72EFA414692
:1072E0002046FFF71CFA23684E49DB68022220463D
:1072F00098472B79D90725D5D5F808802F21404606
:1073000002F0FEF808B100F1010841462046FFF7FF
:1073100006FA2B799A0709D53A212046FFF70DFA8C
:10732000EB68414A206A0021FFF757F92B7913F0E7
:10733000040F236818BF3D49DB6808BF3C4902229F
:10734000204698472B795B0718D529690A461346CA
:1073500013F8010B38B1202801D1194601E0282883
:1073600001D01A46F3E72368521ADB682046984793
:1073700023683049DB6804222046984700213846BC
:10738000FDF778FE01462046FFF7C9F92368284932
:10739000DB680222204698471EB131462046FFF79F
:1073A000BEF92B7913F0300F2DD023682249DB680A
:1073B0002046022298472B79D8060BD523681F490F
:1073C000DB68072220469847AB691D4A206A0021E6
:1073D000FFF703F92B79990611D5DA0605D523684D
:1073E0001249DB6802222046984723681549DB686A
:1073F00020460A229847E9692046FFF790F95D2167
:107400002046FFF79AF923680F49DB6820460222DD
:10741000BDE8F0471847BDE8F08700BF1CE7032030
:10742000789B0D007F9B0D00829B0D00859B0D00BE
:107430008A9B0D00889B0D008D9B0D00909B0D007D
:10744000989B0D009B9B0D00A69B0D002DE9F04322
:1074500085B0D0F820800C9C06460F4691461D460C
:1074600000F00EFD804505D14A4800F040FF00289D
:1074700040F08C80336A484A01924FF0000801A81E
:1074800003938DF8088001F076F841464846FDF7F1
:10749000F1FD42498046012201A801F0F1F8414680
:1074A000FFF72DF93FB13E49012201A801F0E8F8AC
:1074B0003946FFF724F93DB13A49012201A801F00C
:1074C000DFF82946FFF71BF92379DF070ED5A568FA
:1074D0002F21284602F014F800B1451C3249012240
:1074E00001A801F0CDF82946FFF709F923799D0796
:1074F00007D52E49022201A801F0C2F8E16801F087
:1075000047F82379580716D525692F463B4613F8C7
:10751000012B3AB1202A01D11D4601E0282A01D0D1
:107520001F46F3E70222224901A801F0A9F87A1BBD
:10753000294601F0B4F82379190707D51D4901221E
:1075400001A801F09DF8616901F034F82379DA06A9
:1075500008D5042218490DEB020001F091F8A16949
:1075600001F016F823799B0607D51449062201A8D5
:1075700001F086F8E169FFF7C2F801A800F0E5FF25
:10758000306A0F4903680222DB68984705B0BDE8FE
:10759000F08300BF1CE70320DC9A0D000E9B0D005A
:1075A000219B0D001B980D0040980D00A99B0D001C
:1075B000AC9B0D00C9960D00AF9B0D00B49B0D0058
:1075C000A69B0D00024B1A68024B1A60704700BF61
:1075D0006CE20320ECE303200021FDF763BD10B54E
:1075E0008368044613B1032201469847204610BD24
:1075F00010B50446FFF7F3FF204610BD13B50B4648
:10760000044603C88DE8030093E8030084E8030000
:107610009DE8030083E8030002B010BD0348044A5C
:1076200004490023836001F03BB900BFF0E303206D
:10763000D8E20320F1750D0008B50C4B33B100F012
:107640001FFC03681B699847002809DC084B63B1DD
:1076500000F0A6FC03681B699847002803DC08BDFE
:10766000AFF30080F2E7AFF3008008BD0000000038
:107670000000000008B5FFF7DFFFFDF751FB014BED
:10768000186008BD30E703200248034A0349121A74
:1076900001F079BE00F4032004F40320809F0D0064
:1076A00007B5002300931A466FF07701FDF71CFD24
:1076B00003B05DF804FB000007B543880A2B08D02F
:1076C000502B09D1094B1B683BB103B05DF804EBAB
:1076D0001847FFF7E5FF06E0002300931A466FF016
:1076E0007701FDF701FD03B05DF804FB00E4032022
:1076F00038B5104C104D2368AB42104B0CBF012223
:1077000000221A7002D0FFF7BFFF2560FDF7F8FADC
:10771000044601F067FE0A4B13B12046AFF3008028
:1077200000210748FDF74AFD00210648BDE8384022
:10773000FDF7D0BC00F403201E1C279A04E40320AC
:1077400000000000B9760D0070470020704710B5AA
:107750001021044601F0B2F8204610BD08B508B16A
:10776000FFF7F5FF08BD0022026010B54FF69C72CE
:107770008280B1F9044084808A8002680C680460C9
:107780000A6010BD10B504460068FDF727FD2046CD
:1077900010BD38B5C468F4B12378022B03D104F1CD
:1077A0000C00FFF7EFFF656835B12846FFF717FFBC
:1077B0001021284601F082F8A56835B12846FFF768
:1077C0000EFF1021284601F079F820461421BDE86B
:1077D000384001F073B838BD13B5044691E8050090
:1077E00000234B600B602060626001A8019300934E
:1077F000FCF768FD204602B010BDF7B50C4602AD9F
:1078000054F8043B45F8083D06460F4601A82146BA
:10781000FEF7B1F929463046FFF7DEFF01A8FCF775
:1078200051FD2046FCF74EFD3846082101F046F890
:10783000304603B0F0BD000038B5002304460360B5
:1078400010200D46FCF729FC28B10123436083601A
:10785000024B0360C5602060204638BD5C9C0D0073
:10786000826810B50AB901F03CF8C368BDE8104061
:10787000184708B5006800F11001FFF7F1FF08BDD7
:10788000826810B50AB901F02CF8C368BDE8104051
:10789000184708B5006800F11001FFF7F1FF08BDB7
:1078A00038B5002383608B6804460D462BB1022255
:1078B0009847EB68E360AB68A360204638BD0000E2
:1078C000F0B589B004686846FFF74DFF00238DF8D6
:1078D00008304FF00202D4E84F3F002B03D1C4E838
:1078E000412F0029F7D102D08DF8083063E014F160
:1078F0000C0503D069462846FFF735FFBFF35F8FBD
:1079000001236370002004F10803BFF35F8F53E885
:10791000006F43E80002002AF9D1BFF35F8F002E09
:1079200049D0FDF7C7FB20B129463046FFF798FF45
:107930003AE0314602A8FFF7B3FFE068B4F910500F
:1079400008B101F099FD06901020ADF81C50FCF72D
:10795000A4FB0546E8B1002787601820FCF79DFBD3
:10796000044688B10146876002A8FFF747FE049BE2
:10797000A268A360059B049206A9E268E36004F193
:1079800010000592FFF7EFFE0D4BEB600D4B2C60E6
:10799000AB6006A8FFF7F6FE02A8FFF720FE002264
:1079A00029460948FDF78EFB3046FFF718FE1021E7
:1079B000304600F083FF6846FFF7E4FE09B0F0BDF3
:1079C00073780D00E97A0D00ED7F0D002DE9F04F81
:1079D0008BB006460F46904699469DF850A0FDF79D
:1079E000DDFB07AD834630BB4FF62E73059005A92E
:1079F0002846ADF81830FFF7B6FE1420FCF74DFB13
:107A0000044658B10223037001234370C0F804B048
:107A1000C0F808B029460C30FFF7A5FE30462146D5
:107A200040F8044BFFF708FF2846FFF7ABFE05A818
:107A3000FFF7A8FE52E000240C2314206C60AC6019
:107A40000793FCF72AFB014618B1047044704460A8
:107A5000846004A80391FFF7EFFE224B08930820EF
:107A6000FCF71BFB044628B1039B40F8043B04A928
:107A7000FEF781F800955FFA8AF34A464146384698
:107A80000994FDF793FB20B9039B5B7803F0FF0299
:107A900083B1039B059304A906A8FEF76CF805A91A
:107AA0003046FFF799FE06A8FCF70CFC04A8FCF78B
:107AB00009FC13E04FF69C7305A903A80592ADF8E5
:107AC0001830FFF7FDFE05A8FFF75CFE05A8099931
:107AD000FFF793FE06A8FCF7F5FBDAE730460BB09C
:107AE000BDE8F08F597C0D00022AF8B5044606D097
:107AF000032A17D0012A22D10B6803601FE0182047
:107B00000E68FCF7CAFA054650B13146FFF7C8FEC9
:107B10003069B6F9147008B101F0AEFC2861AF828B
:107B200025600CE0046854B104F11000FFF72AFE50
:107B30002046FFF754FD1821204600F0BFFE00202C
:107B4000F8BD38B5002383608B6804460D462BB121
:107B500002229847EB68E360AB68A360204638BD1B
:107B6000022A70B5044606D0032A11D0012A18D182
:107B70000B68036015E014200E68FCF78EFA0546CA
:107B800020B13146FFF7DDFF337C2B74256008E020
:107B9000046834B12046FFF722FD1421204600F08E
:107BA0008DFE002070BD0000F0B5002387B00C46AC
:107BB000BFF35F8F50E8006F40E80032002AF9D130
:107BC000BFF35F8F002E3FD01846FDF773FA0746CC
:107BD00020B121463046FFF753FE2EE0314601A882
:107BE000FFF7AFFF23788DF814301020FCF755FA1B
:107BF0000546D0B187601420FCF74FFA044678B1EF
:107C00008760014601A8FFF7F9FC039BA268A36007
:107C1000049B0392E268E3609DF81430049223749D
:107C20000A4BEB600A4B2C60AB6001A8FFF7D7FC56
:107C3000002229460748FDF745FA3046FFF7CFFCFA
:107C40001021304600F03AFE07B0F0BD93780D00E9
:107C5000617B0D00ED7F0D0030B585B004460D460B
:107C600068461146FFF7C9FD7CB124B228460DB124
:107C700001F002FC029002A96846ADF80C40FFF743
:107C80001FFE02A8FFF77EFD1DE000988DF808405A
:107C90004FF00102D0E84F3FA34203D1C0E8412F8B
:107CA0000029F7D102D08DF808300CE010F10C015A
:107CB0004FF0010318BF0373BFF35F8F043000F868
:107CC000033CFFF771FF01A8FCF7FCFA05B030BDDB
:107CD000704710B51821044600F0F0FD204610BD95
:107CE000F0B5037D062B8DB00E4600F104074FF072
:107CF000000402D000F1080518E00CAD394605F883
:107D0000304D2F232A460A20FDF7C4F8284601F0FB
:107D1000CEFB33680246DB682946304698470FE0C1
:107D200024B12E213046FEF729FC044415F8011D2C
:107D30000A223046FEF731FCBD420444F0D1204611
:107D40000DB0F0BD10B5054B0446112240F8043BC0
:107D5000002101F03EFB204610BD00BF789C0D00C5
:107D60000346074A10B543F8042B01F1100251F8FD
:107D7000044B43F8044B9142F9D10A781A7010BDB4
:107D8000789C0D0010B59DF8084044EA032343EAAF
:107D9000024242EA016104234160037510BD37B518
:107DA0000D788B784A78C97800912946FFF7EAFF69
:107DB00003B030BD41747047704708B50021007CA6
:107DC000FDF728F930EA200028BF4FF0FF3008BD4A
:107DD00008B50121007CFDF71DF930EA200028BF1D
:107DE0004FF0FF3008BD08B5007CFDF70BF920EA25
:107DF000E07008BD08B5007CFDF7FCF820EAE070F3
:107E000008BD007CFDF716B910B51421044600F03A
:107E100055FD204610BD38B50446007C0D46FDF7E3
:107E2000F1F8002801DC607C28B12946207CFDF7B0
:107E3000F9F820EAE07038BD10B50446002363600D
:107E40004FF47A73A360054B236001230846217425
:107E500063741146FDF7B6F8204610BD8C9C0D00EA
:107E60000022007CFDF7B6B8007CFDF7BBB810B56A
:107E700014220446002101F0ACFA204610BD000097
:107E800030B50E4D87B001A8FFF7F1FF296811F05A
:107E9000010410D12846FCF711F960B101AA21466E
:107EA0000748FFF7C9FF2846FCF70DF9054A0649C0
:107EB000034800F0F5FC024807B030BD08E4032099
:107EC0000CE40320D8E20320B97D0D00FCF7F8BED6
:107ED000FCF7EEBE70474174704708B5007CFDF7B3
:107EE00021F820EAE07008BD08B5007CFCF7F2FF3D
:107EF00020EAE07008BD08B5007CFCF7FBFF30EA23
:107F0000200028BF4FF0FF3008BD08B5007CFCF70B
:107F1000E9FF30EA200028BF4FF0FF3008BD007CA9
:107F2000FCF7F0BF10B51421044600F0C7FC204652
:107F300010BD70B5457C04460E4625B9007CFCF7A3
:107F4000F1FF002805DD3146207CBDE87040FCF7DC
:107F5000B9BF284670BD000010B50446084611465A
:107F6000002262604FF47A72A260054A2260012208
:107F7000207462741A46FCF795FF204610BD00BFBE
:107F8000BC9C0D000023007CFCF7D4BF0022FFF74F
:107F9000F9BF007CFCF78EBF007CFCF7BBBF000084
:107FA00038B50C4D296811F0010411D12846FCF7B1
:107FB00085F868B1084A094B09482146FFF7CCFF0C
:107FC0002846FCF780F8074A0749054800F068FC96
:107FD000034838BDB8E40320BCE4032034E40320A4
:107FE00020E40320D8E20320D57E0D0010B583687D
:107FF00004460BB900F075FCC3689847A3681BB131
:10800000032221462046984720461021BDE8104013
:1080100000F054BC7047F8B5064615460C468F185C
:10802000BC4206D0336814F8011B9B683046984761
:10803000F6E72846F8BD0022007CFCF783BF00214C
:10804000007CFCF787BF0021007CFCF78BBF002180
:10805000007CFCF78FBF0021007CFCF793BF10B5BC
:108060001421044600F02AFC204610BD10B5044639
:10807000002363604FF47A73A360044B21740846B5
:1080800023601146FCF78EFF204610BDEC9C0D00CE
:108090000021007CFCF77EBF002211464068FDF7FE
:1080A00065B8002211464068FDF770B800224068AC
:1080B000FDF764B8002281F001014068FDF74EB879
:1080C00000231A4601214068FDF740B800231A46F4
:1080D00019464068FDF732B8002211464068FDF7A6
:1080E00025B8002211464068FDF710B80022022191
:1080F0004068FDF713B800231A464068FCF7FEBF3E
:1081000038B5054688B104684CB1A3681BB1032299
:108110002146204698471021204600F0CFFB2846F4
:108120001421BDE8384000F0C9BB38BD10B1036868
:108130005B681847704710B503680446BBB15868C0
:10814000FCF770FE78B923685A7C12B95868FCF7BE
:1081500071FE23685868FCF775FE206800232360D1
:1081600028B1FFF7CDFF206808B1FFF7C9FF20460F
:1081700010BD38B50446D0F8C40108B1FBF791FF33
:10818000D4F8C00108B1FCF76DFED4F8BC5135B18C
:108190002846FFF7D0FF0421284600F08FFB206817
:1081A00008B1FFF7C3FF204638BD000010B5044BEF
:1081B000044640F8083BFFF7DCFF204610BD00BF37
:1081C000149D0D0038B50E4C0E4B23600025022384
:1081D00004F5E4706360A560C4F8C451C4F8C851E4
:1081E000FCF738FE084BC4F8CC5184F8D05123601A
:1081F0002046064A0649BDE8384000F051BB00BFA2
:1082000040E503207C9D0D00149D0D00D8E2032065
:10821000AD810D00002211464068FCF787BF0022A7
:1082200011464068FCF7A2BF002211464068FCF7E7
:10823000ADBF00224068FCF7A1BF002281F0010120
:108240004068FCF78BBF00231A4619464068FCF7CC
:108250007DBF00231A4619464068FCF76FBF002215
:1082600011464068FCF752BF002202214068FCF72B
:1082700055BF00231A464068FCF740BF024B04225A
:108280005A60024A1A60704714E70320489D0D00A7
:1082900000231A464068FCF731BF002202214068E3
:1082A000FCF73CBF002211464068FCF72FBF0022BC
:1082B00011464068FCF73ABF00231A461946406849
:1082C000FCF73CBF00231A4619464068FCF73EBF46
:1082D000002281F001014068FCF740BF00224068A5
:1082E000FCF74CBF002211464068FCF74FBF00224C
:1082F00011464068FCF73ABF2DE9F043002495B0E1
:1083000016460D460746FFF71DFD214620220CA804
:10831000009401F05EF840230C9321466B460CAAB2
:108320003046FCF7A5FC0446002844D10246012152
:108330006868FCF7FBFE0221804622466868FCF76D
:10834000F5FE009E81462146002E34D0002932D110
:108350007368022B02D00A2B09D02AE0B8F1000F73
:1083600027D0716938460431FFF719FD20E0B9F1D3
:10837000000F1ED07469112201A801F02AF806230B
:108380008DF8143001AD04F10803183418685968E9
:108390002A4603C20833A3421546F7D101A906A80D
:1083A00007ADFFF7DDFC0FCD3C1D0FC42B6823701C
:1083B0000121F669C8E70098FCF752FC384615B071
:1083C000BDE8F083024B034A1A6000225A607047EE
:1083D0001CE703207C9D0D0000F11002012312F820
:1083E000101C0129104604D152F8041C03EB410370
:1083F00004E0022904BF52F8041C5B18013B02F19F
:108400001002ECD170470EB42DE9F04187B000AFF7
:1084100007F13404054654F8046B7C602346324669
:10842000102107F10800FCF7F1FE0F2816D900F122
:10843000080323F00703E846ADEB030D3246411C69
:10844000234668467C60FCF7E1FE021E04DD2B68D3
:1084500069469B6828469847C54607E030B12B68B7
:1084600002469B6807F10801284698471C37BD461D
:10847000BDE8F04103B0704713B502AB026803F8E2
:10848000011D946819460122A04702B010BD8368FF
:10849000FBB11A78032A1AD8DFE802F00417021D8C
:1084A0000520704702685B685268D05C2D2814D0A4
:1084B000A0F13003092B10D9742810D066280ED0F3
:1084C000A0F16E03584258417047062070470020C3
:1084D00070471846704704207047032070470220F9
:1084E000704710B50446FFF7D2FF02280DD016D30F
:1084F000042814D82268A36850685B680A22002107
:108500001844BDE8104001F095B82268A36852688D
:108510005B68D05CA0F174035842584110BD002044
:1085200010BD10B5436904465BB18068E060013B53
:108530001030A060206163612BB1FFF74DFFA06098
:1085400001E0184610BD012010BD10B57D21044684
:10855000FFF792FF01232371204610BD08B5037970
:10856000012B02D0022B02D008BD2C2100E03A21C1
:10857000FFF782FF08BD10B50446FFF7EFFF204666
:108580007B21FFF779FF00232371204610BD0000F7
:1085900038B504460D46FFF7E1FF23680449DB6860
:1085A00020462A46984701232371204638BD00BF44
:1085B000829B0D0038B504460D46FFF7CFFF2368B8
:1085C0000449DB6820462A46984701232371204648
:1085D00038BD00BF0A970D00F8B50D461746222199
:1085E00004462F44FFF748FF2A462946BA4238D0AE
:1085F000164616F8015B222D03D05C2D01D01F2DED
:108600002DD82368521A9B68204698475C21204643
:10861000FFF732FF0C2D19D007D8092D0FD00A2DE6
:1086200012D0082D14D162210AE0222D05D05C2D34
:1086300003D00D2D0CD1722102E0294600E07421F7
:108640002046FFF719FF09E06E21F9E76621F7E7F9
:1086500023680A49DB682A46204698473146324655
:10866000C4E7914204D02368521A9D682046A84767
:1086700022212046FFF700FFF8BD00BFC59D0D0079
:1086800070B504460D461646FFF768FF2046324691
:108690002946FFF7A1FF02232371204670BD70B564
:1086A00004460D461646FFF759FF20463246294636
:1086B000FFF792FF01232371204670BD10B5002300
:1086C0000446036043601048A060E360D1B10B78BA
:1086D000032B06D0B3B9136858684B68C35C6E2B84
:1086E00008D0136858684B680344A3608B684968D6
:1086F0005B1AE3601146204651F8043B40F8043B06
:10870000FDF7EAFA204610BDA89B0D00002310B526
:108710000446036043608360C3600361436171B1D9
:108720000B78012B0BD101F110038360CB684361FF
:10873000114651F8043B40F8043BFDF7CDFA2046C2
:1087400010BD002310B5044603604360816031B161
:10875000114651F8043B40F8043BFDF7BDFA2046B2
:1087600010BD000070B5184E316811F001050446C7
:108770000AD13046FBF7A2FC30B129461348FCF77A
:108780009BFD3046FBF79FFC1048FCF79FFD28B18E
:10879000A4F10B03022B01D8002070BD00F05AF8A1
:1087A000FFF776FC08B1012CF6D9FFF7F9FBFFF7CC
:1087B000F3FB18B1A4F10903012BEDD9232C8CBFD5
:1087C0000020012070BD00BF24E7032028E703201C
:1087D000232838B504460D460AD8FF2908D0FFF7EC
:1087E000C1FF28B129462046BDE83840FCF758BAF9
:1087F00038BD0D2810B504469CBF0E34A4B22046E7
:10880000FFF7B0FF50B103212046FCF741FA0328DF
:1088100004D12046BDE81040FCF75ABA002010BD34
:1088200070B5044614252A46094E002100F0D1FDFA
:10883000258020253146A5602561284600F040F8B6
:1088400031466060284600F03BF8E060204670BD8D
:10885000CB9D0D0030B50E4D296811F0010487B095
:1088600013D12846FBF72AFC78B101A8FFF7D8FFFF
:1088700001AA21460748FFF7F9FB2846FBF723FC2E
:10888000054A0649034800F00BF8024807B030BD1E
:1088900034E7032038E70320D8E2032015800D00D9
:1088A0000B460146184600F051BD0000024B186807
:1088B000BFF35F8F704700BF4CE70320FBF7EFBBB0
:1088C00000F000B810B5002814BF0446012420466B
:1088D000FCF77CFC20B9FFF7E9FF08B18047F6E719
:1088E00010BD08B5FCF79AFC184B1A68D1075CBF9D
:1088F00001221A60164B1A68D2075CBF01221A6067
:10890000144B1A68D0075CBF01221A60124B1A6818
:10891000D1075CBF01221A60104B1A68D2075CBFF6
:1089200001221A600E4B1A68D0075CBF01221A6040
:108930000C4B1A68D1075CBF01221A600A4B1A68F7
:10894000D2075CBF01221A60704700BF6CE70320AA
:1089500068E7032064E7032060E703205CE7032067
:1089600058E7032054E7032050E70320244B1A68FC
:10897000D0075CBF01221A60224B1A68D1075CBF86
:1089800001221A60204B1A68D2075CBF01221A60CC
:108990001E4B1A68D0075CBF01221A601C4B1A6874
:1089A000D1075CBF01221A601A4B1A68D2075CBF5C
:1089B00001221A60184B1A68D0075CBF01221A60A6
:1089C000164B1A68D1075CBF01221A60144B1A6853
:1089D000D2075CBF01221A60124B1A68D0075CBF35
:1089E00001221A60104B1A68D1075CBF01221A607D
:1089F0000E4B1A68D2075CBF01221A60704700BF95
:108A00009CE7032098E7032094E7032090E70320E6
:108A10008CE7032088E7032084E7032080E7032016
:108A20007CE7032078E7032074E7032070E7032046
:108A3000244B1A68D0075CBF01221A60224B1A68C7
:108A4000D1075CBF01221A60204B1A68D2075CBFB5
:108A500001221A601E4B1A68D0075CBF01221A60FF
:108A60001C4B1A68D1075CBF01221A601A4B1A68A6
:108A7000D2075CBF01221A60184B1A68D0075CBF8E
:108A800001221A60164B1A68D1075CBF01221A60D6
:108A9000144B1A68D2075CBF01221A60124B1A6885
:108AA000D0075CBF01221A60104B1A68D1075CBF67
:108AB00001221A600E4B1A68D2075CBF01221A60AD
:108AC000704700BFCCE70320C8E70320C4E70320BA
:108AD000C0E70320BCE70320B8E70320B4E7032086
:108AE000B0E70320ACE70320A8E70320A4E70320B6
:108AF000A0E70320184B1A68D1075CBF01221A6057
:108B0000164B1A68D2075CBF01221A60144B1A6810
:108B1000D0075CBF01221A60124B1A68D1075CBFF4
:108B200001221A60104B1A68D2075CBF01221A603A
:108B30000E4B1A68D0075CBF01221A600C4B1A68F2
:108B4000D1075CBF01221A600A4B1A68D2075CBFCA
:108B500001221A60704700BFECE70320E8E703201A
:108B6000E4E70320E0E70320DCE70320D8E7032065
:108B7000D4E70320D0E7032081F0004102E000BFEA
:108B800083F0004330B54FEA41044FEA430594EACD
:108B9000050F08BF90EA020F1FBF54EA000C55EA08
:108BA000020C7FEA645C7FEA655C00F0E2804FEAD9
:108BB0005454D4EB5555B8BF6D420CDD2C4480EABB
:108BC000020281EA030382EA000083EA010180EAEB
:108BD000020281EA0303362D88BF30BD11F0004F39
:108BE0004FEA01314FF4801C4CEA113102D040426F
:108BF00061EB410113F0004F4FEA03334CEA1333AA
:108C000002D0524263EB430394EA050F00F0A780C1
:108C1000A4F10104D5F1200E0DDB02FA0EFC22FABC
:108C200005F2801841F1000103FA0EF2801843FAB0
:108C300005F359410EE0A5F120050EF1200E012AA1
:108C400003FA0EFC28BF4CF0020C43FA05F3C018DF
:108C500051EBE37101F0004507D54FF0000EDCF158
:108C6000000C7EEB00006EEB0101B1F5801F1BD301
:108C7000B1F5001F0CD349085FEA30004FEA3C0C05
:108C800004F101044FEA445212F5800F80F09A80FB
:108C9000BCF1004F08BF5FEA500C50F1000041EBFF
:108CA000045141EA050130BD5FEA4C0C404141EB03
:108CB000010111F4801FA4F10104E9D191F0000F2A
:108CC00004BF01460020B1FA81F308BF2033A3F1AD
:108CD0000B03B3F120020CDA0C3208DD02F1140CA4
:108CE000C2F10C0201FA0CF021FA02F10CE002F1DF
:108CF0001402D8BFC2F1200C01FA02F120FA0CFCD8
:108D0000DCBF41EA0C019040E41AA2BF01EB045120
:108D1000294330BD6FEA04041F3C1CDA0C340EDC1E
:108D200004F11404C4F1200220FA04F001FA02F361
:108D300040EA030021FA04F345EA030130BDC4F11F
:108D40000C04C4F1200220FA02F001FA04F340EA14
:108D50000300294630BD21FA04F0294630BD94F0C5
:108D6000000F83F4801306BF81F480110134013DAC
:108D70004EE77FEA645C18BF7FEA655C29D094EA1D
:108D8000050F08BF90EA020F05D054EA000C04BF9B
:108D90001946104630BD91EA030F1EBF0021002086
:108DA00030BD5FEA545C05D14000494128BF41F025
:108DB000004130BD14F580043CBF01F5801130BD89
:108DC00001F0004545F0FE4141F470014FF0000014
:108DD00030BD7FEA645C1ABF194610467FEA655CC5
:108DE0001CBF0B46024650EA013406BF52EA033567
:108DF00091EA030F41F4002130BD00BF90F0000F55
:108E000004BF0021704730B54FF4806404F1320490
:108E10004FF000054FF0000150E700BF90F0000F49
:108E200004BF0021704730B54FF4806404F1320470
:108E300010F0004548BF40424FF000013EE700BF40
:108E400042004FEAE2014FEA31014FEA02701FBFD0
:108E500012F07F4393F07F4F81F06051704792F0A2
:108E6000000F14BF93F07F4F704730B54FF460741C
:108E700001F0004521F0004120E700BF50EA010267
:108E800008BF704730B54FF000050AE050EA010214
:108E900008BF704730B511F0004502D5404261EB84
:108EA00041014FF4806404F132045FEA915C3FF4C5
:108EB000DCAE4FF003025FEADC0C18BF03325FEA5E
:108EC000DC0C18BF033202EBDC02C2F1200300FA13
:108ED00003FC20FA02F001FA03FE40EA0E0021FA38
:108EE00002F11444C1E600BF70B54FF0FF0C4CF422
:108EF000E06C1CEA11541DBF1CEA135594EA0C0FD8
:108F000095EA0C0F00F0DEF82C4481EA030621EA12
:108F10004C5123EA4C5350EA013518BF52EA03354D
:108F200041F4801143F4801338D0A0FB02CE4FF0FF
:108F30000005E1FB02E506F00042E0FB03E54FF02F
:108F40000006E1FB03569CF0000F18BF4EF0010E27
:108F5000A4F1FF04B6F5007F64F5407404D25FEA23
:108F60004E0E6D4146EB060642EAC62141EA5551D6
:108F70004FEAC52040EA5E504FEACE2EB4F1FD0C18
:108F800088BFBCF5E06F1ED8BEF1004F08BF5FEA96
:108F9000500E50F1000041EB045170BD06F0004648
:108FA00046EA010140EA020081EA0301B4EB5C04F5
:108FB000C2BFD4EB0C0541EA045170BD41F48011ED
:108FC0004FF0000E013C00F3AB8014F1360FDEBF12
:108FD000002001F0004170BDC4F10004203C35DAEE
:108FE0000C341BDC04F11404C4F1200500FA05F371
:108FF00020FA04F001FA05F240EA020001F0004212
:1090000021F0004110EBD37021FA04F642EB060187
:109010005EEA430E08BF20EAD37070BDC4F10C04B1
:10902000C4F1200500FA04F320FA05F001FA04F275
:1090300040EA020001F0004110EBD37041F1000161
:109040005EEA430E08BF20EAD37070BDC4F120056C
:1090500000FA05F24EEA020E20FA04F301FA05F2D4
:1090600043EA020321FA04F001F0004121FA04F27C
:1090700020EA020000EBD3705EEA430E08BF20EA4C
:10908000D37070BD94F0000F0FD101F00046400086
:1090900041EB010111F4801F08BF013CF7D041EA08
:1090A000060195F0000F18BF704703F0004652000C
:1090B00043EB030313F4801F08BF013DF7D043EADD
:1090C0000603704794EA0C0F0CEA135518BF95EA93
:1090D0000C0F0CD050EA410618BF52EA4306D1D11A
:1090E00081EA030101F000414FF0000070BD50EA39
:1090F000410606BF1046194652EA430619D094EAC3
:109100000C0F02D150EA013613D195EA0C0F05D1AC
:1091100052EA03361CBF104619460AD181EA030100
:1091200001F0004141F0FE4141F470014FF00000B8
:1091300070BD41F0FE4141F4780170BD70B54FF053
:10914000FF0C4CF4E06C1CEA11541DBF1CEA1355D3
:1091500094EA0C0F95EA0C0F00F0A7F8A4EB0504B5
:1091600081EA030E52EA03354FEA013100F08880AC
:109170004FEA03334FF0805545EA131343EA126375
:109180004FEA022245EA111545EA10654FEA00262A
:109190000EF000419D4208BF964244F1FD0404F5E3
:1091A000407402D25B084FEA3202B61A65EB03053F
:1091B0005B084FEA32024FF480104FF4002CB6EBFC
:1091C000020E75EB030E22BFB61A754640EA0C007C
:1091D0005B084FEA3202B6EB020E75EB030E22BFBC
:1091E000B61A754640EA5C005B084FEA3202B6EBFD
:1091F000020E75EB030E22BFB61A754640EA9C00BC
:109200005B084FEA3202B6EB020E75EB030E22BF8B
:10921000B61A754640EADC0055EA060E18D04FEA49
:10922000051545EA16754FEA06164FEAC30343EAE9
:1092300052734FEAC2025FEA1C1CC0D111F4801FB6
:109240000BD141EA00014FF000004FF0004CB6E7AF
:1092500011F4801F04BF01430020B4F1FD0C88BF4E
:10926000BCF5E06F3FF6AFAEB5EB030C04BFB6EB59
:10927000020C5FEA500C50F1000041EB045170BD4C
:109280000EF0004E4EEA113114EB5C04C2BFD4EB79
:109290000C0541EA045170BD41F480114FF0000EFD
:1092A000013C90E645EA060E8DE60CEA135594EA79
:1092B0000C0F08BF95EA0C0F3FF43BAF94EA0C0F7C
:1092C0000AD150EA01347FF434AF95EA0C0F7FF4F1
:1092D00025AF104619462CE795EA0C0F06D152EA45
:1092E00003353FF4FDAE1046194622E750EA410629
:1092F00018BF52EA43067FF4C5AE50EA41047FF43A
:109300000DAF52EA43057FF4EBAE12E74A0011D2EB
:1093100012F5001211D20DD56FF47873B3EB6252CF
:109320000ED44FEAC12343F0004343EA505323FADB
:1093300002F070474FF00000704750EA013002D150
:109340004FF0FF3070474FF00000704710B5054CEC
:1093500013462CB10A4601460220AFF3008010BD2F
:10936000204610BD0000000010B5013902449042B3
:1093700007D010F8013B11F8014FA342F7D0181B9A
:1093800010BD002010BD10B5431E0A44914204D008
:1093900011F8014B03F8014FF8E710BD884210B5F2
:1093A00001EB020301D8421E0BE09842FBD2811868
:1093B000D21AD34204D013F8014D01F8014DF8E759
:1093C00010BD994204D011F8014B02F8014FF8E7A3
:1093D00010BD02440346934202D003F8011BFAE792
:1093E0007047000038B5124B1C68A36B0546D3B913
:1093F0001820FBF7EBFE43F20E33A06303804AF61E
:10940000CD33438041F2342383804EF26D63C380B9
:109410004DF6EC630381052343810B2383810122F5
:109420000023C0E90423A36B00221D615A6138BDEB
:10943000D4E20320C9B2034610F8012B1AB19142BD
:10944000F9D11846704700290CBF18460020704714
:1094500010B50446FFF7EEFF18B9204600F027F8D4
:10946000204410BD10F8012B11F8013B012A28BF40
:109470009A42F7D0D01A7047024B0146186800F0A4
:1094800003B800BFD4E2032070B5064608460C4678
:1094900000F00DF8451C29463046FBF7C7FE06468E
:1094A00018B12A462146FFF76EFF304670BD0346CD
:1094B00013F8012B002AFBD1181A0138704730B578
:1094C00082B1451E013915F8013F11F8014FA34241
:1094D00006D1EC431444E04201D0002BF3D11C46EA
:1094E000181B30BD104630BD10B5034601448B42F9
:1094F00004D01A785C1C0AB12346F8E7181A10BD8C
:1095000038B503460D4641B1002429461846FFF7F9
:1095100091FF30B1431C0446F7E7BDE83840FFF740
:1095200089BF204638BD00002DE9F04780464048FD
:10953000D0F800900F463D4615F8014B09EB0400AA
:10954000407800F0080000F0FF0608B12F46F2E76F
:109550002D2C03D1BD1C7C78012603E02B2C04BFED
:109560007C78BD1C13B1102B0AD15BE0302C57D195
:10957000287800F0DF0058284DD16C781023023590
:10958000002E14BF4FF0004C6FF0004C0027BCFBC6
:10959000F3FA384603FB1ACC09EB040E9EF801E0FF
:1095A0001EF0040F01D0303C0BE01EF0030E1BD068
:1095B000BEF1010F0CBF4FF0370E4FF0570ECEEB40
:1095C0000404A34210DDB7F1FF3F0AD0504506D88E
:1095D00001D1644503DC03FB0040012701E04FF0AB
:1095E000FF3715F8014BD7E77B1C0CD1002E4FF04D
:1095F000220314BF4FF000406FF00040C8F8003065
:109600002AB9BDE8F08706B1404272B107B1691EC0
:109610001160BDE8F0873024002BB1D10823AFE7FB
:109620000A23ADE7302CA3D0AAE7BDE8F08700BF3E
:1096300070E2032013460A46014602480068FFF71D
:1096400073BF00BFD4E2032021400D005D400D0038
:1096500089400D008D400D0000000000000000005A
:10966000000000000000000000000000A9400D0004
:10967000CD400D000000000000000000E9400D009A
:109680001D410D0099720D00CF400D0053746172A1
:1096900074206164766572746973696E67005265DF
:1096A00061642074656D70657261747572653A20CD
:1096B000257500526561642068756D696469747907
:1096C0003A202575006C69676874005265616420F2
:1096D0006C696768743A20257520616E616C6F67EC
:1096E0002072656164006D6F6973747572650052F4
:1096F000656164206D6F6973747572653A202575B4
:1097000000312074656D70203A2025750032207478
:10971000656D70203A20257500332074656D7020CA
:109720003A20257500342074656D70203A20257527
:1097300000352074656D70203A20257500417665EE
:10974000726167652074656D70203A20257500315F
:10975000206C69676874203A2025750032206C6996
:10976000676874203A2025750033206C6967687437
:10977000203A2025750034206C69676874203A20EF
:1097800025750035206C69676874203A20257500BE
:1097900041766572616765206C69676874203A205C
:1097A00025750073656E742076616C7565206D6F2C
:1097B000697374757265203A20257520616E616C3D
:1097C0006F6720726561640074656D700068756D07
:1097D00069640065613532343861342D3433636334
:1097E0002D343139382D613461612D3739323030C3
:1097F000613735303833350034356265346135369C
:109800002D343866352D343833632D386262312D6E
:1098100064336665653433336332336300393961E9
:1098200030643266392D316366612D343262332DF6
:10983000623562612D31623464343334313339320C
:10984000660032396662613366352D346365382DC2
:10985000343662632D386437352D37373830366407
:109860006232326333310037353465626635652DD7
:10987000636533312D343330302D396664352D61D5
:1098800038666234656534613831310000000000AB
:10989000000000009B520D0091520D0087520D00F8
:1098A0007D520D0071520D0065520D0059520D0090
:1098B00051520D0047520D003D520D00F9820D002E
:1098C00000000000000000003F540D0045540D0052
:1098D0004D610D006F540D0041540D00000000005B
:1098E0000000000039540D0053540D0059620D0062
:1098F00073540D003B540D000000000000000000F8
:1099000033540D0061540D000B5C0D0077540D00B5
:1099100035540D007BE327747BF815ACDD49A913A2
:10992000000072F5776972696E672E626C6500538C
:109930007461727420646973636F766572696E67AF
:109940002073657276696365732E00537461727457
:1099500020646973636F766572696E6720636861FE
:109960007261637465726973746963732E00506504
:10997000657220646576696365206973206D69731B
:1099800073696E6721004661696C656420746F209D
:10999000617070656E6420706565722043656E74D9
:1099A00072616C206465766963652E00436F6E6E2C
:1099B00065637465642062792043656E7472616CBE
:1099C000206465766963652E00446973636F6E6E0B
:1099D00065637465642062792072656D6F746520BB
:1099E0006465766963652E0043616E6E6F742061F5
:1099F0006464206E657720706565722064657669A1
:109A000063652E004E6577207065726970686572B7
:109A1000616C20697320636F6E6E65637465642E7C
:109A2000004661696C656420746F20617070656EBA
:109A30006420646973636F7665726564206368612E
:109A400072616374657269737469632E004661693B
:109A50006C656420746F20617070656E6420646949
:109A600073636F766572656420736572766963658A
:109A70002E004661696C656420746F2061707065AA
:109A80006E64206C6F63616C2063686172616374E3
:109A9000657269737469632E004475706C696361E3
:109AA000746564206368617261637465726973745C
:109AB00069632063616E6E6F742062652061646407
:109AC00065642E00FB349B5F800000800010000066
:109AD00000000000000000000000000075660D009E
